{"abi":[{"type":"function","name":"allowance","inputs":[{"name":"owner","type":"address","internalType":"address"},{"name":"spender","type":"address","internalType":"address"},{"name":"id","type":"uint256","internalType":"uint256"}],"outputs":[{"name":"","type":"uint256","internalType":"uint256"}],"stateMutability":"view"},{"type":"function","name":"approve","inputs":[{"name":"spender","type":"address","internalType":"address"},{"name":"id","type":"uint256","internalType":"uint256"},{"name":"amount","type":"uint256","internalType":"uint256"}],"outputs":[{"name":"","type":"bool","internalType":"bool"}],"stateMutability":"nonpayable"},{"type":"function","name":"balanceOf","inputs":[{"name":"owner","type":"address","internalType":"address"},{"name":"id","type":"uint256","internalType":"uint256"}],"outputs":[{"name":"","type":"uint256","internalType":"uint256"}],"stateMutability":"view"},{"type":"function","name":"contractURI","inputs":[],"outputs":[{"name":"","type":"string","internalType":"string"}],"stateMutability":"view"},{"type":"function","name":"isOperator","inputs":[{"name":"owner","type":"address","internalType":"address"},{"name":"spender","type":"address","internalType":"address"}],"outputs":[{"name":"","type":"bool","internalType":"bool"}],"stateMutability":"view"},{"type":"function","name":"setOperator","inputs":[{"name":"spender","type":"address","internalType":"address"},{"name":"approved","type":"bool","internalType":"bool"}],"outputs":[{"name":"","type":"bool","internalType":"bool"}],"stateMutability":"nonpayable"},{"type":"function","name":"supportsInterface","inputs":[{"name":"interfaceId","type":"bytes4","internalType":"bytes4"}],"outputs":[{"name":"","type":"bool","internalType":"bool"}],"stateMutability":"view"},{"type":"function","name":"tokenURI","inputs":[{"name":"id","type":"uint256","internalType":"uint256"}],"outputs":[{"name":"","type":"string","internalType":"string"}],"stateMutability":"view"},{"type":"function","name":"transfer","inputs":[{"name":"receiver","type":"address","internalType":"address"},{"name":"id","type":"uint256","internalType":"uint256"},{"name":"amount","type":"uint256","internalType":"uint256"}],"outputs":[{"name":"","type":"bool","internalType":"bool"}],"stateMutability":"nonpayable"},{"type":"function","name":"transferFrom","inputs":[{"name":"sender","type":"address","internalType":"address"},{"name":"receiver","type":"address","internalType":"address"},{"name":"id","type":"uint256","internalType":"uint256"},{"name":"amount","type":"uint256","internalType":"uint256"}],"outputs":[{"name":"","type":"bool","internalType":"bool"}],"stateMutability":"nonpayable"},{"type":"event","name":"Approval","inputs":[{"name":"owner","type":"address","indexed":true,"internalType":"address"},{"name":"spender","type":"address","indexed":true,"internalType":"address"},{"name":"id","type":"uint256","indexed":true,"internalType":"uint256"},{"name":"amount","type":"uint256","indexed":false,"internalType":"uint256"}],"anonymous":false},{"type":"event","name":"ContractURIUpdated","inputs":[],"anonymous":false},{"type":"event","name":"OperatorSet","inputs":[{"name":"owner","type":"address","indexed":true,"internalType":"address"},{"name":"spender","type":"address","indexed":true,"internalType":"address"},{"name":"approved","type":"bool","indexed":false,"internalType":"bool"}],"anonymous":false},{"type":"event","name":"Transfer","inputs":[{"name":"caller","type":"address","indexed":false,"internalType":"address"},{"name":"sender","type":"address","indexed":true,"internalType":"address"},{"name":"receiver","type":"address","indexed":true,"internalType":"address"},{"name":"id","type":"uint256","indexed":true,"internalType":"uint256"},{"name":"amount","type":"uint256","indexed":false,"internalType":"uint256"}],"anonymous":false},{"type":"event","name":"URI","inputs":[{"name":"value","type":"string","indexed":false,"internalType":"string"},{"name":"id","type":"uint256","indexed":true,"internalType":"uint256"}],"anonymous":false},{"type":"error","name":"ERC6909InsufficientAllowance","inputs":[{"name":"spender","type":"address","internalType":"address"},{"name":"allowance","type":"uint256","internalType":"uint256"},{"name":"needed","type":"uint256","internalType":"uint256"},{"name":"id","type":"uint256","internalType":"uint256"}]},{"type":"error","name":"ERC6909InsufficientBalance","inputs":[{"name":"sender","type":"address","internalType":"address"},{"name":"balance","type":"uint256","internalType":"uint256"},{"name":"needed","type":"uint256","internalType":"uint256"},{"name":"id","type":"uint256","internalType":"uint256"}]},{"type":"error","name":"ERC6909InvalidApprover","inputs":[{"name":"approver","type":"address","internalType":"address"}]},{"type":"error","name":"ERC6909InvalidReceiver","inputs":[{"name":"receiver","type":"address","internalType":"address"}]},{"type":"error","name":"ERC6909InvalidSender","inputs":[{"name":"sender","type":"address","internalType":"address"}]},{"type":"error","name":"ERC6909InvalidSpender","inputs":[{"name":"spender","type":"address","internalType":"address"}]}],"bytecode":{"object":"0x608060405234801561000f575f80fd5b506114408061001d5f395ff3fe608060405234801561000f575f80fd5b506004361061009b575f3560e01c8063598af9e711610064578063598af9e71461018f578063b6363cf2146101bf578063c87b56dd146101ef578063e8a3d4851461021f578063fe99049a1461023d5761009b565b8062fdd58e1461009f57806301ffc9a7146100cf578063095bcdb6146100ff578063426a84931461012f578063558a72971461015f575b5f80fd5b6100b960048036038101906100b49190610f4c565b61026d565b6040516100c69190610f99565b60405180910390f35b6100e960048036038101906100e49190611007565b6102c2565b6040516100f6919061104c565b60405180910390f35b61011960048036038101906101149190611065565b61033b565b604051610126919061104c565b60405180910390f35b61014960048036038101906101449190611065565b61035a565b604051610156919061104c565b60405180910390f35b610179600480360381019061017491906110df565b610379565b604051610186919061104c565b60405180910390f35b6101a960048036038101906101a4919061111d565b610396565b6040516101b69190610f99565b60405180910390f35b6101d960048036038101906101d4919061116d565b610428565b6040516101e6919061104c565b60405180910390f35b610209600480360381019061020491906111ab565b6104b6565b6040516102169190611260565b60405180910390f35b610227610557565b6040516102349190611260565b60405180910390f35b61025760048036038101906102529190611280565b6105e7565b604051610264919061104c565b60405180910390f35b5f805f8473ffffffffffffffffffffffffffffffffffffffff1673ffffffffffffffffffffffffffffffffffffffff1681526020019081526020015f205f8381526020019081526020015f2054905092915050565b5f7f0f632fb3000000000000000000000000000000000000000000000000000000007bffffffffffffffffffffffffffffffffffffffffffffffffffffffff1916827bffffffffffffffffffffffffffffffffffffffffffffffffffffffff19161480610334575061033382610661565b5b9050919050565b5f61034f6103476106ca565b8585856106d1565b600190509392505050565b5f61036e6103666106ca565b8585856107c3565b600190509392505050565b5f61038c6103856106ca565b848461099b565b6001905092915050565b5f60025f8573ffffffffffffffffffffffffffffffffffffffff1673ffffffffffffffffffffffffffffffffffffffff1681526020019081526020015f205f8473ffffffffffffffffffffffffffffffffffffffff1673ffffffffffffffffffffffffffffffffffffffff1681526020019081526020015f205f8381526020019081526020015f205490509392505050565b5f60015f8473ffffffffffffffffffffffffffffffffffffffff1673ffffffffffffffffffffffffffffffffffffffff1681526020019081526020015f205f8373ffffffffffffffffffffffffffffffffffffffff1673ffffffffffffffffffffffffffffffffffffffff1681526020019081526020015f205f9054906101000a900460ff16905092915050565b606060045f8381526020019081526020015f2080546104d490611311565b80601f016020809104026020016040519081016040528092919081815260200182805461050090611311565b801561054b5780601f106105225761010080835404028352916020019161054b565b820191905f5260205f20905b81548152906001019060200180831161052e57829003601f168201915b50505050509050919050565b60606003805461056690611311565b80601f016020809104026020016040519081016040528092919081815260200182805461059290611311565b80156105dd5780601f106105b4576101008083540402835291602001916105dd565b820191905f5260205f20905b8154815290600101906020018083116105c057829003601f168201915b5050505050905090565b5f806105f16106ca565b90508073ffffffffffffffffffffffffffffffffffffffff168673ffffffffffffffffffffffffffffffffffffffff161415801561063657506106348682610428565b155b156106485761064786828686610b74565b5b610654868686866106d1565b6001915050949350505050565b5f7f01ffc9a7000000000000000000000000000000000000000000000000000000007bffffffffffffffffffffffffffffffffffffffffffffffffffffffff1916827bffffffffffffffffffffffffffffffffffffffffffffffffffffffff1916149050919050565b5f33905090565b5f73ffffffffffffffffffffffffffffffffffffffff168473ffffffffffffffffffffffffffffffffffffffff1603610741575f6040517fa43520800000000000000000000000000000000000000000000000000000000081526004016107389190611350565b60405180910390fd5b5f73ffffffffffffffffffffffffffffffffffffffff168373ffffffffffffffffffffffffffffffffffffffff16036107b1575f6040517fb8bbd6100000000000000000000000000000000000000000000000000000000081526004016107a89190611350565b60405180910390fd5b6107bd84848484610c8b565b50505050565b5f73ffffffffffffffffffffffffffffffffffffffff168473ffffffffffffffffffffffffffffffffffffffff1603610833575f6040517fcc766a9800000000000000000000000000000000000000000000000000000000815260040161082a9190611350565b60405180910390fd5b5f73ffffffffffffffffffffffffffffffffffffffff168373ffffffffffffffffffffffffffffffffffffffff16036108a3575f6040517f6f65f46500000000000000000000000000000000000000000000000000000000815260040161089a9190611350565b60405180910390fd5b8060025f8673ffffffffffffffffffffffffffffffffffffffff1673ffffffffffffffffffffffffffffffffffffffff1681526020019081526020015f205f8573ffffffffffffffffffffffffffffffffffffffff1673ffffffffffffffffffffffffffffffffffffffff1681526020019081526020015f205f8481526020019081526020015f2081905550818373ffffffffffffffffffffffffffffffffffffffff168573ffffffffffffffffffffffffffffffffffffffff167fb3fd5071835887567a0671151121894ddccc2842f1d10bedad13e0d17cace9a78460405161098d9190610f99565b60405180910390a450505050565b5f73ffffffffffffffffffffffffffffffffffffffff168373ffffffffffffffffffffffffffffffffffffffff1603610a0b575f6040517fcc766a98000000000000000000000000000000000000000000000000000000008152600401610a029190611350565b60405180910390fd5b5f73ffffffffffffffffffffffffffffffffffffffff168273ffffffffffffffffffffffffffffffffffffffff1603610a7b575f6040517f6f65f465000000000000000000000000000000000000000000000000000000008152600401610a729190611350565b60405180910390fd5b8060015f8573ffffffffffffffffffffffffffffffffffffffff1673ffffffffffffffffffffffffffffffffffffffff1681526020019081526020015f205f8473ffffffffffffffffffffffffffffffffffffffff1673ffffffffffffffffffffffffffffffffffffffff1681526020019081526020015f205f6101000a81548160ff0219169083151502179055508173ffffffffffffffffffffffffffffffffffffffff168373ffffffffffffffffffffffffffffffffffffffff167fceb576d9f15e4e200fdb5096d64d5dfd667e16def20c1eefd14256d8e3faa26783604051610b67919061104c565b60405180910390a3505050565b5f610b80858585610396565b90507fffffffffffffffffffffffffffffffffffffffffffffffffffffffffffffffff811015610c845781811015610bf557838183856040517f58a3fd5a000000000000000000000000000000000000000000000000000000008152600401610bec9493929190611369565b60405180910390fd5b81810360025f8773ffffffffffffffffffffffffffffffffffffffff1673ffffffffffffffffffffffffffffffffffffffff1681526020019081526020015f205f8673ffffffffffffffffffffffffffffffffffffffff1673ffffffffffffffffffffffffffffffffffffffff1681526020019081526020015f205f8581526020019081526020015f20819055505b5050505050565b5f610c946106ca565b90505f73ffffffffffffffffffffffffffffffffffffffff168573ffffffffffffffffffffffffffffffffffffffff1614610db7575f805f8773ffffffffffffffffffffffffffffffffffffffff1673ffffffffffffffffffffffffffffffffffffffff1681526020019081526020015f205f8581526020019081526020015f2054905082811015610d6357858184866040517fb1b4fec0000000000000000000000000000000000000000000000000000000008152600401610d5a9493929190611369565b60405180910390fd5b8281035f808873ffffffffffffffffffffffffffffffffffffffff1673ffffffffffffffffffffffffffffffffffffffff1681526020019081526020015f205f8681526020019081526020015f2081905550505b5f73ffffffffffffffffffffffffffffffffffffffff168473ffffffffffffffffffffffffffffffffffffffff1614610e4c57815f808673ffffffffffffffffffffffffffffffffffffffff1673ffffffffffffffffffffffffffffffffffffffff1681526020019081526020015f205f8581526020019081526020015f205f828254610e4491906113d9565b925050819055505b828473ffffffffffffffffffffffffffffffffffffffff168673ffffffffffffffffffffffffffffffffffffffff167f1b3d7edb2e9c0b0e7c525b20aaaef0f5940d2ed71663c7d39266ecafac7288598486604051610eac92919061140c565b60405180910390a45050505050565b5f80fd5b5f73ffffffffffffffffffffffffffffffffffffffff82169050919050565b5f610ee882610ebf565b9050919050565b610ef881610ede565b8114610f02575f80fd5b50565b5f81359050610f1381610eef565b92915050565b5f819050919050565b610f2b81610f19565b8114610f35575f80fd5b50565b5f81359050610f4681610f22565b92915050565b5f8060408385031215610f6257610f61610ebb565b5b5f610f6f85828601610f05565b9250506020610f8085828601610f38565b9150509250929050565b610f9381610f19565b82525050565b5f602082019050610fac5f830184610f8a565b92915050565b5f7fffffffff0000000000000000000000000000000000000000000000000000000082169050919050565b610fe681610fb2565b8114610ff0575f80fd5b50565b5f8135905061100181610fdd565b92915050565b5f6020828403121561101c5761101b610ebb565b5b5f61102984828501610ff3565b91505092915050565b5f8115159050919050565b61104681611032565b82525050565b5f60208201905061105f5f83018461103d565b92915050565b5f805f6060848603121561107c5761107b610ebb565b5b5f61108986828701610f05565b935050602061109a86828701610f38565b92505060406110ab86828701610f38565b9150509250925092565b6110be81611032565b81146110c8575f80fd5b50565b5f813590506110d9816110b5565b92915050565b5f80604083850312156110f5576110f4610ebb565b5b5f61110285828601610f05565b9250506020611113858286016110cb565b9150509250929050565b5f805f6060848603121561113457611133610ebb565b5b5f61114186828701610f05565b935050602061115286828701610f05565b925050604061116386828701610f38565b9150509250925092565b5f806040838503121561118357611182610ebb565b5b5f61119085828601610f05565b92505060206111a185828601610f05565b9150509250929050565b5f602082840312156111c0576111bf610ebb565b5b5f6111cd84828501610f38565b91505092915050565b5f81519050919050565b5f82825260208201905092915050565b5f5b8381101561120d5780820151818401526020810190506111f2565b5f8484015250505050565b5f601f19601f8301169050919050565b5f611232826111d6565b61123c81856111e0565b935061124c8185602086016111f0565b61125581611218565b840191505092915050565b5f6020820190508181035f8301526112788184611228565b905092915050565b5f805f806080858703121561129857611297610ebb565b5b5f6112a587828801610f05565b94505060206112b687828801610f05565b93505060406112c787828801610f38565b92505060606112d887828801610f38565b91505092959194509250565b7f4e487b71000000000000000000000000000000000000000000000000000000005f52602260045260245ffd5b5f600282049050600182168061132857607f821691505b60208210810361133b5761133a6112e4565b5b50919050565b61134a81610ede565b82525050565b5f6020820190506113635f830184611341565b92915050565b5f60808201905061137c5f830187611341565b6113896020830186610f8a565b6113966040830185610f8a565b6113a36060830184610f8a565b95945050505050565b7f4e487b71000000000000000000000000000000000000000000000000000000005f52601160045260245ffd5b5f6113e382610f19565b91506113ee83610f19565b9250828201905080821115611406576114056113ac565b5b92915050565b5f60408201905061141f5f830185611341565b61142c6020830184610f8a565b939250505056fea164736f6c6343000814000a","linkReferences":{}},"methodIdentifiers":{"allowance(address,address,uint256)":"598af9e7","approve(address,uint256,uint256)":"426a8493","balanceOf(address,uint256)":"00fdd58e","contractURI()":"e8a3d485","isOperator(address,address)":"b6363cf2","setOperator(address,bool)":"558a7297","supportsInterface(bytes4)":"01ffc9a7","tokenURI(uint256)":"c87b56dd","transfer(address,uint256,uint256)":"095bcdb6","transferFrom(address,address,uint256,uint256)":"fe99049a"},"id":63}