{"abi":[{"type":"function","name":"allowance","inputs":[{"name":"owner","type":"address","internalType":"address"},{"name":"spender","type":"address","internalType":"address"},{"name":"id","type":"uint256","internalType":"uint256"}],"outputs":[{"name":"","type":"uint256","internalType":"uint256"}],"stateMutability":"view"},{"type":"function","name":"approve","inputs":[{"name":"spender","type":"address","internalType":"address"},{"name":"id","type":"uint256","internalType":"uint256"},{"name":"amount","type":"uint256","internalType":"uint256"}],"outputs":[{"name":"","type":"bool","internalType":"bool"}],"stateMutability":"nonpayable"},{"type":"function","name":"balanceOf","inputs":[{"name":"owner","type":"address","internalType":"address"},{"name":"id","type":"uint256","internalType":"uint256"}],"outputs":[{"name":"","type":"uint256","internalType":"uint256"}],"stateMutability":"view"},{"type":"function","name":"decimals","inputs":[{"name":"id","type":"uint256","internalType":"uint256"}],"outputs":[{"name":"","type":"uint8","internalType":"uint8"}],"stateMutability":"view"},{"type":"function","name":"isOperator","inputs":[{"name":"owner","type":"address","internalType":"address"},{"name":"spender","type":"address","internalType":"address"}],"outputs":[{"name":"","type":"bool","internalType":"bool"}],"stateMutability":"view"},{"type":"function","name":"name","inputs":[{"name":"id","type":"uint256","internalType":"uint256"}],"outputs":[{"name":"","type":"string","internalType":"string"}],"stateMutability":"view"},{"type":"function","name":"setOperator","inputs":[{"name":"spender","type":"address","internalType":"address"},{"name":"approved","type":"bool","internalType":"bool"}],"outputs":[{"name":"","type":"bool","internalType":"bool"}],"stateMutability":"nonpayable"},{"type":"function","name":"supportsInterface","inputs":[{"name":"interfaceId","type":"bytes4","internalType":"bytes4"}],"outputs":[{"name":"","type":"bool","internalType":"bool"}],"stateMutability":"view"},{"type":"function","name":"symbol","inputs":[{"name":"id","type":"uint256","internalType":"uint256"}],"outputs":[{"name":"","type":"string","internalType":"string"}],"stateMutability":"view"},{"type":"function","name":"transfer","inputs":[{"name":"receiver","type":"address","internalType":"address"},{"name":"id","type":"uint256","internalType":"uint256"},{"name":"amount","type":"uint256","internalType":"uint256"}],"outputs":[{"name":"","type":"bool","internalType":"bool"}],"stateMutability":"nonpayable"},{"type":"function","name":"transferFrom","inputs":[{"name":"sender","type":"address","internalType":"address"},{"name":"receiver","type":"address","internalType":"address"},{"name":"id","type":"uint256","internalType":"uint256"},{"name":"amount","type":"uint256","internalType":"uint256"}],"outputs":[{"name":"","type":"bool","internalType":"bool"}],"stateMutability":"nonpayable"},{"type":"event","name":"Approval","inputs":[{"name":"owner","type":"address","indexed":true,"internalType":"address"},{"name":"spender","type":"address","indexed":true,"internalType":"address"},{"name":"id","type":"uint256","indexed":true,"internalType":"uint256"},{"name":"amount","type":"uint256","indexed":false,"internalType":"uint256"}],"anonymous":false},{"type":"event","name":"ERC6909DecimalsUpdated","inputs":[{"name":"id","type":"uint256","indexed":true,"internalType":"uint256"},{"name":"newDecimals","type":"uint8","indexed":false,"internalType":"uint8"}],"anonymous":false},{"type":"event","name":"ERC6909NameUpdated","inputs":[{"name":"id","type":"uint256","indexed":true,"internalType":"uint256"},{"name":"newName","type":"string","indexed":false,"internalType":"string"}],"anonymous":false},{"type":"event","name":"ERC6909SymbolUpdated","inputs":[{"name":"id","type":"uint256","indexed":true,"internalType":"uint256"},{"name":"newSymbol","type":"string","indexed":false,"internalType":"string"}],"anonymous":false},{"type":"event","name":"OperatorSet","inputs":[{"name":"owner","type":"address","indexed":true,"internalType":"address"},{"name":"spender","type":"address","indexed":true,"internalType":"address"},{"name":"approved","type":"bool","indexed":false,"internalType":"bool"}],"anonymous":false},{"type":"event","name":"Transfer","inputs":[{"name":"caller","type":"address","indexed":false,"internalType":"address"},{"name":"sender","type":"address","indexed":true,"internalType":"address"},{"name":"receiver","type":"address","indexed":true,"internalType":"address"},{"name":"id","type":"uint256","indexed":true,"internalType":"uint256"},{"name":"amount","type":"uint256","indexed":false,"internalType":"uint256"}],"anonymous":false},{"type":"error","name":"ERC6909InsufficientAllowance","inputs":[{"name":"spender","type":"address","internalType":"address"},{"name":"allowance","type":"uint256","internalType":"uint256"},{"name":"needed","type":"uint256","internalType":"uint256"},{"name":"id","type":"uint256","internalType":"uint256"}]},{"type":"error","name":"ERC6909InsufficientBalance","inputs":[{"name":"sender","type":"address","internalType":"address"},{"name":"balance","type":"uint256","internalType":"uint256"},{"name":"needed","type":"uint256","internalType":"uint256"},{"name":"id","type":"uint256","internalType":"uint256"}]},{"type":"error","name":"ERC6909InvalidApprover","inputs":[{"name":"approver","type":"address","internalType":"address"}]},{"type":"error","name":"ERC6909InvalidReceiver","inputs":[{"name":"receiver","type":"address","internalType":"address"}]},{"type":"error","name":"ERC6909InvalidSender","inputs":[{"name":"sender","type":"address","internalType":"address"}]},{"type":"error","name":"ERC6909InvalidSpender","inputs":[{"name":"spender","type":"address","internalType":"address"}]}],"bytecode":{"object":"0x608060405234801561000f575f80fd5b506114ff8061001d5f395ff3fe608060405234801561000f575f80fd5b50600436106100a5575f3560e01c8063426a84931161006f578063426a8493146101995780634e41a1fb146101c9578063558a7297146101f9578063598af9e714610229578063b6363cf214610259578063fe99049a14610289576100a5565b8062ad800c146100a9578062fdd58e146100d957806301ffc9a714610109578063095bcdb6146101395780633f47e66214610169575b5f80fd5b6100c360048036038101906100be9190610f7d565b6102b9565b6040516100d09190611032565b60405180910390f35b6100f360048036038101906100ee91906110ac565b61035c565b60405161010091906110f9565b60405180910390f35b610123600480360381019061011e9190611167565b6103b1565b60405161013091906111ac565b60405180910390f35b610153600480360381019061014e91906111c5565b61042a565b60405161016091906111ac565b60405180910390f35b610183600480360381019061017e9190610f7d565b610449565b6040516101909190611230565b60405180910390f35b6101b360048036038101906101ae91906111c5565b610472565b6040516101c091906111ac565b60405180910390f35b6101e360048036038101906101de9190610f7d565b610491565b6040516101f09190611032565b60405180910390f35b610213600480360381019061020e9190611273565b610535565b60405161022091906111ac565b60405180910390f35b610243600480360381019061023e91906112b1565b610552565b60405161025091906110f9565b60405180910390f35b610273600480360381019061026e9190611301565b6105e4565b60405161028091906111ac565b60405180910390f35b6102a3600480360381019061029e919061133f565b610672565b6040516102b091906111ac565b60405180910390f35b606060035f8381526020019081526020015f205f0180546102d9906113d0565b80601f0160208091040260200160405190810160405280929190818152602001828054610305906113d0565b80156103505780601f1061032757610100808354040283529160200191610350565b820191905f5260205f20905b81548152906001019060200180831161033357829003601f168201915b50505050509050919050565b5f805f8473ffffffffffffffffffffffffffffffffffffffff1673ffffffffffffffffffffffffffffffffffffffff1681526020019081526020015f205f8381526020019081526020015f2054905092915050565b5f7f0f632fb3000000000000000000000000000000000000000000000000000000007bffffffffffffffffffffffffffffffffffffffffffffffffffffffff1916827bffffffffffffffffffffffffffffffffffffffffffffffffffffffff191614806104235750610422826106ec565b5b9050919050565b5f61043e610436610755565b85858561075c565b600190509392505050565b5f60035f8381526020019081526020015f206002015f9054906101000a900460ff169050919050565b5f61048661047e610755565b85858561084e565b600190509392505050565b606060035f8381526020019081526020015f2060010180546104b2906113d0565b80601f01602080910402602001604051908101604052809291908181526020018280546104de906113d0565b80156105295780601f1061050057610100808354040283529160200191610529565b820191905f5260205f20905b81548152906001019060200180831161050c57829003601f168201915b50505050509050919050565b5f610548610541610755565b8484610a26565b6001905092915050565b5f60025f8573ffffffffffffffffffffffffffffffffffffffff1673ffffffffffffffffffffffffffffffffffffffff1681526020019081526020015f205f8473ffffffffffffffffffffffffffffffffffffffff1673ffffffffffffffffffffffffffffffffffffffff1681526020019081526020015f205f8381526020019081526020015f205490509392505050565b5f60015f8473ffffffffffffffffffffffffffffffffffffffff1673ffffffffffffffffffffffffffffffffffffffff1681526020019081526020015f205f8373ffffffffffffffffffffffffffffffffffffffff1673ffffffffffffffffffffffffffffffffffffffff1681526020019081526020015f205f9054906101000a900460ff16905092915050565b5f8061067c610755565b90508073ffffffffffffffffffffffffffffffffffffffff168673ffffffffffffffffffffffffffffffffffffffff16141580156106c157506106bf86826105e4565b155b156106d3576106d286828686610bff565b5b6106df8686868661075c565b6001915050949350505050565b5f7f01ffc9a7000000000000000000000000000000000000000000000000000000007bffffffffffffffffffffffffffffffffffffffffffffffffffffffff1916827bffffffffffffffffffffffffffffffffffffffffffffffffffffffff1916149050919050565b5f33905090565b5f73ffffffffffffffffffffffffffffffffffffffff168473ffffffffffffffffffffffffffffffffffffffff16036107cc575f6040517fa43520800000000000000000000000000000000000000000000000000000000081526004016107c3919061140f565b60405180910390fd5b5f73ffffffffffffffffffffffffffffffffffffffff168373ffffffffffffffffffffffffffffffffffffffff160361083c575f6040517fb8bbd610000000000000000000000000000000000000000000000000000000008152600401610833919061140f565b60405180910390fd5b61084884848484610d16565b50505050565b5f73ffffffffffffffffffffffffffffffffffffffff168473ffffffffffffffffffffffffffffffffffffffff16036108be575f6040517fcc766a980000000000000000000000000000000000000000000000000000000081526004016108b5919061140f565b60405180910390fd5b5f73ffffffffffffffffffffffffffffffffffffffff168373ffffffffffffffffffffffffffffffffffffffff160361092e575f6040517f6f65f465000000000000000000000000000000000000000000000000000000008152600401610925919061140f565b60405180910390fd5b8060025f8673ffffffffffffffffffffffffffffffffffffffff1673ffffffffffffffffffffffffffffffffffffffff1681526020019081526020015f205f8573ffffffffffffffffffffffffffffffffffffffff1673ffffffffffffffffffffffffffffffffffffffff1681526020019081526020015f205f8481526020019081526020015f2081905550818373ffffffffffffffffffffffffffffffffffffffff168573ffffffffffffffffffffffffffffffffffffffff167fb3fd5071835887567a0671151121894ddccc2842f1d10bedad13e0d17cace9a784604051610a1891906110f9565b60405180910390a450505050565b5f73ffffffffffffffffffffffffffffffffffffffff168373ffffffffffffffffffffffffffffffffffffffff1603610a96575f6040517fcc766a98000000000000000000000000000000000000000000000000000000008152600401610a8d919061140f565b60405180910390fd5b5f73ffffffffffffffffffffffffffffffffffffffff168273ffffffffffffffffffffffffffffffffffffffff1603610b06575f6040517f6f65f465000000000000000000000000000000000000000000000000000000008152600401610afd919061140f565b60405180910390fd5b8060015f8573ffffffffffffffffffffffffffffffffffffffff1673ffffffffffffffffffffffffffffffffffffffff1681526020019081526020015f205f8473ffffffffffffffffffffffffffffffffffffffff1673ffffffffffffffffffffffffffffffffffffffff1681526020019081526020015f205f6101000a81548160ff0219169083151502179055508173ffffffffffffffffffffffffffffffffffffffff168373ffffffffffffffffffffffffffffffffffffffff167fceb576d9f15e4e200fdb5096d64d5dfd667e16def20c1eefd14256d8e3faa26783604051610bf291906111ac565b60405180910390a3505050565b5f610c0b858585610552565b90507fffffffffffffffffffffffffffffffffffffffffffffffffffffffffffffffff811015610d0f5781811015610c8057838183856040517f58a3fd5a000000000000000000000000000000000000000000000000000000008152600401610c779493929190611428565b60405180910390fd5b81810360025f8773ffffffffffffffffffffffffffffffffffffffff1673ffffffffffffffffffffffffffffffffffffffff1681526020019081526020015f205f8673ffffffffffffffffffffffffffffffffffffffff1673ffffffffffffffffffffffffffffffffffffffff1681526020019081526020015f205f8581526020019081526020015f20819055505b5050505050565b5f610d1f610755565b90505f73ffffffffffffffffffffffffffffffffffffffff168573ffffffffffffffffffffffffffffffffffffffff1614610e42575f805f8773ffffffffffffffffffffffffffffffffffffffff1673ffffffffffffffffffffffffffffffffffffffff1681526020019081526020015f205f8581526020019081526020015f2054905082811015610dee57858184866040517fb1b4fec0000000000000000000000000000000000000000000000000000000008152600401610de59493929190611428565b60405180910390fd5b8281035f808873ffffffffffffffffffffffffffffffffffffffff1673ffffffffffffffffffffffffffffffffffffffff1681526020019081526020015f205f8681526020019081526020015f2081905550505b5f73ffffffffffffffffffffffffffffffffffffffff168473ffffffffffffffffffffffffffffffffffffffff1614610ed757815f808673ffffffffffffffffffffffffffffffffffffffff1673ffffffffffffffffffffffffffffffffffffffff1681526020019081526020015f205f8581526020019081526020015f205f828254610ecf9190611498565b925050819055505b828473ffffffffffffffffffffffffffffffffffffffff168673ffffffffffffffffffffffffffffffffffffffff167f1b3d7edb2e9c0b0e7c525b20aaaef0f5940d2ed71663c7d39266ecafac7288598486604051610f379291906114cb565b60405180910390a45050505050565b5f80fd5b5f819050919050565b610f5c81610f4a565b8114610f66575f80fd5b50565b5f81359050610f7781610f53565b92915050565b5f60208284031215610f9257610f91610f46565b5b5f610f9f84828501610f69565b91505092915050565b5f81519050919050565b5f82825260208201905092915050565b5f5b83811015610fdf578082015181840152602081019050610fc4565b5f8484015250505050565b5f601f19601f8301169050919050565b5f61100482610fa8565b61100e8185610fb2565b935061101e818560208601610fc2565b61102781610fea565b840191505092915050565b5f6020820190508181035f83015261104a8184610ffa565b905092915050565b5f73ffffffffffffffffffffffffffffffffffffffff82169050919050565b5f61107b82611052565b9050919050565b61108b81611071565b8114611095575f80fd5b50565b5f813590506110a681611082565b92915050565b5f80604083850312156110c2576110c1610f46565b5b5f6110cf85828601611098565b92505060206110e085828601610f69565b9150509250929050565b6110f381610f4a565b82525050565b5f60208201905061110c5f8301846110ea565b92915050565b5f7fffffffff0000000000000000000000000000000000000000000000000000000082169050919050565b61114681611112565b8114611150575f80fd5b50565b5f813590506111618161113d565b92915050565b5f6020828403121561117c5761117b610f46565b5b5f61118984828501611153565b91505092915050565b5f8115159050919050565b6111a681611192565b82525050565b5f6020820190506111bf5f83018461119d565b92915050565b5f805f606084860312156111dc576111db610f46565b5b5f6111e986828701611098565b93505060206111fa86828701610f69565b925050604061120b86828701610f69565b9150509250925092565b5f60ff82169050919050565b61122a81611215565b82525050565b5f6020820190506112435f830184611221565b92915050565b61125281611192565b811461125c575f80fd5b50565b5f8135905061126d81611249565b92915050565b5f806040838503121561128957611288610f46565b5b5f61129685828601611098565b92505060206112a78582860161125f565b9150509250929050565b5f805f606084860312156112c8576112c7610f46565b5b5f6112d586828701611098565b93505060206112e686828701611098565b92505060406112f786828701610f69565b9150509250925092565b5f806040838503121561131757611316610f46565b5b5f61132485828601611098565b925050602061133585828601611098565b9150509250929050565b5f805f806080858703121561135757611356610f46565b5b5f61136487828801611098565b945050602061137587828801611098565b935050604061138687828801610f69565b925050606061139787828801610f69565b91505092959194509250565b7f4e487b71000000000000000000000000000000000000000000000000000000005f52602260045260245ffd5b5f60028204905060018216806113e757607f821691505b6020821081036113fa576113f96113a3565b5b50919050565b61140981611071565b82525050565b5f6020820190506114225f830184611400565b92915050565b5f60808201905061143b5f830187611400565b61144860208301866110ea565b61145560408301856110ea565b61146260608301846110ea565b95945050505050565b7f4e487b71000000000000000000000000000000000000000000000000000000005f52601160045260245ffd5b5f6114a282610f4a565b91506114ad83610f4a565b92508282019050808211156114c5576114c461146b565b5b92915050565b5f6040820190506114de5f830185611400565b6114eb60208301846110ea565b939250505056fea164736f6c6343000814000a","linkReferences":{}},"methodIdentifiers":{"allowance(address,address,uint256)":"598af9e7","approve(address,uint256,uint256)":"426a8493","balanceOf(address,uint256)":"00fdd58e","decimals(uint256)":"3f47e662","isOperator(address,address)":"b6363cf2","name(uint256)":"00ad800c","setOperator(address,bool)":"558a7297","supportsInterface(bytes4)":"01ffc9a7","symbol(uint256)":"4e41a1fb","transfer(address,uint256,uint256)":"095bcdb6","transferFrom(address,address,uint256,uint256)":"fe99049a"},"id":47}