{"abi":[{"type":"function","name":"selectOptimalStableCoin","inputs":[{"name":"tokenId","type":"uint256","internalType":"uint256"},{"name":"businessId","type":"bytes32","internalType":"bytes32"},{"name":"countryCodeHash","type":"bytes32","internalType":"bytes32"},{"name":"metrics","type":"tuple","internalType":"struct Metrics","components":[{"name":"financialHealth","type":"uint256","internalType":"FinancialHealth"},{"name":"marketRisk","type":"uint256","internalType":"MarketRisk"},{"name":"businessFundamentals","type":"uint256","internalType":"BusinessFundamentals"},{"name":"creditRisk","type":"uint256","internalType":"CreditRisk"}]}],"outputs":[{"name":"","type":"address","internalType":"contract IERC20"}],"stateMutability":"nonpayable"},{"type":"event","name":"StableCoinSelected","inputs":[{"name":"tokenId","type":"uint256","indexed":true,"internalType":"uint256"},{"name":"stableCoin","type":"address","indexed":true,"internalType":"address"}],"anonymous":false}],"bytecode":{"object":"0x608060405234801561000f575f80fd5b5061039d8061001d5f395ff3fe608060405234801561000f575f80fd5b5060043610610029575f3560e01c80630a36360e1461002d575b5f80fd5b61004760048036038101906100429190610299565b61005d565b6040516100549190610377565b60405180910390f35b5f738a567e2ae79ca692bd748ab832081c45de4041ea9050949350505050565b5f604051905090565b5f80fd5b5f819050919050565b61009c8161008a565b81146100a6575f80fd5b50565b5f813590506100b781610093565b92915050565b5f819050919050565b6100cf816100bd565b81146100d9575f80fd5b50565b5f813590506100ea816100c6565b92915050565b5f80fd5b5f601f19601f8301169050919050565b7f4e487b71000000000000000000000000000000000000000000000000000000005f52604160045260245ffd5b61013a826100f4565b810181811067ffffffffffffffff8211171561015957610158610104565b5b80604052505050565b5f61016b61007d565b90506101778282610131565b919050565b6101858161008a565b811461018f575f80fd5b50565b5f813590506101a08161017c565b92915050565b6101af8161008a565b81146101b9575f80fd5b50565b5f813590506101ca816101a6565b92915050565b6101d98161008a565b81146101e3575f80fd5b50565b5f813590506101f4816101d0565b92915050565b6102038161008a565b811461020d575f80fd5b50565b5f8135905061021e816101fa565b92915050565b5f60808284031215610239576102386100f0565b5b6102436080610162565b90505f61025284828501610192565b5f830152506020610265848285016101bc565b6020830152506040610279848285016101e6565b604083015250606061028d84828501610210565b60608301525092915050565b5f805f8060e085870312156102b1576102b0610086565b5b5f6102be878288016100a9565b94505060206102cf878288016100dc565b93505060406102e0878288016100dc565b92505060606102f187828801610224565b91505092959194509250565b5f73ffffffffffffffffffffffffffffffffffffffff82169050919050565b5f819050919050565b5f61033f61033a610335846102fd565b61031c565b6102fd565b9050919050565b5f61035082610325565b9050919050565b5f61036182610346565b9050919050565b61037181610357565b82525050565b5f60208201905061038a5f830184610368565b9291505056fea164736f6c6343000814000a","linkReferences":{}},"methodIdentifiers":{"selectOptimalStableCoin(uint256,bytes32,bytes32,(uint256,uint256,uint256,uint256))":"0a36360e"},"id":132}