{
  "_format": "hh-sol-artifact-1",
  "contractName": "SimpleSelfTest",
  "sourceName": "contracts/SimpleSelfTest.sol",
  "abi": [
    {
      "inputs": [],
      "stateMutability": "nonpayable",
      "type": "constructor"
    },
    {
      "inputs": [
        {
          "internalType": "address",
          "name": "owner",
          "type": "address"
        }
      ],
      "name": "OwnableInvalidOwner",
      "type": "error"
    },
    {
      "inputs": [
        {
          "internalType": "address",
          "name": "account",
          "type": "address"
        }
      ],
      "name": "OwnableUnauthorizedAccount",
      "type": "error"
    },
    {
      "anonymous": false,
      "inputs": [
        {
          "indexed": true,
          "internalType": "address",
          "name": "merchant",
          "type": "address"
        },
        {
          "indexed": false,
          "internalType": "bool",
          "name": "verified",
          "type": "bool"
        }
      ],
      "name": "MerchantVerified",
      "type": "event"
    },
    {
      "anonymous": false,
      "inputs": [
        {
          "indexed": true,
          "internalType": "address",
          "name": "previousOwner",
          "type": "address"
        },
        {
          "indexed": true,
          "internalType": "address",
          "name": "newOwner",
          "type": "address"
        }
      ],
      "name": "OwnershipTransferred",
      "type": "event"
    },
    {
      "inputs": [
        {
          "internalType": "address",
          "name": "merchant",
          "type": "address"
        }
      ],
      "name": "isMerchantVerified",
      "outputs": [
        {
          "internalType": "bool",
          "name": "",
          "type": "bool"
        }
      ],
      "stateMutability": "view",
      "type": "function"
    },
    {
      "inputs": [],
      "name": "owner",
      "outputs": [
        {
          "internalType": "address",
          "name": "",
          "type": "address"
        }
      ],
      "stateMutability": "view",
      "type": "function"
    },
    {
      "inputs": [],
      "name": "renounceOwnership",
      "outputs": [],
      "stateMutability": "nonpayable",
      "type": "function"
    },
    {
      "inputs": [
        {
          "internalType": "address",
          "name": "merchant",
          "type": "address"
        },
        {
          "internalType": "bool",
          "name": "verified",
          "type": "bool"
        }
      ],
      "name": "setMerchantVerification",
      "outputs": [],
      "stateMutability": "nonpayable",
      "type": "function"
    },
    {
      "inputs": [
        {
          "internalType": "address",
          "name": "newOwner",
          "type": "address"
        }
      ],
      "name": "transferOwnership",
      "outputs": [],
      "stateMutability": "nonpayable",
      "type": "function"
    },
    {
      "inputs": [
        {
          "internalType": "address",
          "name": "",
          "type": "address"
        }
      ],
      "name": "verifiedMerchants",
      "outputs": [
        {
          "internalType": "bool",
          "name": "",
          "type": "bool"
        }
      ],
      "stateMutability": "view",
      "type": "function"
    }
  ],
  "bytecode": "0x6080604052348015600f57600080fd5b503380603557604051631e4fbdf760e01b81526000600482015260240160405180910390fd5b603c816041565b506091565b600080546001600160a01b038381166001600160a01b0319831681178455604051919092169283917f8be0079c531659141344cd1fd0a4f28419497f9722a3daafe3b4186f6b6457e09190a35050565b610301806100a06000396000f3fe608060405234801561001057600080fd5b50600436106100625760003560e01c80632003f60c14610067578063521da1c9146100a8578063715018a6146100bd5780638da5cb5b146100c5578063aa7496fc146100e0578063f2fde38b14610103575b600080fd5b61009361007536600461026d565b6001600160a01b031660009081526001602052604090205460ff1690565b60405190151581526020015b60405180910390f35b6100bb6100b636600461028f565b610116565b005b6100bb61017d565b6000546040516001600160a01b03909116815260200161009f565b6100936100ee36600461026d565b60016020526000908152604090205460ff1681565b6100bb61011136600461026d565b610191565b61011e6101d4565b6001600160a01b038216600081815260016020908152604091829020805460ff191685151590811790915591519182527fbd12340699dd296c56f871fa250ed79a9763c0f6dd8c79b03f4f73995e19a5d1910160405180910390a25050565b6101856101d4565b61018f6000610201565b565b6101996101d4565b6001600160a01b0381166101c857604051631e4fbdf760e01b8152600060048201526024015b60405180910390fd5b6101d181610201565b50565b6000546001600160a01b0316331461018f5760405163118cdaa760e01b81523360048201526024016101bf565b600080546001600160a01b038381166001600160a01b0319831681178455604051919092169283917f8be0079c531659141344cd1fd0a4f28419497f9722a3daafe3b4186f6b6457e09190a35050565b80356001600160a01b038116811461026857600080fd5b919050565b60006020828403121561027f57600080fd5b61028882610251565b9392505050565b600080604083850312156102a257600080fd5b6102ab83610251565b9150602083013580151581146102c057600080fd5b80915050925092905056fea2646970667358221220cf59a2e123b28d38fbdaa1a313f9e182e8831c11b2b34165af3541c89c11a9bd64736f6c634300081e0033",
  "linkReferences": {},
  "deployedLinkReferences": {}
}