{"abi":[{"type":"constructor","inputs":[{"name":"_collateralConfigurationModule","type":"address","internalType":"contract ICollateralConfigurationModule"}],"stateMutability":"nonpayable"},{"type":"function","name":"collateralConfigurationModule","inputs":[],"outputs":[{"name":"","type":"address","internalType":"contract ICollateralConfigurationModule"}],"stateMutability":"view"},{"type":"function","name":"validate","inputs":[{"name":"collateral","type":"tuple","internalType":"struct Collateral","components":[{"name":"currency","type":"address","internalType":"Currency"},{"name":"collateralType","type":"uint8","internalType":"enum CollateralType"}]}],"outputs":[{"name":"","type":"bool","internalType":"bool"}],"stateMutability":"view"},{"type":"error","name":"CryptoCollateralValidator__InvalidCollateralType","inputs":[{"name":"collateralType","type":"uint8","internalType":"enum CollateralType"}]}],"bytecode":{"object":"0x608060405234801561000f575f80fd5b506040516107a43803806107a4833981810160405281019061003191906100e5565b805f806101000a81548173ffffffffffffffffffffffffffffffffffffffff021916908373ffffffffffffffffffffffffffffffffffffffff16021790555050610110565b5f80fd5b5f73ffffffffffffffffffffffffffffffffffffffff82169050919050565b5f6100a38261007a565b9050919050565b5f6100b482610099565b9050919050565b6100c4816100aa565b81146100ce575f80fd5b50565b5f815190506100df816100bb565b92915050565b5f602082840312156100fa576100f9610076565b5b5f610107848285016100d1565b91505092915050565b6106878061011d5f395ff3fe608060405234801561000f575f80fd5b5060043610610034575f3560e01c80637ca45e2a14610038578063c30feb5914610068575b5f80fd5b610052600480360381019061004d919061036b565b610086565b60405161005f91906103b0565b60405180910390f35b6100706101e5565b60405161007d9190610424565b60405180910390f35b5f6002600481111561009b5761009a61043d565b5b826020015160048111156100b2576100b161043d565b5b146100f85781602001516040517fa9e68b370000000000000000000000000000000000000000000000000000000081526004016100ef91906104b0565b60405180910390fd5b5f805f9054906101000a900473ffffffffffffffffffffffffffffffffffffffff1673ffffffffffffffffffffffffffffffffffffffff1663dc0b3f52845f01516040518263ffffffff1660e01b815260040161015591906104d8565b60e060405180830381865afa158015610170573d5f803e3d5ffd5b505050506040513d601f19601f82011682018060405250810190610194919061065c565b90505f815f015180156101d95750835f015173ffffffffffffffffffffffffffffffffffffffff168260a0015173ffffffffffffffffffffffffffffffffffffffff16145b90508092505050919050565b5f8054906101000a900473ffffffffffffffffffffffffffffffffffffffff1681565b5f604051905090565b5f80fd5b5f80fd5b5f601f19601f8301169050919050565b7f4e487b71000000000000000000000000000000000000000000000000000000005f52604160045260245ffd5b61025f82610219565b810181811067ffffffffffffffff8211171561027e5761027d610229565b5b80604052505050565b5f610290610208565b905061029c8282610256565b919050565b5f73ffffffffffffffffffffffffffffffffffffffff82169050919050565b5f6102ca826102a1565b9050919050565b6102da816102c0565b81146102e4575f80fd5b50565b5f813590506102f5816102d1565b92915050565b60058110610307575f80fd5b50565b5f81359050610318816102fb565b92915050565b5f6040828403121561033357610332610215565b5b61033d6040610287565b90505f61034c848285016102e7565b5f83015250602061035f8482850161030a565b60208301525092915050565b5f604082840312156103805761037f610211565b5b5f61038d8482850161031e565b91505092915050565b5f8115159050919050565b6103aa81610396565b82525050565b5f6020820190506103c35f8301846103a1565b92915050565b5f819050919050565b5f6103ec6103e76103e2846102a1565b6103c9565b6102a1565b9050919050565b5f6103fd826103d2565b9050919050565b5f61040e826103f3565b9050919050565b61041e81610404565b82525050565b5f6020820190506104375f830184610415565b92915050565b7f4e487b71000000000000000000000000000000000000000000000000000000005f52602160045260245ffd5b6005811061047b5761047a61043d565b5b50565b5f81905061048b8261046a565b919050565b5f61049a8261047e565b9050919050565b6104aa81610490565b82525050565b5f6020820190506104c35f8301846104a1565b92915050565b6104d2816102c0565b82525050565b5f6020820190506104eb5f8301846104c9565b92915050565b6104fa81610396565b8114610504575f80fd5b50565b5f81519050610515816104f1565b92915050565b5f819050919050565b61052d8161051b565b8114610537575f80fd5b50565b5f8151905061054881610524565b92915050565b5f819050919050565b6105608161054e565b811461056a575f80fd5b50565b5f8151905061057b81610557565b92915050565b61058a816102c0565b8114610594575f80fd5b50565b5f815190506105a581610581565b92915050565b5f60e082840312156105c0576105bf610215565b5b6105ca60e0610287565b90505f6105d984828501610507565b5f8301525060206105ec8482850161053a565b60208301525060406106008482850161053a565b60408301525060606106148482850161053a565b60608301525060806106288482850161056d565b60808301525060a061063c84828501610597565b60a08301525060c06106508482850161053a565b60c08301525092915050565b5f60e0828403121561067157610670610211565b5b5f61067e848285016105ab565b9150509291505056","linkReferences":{}},"methodIdentifiers":{"collateralConfigurationModule()":"c30feb59","validate((address,uint8))":"7ca45e2a"},"id":193}