{"abi":[{"type":"constructor","inputs":[{"name":"_factory","type":"address","internalType":"address"},{"name":"_algebraFeeManager","type":"address","internalType":"address"}],"stateMutability":"nonpayable"},{"type":"function","name":"COMMUNITY_FEE_VAULT_ADMINISTRATOR","inputs":[],"outputs":[{"name":"","type":"bytes32","internalType":"bytes32"}],"stateMutability":"view"},{"type":"function","name":"COMMUNITY_FEE_WITHDRAWER_ROLE","inputs":[],"outputs":[{"name":"","type":"bytes32","internalType":"bytes32"}],"stateMutability":"view"},{"type":"function","name":"acceptAlgebraFeeChangeProposal","inputs":[{"name":"newAlgebraFee","type":"uint16","internalType":"uint16"}],"outputs":[],"stateMutability":"nonpayable"},{"type":"function","name":"acceptAlgebraFeeManagerRole","inputs":[],"outputs":[],"stateMutability":"nonpayable"},{"type":"function","name":"algebraFee","inputs":[],"outputs":[{"name":"","type":"uint16","internalType":"uint16"}],"stateMutability":"view"},{"type":"function","name":"algebraFeeManager","inputs":[],"outputs":[{"name":"","type":"address","internalType":"address"}],"stateMutability":"view"},{"type":"function","name":"algebraFeeReceiver","inputs":[],"outputs":[{"name":"","type":"address","internalType":"address"}],"stateMutability":"view"},{"type":"function","name":"cancelAlgebraFeeChangeProposal","inputs":[],"outputs":[],"stateMutability":"nonpayable"},{"type":"function","name":"changeAlgebraFeeReceiver","inputs":[{"name":"newAlgebraFeeReceiver","type":"address","internalType":"address"}],"outputs":[],"stateMutability":"nonpayable"},{"type":"function","name":"changeCommunityFeeReceiver","inputs":[{"name":"newCommunityFeeReceiver","type":"address","internalType":"address"}],"outputs":[],"stateMutability":"nonpayable"},{"type":"function","name":"communityFeeReceiver","inputs":[],"outputs":[{"name":"","type":"address","internalType":"address"}],"stateMutability":"view"},{"type":"function","name":"hasNewAlgebraFeeProposal","inputs":[],"outputs":[{"name":"","type":"bool","internalType":"bool"}],"stateMutability":"view"},{"type":"function","name":"proposeAlgebraFeeChange","inputs":[{"name":"newAlgebraFee","type":"uint16","internalType":"uint16"}],"outputs":[],"stateMutability":"nonpayable"},{"type":"function","name":"proposedNewAlgebraFee","inputs":[],"outputs":[{"name":"","type":"uint16","internalType":"uint16"}],"stateMutability":"view"},{"type":"function","name":"transferAlgebraFeeManagerRole","inputs":[{"name":"_newAlgebraFeeManager","type":"address","internalType":"address"}],"outputs":[],"stateMutability":"nonpayable"},{"type":"function","name":"withdraw","inputs":[{"name":"token","type":"address","internalType":"address"},{"name":"amount","type":"uint256","internalType":"uint256"}],"outputs":[],"stateMutability":"nonpayable"},{"type":"function","name":"withdrawTokens","inputs":[{"name":"params","type":"tuple[]","internalType":"struct IAlgebraCommunityVault.WithdrawTokensParams[]","components":[{"name":"token","type":"address","internalType":"address"},{"name":"amount","type":"uint256","internalType":"uint256"}]}],"outputs":[],"stateMutability":"nonpayable"},{"type":"event","name":"AlgebraFee","inputs":[{"name":"newAlgebraFee","type":"uint16","indexed":false,"internalType":"uint16"}],"anonymous":false},{"type":"event","name":"AlgebraFeeManager","inputs":[{"name":"newAlgebraFeeManager","type":"address","indexed":false,"internalType":"address"}],"anonymous":false},{"type":"event","name":"AlgebraFeeProposal","inputs":[{"name":"proposedNewAlgebraFee","type":"uint16","indexed":false,"internalType":"uint16"}],"anonymous":false},{"type":"event","name":"AlgebraFeeReceiver","inputs":[{"name":"newAlgebraFeeReceiver","type":"address","indexed":false,"internalType":"address"}],"anonymous":false},{"type":"event","name":"AlgebraTokensWithdrawal","inputs":[{"name":"token","type":"address","indexed":true,"internalType":"address"},{"name":"to","type":"address","indexed":true,"internalType":"address"},{"name":"amount","type":"uint256","indexed":false,"internalType":"uint256"}],"anonymous":false},{"type":"event","name":"CancelAlgebraFeeProposal","inputs":[],"anonymous":false},{"type":"event","name":"CommunityFeeReceiver","inputs":[{"name":"newCommunityFeeReceiver","type":"address","indexed":false,"internalType":"address"}],"anonymous":false},{"type":"event","name":"PendingAlgebraFeeManager","inputs":[{"name":"pendingAlgebraFeeManager","type":"address","indexed":false,"internalType":"address"}],"anonymous":false},{"type":"event","name":"TokensWithdrawal","inputs":[{"name":"token","type":"address","indexed":true,"internalType":"address"},{"name":"to","type":"address","indexed":true,"internalType":"address"},{"name":"amount","type":"uint256","indexed":false,"internalType":"uint256"}],"anonymous":false},{"type":"error","name":"transferFailed","inputs":[]}],"bytecode":{"object":"0x60a060405234801562000010575f80fd5b5060405162001e7038038062001e7083398181016040528101906200003691906200011c565b818160025f8291906101000a81548173ffffffffffffffffffffffffffffffffffffffff021916908373ffffffffffffffffffffffffffffffffffffffff1602179055508173ffffffffffffffffffffffffffffffffffffffff1660809073ffffffffffffffffffffffffffffffffffffffff168152505050505062000161565b5f80fd5b5f73ffffffffffffffffffffffffffffffffffffffff82169050919050565b5f620000e682620000bb565b9050919050565b620000f881620000da565b811462000103575f80fd5b50565b5f815190506200011681620000ed565b92915050565b5f8060408385031215620001355762000134620000b7565b5b5f620001448582860162000106565b9250506020620001578582860162000106565b9150509250929050565b608051611ce16200018f5f395f818161074801528181610c3001528181610e080152610f270152611ce15ff3fe608060405234801561000f575f80fd5b5060043610610109575f3560e01c8063ad6129ac116100a0578063d17bc7831161006f578063d17bc7831461025b578063d9fb435314610265578063dfadc79414610281578063f3fef3a31461029d578063ff3c43e1146102b957610109565b8063ad6129ac146101f9578063b5f680ae14610203578063bbac3b8d1461021f578063c53b3fbe1461023d57610109565b806350eea0c8116100dc57806350eea0c814610183578063627444051461019f5780639d754dde146101bd5780639f856b8d146101db57610109565b80631de416131461010d578063371abc951461012b5780634738761c1461014957806348a50fcf14610167575b5f80fd5b6101156102d5565b60405161012291906115e6565b60405180910390f35b6101336102f9565b604051610140919061163e565b60405180910390f35b61015161031c565b60405161015e919061163e565b60405180910390f35b610181600480360381019061017c9190611689565b610341565b005b61019d60048036038101906101989190611689565b6104d9565b005b6101a76105e2565b6040516101b491906116d0565b60405180910390f35b6101c56105f5565b6040516101d2919061163e565b60405180910390f35b6101e361061a565b6040516101f091906116d0565b60405180910390f35b61020161062d565b005b61021d60048036038101906102189190611689565b610746565b005b610227610945565b60405161023491906115e6565b60405180910390f35b610245610969565b6040516102529190611703565b60405180910390f35b61026361097b565b005b61027f600480360381019061027a9190611746565b610a75565b005b61029b600480360381019061029691906117d2565b610bd8565b005b6102b760048036038101906102b29190611850565b610db0565b005b6102d360048036038101906102ce9190611746565b610f25565b005b7fb77a63f119f4dc2174dc6c76fc1a1565fa4f2b0dde50ed5c0465471cd9b331f681565b5f8054906101000a900473ffffffffffffffffffffffffffffffffffffffff1681565b60015f9054906101000a900473ffffffffffffffffffffffffffffffffffffffff1681565b60025f9054906101000a900473ffffffffffffffffffffffffffffffffffffffff1673ffffffffffffffffffffffffffffffffffffffff163373ffffffffffffffffffffffffffffffffffffffff16146103d0576040517f08c379a00000000000000000000000000000000000000000000000000000000081526004016103c7906118e8565b60405180910390fd5b5f73ffffffffffffffffffffffffffffffffffffffff168173ffffffffffffffffffffffffffffffffffffffff1603610407575f80fd5b60015f9054906101000a900473ffffffffffffffffffffffffffffffffffffffff1673ffffffffffffffffffffffffffffffffffffffff168173ffffffffffffffffffffffffffffffffffffffff160361045f575f80fd5b8060015f6101000a81548173ffffffffffffffffffffffffffffffffffffffff021916908373ffffffffffffffffffffffffffffffffffffffff1602179055507f34d1b5ef1c1c2c03a5000b91bef5c465790244c6751c794e5b45bed7657c38fd816040516104ce919061163e565b60405180910390a150565b60025f9054906101000a900473ffffffffffffffffffffffffffffffffffffffff1673ffffffffffffffffffffffffffffffffffffffff163373ffffffffffffffffffffffffffffffffffffffff1614610568576040517f08c379a000000000000000000000000000000000000000000000000000000000815260040161055f906118e8565b60405180910390fd5b8060035f6101000a81548173ffffffffffffffffffffffffffffffffffffffff021916908373ffffffffffffffffffffffffffffffffffffffff1602179055507fab6918ba7303f2f81e46e324b5f34af4bda562577c1da710e2034980fee1e82a816040516105d7919061163e565b60405180910390a150565b5f60179054906101000a900461ffff1681565b60025f9054906101000a900473ffffffffffffffffffffffffffffffffffffffff1681565b5f60149054906101000a900461ffff1681565b60035f9054906101000a900473ffffffffffffffffffffffffffffffffffffffff1673ffffffffffffffffffffffffffffffffffffffff163373ffffffffffffffffffffffffffffffffffffffff1614610685575f80fd5b5f3360035f60025f8491906101000a81548173ffffffffffffffffffffffffffffffffffffffff021916908373ffffffffffffffffffffffffffffffffffffffff1602179055508391906101000a81548173ffffffffffffffffffffffffffffffffffffffff021916908373ffffffffffffffffffffffffffffffffffffffff16021790555050507fecf97a11fb2f2bcc38d1b6881865ecc04405af2d8b953004c79b3ab398732d023360405161073c919061163e565b60405180910390a1565b7f000000000000000000000000000000000000000000000000000000000000000073ffffffffffffffffffffffffffffffffffffffff1663e8ae2b697f63e58c34d94475ba3fc063e19800b940485850d84d09cd3c1f2c14192c559a68336040518363ffffffff1660e01b81526004016107c1929190611906565b602060405180830381865afa1580156107dc573d5f803e3d5ffd5b505050506040513d601f19601f820116820180604052508101906108009190611957565b61083f576040517f08c379a0000000000000000000000000000000000000000000000000000000008152600401610836906119cc565b60405180910390fd5b5f73ffffffffffffffffffffffffffffffffffffffff168173ffffffffffffffffffffffffffffffffffffffff1603610876575f80fd5b5f8054906101000a900473ffffffffffffffffffffffffffffffffffffffff1673ffffffffffffffffffffffffffffffffffffffff168173ffffffffffffffffffffffffffffffffffffffff16036108cc575f80fd5b805f806101000a81548173ffffffffffffffffffffffffffffffffffffffff021916908373ffffffffffffffffffffffffffffffffffffffff1602179055507f2f4db788b994a5908051d68a2340153f49870447185a244d2326861e60cc41868160405161093a919061163e565b60405180910390a150565b7f63e58c34d94475ba3fc063e19800b940485850d84d09cd3c1f2c14192c559a6881565b5f60169054906101000a900460ff1681565b60025f9054906101000a900473ffffffffffffffffffffffffffffffffffffffff1673ffffffffffffffffffffffffffffffffffffffff163373ffffffffffffffffffffffffffffffffffffffff1614610a0a576040517f08c379a0000000000000000000000000000000000000000000000000000000008152600401610a01906118e8565b60405180910390fd5b5f805f60175f60168491906101000a81548160ff0219169083151502179055508391906101000a81548161ffff021916908361ffff16021790555050507f9f4bbade0736edbd2ec12c598bdac4573af13a3b57820ae4c7da5c61703eaaff60405160405180910390a1565b60025f9054906101000a900473ffffffffffffffffffffffffffffffffffffffff1673ffffffffffffffffffffffffffffffffffffffff163373ffffffffffffffffffffffffffffffffffffffff1614610b04576040517f08c379a0000000000000000000000000000000000000000000000000000000008152600401610afb906118e8565b60405180910390fd5b6103e861ffff168161ffff161115610b1a575f80fd5b5f60179054906101000a900461ffff1661ffff168161ffff1614158015610b5857505f60149054906101000a900461ffff1661ffff168161ffff1614155b610b60575f80fd5b8060015f60175f60168491906101000a81548160ff0219169083151502179055508391906101000a81548161ffff021916908361ffff16021790555050507f2d6ac59d6da98f80c7ea481d17c670ea310b000fff5cf1732d94d93652dd25b781604051610bcd91906116d0565b60405180910390a150565b60025f9054906101000a900473ffffffffffffffffffffffffffffffffffffffff1673ffffffffffffffffffffffffffffffffffffffff163373ffffffffffffffffffffffffffffffffffffffff161480610ce957507f000000000000000000000000000000000000000000000000000000000000000073ffffffffffffffffffffffffffffffffffffffff1663e8ae2b697fb77a63f119f4dc2174dc6c76fc1a1565fa4f2b0dde50ed5c0465471cd9b331f6336040518363ffffffff1660e01b8152600401610ca9929190611906565b602060405180830381865afa158015610cc4573d5f803e3d5ffd5b505050506040513d601f19601f82011682018060405250810190610ce89190611957565b5b610d28576040517f08c379a0000000000000000000000000000000000000000000000000000000008152600401610d1f90611a34565b60405180910390fd5b5f8282905090505f805f610d3a611158565b9250925092505f5b84811015610da757610d9c878783818110610d6057610d5f611a52565b5b9050604002015f016020810190610d779190611689565b83898985818110610d8b57610d8a611a52565b5b9050604002016020013587876112a6565b806001019050610d42565b50505050505050565b60025f9054906101000a900473ffffffffffffffffffffffffffffffffffffffff1673ffffffffffffffffffffffffffffffffffffffff163373ffffffffffffffffffffffffffffffffffffffff161480610ec157507f000000000000000000000000000000000000000000000000000000000000000073ffffffffffffffffffffffffffffffffffffffff1663e8ae2b697fb77a63f119f4dc2174dc6c76fc1a1565fa4f2b0dde50ed5c0465471cd9b331f6336040518363ffffffff1660e01b8152600401610e81929190611906565b602060405180830381865afa158015610e9c573d5f803e3d5ffd5b505050506040513d601f19601f82011682018060405250810190610ec09190611957565b5b610f00576040517f08c379a0000000000000000000000000000000000000000000000000000000008152600401610ef790611a34565b60405180910390fd5b5f805f610f0b611158565b925092509250610f1e85828686866112a6565b5050505050565b7f000000000000000000000000000000000000000000000000000000000000000073ffffffffffffffffffffffffffffffffffffffff1663e8ae2b697f63e58c34d94475ba3fc063e19800b940485850d84d09cd3c1f2c14192c559a68336040518363ffffffff1660e01b8152600401610fa0929190611906565b602060405180830381865afa158015610fbb573d5f803e3d5ffd5b505050506040513d601f19601f82011682018060405250810190610fdf9190611957565b61101e576040517f08c379a0000000000000000000000000000000000000000000000000000000008152600401611015906119cc565b60405180910390fd5b5f60169054906101000a900460ff1661106c576040517f08c379a000000000000000000000000000000000000000000000000000000000815260040161106390611ac9565b60405180910390fd5b5f60179054906101000a900461ffff1661ffff168161ffff16146110c5576040517f08c379a00000000000000000000000000000000000000000000000000000000081526004016110bc90611b31565b60405180910390fd5b805f60146101000a81548161ffff021916908361ffff1602179055505f805f60175f60168491906101000a81548160ff0219169083151502179055508391906101000a81548161ffff021916908361ffff16021790555050507fda1e1a9a6410acc0398b3b64e0c0110b8df57e29bfe69a419cdd9ae12718c3078160405161114d91906116d0565b60405180910390a150565b5f805f8060149054906101000a900461ffff1660015f9054906101000a900473ffffffffffffffffffffffffffffffffffffffff165f8054906101000a900473ffffffffffffffffffffffffffffffffffffffff168093508194508295505050505f8361ffff1614611233575f73ffffffffffffffffffffffffffffffffffffffff168273ffffffffffffffffffffffffffffffffffffffff1603611232576040517f08c379a000000000000000000000000000000000000000000000000000000000815260040161122990611b99565b60405180910390fd5b5b5f73ffffffffffffffffffffffffffffffffffffffff168173ffffffffffffffffffffffffffffffffffffffff16036112a1576040517f08c379a000000000000000000000000000000000000000000000000000000000815260040161129890611c01565b60405180910390fd5b909192565b5f8390505f8361ffff161461134d575f6112cb828561ffff166103e861ffff166113c5565b905080826112d99190611c4c565b91506112e687848361146a565b8273ffffffffffffffffffffffffffffffffffffffff168773ffffffffffffffffffffffffffffffffffffffff167fb7ee7fc9dacb957cfa93faeb8ca1826292de295e18e287a347dddfde7ab48b40836040516113439190611c8e565b60405180910390a3505b61135886868361146a565b8473ffffffffffffffffffffffffffffffffffffffff168673ffffffffffffffffffffffffffffffffffffffff167f7a629b77ef27ad337abe438773206187960a90abfb43607826bef77d650e84b9836040516113b59190611c8e565b60405180910390a3505050505050565b5f808414806113e857508284848602925082816113e5576113e4611ca7565b5b04145b15611408575f82116113f8575f80fd5b5f82820611828204019050611463565b61141384848461150e565b90505f828061142557611424611ca7565b5b8486091115611462577fffffffffffffffffffffffffffffffffffffffffffffffffffffffffffffffff8110611459575f80fd5b80806001019150505b5b9392505050565b5f6040517fa9059cbb000000000000000000000000000000000000000000000000000000005f5273ffffffffffffffffffffffffffffffffffffffff84166004528260245260205f60445f80895af19150813d1560203d1460015f51141617169150806040525080611508576040517fe465903e00000000000000000000000000000000000000000000000000000000815260040160405180910390fd5b50505050565b5f8083850290505f801985870982811083820303915050808411611530575f80fd5b5f810361154357838204925050506115c7565b83858709828111820391508083039250505f84855f0316905080850494508083049250600181825f0304019050808202831792505f6002866003021890508086026002038102905080860260020381029050808602600203810290508086026002038102905080860260020381029050808602600203810290508084029450505050505b9392505050565b5f819050919050565b6115e0816115ce565b82525050565b5f6020820190506115f95f8301846115d7565b92915050565b5f73ffffffffffffffffffffffffffffffffffffffff82169050919050565b5f611628826115ff565b9050919050565b6116388161161e565b82525050565b5f6020820190506116515f83018461162f565b92915050565b5f80fd5b5f80fd5b6116688161161e565b8114611672575f80fd5b50565b5f813590506116838161165f565b92915050565b5f6020828403121561169e5761169d611657565b5b5f6116ab84828501611675565b91505092915050565b5f61ffff82169050919050565b6116ca816116b4565b82525050565b5f6020820190506116e35f8301846116c1565b92915050565b5f8115159050919050565b6116fd816116e9565b82525050565b5f6020820190506117165f8301846116f4565b92915050565b611725816116b4565b811461172f575f80fd5b50565b5f813590506117408161171c565b92915050565b5f6020828403121561175b5761175a611657565b5b5f61176884828501611732565b91505092915050565b5f80fd5b5f80fd5b5f80fd5b5f8083601f84011261179257611791611771565b5b8235905067ffffffffffffffff8111156117af576117ae611775565b5b6020830191508360408202830111156117cb576117ca611779565b5b9250929050565b5f80602083850312156117e8576117e7611657565b5b5f83013567ffffffffffffffff8111156118055761180461165b565b5b6118118582860161177d565b92509250509250929050565b5f819050919050565b61182f8161181d565b8114611839575f80fd5b50565b5f8135905061184a81611826565b92915050565b5f806040838503121561186657611865611657565b5b5f61187385828601611675565b92505060206118848582860161183c565b9150509250929050565b5f82825260208201905092915050565b7f6f6e6c7920616c676562726120666565206d616e6167657200000000000000005f82015250565b5f6118d260188361188e565b91506118dd8261189e565b602082019050919050565b5f6020820190508181035f8301526118ff816118c6565b9050919050565b5f6040820190506119195f8301856115d7565b611926602083018461162f565b9392505050565b611936816116e9565b8114611940575f80fd5b50565b5f815190506119518161192d565b92915050565b5f6020828403121561196c5761196b611657565b5b5f61197984828501611943565b91505092915050565b7f6f6e6c792061646d696e6973747261746f7200000000000000000000000000005f82015250565b5f6119b660128361188e565b91506119c182611982565b602082019050919050565b5f6020820190508181035f8301526119e3816119aa565b9050919050565b7f6f6e6c79207769746864726177657200000000000000000000000000000000005f82015250565b5f611a1e600f8361188e565b9150611a29826119ea565b602082019050919050565b5f6020820190508181035f830152611a4b81611a12565b9050919050565b7f4e487b71000000000000000000000000000000000000000000000000000000005f52603260045260245ffd5b7f6e6f742070726f706f73656400000000000000000000000000000000000000005f82015250565b5f611ab3600c8361188e565b9150611abe82611a7f565b602082019050919050565b5f6020820190508181035f830152611ae081611aa7565b9050919050565b7f696e76616c6964206e65772066656500000000000000000000000000000000005f82015250565b5f611b1b600f8361188e565b9150611b2682611ae7565b602082019050919050565b5f6020820190508181035f830152611b4881611b0f565b9050919050565b7f696e76616c696420616c676562726120666565207265636569766572000000005f82015250565b5f611b83601c8361188e565b9150611b8e82611b4f565b602082019050919050565b5f6020820190508181035f830152611bb081611b77565b9050919050565b7f696e76616c6964207265636569766572000000000000000000000000000000005f82015250565b5f611beb60108361188e565b9150611bf682611bb7565b602082019050919050565b5f6020820190508181035f830152611c1881611bdf565b9050919050565b7f4e487b71000000000000000000000000000000000000000000000000000000005f52601160045260245ffd5b5f611c568261181d565b9150611c618361181d565b9250828203905081811115611c7957611c78611c1f565b5b92915050565b611c888161181d565b82525050565b5f602082019050611ca15f830184611c7f565b92915050565b7f4e487b71000000000000000000000000000000000000000000000000000000005f52601260045260245ffdfea164736f6c6343000814000a","linkReferences":{}},"methodIdentifiers":{"COMMUNITY_FEE_VAULT_ADMINISTRATOR()":"bbac3b8d","COMMUNITY_FEE_WITHDRAWER_ROLE()":"1de41613","acceptAlgebraFeeChangeProposal(uint16)":"ff3c43e1","acceptAlgebraFeeManagerRole()":"ad6129ac","algebraFee()":"9f856b8d","algebraFeeManager()":"9d754dde","algebraFeeReceiver()":"4738761c","cancelAlgebraFeeChangeProposal()":"d17bc783","changeAlgebraFeeReceiver(address)":"48a50fcf","changeCommunityFeeReceiver(address)":"b5f680ae","communityFeeReceiver()":"371abc95","hasNewAlgebraFeeProposal()":"c53b3fbe","proposeAlgebraFeeChange(uint16)":"d9fb4353","proposedNewAlgebraFee()":"62744405","transferAlgebraFeeManagerRole(address)":"50eea0c8","withdraw(address,uint256)":"f3fef3a3","withdrawTokens((address,uint256)[])":"dfadc794"},"id":0}