{"abi":[{"type":"constructor","inputs":[{"name":"_mentoReserve","type":"address","internalType":"contract IReserve"}],"stateMutability":"nonpayable"},{"type":"function","name":"mentoReserve","inputs":[],"outputs":[{"name":"","type":"address","internalType":"contract IReserve"}],"stateMutability":"view"},{"type":"function","name":"validate","inputs":[{"name":"collateral","type":"tuple","internalType":"struct Collateral","components":[{"name":"currency","type":"address","internalType":"Currency"},{"name":"collateralType","type":"uint8","internalType":"enum CollateralType"}]}],"outputs":[{"name":"","type":"bool","internalType":"bool"}],"stateMutability":"view"},{"type":"error","name":"CurrencyCollateralValidator__InvalidCollateralType","inputs":[{"name":"collateralType","type":"uint8","internalType":"enum CollateralType"}]}],"bytecode":{"object":"0x608060405234801561000f575f80fd5b50604051610621380380610621833981810160405281019061003191906100e5565b805f806101000a81548173ffffffffffffffffffffffffffffffffffffffff021916908373ffffffffffffffffffffffffffffffffffffffff16021790555050610110565b5f80fd5b5f73ffffffffffffffffffffffffffffffffffffffff82169050919050565b5f6100a38261007a565b9050919050565b5f6100b482610099565b9050919050565b6100c4816100aa565b81146100ce575f80fd5b50565b5f815190506100df816100bb565b92915050565b5f602082840312156100fa576100f9610076565b5b5f610107848285016100d1565b91505092915050565b6105048061011d5f395ff3fe608060405234801561000f575f80fd5b5060043610610034575f3560e01c80631156dbae146100385780637ca45e2a14610056575b5f80fd5b610040610086565b60405161004d9190610240565b60405180910390f35b610070600480360381019061006b919061039d565b6100a9565b60405161007d91906103e2565b60405180910390f35b5f8054906101000a900473ffffffffffffffffffffffffffffffffffffffff1681565b5f8060048111156100bd576100bc6103fb565b5b826020015160048111156100d4576100d36103fb565b5b1461011a5781602001516040517f8ee10359000000000000000000000000000000000000000000000000000000008152600401610111919061046e565b60405180910390fd5b5f825f015190505f805f9054906101000a900473ffffffffffffffffffffffffffffffffffffffff1673ffffffffffffffffffffffffffffffffffffffff1663cae182fe836040518263ffffffff1660e01b815260040161017b9190610496565b602060405180830381865afa158015610196573d5f803e3d5ffd5b505050506040513d601f19601f820116820180604052508101906101ba91906104d9565b90508092505050919050565b5f73ffffffffffffffffffffffffffffffffffffffff82169050919050565b5f819050919050565b5f6102086102036101fe846101c6565b6101e5565b6101c6565b9050919050565b5f610219826101ee565b9050919050565b5f61022a8261020f565b9050919050565b61023a81610220565b82525050565b5f6020820190506102535f830184610231565b92915050565b5f604051905090565b5f80fd5b5f80fd5b5f601f19601f8301169050919050565b7f4e487b71000000000000000000000000000000000000000000000000000000005f52604160045260245ffd5b6102b08261026a565b810181811067ffffffffffffffff821117156102cf576102ce61027a565b5b80604052505050565b5f6102e1610259565b90506102ed82826102a7565b919050565b5f6102fc826101c6565b9050919050565b61030c816102f2565b8114610316575f80fd5b50565b5f8135905061032781610303565b92915050565b60058110610339575f80fd5b50565b5f8135905061034a8161032d565b92915050565b5f6040828403121561036557610364610266565b5b61036f60406102d8565b90505f61037e84828501610319565b5f8301525060206103918482850161033c565b60208301525092915050565b5f604082840312156103b2576103b1610262565b5b5f6103bf84828501610350565b91505092915050565b5f8115159050919050565b6103dc816103c8565b82525050565b5f6020820190506103f55f8301846103d3565b92915050565b7f4e487b71000000000000000000000000000000000000000000000000000000005f52602160045260245ffd5b60058110610439576104386103fb565b5b50565b5f81905061044982610428565b919050565b5f6104588261043c565b9050919050565b6104688161044e565b82525050565b5f6020820190506104815f83018461045f565b92915050565b610490816102f2565b82525050565b5f6020820190506104a95f830184610487565b92915050565b6104b8816103c8565b81146104c2575f80fd5b50565b5f815190506104d3816104af565b92915050565b5f602082840312156104ee576104ed610262565b5b5f6104fb848285016104c5565b9150509291505056","linkReferences":{}},"methodIdentifiers":{"mentoReserve()":"1156dbae","validate((address,uint8))":"7ca45e2a"},"id":194}