{"abi":[{"type":"constructor","inputs":[{"name":"identityVerificationHubV2Address","type":"address","internalType":"address"},{"name":"_userDataRouter","type":"address","internalType":"contract IMerchantDataMediator"},{"name":"scopeValue","type":"uint256","internalType":"uint256"},{"name":"rawVerificationConfig","type":"tuple","internalType":"struct SelfUtils.UnformattedVerificationConfigV2","components":[{"name":"olderThan","type":"uint256","internalType":"uint256"},{"name":"forbiddenCountries","type":"string[]","internalType":"string[]"},{"name":"ofacEnabled","type":"bool","internalType":"bool"}]}],"stateMutability":"nonpayable"},{"type":"function","name":"getConfigId","inputs":[{"name":"","type":"bytes32","internalType":"bytes32"},{"name":"","type":"bytes32","internalType":"bytes32"},{"name":"","type":"bytes","internalType":"bytes"}],"outputs":[{"name":"","type":"bytes32","internalType":"bytes32"}],"stateMutability":"view"},{"type":"function","name":"getMinAgeRequirement","inputs":[],"outputs":[{"name":"","type":"uint256","internalType":"uint256"}],"stateMutability":"view"},{"type":"function","name":"getScope","inputs":[],"outputs":[{"name":"","type":"uint256","internalType":"uint256"}],"stateMutability":"view"},{"type":"function","name":"onVerificationSuccess","inputs":[{"name":"output","type":"bytes","internalType":"bytes"},{"name":"userData","type":"bytes","internalType":"bytes"}],"outputs":[],"stateMutability":"nonpayable"},{"type":"function","name":"scope","inputs":[],"outputs":[{"name":"","type":"uint256","internalType":"uint256"}],"stateMutability":"view"},{"type":"function","name":"setMinAgeRequirement","inputs":[{"name":"_minAgeRequirement","type":"uint256","internalType":"uint256"}],"outputs":[],"stateMutability":"nonpayable"},{"type":"function","name":"setScope","inputs":[{"name":"scopeValue","type":"uint256","internalType":"uint256"}],"outputs":[],"stateMutability":"nonpayable"},{"type":"function","name":"verifySelfProof","inputs":[{"name":"proofPayload","type":"bytes","internalType":"bytes"},{"name":"userContextData","type":"bytes","internalType":"bytes"}],"outputs":[],"stateMutability":"nonpayable"},{"type":"event","name":"MerchantVerified","inputs":[{"name":"nullifier","type":"uint256","indexed":true,"internalType":"uint256"},{"name":"merchant","type":"address","indexed":true,"internalType":"address"},{"name":"documentType","type":"uint256","indexed":true,"internalType":"uint256"}],"anonymous":false},{"type":"event","name":"MinAgeRequirementUpdated","inputs":[{"name":"newMinAgeRequirement","type":"uint256","indexed":false,"internalType":"uint256"}],"anonymous":false},{"type":"event","name":"ScopeUpdated","inputs":[{"name":"newScope","type":"uint256","indexed":true,"internalType":"uint256"}],"anonymous":false},{"type":"event","name":"VerificationConfigUpdated","inputs":[{"name":"configId","type":"bytes32","indexed":true,"internalType":"bytes32"}],"anonymous":false},{"type":"event","name":"VerificationRevoked","inputs":[{"name":"merchant","type":"address","indexed":true,"internalType":"address"},{"name":"timestamp","type":"uint256","indexed":false,"internalType":"uint256"},{"name":"reason","type":"string","indexed":false,"internalType":"string"}],"anonymous":false},{"type":"event","name":"VerificationUpdated","inputs":[{"name":"merchant","type":"address","indexed":true,"internalType":"address"},{"name":"newDocumentType","type":"uint256","indexed":false,"internalType":"uint256"},{"name":"timestamp","type":"uint256","indexed":false,"internalType":"uint256"}],"anonymous":false},{"type":"error","name":"InvalidDataFormat","inputs":[]},{"type":"error","name":"InvalidMerchantAddress","inputs":[]},{"type":"error","name":"MechantAlreadyVerified","inputs":[]},{"type":"error","name":"MinAgeRequirementTooLow","inputs":[]},{"type":"error","name":"UnauthorizedCaller","inputs":[]},{"type":"error","name":"UnderageMerchant","inputs":[]},{"type":"error","name":"VerificationConfigNotFound","inputs":[]}],"bytecode":{"object":"0x60a060405234801562000010575f80fd5b506040516200373538038062003735833981810160405281019062000036919062000a92565b83828173ffffffffffffffffffffffffffffffffffffffff1660808173ffffffffffffffffffffffffffffffffffffffff1681525050805f8190555050508260025f6101000a81548173ffffffffffffffffffffffffffffffffffffffff021916908373ffffffffffffffffffffffffffffffffffffffff160217905550620000c5816200020c60201b60201c565b60036001015f820151815f015f6101000a81548160ff021916908315150217905550602082015181600101556040820151816002015f6101000a81548160ff02191690831515021790555060608201518160030190600462000129929190620004ea565b50608082015181600701906003620001439291906200052f565b509050508373ffffffffffffffffffffffffffffffffffffffff166309ddb09160036001016040518263ffffffff1660e01b815260040162000186919062001b33565b6020604051808303815f875af1158015620001a3573d5f803e3d5ffd5b505050506040513d601f19601f82011682018060405250810190620001c9919062001b87565b60035f018190555060035f01547f68eabd5a03d35cca6f96768b559c43e60582cc227dd44c90112a031d666d9f5360405160405180910390a25050505062001e94565b62000216620005cc565b620002206200060c565b8260400151815f600381106200023b576200023a62001bb7565b5b60200201901515908115158152505082604001518160016003811062000266576200026562001bb7565b5b60200201901515908115158152505082604001518160026003811062000291576200029062001bb7565b5b6020020190151590811515815250506040518060a001604052805f855f01511115158152602001845f015181526020015f8560200151511115158152602001620002e58560200151620002f660201b60201c565b815260200182815250915050919050565b620003006200062e565b5f601f90505f6004905060605f5b8551811015620003bd575f8682815181106200032f576200032e62001bb7565b5b60200260200101519050600381511462000380576040517f08c379a0000000000000000000000000000000000000000000000000000000008152600401620003779062001c68565b60405180910390fd5b82816040516020016200039592919062001cd2565b6040516020818303038152906040529250508080620003b49062001d26565b9150506200030e565b505f815190505f8490505f8160018385620003d9919062001d72565b620003e5919062001dac565b620003f1919062001e13565b90505f5b81811080156200040457508581105b15620004de575f805b84811015620004a6575f81848762000426919062001e4a565b62000432919062001d72565b9050868110156200048f575f88828151811062000454576200045362001bb7565b5b602001015160f81c60f81b60f81c60ff1690505f83600862000477919062001e4a565b90508082901b856200048a919062001d72565b945050505b5080806200049d9062001d26565b9150506200040d565b5080898360048110620004be57620004bd62001bb7565b5b602002018181525050508080620004d59062001d26565b915050620003f5565b50505050505050919050565b82600481019282156200051c579160200282015b828111156200051b578251825591602001919060010190620004fe565b5b5090506200052b919062000650565b5090565b826003601f01602090048101928215620005b9579160200282015f5b838211156200058957835183826101000a81548160ff02191690831515021790555092602001926001016020815f010492830192600103026200054b565b8015620005b75782816101000a81549060ff02191690556001016020815f0104928301926001030262000589565b505b509050620005c8919062000650565b5090565b6040518060a001604052805f151581526020015f81526020015f15158152602001620005f76200062e565b8152602001620006066200060c565b81525090565b6040518060600160405280600390602082028036833780820191505090505090565b6040518060800160405280600490602082028036833780820191505090505090565b5b8082111562000669575f815f90555060010162000651565b5090565b5f604051905090565b5f80fd5b5f80fd5b5f73ffffffffffffffffffffffffffffffffffffffff82169050919050565b5f620006a9826200067e565b9050919050565b620006bb816200069d565b8114620006c6575f80fd5b50565b5f81519050620006d981620006b0565b92915050565b5f620006eb826200069d565b9050919050565b620006fd81620006df565b811462000708575f80fd5b50565b5f815190506200071b81620006f2565b92915050565b5f819050919050565b620007358162000721565b811462000740575f80fd5b50565b5f8151905062000753816200072a565b92915050565b5f80fd5b5f601f19601f8301169050919050565b7f4e487b71000000000000000000000000000000000000000000000000000000005f52604160045260245ffd5b620007a5826200075d565b810181811067ffffffffffffffff82111715620007c757620007c66200076d565b5b80604052505050565b5f620007db6200066d565b9050620007e982826200079a565b919050565b5f80fd5b5f80fd5b5f67ffffffffffffffff8211156200081357620008126200076d565b5b602082029050602081019050919050565b5f80fd5b5f80fd5b5f67ffffffffffffffff8211156200084957620008486200076d565b5b62000854826200075d565b9050602081019050919050565b5f5b838110156200088057808201518184015260208101905062000863565b5f8484015250505050565b5f620008a16200089b846200082c565b620007d0565b905082815260208101848484011115620008c057620008bf62000828565b5b620008cd84828562000861565b509392505050565b5f82601f830112620008ec57620008eb620007f2565b5b8151620008fe8482602086016200088b565b91505092915050565b5f6200091d6200091784620007f6565b620007d0565b9050808382526020820190506020840283018581111562000943576200094262000824565b5b835b818110156200099157805167ffffffffffffffff8111156200096c576200096b620007f2565b5b8086016200097b8982620008d5565b8552602085019450505060208101905062000945565b5050509392505050565b5f82601f830112620009b257620009b1620007f2565b5b8151620009c484826020860162000907565b91505092915050565b5f8115159050919050565b620009e381620009cd565b8114620009ee575f80fd5b50565b5f8151905062000a0181620009d8565b92915050565b5f6060828403121562000a1f5762000a1e62000759565b5b62000a2b6060620007d0565b90505f62000a3c8482850162000743565b5f83015250602082015167ffffffffffffffff81111562000a625762000a61620007ee565b5b62000a70848285016200099b565b602083015250604062000a8684828501620009f1565b60408301525092915050565b5f805f806080858703121562000aad5762000aac62000676565b5b5f62000abc87828801620006c9565b945050602062000acf878288016200070b565b935050604062000ae28782880162000743565b925050606085015167ffffffffffffffff81111562000b065762000b056200067a565b5b62000b148782880162000a07565b91505092959194509250565b5f815f1c9050919050565b5f60ff82169050919050565b5f62000b4d62000b478362000b20565b62000b2b565b9050919050565b62000b5f81620009cd565b82525050565b5f819050919050565b5f62000b8462000b7e8362000b20565b62000b65565b9050919050565b62000b968162000721565b82525050565b5f60049050919050565b5f81905092915050565b5f819050919050565b5f62000bc6838362000b8b565b60208301905092915050565b5f62000bdf825462000b6e565b9050919050565b5f600182019050919050565b62000bfd8162000b9c565b62000c09818462000ba6565b925062000c168262000bb0565b805f5b8381101562000c555762000c2d8262000bd2565b62000c39878262000bb9565b965062000c468362000be6565b92505060018101905062000c19565b505050505050565b5f60039050919050565b5f81905092915050565b5f819050919050565b5f8160081c9050919050565b5f62000c9c62000c968362000c7a565b62000b2b565b9050919050565b5f8160101c9050919050565b5f62000cc562000cbf8362000ca3565b62000b2b565b9050919050565b5f8160181c9050919050565b5f62000cee62000ce88362000ccc565b62000b2b565b9050919050565b5f8160201c9050919050565b5f62000d1762000d118362000cf5565b62000b2b565b9050919050565b5f8160281c9050919050565b5f62000d4062000d3a8362000d1e565b62000b2b565b9050919050565b5f8160301c9050919050565b5f62000d6962000d638362000d47565b62000b2b565b9050919050565b5f8160381c9050919050565b5f62000d9262000d8c8362000d70565b62000b2b565b9050919050565b5f8160401c9050919050565b5f62000dbb62000db58362000d99565b62000b2b565b9050919050565b5f8160481c9050919050565b5f62000de462000dde8362000dc2565b62000b2b565b9050919050565b5f8160501c9050919050565b5f62000e0d62000e078362000deb565b62000b2b565b9050919050565b5f8160581c9050919050565b5f62000e3662000e308362000e14565b62000b2b565b9050919050565b5f8160601c9050919050565b5f62000e5f62000e598362000e3d565b62000b2b565b9050919050565b5f8160681c9050919050565b5f62000e8862000e828362000e66565b62000b2b565b9050919050565b5f8160701c9050919050565b5f62000eb162000eab8362000e8f565b62000b2b565b9050919050565b5f8160781c9050919050565b5f62000eda62000ed48362000eb8565b62000b2b565b9050919050565b5f8160801c9050919050565b5f62000f0362000efd8362000ee1565b62000b2b565b9050919050565b5f8160881c9050919050565b5f62000f2c62000f268362000f0a565b62000b2b565b9050919050565b5f8160901c9050919050565b5f62000f5562000f4f8362000f33565b62000b2b565b9050919050565b5f8160981c9050919050565b5f62000f7e62000f788362000f5c565b62000b2b565b9050919050565b5f8160a01c9050919050565b5f62000fa762000fa18362000f85565b62000b2b565b9050919050565b5f8160a81c9050919050565b5f62000fd062000fca8362000fae565b62000b2b565b9050919050565b5f8160b01c9050919050565b5f62000ff962000ff38362000fd7565b62000b2b565b9050919050565b5f8160b81c9050919050565b5f620010226200101c8362001000565b62000b2b565b9050919050565b5f8160c01c9050919050565b5f6200104b620010458362001029565b62000b2b565b9050919050565b5f8160c81c9050919050565b5f620010746200106e8362001052565b62000b2b565b9050919050565b5f8160d01c9050919050565b5f6200109d62001097836200107b565b62000b2b565b9050919050565b5f8160d81c9050919050565b5f620010c6620010c083620010a4565b62000b2b565b9050919050565b5f8160e01c9050919050565b5f620010ef620010e983620010cd565b62000b2b565b9050919050565b5f8160e81c9050919050565b5f620011186200111283620010f6565b62000b2b565b9050919050565b5f8160f01c9050919050565b5f620011416200113b836200111f565b62000b2b565b9050919050565b5f8160f81c9050919050565b5f6200116a620011648362001148565b62000b2b565b9050919050565b6200117c8162000c5d565b62001188818462000c67565b925082620011968362000c71565b5f801562001544575b8360016020038201101562001543578154620011c687620011c08362000b37565b62000b54565b602087019650620011e287620011dc8362000c86565b62000b54565b602087019650620011fe87620011f88362000caf565b62000b54565b6020870196506200121a87620012148362000cd8565b62000b54565b6020870196506200123687620012308362000d01565b62000b54565b60208701965062001252876200124c8362000d2a565b62000b54565b6020870196506200126e87620012688362000d53565b62000b54565b6020870196506200128a87620012848362000d7c565b62000b54565b602087019650620012a687620012a08362000da5565b62000b54565b602087019650620012c287620012bc8362000dce565b62000b54565b602087019650620012de87620012d88362000df7565b62000b54565b602087019650620012fa87620012f48362000e20565b62000b54565b6020870196506200131687620013108362000e49565b62000b54565b60208701965062001332876200132c8362000e72565b62000b54565b6020870196506200134e87620013488362000e9b565b62000b54565b6020870196506200136a87620013648362000ec4565b62000b54565b6020870196506200138687620013808362000eed565b62000b54565b602087019650620013a2876200139c8362000f16565b62000b54565b602087019650620013be87620013b88362000f3f565b62000b54565b602087019650620013da87620013d48362000f68565b62000b54565b602087019650620013f687620013f08362000f91565b62000b54565b60208701965062001412876200140c8362000fba565b62000b54565b6020870196506200142e87620014288362000fe3565b62000b54565b6020870196506200144a8762001444836200100c565b62000b54565b6020870196506200146687620014608362001035565b62000b54565b60208701965062001482876200147c836200105e565b62000b54565b6020870196506200149e87620014988362001087565b62000b54565b602087019650620014ba87620014b483620010b0565b62000b54565b602087019650620014d687620014d083620010d9565b62000b54565b602087019650620014f287620014ec8362001102565b62000b54565b6020870196506200150e8762001508836200112b565b62000b54565b6020870196506200152a87620015248362001154565b62000b54565b602087019650600183019250506020810190506200119f565b5b60011562001a9357815460011562001579576200156c87620015668362000b37565b62000b54565b6020870196506001820191505b600115620015a4576200159787620015918362000c86565b62000b54565b6020870196506001820191505b600115620015cf57620015c287620015bc8362000caf565b62000b54565b6020870196506001820191505b5f15620015f957620015ec87620015e68362000cd8565b62000b54565b6020870196506001820191505b5f1562001623576200161687620016108362000d01565b62000b54565b6020870196506001820191505b5f156200164d5762001640876200163a8362000d2a565b62000b54565b6020870196506001820191505b5f1562001677576200166a87620016648362000d53565b62000b54565b6020870196506001820191505b5f15620016a15762001694876200168e8362000d7c565b62000b54565b6020870196506001820191505b5f15620016cb57620016be87620016b88362000da5565b62000b54565b6020870196506001820191505b5f15620016f557620016e887620016e28362000dce565b62000b54565b6020870196506001820191505b5f156200171f5762001712876200170c8362000df7565b62000b54565b6020870196506001820191505b5f1562001749576200173c87620017368362000e20565b62000b54565b6020870196506001820191505b5f1562001773576200176687620017608362000e49565b62000b54565b6020870196506001820191505b5f156200179d5762001790876200178a8362000e72565b62000b54565b6020870196506001820191505b5f15620017c757620017ba87620017b48362000e9b565b62000b54565b6020870196506001820191505b5f15620017f157620017e487620017de8362000ec4565b62000b54565b6020870196506001820191505b5f156200181b576200180e87620018088362000eed565b62000b54565b6020870196506001820191505b5f1562001845576200183887620018328362000f16565b62000b54565b6020870196506001820191505b5f156200186f5762001862876200185c8362000f3f565b62000b54565b6020870196506001820191505b5f1562001899576200188c87620018868362000f68565b62000b54565b6020870196506001820191505b5f15620018c357620018b687620018b08362000f91565b62000b54565b6020870196506001820191505b5f15620018ed57620018e087620018da8362000fba565b62000b54565b6020870196506001820191505b5f1562001917576200190a87620019048362000fe3565b62000b54565b6020870196506001820191505b5f15620019415762001934876200192e836200100c565b62000b54565b6020870196506001820191505b5f156200196b576200195e87620019588362001035565b62000b54565b6020870196506001820191505b5f156200199557620019888762001982836200105e565b62000b54565b6020870196506001820191505b5f15620019bf57620019b287620019ac8362001087565b62000b54565b6020870196506001820191505b5f15620019e957620019dc87620019d683620010b0565b62000b54565b6020870196506001820191505b5f1562001a135762001a068762001a0083620010d9565b62000b54565b6020870196506001820191505b5f1562001a3d5762001a308762001a2a8362001102565b62000b54565b6020870196506001820191505b5f1562001a675762001a5a8762001a54836200112b565b62000b54565b6020870196506001820191505b5f1562001a915762001a848762001a7e8362001154565b62000b54565b6020870196506001820191505b505b505050505050565b61014082015f80830154905062001ab28162000b37565b62001ac05f86018262000b54565b506001830154905062001ad38162000b6e565b62001ae2602086018262000b8b565b506002830154905062001af58162000b37565b62001b04604086018262000b54565b506003830162001b18606086018262000bf2565b506007830162001b2c60e086018262001171565b5050505050565b5f6101408201905062001b495f83018462001a9b565b92915050565b5f819050919050565b62001b638162001b4f565b811462001b6e575f80fd5b50565b5f8151905062001b818162001b58565b92915050565b5f6020828403121562001b9f5762001b9e62000676565b5b5f62001bae8482850162001b71565b91505092915050565b7f4e487b71000000000000000000000000000000000000000000000000000000005f52603260045260245ffd5b5f82825260208201905092915050565b7f496e76616c696420636f756e74727920636f64653a206d7573742062652065785f8201527f6163746c7920332063686172616374657273206c6f6e67000000000000000000602082015250565b5f62001c5060378362001be4565b915062001c5d8262001bf4565b604082019050919050565b5f6020820190508181035f83015262001c818162001c42565b9050919050565b5f81519050919050565b5f81905092915050565b5f62001ca88262001c88565b62001cb4818562001c92565b935062001cc681856020860162000861565b80840191505092915050565b5f62001cdf828562001c9c565b915062001ced828462001c9c565b91508190509392505050565b7f4e487b71000000000000000000000000000000000000000000000000000000005f52601160045260245ffd5b5f62001d328262000721565b91507fffffffffffffffffffffffffffffffffffffffffffffffffffffffffffffffff820362001d675762001d6662001cf9565b5b600182019050919050565b5f62001d7e8262000721565b915062001d8b8362000721565b925082820190508082111562001da65762001da562001cf9565b5b92915050565b5f62001db88262000721565b915062001dc58362000721565b925082820390508181111562001de05762001ddf62001cf9565b5b92915050565b7f4e487b71000000000000000000000000000000000000000000000000000000005f52601260045260245ffd5b5f62001e1f8262000721565b915062001e2c8362000721565b92508262001e3f5762001e3e62001de6565b5b828204905092915050565b5f62001e568262000721565b915062001e638362000721565b925082820262001e738162000721565b9150828204841483151762001e8d5762001e8c62001cf9565b5b5092915050565b60805161188162001eb45f395f818161020a015261043201526118815ff3fe608060405234801561000f575f80fd5b5060043610610086575f3560e01c8063ada1b31911610059578063ada1b319146100fe578063b4ba6ff91461012e578063d161802b1461014a578063f40ceac11461016657610086565b8063380210f81461008a5780636e62d0a8146100a65780638d2d8d6a146100c4578063951cfa47146100e0575b5f80fd5b6100a4600480360381019061009f9190610984565b610184565b005b6100ae610200565b6040516100bb91906109be565b60405180910390f35b6100de60048036038101906100d99190610b13565b610208565b005b6100e86102b3565b6040516100f591906109be565b60405180910390f35b61011860048036038101906101139190610bbc565b6102bb565b6040516101259190610c37565b60405180910390f35b61014860048036038101906101439190610984565b6102ca565b005b610164600480360381019061015f9190610cad565b6102d6565b005b61016e6104e7565b60405161017b91906109be565b60405180910390f35b60128110156101bf576040517f0eed6e0b00000000000000000000000000000000000000000000000000000000815260040160405180910390fd5b806001819055507f488cdac2973ee216fa1418be1f4ee4ab5b088cb7bc1bf3ab7b3fda1d1dc1287c816040516101f591906109be565b60405180910390a150565b5f8054905090565b7f000000000000000000000000000000000000000000000000000000000000000073ffffffffffffffffffffffffffffffffffffffff163373ffffffffffffffffffffffffffffffffffffffff161461028d576040517f5c427cd900000000000000000000000000000000000000000000000000000000815260040160405180910390fd5b5f828060200190518101906102a2919061128c565b90506102ae81836104f0565b505050565b5f8054905090565b5f60035f015490509392505050565b6102d381610837565b50565b6020848490501015610314576040517fa512e2ff00000000000000000000000000000000000000000000000000000000815260040160405180910390fd5b6040828290501015610352576040517fa512e2ff00000000000000000000000000000000000000000000000000000000815260040160405180910390fd5b5f843590505f83835f9060209261036b939291906112db565b90610376919061132b565b90505f848460209060409261038d939291906112db565b90610398919061132b565b90505f858560409080926103ae939291906112db565b8080601f0160208091040260200160405190810160405280939291908181526020018383808284375f81840152601f19601f8201169050808301925050505050505090505f6103fe8484846102bb565b90505f60025f60081b5f548c8c60405160200161041f959493929190611462565b60405160208183030381529060405290507f000000000000000000000000000000000000000000000000000000000000000073ffffffffffffffffffffffffffffffffffffffff1663f7e83aee82848b8b604051602001610482939291906114cd565b6040516020818303038152906040526040518363ffffffff1660e01b81526004016104ae929190611548565b5f604051808303815f87803b1580156104c5575f80fd5b505af11580156104d7573d5f803e3d5ffd5b5050505050505050505050505050565b5f600154905090565b6101208151101561052d576040517fa512e2ff00000000000000000000000000000000000000000000000000000000815260040160405180910390fd5b60025f9054906101000a900473ffffffffffffffffffffffffffffffffffffffff1673ffffffffffffffffffffffffffffffffffffffff1663f47e8efa826040518263ffffffff1660e01b8152600401610587919061157d565b5f604051808303815f87803b15801561059e575f80fd5b505af11580156105b0573d5f803e3d5ffd5b5050505060015482610160015110156105f4576040517edf91b100000000000000000000000000000000000000000000000000000000815260040160405180910390fd5b5f826020015190505f73ffffffffffffffffffffffffffffffffffffffff16600c5f856040015181526020019081526020015f205f9054906101000a900473ffffffffffffffffffffffffffffffffffffffff1673ffffffffffffffffffffffffffffffffffffffff16141580156106cc57508073ffffffffffffffffffffffffffffffffffffffff16600c5f856040015181526020019081526020015f205f9054906101000a900473ffffffffffffffffffffffffffffffffffffffff1673ffffffffffffffffffffffffffffffffffffffff1614155b15610703576040517f57dce39a00000000000000000000000000000000000000000000000000000000815260040160405180910390fd5b80600c5f856040015181526020019081526020015f205f6101000a81548173ffffffffffffffffffffffffffffffffffffffff021916908373ffffffffffffffffffffffffffffffffffffffff160217905550600160105f8373ffffffffffffffffffffffffffffffffffffffff1673ffffffffffffffffffffffffffffffffffffffff1681526020019081526020015f205f6101000a81548160ff0219169083151502179055505f828060200190518101906107c09190611848565b90506107e284604001515f1b8260400151600d61086d9092919063ffffffff16565b50835f01515f1c8273ffffffffffffffffffffffffffffffffffffffff1685604001517f8e4fca1d88036e47b010d97c3fcb787642305cdee47d1e598d6fdd89c80deeb060405160405180910390a450505050565b805f81905550807f379705e49518633184cc7e64f6a0c9361e35f275be47634afb6c2c603e5311e560405160405180910390a250565b5f81846002015f8581526020019081526020015f208190555061089b83855f016108a490919063ffffffff16565b90509392505050565b5f6108b1835f01836108b9565b905092915050565b5f6108c48383610920565b61091657825f0182908060018154018082558091505060019003905f5260205f20015f9091909190915055825f0180549050836001015f8481526020019081526020015f20819055506001905061091a565b5f90505b92915050565b5f80836001015f8481526020019081526020015f20541415905092915050565b5f604051905090565b5f80fd5b5f80fd5b5f819050919050565b61096381610951565b811461096d575f80fd5b50565b5f8135905061097e8161095a565b92915050565b5f6020828403121561099957610998610949565b5b5f6109a684828501610970565b91505092915050565b6109b881610951565b82525050565b5f6020820190506109d15f8301846109af565b92915050565b5f80fd5b5f80fd5b5f601f19601f8301169050919050565b7f4e487b71000000000000000000000000000000000000000000000000000000005f52604160045260245ffd5b610a25826109df565b810181811067ffffffffffffffff82111715610a4457610a436109ef565b5b80604052505050565b5f610a56610940565b9050610a628282610a1c565b919050565b5f67ffffffffffffffff821115610a8157610a806109ef565b5b610a8a826109df565b9050602081019050919050565b828183375f83830152505050565b5f610ab7610ab284610a67565b610a4d565b905082815260208101848484011115610ad357610ad26109db565b5b610ade848285610a97565b509392505050565b5f82601f830112610afa57610af96109d7565b5b8135610b0a848260208601610aa5565b91505092915050565b5f8060408385031215610b2957610b28610949565b5b5f83013567ffffffffffffffff811115610b4657610b4561094d565b5b610b5285828601610ae6565b925050602083013567ffffffffffffffff811115610b7357610b7261094d565b5b610b7f85828601610ae6565b9150509250929050565b5f819050919050565b610b9b81610b89565b8114610ba5575f80fd5b50565b5f81359050610bb681610b92565b92915050565b5f805f60608486031215610bd357610bd2610949565b5b5f610be086828701610ba8565b9350506020610bf186828701610ba8565b925050604084013567ffffffffffffffff811115610c1257610c1161094d565b5b610c1e86828701610ae6565b9150509250925092565b610c3181610b89565b82525050565b5f602082019050610c4a5f830184610c28565b92915050565b5f80fd5b5f80fd5b5f8083601f840112610c6d57610c6c6109d7565b5b8235905067ffffffffffffffff811115610c8a57610c89610c50565b5b602083019150836001820283011115610ca657610ca5610c54565b5b9250929050565b5f805f8060408587031215610cc557610cc4610949565b5b5f85013567ffffffffffffffff811115610ce257610ce161094d565b5b610cee87828801610c58565b9450945050602085013567ffffffffffffffff811115610d1157610d1061094d565b5b610d1d87828801610c58565b925092505092959194509250565b5f80fd5b5f80fd5b5f81519050610d4181610b92565b92915050565b5f81519050610d558161095a565b92915050565b5f67ffffffffffffffff821115610d7557610d746109ef565b5b602082029050919050565b5f610d92610d8d84610d5b565b610a4d565b90508060208402830185811115610dac57610dab610c54565b5b835b81811015610dd55780610dc18882610d47565b845260208401935050602081019050610dae565b5050509392505050565b5f82601f830112610df357610df26109d7565b5b6004610e00848285610d80565b91505092915050565b5f67ffffffffffffffff821115610e2357610e226109ef565b5b610e2c826109df565b9050602081019050919050565b5f5b83811015610e56578082015181840152602081019050610e3b565b5f8484015250505050565b5f610e73610e6e84610e09565b610a4d565b905082815260208101848484011115610e8f57610e8e6109db565b5b610e9a848285610e39565b509392505050565b5f82601f830112610eb657610eb56109d7565b5b8151610ec6848260208601610e61565b91505092915050565b5f67ffffffffffffffff821115610ee957610ee86109ef565b5b602082029050602081019050919050565b5f610f0c610f0784610ecf565b610a4d565b90508083825260208201905060208402830185811115610f2f57610f2e610c54565b5b835b81811015610f7657805167ffffffffffffffff811115610f5457610f536109d7565b5b808601610f618982610ea2565b85526020850194505050602081019050610f31565b5050509392505050565b5f82601f830112610f9457610f936109d7565b5b8151610fa4848260208601610efa565b91505092915050565b5f67ffffffffffffffff821115610fc757610fc66109ef565b5b602082029050919050565b5f8115159050919050565b610fe681610fd2565b8114610ff0575f80fd5b50565b5f8151905061100181610fdd565b92915050565b5f61101961101484610fad565b610a4d565b9050806020840283018581111561103357611032610c54565b5b835b8181101561105c57806110488882610ff3565b845260208401935050602081019050611035565b5050509392505050565b5f82601f83011261107a576110796109d7565b5b6003611087848285611007565b91505092915050565b5f61024082840312156110a6576110a5610d2b565b5b6110b16101a0610a4d565b90505f6110c084828501610d33565b5f8301525060206110d384828501610d47565b60208301525060406110e784828501610d47565b60408301525060606110fb84828501610ddf565b60608301525060e082015167ffffffffffffffff81111561111f5761111e610d2f565b5b61112b84828501610ea2565b60808301525061010082015167ffffffffffffffff8111156111505761114f610d2f565b5b61115c84828501610f80565b60a08301525061012082015167ffffffffffffffff81111561118157611180610d2f565b5b61118d84828501610ea2565b60c08301525061014082015167ffffffffffffffff8111156111b2576111b1610d2f565b5b6111be84828501610ea2565b60e08301525061016082015167ffffffffffffffff8111156111e3576111e2610d2f565b5b6111ef84828501610ea2565b6101008301525061018082015167ffffffffffffffff81111561121557611214610d2f565b5b61122184828501610ea2565b610120830152506101a082015167ffffffffffffffff81111561124757611246610d2f565b5b61125384828501610ea2565b610140830152506101c061126984828501610d47565b610160830152506101e061127f84828501611066565b6101808301525092915050565b5f602082840312156112a1576112a0610949565b5b5f82015167ffffffffffffffff8111156112be576112bd61094d565b5b6112ca84828501611090565b91505092915050565b5f80fd5b5f80fd5b5f80858511156112ee576112ed6112d3565b5b838611156112ff576112fe6112d7565b5b6001850283019150848603905094509492505050565b5f82905092915050565b5f82821b905092915050565b5f6113368383611315565b826113418135610b89565b925060208210156113815761137c7fffffffffffffffffffffffffffffffffffffffffffffffffffffffffffffffff8360200360080261131f565b831692505b505092915050565b5f60ff82169050919050565b5f8160f81b9050919050565b5f6113ab82611395565b9050919050565b6113c36113be82611389565b6113a1565b82525050565b5f7fffffffffffffffffffffffffffffffffffffffffffffffffffffffffffffff0082169050919050565b5f819050919050565b61140e611409826113c9565b6113f4565b82525050565b5f819050919050565b61142e61142982610951565b611414565b82525050565b5f81905092915050565b5f6114498385611434565b9350611456838584610a97565b82840190509392505050565b5f61146d82886113b2565b60018201915061147d82876113fd565b601f8201915061148d828661141d565b60208201915061149e82848661143e565b91508190509695505050505050565b5f819050919050565b6114c76114c282610b89565b6114ad565b82525050565b5f6114d882866114b6565b6020820191506114e982848661143e565b9150819050949350505050565b5f81519050919050565b5f82825260208201905092915050565b5f61151a826114f6565b6115248185611500565b9350611534818560208601610e39565b61153d816109df565b840191505092915050565b5f6040820190508181035f8301526115608185611510565b905081810360208301526115748184611510565b90509392505050565b5f6020820190508181035f8301526115958184611510565b905092915050565b5f73ffffffffffffffffffffffffffffffffffffffff82169050919050565b5f6115c68261159d565b9050919050565b6115d6816115bc565b81146115e0575f80fd5b50565b5f815190506115f1816115cd565b92915050565b61160081611389565b811461160a575f80fd5b50565b5f8151905061161b816115f7565b92915050565b5f610300828403121561163757611636610d2b565b5b611642610300610a4d565b90505f61165184828501610d33565b5f83015250602061166484828501610d33565b602083015250604061167884828501610d33565b604083015250606061168c848285016115e3565b60608301525060806116a08482850161160d565b60808301525060a06116b4848285016115e3565b60a08301525060c06116c8848285016115e3565b60c08301525060e06116dc8482850161160d565b60e0830152506101006116f18482850161160d565b610100830152506101206117078482850161160d565b6101208301525061014061171d8482850161160d565b610140830152506101606117338482850161160d565b610160830152506101806117498482850161160d565b610180830152506101a061175f8482850161160d565b6101a0830152506101c06117758482850161160d565b6101c0830152506101e061178b8482850161160d565b6101e0830152506102006117a18482850161160d565b610200830152506102206117b78482850161160d565b610220830152506102406117cd8482850161160d565b610240830152506102606117e38482850161160d565b610260830152506102806117f98482850161160d565b610280830152506102a061180f8482850161160d565b6102a0830152506102c06118258482850161160d565b6102c0830152506102e061183b8482850161160d565b6102e08301525092915050565b5f610300828403121561185e5761185d610949565b5b5f61186b84828501611621565b9150509291505056fea164736f6c6343000814000a","linkReferences":{}},"methodIdentifiers":{"getConfigId(bytes32,bytes32,bytes)":"ada1b319","getMinAgeRequirement()":"f40ceac1","getScope()":"951cfa47","onVerificationSuccess(bytes,bytes)":"8d2d8d6a","scope()":"6e62d0a8","setMinAgeRequirement(uint256)":"380210f8","setScope(uint256)":"b4ba6ff9","verifySelfProof(bytes,bytes)":"d161802b"},"id":115}