{"abi":[{"type":"constructor","inputs":[{"name":"_hubAddress","type":"address","internalType":"address"},{"name":"_userDataRouter","type":"address","internalType":"contract IMerchantDataMediator"},{"name":"scopeValue","type":"uint256","internalType":"uint256"},{"name":"rawVerificationConfig","type":"tuple","internalType":"struct SelfUtils.UnformattedVerificationConfigV2","components":[{"name":"olderThan","type":"uint256","internalType":"uint256"},{"name":"forbiddenCountries","type":"string[]","internalType":"string[]"},{"name":"ofacEnabled","type":"bool","internalType":"bool"}]}],"stateMutability":"nonpayable"},{"type":"function","name":"MERCHANT_IDENTITY_VERIFICATION_SCOPE","inputs":[],"outputs":[{"name":"","type":"uint256","internalType":"uint256"}],"stateMutability":"view"},{"type":"function","name":"getConfigId","inputs":[{"name":"","type":"bytes32","internalType":"bytes32"},{"name":"","type":"bytes32","internalType":"bytes32"},{"name":"userDefinedData","type":"bytes","internalType":"bytes"}],"outputs":[{"name":"","type":"bytes32","internalType":"bytes32"}],"stateMutability":"view"},{"type":"function","name":"getMinAgeRequirement","inputs":[],"outputs":[{"name":"","type":"uint256","internalType":"uint256"}],"stateMutability":"view"},{"type":"function","name":"getScope","inputs":[],"outputs":[{"name":"","type":"uint256","internalType":"uint256"}],"stateMutability":"view"},{"type":"function","name":"isVerifiedMerchant","inputs":[{"name":"_creditAssesmentId","type":"bytes32","internalType":"bytes32"}],"outputs":[{"name":"","type":"bool","internalType":"bool"}],"stateMutability":"view"},{"type":"function","name":"onVerificationSuccess","inputs":[{"name":"output","type":"bytes","internalType":"bytes"},{"name":"userData","type":"bytes","internalType":"bytes"}],"outputs":[],"stateMutability":"nonpayable"},{"type":"function","name":"owner","inputs":[],"outputs":[{"name":"","type":"address","internalType":"address"}],"stateMutability":"view"},{"type":"function","name":"renounceOwnership","inputs":[],"outputs":[],"stateMutability":"nonpayable"},{"type":"function","name":"scope","inputs":[],"outputs":[{"name":"","type":"uint256","internalType":"uint256"}],"stateMutability":"view"},{"type":"function","name":"setMinAgeRequirement","inputs":[{"name":"_minAgeRequirement","type":"uint256","internalType":"uint256"}],"outputs":[],"stateMutability":"nonpayable"},{"type":"function","name":"setScope","inputs":[{"name":"scopeValue","type":"uint256","internalType":"uint256"}],"outputs":[],"stateMutability":"nonpayable"},{"type":"function","name":"transferOwnership","inputs":[{"name":"newOwner","type":"address","internalType":"address"}],"outputs":[],"stateMutability":"nonpayable"},{"type":"function","name":"verifyMerchantIdentity","inputs":[{"name":"proofPayload","type":"bytes","internalType":"bytes"},{"name":"userContextData","type":"bytes","internalType":"bytes"}],"outputs":[],"stateMutability":"nonpayable"},{"type":"function","name":"verifySelfProof","inputs":[{"name":"proofPayload","type":"bytes","internalType":"bytes"},{"name":"userContextData","type":"bytes","internalType":"bytes"}],"outputs":[],"stateMutability":"nonpayable"},{"type":"event","name":"MerchantVerified","inputs":[{"name":"merchant","type":"address","indexed":true,"internalType":"address"},{"name":"documentType","type":"uint256","indexed":false,"internalType":"uint256"},{"name":"timestamp","type":"uint256","indexed":false,"internalType":"uint256"},{"name":"nullifier","type":"uint256","indexed":false,"internalType":"uint256"}],"anonymous":false},{"type":"event","name":"MinAgeRequirementUpdated","inputs":[{"name":"newMinAgeRequirement","type":"uint256","indexed":false,"internalType":"uint256"}],"anonymous":false},{"type":"event","name":"OwnershipTransferred","inputs":[{"name":"previousOwner","type":"address","indexed":true,"internalType":"address"},{"name":"newOwner","type":"address","indexed":true,"internalType":"address"}],"anonymous":false},{"type":"event","name":"ScopeUpdated","inputs":[{"name":"newScope","type":"uint256","indexed":true,"internalType":"uint256"}],"anonymous":false},{"type":"event","name":"VerificationConfigUpdated","inputs":[{"name":"configId","type":"bytes32","indexed":true,"internalType":"bytes32"}],"anonymous":false},{"type":"event","name":"VerificationRevoked","inputs":[{"name":"merchant","type":"address","indexed":true,"internalType":"address"},{"name":"timestamp","type":"uint256","indexed":false,"internalType":"uint256"},{"name":"reason","type":"string","indexed":false,"internalType":"string"}],"anonymous":false},{"type":"event","name":"VerificationUpdated","inputs":[{"name":"merchant","type":"address","indexed":true,"internalType":"address"},{"name":"newDocumentType","type":"uint256","indexed":false,"internalType":"uint256"},{"name":"timestamp","type":"uint256","indexed":false,"internalType":"uint256"}],"anonymous":false},{"type":"error","name":"InvalidDataFormat","inputs":[]},{"type":"error","name":"InvalidMerchantAddress","inputs":[]},{"type":"error","name":"MechantAlreadyVerified","inputs":[]},{"type":"error","name":"MinAgeRequirementTooLow","inputs":[]},{"type":"error","name":"UnauthorizedCaller","inputs":[]},{"type":"error","name":"UnderageMerchant","inputs":[]},{"type":"error","name":"VerificationConfigNotFound","inputs":[]}],"bytecode":{"object":"0x60a060405234801562000010575f80fd5b5060405162003cd638038062003cd6833981810160405281019062000036919062000b7c565b83828173ffffffffffffffffffffffffffffffffffffffff1660808173ffffffffffffffffffffffffffffffffffffffff1681525050805f81905550505062000094620000886200022c60201b60201c565b6200023360201b60201c565b8260035f6101000a81548173ffffffffffffffffffffffffffffffffffffffff021916908373ffffffffffffffffffffffffffffffffffffffff160217905550620000e581620002f660201b60201c565b60046001015f820151815f015f6101000a81548160ff021916908315150217905550602082015181600101556040820151816002015f6101000a81548160ff02191690831515021790555060608201518160030190600462000149929190620005d4565b506080820151816007019060036200016392919062000619565b509050508373ffffffffffffffffffffffffffffffffffffffff166309ddb09160046001016040518263ffffffff1660e01b8152600401620001a6919062001c1d565b6020604051808303815f875af1158015620001c3573d5f803e3d5ffd5b505050506040513d601f19601f82011682018060405250810190620001e9919062001c71565b60045f018190555060045f01547f68eabd5a03d35cca6f96768b559c43e60582cc227dd44c90112a031d666d9f5360405160405180910390a25050505062001f7e565b5f33905090565b5f60015f9054906101000a900473ffffffffffffffffffffffffffffffffffffffff1690508160015f6101000a81548173ffffffffffffffffffffffffffffffffffffffff021916908373ffffffffffffffffffffffffffffffffffffffff1602179055508173ffffffffffffffffffffffffffffffffffffffff168173ffffffffffffffffffffffffffffffffffffffff167f8be0079c531659141344cd1fd0a4f28419497f9722a3daafe3b4186f6b6457e060405160405180910390a35050565b62000300620006b6565b6200030a620006f6565b8260400151815f6003811062000325576200032462001ca1565b5b60200201901515908115158152505082604001518160016003811062000350576200034f62001ca1565b5b6020020190151590811515815250508260400151816002600381106200037b576200037a62001ca1565b5b6020020190151590811515815250506040518060a001604052805f855f01511115158152602001845f015181526020015f8560200151511115158152602001620003cf8560200151620003e060201b60201c565b815260200182815250915050919050565b620003ea62000718565b5f601f90505f6004905060605f5b8551811015620004a7575f86828151811062000419576200041862001ca1565b5b6020026020010151905060038151146200046a576040517f08c379a0000000000000000000000000000000000000000000000000000000008152600401620004619062001d52565b60405180910390fd5b82816040516020016200047f92919062001dbc565b60405160208183030381529060405292505080806200049e9062001e10565b915050620003f8565b505f815190505f8490505f8160018385620004c3919062001e5c565b620004cf919062001e96565b620004db919062001efd565b90505f5b8181108015620004ee57508581105b15620005c8575f805b8481101562000590575f81848762000510919062001f34565b6200051c919062001e5c565b90508681101562000579575f8882815181106200053e576200053d62001ca1565b5b602001015160f81c60f81b60f81c60ff1690505f83600862000561919062001f34565b90508082901b8562000574919062001e5c565b945050505b508080620005879062001e10565b915050620004f7565b5080898360048110620005a857620005a762001ca1565b5b602002018181525050508080620005bf9062001e10565b915050620004df565b50505050505050919050565b826004810192821562000606579160200282015b8281111562000605578251825591602001919060010190620005e8565b5b5090506200061591906200073a565b5090565b826003601f01602090048101928215620006a3579160200282015f5b838211156200067357835183826101000a81548160ff02191690831515021790555092602001926001016020815f0104928301926001030262000635565b8015620006a15782816101000a81549060ff02191690556001016020815f0104928301926001030262000673565b505b509050620006b291906200073a565b5090565b6040518060a001604052805f151581526020015f81526020015f15158152602001620006e162000718565b8152602001620006f0620006f6565b81525090565b6040518060600160405280600390602082028036833780820191505090505090565b6040518060800160405280600490602082028036833780820191505090505090565b5b8082111562000753575f815f9055506001016200073b565b5090565b5f604051905090565b5f80fd5b5f80fd5b5f73ffffffffffffffffffffffffffffffffffffffff82169050919050565b5f620007938262000768565b9050919050565b620007a58162000787565b8114620007b0575f80fd5b50565b5f81519050620007c3816200079a565b92915050565b5f620007d58262000787565b9050919050565b620007e781620007c9565b8114620007f2575f80fd5b50565b5f815190506200080581620007dc565b92915050565b5f819050919050565b6200081f816200080b565b81146200082a575f80fd5b50565b5f815190506200083d8162000814565b92915050565b5f80fd5b5f601f19601f8301169050919050565b7f4e487b71000000000000000000000000000000000000000000000000000000005f52604160045260245ffd5b6200088f8262000847565b810181811067ffffffffffffffff82111715620008b157620008b062000857565b5b80604052505050565b5f620008c562000757565b9050620008d3828262000884565b919050565b5f80fd5b5f80fd5b5f67ffffffffffffffff821115620008fd57620008fc62000857565b5b602082029050602081019050919050565b5f80fd5b5f80fd5b5f67ffffffffffffffff82111562000933576200093262000857565b5b6200093e8262000847565b9050602081019050919050565b5f5b838110156200096a5780820151818401526020810190506200094d565b5f8484015250505050565b5f6200098b620009858462000916565b620008ba565b905082815260208101848484011115620009aa57620009a962000912565b5b620009b78482856200094b565b509392505050565b5f82601f830112620009d657620009d5620008dc565b5b8151620009e884826020860162000975565b91505092915050565b5f62000a0762000a0184620008e0565b620008ba565b9050808382526020820190506020840283018581111562000a2d5762000a2c6200090e565b5b835b8181101562000a7b57805167ffffffffffffffff81111562000a565762000a55620008dc565b5b80860162000a658982620009bf565b8552602085019450505060208101905062000a2f565b5050509392505050565b5f82601f83011262000a9c5762000a9b620008dc565b5b815162000aae848260208601620009f1565b91505092915050565b5f8115159050919050565b62000acd8162000ab7565b811462000ad8575f80fd5b50565b5f8151905062000aeb8162000ac2565b92915050565b5f6060828403121562000b095762000b0862000843565b5b62000b156060620008ba565b90505f62000b26848285016200082d565b5f83015250602082015167ffffffffffffffff81111562000b4c5762000b4b620008d8565b5b62000b5a8482850162000a85565b602083015250604062000b708482850162000adb565b60408301525092915050565b5f805f806080858703121562000b975762000b9662000760565b5b5f62000ba687828801620007b3565b945050602062000bb987828801620007f5565b935050604062000bcc878288016200082d565b925050606085015167ffffffffffffffff81111562000bf05762000bef62000764565b5b62000bfe8782880162000af1565b91505092959194509250565b5f815f1c9050919050565b5f60ff82169050919050565b5f62000c3762000c318362000c0a565b62000c15565b9050919050565b62000c498162000ab7565b82525050565b5f819050919050565b5f62000c6e62000c688362000c0a565b62000c4f565b9050919050565b62000c80816200080b565b82525050565b5f60049050919050565b5f81905092915050565b5f819050919050565b5f62000cb0838362000c75565b60208301905092915050565b5f62000cc9825462000c58565b9050919050565b5f600182019050919050565b62000ce78162000c86565b62000cf3818462000c90565b925062000d008262000c9a565b805f5b8381101562000d3f5762000d178262000cbc565b62000d23878262000ca3565b965062000d308362000cd0565b92505060018101905062000d03565b505050505050565b5f60039050919050565b5f81905092915050565b5f819050919050565b5f8160081c9050919050565b5f62000d8662000d808362000d64565b62000c15565b9050919050565b5f8160101c9050919050565b5f62000daf62000da98362000d8d565b62000c15565b9050919050565b5f8160181c9050919050565b5f62000dd862000dd28362000db6565b62000c15565b9050919050565b5f8160201c9050919050565b5f62000e0162000dfb8362000ddf565b62000c15565b9050919050565b5f8160281c9050919050565b5f62000e2a62000e248362000e08565b62000c15565b9050919050565b5f8160301c9050919050565b5f62000e5362000e4d8362000e31565b62000c15565b9050919050565b5f8160381c9050919050565b5f62000e7c62000e768362000e5a565b62000c15565b9050919050565b5f8160401c9050919050565b5f62000ea562000e9f8362000e83565b62000c15565b9050919050565b5f8160481c9050919050565b5f62000ece62000ec88362000eac565b62000c15565b9050919050565b5f8160501c9050919050565b5f62000ef762000ef18362000ed5565b62000c15565b9050919050565b5f8160581c9050919050565b5f62000f2062000f1a8362000efe565b62000c15565b9050919050565b5f8160601c9050919050565b5f62000f4962000f438362000f27565b62000c15565b9050919050565b5f8160681c9050919050565b5f62000f7262000f6c8362000f50565b62000c15565b9050919050565b5f8160701c9050919050565b5f62000f9b62000f958362000f79565b62000c15565b9050919050565b5f8160781c9050919050565b5f62000fc462000fbe8362000fa2565b62000c15565b9050919050565b5f8160801c9050919050565b5f62000fed62000fe78362000fcb565b62000c15565b9050919050565b5f8160881c9050919050565b5f62001016620010108362000ff4565b62000c15565b9050919050565b5f8160901c9050919050565b5f6200103f62001039836200101d565b62000c15565b9050919050565b5f8160981c9050919050565b5f62001068620010628362001046565b62000c15565b9050919050565b5f8160a01c9050919050565b5f620010916200108b836200106f565b62000c15565b9050919050565b5f8160a81c9050919050565b5f620010ba620010b48362001098565b62000c15565b9050919050565b5f8160b01c9050919050565b5f620010e3620010dd83620010c1565b62000c15565b9050919050565b5f8160b81c9050919050565b5f6200110c6200110683620010ea565b62000c15565b9050919050565b5f8160c01c9050919050565b5f620011356200112f8362001113565b62000c15565b9050919050565b5f8160c81c9050919050565b5f6200115e62001158836200113c565b62000c15565b9050919050565b5f8160d01c9050919050565b5f62001187620011818362001165565b62000c15565b9050919050565b5f8160d81c9050919050565b5f620011b0620011aa836200118e565b62000c15565b9050919050565b5f8160e01c9050919050565b5f620011d9620011d383620011b7565b62000c15565b9050919050565b5f8160e81c9050919050565b5f62001202620011fc83620011e0565b62000c15565b9050919050565b5f8160f01c9050919050565b5f6200122b620012258362001209565b62000c15565b9050919050565b5f8160f81c9050919050565b5f620012546200124e8362001232565b62000c15565b9050919050565b620012668162000d47565b62001272818462000d51565b925082620012808362000d5b565b5f80156200162e575b836001602003820110156200162d578154620012b087620012aa8362000c21565b62000c3e565b602087019650620012cc87620012c68362000d70565b62000c3e565b602087019650620012e887620012e28362000d99565b62000c3e565b6020870196506200130487620012fe8362000dc2565b62000c3e565b60208701965062001320876200131a8362000deb565b62000c3e565b6020870196506200133c87620013368362000e14565b62000c3e565b6020870196506200135887620013528362000e3d565b62000c3e565b60208701965062001374876200136e8362000e66565b62000c3e565b60208701965062001390876200138a8362000e8f565b62000c3e565b602087019650620013ac87620013a68362000eb8565b62000c3e565b602087019650620013c887620013c28362000ee1565b62000c3e565b602087019650620013e487620013de8362000f0a565b62000c3e565b6020870196506200140087620013fa8362000f33565b62000c3e565b6020870196506200141c87620014168362000f5c565b62000c3e565b6020870196506200143887620014328362000f85565b62000c3e565b60208701965062001454876200144e8362000fae565b62000c3e565b60208701965062001470876200146a8362000fd7565b62000c3e565b6020870196506200148c87620014868362001000565b62000c3e565b602087019650620014a887620014a28362001029565b62000c3e565b602087019650620014c487620014be8362001052565b62000c3e565b602087019650620014e087620014da836200107b565b62000c3e565b602087019650620014fc87620014f683620010a4565b62000c3e565b60208701965062001518876200151283620010cd565b62000c3e565b60208701965062001534876200152e83620010f6565b62000c3e565b60208701965062001550876200154a836200111f565b62000c3e565b6020870196506200156c87620015668362001148565b62000c3e565b6020870196506200158887620015828362001171565b62000c3e565b602087019650620015a4876200159e836200119a565b62000c3e565b602087019650620015c087620015ba83620011c3565b62000c3e565b602087019650620015dc87620015d683620011ec565b62000c3e565b602087019650620015f887620015f28362001215565b62000c3e565b60208701965062001614876200160e836200123e565b62000c3e565b6020870196506001830192505060208101905062001289565b5b60011562001b7d57815460011562001663576200165687620016508362000c21565b62000c3e565b6020870196506001820191505b6001156200168e5762001681876200167b8362000d70565b62000c3e565b6020870196506001820191505b600115620016b957620016ac87620016a68362000d99565b62000c3e565b6020870196506001820191505b5f15620016e357620016d687620016d08362000dc2565b62000c3e565b6020870196506001820191505b5f156200170d576200170087620016fa8362000deb565b62000c3e565b6020870196506001820191505b5f1562001737576200172a87620017248362000e14565b62000c3e565b6020870196506001820191505b5f15620017615762001754876200174e8362000e3d565b62000c3e565b6020870196506001820191505b5f156200178b576200177e87620017788362000e66565b62000c3e565b6020870196506001820191505b5f15620017b557620017a887620017a28362000e8f565b62000c3e565b6020870196506001820191505b5f15620017df57620017d287620017cc8362000eb8565b62000c3e565b6020870196506001820191505b5f156200180957620017fc87620017f68362000ee1565b62000c3e565b6020870196506001820191505b5f1562001833576200182687620018208362000f0a565b62000c3e565b6020870196506001820191505b5f156200185d5762001850876200184a8362000f33565b62000c3e565b6020870196506001820191505b5f1562001887576200187a87620018748362000f5c565b62000c3e565b6020870196506001820191505b5f15620018b157620018a4876200189e8362000f85565b62000c3e565b6020870196506001820191505b5f15620018db57620018ce87620018c88362000fae565b62000c3e565b6020870196506001820191505b5f156200190557620018f887620018f28362000fd7565b62000c3e565b6020870196506001820191505b5f156200192f5762001922876200191c8362001000565b62000c3e565b6020870196506001820191505b5f1562001959576200194c87620019468362001029565b62000c3e565b6020870196506001820191505b5f1562001983576200197687620019708362001052565b62000c3e565b6020870196506001820191505b5f15620019ad57620019a0876200199a836200107b565b62000c3e565b6020870196506001820191505b5f15620019d757620019ca87620019c483620010a4565b62000c3e565b6020870196506001820191505b5f1562001a0157620019f487620019ee83620010cd565b62000c3e565b6020870196506001820191505b5f1562001a2b5762001a1e8762001a1883620010f6565b62000c3e565b6020870196506001820191505b5f1562001a555762001a488762001a42836200111f565b62000c3e565b6020870196506001820191505b5f1562001a7f5762001a728762001a6c8362001148565b62000c3e565b6020870196506001820191505b5f1562001aa95762001a9c8762001a968362001171565b62000c3e565b6020870196506001820191505b5f1562001ad35762001ac68762001ac0836200119a565b62000c3e565b6020870196506001820191505b5f1562001afd5762001af08762001aea83620011c3565b62000c3e565b6020870196506001820191505b5f1562001b275762001b1a8762001b1483620011ec565b62000c3e565b6020870196506001820191505b5f1562001b515762001b448762001b3e8362001215565b62000c3e565b6020870196506001820191505b5f1562001b7b5762001b6e8762001b68836200123e565b62000c3e565b6020870196506001820191505b505b505050505050565b61014082015f80830154905062001b9c8162000c21565b62001baa5f86018262000c3e565b506001830154905062001bbd8162000c58565b62001bcc602086018262000c75565b506002830154905062001bdf8162000c21565b62001bee604086018262000c3e565b506003830162001c02606086018262000cdc565b506007830162001c1660e08601826200125b565b5050505050565b5f6101408201905062001c335f83018462001b85565b92915050565b5f819050919050565b62001c4d8162001c39565b811462001c58575f80fd5b50565b5f8151905062001c6b8162001c42565b92915050565b5f6020828403121562001c895762001c8862000760565b5b5f62001c988482850162001c5b565b91505092915050565b7f4e487b71000000000000000000000000000000000000000000000000000000005f52603260045260245ffd5b5f82825260208201905092915050565b7f496e76616c696420636f756e74727920636f64653a206d7573742062652065785f8201527f6163746c7920332063686172616374657273206c6f6e67000000000000000000602082015250565b5f62001d3a60378362001cce565b915062001d478262001cde565b604082019050919050565b5f6020820190508181035f83015262001d6b8162001d2c565b9050919050565b5f81519050919050565b5f81905092915050565b5f62001d928262001d72565b62001d9e818562001d7c565b935062001db08185602086016200094b565b80840191505092915050565b5f62001dc9828562001d86565b915062001dd7828462001d86565b91508190509392505050565b7f4e487b71000000000000000000000000000000000000000000000000000000005f52601160045260245ffd5b5f62001e1c826200080b565b91507fffffffffffffffffffffffffffffffffffffffffffffffffffffffffffffffff820362001e515762001e5062001de3565b5b600182019050919050565b5f62001e68826200080b565b915062001e75836200080b565b925082820190508082111562001e905762001e8f62001de3565b5b92915050565b5f62001ea2826200080b565b915062001eaf836200080b565b925082820390508181111562001eca5762001ec962001de3565b5b92915050565b7f4e487b71000000000000000000000000000000000000000000000000000000005f52601260045260245ffd5b5f62001f09826200080b565b915062001f16836200080b565b92508262001f295762001f2862001ed0565b5b828204905092915050565b5f62001f40826200080b565b915062001f4d836200080b565b925082820262001f5d816200080b565b9150828204841483151762001f775762001f7662001de3565b5b5092915050565b608051611d3862001f9e5f395f818161042d015261069d0152611d385ff3fe608060405234801561000f575f80fd5b50600436106100e8575f3560e01c8063ada1b3191161008a578063d396bf9111610064578063d396bf911461020c578063f2fde38b1461023c578063f40ceac114610258578063f4a9ed1814610276576100e8565b8063ada1b319146101a4578063b4ba6ff9146101d4578063d161802b146101f0576100e8565b8063715018a6116100c6578063715018a6146101425780638d2d8d6a1461014c5780638da5cb5b14610168578063951cfa4714610186576100e8565b8063380210f8146100ec5780634a711adc146101085780636e62d0a814610124575b5f80fd5b61010660048036038101906101019190610be0565b610294565b005b610122600480360381019061011d9190610c6c565b610318565b005b61012c610410565b6040516101399190610cf9565b60405180910390f35b61014a610418565b005b61016660048036038101906101619190610e4a565b61042b565b005b6101706104d6565b60405161017d9190610eff565b60405180910390f35b61018e6104fe565b60405161019b9190610cf9565b60405180910390f35b6101be60048036038101906101b99190610f4b565b610506565b6040516101cb9190610fc6565b60405180910390f35b6101ee60048036038101906101e99190610be0565b61052d565b005b61020a60048036038101906102059190610c6c565b610541565b005b61022660048036038101906102219190610fdf565b610752565b6040516102339190611024565b60405180910390f35b61025660048036038101906102519190611067565b610778565b005b6102606107fa565b60405161026d9190610cf9565b60405180910390f35b61027e610803565b60405161028b9190610cf9565b60405180910390f35b61029c610827565b60128110156102d7576040517f0eed6e0b00000000000000000000000000000000000000000000000000000000815260040160405180910390fd5b806002819055507f488cdac2973ee216fa1418be1f4ee4ab5b088cb7bc1bf3ab7b3fda1d1dc1287c8160405161030d9190610cf9565b60405180910390a150565b610320610827565b61016082829050101561035f576040517fa512e2ff00000000000000000000000000000000000000000000000000000000815260040160405180910390fd5b5f82826040906060926103749392919061109a565b810190610381919061110f565b90505f83836060906080926103989392919061109a565b8101906103a59190610fdf565b9050600e5f8281526020019081526020015f205f9054906101000a900460ff16156103fc576040517f468ad8df00000000000000000000000000000000000000000000000000000000815260040160405180910390fd5b61040886868686610541565b505050505050565b5f8054905090565b610420610827565b6104295f6108a5565b565b7f000000000000000000000000000000000000000000000000000000000000000073ffffffffffffffffffffffffffffffffffffffff163373ffffffffffffffffffffffffffffffffffffffff16146104b0576040517f5c427cd900000000000000000000000000000000000000000000000000000000815260040160405180910390fd5b5f828060200190518101906104c59190611690565b90506104d18183610968565b505050565b5f60015f9054906101000a900473ffffffffffffffffffffffffffffffffffffffff16905090565b5f8054905090565b5f808280602001905181019061051c9190611948565b905080604001519150509392505050565b610535610827565b61053e81610b5f565b50565b602084849050101561057f576040517fa512e2ff00000000000000000000000000000000000000000000000000000000815260040160405180910390fd5b60408282905010156105bd576040517fa512e2ff00000000000000000000000000000000000000000000000000000000815260040160405180910390fd5b5f843590505f83835f906020926105d69392919061109a565b906105e1919061198a565b90505f84846020906040926105f89392919061109a565b90610603919061198a565b90505f858560409080926106199392919061109a565b8080601f0160208091040260200160405190810160405280939291908181526020018383808284375f81840152601f19601f8201169050808301925050505050505090505f610669848484610506565b90505f60025f60081b5f548c8c60405160200161068a959493929190611ab5565b60405160208183030381529060405290507f000000000000000000000000000000000000000000000000000000000000000073ffffffffffffffffffffffffffffffffffffffff1663f7e83aee82848b8b6040516020016106ed93929190611b20565b6040516020818303038152906040526040518363ffffffff1660e01b8152600401610719929190611b9b565b5f604051808303815f87803b158015610730575f80fd5b505af1158015610742573d5f803e3d5ffd5b5050505050505050505050505050565b5f600e5f8381526020019081526020015f205f9054906101000a900460ff169050919050565b610780610827565b5f73ffffffffffffffffffffffffffffffffffffffff168173ffffffffffffffffffffffffffffffffffffffff16036107ee576040517f08c379a00000000000000000000000000000000000000000000000000000000081526004016107e590611c50565b60405180910390fd5b6107f7816108a5565b50565b5f600254905090565b7fc129bc5f93e22c183334b9b2c30177e2d57dcd51ff7fe00f2d197be4ae3507e881565b61082f610b95565b73ffffffffffffffffffffffffffffffffffffffff1661084d6104d6565b73ffffffffffffffffffffffffffffffffffffffff16146108a3576040517f08c379a000000000000000000000000000000000000000000000000000000000815260040161089a90611cb8565b60405180910390fd5b565b5f60015f9054906101000a900473ffffffffffffffffffffffffffffffffffffffff1690508160015f6101000a81548173ffffffffffffffffffffffffffffffffffffffff021916908373ffffffffffffffffffffffffffffffffffffffff1602179055508173ffffffffffffffffffffffffffffffffffffffff168173ffffffffffffffffffffffffffffffffffffffff167f8be0079c531659141344cd1fd0a4f28419497f9722a3daafe3b4186f6b6457e060405160405180910390a35050565b5f8180602001905181019061097d9190611948565b90505f8160c0015190505f73ffffffffffffffffffffffffffffffffffffffff168173ffffffffffffffffffffffffffffffffffffffff16036109ec576040517f57dce39a00000000000000000000000000000000000000000000000000000000815260040160405180910390fd5b6002548461016001511015610a2c576040517edf91b100000000000000000000000000000000000000000000000000000000815260040160405180910390fd5b60035f9054906101000a900473ffffffffffffffffffffffffffffffffffffffff1673ffffffffffffffffffffffffffffffffffffffff1663f47e8efa846040518263ffffffff1660e01b8152600401610a869190611cd6565b5f604051808303815f87803b158015610a9d575f80fd5b505af1158015610aaf573d5f803e3d5ffd5b505050508160400151600d5f866040015181526020019081526020015f20819055506001600e5f846040015181526020019081526020015f205f6101000a81548160ff0219169083151502179055508073ffffffffffffffffffffffffffffffffffffffff167fbb2f2be1001bc0d9d8027892763188986d0511d98da1c4d8584746726413957e855f01515f1c428760400151604051610b5193929190611cf6565b60405180910390a250505050565b805f81905550807f379705e49518633184cc7e64f6a0c9361e35f275be47634afb6c2c603e5311e560405160405180910390a250565b5f33905090565b5f604051905090565b5f80fd5b5f80fd5b5f819050919050565b610bbf81610bad565b8114610bc9575f80fd5b50565b5f81359050610bda81610bb6565b92915050565b5f60208284031215610bf557610bf4610ba5565b5b5f610c0284828501610bcc565b91505092915050565b5f80fd5b5f80fd5b5f80fd5b5f8083601f840112610c2c57610c2b610c0b565b5b8235905067ffffffffffffffff811115610c4957610c48610c0f565b5b602083019150836001820283011115610c6557610c64610c13565b5b9250929050565b5f805f8060408587031215610c8457610c83610ba5565b5b5f85013567ffffffffffffffff811115610ca157610ca0610ba9565b5b610cad87828801610c17565b9450945050602085013567ffffffffffffffff811115610cd057610ccf610ba9565b5b610cdc87828801610c17565b925092505092959194509250565b610cf381610bad565b82525050565b5f602082019050610d0c5f830184610cea565b92915050565b5f80fd5b5f601f19601f8301169050919050565b7f4e487b71000000000000000000000000000000000000000000000000000000005f52604160045260245ffd5b610d5c82610d16565b810181811067ffffffffffffffff82111715610d7b57610d7a610d26565b5b80604052505050565b5f610d8d610b9c565b9050610d998282610d53565b919050565b5f67ffffffffffffffff821115610db857610db7610d26565b5b610dc182610d16565b9050602081019050919050565b828183375f83830152505050565b5f610dee610de984610d9e565b610d84565b905082815260208101848484011115610e0a57610e09610d12565b5b610e15848285610dce565b509392505050565b5f82601f830112610e3157610e30610c0b565b5b8135610e41848260208601610ddc565b91505092915050565b5f8060408385031215610e6057610e5f610ba5565b5b5f83013567ffffffffffffffff811115610e7d57610e7c610ba9565b5b610e8985828601610e1d565b925050602083013567ffffffffffffffff811115610eaa57610ea9610ba9565b5b610eb685828601610e1d565b9150509250929050565b5f73ffffffffffffffffffffffffffffffffffffffff82169050919050565b5f610ee982610ec0565b9050919050565b610ef981610edf565b82525050565b5f602082019050610f125f830184610ef0565b92915050565b5f819050919050565b610f2a81610f18565b8114610f34575f80fd5b50565b5f81359050610f4581610f21565b92915050565b5f805f60608486031215610f6257610f61610ba5565b5b5f610f6f86828701610f37565b9350506020610f8086828701610f37565b925050604084013567ffffffffffffffff811115610fa157610fa0610ba9565b5b610fad86828701610e1d565b9150509250925092565b610fc081610f18565b82525050565b5f602082019050610fd95f830184610fb7565b92915050565b5f60208284031215610ff457610ff3610ba5565b5b5f61100184828501610f37565b91505092915050565b5f8115159050919050565b61101e8161100a565b82525050565b5f6020820190506110375f830184611015565b92915050565b61104681610edf565b8114611050575f80fd5b50565b5f813590506110618161103d565b92915050565b5f6020828403121561107c5761107b610ba5565b5b5f61108984828501611053565b91505092915050565b5f80fd5b5f80fd5b5f80858511156110ad576110ac611092565b5b838611156110be576110bd611096565b5b6001850283019150848603905094509492505050565b5f6110de82610ec0565b9050919050565b6110ee816110d4565b81146110f8575f80fd5b50565b5f81359050611109816110e5565b92915050565b5f6020828403121561112457611123610ba5565b5b5f611131848285016110fb565b91505092915050565b5f80fd5b5f80fd5b5f8151905061115081610f21565b92915050565b5f8151905061116481610bb6565b92915050565b5f67ffffffffffffffff82111561118457611183610d26565b5b602082029050919050565b5f6111a161119c8461116a565b610d84565b905080602084028301858111156111bb576111ba610c13565b5b835b818110156111e457806111d08882611156565b8452602084019350506020810190506111bd565b5050509392505050565b5f82601f83011261120257611201610c0b565b5b600461120f84828561118f565b91505092915050565b5f67ffffffffffffffff82111561123257611231610d26565b5b61123b82610d16565b9050602081019050919050565b5f5b8381101561126557808201518184015260208101905061124a565b5f8484015250505050565b5f61128261127d84611218565b610d84565b90508281526020810184848401111561129e5761129d610d12565b5b6112a9848285611248565b509392505050565b5f82601f8301126112c5576112c4610c0b565b5b81516112d5848260208601611270565b91505092915050565b5f67ffffffffffffffff8211156112f8576112f7610d26565b5b602082029050602081019050919050565b5f61131b611316846112de565b610d84565b9050808382526020820190506020840283018581111561133e5761133d610c13565b5b835b8181101561138557805167ffffffffffffffff81111561136357611362610c0b565b5b80860161137089826112b1565b85526020850194505050602081019050611340565b5050509392505050565b5f82601f8301126113a3576113a2610c0b565b5b81516113b3848260208601611309565b91505092915050565b5f67ffffffffffffffff8211156113d6576113d5610d26565b5b602082029050919050565b6113ea8161100a565b81146113f4575f80fd5b50565b5f81519050611405816113e1565b92915050565b5f61141d611418846113bc565b610d84565b9050806020840283018581111561143757611436610c13565b5b835b81811015611460578061144c88826113f7565b845260208401935050602081019050611439565b5050509392505050565b5f82601f83011261147e5761147d610c0b565b5b600361148b84828561140b565b91505092915050565b5f61024082840312156114aa576114a961113a565b5b6114b56101a0610d84565b90505f6114c484828501611142565b5f8301525060206114d784828501611156565b60208301525060406114eb84828501611156565b60408301525060606114ff848285016111ee565b60608301525060e082015167ffffffffffffffff8111156115235761152261113e565b5b61152f848285016112b1565b60808301525061010082015167ffffffffffffffff8111156115545761155361113e565b5b6115608482850161138f565b60a08301525061012082015167ffffffffffffffff8111156115855761158461113e565b5b611591848285016112b1565b60c08301525061014082015167ffffffffffffffff8111156115b6576115b561113e565b5b6115c2848285016112b1565b60e08301525061016082015167ffffffffffffffff8111156115e7576115e661113e565b5b6115f3848285016112b1565b6101008301525061018082015167ffffffffffffffff8111156116195761161861113e565b5b611625848285016112b1565b610120830152506101a082015167ffffffffffffffff81111561164b5761164a61113e565b5b611657848285016112b1565b610140830152506101c061166d84828501611156565b610160830152506101e06116838482850161146a565b6101808301525092915050565b5f602082840312156116a5576116a4610ba5565b5b5f82015167ffffffffffffffff8111156116c2576116c1610ba9565b5b6116ce84828501611494565b91505092915050565b5f815190506116e58161103d565b92915050565b5f60ff82169050919050565b611700816116eb565b811461170a575f80fd5b50565b5f8151905061171b816116f7565b92915050565b5f61030082840312156117375761173661113a565b5b611742610300610d84565b90505f61175184828501611142565b5f83015250602061176484828501611142565b602083015250604061177884828501611142565b604083015250606061178c848285016116d7565b60608301525060806117a08482850161170d565b60808301525060a06117b4848285016116d7565b60a08301525060c06117c8848285016116d7565b60c08301525060e06117dc8482850161170d565b60e0830152506101006117f18482850161170d565b610100830152506101206118078482850161170d565b6101208301525061014061181d8482850161170d565b610140830152506101606118338482850161170d565b610160830152506101806118498482850161170d565b610180830152506101a061185f8482850161170d565b6101a0830152506101c06118758482850161170d565b6101c0830152506101e061188b8482850161170d565b6101e0830152506102006118a18482850161170d565b610200830152506102206118b78482850161170d565b610220830152506102406118cd8482850161170d565b610240830152506102606118e38482850161170d565b610260830152506102806118f98482850161170d565b610280830152506102a061190f8482850161170d565b6102a0830152506102c06119258482850161170d565b6102c0830152506102e061193b8482850161170d565b6102e08301525092915050565b5f610300828403121561195e5761195d610ba5565b5b5f61196b84828501611721565b91505092915050565b5f82905092915050565b5f82821b905092915050565b5f6119958383611974565b826119a08135610f18565b925060208210156119e0576119db7fffffffffffffffffffffffffffffffffffffffffffffffffffffffffffffffff8360200360080261197e565b831692505b505092915050565b5f8160f81b9050919050565b5f6119fe826119e8565b9050919050565b611a16611a11826116eb565b6119f4565b82525050565b5f7fffffffffffffffffffffffffffffffffffffffffffffffffffffffffffffff0082169050919050565b5f819050919050565b611a61611a5c82611a1c565b611a47565b82525050565b5f819050919050565b611a81611a7c82610bad565b611a67565b82525050565b5f81905092915050565b5f611a9c8385611a87565b9350611aa9838584610dce565b82840190509392505050565b5f611ac08288611a05565b600182019150611ad08287611a50565b601f82019150611ae08286611a70565b602082019150611af1828486611a91565b91508190509695505050505050565b5f819050919050565b611b1a611b1582610f18565b611b00565b82525050565b5f611b2b8286611b09565b602082019150611b3c828486611a91565b9150819050949350505050565b5f81519050919050565b5f82825260208201905092915050565b5f611b6d82611b49565b611b778185611b53565b9350611b87818560208601611248565b611b9081610d16565b840191505092915050565b5f6040820190508181035f830152611bb38185611b63565b90508181036020830152611bc78184611b63565b90509392505050565b5f82825260208201905092915050565b7f4f776e61626c653a206e6577206f776e657220697320746865207a65726f20615f8201527f6464726573730000000000000000000000000000000000000000000000000000602082015250565b5f611c3a602683611bd0565b9150611c4582611be0565b604082019050919050565b5f6020820190508181035f830152611c6781611c2e565b9050919050565b7f4f776e61626c653a2063616c6c6572206973206e6f7420746865206f776e65725f82015250565b5f611ca2602083611bd0565b9150611cad82611c6e565b602082019050919050565b5f6020820190508181035f830152611ccf81611c96565b9050919050565b5f6020820190508181035f830152611cee8184611b63565b905092915050565b5f606082019050611d095f830186610cea565b611d166020830185610cea565b611d236040830184610cea565b94935050505056fea164736f6c6343000814000a","linkReferences":{}},"methodIdentifiers":{"MERCHANT_IDENTITY_VERIFICATION_SCOPE()":"f4a9ed18","getConfigId(bytes32,bytes32,bytes)":"ada1b319","getMinAgeRequirement()":"f40ceac1","getScope()":"951cfa47","isVerifiedMerchant(bytes32)":"d396bf91","onVerificationSuccess(bytes,bytes)":"8d2d8d6a","owner()":"8da5cb5b","renounceOwnership()":"715018a6","scope()":"6e62d0a8","setMinAgeRequirement(uint256)":"380210f8","setScope(uint256)":"b4ba6ff9","transferOwnership(address)":"f2fde38b","verifyMerchantIdentity(bytes,bytes)":"4a711adc","verifySelfProof(bytes,bytes)":"d161802b"},"id":112}