{"abi":[{"type":"constructor","inputs":[{"name":"_algebraFactory","type":"address","internalType":"contract IAlgebraFactory"},{"name":"_mentoStableCoinSelector","type":"address","internalType":"contract IMentoStableCoinSelector"}],"stateMutability":"nonpayable"},{"type":"function","name":"CDS_IMPLEMENTATION","inputs":[],"outputs":[{"name":"","type":"address","internalType":"address"}],"stateMutability":"view"},{"type":"function","name":"afterCreatePoolHook","inputs":[{"name":"plugin","type":"address","internalType":"address"},{"name":"pool","type":"address","internalType":"address"},{"name":"deployer","type":"address","internalType":"address"}],"outputs":[],"stateMutability":"nonpayable"},{"type":"function","name":"beforeCreatePoolHook","inputs":[{"name":"pool","type":"address","internalType":"address"},{"name":"creator","type":"address","internalType":"address"},{"name":"deployer","type":"address","internalType":"address"},{"name":"token0","type":"address","internalType":"address"},{"name":"token1","type":"address","internalType":"address"},{"name":"data","type":"bytes","internalType":"bytes"}],"outputs":[{"name":"","type":"address","internalType":"address"}],"stateMutability":"nonpayable"},{"type":"function","name":"createCDS","inputs":[{"name":"protectionSeller","type":"address","internalType":"address"},{"name":"merchantWallet","type":"address","internalType":"address"},{"name":"businessId","type":"bytes32","internalType":"bytes32"},{"name":"countryCodeHash","type":"bytes32","internalType":"bytes32"},{"name":"creditAssesmentId","type":"bytes32","internalType":"bytes32"},{"name":"metrics","type":"tuple","internalType":"struct Metrics","components":[{"name":"financialHealth","type":"uint256","internalType":"FinancialHealth"},{"name":"marketRisk","type":"uint256","internalType":"MarketRisk"},{"name":"businessFundamentals","type":"uint256","internalType":"BusinessFundamentals"},{"name":"creditRisk","type":"uint256","internalType":"CreditRisk"}]}],"outputs":[{"name":"","type":"address","internalType":"contract ICDS"}],"stateMutability":"nonpayable"},{"type":"function","name":"createCustomPool","inputs":[{"name":"deployer","type":"address","internalType":"address"},{"name":"creator","type":"address","internalType":"address"},{"name":"tokenA","type":"address","internalType":"address"},{"name":"tokenB","type":"address","internalType":"address"},{"name":"data","type":"bytes","internalType":"bytes"}],"outputs":[{"name":"customPool","type":"address","internalType":"address"}],"stateMutability":"nonpayable"},{"type":"function","name":"factory","inputs":[],"outputs":[{"name":"","type":"address","internalType":"address"}],"stateMutability":"view"},{"type":"function","name":"getCDS","inputs":[{"name":"creditAssesmentId","type":"bytes32","internalType":"bytes32"}],"outputs":[{"name":"","type":"address","internalType":"contract ICDS"}],"stateMutability":"view"},{"type":"function","name":"getMerchantDataMediator","inputs":[],"outputs":[{"name":"","type":"address","internalType":"contract IMerchantDataMediator"}],"stateMutability":"view"},{"type":"function","name":"isCDSDeployed","inputs":[{"name":"creditAssesmentId","type":"bytes32","internalType":"bytes32"}],"outputs":[{"name":"","type":"bool","internalType":"bool"}],"stateMutability":"view"},{"type":"function","name":"mentoStableCoinSelector","inputs":[],"outputs":[{"name":"","type":"address","internalType":"contract IMentoStableCoinSelector"}],"stateMutability":"view"},{"type":"function","name":"merchantDataMediator","inputs":[],"outputs":[{"name":"","type":"address","internalType":"contract IMerchantDataMediator"}],"stateMutability":"view"},{"type":"function","name":"predictCDSAddress","inputs":[{"name":"creditAssesmentId","type":"bytes32","internalType":"bytes32"},{"name":"creator","type":"address","internalType":"address"}],"outputs":[{"name":"","type":"address","internalType":"address"}],"stateMutability":"view"},{"type":"function","name":"setFee","inputs":[{"name":"pool","type":"address","internalType":"address"},{"name":"newFee","type":"uint16","internalType":"uint16"}],"outputs":[],"stateMutability":"nonpayable"},{"type":"function","name":"setMerchantDataMediator","inputs":[{"name":"_merchantDataMediator","type":"address","internalType":"contract IMerchantDataMediator"}],"outputs":[],"stateMutability":"nonpayable"},{"type":"function","name":"setPlugin","inputs":[{"name":"pool","type":"address","internalType":"address"},{"name":"newPluginAddress","type":"address","internalType":"address"}],"outputs":[],"stateMutability":"nonpayable"},{"type":"function","name":"setPluginConfig","inputs":[{"name":"pool","type":"address","internalType":"address"},{"name":"newConfig","type":"uint8","internalType":"uint8"}],"outputs":[],"stateMutability":"nonpayable"},{"type":"function","name":"setTickSpacing","inputs":[{"name":"pool","type":"address","internalType":"address"},{"name":"newTickSpacing","type":"int24","internalType":"int24"}],"outputs":[],"stateMutability":"nonpayable"},{"type":"event","name":"CDSCreated","inputs":[{"name":"creditAssesmentId","type":"bytes32","indexed":true,"internalType":"bytes32"},{"name":"cdsAddress","type":"address","indexed":true,"internalType":"address"}],"anonymous":false},{"type":"error","name":"CDSAlreadyDeployed","inputs":[{"name":"creditAssesmentId","type":"bytes32","internalType":"bytes32"}]}],"bytecode":{"object":"0x60c060405234801562000010575f80fd5b50604051620054263803806200542683398181016040528101906200003691906200021d565b815f73ffffffffffffffffffffffffffffffffffffffff168173ffffffffffffffffffffffffffffffffffffffff16036200006f575f80fd5b8073ffffffffffffffffffffffffffffffffffffffff1660808173ffffffffffffffffffffffffffffffffffffffff1681525050508060015f6101000a81548173ffffffffffffffffffffffffffffffffffffffff021916908373ffffffffffffffffffffffffffffffffffffffff16021790555030604051620000f39062000155565b620000ff9190620002c9565b604051809103905ff08015801562000119573d5f803e3d5ffd5b5073ffffffffffffffffffffffffffffffffffffffff1660a08173ffffffffffffffffffffffffffffffffffffffff16815250505050620002e4565b612e6f80620025b783390190565b5f80fd5b5f73ffffffffffffffffffffffffffffffffffffffff82169050919050565b5f620001928262000167565b9050919050565b5f620001a58262000186565b9050919050565b620001b78162000199565b8114620001c2575f80fd5b50565b5f81519050620001d581620001ac565b92915050565b5f620001e78262000186565b9050919050565b620001f981620001db565b811462000204575f80fd5b50565b5f815190506200021781620001ee565b92915050565b5f806040838503121562000236576200023562000163565b5b5f6200024585828601620001c5565b9250506020620002588582860162000207565b9150509250929050565b5f819050919050565b5f6200028b620002856200027f8462000167565b62000262565b62000167565b9050919050565b5f6200029e826200026b565b9050919050565b5f620002b18262000292565b9050919050565b620002c381620002a5565b82525050565b5f602082019050620002de5f830184620002b8565b92915050565b60805160a051612280620003375f395f81816107ef015281816109c00152610b0101525f818161048c015281816106f2015281816108550152818161090d01528181610c960152610fca01526122805ff3fe608060405234801561000f575f80fd5b5060043610610109575f3560e01c80638d5ef8d1116100a0578063dbb4022e1161006f578063dbb4022e146102a1578063dbbf3db4146102bf578063f2810caf146102ef578063f5491ae81461031f578063f9f4c09a1461034f57610109565b80638d5ef8d11461022d5780639c603a1614610249578063ad770be314610267578063c45a01551461028357610109565b8063337f3a31116100dc578063337f3a31146101a75780634aaf50b8146101c35780634bf092cd146101f35780637726fcd81461020f57610109565b8063043decc21461010d578063054bee3d1461013d57806308cd91a6146101595780631d0338d914610177575b5f80fd5b61012760048036038101906101229190611330565b61036b565b6040516101349190611375565b60405180910390f35b6101576004803603810190610152919061141e565b6103ed565b005b610161610462565b60405161016e91906114b7565b60405180910390f35b610191600480360381019061018c9190611531565b610489565b60405161019e91906115ea565b60405180910390f35b6101c160048036038101906101bc919061163a565b6105aa565b005b6101dd60048036038101906101d89190611330565b61061f565b6040516101ea9190611698565b60405180910390f35b61020d600480360381019061020891906116e7565b610658565b005b6102176106cd565b60405161022491906114b7565b60405180910390f35b61024760048036038101906102429190611725565b6106f0565b005b6102516107ed565b60405161025e91906115ea565b60405180910390f35b610281600480360381019061027c91906117b0565b610811565b005b61028b610853565b60405161029891906115ea565b60405180910390f35b6102a9610877565b6040516102b691906117fb565b60405180910390f35b6102d960048036038101906102d49190611814565b61089c565b6040516102e691906115ea565b60405180910390f35b610309600480360381019061030491906118aa565b6109ba565b60405161031691906115ea565b60405180910390f35b61033960048036038101906103349190611a9a565b610a15565b6040516103469190611698565b60405180910390f35b61036960048036038101906103649190611b24565b610e73565b005b5f60035f60025f8581526020019081526020015f205f9054906101000a900473ffffffffffffffffffffffffffffffffffffffff1673ffffffffffffffffffffffffffffffffffffffff1673ffffffffffffffffffffffffffffffffffffffff1681526020019081526020015f205f9054906101000a900460ff169050919050565b816103f781610ee8565b8273ffffffffffffffffffffffffffffffffffffffff1663bca57f81836040518263ffffffff1660e01b81526004016104309190611b71565b5f604051808303815f87803b158015610447575f80fd5b505af1158015610459573d5f803e3d5ffd5b50505050505050565b5f805f9054906101000a900473ffffffffffffffffffffffffffffffffffffffff16905090565b5f7f000000000000000000000000000000000000000000000000000000000000000073ffffffffffffffffffffffffffffffffffffffff163373ffffffffffffffffffffffffffffffffffffffff1614610518576040517f08c379a000000000000000000000000000000000000000000000000000000000815260040161050f90611be4565b60405180910390fd5b8573ffffffffffffffffffffffffffffffffffffffff16631d0338d9898989898989896040518863ffffffff1660e01b815260040161055d9796959493929190611c4c565b6020604051808303815f875af1158015610579573d5f803e3d5ffd5b505050506040513d601f19601f8201168201806040525081019061059d9190611cc8565b9050979650505050505050565b816105b481610ee8565b8273ffffffffffffffffffffffffffffffffffffffff16638e005553836040518263ffffffff1660e01b81526004016105ed9190611d02565b5f604051808303815f87803b158015610604575f80fd5b505af1158015610616573d5f803e3d5ffd5b50505050505050565b5f60025f8381526020019081526020015f205f9054906101000a900473ffffffffffffffffffffffffffffffffffffffff169050919050565b8161066281610ee8565b8273ffffffffffffffffffffffffffffffffffffffff1663f085a610836040518263ffffffff1660e01b815260040161069b9190611d2a565b5f604051808303815f87803b1580156106b2575f80fd5b505af11580156106c4573d5f803e3d5ffd5b50505050505050565b5f8054906101000a900473ffffffffffffffffffffffffffffffffffffffff1681565b7f000000000000000000000000000000000000000000000000000000000000000073ffffffffffffffffffffffffffffffffffffffff163373ffffffffffffffffffffffffffffffffffffffff161461077e576040517f08c379a000000000000000000000000000000000000000000000000000000000815260040161077590611be4565b60405180910390fd5b8073ffffffffffffffffffffffffffffffffffffffff16638d5ef8d18484846040518463ffffffff1660e01b81526004016107bb93929190611d43565b5f604051808303815f87803b1580156107d2575f80fd5b505af11580156107e4573d5f803e3d5ffd5b50505050505050565b7f000000000000000000000000000000000000000000000000000000000000000081565b805f806101000a81548173ffffffffffffffffffffffffffffffffffffffff021916908373ffffffffffffffffffffffffffffffffffffffff16021790555050565b7f000000000000000000000000000000000000000000000000000000000000000081565b60015f9054906101000a900473ffffffffffffffffffffffffffffffffffffffff1681565b5f8673ffffffffffffffffffffffffffffffffffffffff163373ffffffffffffffffffffffffffffffffffffffff161461090b576040517f08c379a000000000000000000000000000000000000000000000000000000000815260040161090290611dc2565b60405180910390fd5b7f000000000000000000000000000000000000000000000000000000000000000073ffffffffffffffffffffffffffffffffffffffff1663dbbf3db48888888888886040518763ffffffff1660e01b815260040161096e96959493929190611de0565b6020604051808303815f875af115801561098a573d5f803e3d5ffd5b505050506040513d601f19601f820116820180604052508101906109ae9190611cc8565b90509695505050505050565b5f610a0d7f000000000000000000000000000000000000000000000000000000000000000084846040516020016109f2929190611e9f565b604051602081830303815290604052805190602001206110d6565b905092915050565b5f60035f60025f8681526020019081526020015f205f9054906101000a900473ffffffffffffffffffffffffffffffffffffffff1673ffffffffffffffffffffffffffffffffffffffff1673ffffffffffffffffffffffffffffffffffffffff1681526020019081526020015f205f9054906101000a900460ff1615610ad257826040517f3f344e16000000000000000000000000000000000000000000000000000000008152600401610ac99190611ed9565b60405180910390fd5b5f610b448433604051602001610ae9929190611e9f565b604051602081830303815290604052805190602001207f000000000000000000000000000000000000000000000000000000000000000073ffffffffffffffffffffffffffffffffffffffff166110ea90919063ffffffff16565b90508073ffffffffffffffffffffffffffffffffffffffff1663833551018989898989896040518763ffffffff1660e01b8152600401610b8996959493929190611fa2565b5f604051808303815f87803b158015610ba0575f80fd5b505af1158015610bb2573d5f803e3d5ffd5b505050505f60015f9054906101000a900473ffffffffffffffffffffffffffffffffffffffff1673ffffffffffffffffffffffffffffffffffffffff16630a36360e865f1c8989886040518563ffffffff1660e01b8152600401610c199493929190612011565b6020604051808303815f875af1158015610c35573d5f803e3d5ffd5b505050506040513d601f19601f82011682018060405250810190610c59919061208f565b9050610cba6040518060400160405280601581526020017f416c676562726120466163746f727920757365643a00000000000000000000008152507f00000000000000000000000000000000000000000000000000000000000000006111a2565b5f805f9054906101000a900473ffffffffffffffffffffffffffffffffffffffff1673ffffffffffffffffffffffffffffffffffffffff1663819dbd898b85858a604051602001610d0b9190611ed9565b6040516020818303038152906040526040518563ffffffff1660e01b8152600401610d399493929190612124565b6020604051808303815f875af1158015610d55573d5f803e3d5ffd5b505050506040513d601f19601f82011682018060405250810190610d799190611cc8565b90508260025f8881526020019081526020015f205f6101000a81548173ffffffffffffffffffffffffffffffffffffffff021916908373ffffffffffffffffffffffffffffffffffffffff160217905550600160035f8573ffffffffffffffffffffffffffffffffffffffff1673ffffffffffffffffffffffffffffffffffffffff1681526020019081526020015f205f6101000a81548160ff0219169083151502179055508273ffffffffffffffffffffffffffffffffffffffff16867f792c35a473c8ce5ba85538f99dee7857abd71a756bf05220013a2e62834c9beb60405160405180910390a38293505050509695505050505050565b81610e7d81610ee8565b8273ffffffffffffffffffffffffffffffffffffffff1663cc1f97cf836040518263ffffffff1660e01b8152600401610eb691906115ea565b5f604051808303815f87803b158015610ecd575f80fd5b505af1158015610edf573d5f803e3d5ffd5b50505050505050565b5f8173ffffffffffffffffffffffffffffffffffffffff16630dfe16816040518163ffffffff1660e01b8152600401602060405180830381865afa158015610f32573d5f803e3d5ffd5b505050506040513d601f19601f82011682018060405250810190610f569190611cc8565b90505f8273ffffffffffffffffffffffffffffffffffffffff1663d21220a76040518163ffffffff1660e01b8152600401602060405180830381865afa158015610fa2573d5f803e3d5ffd5b505050506040513d601f19601f82011682018060405250810190610fc69190611cc8565b90507f000000000000000000000000000000000000000000000000000000000000000073ffffffffffffffffffffffffffffffffffffffff166323da36cc3384846040518463ffffffff1660e01b815260040161102593929190611d43565b602060405180830381865afa158015611040573d5f803e3d5ffd5b505050506040513d601f19601f820116820180604052508101906110649190611cc8565b73ffffffffffffffffffffffffffffffffffffffff168373ffffffffffffffffffffffffffffffffffffffff16146110d1576040517f08c379a00000000000000000000000000000000000000000000000000000000081526004016110c890611dc2565b60405180910390fd5b505050565b5f6110e283833061123e565b905092915050565b5f763d602d80600a3d3981f3363d3d373d3d3d363d730000008360601b60e81c175f526e5af43d82803e903d91602b57fd5bf38360781b1760205281603760095ff590505f73ffffffffffffffffffffffffffffffffffffffff168173ffffffffffffffffffffffffffffffffffffffff160361119c576040517f08c379a0000000000000000000000000000000000000000000000000000000008152600401611193906121b8565b60405180910390fd5b92915050565b61123a82826040516024016111b8929190612218565b6040516020818303038152906040527f319af333000000000000000000000000000000000000000000000000000000007bffffffffffffffffffffffffffffffffffffffffffffffffffffffff19166020820180517bffffffffffffffffffffffffffffffffffffffffffffffffffffffff838183161783525050505061129e565b5050565b5f6040518260388201526f5af43d82803e903d91602b57fd5bf3ff6024820152846014820152733d602d80600a3d3981f3363d3d373d3d3d363d7381528360588201526037600c8201206078820152605560438201209150509392505050565b6112b5816112ad6112b86112d7565b63ffffffff16565b50565b5f6a636f6e736f6c652e6c6f6790505f80835160208501845afa505050565b6112e2819050919050565b6112ea612246565b565b5f604051905090565b5f80fd5b5f80fd5b5f819050919050565b61130f816112fd565b8114611319575f80fd5b50565b5f8135905061132a81611306565b92915050565b5f60208284031215611345576113446112f5565b5b5f6113528482850161131c565b91505092915050565b5f8115159050919050565b61136f8161135b565b82525050565b5f6020820190506113885f830184611366565b92915050565b5f73ffffffffffffffffffffffffffffffffffffffff82169050919050565b5f6113b78261138e565b9050919050565b6113c7816113ad565b81146113d1575f80fd5b50565b5f813590506113e2816113be565b92915050565b5f60ff82169050919050565b6113fd816113e8565b8114611407575f80fd5b50565b5f81359050611418816113f4565b92915050565b5f8060408385031215611434576114336112f5565b5b5f611441858286016113d4565b92505060206114528582860161140a565b9150509250929050565b5f819050919050565b5f61147f61147a6114758461138e565b61145c565b61138e565b9050919050565b5f61149082611465565b9050919050565b5f6114a182611486565b9050919050565b6114b181611497565b82525050565b5f6020820190506114ca5f8301846114a8565b92915050565b5f80fd5b5f80fd5b5f80fd5b5f8083601f8401126114f1576114f06114d0565b5b8235905067ffffffffffffffff81111561150e5761150d6114d4565b5b60208301915083600182028301111561152a576115296114d8565b5b9250929050565b5f805f805f805f60c0888a03121561154c5761154b6112f5565b5b5f6115598a828b016113d4565b975050602061156a8a828b016113d4565b965050604061157b8a828b016113d4565b955050606061158c8a828b016113d4565b945050608061159d8a828b016113d4565b93505060a088013567ffffffffffffffff8111156115be576115bd6112f9565b5b6115ca8a828b016114dc565b925092505092959891949750929550565b6115e4816113ad565b82525050565b5f6020820190506115fd5f8301846115db565b92915050565b5f61ffff82169050919050565b61161981611603565b8114611623575f80fd5b50565b5f8135905061163481611610565b92915050565b5f80604083850312156116505761164f6112f5565b5b5f61165d858286016113d4565b925050602061166e85828601611626565b9150509250929050565b5f61168282611486565b9050919050565b61169281611678565b82525050565b5f6020820190506116ab5f830184611689565b92915050565b5f8160020b9050919050565b6116c6816116b1565b81146116d0575f80fd5b50565b5f813590506116e1816116bd565b92915050565b5f80604083850312156116fd576116fc6112f5565b5b5f61170a858286016113d4565b925050602061171b858286016116d3565b9150509250929050565b5f805f6060848603121561173c5761173b6112f5565b5b5f611749868287016113d4565b935050602061175a868287016113d4565b925050604061176b868287016113d4565b9150509250925092565b5f61177f826113ad565b9050919050565b61178f81611775565b8114611799575f80fd5b50565b5f813590506117aa81611786565b92915050565b5f602082840312156117c5576117c46112f5565b5b5f6117d28482850161179c565b91505092915050565b5f6117e582611486565b9050919050565b6117f5816117db565b82525050565b5f60208201905061180e5f8301846117ec565b92915050565b5f805f805f8060a0878903121561182e5761182d6112f5565b5b5f61183b89828a016113d4565b965050602061184c89828a016113d4565b955050604061185d89828a016113d4565b945050606061186e89828a016113d4565b935050608087013567ffffffffffffffff81111561188f5761188e6112f9565b5b61189b89828a016114dc565b92509250509295509295509295565b5f80604083850312156118c0576118bf6112f5565b5b5f6118cd8582860161131c565b92505060206118de858286016113d4565b9150509250929050565b5f80fd5b5f601f19601f8301169050919050565b7f4e487b71000000000000000000000000000000000000000000000000000000005f52604160045260245ffd5b611932826118ec565b810181811067ffffffffffffffff82111715611951576119506118fc565b5b80604052505050565b5f6119636112ec565b905061196f8282611929565b919050565b5f819050919050565b61198681611974565b8114611990575f80fd5b50565b5f813590506119a18161197d565b92915050565b6119b081611974565b81146119ba575f80fd5b50565b5f813590506119cb816119a7565b92915050565b6119da81611974565b81146119e4575f80fd5b50565b5f813590506119f5816119d1565b92915050565b611a0481611974565b8114611a0e575f80fd5b50565b5f81359050611a1f816119fb565b92915050565b5f60808284031215611a3a57611a396118e8565b5b611a44608061195a565b90505f611a5384828501611993565b5f830152506020611a66848285016119bd565b6020830152506040611a7a848285016119e7565b6040830152506060611a8e84828501611a11565b60608301525092915050565b5f805f805f806101208789031215611ab557611ab46112f5565b5b5f611ac289828a016113d4565b9650506020611ad389828a016113d4565b9550506040611ae489828a0161131c565b9450506060611af589828a0161131c565b9350506080611b0689828a0161131c565b92505060a0611b1789828a01611a25565b9150509295509295509295565b5f8060408385031215611b3a57611b396112f5565b5b5f611b47858286016113d4565b9250506020611b58858286016113d4565b9150509250929050565b611b6b816113e8565b82525050565b5f602082019050611b845f830184611b62565b92915050565b5f82825260208201905092915050565b7f4f6e6c7920666163746f727900000000000000000000000000000000000000005f82015250565b5f611bce600c83611b8a565b9150611bd982611b9a565b602082019050919050565b5f6020820190508181035f830152611bfb81611bc2565b9050919050565b5f82825260208201905092915050565b828183375f83830152505050565b5f611c2b8385611c02565b9350611c38838584611c12565b611c41836118ec565b840190509392505050565b5f60c082019050611c5f5f83018a6115db565b611c6c60208301896115db565b611c7960408301886115db565b611c8660608301876115db565b611c9360808301866115db565b81810360a0830152611ca6818486611c20565b905098975050505050505050565b5f81519050611cc2816113be565b92915050565b5f60208284031215611cdd57611cdc6112f5565b5b5f611cea84828501611cb4565b91505092915050565b611cfc81611603565b82525050565b5f602082019050611d155f830184611cf3565b92915050565b611d24816116b1565b82525050565b5f602082019050611d3d5f830184611d1b565b92915050565b5f606082019050611d565f8301866115db565b611d6360208301856115db565b611d7060408301846115db565b949350505050565b7f4f6e6c79206465706c6f796572000000000000000000000000000000000000005f82015250565b5f611dac600d83611b8a565b9150611db782611d78565b602082019050919050565b5f6020820190508181035f830152611dd981611da0565b9050919050565b5f60a082019050611df35f8301896115db565b611e0060208301886115db565b611e0d60408301876115db565b611e1a60608301866115db565b8181036080830152611e2d818486611c20565b9050979650505050505050565b5f819050919050565b611e54611e4f826112fd565b611e3a565b82525050565b5f8160601b9050919050565b5f611e7082611e5a565b9050919050565b5f611e8182611e66565b9050919050565b611e99611e94826113ad565b611e77565b82525050565b5f611eaa8285611e43565b602082019150611eba8284611e88565b6014820191508190509392505050565b611ed3816112fd565b82525050565b5f602082019050611eec5f830184611eca565b92915050565b5f611f0c611f07611f0284611974565b61145c565b611974565b9050919050565b611f1c81611ef2565b82525050565b611f2b81611ef2565b82525050565b611f3a81611ef2565b82525050565b611f4981611ef2565b82525050565b608082015f820151611f635f850182611f13565b506020820151611f766020850182611f22565b506040820151611f896040850182611f31565b506060820151611f9c6060850182611f40565b50505050565b5f61012082019050611fb65f8301896115db565b611fc360208301886115db565b611fd06040830187611eca565b611fdd6060830186611eca565b611fea6080830185611eca565b611ff760a0830184611f4f565b979650505050505050565b61200b81611974565b82525050565b5f60e0820190506120245f830187612002565b6120316020830186611eca565b61203e6040830185611eca565b61204b6060830184611f4f565b95945050505050565b5f61205e826113ad565b9050919050565b61206e81612054565b8114612078575f80fd5b50565b5f8151905061208981612065565b92915050565b5f602082840312156120a4576120a36112f5565b5b5f6120b18482850161207b565b91505092915050565b5f81519050919050565b5f5b838110156120e15780820151818401526020810190506120c6565b5f8484015250505050565b5f6120f6826120ba565b6121008185611c02565b93506121108185602086016120c4565b612119816118ec565b840191505092915050565b5f6080820190506121375f8301876115db565b61214460208301866115db565b61215160408301856115db565b818103606083015261216381846120ec565b905095945050505050565b7f455243313136373a2063726561746532206661696c65640000000000000000005f82015250565b5f6121a2601783611b8a565b91506121ad8261216e565b602082019050919050565b5f6020820190508181035f8301526121cf81612196565b9050919050565b5f81519050919050565b5f6121ea826121d6565b6121f48185611b8a565b93506122048185602086016120c4565b61220d816118ec565b840191505092915050565b5f6040820190508181035f83015261223081856121e0565b905061223f60208301846115db565b9392505050565b7f4e487b71000000000000000000000000000000000000000000000000000000005f52605160045260245ffdfea164736f6c6343000814000a60a060405234801562000010575f80fd5b5060405162002e6f38038062002e6f8339818101604052810190620000369190620000e9565b8073ffffffffffffffffffffffffffffffffffffffff1660808173ffffffffffffffffffffffffffffffffffffffff16815250505062000119565b5f80fd5b5f73ffffffffffffffffffffffffffffffffffffffff82169050919050565b5f620000a08262000075565b9050919050565b5f620000b38262000094565b9050919050565b620000c581620000a7565b8114620000d0575f80fd5b50565b5f81519050620000e381620000ba565b92915050565b5f6020828403121562000101576200010062000071565b5b5f6200011084828501620000d3565b91505092915050565b608051612d36620001395f395f81816106f501526108a30152612d365ff3fe608060405234801561000f575f80fd5b50600436106100fc575f3560e01c8063598af9e711610095578063bd85b03911610064578063bd85b0391461031a578063c87b56dd1461034a578063e8a3d4851461037a578063fe99049a14610398576100fc565b8063598af9e71461028057806383355101146102b0578063979ebba8146102cc578063b6363cf2146102ea576100fc565b80633f47e662116100d15780633f47e662146101c0578063426a8493146101f05780634e41a1fb14610220578063558a729714610250576100fc565b8062ad800c14610100578062fdd58e1461013057806301ffc9a714610160578063095bcdb614610190575b5f80fd5b61011a6004803603810190610115919061212d565b6103c8565b60405161012791906121e2565b60405180910390f35b61014a6004803603810190610145919061225c565b61046b565b60405161015791906122a9565b60405180910390f35b61017a60048036038101906101759190612317565b6104c0565b604051610187919061235c565b60405180910390f35b6101aa60048036038101906101a59190612375565b610539565b6040516101b7919061235c565b60405180910390f35b6101da60048036038101906101d5919061212d565b610558565b6040516101e791906123e0565b60405180910390f35b61020a60048036038101906102059190612375565b610581565b604051610217919061235c565b60405180910390f35b61023a6004803603810190610235919061212d565b6105a0565b60405161024791906121e2565b60405180910390f35b61026a60048036038101906102659190612423565b610644565b604051610277919061235c565b60405180910390f35b61029a60048036038101906102959190612461565b610661565b6040516102a791906122a9565b60405180910390f35b6102ca60048036038101906102c5919061267d565b6106f3565b005b6102d46108a0565b6040516102e19190612762565b60405180910390f35b61030460048036038101906102ff919061277b565b6108c7565b604051610311919061235c565b60405180910390f35b610334600480360381019061032f919061212d565b610955565b60405161034191906122a9565b60405180910390f35b610364600480360381019061035f919061212d565b61096f565b60405161037191906121e2565b60405180910390f35b610382610a10565b60405161038f91906121e2565b60405180910390f35b6103b260048036038101906103ad91906127b9565b610aa0565b6040516103bf919061235c565b60405180910390f35b606060035f8381526020019081526020015f205f0180546103e89061284a565b80601f01602080910402602001604051908101604052809291908181526020018280546104149061284a565b801561045f5780601f106104365761010080835404028352916020019161045f565b820191905f5260205f20905b81548152906001019060200180831161044257829003601f168201915b50505050509050919050565b5f805f8473ffffffffffffffffffffffffffffffffffffffff1673ffffffffffffffffffffffffffffffffffffffff1681526020019081526020015f205f8381526020019081526020015f2054905092915050565b5f7f0f632fb3000000000000000000000000000000000000000000000000000000007bffffffffffffffffffffffffffffffffffffffffffffffffffffffff1916827bffffffffffffffffffffffffffffffffffffffffffffffffffffffff19161480610532575061053182610b1a565b5b9050919050565b5f61054d610545610b83565b858585610b8a565b600190509392505050565b5f60035f8381526020019081526020015f206002015f9054906101000a900460ff169050919050565b5f61059561058d610b83565b858585610c7c565b600190509392505050565b606060035f8381526020019081526020015f2060010180546105c19061284a565b80601f01602080910402602001604051908101604052809291908181526020018280546105ed9061284a565b80156106385780601f1061060f57610100808354040283529160200191610638565b820191905f5260205f20905b81548152906001019060200180831161061b57829003601f168201915b50505050509050919050565b5f610657610650610b83565b8484610e54565b6001905092915050565b5f60025f8573ffffffffffffffffffffffffffffffffffffffff1673ffffffffffffffffffffffffffffffffffffffff1681526020019081526020015f205f8473ffffffffffffffffffffffffffffffffffffffff1673ffffffffffffffffffffffffffffffffffffffff1681526020019081526020015f205f8381526020019081526020015f205490509392505050565b7f000000000000000000000000000000000000000000000000000000000000000073ffffffffffffffffffffffffffffffffffffffff16610732610b83565b73ffffffffffffffffffffffffffffffffffffffff161461077f576040517f82c5ccc500000000000000000000000000000000000000000000000000000000815260040160405180910390fd5b5f825f1c90505f61078f8361102d565b90505f8686866040516020016107a79392919061289a565b60405160208183030381529060405290506107c28382611094565b610801836040518060400160405280600381526020017f43445300000000000000000000000000000000000000000000000000000000008152506110f1565b61083f6040518060400160405280601481526020017f68747470733a2f2f6170692e6364732e636f6d2f00000000000000000000000081525061114f565b61087e836040518060400160405280601481526020017f68747470733a2f2f6170692e6364732e636f6d2f00000000000000000000000081525061118e565b5061088a8783836111e9565b61089687896001610e54565b5050505050505050565b5f7f0000000000000000000000000000000000000000000000000000000000000000905090565b5f60015f8473ffffffffffffffffffffffffffffffffffffffff1673ffffffffffffffffffffffffffffffffffffffff1681526020019081526020015f205f8373ffffffffffffffffffffffffffffffffffffffff1673ffffffffffffffffffffffffffffffffffffffff1681526020019081526020015f205f9054906101000a900460ff16905092915050565b5f60065f8381526020019081526020015f20549050919050565b606060055f8381526020019081526020015f20805461098d9061284a565b80601f01602080910402602001604051908101604052809291908181526020018280546109b99061284a565b8015610a045780601f106109db57610100808354040283529160200191610a04565b820191905f5260205f20905b8154815290600101906020018083116109e757829003601f168201915b50505050509050919050565b606060048054610a1f9061284a565b80601f0160208091040260200160405190810160405280929190818152602001828054610a4b9061284a565b8015610a965780601f10610a6d57610100808354040283529160200191610a96565b820191905f5260205f20905b815481529060010190602001808311610a7957829003601f168201915b5050505050905090565b5f80610aaa610b83565b90508073ffffffffffffffffffffffffffffffffffffffff168673ffffffffffffffffffffffffffffffffffffffff1614158015610aef5750610aed86826108c7565b155b15610b0157610b008682868661126a565b5b610b0d86868686610b8a565b6001915050949350505050565b5f7f01ffc9a7000000000000000000000000000000000000000000000000000000007bffffffffffffffffffffffffffffffffffffffffffffffffffffffff1916827bffffffffffffffffffffffffffffffffffffffffffffffffffffffff1916149050919050565b5f33905090565b5f73ffffffffffffffffffffffffffffffffffffffff168473ffffffffffffffffffffffffffffffffffffffff1603610bfa575f6040517fa4352080000000000000000000000000000000000000000000000000000000008152600401610bf191906128e5565b60405180910390fd5b5f73ffffffffffffffffffffffffffffffffffffffff168373ffffffffffffffffffffffffffffffffffffffff1603610c6a575f6040517fb8bbd610000000000000000000000000000000000000000000000000000000008152600401610c6191906128e5565b60405180910390fd5b610c7684848484611381565b50505050565b5f73ffffffffffffffffffffffffffffffffffffffff168473ffffffffffffffffffffffffffffffffffffffff1603610cec575f6040517fcc766a98000000000000000000000000000000000000000000000000000000008152600401610ce391906128e5565b60405180910390fd5b5f73ffffffffffffffffffffffffffffffffffffffff168373ffffffffffffffffffffffffffffffffffffffff1603610d5c575f6040517f6f65f465000000000000000000000000000000000000000000000000000000008152600401610d5391906128e5565b60405180910390fd5b8060025f8673ffffffffffffffffffffffffffffffffffffffff1673ffffffffffffffffffffffffffffffffffffffff1681526020019081526020015f205f8573ffffffffffffffffffffffffffffffffffffffff1673ffffffffffffffffffffffffffffffffffffffff1681526020019081526020015f205f8481526020019081526020015f2081905550818373ffffffffffffffffffffffffffffffffffffffff168573ffffffffffffffffffffffffffffffffffffffff167fb3fd5071835887567a0671151121894ddccc2842f1d10bedad13e0d17cace9a784604051610e4691906122a9565b60405180910390a450505050565b5f73ffffffffffffffffffffffffffffffffffffffff168373ffffffffffffffffffffffffffffffffffffffff1603610ec4575f6040517fcc766a98000000000000000000000000000000000000000000000000000000008152600401610ebb91906128e5565b60405180910390fd5b5f73ffffffffffffffffffffffffffffffffffffffff168273ffffffffffffffffffffffffffffffffffffffff1603610f34575f6040517f6f65f465000000000000000000000000000000000000000000000000000000008152600401610f2b91906128e5565b60405180910390fd5b8060015f8573ffffffffffffffffffffffffffffffffffffffff1673ffffffffffffffffffffffffffffffffffffffff1681526020019081526020015f205f8473ffffffffffffffffffffffffffffffffffffffff1673ffffffffffffffffffffffffffffffffffffffff1681526020019081526020015f205f6101000a81548160ff0219169083151502179055508173ffffffffffffffffffffffffffffffffffffffff168373ffffffffffffffffffffffffffffffffffffffff167fceb576d9f15e4e200fdb5096d64d5dfd667e16def20c1eefd14256d8e3faa26783604051611020919061235c565b60405180910390a3505050565b5f8061103883611393565b90505f611044846113e9565b90505f61105085611470565b90505f61105c866114ad565b90505f61108585838587611070919061292b565b61107a919061292b565b6402540be4006114ea565b90508095505050505050919050565b8060035f8481526020019081526020015f205f0190816110b49190612b00565b50817f6846707b16f55a3623d38bf118700af63d0784698270a53ce28b116dbaa8b794826040516110e591906121e2565b60405180910390a25050565b8060035f8481526020019081526020015f2060010190816111129190612b00565b50817f8fabcb7b4fbdde605303a7339bc80fb6956cd01a42e9cdf2d15d0f2fdd3b06fa8260405161114391906121e2565b60405180910390a25050565b806004908161115e9190612b00565b507fa5d4097edda6d87cb9329af83fb3712ef77eeb13738ffe43cc35a4ce305ad96260405160405180910390a150565b8060055f8481526020019081526020015f2090816111ac9190612b00565b50817f6bb7ff708619ba0610cba295a58592e0451dee2622938c8755667688daf3529b826040516111dd91906121e2565b60405180910390a25050565b5f73ffffffffffffffffffffffffffffffffffffffff168373ffffffffffffffffffffffffffffffffffffffff1603611259575f6040517fb8bbd61000000000000000000000000000000000000000000000000000000000815260040161125091906128e5565b60405180910390fd5b6112655f848484611381565b505050565b5f611276858585610661565b90507fffffffffffffffffffffffffffffffffffffffffffffffffffffffffffffffff81101561137a57818110156112eb57838183856040517f58a3fd5a0000000000000000000000000000000000000000000000000000000081526004016112e29493929190612bcf565b60405180910390fd5b81810360025f8773ffffffffffffffffffffffffffffffffffffffff1673ffffffffffffffffffffffffffffffffffffffff1681526020019081526020015f205f8673ffffffffffffffffffffffffffffffffffffffff1673ffffffffffffffffffffffffffffffffffffffff1681526020019081526020015f205f8581526020019081526020015f20819055505b5050505050565b61138d848484846115ad565b50505050565b5f80825f015190505f805f806113a88561166c565b93509350935093505f6113ba866116e3565b90505f6103de826113cb919061292b565b6103e86113d89190612c12565b905080975050505050505050919050565b5f80826060015190505f805f806113ff8561171e565b93509350935093505f61143686604051806080016040528060288152602001601e815260200160148152602001600a815250611795565b90505f60968260646114489190612c45565b611452919061292b565b61138861145f9190612c12565b905080975050505050505050919050565b5f80826020015190505f61148382611913565b90505f602882611493919061292b565b611f406114a09190612c12565b9050809350505050919050565b5f80826040015190505f6114c082611935565b90505f6014826114d0919061292b565b6123286114dd9190612c12565b9050809350505050919050565b5f8083850290505f80198587098281108382030391505080841161150c575f80fd5b5f810361151f57838204925050506115a6565b5f8486880990508281118203915080830392505f85865f0316905080860495508084049350600181825f0304019050808302841793505f600287600302189050808702600203810290508087026002038102905080870260020381029050808702600203810290508087026002038102905080870260020381029050808502955050505050505b9392505050565b6115b984848484611977565b5f73ffffffffffffffffffffffffffffffffffffffff168473ffffffffffffffffffffffffffffffffffffffff1603611614578060065f8481526020019081526020015f205f82825461160c9190612c12565b925050819055505b5f73ffffffffffffffffffffffffffffffffffffffff168373ffffffffffffffffffffffffffffffffffffffff1603611666578060065f8481526020019081526020015f205f82825403925050819055505b50505050565b5f805f805f859050600160086001901b6116869190612c45565b5f82901c169450600160086001901b61169f9190612c45565b600882901c169350600160086001901b6116b99190612c45565b601082901c169250600160086001901b6116d39190612c45565b601882901c169150509193509193565b5f806040518060800160405280601e815260200160198152602001601e8152602001600f81525090506117168382611ba7565b915050919050565b5f805f805f859050600160086001901b6117389190612c45565b5f82901c169450600160086001901b6117519190612c45565b600882901c169350600160086001901b61176b9190612c45565b601082901c169250600160086001901b6117859190612c45565b601882901c169150509193509193565b5f805f805f6117a38761171e565b93509350935093505f866003600481106117c0576117bf612c78565b5b60200201518260ff166117d3919061292b565b876002600481106117e7576117e6612c78565b5b60200201518460ff166117fa919061292b565b8860016004811061180e5761180d612c78565b5b60200201518660ff16611821919061292b565b895f6004811061183457611833612c78565b5b60200201518860ff16611847919061292b565b6118519190612c12565b61185b9190612c12565b6118659190612c12565b90505f8760036004811061187c5761187b612c78565b5b60200201518860026004811061189557611894612c78565b5b6020020151896001600481106118ae576118ad612c78565b5b60200201518a5f600481106118c6576118c5612c78565b5b60200201516118d59190612c12565b6118df9190612c12565b6118e99190612c12565b90505f81116118f8575f611905565b80826119049190612cd2565b5b965050505050505092915050565b5f8061191e83611d25565b905080606461192d9190612c45565b915050919050565b5f806040518060a0016040528060148152602001601e815260200160198152602001600f8152602001600a815250905061196f8382611e0c565b915050919050565b5f611980610b83565b90505f73ffffffffffffffffffffffffffffffffffffffff168573ffffffffffffffffffffffffffffffffffffffff1614611aa3575f805f8773ffffffffffffffffffffffffffffffffffffffff1673ffffffffffffffffffffffffffffffffffffffff1681526020019081526020015f205f8581526020019081526020015f2054905082811015611a4f57858184866040517fb1b4fec0000000000000000000000000000000000000000000000000000000008152600401611a469493929190612bcf565b60405180910390fd5b8281035f808873ffffffffffffffffffffffffffffffffffffffff1673ffffffffffffffffffffffffffffffffffffffff1681526020019081526020015f205f8681526020019081526020015f2081905550505b5f73ffffffffffffffffffffffffffffffffffffffff168473ffffffffffffffffffffffffffffffffffffffff1614611b3857815f808673ffffffffffffffffffffffffffffffffffffffff1673ffffffffffffffffffffffffffffffffffffffff1681526020019081526020015f205f8581526020019081526020015f205f828254611b309190612c12565b925050819055505b828473ffffffffffffffffffffffffffffffffffffffff168673ffffffffffffffffffffffffffffffffffffffff167f1b3d7edb2e9c0b0e7c525b20aaaef0f5940d2ed71663c7d39266ecafac7288598486604051611b98929190612d02565b60405180910390a45050505050565b5f805f805f611bb58761166c565b93509350935093505f86600360048110611bd257611bd1612c78565b5b60200201518260ff16611be5919061292b565b87600260048110611bf957611bf8612c78565b5b60200201518460ff16611c0c919061292b565b88600160048110611c2057611c1f612c78565b5b60200201518660ff16611c33919061292b565b895f60048110611c4657611c45612c78565b5b60200201518860ff16611c59919061292b565b611c639190612c12565b611c6d9190612c12565b611c779190612c12565b90505f87600360048110611c8e57611c8d612c78565b5b602002015188600260048110611ca757611ca6612c78565b5b602002015189600160048110611cc057611cbf612c78565b5b60200201518a5f60048110611cd857611cd7612c78565b5b6020020151611ce79190612c12565b611cf19190612c12565b611cfb9190612c12565b90505f8111611d0a575f611d17565b8082611d169190612cd2565b5b965050505050505092915050565b5f805f805f611d3386611fe2565b93509350935093505f601960018560ff16611d4e9190612c45565b611d58919061292b565b90505f601960018560ff16611d6d9190612c45565b611d77919061292b565b90505f601960018560ff16611d8c9190612c45565b611d96919061292b565b90505f601482611da6919061292b565b601484611db3919061292b565b601486611dc0919061292b565b60288b60ff16611dd0919061292b565b611dda9190612c12565b611de49190612c12565b611dee9190612c12565b9050606481611dfd9190612cd2565b98505050505050505050919050565b5f805f805f80611e1b88612059565b945094509450945094505f87600460058110611e3a57611e39612c78565b5b60200201518260ff16611e4d919061292b565b88600360058110611e6157611e60612c78565b5b60200201518460ff16611e74919061292b565b89600260058110611e8857611e87612c78565b5b60200201518660ff16611e9b919061292b565b8a600160058110611eaf57611eae612c78565b5b60200201518860ff16611ec2919061292b565b8b5f60058110611ed557611ed4612c78565b5b60200201518a60ff16611ee8919061292b565b611ef29190612c12565b611efc9190612c12565b611f069190612c12565b611f109190612c12565b90505f88600460058110611f2757611f26612c78565b5b602002015189600360058110611f4057611f3f612c78565b5b60200201518a600260058110611f5957611f58612c78565b5b60200201518b600160058110611f7257611f71612c78565b5b60200201518c5f60058110611f8a57611f89612c78565b5b6020020151611f999190612c12565b611fa39190612c12565b611fad9190612c12565b611fb79190612c12565b90505f8111611fc6575f611fd3565b8082611fd29190612cd2565b5b97505050505050505092915050565b5f805f805f859050600160086001901b611ffc9190612c45565b5f82901c169450600160036001901b6120159190612c45565b600882901c169350600160036001901b61202f9190612c45565b600b82901c169250600160036001901b6120499190612c45565b600e82901c169150509193509193565b5f805f805f80869050600160086001901b6120749190612c45565b5f82901c169550600160086001901b61208d9190612c45565b600882901c169450600160086001901b6120a79190612c45565b601082901c169350600160086001901b6120c19190612c45565b601882901c169250600160086001901b6120db9190612c45565b602082901c1691505091939590929450565b5f604051905090565b5f80fd5b5f819050919050565b61210c816120fa565b8114612116575f80fd5b50565b5f8135905061212781612103565b92915050565b5f60208284031215612142576121416120f6565b5b5f61214f84828501612119565b91505092915050565b5f81519050919050565b5f82825260208201905092915050565b5f5b8381101561218f578082015181840152602081019050612174565b5f8484015250505050565b5f601f19601f8301169050919050565b5f6121b482612158565b6121be8185612162565b93506121ce818560208601612172565b6121d78161219a565b840191505092915050565b5f6020820190508181035f8301526121fa81846121aa565b905092915050565b5f73ffffffffffffffffffffffffffffffffffffffff82169050919050565b5f61222b82612202565b9050919050565b61223b81612221565b8114612245575f80fd5b50565b5f8135905061225681612232565b92915050565b5f8060408385031215612272576122716120f6565b5b5f61227f85828601612248565b925050602061229085828601612119565b9150509250929050565b6122a3816120fa565b82525050565b5f6020820190506122bc5f83018461229a565b92915050565b5f7fffffffff0000000000000000000000000000000000000000000000000000000082169050919050565b6122f6816122c2565b8114612300575f80fd5b50565b5f81359050612311816122ed565b92915050565b5f6020828403121561232c5761232b6120f6565b5b5f61233984828501612303565b91505092915050565b5f8115159050919050565b61235681612342565b82525050565b5f60208201905061236f5f83018461234d565b92915050565b5f805f6060848603121561238c5761238b6120f6565b5b5f61239986828701612248565b93505060206123aa86828701612119565b92505060406123bb86828701612119565b9150509250925092565b5f60ff82169050919050565b6123da816123c5565b82525050565b5f6020820190506123f35f8301846123d1565b92915050565b61240281612342565b811461240c575f80fd5b50565b5f8135905061241d816123f9565b92915050565b5f8060408385031215612439576124386120f6565b5b5f61244685828601612248565b92505060206124578582860161240f565b9150509250929050565b5f805f60608486031215612478576124776120f6565b5b5f61248586828701612248565b935050602061249686828701612248565b92505060406124a786828701612119565b9150509250925092565b5f819050919050565b6124c3816124b1565b81146124cd575f80fd5b50565b5f813590506124de816124ba565b92915050565b5f80fd5b7f4e487b71000000000000000000000000000000000000000000000000000000005f52604160045260245ffd5b61251e8261219a565b810181811067ffffffffffffffff8211171561253d5761253c6124e8565b5b80604052505050565b5f61254f6120ed565b905061255b8282612515565b919050565b612569816120fa565b8114612573575f80fd5b50565b5f8135905061258481612560565b92915050565b612593816120fa565b811461259d575f80fd5b50565b5f813590506125ae8161258a565b92915050565b6125bd816120fa565b81146125c7575f80fd5b50565b5f813590506125d8816125b4565b92915050565b6125e7816120fa565b81146125f1575f80fd5b50565b5f81359050612602816125de565b92915050565b5f6080828403121561261d5761261c6124e4565b5b6126276080612546565b90505f61263684828501612576565b5f830152506020612649848285016125a0565b602083015250604061265d848285016125ca565b6040830152506060612671848285016125f4565b60608301525092915050565b5f805f805f806101208789031215612698576126976120f6565b5b5f6126a589828a01612248565b96505060206126b689828a01612248565b95505060406126c789828a016124d0565b94505060606126d889828a016124d0565b93505060806126e989828a016124d0565b92505060a06126fa89828a01612608565b9150509295509295509295565b5f819050919050565b5f61272a61272561272084612202565b612707565b612202565b9050919050565b5f61273b82612710565b9050919050565b5f61274c82612731565b9050919050565b61275c81612742565b82525050565b5f6020820190506127755f830184612753565b92915050565b5f8060408385031215612791576127906120f6565b5b5f61279e85828601612248565b92505060206127af85828601612248565b9150509250929050565b5f805f80608085870312156127d1576127d06120f6565b5b5f6127de87828801612248565b94505060206127ef87828801612248565b935050604061280087828801612119565b925050606061281187828801612119565b91505092959194509250565b7f4e487b71000000000000000000000000000000000000000000000000000000005f52602260045260245ffd5b5f600282049050600182168061286157607f821691505b6020821081036128745761287361281d565b5b50919050565b5f819050919050565b61289461288f826124b1565b61287a565b82525050565b5f6128a58286612883565b6020820191506128b58285612883565b6020820191506128c58284612883565b602082019150819050949350505050565b6128df81612221565b82525050565b5f6020820190506128f85f8301846128d6565b92915050565b7f4e487b71000000000000000000000000000000000000000000000000000000005f52601160045260245ffd5b5f612935826120fa565b9150612940836120fa565b925082820261294e816120fa565b91508282048414831517612965576129646128fe565b5b5092915050565b5f819050815f5260205f209050919050565b5f6020601f8301049050919050565b5f82821b905092915050565b5f600883026129c87fffffffffffffffffffffffffffffffffffffffffffffffffffffffffffffffff8261298d565b6129d2868361298d565b95508019841693508086168417925050509392505050565b5f612a046129ff6129fa846120fa565b612707565b6120fa565b9050919050565b5f819050919050565b612a1d836129ea565b612a31612a2982612a0b565b848454612999565b825550505050565b5f90565b612a45612a39565b612a50818484612a14565b505050565b5b81811015612a7357612a685f82612a3d565b600181019050612a56565b5050565b601f821115612ab857612a898161296c565b612a928461297e565b81016020851015612aa1578190505b612ab5612aad8561297e565b830182612a55565b50505b505050565b5f82821c905092915050565b5f612ad85f1984600802612abd565b1980831691505092915050565b5f612af08383612ac9565b9150826002028217905092915050565b612b0982612158565b67ffffffffffffffff811115612b2257612b216124e8565b5b612b2c825461284a565b612b37828285612a77565b5f60209050601f831160018114612b68575f8415612b56578287015190505b612b608582612ae5565b865550612bc7565b601f198416612b768661296c565b5f5b82811015612b9d57848901518255600182019150602085019450602081019050612b78565b86831015612bba5784890151612bb6601f891682612ac9565b8355505b6001600288020188555050505b505050505050565b5f608082019050612be25f8301876128d6565b612bef602083018661229a565b612bfc604083018561229a565b612c09606083018461229a565b95945050505050565b5f612c1c826120fa565b9150612c27836120fa565b9250828201905080821115612c3f57612c3e6128fe565b5b92915050565b5f612c4f826120fa565b9150612c5a836120fa565b9250828203905081811115612c7257612c716128fe565b5b92915050565b7f4e487b71000000000000000000000000000000000000000000000000000000005f52603260045260245ffd5b7f4e487b71000000000000000000000000000000000000000000000000000000005f52601260045260245ffd5b5f612cdc826120fa565b9150612ce7836120fa565b925082612cf757612cf6612ca5565b5b828204905092915050565b5f604082019050612d155f8301856128d6565b612d22602083018461229a565b939250505056fea164736f6c6343000814000a","linkReferences":{}},"methodIdentifiers":{"CDS_IMPLEMENTATION()":"9c603a16","afterCreatePoolHook(address,address,address)":"8d5ef8d1","beforeCreatePoolHook(address,address,address,address,address,bytes)":"1d0338d9","createCDS(address,address,bytes32,bytes32,bytes32,(uint256,uint256,uint256,uint256))":"f5491ae8","createCustomPool(address,address,address,address,bytes)":"dbbf3db4","factory()":"c45a0155","getCDS(bytes32)":"4aaf50b8","getMerchantDataMediator()":"08cd91a6","isCDSDeployed(bytes32)":"043decc2","mentoStableCoinSelector()":"dbb4022e","merchantDataMediator()":"7726fcd8","predictCDSAddress(bytes32,address)":"f2810caf","setFee(address,uint16)":"337f3a31","setMerchantDataMediator(address)":"ad770be3","setPlugin(address,address)":"f9f4c09a","setPluginConfig(address,uint8)":"054bee3d","setTickSpacing(address,int24)":"4bf092cd"},"id":196}