{"abi":[{"type":"constructor","inputs":[{"name":"_algebraFactory","type":"address","internalType":"contract IAlgebraFactory"},{"name":"_mentoStableCoinSelector","type":"address","internalType":"contract IMentoStableCoinSelector"}],"stateMutability":"nonpayable"},{"type":"function","name":"CDS_IMPLEMENTATION","inputs":[],"outputs":[{"name":"","type":"address","internalType":"address"}],"stateMutability":"view"},{"type":"function","name":"afterCreatePoolHook","inputs":[{"name":"plugin","type":"address","internalType":"address"},{"name":"pool","type":"address","internalType":"address"},{"name":"deployer","type":"address","internalType":"address"}],"outputs":[],"stateMutability":"nonpayable"},{"type":"function","name":"beforeCreatePoolHook","inputs":[{"name":"pool","type":"address","internalType":"address"},{"name":"creator","type":"address","internalType":"address"},{"name":"deployer","type":"address","internalType":"address"},{"name":"token0","type":"address","internalType":"address"},{"name":"token1","type":"address","internalType":"address"},{"name":"data","type":"bytes","internalType":"bytes"}],"outputs":[{"name":"","type":"address","internalType":"address"}],"stateMutability":"nonpayable"},{"type":"function","name":"createCDS","inputs":[{"name":"protectionSeller","type":"address","internalType":"address"},{"name":"merchantWallet","type":"address","internalType":"address"},{"name":"businessId","type":"bytes32","internalType":"bytes32"},{"name":"countryCodeHash","type":"bytes32","internalType":"bytes32"},{"name":"creditAssesmentId","type":"bytes32","internalType":"bytes32"},{"name":"metrics","type":"tuple","internalType":"struct Metrics","components":[{"name":"financialHealth","type":"uint256","internalType":"FinancialHealth"},{"name":"marketRisk","type":"uint256","internalType":"MarketRisk"},{"name":"businessFundamentals","type":"uint256","internalType":"BusinessFundamentals"},{"name":"creditRisk","type":"uint256","internalType":"CreditRisk"}]}],"outputs":[{"name":"","type":"address","internalType":"contract ICDS"}],"stateMutability":"nonpayable"},{"type":"function","name":"createCustomPool","inputs":[{"name":"deployer","type":"address","internalType":"address"},{"name":"creator","type":"address","internalType":"address"},{"name":"tokenA","type":"address","internalType":"address"},{"name":"tokenB","type":"address","internalType":"address"},{"name":"data","type":"bytes","internalType":"bytes"}],"outputs":[{"name":"customPool","type":"address","internalType":"address"}],"stateMutability":"nonpayable"},{"type":"function","name":"factory","inputs":[],"outputs":[{"name":"","type":"address","internalType":"address"}],"stateMutability":"view"},{"type":"function","name":"getCDS","inputs":[{"name":"creditAssesmentId","type":"bytes32","internalType":"bytes32"}],"outputs":[{"name":"","type":"address","internalType":"contract ICDS"}],"stateMutability":"view"},{"type":"function","name":"getMerchantDataMediator","inputs":[],"outputs":[{"name":"","type":"address","internalType":"contract IMerchantDataMediator"}],"stateMutability":"view"},{"type":"function","name":"isCDSDeployed","inputs":[{"name":"creditAssesmentId","type":"bytes32","internalType":"bytes32"}],"outputs":[{"name":"","type":"bool","internalType":"bool"}],"stateMutability":"view"},{"type":"function","name":"mentoStableCoinSelector","inputs":[],"outputs":[{"name":"","type":"address","internalType":"contract IMentoStableCoinSelector"}],"stateMutability":"view"},{"type":"function","name":"merchantDataMediator","inputs":[],"outputs":[{"name":"","type":"address","internalType":"contract IMerchantDataMediator"}],"stateMutability":"view"},{"type":"function","name":"predictCDSAddress","inputs":[{"name":"creditAssesmentId","type":"bytes32","internalType":"bytes32"},{"name":"creator","type":"address","internalType":"address"}],"outputs":[{"name":"","type":"address","internalType":"address"}],"stateMutability":"view"},{"type":"function","name":"setFee","inputs":[{"name":"pool","type":"address","internalType":"address"},{"name":"newFee","type":"uint16","internalType":"uint16"}],"outputs":[],"stateMutability":"nonpayable"},{"type":"function","name":"setMerchantDataMediator","inputs":[{"name":"_merchantDataMediator","type":"address","internalType":"contract IMerchantDataMediator"}],"outputs":[],"stateMutability":"nonpayable"},{"type":"function","name":"setPlugin","inputs":[{"name":"pool","type":"address","internalType":"address"},{"name":"newPluginAddress","type":"address","internalType":"address"}],"outputs":[],"stateMutability":"nonpayable"},{"type":"function","name":"setPluginConfig","inputs":[{"name":"pool","type":"address","internalType":"address"},{"name":"newConfig","type":"uint8","internalType":"uint8"}],"outputs":[],"stateMutability":"nonpayable"},{"type":"function","name":"setTickSpacing","inputs":[{"name":"pool","type":"address","internalType":"address"},{"name":"newTickSpacing","type":"int24","internalType":"int24"}],"outputs":[],"stateMutability":"nonpayable"},{"type":"event","name":"CDSCreated","inputs":[{"name":"creditAssesmentId","type":"bytes32","indexed":true,"internalType":"bytes32"},{"name":"cdsAddress","type":"address","indexed":true,"internalType":"address"}],"anonymous":false},{"type":"error","name":"CDSAlreadyDeployed","inputs":[{"name":"creditAssesmentId","type":"bytes32","internalType":"bytes32"}]}],"bytecode":{"object":"0x60c060405234801562000010575f80fd5b506040516200543038038062005430833981810160405281019062000036919062000240565b815f73ffffffffffffffffffffffffffffffffffffffff168173ffffffffffffffffffffffffffffffffffffffff16036200006f575f80fd5b8073ffffffffffffffffffffffffffffffffffffffff1660808173ffffffffffffffffffffffffffffffffffffffff1681525050508060015f6101000a81548173ffffffffffffffffffffffffffffffffffffffff021916908373ffffffffffffffffffffffffffffffffffffffff16021790555060015f9054906101000a900473ffffffffffffffffffffffffffffffffffffffff1630604051620001159062000178565b6200012292919062000310565b604051809103905ff0801580156200013c573d5f803e3d5ffd5b5073ffffffffffffffffffffffffffffffffffffffff1660a08173ffffffffffffffffffffffffffffffffffffffff168152505050506200033b565b6132e3806200214d83390190565b5f80fd5b5f73ffffffffffffffffffffffffffffffffffffffff82169050919050565b5f620001b5826200018a565b9050919050565b5f620001c882620001a9565b9050919050565b620001da81620001bc565b8114620001e5575f80fd5b50565b5f81519050620001f881620001cf565b92915050565b5f6200020a82620001a9565b9050919050565b6200021c81620001fe565b811462000227575f80fd5b50565b5f815190506200023a8162000211565b92915050565b5f806040838503121562000259576200025862000186565b5b5f6200026885828601620001e8565b92505060206200027b858286016200022a565b9150509250929050565b5f819050919050565b5f620002ae620002a8620002a2846200018a565b62000285565b6200018a565b9050919050565b5f620002c1826200028e565b9050919050565b5f620002d482620002b5565b9050919050565b620002e681620002c8565b82525050565b5f620002f882620002b5565b9050919050565b6200030a81620002ec565b82525050565b5f604082019050620003255f830185620002db565b620003346020830184620002ff565b9392505050565b60805160a051611dc6620003875f395f81816107ef015281816109c00152610b0101525f818161048c015281816106f2015281816108550152818161090d0152610e030152611dc65ff3fe608060405234801561000f575f80fd5b5060043610610109575f3560e01c80638d5ef8d1116100a0578063dbb4022e1161006f578063dbb4022e146102a1578063dbbf3db4146102bf578063f2810caf146102ef578063f5491ae81461031f578063f9f4c09a1461034f57610109565b80638d5ef8d11461022d5780639c603a1614610249578063ad770be314610267578063c45a01551461028357610109565b8063337f3a31116100dc578063337f3a31146101a75780634aaf50b8146101c35780634bf092cd146101f35780637726fcd81461020f57610109565b8063043decc21461010d578063054bee3d1461013d57806308cd91a6146101595780631d0338d914610177575b5f80fd5b6101276004803603810190610122919061107f565b61036b565b60405161013491906110c4565b60405180910390f35b6101576004803603810190610152919061116d565b6103ed565b005b610161610462565b60405161016e9190611206565b60405180910390f35b610191600480360381019061018c9190611280565b610489565b60405161019e9190611339565b60405180910390f35b6101c160048036038101906101bc9190611389565b6105aa565b005b6101dd60048036038101906101d8919061107f565b61061f565b6040516101ea91906113e7565b60405180910390f35b61020d60048036038101906102089190611436565b610658565b005b6102176106cd565b6040516102249190611206565b60405180910390f35b61024760048036038101906102429190611474565b6106f0565b005b6102516107ed565b60405161025e9190611339565b60405180910390f35b610281600480360381019061027c91906114ff565b610811565b005b61028b610853565b6040516102989190611339565b60405180910390f35b6102a9610877565b6040516102b6919061154a565b60405180910390f35b6102d960048036038101906102d49190611563565b61089c565b6040516102e69190611339565b60405180910390f35b610309600480360381019061030491906115f9565b6109ba565b6040516103169190611339565b60405180910390f35b610339600480360381019061033491906117e9565b610a15565b60405161034691906113e7565b60405180910390f35b61036960048036038101906103649190611873565b610cac565b005b5f60035f60025f8581526020019081526020015f205f9054906101000a900473ffffffffffffffffffffffffffffffffffffffff1673ffffffffffffffffffffffffffffffffffffffff1673ffffffffffffffffffffffffffffffffffffffff1681526020019081526020015f205f9054906101000a900460ff169050919050565b816103f781610d21565b8273ffffffffffffffffffffffffffffffffffffffff1663bca57f81836040518263ffffffff1660e01b815260040161043091906118c0565b5f604051808303815f87803b158015610447575f80fd5b505af1158015610459573d5f803e3d5ffd5b50505050505050565b5f805f9054906101000a900473ffffffffffffffffffffffffffffffffffffffff16905090565b5f7f000000000000000000000000000000000000000000000000000000000000000073ffffffffffffffffffffffffffffffffffffffff163373ffffffffffffffffffffffffffffffffffffffff1614610518576040517f08c379a000000000000000000000000000000000000000000000000000000000815260040161050f90611933565b60405180910390fd5b8573ffffffffffffffffffffffffffffffffffffffff16631d0338d9898989898989896040518863ffffffff1660e01b815260040161055d979695949392919061199b565b6020604051808303815f875af1158015610579573d5f803e3d5ffd5b505050506040513d601f19601f8201168201806040525081019061059d9190611a17565b9050979650505050505050565b816105b481610d21565b8273ffffffffffffffffffffffffffffffffffffffff16638e005553836040518263ffffffff1660e01b81526004016105ed9190611a51565b5f604051808303815f87803b158015610604575f80fd5b505af1158015610616573d5f803e3d5ffd5b50505050505050565b5f60025f8381526020019081526020015f205f9054906101000a900473ffffffffffffffffffffffffffffffffffffffff169050919050565b8161066281610d21565b8273ffffffffffffffffffffffffffffffffffffffff1663f085a610836040518263ffffffff1660e01b815260040161069b9190611a79565b5f604051808303815f87803b1580156106b2575f80fd5b505af11580156106c4573d5f803e3d5ffd5b50505050505050565b5f8054906101000a900473ffffffffffffffffffffffffffffffffffffffff1681565b7f000000000000000000000000000000000000000000000000000000000000000073ffffffffffffffffffffffffffffffffffffffff163373ffffffffffffffffffffffffffffffffffffffff161461077e576040517f08c379a000000000000000000000000000000000000000000000000000000000815260040161077590611933565b60405180910390fd5b8073ffffffffffffffffffffffffffffffffffffffff16638d5ef8d18484846040518463ffffffff1660e01b81526004016107bb93929190611a92565b5f604051808303815f87803b1580156107d2575f80fd5b505af11580156107e4573d5f803e3d5ffd5b50505050505050565b7f000000000000000000000000000000000000000000000000000000000000000081565b805f806101000a81548173ffffffffffffffffffffffffffffffffffffffff021916908373ffffffffffffffffffffffffffffffffffffffff16021790555050565b7f000000000000000000000000000000000000000000000000000000000000000081565b60015f9054906101000a900473ffffffffffffffffffffffffffffffffffffffff1681565b5f8673ffffffffffffffffffffffffffffffffffffffff163373ffffffffffffffffffffffffffffffffffffffff161461090b576040517f08c379a000000000000000000000000000000000000000000000000000000000815260040161090290611b11565b60405180910390fd5b7f000000000000000000000000000000000000000000000000000000000000000073ffffffffffffffffffffffffffffffffffffffff1663dbbf3db48888888888886040518763ffffffff1660e01b815260040161096e96959493929190611b2f565b6020604051808303815f875af115801561098a573d5f803e3d5ffd5b505050506040513d601f19601f820116820180604052508101906109ae9190611a17565b90509695505050505050565b5f610a0d7f000000000000000000000000000000000000000000000000000000000000000084846040516020016109f2929190611bee565b60405160208183030381529060405280519060200120610f0f565b905092915050565b5f60035f60025f8681526020019081526020015f205f9054906101000a900473ffffffffffffffffffffffffffffffffffffffff1673ffffffffffffffffffffffffffffffffffffffff1673ffffffffffffffffffffffffffffffffffffffff1681526020019081526020015f205f9054906101000a900460ff1615610ad257826040517f3f344e16000000000000000000000000000000000000000000000000000000008152600401610ac99190611c28565b60405180910390fd5b5f610b448433604051602001610ae9929190611bee565b604051602081830303815290604052805190602001207f000000000000000000000000000000000000000000000000000000000000000073ffffffffffffffffffffffffffffffffffffffff16610f2390919063ffffffff16565b90508073ffffffffffffffffffffffffffffffffffffffff1663833551018989898989896040518763ffffffff1660e01b8152600401610b8996959493929190611cf1565b5f604051808303815f87803b158015610ba0575f80fd5b505af1158015610bb2573d5f803e3d5ffd5b505050508060025f8681526020019081526020015f205f6101000a81548173ffffffffffffffffffffffffffffffffffffffff021916908373ffffffffffffffffffffffffffffffffffffffff160217905550600160035f8373ffffffffffffffffffffffffffffffffffffffff1673ffffffffffffffffffffffffffffffffffffffff1681526020019081526020015f205f6101000a81548160ff0219169083151502179055508073ffffffffffffffffffffffffffffffffffffffff16847f792c35a473c8ce5ba85538f99dee7857abd71a756bf05220013a2e62834c9beb60405160405180910390a3809150509695505050505050565b81610cb681610d21565b8273ffffffffffffffffffffffffffffffffffffffff1663cc1f97cf836040518263ffffffff1660e01b8152600401610cef9190611339565b5f604051808303815f87803b158015610d06575f80fd5b505af1158015610d18573d5f803e3d5ffd5b50505050505050565b5f8173ffffffffffffffffffffffffffffffffffffffff16630dfe16816040518163ffffffff1660e01b8152600401602060405180830381865afa158015610d6b573d5f803e3d5ffd5b505050506040513d601f19601f82011682018060405250810190610d8f9190611a17565b90505f8273ffffffffffffffffffffffffffffffffffffffff1663d21220a76040518163ffffffff1660e01b8152600401602060405180830381865afa158015610ddb573d5f803e3d5ffd5b505050506040513d601f19601f82011682018060405250810190610dff9190611a17565b90507f000000000000000000000000000000000000000000000000000000000000000073ffffffffffffffffffffffffffffffffffffffff166323da36cc3384846040518463ffffffff1660e01b8152600401610e5e93929190611a92565b602060405180830381865afa158015610e79573d5f803e3d5ffd5b505050506040513d601f19601f82011682018060405250810190610e9d9190611a17565b73ffffffffffffffffffffffffffffffffffffffff168373ffffffffffffffffffffffffffffffffffffffff1614610f0a576040517f08c379a0000000000000000000000000000000000000000000000000000000008152600401610f0190611b11565b60405180910390fd5b505050565b5f610f1b838330610fdb565b905092915050565b5f763d602d80600a3d3981f3363d3d373d3d3d363d730000008360601b60e81c175f526e5af43d82803e903d91602b57fd5bf38360781b1760205281603760095ff590505f73ffffffffffffffffffffffffffffffffffffffff168173ffffffffffffffffffffffffffffffffffffffff1603610fd5576040517f08c379a0000000000000000000000000000000000000000000000000000000008152600401610fcc90611d9b565b60405180910390fd5b92915050565b5f6040518260388201526f5af43d82803e903d91602b57fd5bf3ff6024820152846014820152733d602d80600a3d3981f3363d3d373d3d3d363d7381528360588201526037600c8201206078820152605560438201209150509392505050565b5f604051905090565b5f80fd5b5f80fd5b5f819050919050565b61105e8161104c565b8114611068575f80fd5b50565b5f8135905061107981611055565b92915050565b5f6020828403121561109457611093611044565b5b5f6110a18482850161106b565b91505092915050565b5f8115159050919050565b6110be816110aa565b82525050565b5f6020820190506110d75f8301846110b5565b92915050565b5f73ffffffffffffffffffffffffffffffffffffffff82169050919050565b5f611106826110dd565b9050919050565b611116816110fc565b8114611120575f80fd5b50565b5f813590506111318161110d565b92915050565b5f60ff82169050919050565b61114c81611137565b8114611156575f80fd5b50565b5f8135905061116781611143565b92915050565b5f806040838503121561118357611182611044565b5b5f61119085828601611123565b92505060206111a185828601611159565b9150509250929050565b5f819050919050565b5f6111ce6111c96111c4846110dd565b6111ab565b6110dd565b9050919050565b5f6111df826111b4565b9050919050565b5f6111f0826111d5565b9050919050565b611200816111e6565b82525050565b5f6020820190506112195f8301846111f7565b92915050565b5f80fd5b5f80fd5b5f80fd5b5f8083601f8401126112405761123f61121f565b5b8235905067ffffffffffffffff81111561125d5761125c611223565b5b60208301915083600182028301111561127957611278611227565b5b9250929050565b5f805f805f805f60c0888a03121561129b5761129a611044565b5b5f6112a88a828b01611123565b97505060206112b98a828b01611123565b96505060406112ca8a828b01611123565b95505060606112db8a828b01611123565b94505060806112ec8a828b01611123565b93505060a088013567ffffffffffffffff81111561130d5761130c611048565b5b6113198a828b0161122b565b925092505092959891949750929550565b611333816110fc565b82525050565b5f60208201905061134c5f83018461132a565b92915050565b5f61ffff82169050919050565b61136881611352565b8114611372575f80fd5b50565b5f813590506113838161135f565b92915050565b5f806040838503121561139f5761139e611044565b5b5f6113ac85828601611123565b92505060206113bd85828601611375565b9150509250929050565b5f6113d1826111d5565b9050919050565b6113e1816113c7565b82525050565b5f6020820190506113fa5f8301846113d8565b92915050565b5f8160020b9050919050565b61141581611400565b811461141f575f80fd5b50565b5f813590506114308161140c565b92915050565b5f806040838503121561144c5761144b611044565b5b5f61145985828601611123565b925050602061146a85828601611422565b9150509250929050565b5f805f6060848603121561148b5761148a611044565b5b5f61149886828701611123565b93505060206114a986828701611123565b92505060406114ba86828701611123565b9150509250925092565b5f6114ce826110fc565b9050919050565b6114de816114c4565b81146114e8575f80fd5b50565b5f813590506114f9816114d5565b92915050565b5f6020828403121561151457611513611044565b5b5f611521848285016114eb565b91505092915050565b5f611534826111d5565b9050919050565b6115448161152a565b82525050565b5f60208201905061155d5f83018461153b565b92915050565b5f805f805f8060a0878903121561157d5761157c611044565b5b5f61158a89828a01611123565b965050602061159b89828a01611123565b95505060406115ac89828a01611123565b94505060606115bd89828a01611123565b935050608087013567ffffffffffffffff8111156115de576115dd611048565b5b6115ea89828a0161122b565b92509250509295509295509295565b5f806040838503121561160f5761160e611044565b5b5f61161c8582860161106b565b925050602061162d85828601611123565b9150509250929050565b5f80fd5b5f601f19601f8301169050919050565b7f4e487b71000000000000000000000000000000000000000000000000000000005f52604160045260245ffd5b6116818261163b565b810181811067ffffffffffffffff821117156116a05761169f61164b565b5b80604052505050565b5f6116b261103b565b90506116be8282611678565b919050565b5f819050919050565b6116d5816116c3565b81146116df575f80fd5b50565b5f813590506116f0816116cc565b92915050565b6116ff816116c3565b8114611709575f80fd5b50565b5f8135905061171a816116f6565b92915050565b611729816116c3565b8114611733575f80fd5b50565b5f8135905061174481611720565b92915050565b611753816116c3565b811461175d575f80fd5b50565b5f8135905061176e8161174a565b92915050565b5f6080828403121561178957611788611637565b5b61179360806116a9565b90505f6117a2848285016116e2565b5f8301525060206117b58482850161170c565b60208301525060406117c984828501611736565b60408301525060606117dd84828501611760565b60608301525092915050565b5f805f805f80610120878903121561180457611803611044565b5b5f61181189828a01611123565b965050602061182289828a01611123565b955050604061183389828a0161106b565b945050606061184489828a0161106b565b935050608061185589828a0161106b565b92505060a061186689828a01611774565b9150509295509295509295565b5f806040838503121561188957611888611044565b5b5f61189685828601611123565b92505060206118a785828601611123565b9150509250929050565b6118ba81611137565b82525050565b5f6020820190506118d35f8301846118b1565b92915050565b5f82825260208201905092915050565b7f4f6e6c7920666163746f727900000000000000000000000000000000000000005f82015250565b5f61191d600c836118d9565b9150611928826118e9565b602082019050919050565b5f6020820190508181035f83015261194a81611911565b9050919050565b5f82825260208201905092915050565b828183375f83830152505050565b5f61197a8385611951565b9350611987838584611961565b6119908361163b565b840190509392505050565b5f60c0820190506119ae5f83018a61132a565b6119bb602083018961132a565b6119c8604083018861132a565b6119d5606083018761132a565b6119e2608083018661132a565b81810360a08301526119f581848661196f565b905098975050505050505050565b5f81519050611a118161110d565b92915050565b5f60208284031215611a2c57611a2b611044565b5b5f611a3984828501611a03565b91505092915050565b611a4b81611352565b82525050565b5f602082019050611a645f830184611a42565b92915050565b611a7381611400565b82525050565b5f602082019050611a8c5f830184611a6a565b92915050565b5f606082019050611aa55f83018661132a565b611ab2602083018561132a565b611abf604083018461132a565b949350505050565b7f4f6e6c79206465706c6f796572000000000000000000000000000000000000005f82015250565b5f611afb600d836118d9565b9150611b0682611ac7565b602082019050919050565b5f6020820190508181035f830152611b2881611aef565b9050919050565b5f60a082019050611b425f83018961132a565b611b4f602083018861132a565b611b5c604083018761132a565b611b69606083018661132a565b8181036080830152611b7c81848661196f565b9050979650505050505050565b5f819050919050565b611ba3611b9e8261104c565b611b89565b82525050565b5f8160601b9050919050565b5f611bbf82611ba9565b9050919050565b5f611bd082611bb5565b9050919050565b611be8611be3826110fc565b611bc6565b82525050565b5f611bf98285611b92565b602082019150611c098284611bd7565b6014820191508190509392505050565b611c228161104c565b82525050565b5f602082019050611c3b5f830184611c19565b92915050565b5f611c5b611c56611c51846116c3565b6111ab565b6116c3565b9050919050565b611c6b81611c41565b82525050565b611c7a81611c41565b82525050565b611c8981611c41565b82525050565b611c9881611c41565b82525050565b608082015f820151611cb25f850182611c62565b506020820151611cc56020850182611c71565b506040820151611cd86040850182611c80565b506060820151611ceb6060850182611c8f565b50505050565b5f61012082019050611d055f83018961132a565b611d12602083018861132a565b611d1f6040830187611c19565b611d2c6060830186611c19565b611d396080830185611c19565b611d4660a0830184611c9e565b979650505050505050565b7f455243313136373a2063726561746532206661696c65640000000000000000005f82015250565b5f611d856017836118d9565b9150611d9082611d51565b602082019050919050565b5f6020820190508181035f830152611db281611d79565b905091905056fea164736f6c6343000814000a60a060405234801562000010575f80fd5b50604051620032e3380380620032e383398181016040528101906200003691906200016c565b8073ffffffffffffffffffffffffffffffffffffffff1660808173ffffffffffffffffffffffffffffffffffffffff16815250508160075f6101000a81548173ffffffffffffffffffffffffffffffffffffffff021916908373ffffffffffffffffffffffffffffffffffffffff1602179055505050620001b1565b5f80fd5b5f73ffffffffffffffffffffffffffffffffffffffff82169050919050565b5f620000e182620000b6565b9050919050565b5f620000f482620000d5565b9050919050565b6200010681620000e8565b811462000111575f80fd5b50565b5f815190506200012481620000fb565b92915050565b5f6200013682620000d5565b9050919050565b62000148816200012a565b811462000153575f80fd5b50565b5f8151905062000166816200013d565b92915050565b5f8060408385031215620001855762000184620000b2565b5b5f620001948582860162000114565b9250506020620001a78582860162000156565b9150509250929050565b60805161310b620001d85f395f81816106f50152818161093c0152610a0b015261310b5ff3fe608060405234801561000f575f80fd5b50600436106100fc575f3560e01c8063598af9e711610095578063bd85b03911610064578063bd85b0391461031a578063c87b56dd1461034a578063e8a3d4851461037a578063fe99049a14610398576100fc565b8063598af9e71461028057806383355101146102b0578063979ebba8146102cc578063b6363cf2146102ea576100fc565b80633f47e662116100d15780633f47e662146101c0578063426a8493146101f05780634e41a1fb14610220578063558a729714610250576100fc565b8062ad800c14610100578062fdd58e1461013057806301ffc9a714610160578063095bcdb614610190575b5f80fd5b61011a60048036038101906101159190612296565b6103c8565b604051610127919061234b565b60405180910390f35b61014a600480360381019061014591906123c5565b61046b565b6040516101579190612412565b60405180910390f35b61017a60048036038101906101759190612480565b6104c0565b60405161018791906124c5565b60405180910390f35b6101aa60048036038101906101a591906124de565b610539565b6040516101b791906124c5565b60405180910390f35b6101da60048036038101906101d59190612296565b610558565b6040516101e79190612549565b60405180910390f35b61020a600480360381019061020591906124de565b610581565b60405161021791906124c5565b60405180910390f35b61023a60048036038101906102359190612296565b6105a0565b604051610247919061234b565b60405180910390f35b61026a6004803603810190610265919061258c565b610644565b60405161027791906124c5565b60405180910390f35b61029a600480360381019061029591906125ca565b610661565b6040516102a79190612412565b60405180910390f35b6102ca60048036038101906102c591906127e6565b6106f3565b005b6102d4610a08565b6040516102e191906128cb565b60405180910390f35b61030460048036038101906102ff91906128e4565b610a2f565b60405161031191906124c5565b60405180910390f35b610334600480360381019061032f9190612296565b610abd565b6040516103419190612412565b60405180910390f35b610364600480360381019061035f9190612296565b610ad7565b604051610371919061234b565b60405180910390f35b610382610b78565b60405161038f919061234b565b60405180910390f35b6103b260048036038101906103ad9190612922565b610c08565b6040516103bf91906124c5565b60405180910390f35b606060035f8381526020019081526020015f205f0180546103e8906129b3565b80601f0160208091040260200160405190810160405280929190818152602001828054610414906129b3565b801561045f5780601f106104365761010080835404028352916020019161045f565b820191905f5260205f20905b81548152906001019060200180831161044257829003601f168201915b50505050509050919050565b5f805f8473ffffffffffffffffffffffffffffffffffffffff1673ffffffffffffffffffffffffffffffffffffffff1681526020019081526020015f205f8381526020019081526020015f2054905092915050565b5f7f0f632fb3000000000000000000000000000000000000000000000000000000007bffffffffffffffffffffffffffffffffffffffffffffffffffffffff1916827bffffffffffffffffffffffffffffffffffffffffffffffffffffffff19161480610532575061053182610c82565b5b9050919050565b5f61054d610545610ceb565b858585610cf2565b600190509392505050565b5f60035f8381526020019081526020015f206002015f9054906101000a900460ff169050919050565b5f61059561058d610ceb565b858585610de4565b600190509392505050565b606060035f8381526020019081526020015f2060010180546105c1906129b3565b80601f01602080910402602001604051908101604052809291908181526020018280546105ed906129b3565b80156106385780601f1061060f57610100808354040283529160200191610638565b820191905f5260205f20905b81548152906001019060200180831161061b57829003601f168201915b50505050509050919050565b5f610657610650610ceb565b8484610fbc565b6001905092915050565b5f60025f8573ffffffffffffffffffffffffffffffffffffffff1673ffffffffffffffffffffffffffffffffffffffff1681526020019081526020015f205f8473ffffffffffffffffffffffffffffffffffffffff1673ffffffffffffffffffffffffffffffffffffffff1681526020019081526020015f205f8381526020019081526020015f205490509392505050565b7f000000000000000000000000000000000000000000000000000000000000000073ffffffffffffffffffffffffffffffffffffffff16610732610ceb565b73ffffffffffffffffffffffffffffffffffffffff161461077f576040517f82c5ccc500000000000000000000000000000000000000000000000000000000815260040160405180910390fd5b5f825f1c90505f61078f83611195565b90505f8686866040516020016107a793929190612a03565b60405160208183030381529060405290506107c283826111fd565b610801836040518060400160405280600381526020017f434453000000000000000000000000000000000000000000000000000000000081525061125a565b61083f6040518060400160405280601481526020017f68747470733a2f2f6170692e6364732e636f6d2f0000000000000000000000008152506112b8565b61087e836040518060400160405280601481526020017f68747470733a2f2f6170692e6364732e636f6d2f0000000000000000000000008152506112f7565b5061088a878383611352565b61089687896001610fbc565b5f60075f9054906101000a900473ffffffffffffffffffffffffffffffffffffffff1673ffffffffffffffffffffffffffffffffffffffff16630a36360e848989886040518563ffffffff1660e01b81526004016108f79493929190612afe565b6020604051808303815f875af1158015610913573d5f803e3d5ffd5b505050506040513d601f19601f820116820180604052508101906109379190612b7c565b90505f7f000000000000000000000000000000000000000000000000000000000000000073ffffffffffffffffffffffffffffffffffffffff1663dbbf3db4308c30868960405160200161098b9190612412565b6040516020818303038152906040526040518663ffffffff1660e01b81526004016109ba959493929190612c08565b6020604051808303815f875af11580156109d6573d5f803e3d5ffd5b505050506040513d601f19601f820116820180604052508101906109fa9190612c74565b905050505050505050505050565b5f7f0000000000000000000000000000000000000000000000000000000000000000905090565b5f60015f8473ffffffffffffffffffffffffffffffffffffffff1673ffffffffffffffffffffffffffffffffffffffff1681526020019081526020015f205f8373ffffffffffffffffffffffffffffffffffffffff1673ffffffffffffffffffffffffffffffffffffffff1681526020019081526020015f205f9054906101000a900460ff16905092915050565b5f60065f8381526020019081526020015f20549050919050565b606060055f8381526020019081526020015f208054610af5906129b3565b80601f0160208091040260200160405190810160405280929190818152602001828054610b21906129b3565b8015610b6c5780601f10610b4357610100808354040283529160200191610b6c565b820191905f5260205f20905b815481529060010190602001808311610b4f57829003601f168201915b50505050509050919050565b606060048054610b87906129b3565b80601f0160208091040260200160405190810160405280929190818152602001828054610bb3906129b3565b8015610bfe5780601f10610bd557610100808354040283529160200191610bfe565b820191905f5260205f20905b815481529060010190602001808311610be157829003601f168201915b5050505050905090565b5f80610c12610ceb565b90508073ffffffffffffffffffffffffffffffffffffffff168673ffffffffffffffffffffffffffffffffffffffff1614158015610c575750610c558682610a2f565b155b15610c6957610c68868286866113d3565b5b610c7586868686610cf2565b6001915050949350505050565b5f7f01ffc9a7000000000000000000000000000000000000000000000000000000007bffffffffffffffffffffffffffffffffffffffffffffffffffffffff1916827bffffffffffffffffffffffffffffffffffffffffffffffffffffffff1916149050919050565b5f33905090565b5f73ffffffffffffffffffffffffffffffffffffffff168473ffffffffffffffffffffffffffffffffffffffff1603610d62575f6040517fa4352080000000000000000000000000000000000000000000000000000000008152600401610d599190612c9f565b60405180910390fd5b5f73ffffffffffffffffffffffffffffffffffffffff168373ffffffffffffffffffffffffffffffffffffffff1603610dd2575f6040517fb8bbd610000000000000000000000000000000000000000000000000000000008152600401610dc99190612c9f565b60405180910390fd5b610dde848484846114ea565b50505050565b5f73ffffffffffffffffffffffffffffffffffffffff168473ffffffffffffffffffffffffffffffffffffffff1603610e54575f6040517fcc766a98000000000000000000000000000000000000000000000000000000008152600401610e4b9190612c9f565b60405180910390fd5b5f73ffffffffffffffffffffffffffffffffffffffff168373ffffffffffffffffffffffffffffffffffffffff1603610ec4575f6040517f6f65f465000000000000000000000000000000000000000000000000000000008152600401610ebb9190612c9f565b60405180910390fd5b8060025f8673ffffffffffffffffffffffffffffffffffffffff1673ffffffffffffffffffffffffffffffffffffffff1681526020019081526020015f205f8573ffffffffffffffffffffffffffffffffffffffff1673ffffffffffffffffffffffffffffffffffffffff1681526020019081526020015f205f8481526020019081526020015f2081905550818373ffffffffffffffffffffffffffffffffffffffff168573ffffffffffffffffffffffffffffffffffffffff167fb3fd5071835887567a0671151121894ddccc2842f1d10bedad13e0d17cace9a784604051610fae9190612412565b60405180910390a450505050565b5f73ffffffffffffffffffffffffffffffffffffffff168373ffffffffffffffffffffffffffffffffffffffff160361102c575f6040517fcc766a980000000000000000000000000000000000000000000000000000000081526004016110239190612c9f565b60405180910390fd5b5f73ffffffffffffffffffffffffffffffffffffffff168273ffffffffffffffffffffffffffffffffffffffff160361109c575f6040517f6f65f4650000000000000000000000000000000000000000000000000000000081526004016110939190612c9f565b60405180910390fd5b8060015f8573ffffffffffffffffffffffffffffffffffffffff1673ffffffffffffffffffffffffffffffffffffffff1681526020019081526020015f205f8473ffffffffffffffffffffffffffffffffffffffff1673ffffffffffffffffffffffffffffffffffffffff1681526020019081526020015f205f6101000a81548160ff0219169083151502179055508173ffffffffffffffffffffffffffffffffffffffff168373ffffffffffffffffffffffffffffffffffffffff167fceb576d9f15e4e200fdb5096d64d5dfd667e16def20c1eefd14256d8e3faa2678360405161118891906124c5565b60405180910390a3505050565b5f806111a0836114fc565b90505f6111ac84611552565b90505f6111b8856115d9565b90505f6111c486611616565b90505f6111ee858385876111d89190612ce5565b6111e29190612ce5565b60ff16620f4240611653565b90508095505050505050919050565b8060035f8481526020019081526020015f205f01908161121d9190612e94565b50817f6846707b16f55a3623d38bf118700af63d0784698270a53ce28b116dbaa8b7948260405161124e919061234b565b60405180910390a25050565b8060035f8481526020019081526020015f20600101908161127b9190612e94565b50817f8fabcb7b4fbdde605303a7339bc80fb6956cd01a42e9cdf2d15d0f2fdd3b06fa826040516112ac919061234b565b60405180910390a25050565b80600490816112c79190612e94565b507fa5d4097edda6d87cb9329af83fb3712ef77eeb13738ffe43cc35a4ce305ad96260405160405180910390a150565b8060055f8481526020019081526020015f2090816113159190612e94565b50817f6bb7ff708619ba0610cba295a58592e0451dee2622938c8755667688daf3529b82604051611346919061234b565b60405180910390a25050565b5f73ffffffffffffffffffffffffffffffffffffffff168373ffffffffffffffffffffffffffffffffffffffff16036113c2575f6040517fb8bbd6100000000000000000000000000000000000000000000000000000000081526004016113b99190612c9f565b60405180910390fd5b6113ce5f8484846114ea565b505050565b5f6113df858585610661565b90507fffffffffffffffffffffffffffffffffffffffffffffffffffffffffffffffff8110156114e3578181101561145457838183856040517f58a3fd5a00000000000000000000000000000000000000000000000000000000815260040161144b9493929190612f63565b60405180910390fd5b81810360025f8773ffffffffffffffffffffffffffffffffffffffff1673ffffffffffffffffffffffffffffffffffffffff1681526020019081526020015f205f8673ffffffffffffffffffffffffffffffffffffffff1673ffffffffffffffffffffffffffffffffffffffff1681526020019081526020015f205f8581526020019081526020015f20819055505b5050505050565b6114f684848484611716565b50505050565b5f80825f015190505f805f80611511856117d5565b93509350935093505f6115238661184c565b90505f6103de826115349190612fa6565b6103e86115419190612fe7565b905080975050505050505050919050565b5f80826060015190505f805f8061156885611887565b93509350935093505f61159f86604051806080016040528060288152602001601e815260200160148152602001600a8152506118fe565b90505f60968260646115b1919061301a565b6115bb9190612fa6565b6113886115c89190612fe7565b905080975050505050505050919050565b5f80826020015190505f6115ec82611a7c565b90505f6028826115fc9190612fa6565b611f406116099190612fe7565b9050809350505050919050565b5f80826040015190505f61162982611a9e565b90505f6014826116399190612fa6565b6123286116469190612fe7565b9050809350505050919050565b5f8083850290505f801985870982811083820303915050808411611675575f80fd5b5f8103611688578382049250505061170f565b5f8486880990508281118203915080830392505f85865f0316905080860495508084049350600181825f0304019050808302841793505f600287600302189050808702600203810290508087026002038102905080870260020381029050808702600203810290508087026002038102905080870260020381029050808502955050505050505b9392505050565b61172284848484611ae0565b5f73ffffffffffffffffffffffffffffffffffffffff168473ffffffffffffffffffffffffffffffffffffffff160361177d578060065f8481526020019081526020015f205f8282546117759190612fe7565b925050819055505b5f73ffffffffffffffffffffffffffffffffffffffff168373ffffffffffffffffffffffffffffffffffffffff16036117cf578060065f8481526020019081526020015f205f82825403925050819055505b50505050565b5f805f805f859050600160086001901b6117ef919061301a565b5f82901c169450600160086001901b611808919061301a565b600882901c169350600160086001901b611822919061301a565b601082901c169250600160086001901b61183c919061301a565b601882901c169150509193509193565b5f806040518060800160405280601e815260200160198152602001601e8152602001600f815250905061187f8382611d10565b915050919050565b5f805f805f859050600160086001901b6118a1919061301a565b5f82901c169450600160086001901b6118ba919061301a565b600882901c169350600160086001901b6118d4919061301a565b601082901c169250600160086001901b6118ee919061301a565b601882901c169150509193509193565b5f805f805f61190c87611887565b93509350935093505f866003600481106119295761192861304d565b5b60200201518260ff1661193c9190612fa6565b876002600481106119505761194f61304d565b5b60200201518460ff166119639190612fa6565b886001600481106119775761197661304d565b5b60200201518660ff1661198a9190612fa6565b895f6004811061199d5761199c61304d565b5b60200201518860ff166119b09190612fa6565b6119ba9190612fe7565b6119c49190612fe7565b6119ce9190612fe7565b90505f876003600481106119e5576119e461304d565b5b6020020151886002600481106119fe576119fd61304d565b5b602002015189600160048110611a1757611a1661304d565b5b60200201518a5f60048110611a2f57611a2e61304d565b5b6020020151611a3e9190612fe7565b611a489190612fe7565b611a529190612fe7565b90505f8111611a61575f611a6e565b8082611a6d91906130a7565b5b965050505050505092915050565b5f80611a8783611e8e565b9050806064611a96919061301a565b915050919050565b5f806040518060a0016040528060148152602001601e815260200160198152602001600f8152602001600a8152509050611ad88382611f75565b915050919050565b5f611ae9610ceb565b90505f73ffffffffffffffffffffffffffffffffffffffff168573ffffffffffffffffffffffffffffffffffffffff1614611c0c575f805f8773ffffffffffffffffffffffffffffffffffffffff1673ffffffffffffffffffffffffffffffffffffffff1681526020019081526020015f205f8581526020019081526020015f2054905082811015611bb857858184866040517fb1b4fec0000000000000000000000000000000000000000000000000000000008152600401611baf9493929190612f63565b60405180910390fd5b8281035f808873ffffffffffffffffffffffffffffffffffffffff1673ffffffffffffffffffffffffffffffffffffffff1681526020019081526020015f205f8681526020019081526020015f2081905550505b5f73ffffffffffffffffffffffffffffffffffffffff168473ffffffffffffffffffffffffffffffffffffffff1614611ca157815f808673ffffffffffffffffffffffffffffffffffffffff1673ffffffffffffffffffffffffffffffffffffffff1681526020019081526020015f205f8581526020019081526020015f205f828254611c999190612fe7565b925050819055505b828473ffffffffffffffffffffffffffffffffffffffff168673ffffffffffffffffffffffffffffffffffffffff167f1b3d7edb2e9c0b0e7c525b20aaaef0f5940d2ed71663c7d39266ecafac7288598486604051611d019291906130d7565b60405180910390a45050505050565b5f805f805f611d1e876117d5565b93509350935093505f86600360048110611d3b57611d3a61304d565b5b60200201518260ff16611d4e9190612fa6565b87600260048110611d6257611d6161304d565b5b60200201518460ff16611d759190612fa6565b88600160048110611d8957611d8861304d565b5b60200201518660ff16611d9c9190612fa6565b895f60048110611daf57611dae61304d565b5b60200201518860ff16611dc29190612fa6565b611dcc9190612fe7565b611dd69190612fe7565b611de09190612fe7565b90505f87600360048110611df757611df661304d565b5b602002015188600260048110611e1057611e0f61304d565b5b602002015189600160048110611e2957611e2861304d565b5b60200201518a5f60048110611e4157611e4061304d565b5b6020020151611e509190612fe7565b611e5a9190612fe7565b611e649190612fe7565b90505f8111611e73575f611e80565b8082611e7f91906130a7565b5b965050505050505092915050565b5f805f805f611e9c8661214b565b93509350935093505f601960018560ff16611eb7919061301a565b611ec19190612fa6565b90505f601960018560ff16611ed6919061301a565b611ee09190612fa6565b90505f601960018560ff16611ef5919061301a565b611eff9190612fa6565b90505f601482611f0f9190612fa6565b601484611f1c9190612fa6565b601486611f299190612fa6565b60288b60ff16611f399190612fa6565b611f439190612fe7565b611f4d9190612fe7565b611f579190612fe7565b9050606481611f6691906130a7565b98505050505050505050919050565b5f805f805f80611f84886121c2565b945094509450945094505f87600460058110611fa357611fa261304d565b5b60200201518260ff16611fb69190612fa6565b88600360058110611fca57611fc961304d565b5b60200201518460ff16611fdd9190612fa6565b89600260058110611ff157611ff061304d565b5b60200201518660ff166120049190612fa6565b8a6001600581106120185761201761304d565b5b60200201518860ff1661202b9190612fa6565b8b5f6005811061203e5761203d61304d565b5b60200201518a60ff166120519190612fa6565b61205b9190612fe7565b6120659190612fe7565b61206f9190612fe7565b6120799190612fe7565b90505f886004600581106120905761208f61304d565b5b6020020151896003600581106120a9576120a861304d565b5b60200201518a6002600581106120c2576120c161304d565b5b60200201518b6001600581106120db576120da61304d565b5b60200201518c5f600581106120f3576120f261304d565b5b60200201516121029190612fe7565b61210c9190612fe7565b6121169190612fe7565b6121209190612fe7565b90505f811161212f575f61213c565b808261213b91906130a7565b5b97505050505050505092915050565b5f805f805f859050600160086001901b612165919061301a565b5f82901c169450600160036001901b61217e919061301a565b600882901c169350600160036001901b612198919061301a565b600b82901c169250600160036001901b6121b2919061301a565b600e82901c169150509193509193565b5f805f805f80869050600160086001901b6121dd919061301a565b5f82901c169550600160086001901b6121f6919061301a565b600882901c169450600160086001901b612210919061301a565b601082901c169350600160086001901b61222a919061301a565b601882901c169250600160086001901b612244919061301a565b602082901c1691505091939590929450565b5f604051905090565b5f80fd5b5f819050919050565b61227581612263565b811461227f575f80fd5b50565b5f813590506122908161226c565b92915050565b5f602082840312156122ab576122aa61225f565b5b5f6122b884828501612282565b91505092915050565b5f81519050919050565b5f82825260208201905092915050565b5f5b838110156122f85780820151818401526020810190506122dd565b5f8484015250505050565b5f601f19601f8301169050919050565b5f61231d826122c1565b61232781856122cb565b93506123378185602086016122db565b61234081612303565b840191505092915050565b5f6020820190508181035f8301526123638184612313565b905092915050565b5f73ffffffffffffffffffffffffffffffffffffffff82169050919050565b5f6123948261236b565b9050919050565b6123a48161238a565b81146123ae575f80fd5b50565b5f813590506123bf8161239b565b92915050565b5f80604083850312156123db576123da61225f565b5b5f6123e8858286016123b1565b92505060206123f985828601612282565b9150509250929050565b61240c81612263565b82525050565b5f6020820190506124255f830184612403565b92915050565b5f7fffffffff0000000000000000000000000000000000000000000000000000000082169050919050565b61245f8161242b565b8114612469575f80fd5b50565b5f8135905061247a81612456565b92915050565b5f602082840312156124955761249461225f565b5b5f6124a28482850161246c565b91505092915050565b5f8115159050919050565b6124bf816124ab565b82525050565b5f6020820190506124d85f8301846124b6565b92915050565b5f805f606084860312156124f5576124f461225f565b5b5f612502868287016123b1565b935050602061251386828701612282565b925050604061252486828701612282565b9150509250925092565b5f60ff82169050919050565b6125438161252e565b82525050565b5f60208201905061255c5f83018461253a565b92915050565b61256b816124ab565b8114612575575f80fd5b50565b5f8135905061258681612562565b92915050565b5f80604083850312156125a2576125a161225f565b5b5f6125af858286016123b1565b92505060206125c085828601612578565b9150509250929050565b5f805f606084860312156125e1576125e061225f565b5b5f6125ee868287016123b1565b93505060206125ff868287016123b1565b925050604061261086828701612282565b9150509250925092565b5f819050919050565b61262c8161261a565b8114612636575f80fd5b50565b5f8135905061264781612623565b92915050565b5f80fd5b7f4e487b71000000000000000000000000000000000000000000000000000000005f52604160045260245ffd5b61268782612303565b810181811067ffffffffffffffff821117156126a6576126a5612651565b5b80604052505050565b5f6126b8612256565b90506126c4828261267e565b919050565b6126d281612263565b81146126dc575f80fd5b50565b5f813590506126ed816126c9565b92915050565b6126fc81612263565b8114612706575f80fd5b50565b5f81359050612717816126f3565b92915050565b61272681612263565b8114612730575f80fd5b50565b5f813590506127418161271d565b92915050565b61275081612263565b811461275a575f80fd5b50565b5f8135905061276b81612747565b92915050565b5f608082840312156127865761278561264d565b5b61279060806126af565b90505f61279f848285016126df565b5f8301525060206127b284828501612709565b60208301525060406127c684828501612733565b60408301525060606127da8482850161275d565b60608301525092915050565b5f805f805f8061012087890312156128015761280061225f565b5b5f61280e89828a016123b1565b965050602061281f89828a016123b1565b955050604061283089828a01612639565b945050606061284189828a01612639565b935050608061285289828a01612639565b92505060a061286389828a01612771565b9150509295509295509295565b5f819050919050565b5f61289361288e6128898461236b565b612870565b61236b565b9050919050565b5f6128a482612879565b9050919050565b5f6128b58261289a565b9050919050565b6128c5816128ab565b82525050565b5f6020820190506128de5f8301846128bc565b92915050565b5f80604083850312156128fa576128f961225f565b5b5f612907858286016123b1565b9250506020612918858286016123b1565b9150509250929050565b5f805f806080858703121561293a5761293961225f565b5b5f612947878288016123b1565b9450506020612958878288016123b1565b935050604061296987828801612282565b925050606061297a87828801612282565b91505092959194509250565b7f4e487b71000000000000000000000000000000000000000000000000000000005f52602260045260245ffd5b5f60028204905060018216806129ca57607f821691505b6020821081036129dd576129dc612986565b5b50919050565b5f819050919050565b6129fd6129f88261261a565b6129e3565b82525050565b5f612a0e82866129ec565b602082019150612a1e82856129ec565b602082019150612a2e82846129ec565b602082019150819050949350505050565b612a488161261a565b82525050565b5f612a68612a63612a5e84612263565b612870565b612263565b9050919050565b612a7881612a4e565b82525050565b612a8781612a4e565b82525050565b612a9681612a4e565b82525050565b612aa581612a4e565b82525050565b608082015f820151612abf5f850182612a6f565b506020820151612ad26020850182612a7e565b506040820151612ae56040850182612a8d565b506060820151612af86060850182612a9c565b50505050565b5f60e082019050612b115f830187612403565b612b1e6020830186612a3f565b612b2b6040830185612a3f565b612b386060830184612aab565b95945050505050565b5f612b4b8261238a565b9050919050565b612b5b81612b41565b8114612b65575f80fd5b50565b5f81519050612b7681612b52565b92915050565b5f60208284031215612b9157612b9061225f565b5b5f612b9e84828501612b68565b91505092915050565b612bb08161238a565b82525050565b5f81519050919050565b5f82825260208201905092915050565b5f612bda82612bb6565b612be48185612bc0565b9350612bf48185602086016122db565b612bfd81612303565b840191505092915050565b5f60a082019050612c1b5f830188612ba7565b612c286020830187612ba7565b612c356040830186612ba7565b612c426060830185612ba7565b8181036080830152612c548184612bd0565b90509695505050505050565b5f81519050612c6e8161239b565b92915050565b5f60208284031215612c8957612c8861225f565b5b5f612c9684828501612c60565b91505092915050565b5f602082019050612cb25f830184612ba7565b92915050565b7f4e487b71000000000000000000000000000000000000000000000000000000005f52601160045260245ffd5b5f612cef8261252e565b9150612cfa8361252e565b9250828202612d088161252e565b9150808214612d1a57612d19612cb8565b5b5092915050565b5f819050815f5260205f209050919050565b5f6020601f8301049050919050565b5f82821b905092915050565b5f60088302612d7d7fffffffffffffffffffffffffffffffffffffffffffffffffffffffffffffffff82612d42565b612d878683612d42565b95508019841693508086168417925050509392505050565b5f819050919050565b612db183612a4e565b612dc5612dbd82612d9f565b848454612d4e565b825550505050565b5f90565b612dd9612dcd565b612de4818484612da8565b505050565b5b81811015612e0757612dfc5f82612dd1565b600181019050612dea565b5050565b601f821115612e4c57612e1d81612d21565b612e2684612d33565b81016020851015612e35578190505b612e49612e4185612d33565b830182612de9565b50505b505050565b5f82821c905092915050565b5f612e6c5f1984600802612e51565b1980831691505092915050565b5f612e848383612e5d565b9150826002028217905092915050565b612e9d826122c1565b67ffffffffffffffff811115612eb657612eb5612651565b5b612ec082546129b3565b612ecb828285612e0b565b5f60209050601f831160018114612efc575f8415612eea578287015190505b612ef48582612e79565b865550612f5b565b601f198416612f0a86612d21565b5f5b82811015612f3157848901518255600182019150602085019450602081019050612f0c565b86831015612f4e5784890151612f4a601f891682612e5d565b8355505b6001600288020188555050505b505050505050565b5f608082019050612f765f830187612ba7565b612f836020830186612403565b612f906040830185612403565b612f9d6060830184612403565b95945050505050565b5f612fb082612263565b9150612fbb83612263565b9250828202612fc981612263565b91508282048414831517612fe057612fdf612cb8565b5b5092915050565b5f612ff182612263565b9150612ffc83612263565b925082820190508082111561301457613013612cb8565b5b92915050565b5f61302482612263565b915061302f83612263565b925082820390508181111561304757613046612cb8565b5b92915050565b7f4e487b71000000000000000000000000000000000000000000000000000000005f52603260045260245ffd5b7f4e487b71000000000000000000000000000000000000000000000000000000005f52601260045260245ffd5b5f6130b182612263565b91506130bc83612263565b9250826130cc576130cb61307a565b5b828204905092915050565b5f6040820190506130ea5f830185612ba7565b6130f76020830184612403565b939250505056fea164736f6c6343000814000a","linkReferences":{}},"methodIdentifiers":{"CDS_IMPLEMENTATION()":"9c603a16","afterCreatePoolHook(address,address,address)":"8d5ef8d1","beforeCreatePoolHook(address,address,address,address,address,bytes)":"1d0338d9","createCDS(address,address,bytes32,bytes32,bytes32,(uint256,uint256,uint256,uint256))":"f5491ae8","createCustomPool(address,address,address,address,bytes)":"dbbf3db4","factory()":"c45a0155","getCDS(bytes32)":"4aaf50b8","getMerchantDataMediator()":"08cd91a6","isCDSDeployed(bytes32)":"043decc2","mentoStableCoinSelector()":"dbb4022e","merchantDataMediator()":"7726fcd8","predictCDSAddress(bytes32,address)":"f2810caf","setFee(address,uint16)":"337f3a31","setMerchantDataMediator(address)":"ad770be3","setPlugin(address,address)":"f9f4c09a","setPluginConfig(address,uint8)":"054bee3d","setTickSpacing(address,int24)":"4bf092cd"},"id":110}