{"abi":[{"type":"function","name":"createCDS","inputs":[{"name":"creditAssesmentId","type":"bytes32","internalType":"bytes32"},{"name":"metrics","type":"tuple","internalType":"struct Metrics","components":[{"name":"financialHealth","type":"uint256","internalType":"FinancialHealth"},{"name":"marketRisk","type":"uint256","internalType":"MarketRisk"},{"name":"businessFundamentals","type":"uint256","internalType":"BusinessFundamentals"},{"name":"creditRisk","type":"uint256","internalType":"CreditRisk"}]}],"outputs":[{"name":"","type":"address","internalType":"contract ICDS"}],"stateMutability":"nonpayable"}],"bytecode":{"object":"0x6080604052348015600e575f5ffd5b506103348061001c5f395ff3fe608060405234801561000f575f5ffd5b5060043610610029575f3560e01c80636f7ed1d71461002d575b5f5ffd5b61004760048036038101906100429190610256565b61005d565b604051610054919061030e565b60405180910390f35b5f92915050565b5f604051905090565b5f5ffd5b5f819050919050565b61008381610071565b811461008d575f5ffd5b50565b5f8135905061009e8161007a565b92915050565b5f5ffd5b5f601f19601f8301169050919050565b7f4e487b71000000000000000000000000000000000000000000000000000000005f52604160045260245ffd5b6100ee826100a8565b810181811067ffffffffffffffff8211171561010d5761010c6100b8565b5b80604052505050565b5f61011f610064565b905061012b82826100e5565b919050565b5f819050919050565b61014281610130565b811461014c575f5ffd5b50565b5f8135905061015d81610139565b92915050565b61016c81610130565b8114610176575f5ffd5b50565b5f8135905061018781610163565b92915050565b61019681610130565b81146101a0575f5ffd5b50565b5f813590506101b18161018d565b92915050565b6101c081610130565b81146101ca575f5ffd5b50565b5f813590506101db816101b7565b92915050565b5f608082840312156101f6576101f56100a4565b5b6102006080610116565b90505f61020f8482850161014f565b5f83015250602061022284828501610179565b6020830152506040610236848285016101a3565b604083015250606061024a848285016101cd565b60608301525092915050565b5f5f60a0838503121561026c5761026b61006d565b5b5f61027985828601610090565b925050602061028a858286016101e1565b9150509250929050565b5f73ffffffffffffffffffffffffffffffffffffffff82169050919050565b5f819050919050565b5f6102d66102d16102cc84610294565b6102b3565b610294565b9050919050565b5f6102e7826102bc565b9050919050565b5f6102f8826102dd565b9050919050565b610308816102ee565b82525050565b5f6020820190506103215f8301846102ff565b9291505056fea164736f6c634300081c000a","linkReferences":{}},"methodIdentifiers":{"createCDS(bytes32,(uint256,uint256,uint256,uint256))":"6f7ed1d7"},"id":15}