{"abi":[{"type":"constructor","inputs":[{"name":"_cdsFactory","type":"address","internalType":"contract ICDSFactory"},{"name":"_collateralFilter","type":"address","internalType":"contract ICollateralFilter"}],"stateMutability":"nonpayable"},{"type":"function","name":"ALGEBRA_CUSTOM_PLUGIN_ADMINISTRATOR","inputs":[],"outputs":[{"name":"","type":"bytes32","internalType":"bytes32"}],"stateMutability":"view"},{"type":"function","name":"afterCreatePoolHook","inputs":[{"name":"","type":"address","internalType":"address"},{"name":"","type":"address","internalType":"address"},{"name":"","type":"address","internalType":"address"}],"outputs":[],"stateMutability":"view"},{"type":"function","name":"algebraFactory","inputs":[],"outputs":[{"name":"","type":"address","internalType":"address"}],"stateMutability":"view"},{"type":"function","name":"beforeCreatePoolHook","inputs":[{"name":"pool","type":"address","internalType":"address"},{"name":"","type":"address","internalType":"address"},{"name":"","type":"address","internalType":"address"},{"name":"","type":"address","internalType":"address"},{"name":"","type":"address","internalType":"address"},{"name":"","type":"bytes","internalType":"bytes"}],"outputs":[{"name":"","type":"address","internalType":"address"}],"stateMutability":"nonpayable"},{"type":"function","name":"cdsFactory","inputs":[],"outputs":[{"name":"","type":"address","internalType":"contract ICDSFactory"}],"stateMutability":"view"},{"type":"function","name":"collateralFilter","inputs":[],"outputs":[{"name":"","type":"address","internalType":"contract ICollateralFilter"}],"stateMutability":"view"},{"type":"function","name":"createCustomPool","inputs":[{"name":"creator","type":"address","internalType":"address"},{"name":"tokenA","type":"address","internalType":"address"},{"name":"tokenB","type":"address","internalType":"address"},{"name":"data","type":"bytes","internalType":"bytes"}],"outputs":[{"name":"customPool","type":"address","internalType":"address"}],"stateMutability":"nonpayable"},{"type":"function","name":"defaultFeeConfiguration","inputs":[],"outputs":[{"name":"alpha1","type":"uint16","internalType":"uint16"},{"name":"alpha2","type":"uint16","internalType":"uint16"},{"name":"beta1","type":"uint32","internalType":"uint32"},{"name":"beta2","type":"uint32","internalType":"uint32"},{"name":"gamma1","type":"uint16","internalType":"uint16"},{"name":"gamma2","type":"uint16","internalType":"uint16"},{"name":"baseFee","type":"uint16","internalType":"uint16"}],"stateMutability":"view"},{"type":"function","name":"entryPoint","inputs":[],"outputs":[{"name":"","type":"address","internalType":"address"}],"stateMutability":"view"},{"type":"function","name":"farmingAddress","inputs":[],"outputs":[{"name":"","type":"address","internalType":"address"}],"stateMutability":"view"},{"type":"function","name":"getBusinessCountryById","inputs":[{"name":"businessId","type":"bytes32","internalType":"bytes32"}],"outputs":[{"name":"","type":"bytes32","internalType":"bytes32"}],"stateMutability":"view"},{"type":"function","name":"getCreditAssesmentCollateral","inputs":[{"name":"businessId","type":"bytes32","internalType":"bytes32"},{"name":"countryHash","type":"bytes32","internalType":"bytes32"},{"name":"creditAssesmentId","type":"bytes32","internalType":"bytes32"}],"outputs":[{"name":"collateral","type":"tuple","internalType":"struct Collateral","components":[{"name":"currency","type":"address","internalType":"Currency"},{"name":"collateralType","type":"uint8","internalType":"enum CollateralType"}]}],"stateMutability":"view"},{"type":"function","name":"getCreditAssesmentMetrics","inputs":[{"name":"businessId","type":"bytes32","internalType":"bytes32"},{"name":"countryHash","type":"bytes32","internalType":"bytes32"},{"name":"creditAssesmentId","type":"bytes32","internalType":"bytes32"}],"outputs":[{"name":"metrics","type":"tuple","internalType":"struct Metrics","components":[{"name":"financialHealth","type":"uint256","internalType":"FinancialHealth"},{"name":"marketRisk","type":"uint256","internalType":"MarketRisk"},{"name":"businessFundamentals","type":"uint256","internalType":"BusinessFundamentals"},{"name":"creditRisk","type":"uint256","internalType":"CreditRisk"}]}],"stateMutability":"view"},{"type":"function","name":"getTotalCountries","inputs":[],"outputs":[{"name":"","type":"uint256","internalType":"uint256"}],"stateMutability":"view"},{"type":"function","name":"onUserDataHook","inputs":[{"name":"userData","type":"bytes","internalType":"bytes"}],"outputs":[],"stateMutability":"nonpayable"},{"type":"function","name":"pluginByPool","inputs":[{"name":"poolAddress","type":"address","internalType":"address"}],"outputs":[{"name":"pluginAddress","type":"address","internalType":"address"}],"stateMutability":"view"},{"type":"function","name":"setDefaultFeeConfiguration","inputs":[{"name":"newConfig","type":"tuple","internalType":"struct AlgebraFeeConfiguration","components":[{"name":"alpha1","type":"uint16","internalType":"uint16"},{"name":"alpha2","type":"uint16","internalType":"uint16"},{"name":"beta1","type":"uint32","internalType":"uint32"},{"name":"beta2","type":"uint32","internalType":"uint32"},{"name":"gamma1","type":"uint16","internalType":"uint16"},{"name":"gamma2","type":"uint16","internalType":"uint16"},{"name":"baseFee","type":"uint16","internalType":"uint16"}]}],"outputs":[],"stateMutability":"nonpayable"},{"type":"function","name":"setFarmingAddress","inputs":[{"name":"newFarmingAddress","type":"address","internalType":"address"}],"outputs":[],"stateMutability":"nonpayable"},{"type":"event","name":"DefaultFeeConfiguration","inputs":[{"name":"newConfig","type":"tuple","indexed":false,"internalType":"struct AlgebraFeeConfiguration","components":[{"name":"alpha1","type":"uint16","internalType":"uint16"},{"name":"alpha2","type":"uint16","internalType":"uint16"},{"name":"beta1","type":"uint32","internalType":"uint32"},{"name":"beta2","type":"uint32","internalType":"uint32"},{"name":"gamma1","type":"uint16","internalType":"uint16"},{"name":"gamma2","type":"uint16","internalType":"uint16"},{"name":"baseFee","type":"uint16","internalType":"uint16"}]}],"anonymous":false},{"type":"event","name":"FarmingAddress","inputs":[{"name":"newFarmingAddress","type":"address","indexed":false,"internalType":"address"}],"anonymous":false}],"bytecode":{"object":"0x61010060405234801562000011575f80fd5b506040516200b45e3803806200b45e833981810160405281019062000037919062000416565b8173ffffffffffffffffffffffffffffffffffffffff1663c45a01556040518163ffffffff1660e01b8152600401602060405180830381865afa15801562000081573d5f803e3d5ffd5b505050506040513d601f19601f82011682018060405250810190620000a791906200048a565b828073ffffffffffffffffffffffffffffffffffffffff1660a08173ffffffffffffffffffffffffffffffffffffffff16815250508173ffffffffffffffffffffffffffffffffffffffff1660808173ffffffffffffffffffffffffffffffffffffffff1681525050620001206200028a60201b60201c565b5f80820151815f015f6101000a81548161ffff021916908361ffff1602179055506020820151815f0160026101000a81548161ffff021916908361ffff1602179055506040820151815f0160046101000a81548163ffffffff021916908363ffffffff1602179055506060820151815f0160086101000a81548163ffffffff021916908363ffffffff1602179055506080820151815f01600c6101000a81548161ffff021916908361ffff16021790555060a0820151815f01600e6101000a81548161ffff021916908361ffff16021790555060c0820151815f0160106101000a81548161ffff021916908361ffff16021790555090505050508173ffffffffffffffffffffffffffffffffffffffff1660c08173ffffffffffffffffffffffffffffffffffffffff16815250508073ffffffffffffffffffffffffffffffffffffffff1660e08173ffffffffffffffffffffffffffffffffffffffff1681525050505062000530565b6200029462000306565b6040518060e001604052806064610bb8620002b09190620004f4565b61ffff168152602001612ee061ffff16815260200161016863ffffffff16815260200161ea6063ffffffff168152602001603b61ffff16815260200161213461ffff168152602001606461ffff16815250905090565b6040518060e001604052805f61ffff1681526020015f61ffff1681526020015f63ffffffff1681526020015f63ffffffff1681526020015f61ffff1681526020015f61ffff1681526020015f61ffff1681525090565b5f80fd5b5f73ffffffffffffffffffffffffffffffffffffffff82169050919050565b5f6200038b8262000360565b9050919050565b5f6200039e826200037f565b9050919050565b620003b08162000392565b8114620003bb575f80fd5b50565b5f81519050620003ce81620003a5565b92915050565b5f620003e0826200037f565b9050919050565b620003f281620003d4565b8114620003fd575f80fd5b50565b5f815190506200041081620003e7565b92915050565b5f80604083850312156200042f576200042e6200035c565b5b5f6200043e85828601620003be565b9250506020620004518582860162000400565b9150509250929050565b62000466816200037f565b811462000471575f80fd5b50565b5f8151905062000484816200045b565b92915050565b5f60208284031215620004a257620004a16200035c565b5b5f620004b18482850162000474565b91505092915050565b5f61ffff82169050919050565b7f4e487b71000000000000000000000000000000000000000000000000000000005f52601160045260245ffd5b5f6200050082620004ba565b91506200050d83620004ba565b9250828203905061ffff8111156200052a5762000529620004c7565b5b92915050565b60805160a05160c05160e05161aec9620005955f395f61042801525f81816108410152610afc01525f818161044d0152818161070c015281816107e40152610a7101525f81816108650152818161089b01528181610eb801526110f5015261aec95ff3fe608060405234801562000010575f80fd5b50600436106200012e575f3560e01c80638d5ef8d111620000af578063b001f6181162000079578063b001f6181462000354578063b0d691fe1462000374578063cdef16f61462000396578063f47e8efa14620003cc578063f718949a14620003ec576200012e565b80638d5ef8d114620002ce578063979ebba814620002ee578063a7b64b041462000310578063acf754581462000332576200012e565b80633ba49edd11620000fd5780633ba49edd14620001f65780634d5abbc2146200022c5780634e09a96a146200024e578063819dbd8914620002765780638a2ade5814620002ac576200012e565b806303afc66b1462000132578063060358b114620001685780631d0338d9146200018a57806333221c0014620001c0575b5f80fd5b6200015060048036038101906200014a919062001c97565b6200040c565b6040516200015f919062001cd8565b60405180910390f35b6200017262000426565b60405162000181919062001d79565b60405180910390f35b620001a86004803603810190620001a2919062001e40565b6200044a565b604051620001b7919062001f0d565b60405180910390f35b620001de6004803603810190620001d8919062001f28565b620004bb565b604051620001ed919062002052565b60405180910390f35b6200021460048036038101906200020e919062001f28565b62000589565b6040516200022391906200213c565b60405180910390f35b6200023662000658565b60405162000245919062001cd8565b60405180910390f35b620002586200067c565b6040516200026d979695949392919062002195565b60405180910390f35b6200029460048036038101906200028e919062002210565b62000709565b604051620002a3919062001f0d565b60405180910390f35b620002b6620007bd565b604051620002c5919062001f0d565b60405180910390f35b620002ec6004803603810190620002e69190620022a2565b620007e2565b005b620002f86200083f565b6040516200030791906200231f565b60405180910390f35b6200031a62000863565b60405162000329919062001f0d565b60405180910390f35b6200033c62000887565b6040516200034b91906200234b565b60405180910390f35b6200037260048036038101906200036c919062002366565b62000899565b005b6200037e62000a6f565b6040516200038d919062001f0d565b60405180910390f35b620003b46004803603810190620003ae919062002366565b62000a93565b604051620003c3919062001f0d565b60405180910390f35b620003ea6004803603810190620003e49190620024ea565b62000ac3565b005b6200040a60048036038101906200040491906200255e565b62000eb6565b005b5f60035f8381526020019081526020015f20549050919050565b7f000000000000000000000000000000000000000000000000000000000000000081565b5f7f000000000000000000000000000000000000000000000000000000000000000073ffffffffffffffffffffffffffffffffffffffff163373ffffffffffffffffffffffffffffffffffffffff1614620004a3575f80fd5b620004ae8862001023565b9050979650505050505050565b620004c562001bcb565b60075f8481526020019081526020015f205f8581526020019081526020015f205f9054906101000a900473ffffffffffffffffffffffffffffffffffffffff1673ffffffffffffffffffffffffffffffffffffffff1663e80db82a836040518263ffffffff1660e01b81526004016200053f919062001cd8565b6040805180830381865afa1580156200055a573d5f803e3d5ffd5b505050506040513d601f19601f820116820180604052508101906200058091906200263d565b90509392505050565b6200059362001c0e565b60075f8481526020019081526020015f205f8581526020019081526020015f205f9054906101000a900473ffffffffffffffffffffffffffffffffffffffff1673ffffffffffffffffffffffffffffffffffffffff1663e55d11d4836040518263ffffffff1660e01b81526004016200060d919062001cd8565b608060405180830381865afa15801562000629573d5f803e3d5ffd5b505050506040513d601f19601f820116820180604052508101906200064f9190620027ab565b90509392505050565b7fec8a6a270764e689b16a3725273ca1320d3efc3216fef95d3308f506fad489cf81565b5f805f015f9054906101000a900461ffff1690805f0160029054906101000a900461ffff1690805f0160049054906101000a900463ffffffff1690805f0160089054906101000a900463ffffffff1690805f01600c9054906101000a900461ffff1690805f01600e9054906101000a900461ffff1690805f0160109054906101000a900461ffff16905087565b5f7f000000000000000000000000000000000000000000000000000000000000000073ffffffffffffffffffffffffffffffffffffffff1663dbbf3db43088888888886040518763ffffffff1660e01b81526004016200076f969594939291906200281d565b6020604051808303815f875af11580156200078c573d5f803e3d5ffd5b505050506040513d601f19601f82011682018060405250810190620007b2919062002897565b905095945050505050565b60015f9054906101000a900473ffffffffffffffffffffffffffffffffffffffff1681565b7f000000000000000000000000000000000000000000000000000000000000000073ffffffffffffffffffffffffffffffffffffffff163373ffffffffffffffffffffffffffffffffffffffff16146200083a575f80fd5b505050565b7f000000000000000000000000000000000000000000000000000000000000000081565b7f000000000000000000000000000000000000000000000000000000000000000081565b5f620008946004620011d4565b905090565b7f000000000000000000000000000000000000000000000000000000000000000073ffffffffffffffffffffffffffffffffffffffff1663e8ae2b697fec8a6a270764e689b16a3725273ca1320d3efc3216fef95d3308f506fad489cf336040518363ffffffff1660e01b815260040162000916929190620028c7565b602060405180830381865afa15801562000932573d5f803e3d5ffd5b505050506040513d601f19601f820116820180604052508101906200095891906200292c565b6200099a576040517f08c379a00000000000000000000000000000000000000000000000000000000081526004016200099190620029ba565b60405180910390fd5b8073ffffffffffffffffffffffffffffffffffffffff1660015f9054906101000a900473ffffffffffffffffffffffffffffffffffffffff1673ffffffffffffffffffffffffffffffffffffffff1603620009f3575f80fd5b8060015f6101000a81548173ffffffffffffffffffffffffffffffffffffffff021916908373ffffffffffffffffffffffffffffffffffffffff1602179055507f56b9e8342f530796ceed0d5529abdcdeae6e4f2ac1dc456ceb73bbda898e0cd38160405162000a64919062001f0d565b60405180910390a150565b7f000000000000000000000000000000000000000000000000000000000000000081565b6002602052805f5260405f205f915054906101000a900473ffffffffffffffffffffffffffffffffffffffff1681565b5f8180602001905181019062000ada919062002c87565b90505f808260a001518360c00151915091505f62000af884620011e9565b90507f000000000000000000000000000000000000000000000000000000000000000073ffffffffffffffffffffffffffffffffffffffff1663f5491ae88484875f015188602001518960400151876040518763ffffffff1660e01b815260040162000b6a9695949392919062002cb8565b6020604051808303815f875af115801562000b87573d5f803e3d5ffd5b505050506040513d601f19601f8201168201806040525081019062000bad919062002d66565b505f845f0151856020015160405160200162000bcb92919062002d96565b60405160208183030381529060405290505f6040518060200162000bef9062001c32565b6020820181038252601f19601f820116604052508260405160200162000c1792919062002e35565b60405160208183030381529060405290505f62000c3d5f848051906020012084620012a4565b90508060075f896020015181526020019081526020015f205f895f015181526020019081526020015f205f6101000a81548173ffffffffffffffffffffffffffffffffffffffff021916908373ffffffffffffffffffffffffffffffffffffffff160217905550866020015160035f895f015181526020019081526020015f208190555062000ce08760200151885f01516004620013b49092919063ffffffff16565b5060075f886020015181526020019081526020015f205f885f015181526020019081526020015f205f9054906101000a900473ffffffffffffffffffffffffffffffffffffffff1673ffffffffffffffffffffffffffffffffffffffff166399b6fc0d886040015160405180604001604052808b6060015173ffffffffffffffffffffffffffffffffffffffff1681526020018b6080015160ff16600481111562000d905762000d8f62001fa5565b5b600481111562000da55762000da462001fa5565b5b8152506040518363ffffffff1660e01b815260040162000dc792919062002e5c565b5f604051808303815f87803b15801562000ddf575f80fd5b505af115801562000df2573d5f803e3d5ffd5b5050505060075f886020015181526020019081526020015f205f885f015181526020019081526020015f205f9054906101000a900473ffffffffffffffffffffffffffffffffffffffff1673ffffffffffffffffffffffffffffffffffffffff16637ea77f7a8860400151866040518363ffffffff1660e01b815260040162000e7d92919062002e87565b5f604051808303815f87803b15801562000e95575f80fd5b505af115801562000ea8573d5f803e3d5ffd5b505050505050505050505050565b7f000000000000000000000000000000000000000000000000000000000000000073ffffffffffffffffffffffffffffffffffffffff1663e8ae2b697fec8a6a270764e689b16a3725273ca1320d3efc3216fef95d3308f506fad489cf336040518363ffffffff1660e01b815260040162000f33929190620028c7565b602060405180830381865afa15801562000f4f573d5f803e3d5ffd5b505050506040513d601f19601f8201168201806040525081019062000f7591906200292c565b62000fb7576040517f08c379a000000000000000000000000000000000000000000000000000000000815260040162000fae90620029ba565b60405180910390fd5b62000fd48180360381019062000fce919062002fd4565b620013ed565b805f818162000fe4919062003442565b9050507fe04232512a5cb82c08e0f9b1f51432930cd7a0b7ea9f9f916f080cb0b4ac644b8160405162001018919062003584565b60405180910390a150565b5f8073ffffffffffffffffffffffffffffffffffffffff1660025f8473ffffffffffffffffffffffffffffffffffffffff1673ffffffffffffffffffffffffffffffffffffffff1681526020019081526020015f205f9054906101000a900473ffffffffffffffffffffffffffffffffffffffff1673ffffffffffffffffffffffffffffffffffffffff1614620010f1576040517f08c379a0000000000000000000000000000000000000000000000000000000008152600401620010e890620035ed565b60405180910390fd5b5f827f0000000000000000000000000000000000000000000000000000000000000000305f604051620011249062001c40565b62001133949392919062003814565b604051809103905ff0801580156200114d573d5f803e3d5ffd5b5090508060025f8573ffffffffffffffffffffffffffffffffffffffff1673ffffffffffffffffffffffffffffffffffffffff1681526020019081526020015f205f6101000a81548173ffffffffffffffffffffffffffffffffffffffff021916908373ffffffffffffffffffffffffffffffffffffffff16021790555080915050919050565b5f620011e2825f01620014ce565b9050919050565b620011f362001c0e565b604051806080016040528062001220846102000151856102200151866102400151876102600151620014e3565b815260200162001247846102800151856102a00151866102c00151876102e0015162001650565b815260200162001274846101600151856101800151866101a00151876101c00151886101e00151620017e7565b81526020016200129a8460e00151856101000151866101200151876101400151620019ad565b8152509050919050565b5f83471015620012eb576040517f08c379a0000000000000000000000000000000000000000000000000000000008152600401620012e290620038ae565b60405180910390fd5b5f82510362001331576040517f08c379a000000000000000000000000000000000000000000000000000000000815260040162001328906200391c565b60405180910390fd5b8282516020840186f590505f73ffffffffffffffffffffffffffffffffffffffff168173ffffffffffffffffffffffffffffffffffffffff1603620013ad576040517f08c379a0000000000000000000000000000000000000000000000000000000008152600401620013a4906200398a565b60405180910390fd5b9392505050565b5f81846002015f8581526020019081526020015f2081905550620013e483855f0162001b1a90919063ffffffff16565b90509392505050565b61ffff80168160c0015161ffff16826020015161ffff16835f015161ffff16620014189190620039d7565b620014249190620039d7565b111562001468576040517f08c379a00000000000000000000000000000000000000000000000000000000081526004016200145f9062003a5f565b60405180910390fd5b5f816080015161ffff16141580156200148957505f8160a0015161ffff1614155b620014cb576040517f08c379a0000000000000000000000000000000000000000000000000000000008152600401620014c29062003acd565b60405180910390fd5b50565b5f620014dc825f0162001b31565b9050919050565b5f808560ff1690505f8560ff1690505f8560ff1690505f8560ff169050606484111562001547576040517f08c379a00000000000000000000000000000000000000000000000000000000081526004016200153e9062003b3b565b60405180910390fd5b60648311156200158e576040517f08c379a0000000000000000000000000000000000000000000000000000000008152600401620015859062003ba9565b60405180910390fd5b6064821115620015d5576040517f08c379a0000000000000000000000000000000000000000000000000000000008152600401620015cc9062003c17565b60405180910390fd5b60648111156200161c576040517f08c379a0000000000000000000000000000000000000000000000000000000008152600401620016139062003c85565b60405180910390fd5b5f8085901b81179050600884901b81179050601083901b81179050601882901b811790508095505050505050949350505050565b5f808560ff1690505f8560ff1690505f8560ff1690505f8560ff1690506064841115620016b4576040517f08c379a0000000000000000000000000000000000000000000000000000000008152600401620016ab9062003cf3565b60405180910390fd5b60018310158015620016c7575060058311155b62001709576040517f08c379a0000000000000000000000000000000000000000000000000000000008152600401620017009062003d87565b60405180910390fd5b600182101580156200171c575060058211155b6200175e576040517f08c379a0000000000000000000000000000000000000000000000000000000008152600401620017559062003e1b565b60405180910390fd5b6001811015801562001771575060058111155b620017b3576040517f08c379a0000000000000000000000000000000000000000000000000000000008152600401620017aa9062003e89565b60405180910390fd5b5f8085901b81179050600884901b81179050600b83901b81179050600e82901b811790508095505050505050949350505050565b5f808660ff1690505f8660ff1690505f8660ff1690505f8660ff1690505f8660ff169050606485111562001852576040517f08c379a0000000000000000000000000000000000000000000000000000000008152600401620018499062003ef7565b60405180910390fd5b606484111562001899576040517f08c379a0000000000000000000000000000000000000000000000000000000008152600401620018909062003f8b565b60405180910390fd5b6064831115620018e0576040517f08c379a0000000000000000000000000000000000000000000000000000000008152600401620018d7906200401f565b60405180910390fd5b606482111562001927576040517f08c379a00000000000000000000000000000000000000000000000000000000081526004016200191e906200408d565b60405180910390fd5b60648111156200196e576040517f08c379a0000000000000000000000000000000000000000000000000000000008152600401620019659062004121565b60405180910390fd5b5f8086901b81179050600885901b81179050601084901b81179050601883901b81179050602082901b8117905080965050505050505095945050505050565b5f808560ff1690505f8560ff1690505f8560ff1690505f8560ff169050606484111562001a11576040517f08c379a000000000000000000000000000000000000000000000000000000000815260040162001a08906200418f565b60405180910390fd5b606483111562001a58576040517f08c379a000000000000000000000000000000000000000000000000000000000815260040162001a4f90620041fd565b60405180910390fd5b606482111562001a9f576040517f08c379a000000000000000000000000000000000000000000000000000000000815260040162001a96906200426b565b60405180910390fd5b606481111562001ae6576040517f08c379a000000000000000000000000000000000000000000000000000000000815260040162001add90620042d9565b60405180910390fd5b5f8085901b81179050600884901b81179050601083901b81179050601882901b811790508095505050505050949350505050565b5f62001b29835f018362001b40565b905092915050565b5f815f01805490509050919050565b5f62001b4d838362001bab565b62001ba157825f0182908060018154018082558091505060019003905f5260205f20015f9091909190915055825f0180549050836001015f8481526020019081526020015f20819055506001905062001ba5565b5f90505b92915050565b5f80836001015f8481526020019081526020015f20541415905092915050565b60405180604001604052805f73ffffffffffffffffffffffffffffffffffffffff1681526020015f600481111562001c085762001c0762001fa5565b5b81525090565b60405180608001604052805f81526020015f81526020015f81526020015f81525090565b6109fe80620042fa83390190565b6161d18062004cf883390190565b5f604051905090565b5f80fd5b5f80fd5b5f819050919050565b62001c738162001c5f565b811462001c7e575f80fd5b50565b5f8135905062001c918162001c68565b92915050565b5f6020828403121562001caf5762001cae62001c57565b5b5f62001cbe8482850162001c81565b91505092915050565b62001cd28162001c5f565b82525050565b5f60208201905062001ced5f83018462001cc7565b92915050565b5f73ffffffffffffffffffffffffffffffffffffffff82169050919050565b5f819050919050565b5f62001d3b62001d3562001d2f8462001cf3565b62001d12565b62001cf3565b9050919050565b5f62001d4e8262001d1b565b9050919050565b5f62001d618262001d42565b9050919050565b62001d738162001d55565b82525050565b5f60208201905062001d8e5f83018462001d68565b92915050565b5f62001da08262001cf3565b9050919050565b62001db28162001d94565b811462001dbd575f80fd5b50565b5f8135905062001dd08162001da7565b92915050565b5f80fd5b5f80fd5b5f80fd5b5f8083601f84011262001dfa5762001df962001dd6565b5b8235905067ffffffffffffffff81111562001e1a5762001e1962001dda565b5b60208301915083600182028301111562001e395762001e3862001dde565b5b9250929050565b5f805f805f805f60c0888a03121562001e5e5762001e5d62001c57565b5b5f62001e6d8a828b0162001dc0565b975050602062001e808a828b0162001dc0565b965050604062001e938a828b0162001dc0565b955050606062001ea68a828b0162001dc0565b945050608062001eb98a828b0162001dc0565b93505060a088013567ffffffffffffffff81111562001edd5762001edc62001c5b565b5b62001eeb8a828b0162001de2565b925092505092959891949750929550565b62001f078162001d94565b82525050565b5f60208201905062001f225f83018462001efc565b92915050565b5f805f6060848603121562001f425762001f4162001c57565b5b5f62001f518682870162001c81565b935050602062001f648682870162001c81565b925050604062001f778682870162001c81565b9150509250925092565b5f62001f8d8262001d42565b9050919050565b62001f9f8162001f81565b82525050565b7f4e487b71000000000000000000000000000000000000000000000000000000005f52602160045260245ffd5b6005811062001fe65762001fe562001fa5565b5b50565b5f81905062001ff88262001fd2565b919050565b5f620020098262001fe9565b9050919050565b6200201b8162001ffd565b82525050565b604082015f820151620020375f85018262001f94565b5060208201516200204c602085018262002010565b50505050565b5f604082019050620020675f83018462002021565b92915050565b5f819050919050565b5f62002096620020906200208a846200206d565b62001d12565b6200206d565b9050919050565b620020a88162002076565b82525050565b620020b98162002076565b82525050565b620020ca8162002076565b82525050565b620020db8162002076565b82525050565b608082015f820151620020f75f8501826200209d565b5060208201516200210c6020850182620020ae565b506040820151620021216040850182620020bf565b506060820151620021366060850182620020d0565b50505050565b5f608082019050620021515f830184620020e1565b92915050565b5f61ffff82169050919050565b6200216f8162002157565b82525050565b5f63ffffffff82169050919050565b6200218f8162002175565b82525050565b5f60e082019050620021aa5f83018a62002164565b620021b9602083018962002164565b620021c8604083018862002184565b620021d7606083018762002184565b620021e6608083018662002164565b620021f560a083018562002164565b6200220460c083018462002164565b98975050505050505050565b5f805f805f608086880312156200222c576200222b62001c57565b5b5f6200223b8882890162001dc0565b95505060206200224e8882890162001dc0565b9450506040620022618882890162001dc0565b935050606086013567ffffffffffffffff81111562002285576200228462001c5b565b5b620022938882890162001de2565b92509250509295509295909350565b5f805f60608486031215620022bc57620022bb62001c57565b5b5f620022cb8682870162001dc0565b9350506020620022de8682870162001dc0565b9250506040620022f18682870162001dc0565b9150509250925092565b5f620023078262001d42565b9050919050565b6200231981620022fb565b82525050565b5f602082019050620023345f8301846200230e565b92915050565b62002345816200206d565b82525050565b5f602082019050620023605f8301846200233a565b92915050565b5f602082840312156200237e576200237d62001c57565b5b5f6200238d8482850162001dc0565b91505092915050565b5f80fd5b5f601f19601f8301169050919050565b7f4e487b71000000000000000000000000000000000000000000000000000000005f52604160045260245ffd5b620023e2826200239a565b810181811067ffffffffffffffff82111715620024045762002403620023aa565b5b80604052505050565b5f6200241862001c4e565b9050620024268282620023d7565b919050565b5f67ffffffffffffffff821115620024485762002447620023aa565b5b62002453826200239a565b9050602081019050919050565b828183375f83830152505050565b5f620024846200247e846200242b565b6200240d565b905082815260208101848484011115620024a357620024a262002396565b5b620024b084828562002460565b509392505050565b5f82601f830112620024cf57620024ce62001dd6565b5b8135620024e18482602086016200246e565b91505092915050565b5f6020828403121562002502576200250162001c57565b5b5f82013567ffffffffffffffff81111562002522576200252162001c5b565b5b6200253084828501620024b8565b91505092915050565b5f80fd5b5f60e0828403121562002555576200255462002539565b5b81905092915050565b5f60e0828403121562002576576200257562001c57565b5b5f62002585848285016200253d565b91505092915050565b5f80fd5b6200259d8162001d94565b8114620025a8575f80fd5b50565b5f81519050620025bb8162002592565b92915050565b60058110620025ce575f80fd5b50565b5f81519050620025e181620025c1565b92915050565b5f60408284031215620025ff57620025fe6200258e565b5b6200260b60406200240d565b90505f6200261c84828501620025ab565b5f8301525060206200263184828501620025d1565b60208301525092915050565b5f6040828403121562002655576200265462001c57565b5b5f6200266484828501620025e7565b91505092915050565b62002678816200206d565b811462002683575f80fd5b50565b5f8151905062002696816200266d565b92915050565b620026a7816200206d565b8114620026b2575f80fd5b50565b5f81519050620026c5816200269c565b92915050565b620026d6816200206d565b8114620026e1575f80fd5b50565b5f81519050620026f481620026cb565b92915050565b62002705816200206d565b811462002710575f80fd5b50565b5f815190506200272381620026fa565b92915050565b5f608082840312156200274157620027406200258e565b5b6200274d60806200240d565b90505f6200275e8482850162002686565b5f8301525060206200277384828501620026b5565b60208301525060406200278984828501620026e4565b60408301525060606200279f8482850162002713565b60608301525092915050565b5f60808284031215620027c357620027c262001c57565b5b5f620027d28482850162002729565b91505092915050565b5f82825260208201905092915050565b5f620027f88385620027db565b93506200280783858462002460565b62002812836200239a565b840190509392505050565b5f60a082019050620028325f83018962001efc565b62002841602083018862001efc565b62002850604083018762001efc565b6200285f606083018662001efc565b818103608083015262002874818486620027eb565b9050979650505050505050565b5f81519050620028918162001da7565b92915050565b5f60208284031215620028af57620028ae62001c57565b5b5f620028be8482850162002881565b91505092915050565b5f604082019050620028dc5f83018562001cc7565b620028eb602083018462001efc565b9392505050565b5f8115159050919050565b6200290881620028f2565b811462002913575f80fd5b50565b5f815190506200292681620028fd565b92915050565b5f6020828403121562002944576200294362001c57565b5b5f620029538482850162002916565b91505092915050565b5f82825260208201905092915050565b7f4f6e6c792061646d696e6973747261746f7200000000000000000000000000005f82015250565b5f620029a26012836200295c565b9150620029af826200296c565b602082019050919050565b5f6020820190508181035f830152620029d38162002994565b9050919050565b5f81519050620029ea8162001c68565b92915050565b5f60ff82169050919050565b62002a0781620029f0565b811462002a12575f80fd5b50565b5f8151905062002a2581620029fc565b92915050565b5f610300828403121562002a445762002a436200258e565b5b62002a516103006200240d565b90505f62002a6284828501620029da565b5f83015250602062002a7784828501620029da565b602083015250604062002a8d84828501620029da565b604083015250606062002aa38482850162002881565b606083015250608062002ab98482850162002a15565b60808301525060a062002acf8482850162002881565b60a08301525060c062002ae58482850162002881565b60c08301525060e062002afb8482850162002a15565b60e08301525061010062002b128482850162002a15565b6101008301525061012062002b2a8482850162002a15565b6101208301525061014062002b428482850162002a15565b6101408301525061016062002b5a8482850162002a15565b6101608301525061018062002b728482850162002a15565b610180830152506101a062002b8a8482850162002a15565b6101a0830152506101c062002ba28482850162002a15565b6101c0830152506101e062002bba8482850162002a15565b6101e08301525061020062002bd28482850162002a15565b6102008301525061022062002bea8482850162002a15565b6102208301525061024062002c028482850162002a15565b6102408301525061026062002c1a8482850162002a15565b6102608301525061028062002c328482850162002a15565b610280830152506102a062002c4a8482850162002a15565b6102a0830152506102c062002c628482850162002a15565b6102c0830152506102e062002c7a8482850162002a15565b6102e08301525092915050565b5f610300828403121562002ca05762002c9f62001c57565b5b5f62002caf8482850162002a2b565b91505092915050565b5f6101208201905062002cce5f83018962001efc565b62002cdd602083018862001efc565b62002cec604083018762001cc7565b62002cfb606083018662001cc7565b62002d0a608083018562001cc7565b62002d1960a0830184620020e1565b979650505050505050565b5f62002d308262001d94565b9050919050565b62002d428162002d24565b811462002d4d575f80fd5b50565b5f8151905062002d608162002d37565b92915050565b5f6020828403121562002d7e5762002d7d62001c57565b5b5f62002d8d8482850162002d50565b91505092915050565b5f60408201905062002dab5f83018562001cc7565b62002dba602083018462001cc7565b9392505050565b5f81519050919050565b5f81905092915050565b5f5b8381101562002df457808201518184015260208101905062002dd7565b5f8484015250505050565b5f62002e0b8262002dc1565b62002e17818562002dcb565b935062002e2981856020860162002dd5565b80840191505092915050565b5f62002e42828562002dff565b915062002e50828462002dff565b91508190509392505050565b5f60608201905062002e715f83018562001cc7565b62002e80602083018462002021565b9392505050565b5f60a08201905062002e9c5f83018562001cc7565b62002eab6020830184620020e1565b9392505050565b62002ebd8162002157565b811462002ec8575f80fd5b50565b5f8135905062002edb8162002eb2565b92915050565b62002eec8162002175565b811462002ef7575f80fd5b50565b5f8135905062002f0a8162002ee1565b92915050565b5f60e0828403121562002f285762002f276200258e565b5b62002f3460e06200240d565b90505f62002f458482850162002ecb565b5f83015250602062002f5a8482850162002ecb565b602083015250604062002f708482850162002efa565b604083015250606062002f868482850162002efa565b606083015250608062002f9c8482850162002ecb565b60808301525060a062002fb28482850162002ecb565b60a08301525060c062002fc88482850162002ecb565b60c08301525092915050565b5f60e0828403121562002fec5762002feb62001c57565b5b5f62002ffb8482850162002f10565b91505092915050565b5f8135620030128162002eb2565b80915050919050565b5f815f1b9050919050565b5f61ffff62003035846200301b565b9350801983169250808416831791505092915050565b5f6200306b620030656200305f8462002157565b62001d12565b62002157565b9050919050565b5f819050919050565b62003086826200304b565b6200309d620030958262003072565b835462003026565b8255505050565b5f8160101b9050919050565b5f63ffff0000620030c184620030a4565b9350801983169250808416831791505092915050565b620030e2826200304b565b620030f9620030f18262003072565b8354620030b0565b8255505050565b5f81356200310e8162002ee1565b80915050919050565b5f8160201b9050919050565b5f67ffffffff00000000620031388462003117565b9350801983169250808416831791505092915050565b5f6200316e62003168620031628462002175565b62001d12565b62002175565b9050919050565b5f819050919050565b62003189826200314e565b620031a0620031988262003175565b835462003123565b8255505050565b5f8160401b9050919050565b5f6bffffffff0000000000000000620031cc84620031a7565b9350801983169250808416831791505092915050565b620031ed826200314e565b62003204620031fc8262003175565b8354620031b3565b8255505050565b5f8160601b9050919050565b5f6dffff00000000000000000000000062003232846200320b565b9350801983169250808416831791505092915050565b62003253826200304b565b6200326a620032628262003072565b835462003217565b8255505050565b5f8160701b9050919050565b5f6fffff00000000000000000000000000006200329a8462003271565b9350801983169250808416831791505092915050565b620032bb826200304b565b620032d2620032ca8262003072565b83546200327d565b8255505050565b5f8160801b9050919050565b5f71ffff000000000000000000000000000000006200330484620032d9565b9350801983169250808416831791505092915050565b62003325826200304b565b6200333c620033348262003072565b8354620032e5565b8255505050565b5f81015f830180620033558162003004565b90506200336381846200307b565b5050505f81016020830180620033798162003004565b9050620033878184620030d7565b5050505f810160408301806200339d8162003100565b9050620033ab81846200317e565b5050505f81016060830180620033c18162003100565b9050620033cf8184620031e2565b5050505f81016080830180620033e58162003004565b9050620033f3818462003248565b5050505f810160a0830180620034098162003004565b9050620034178184620032b0565b5050505f810160c08301806200342d8162003004565b90506200343b81846200331a565b5050505050565b6200344e828262003343565b5050565b5f62003462602084018462002ecb565b905092915050565b620034758162002157565b82525050565b5f6200348b602084018462002efa565b905092915050565b6200349e8162002175565b82525050565b60e08201620034b65f83018362003452565b620034c45f8501826200346a565b50620034d4602083018362003452565b620034e360208501826200346a565b50620034f360408301836200347b565b62003502604085018262003493565b506200351260608301836200347b565b62003521606085018262003493565b5062003531608083018362003452565b6200354060808501826200346a565b506200355060a083018362003452565b6200355f60a08501826200346a565b506200356f60c083018362003452565b6200357e60c08501826200346a565b50505050565b5f60e082019050620035995f830184620034a4565b92915050565b7f416c7265616479206372656174656400000000000000000000000000000000005f82015250565b5f620035d5600f836200295c565b9150620035e2826200359f565b602082019050919050565b5f6020820190508181035f8301526200360681620035c7565b9050919050565b5f815f1c9050919050565b5f61ffff82169050919050565b5f6200363b62003635836200360d565b62003618565b9050919050565b5f8160101c9050919050565b5f620036646200365e8362003642565b62003618565b9050919050565b5f8160201c9050919050565b5f63ffffffff82169050919050565b5f6200369c62003696836200366b565b62003677565b9050919050565b5f8160401c9050919050565b5f620036c5620036bf83620036a3565b62003677565b9050919050565b5f8160601c9050919050565b5f620036ee620036e883620036cc565b62003618565b9050919050565b5f8160701c9050919050565b5f620037176200371183620036f5565b62003618565b9050919050565b5f8160801c9050919050565b5f620037406200373a836200371e565b62003618565b9050919050565b60e082015f8083015490506200375d8162003625565b6200376b5f8601826200346a565b5062003777816200364e565b6200378660208601826200346a565b50620037928162003686565b620037a1604086018262003493565b50620037ad81620036af565b620037bc606086018262003493565b50620037c881620036d8565b620037d760808601826200346a565b50620037e38162003701565b620037f260a08601826200346a565b50620037fe816200372a565b6200380d60c08601826200346a565b5050505050565b5f610140820190506200382a5f83018762001efc565b62003839602083018662001efc565b62003848604083018562001efc565b62003857606083018462003747565b95945050505050565b7f437265617465323a20696e73756666696369656e742062616c616e63650000005f82015250565b5f62003896601d836200295c565b9150620038a38262003860565b602082019050919050565b5f6020820190508181035f830152620038c78162003888565b9050919050565b7f437265617465323a2062797465636f6465206c656e677468206973207a65726f5f82015250565b5f620039046020836200295c565b91506200391182620038ce565b602082019050919050565b5f6020820190508181035f8301526200393581620038f6565b9050919050565b7f437265617465323a204661696c6564206f6e206465706c6f79000000000000005f82015250565b5f620039726019836200295c565b91506200397f826200393c565b602082019050919050565b5f6020820190508181035f830152620039a38162003964565b9050919050565b7f4e487b71000000000000000000000000000000000000000000000000000000005f52601160045260245ffd5b5f620039e3826200206d565b9150620039f0836200206d565b925082820190508082111562003a0b5762003a0a620039aa565b5b92915050565b7f4d617820666565206578636565646564000000000000000000000000000000005f82015250565b5f62003a476010836200295c565b915062003a548262003a11565b602082019050919050565b5f6020820190508181035f83015262003a788162003a39565b9050919050565b7f47616d6d6173206d757374206265203e203000000000000000000000000000005f82015250565b5f62003ab56012836200295c565b915062003ac28262003a7f565b602082019050919050565b5f6020820190508181035f83015262003ae68162003aa7565b9050919050565b7f4c69717569646974792073636f7265206f7574206f662072616e6765000000005f82015250565b5f62003b23601c836200295c565b915062003b308262003aed565b602082019050919050565b5f6020820190508181035f83015262003b548162003b15565b9050919050565b7f4c657665726167652073636f7265206f7574206f662072616e676500000000005f82015250565b5f62003b91601b836200295c565b915062003b9e8262003b5b565b602082019050919050565b5f6020820190508181035f83015262003bc28162003b83565b9050919050565b7f4361736820666c6f772073636f7265206f7574206f662072616e6765000000005f82015250565b5f62003bff601c836200295c565b915062003c0c8262003bc9565b602082019050919050565b5f6020820190508181035f83015262003c308162003bf1565b9050919050565b7f50726f6669746162696c6974792073636f7265206f7574206f662072616e67655f82015250565b5f62003c6d6020836200295c565b915062003c7a8262003c37565b602082019050919050565b5f6020820190508181035f83015262003c9e8162003c5f565b9050919050565b7f4d61726b657420766f6c6174696c697479206f7574206f662072616e676500005f82015250565b5f62003cdb601e836200295c565b915062003ce88262003ca5565b602082019050919050565b5f6020820190508181035f83015262003d0c8162003ccd565b9050919050565b7f45636f6e6f6d6963206379636c6520706f736974696f6e206f7574206f6620725f8201527f616e676500000000000000000000000000000000000000000000000000000000602082015250565b5f62003d6f6024836200295c565b915062003d7c8262003d13565b604082019050919050565b5f6020820190508181035f83015262003da08162003d61565b9050919050565b7f526567756c61746f72792073746162696c697479206f7574206f662072616e675f8201527f6500000000000000000000000000000000000000000000000000000000000000602082015250565b5f62003e036021836200295c565b915062003e108262003da7565b604082019050919050565b5f6020820190508181035f83015262003e348162003df5565b9050919050565b7f536561736f6e616c697479206f7574206f662072616e676500000000000000005f82015250565b5f62003e716018836200295c565b915062003e7e8262003e3b565b602082019050919050565b5f6020820190508181035f83015262003ea28162003e63565b9050919050565b7f427573696e657373206167652073636f7265206f7574206f662072616e6765005f82015250565b5f62003edf601f836200295c565b915062003eec8262003ea9565b602082019050919050565b5f6020820190508181035f83015262003f108162003ed1565b9050919050565b7f526576656e75652073746162696c6974792073636f7265206f7574206f6620725f8201527f616e676500000000000000000000000000000000000000000000000000000000602082015250565b5f62003f736024836200295c565b915062003f808262003f17565b604082019050919050565b5f6020820190508181035f83015262003fa48162003f65565b9050919050565b7f4d61726b657420706f736974696f6e2073636f7265206f7574206f662072616e5f8201527f6765000000000000000000000000000000000000000000000000000000000000602082015250565b5f620040076022836200295c565b9150620040148262003fab565b604082019050919050565b5f6020820190508181035f830152620040388162003ff9565b9050919050565b7f496e647573747279207269736b2073636f7265206f7574206f662072616e67655f82015250565b5f620040756020836200295c565b915062004082826200403f565b602082019050919050565b5f6020820190508181035f830152620040a68162004067565b9050919050565b7f526567756c61746f727920636f6d706c69616e63652073636f7265206f7574205f8201527f6f662072616e6765000000000000000000000000000000000000000000000000602082015250565b5f620041096028836200295c565b91506200411682620040ad565b604082019050919050565b5f6020820190508181035f8301526200413a81620040fb565b9050919050565b7f4372656469742073636f7265206f7574206f662072616e6765000000000000005f82015250565b5f620041776019836200295c565b9150620041848262004141565b602082019050919050565b5f6020820190508181035f830152620041a88162004169565b9050919050565b7f44656661756c742070726f626162696c697479206f7574206f662072616e67655f82015250565b5f620041e56020836200295c565b9150620041f282620041af565b602082019050919050565b5f6020820190508181035f8301526200421681620041d7565b9050919050565b7f4c6f737320676976656e2064656661756c74206f7574206f662072616e6765005f82015250565b5f62004253601f836200295c565b915062004260826200421d565b602082019050919050565b5f6020820190508181035f830152620042848162004245565b9050919050565b7f5265636f766572792072617465206f7574206f662072616e67650000000000005f82015250565b5f620042c1601a836200295c565b9150620042ce826200428b565b602082019050919050565b5f6020820190508181035f830152620042f281620042b3565b905091905056fe60c060405234801561000f575f80fd5b506040516109fe3803806109fe8339818101604052810190610031919061007f565b81608081815250508060a0818152505050506100bd565b5f80fd5b5f819050919050565b61005e8161004c565b8114610068575f80fd5b50565b5f8151905061007981610055565b92915050565b5f806040838503121561009557610094610048565b5b5f6100a28582860161006b565b92505060206100b38582860161006b565b9150509250929050565b60805160a0516109206100de5f395f61020401525f61022801526109205ff3fe608060405234801561000f575f80fd5b5060043610610060575f3560e01c80637ea77f7a1461006457806399b6fc0d146100805780639b2c24d41461009c578063a757b1dd146100ba578063e55d11d4146100d8578063e80db82a14610108575b5f80fd5b61007e600480360381019061007991906105aa565b610138565b005b61009a600480360381019061009591906106b2565b610177565b005b6100a4610202565b6040516100b191906106ff565b60405180910390f35b6100c2610226565b6040516100cf91906106ff565b60405180910390f35b6100f260048036038101906100ed9190610718565b61024a565b6040516100ff91906107fc565b60405180910390f35b610122600480360381019061011d9190610718565b61029c565b60405161012f9190610907565b60405180910390f35b8060015f8481526020019081526020015f205f820151815f01556020820151816001015560408201518160020155606082015181600301559050505050565b805f808481526020019081526020015f205f820151815f015f6101000a81548173ffffffffffffffffffffffffffffffffffffffff021916908373ffffffffffffffffffffffffffffffffffffffff1602179055506020820151815f0160146101000a81548160ff021916908360048111156101f6576101f5610867565b5b02179055509050505050565b7f000000000000000000000000000000000000000000000000000000000000000081565b7f000000000000000000000000000000000000000000000000000000000000000081565b610252610354565b60015f8381526020019081526020015f206040518060800160405290815f820154815260200160018201548152602001600282015481526020016003820154815250509050919050565b6102a4610378565b5f808381526020019081526020015f206040518060400160405290815f82015f9054906101000a900473ffffffffffffffffffffffffffffffffffffffff1673ffffffffffffffffffffffffffffffffffffffff1673ffffffffffffffffffffffffffffffffffffffff1681526020015f820160149054906101000a900460ff16600481111561033757610336610867565b5b600481111561034957610348610867565b5b815250509050919050565b60405180608001604052805f81526020015f81526020015f81526020015f81525090565b60405180604001604052805f73ffffffffffffffffffffffffffffffffffffffff1681526020015f60048111156103b2576103b1610867565b5b81525090565b5f604051905090565b5f80fd5b5f819050919050565b6103d7816103c5565b81146103e1575f80fd5b50565b5f813590506103f2816103ce565b92915050565b5f80fd5b5f601f19601f8301169050919050565b7f4e487b71000000000000000000000000000000000000000000000000000000005f52604160045260245ffd5b610442826103fc565b810181811067ffffffffffffffff821117156104615761046061040c565b5b80604052505050565b5f6104736103b8565b905061047f8282610439565b919050565b5f819050919050565b61049681610484565b81146104a0575f80fd5b50565b5f813590506104b18161048d565b92915050565b6104c081610484565b81146104ca575f80fd5b50565b5f813590506104db816104b7565b92915050565b6104ea81610484565b81146104f4575f80fd5b50565b5f81359050610505816104e1565b92915050565b61051481610484565b811461051e575f80fd5b50565b5f8135905061052f8161050b565b92915050565b5f6080828403121561054a576105496103f8565b5b610554608061046a565b90505f610563848285016104a3565b5f830152506020610576848285016104cd565b602083015250604061058a848285016104f7565b604083015250606061059e84828501610521565b60608301525092915050565b5f8060a083850312156105c0576105bf6103c1565b5b5f6105cd858286016103e4565b92505060206105de85828601610535565b9150509250929050565b5f73ffffffffffffffffffffffffffffffffffffffff82169050919050565b5f610611826105e8565b9050919050565b61062181610607565b811461062b575f80fd5b50565b5f8135905061063c81610618565b92915050565b6005811061064e575f80fd5b50565b5f8135905061065f81610642565b92915050565b5f6040828403121561067a576106796103f8565b5b610684604061046a565b90505f6106938482850161062e565b5f8301525060206106a684828501610651565b60208301525092915050565b5f80606083850312156106c8576106c76103c1565b5b5f6106d5858286016103e4565b92505060206106e685828601610665565b9150509250929050565b6106f9816103c5565b82525050565b5f6020820190506107125f8301846106f0565b92915050565b5f6020828403121561072d5761072c6103c1565b5b5f61073a848285016103e4565b91505092915050565b5f819050919050565b5f61076661076161075c84610484565b610743565b610484565b9050919050565b6107768161074c565b82525050565b6107858161074c565b82525050565b6107948161074c565b82525050565b6107a38161074c565b82525050565b608082015f8201516107bd5f85018261076d565b5060208201516107d0602085018261077c565b5060408201516107e3604085018261078b565b5060608201516107f6606085018261079a565b50505050565b5f60808201905061080f5f8301846107a9565b92915050565b5f61082f61082a610825846105e8565b610743565b6105e8565b9050919050565b5f61084082610815565b9050919050565b5f61085182610836565b9050919050565b61086181610847565b82525050565b7f4e487b71000000000000000000000000000000000000000000000000000000005f52602160045260245ffd5b600581106108a5576108a4610867565b5b50565b5f8190506108b582610894565b919050565b5f6108c4826108a8565b9050919050565b6108d4816108ba565b82525050565b604082015f8201516108ee5f850182610858565b50602082015161090160208501826108cb565b50505050565b5f60408201905061091a5f8301846108da565b929150505660e06040525f805f6101000a81548160ff021916908360ff16021790555034801562000029575f80fd5b50604051620061d1380380620061d183398181016040528101906200004f91906200069f565b80848484828181818073ffffffffffffffffffffffffffffffffffffffff1660a09073ffffffffffffffffffffffffffffffffffffffff168152508173ffffffffffffffffffffffffffffffffffffffff1660809073ffffffffffffffffffffffffffffffffffffffff16815250505050508173ffffffffffffffffffffffffffffffffffffffff1660c08173ffffffffffffffffffffffffffffffffffffffff168152505050505060806001175f8054906101000a900460ff16175f806101000a81548160ff021916908360ff16021790555062000134816200031060201b60201c565b6200014581620003f160201b60201c565b60025f6101000a81548171ffffffffffffffffffffffffffffffffffff021916908371ffffffffffffffffffffffffffffffffffff16021790555060018060018154018082558091505060019003905f5260205f20015f6040518060400160405280601281526020017f44796e616d69632046656520506c7567696e000000000000000000000000000081525090919091509081620001e5919062000946565b505060025f8054906101000a900460ff16175f806101000a81548160ff021916908360ff16021790555060018060018154018082558091505060019003905f5260205f20015f6040518060400160405280601481526020017f4661726d696e672050726f787920506c7567696e0000000000000000000000008152509091909150908162000274919062000946565b5060016040175f8054906101000a900460ff16175f806101000a81548160ff021916908360ff16021790555060018060018154018082558091505060019003905f5260205f20015f6040518060400160405280601881526020017f566f6c6174696c697479204f7261636c6520506c7567696e00000000000000008152509091909150908162000305919062000946565b505050505062000b7d565b61ffff80168160c0015161ffff16826020015161ffff16835f015161ffff166200033b919062000a57565b62000347919062000a57565b11156200038b576040517f08c379a0000000000000000000000000000000000000000000000000000000008152600401620003829062000aef565b60405180910390fd5b5f816080015161ffff1614158015620003ac57505f8160a0015161ffff1614155b620003ee576040517f08c379a0000000000000000000000000000000000000000000000000000000008152600401620003e59062000b5d565b60405180910390fd5b50565b5f80825f015161ffff166010846020015161ffff16901b6020856040015163ffffffff16901b6040866060015163ffffffff16901b6060876080015161ffff16901b60708860a0015161ffff16901b60808960c0015161ffff16901b171717171717905080915050919050565b5f604051905090565b5f80fd5b5f73ffffffffffffffffffffffffffffffffffffffff82169050919050565b5f62000496826200046b565b9050919050565b620004a8816200048a565b8114620004b3575f80fd5b50565b5f81519050620004c6816200049d565b92915050565b5f80fd5b5f601f19601f8301169050919050565b7f4e487b71000000000000000000000000000000000000000000000000000000005f52604160045260245ffd5b6200051882620004d0565b810181811067ffffffffffffffff821117156200053a5762000539620004e0565b5b80604052505050565b5f6200054e6200045e565b90506200055c82826200050d565b919050565b5f61ffff82169050919050565b620005798162000561565b811462000584575f80fd5b50565b5f8151905062000597816200056e565b92915050565b5f63ffffffff82169050919050565b620005b7816200059d565b8114620005c2575f80fd5b50565b5f81519050620005d581620005ac565b92915050565b5f60e08284031215620005f357620005f2620004cc565b5b620005ff60e062000543565b90505f620006108482850162000587565b5f830152506020620006258482850162000587565b60208301525060406200063b84828501620005c5565b60408301525060606200065184828501620005c5565b6060830152506080620006678482850162000587565b60808301525060a06200067d8482850162000587565b60a08301525060c0620006938482850162000587565b60c08301525092915050565b5f805f806101408587031215620006bb57620006ba62000467565b5b5f620006ca87828801620004b6565b9450506020620006dd87828801620004b6565b9350506040620006f087828801620004b6565b92505060606200070387828801620005db565b91505092959194509250565b5f81519050919050565b7f4e487b71000000000000000000000000000000000000000000000000000000005f52602260045260245ffd5b5f60028204905060018216806200075e57607f821691505b60208210810362000774576200077362000719565b5b50919050565b5f819050815f5260205f209050919050565b5f6020601f8301049050919050565b5f82821b905092915050565b5f60088302620007d87fffffffffffffffffffffffffffffffffffffffffffffffffffffffffffffffff826200079b565b620007e486836200079b565b95508019841693508086168417925050509392505050565b5f819050919050565b5f819050919050565b5f6200082e620008286200082284620007fc565b62000805565b620007fc565b9050919050565b5f819050919050565b62000849836200080e565b62000861620008588262000835565b848454620007a7565b825550505050565b5f90565b6200087762000869565b620008848184846200083e565b505050565b5b81811015620008ab576200089f5f826200086d565b6001810190506200088a565b5050565b601f821115620008fa57620008c4816200077a565b620008cf846200078c565b81016020851015620008df578190505b620008f7620008ee856200078c565b83018262000889565b50505b505050565b5f82821c905092915050565b5f6200091c5f1984600802620008ff565b1980831691505092915050565b5f6200093683836200090b565b9150826002028217905092915050565b62000951826200070f565b67ffffffffffffffff8111156200096d576200096c620004e0565b5b62000979825462000746565b62000986828285620008af565b5f60209050601f831160018114620009bc575f8415620009a7578287015190505b620009b3858262000929565b86555062000a22565b601f198416620009cc866200077a565b5f5b82811015620009f557848901518255600182019150602085019450602081019050620009ce565b8683101562000a15578489015162000a11601f8916826200090b565b8355505b6001600288020188555050505b505050505050565b7f4e487b71000000000000000000000000000000000000000000000000000000005f52601160045260245ffd5b5f62000a6382620007fc565b915062000a7083620007fc565b925082820190508082111562000a8b5762000a8a62000a2a565b5b92915050565b5f82825260208201905092915050565b7f4d617820666565206578636565646564000000000000000000000000000000005f82015250565b5f62000ad760108362000a91565b915062000ae48262000aa1565b602082019050919050565b5f6020820190508181035f83015262000b088162000ac9565b9050919050565b7f47616d6d6173206d757374206265203e203000000000000000000000000000005f82015250565b5f62000b4560128362000a91565b915062000b528262000b0f565b602082019050919050565b5f6020820190508181035f83015262000b768162000b37565b9050919050565b60805160a05160c0516155f862000bd95f395f6119d801525f8181610c0c0152610d7a01525f8181610654015281816106dd0152818161172101528181611c6b01528181611cf701528181611daa0152611e3a01526155f85ff3fe608060405234801561000f575f80fd5b50600436106101d8575f3560e01c80637c1fe0c811610102578063aa6b14bb116100a0578063e63015f01161006f578063e63015f0146105c9578063e72c652d146105f9578063f5985d3514610615578063f70d936214610633576101d8565b8063aa6b14bb1461052f578063b6f78cc91461055f578063d68520101461057d578063da705235146105ad576101d8565b806388f2e862116100dc57806388f2e8621461046d5780638de0a8ee1461049e5780639cb5a963146104ce5780639d3a5241146104fe576101d8565b80637c1fe0c8146104175780638129fc1c1461043357806382dd65221461043d576101d8565b806331b25d1a1161017a5780635e2411b2116101495780635e2411b214610362578063636fd80414610393578063689ea370146103c357806374eceae6146103e1576101d8565b806331b25d1a146102c6578063343d37ff146102e4578063392e53cd1461031457806346b7748b14610332576101d8565b806316f0115b116101b657806316f0115b1461024a5780631d39215e146102685780631d4632ac146102845780631e5eb1d0146102a2576101d8565b8063026b1d5f146101dc578063029c1cb7146101fa5780630786feb61461022c575b5f80fd5b6101e4610651565b6040516101f19190613ba6565b60405180910390f35b610214600480360381019061020f9190613ced565b610678565b60405161022393929190613e01565b60405180910390f35b6102346106c6565b6040516102419190613e52565b60405180910390f35b6102526106db565b60405161025f9190613ba6565b60405180910390f35b610282600480360381019061027d9190613e8d565b6106ff565b005b61028c6107ae565b6040516102999190613ba6565b60405180910390f35b6102aa6107d3565b6040516102bd9796959493929190613ed6565b60405180910390f35b6102ce6109a1565b6040516102db9190613f5b565b60405180910390f35b6102fe60048036038101906102f99190613fa7565b6109c5565b60405161030b9190614064565b60405180910390f35b61031c6109f9565b604051610329919061408c565b60405180910390f35b61034c600480360381019061034791906140a5565b610a0e565b604051610359919061415a565b60405180910390f35b61037c600480360381019061037791906141e6565b610ab4565b60405161038a929190614290565b60405180910390f35b6103ad60048036038101906103a891906142b7565b610aec565b6040516103ba9190614064565b60405180910390f35b6103cb610b1a565b6040516103d89190614310565b60405180910390f35b6103fb60048036038101906103f691906140a5565b610b2a565b60405161040e9796959493929190614378565b60405180910390f35b610431600480360381019061042c91906143e5565b610bd0565b005b61043b611125565b005b61045760048036038101906104529190614410565b611261565b6040516104649190614064565b60405180910390f35b6104876004803603810190610482919061448a565b611284565b6040516104959291906144b5565b60405180910390f35b6104b860048036038101906104b391906144dc565b611301565b6040516104c59190614064565b60405180910390f35b6104e860048036038101906104e39190614572565b611333565b6040516104f59190614064565b60405180910390f35b6105186004803603810190610513919061477a565b61135c565b60405161052692919061492f565b60405180910390f35b61054960048036038101906105449190614964565b6113a9565b6040516105569190614064565b60405180910390f35b6105676113c2565b6040516105749190614aa5565b60405180910390f35b61059760048036038101906105929190614ac5565b611500565b6040516105a49190614064565b60405180910390f35b6105c760048036038101906105c29190614bbf565b611535565b005b6105e360048036038101906105de91906143e5565b6115f8565b6040516105f0919061408c565b60405180910390f35b610613600480360381019061060e9190614bfd565b6116d4565b005b61061d6116ec565b60405161062a9190614c4d565b60405180910390f35b61063b611704565b6040516106489190613e52565b60405180910390f35b5f7f0000000000000000000000000000000000000000000000000000000000000000905090565b5f805f61068361171f565b61068b6117af565b5f6106946118cc565b90505f6106a082611935565b61ffff16905063029c1cb760e01b815f9450945094505050985098509895505050505050565b620100055f9054906101000a900461ffff1681565b7f000000000000000000000000000000000000000000000000000000000000000081565b6107076119d6565b6107208180360381019061071b9190614d1b565b611a9a565b610739818036038101906107349190614d1b565b611b70565b60025f6101000a81548171ffffffffffffffffffffffffffffffffffff021916908371ffffffffffffffffffffffffffffffffffff1602179055507f348d1d6a31fa4a2a3ef887c493549a9500fbb77b5218be0c81a71c553364305a816040516107a39190614e54565b60405180910390a150565b60035f9054906101000a900473ffffffffffffffffffffffffffffffffffffffff1681565b5f805f805f805f61081660025f9054906101000a900471ffffffffffffffffffffffffffffffffffff1671ffffffffffffffffffffffffffffffffffff16611bdd565b61085260025f9054906101000a900471ffffffffffffffffffffffffffffffffffff1671ffffffffffffffffffffffffffffffffffff16611bea565b809750819850505061089660025f9054906101000a900471ffffffffffffffffffffffffffffffffffff1671ffffffffffffffffffffffffffffffffffff16611bfa565b6108d260025f9054906101000a900471ffffffffffffffffffffffffffffffffffff1671ffffffffffffffffffffffffffffffffffff16611c0c565b809550819650505061091660025f9054906101000a900471ffffffffffffffffffffffffffffffffffff1671ffffffffffffffffffffffffffffffffffff16611c1e565b61095260025f9054906101000a900471ffffffffffffffffffffffffffffffffffff1671ffffffffffffffffffffffffffffffffffff16611c2e565b809350819450505061099660025f9054906101000a900471ffffffffffffffffffffffffffffffffffff1671ffffffffffffffffffffffffffffffffffff16611c3e565b905090919293949596565b7f8e8000aba5b365c0be9685da1153f7f096e76d1ecfb42c050ae1e387aa65b4f581565b5f6109ce61171f565b6109e35f8054906101000a900460ff16611c4e565b63343d37ff60e01b905098975050505050505050565b6201000560069054906101000a900460ff1681565b60018181548110610a1d575f80fd5b905f5260205f20015f915090508054610a3590614e9a565b80601f0160208091040260200160405190810160405280929190818152602001828054610a6190614e9a565b8015610aac5780601f10610a8357610100808354040283529160200191610aac565b820191905f5260205f20905b815481529060010190602001808311610a8f57829003601f168201915b505050505081565b5f80610abe61171f565b610ad35f8054906101000a900460ff16611c4e565b635e2411b260e01b5f9150915097509795505050505050565b5f610af561171f565b610b0a5f8054906101000a900460ff16611c4e565b63636fd80460e01b905092915050565b5f8054906101000a900460ff1681565b600581620100008110610b3b575f80fd5b015f91509050805f015f9054906101000a900460ff1690805f0160019054906101000a900463ffffffff1690805f0160059054906101000a900460060b90805f01600c9054906101000a90046affffffffffffffffffffff1690805f0160179054906101000a900460020b90805f01601a9054906101000a900460020b90805f01601d9054906101000a900461ffff16905087565b5f8073ffffffffffffffffffffffffffffffffffffffff168273ffffffffffffffffffffffffffffffffffffffff16141590505f8115610ccc577f000000000000000000000000000000000000000000000000000000000000000073ffffffffffffffffffffffffffffffffffffffff16638a2ade586040518163ffffffff1660e01b8152600401602060405180830381865afa158015610c73573d5f803e3d5ffd5b505050506040513d601f19601f82011682018060405250810190610c979190614ede565b73ffffffffffffffffffffffffffffffffffffffff163373ffffffffffffffffffffffffffffffffffffffff16149050610e37565b5f73ffffffffffffffffffffffffffffffffffffffff1660045f9054906101000a900473ffffffffffffffffffffffffffffffffffffffff1673ffffffffffffffffffffffffffffffffffffffff1614610d735760045f9054906101000a900473ffffffffffffffffffffffffffffffffffffffff1673ffffffffffffffffffffffffffffffffffffffff163373ffffffffffffffffffffffffffffffffffffffff161490505b80610e36577f000000000000000000000000000000000000000000000000000000000000000073ffffffffffffffffffffffffffffffffffffffff16638a2ade586040518163ffffffff1660e01b8152600401602060405180830381865afa158015610de1573d5f803e3d5ffd5b505050506040513d601f19601f82011682018060405250810190610e059190614ede565b73ffffffffffffffffffffffffffffffffffffffff163373ffffffffffffffffffffffffffffffffffffffff161490505b5b80610e77576040517f08c379a0000000000000000000000000000000000000000000000000000000008152600401610e6e90614f53565b60405180910390fd5b5f3073ffffffffffffffffffffffffffffffffffffffff16610e97611cf4565b73ffffffffffffffffffffffffffffffffffffffff161490508215610ef75780610ef6576040517f08c379a0000000000000000000000000000000000000000000000000000000008152600401610eed90614fbb565b60405180910390fd5b5b5f60035f9054906101000a900473ffffffffffffffffffffffffffffffffffffffff1690508473ffffffffffffffffffffffffffffffffffffffff168173ffffffffffffffffffffffffffffffffffffffff1603610f8a576040517f08c379a0000000000000000000000000000000000000000000000000000000008152600401610f8190615023565b60405180910390fd5b8315610fff575f73ffffffffffffffffffffffffffffffffffffffff168173ffffffffffffffffffffffffffffffffffffffff1614610ffe576040517f08c379a0000000000000000000000000000000000000000000000000000000008152600401610ff59061508b565b60405180910390fd5b5b8460035f6101000a81548173ffffffffffffffffffffffffffffffffffffffff021916908373ffffffffffffffffffffffffffffffffffffffff1602179055507f915c5369e6580733735d1c2e30ca20dcaa395697a041033c9f35f80f53525e848560405161106e9190613ba6565b60405180910390a183156110c1573360045f6101000a81548173ffffffffffffffffffffffffffffffffffffffff021916908373ffffffffffffffffffffffffffffffffffffffff160217905550611102565b5f60045f6101000a81548173ffffffffffffffffffffffffffffffffffffffff021916908373ffffffffffffffffffffffffffffffffffffffff1602179055505b811561111e5761111d5f8054906101000a900460ff16611d87565b5b5050505050565b6201000560069054906101000a900460ff1615611177576040517f08c379a000000000000000000000000000000000000000000000000000000000815260040161116e906150f3565b60405180910390fd5b3073ffffffffffffffffffffffffffffffffffffffff16611196611cf4565b73ffffffffffffffffffffffffffffffffffffffff16146111ec576040517f08c379a00000000000000000000000000000000000000000000000000000000081526004016111e390614fbb565b60405180910390fd5b5f806111f6611e34565b5050915091505f8273ffffffffffffffffffffffffffffffffffffffff1603611254576040517f08c379a000000000000000000000000000000000000000000000000000000000815260040161124b9061515b565b60405180910390fd5b61125d81611ede565b5050565b5f61126a61171f565b61127382611ede565b6382dd652260e01b90509392505050565b5f805f61128f611e34565b50509150505f620100055f9054906101000a900461ffff1690505f6112be826005611f5890919063ffffffff16565b90505f6112e46112cc611f99565b888686866005611fa09095949392919063ffffffff16565b905080604001518160600151809650819750505050505050915091565b5f61130a61171f565b61131f5f8054906101000a900460ff16611c4e565b638de0a8ee60e01b90509695505050505050565b5f61133c61171f565b6113458861233d565b639cb5a96360e01b90509998505050505050505050565b6060805f611368611e34565b505091505061139f611378611f99565b8583620100055f9054906101000a900461ffff16600561242590949392919063ffffffff16565b9250925050915091565b5f6113b261171f565b63aa6b14bb60e01b905092915050565b606060018054905067ffffffffffffffff8111156113e3576113e2614642565b5b60405190808252806020026020018201604052801561141657816020015b60608152602001906001900390816114015790505b5090505f5b6001805490508110156114fc576001818154811061143c5761143b615179565b5b905f5260205f2001805461144f90614e9a565b80601f016020809104026020016040519081016040528092919081815260200182805461147b90614e9a565b80156114c65780601f1061149d576101008083540402835291602001916114c6565b820191905f5260205f20905b8154815290600101906020018083116114a957829003601f168201915b50505050508282815181106114de576114dd615179565b5b602002602001018190525080806114f4906151d3565b91505061141b565b5090565b5f61150961171f565b61151e5f8054906101000a900460ff16611c4e565b63d685201060e01b90509998505050505050505050565b60058261ffff1662010000811061154f5761154e615179565b5b015f015f9054906101000a900460ff1615611568575f80fd5b5f8161ffff1611801561159057508061ffff168261ffff611589919061521a565b61ffff1610155b611598575f80fd5b5f8261ffff1690505b81830161ffff168110156115f35760016005826201000081106115c7576115c6615179565b5b015f0160016101000a81548163ffffffff021916908363ffffffff1602179055508060010190506115a1565b505050565b5f8173ffffffffffffffffffffffffffffffffffffffff1660035f9054906101000a900473ffffffffffffffffffffffffffffffffffffffff1673ffffffffffffffffffffffffffffffffffffffff1614611655575f90506116cf565b3073ffffffffffffffffffffffffffffffffffffffff16611674611cf4565b73ffffffffffffffffffffffffffffffffffffffff1614611697575f90506116cf565b5f6116a0611e34565b93505050506116bc60028260ff1661258d90919063ffffffff16565b6116c9575f9150506116cf565b60019150505b919050565b6116dc6119d6565b6116e783828461259b565b505050565b6201000560029054906101000a900463ffffffff1681565b5f8061170e6118cc565b905061171981611935565b91505090565b7f000000000000000000000000000000000000000000000000000000000000000073ffffffffffffffffffffffffffffffffffffffff163373ffffffffffffffffffffffffffffffffffffffff16146117ad576040517f08c379a00000000000000000000000000000000000000000000000000000000081526004016117a490615299565b60405180910390fd5b565b5f620100055f9054906101000a900461ffff1690505f6201000560029054906101000a900463ffffffff1690505f6201000560069054906101000a900460ff16905080611831576040517f08c379a000000000000000000000000000000000000000000000000000000000815260040161182890615301565b60405180910390fd5b5f61183a611f99565b90508063ffffffff168363ffffffff160361185857505050506118ca565b5f611861611e34565b50509150505f61187f868484600561263f909392919063ffffffff16565b50905080620100055f6101000a81548161ffff021916908361ffff160217905550826201000560026101000a81548163ffffffff021916908363ffffffff1602179055505050505050505b565b5f806118d6611f99565b90505f6118e1611e34565b50509150505f620100055f9054906101000a900461ffff1690505f611910826005611f5890919063ffffffff16565b905061192c84848484600561294990949392919063ffffffff16565b94505050505090565b5f8060025f9054906101000a900471ffffffffffffffffffffffffffffffffffff1690505f6119778271ffffffffffffffffffffffffffffffffffff16611bea565b6119948371ffffffffffffffffffffffffffffffffffff16611bdd565b1761ffff16036119c3576119bb8171ffffffffffffffffffffffffffffffffffff16611c3e565b9150506119d1565b6119cd8382612c2a565b9150505b919050565b7f000000000000000000000000000000000000000000000000000000000000000073ffffffffffffffffffffffffffffffffffffffff1663e8ae2b697f8e8000aba5b365c0be9685da1153f7f096e76d1ecfb42c050ae1e387aa65b4f5336040518363ffffffff1660e01b8152600401611a5192919061531f565b602060405180830381865afa158015611a6c573d5f803e3d5ffd5b505050506040513d601f19601f82011682018060405250810190611a90919061535a565b611a98575f80fd5b565b61ffff80168160c0015161ffff16826020015161ffff16835f015161ffff16611ac39190615385565b611acd9190615385565b1115611b0e576040517f08c379a0000000000000000000000000000000000000000000000000000000008152600401611b0590615402565b60405180910390fd5b5f816080015161ffff1614158015611b2e57505f8160a0015161ffff1614155b611b6d576040517f08c379a0000000000000000000000000000000000000000000000000000000008152600401611b649061546a565b60405180910390fd5b50565b5f80825f015161ffff166010846020015161ffff16901b6020856040015163ffffffff16901b6040866060015163ffffffff16901b6060876080015161ffff16901b60708860a0015161ffff16901b60808960c0015161ffff16901b171717171717905080915050919050565b5f8161ffff169050919050565b5f8160101c61ffff169050919050565b5f8160201c63ffffffff169050919050565b5f8160401c63ffffffff169050919050565b5f8160601c61ffff169050919050565b5f8160701c61ffff169050919050565b5f8160801c61ffff169050919050565b5f611c57611e34565b93505050508160ff168160ff1614611cf0577f000000000000000000000000000000000000000000000000000000000000000073ffffffffffffffffffffffffffffffffffffffff1663bca57f81836040518263ffffffff1660e01b8152600401611cc29190614310565b5f604051808303815f87803b158015611cd9575f80fd5b505af1158015611ceb573d5f803e3d5ffd5b505050505b5050565b5f7f000000000000000000000000000000000000000000000000000000000000000073ffffffffffffffffffffffffffffffffffffffff1663ef01df4f6040518163ffffffff1660e01b8152600401602060405180830381865afa158015611d5e573d5f803e3d5ffd5b505050506040513d601f19601f82011682018060405250810190611d829190614ede565b905090565b5f611d90611e34565b93505050505f82821790508060ff168260ff1614611e2f577f000000000000000000000000000000000000000000000000000000000000000073ffffffffffffffffffffffffffffffffffffffff1663bca57f81826040518263ffffffff1660e01b8152600401611e019190614310565b5f604051808303815f87803b158015611e18575f80fd5b505af1158015611e2a573d5f803e3d5ffd5b505050505b505050565b5f805f807f000000000000000000000000000000000000000000000000000000000000000073ffffffffffffffffffffffffffffffffffffffff1663e76c01e46040518163ffffffff1660e01b815260040160c060405180830381865afa158015611ea1573d5f803e3d5ffd5b505050506040513d601f19601f82011682018060405250810190611ec591906154ee565b9050508094508195508296508397505050505090919293565b5f611ee7611f99565b9050611eff81836005612d7c9092919063ffffffff16565b806201000560026101000a81548163ffffffff021916908363ffffffff16021790555060016201000560066101000a81548160ff021916908315150217905550611f545f8054906101000a900460ff16611d87565b5050565b5f80600183019050838161ffff16620100008110611f7957611f78615179565b5b015f015f9054906101000a900460ff1615611f92578091505b5092915050565b5f42905090565b611fa8613b0f565b5f85870390505f805f611fbe8b8b868a8a612e75565b50925092509250826040518060e00160405290815f82015f9054906101000a900460ff161515151581526020015f820160019054906101000a900463ffffffff1663ffffffff1663ffffffff1681526020015f820160059054906101000a900460060b60060b60060b81526020015f8201600c9054906101000a90046affffffffffffffffffffff166affffffffffffffffffffff166affffffffffffffffffffff1681526020015f820160179054906101000a900460020b60020b60020b81526020015f8201601a9054906101000a900460020b60020b60020b81526020015f8201601d9054906101000a900461ffff1661ffff1661ffff16815250509450846020015163ffffffff168463ffffffff16036120de5750505050612333565b801561211b575f806120fd8d878c8c8c8c602001518d60400151613088565b9150915061210e87878c85856130b7565b9650505050505050612333565b5f80835f0160019054906101000a900463ffffffff16845f0160059054906101000a900460060b915091508163ffffffff168663ffffffff160361225d57836040518060e00160405290815f82015f9054906101000a900460ff161515151581526020015f820160019054906101000a900463ffffffff1663ffffffff1663ffffffff1681526020015f820160059054906101000a900460060b60060b60060b81526020015f8201600c9054906101000a90046affffffffffffffffffffff166affffffffffffffffffffff166affffffffffffffffffffff1681526020015f820160179054906101000a900460020b60020b60020b81526020015f8201601a9054906101000a900460020b60020b60020b81526020015f8201601d9054906101000a900461ffff1661ffff1661ffff16815250509650505050505050612333565b5f808860200151840389602001518903915091508063ffffffff168263ffffffff1660060b8a60400151850360060b8161229a57612299615577565b5b0502896040018181510191509060060b908160060b815250508063ffffffff168263ffffffff168a60600151885f01600c9054906101000a90046affffffffffffffffffffff16036affffffffffffffffffffff16816122fd576122fc615577565b5b040289606001818151019150906affffffffffffffffffffff1690816affffffffffffffffffffff168152505050505050505050505b9695505050505050565b5f60035f9054906101000a900473ffffffffffffffffffffffffffffffffffffffff1690505f73ffffffffffffffffffffffffffffffffffffffff168173ffffffffffffffffffffffffffffffffffffffff1614612421575f61239e611e34565b50509150508173ffffffffffffffffffffffffffffffffffffffff166334d3359082856040518363ffffffff1660e01b81526004016123de9291906155a4565b6020604051808303815f875af11580156123fa573d5f803e3d5ffd5b505050506040513d601f19601f8201168201806040525081019061241e919061535a565b50505b5050565b6060805f855190508067ffffffffffffffff81111561244757612446614642565b5b6040519080825280602002602001820160405280156124755781602001602082028036833780820191505090505b5092508067ffffffffffffffff81111561249257612491614642565b5b6040519080825280602002602001820160405280156124c05781602001602082028036833780820191505090505b5091505f6124ce8986611f58565b90506124d8613b0f565b5f5b8381101561257f5761250a8b8b8b84815181106124fa576124f9615179565b5b60200260200101518b8b88611fa0565b91508160400151826060015187838151811061252957612528615179565b5b6020026020010187848151811061254357612542615179565b5b60200260200101826affffffffffffffffffffff166affffffffffffffffffffff168152508260060b60060b81525050508060010190506124da565b505050509550959350505050565b5f8082841611905092915050565b5f6040517fa9059cbb000000000000000000000000000000000000000000000000000000005f5273ffffffffffffffffffffffffffffffffffffffff84166004528260245260205f60445f80895af19150813d1560203d1460015f51141617169150806040525080612639576040517fe465903e00000000000000000000000000000000000000000000000000000000815260040160405180910390fd5b50505050565b5f805f868661ffff1662010000811061265b5761265a615179565b5b016040518060e00160405290815f82015f9054906101000a900460ff161515151581526020015f820160019054906101000a900463ffffffff1663ffffffff1663ffffffff1681526020015f820160059054906101000a900460060b60060b60060b81526020015f8201600c9054906101000a90046affffffffffffffffffffff166affffffffffffffffffffff166affffffffffffffffffffff1681526020015f820160179054906101000a900460020b60020b60020b81526020015f8201601a9054906101000a900460020b60020b60020b81526020015f8201601d9054906101000a900461ffff1661ffff1661ffff168152505090508463ffffffff16816020015163ffffffff160361277757855f9250925050612940565b600186019250868361ffff1662010000811061279657612795615179565b5b015f015f9054906101000a900460ff16156127af578291505b5f806127c88988888b8888602001518960400151613088565b915091508461ffff168161ffff16036127e45780806001019150505b6127f183888885856130b7565b898661ffff1662010000811061280a57612809615179565b5b015f820151815f015f6101000a81548160ff0219169083151502179055506020820151815f0160016101000a81548163ffffffff021916908363ffffffff1602179055506040820151815f0160056101000a81548166ffffffffffffff021916908360060b66ffffffffffffff1602179055506060820151815f01600c6101000a8154816affffffffffffffffffffff02191690836affffffffffffffffffffff1602179055506080820151815f0160176101000a81548162ffffff021916908360020b62ffffff16021790555060a0820151815f01601a6101000a81548162ffffff021916908360020b62ffffff16021790555060c0820151815f01601d6101000a81548161ffff021916908361ffff1602179055509050508461ffff168461ffff160361293c5783806001019450505b5050505b94509492505050565b5f80868461ffff1662010000811061296457612963615179565b5b0190505f8663ffffffff16825f0160019054906101000a900463ffffffff1663ffffffff161490505f825f01600c9054906101000a90046affffffffffffffffffffff1690505f835f01601d9054906101000a900461ffff169050826129d5576129d28a8a5f8b8b8b6131a7565b91505b5f8a8761ffff166201000081106129ef576129ee615179565b5b015f0160019054906101000a900463ffffffff169050612a1581620151808c038c613330565b15612b7e575f8415612b34578b8361ffff16620100008110612a3a57612a39615179565b5b015f0160019054906101000a900463ffffffff168c8461ffff16620100008110612a6757612a66615179565b5b015f01600c9054906101000a90046affffffffffffffffffffff1680925081935050505f828d6001860161ffff16620100008110612aa857612aa7615179565b5b015f0160019054906101000a900463ffffffff160390508063ffffffff1683620151808e030363ffffffff16838f6001880161ffff16620100008110612af157612af0615179565b5b015f01600c9054906101000a90046affffffffffffffffffffff1603026affffffffffffffffffffff1681612b2957612b28615577565b5b048201915050612b48565b612b458c8c620151808d8d8d6131a7565b90505b6201518063ffffffff168185036affffffffffffffffffffff1681612b7057612b6f615577565b5b049650505050505050612c21565b8063ffffffff168a63ffffffff1614612c1b575f8b8861ffff16620100008110612bab57612baa615179565b5b015f01600c9054906101000a90046affffffffffffffffffffff1690505f828c03905060018163ffffffff161115612be7578080600190039150505b8063ffffffff168286036affffffffffffffffffffff1681612c0c57612c0b615577565b5b04975050505050505050612c21565b50505050505b95945050505050565b5f600f836affffffffffffffffffffff1681612c4957612c48615577565b5b0492505f612cc0846affffffffffffffffffffff16612c7b8571ffffffffffffffffffffffffffffffffffff16611c2e565b612c988671ffffffffffffffffffffffffffffffffffff16611bea565b612cb58771ffffffffffffffffffffffffffffffffffff16611c0c565b63ffffffff16613375565b612d33856affffffffffffffffffffff16612cee8671ffffffffffffffffffffffffffffffffffff16611c1e565b612d0b8771ffffffffffffffffffffffffffffffffffff16611bdd565b612d288871ffffffffffffffffffffffffffffffffffff16611bfa565b63ffffffff16613375565b0190505f81612d558571ffffffffffffffffffffffffffffffffffff16611c3e565b61ffff1601905061ffff8016811115612d7157612d706155cb565b5b809250505092915050565b5f835f620100008110612d9257612d91615179565b5b019050805f015f9054906101000a900460ff1615612ddc576040517f1156234600000000000000000000000000000000000000000000000000000000815260040160405180910390fd5b6001838384845f015f865f016001885f0160178a5f01601a8891906101000a81548162ffffff021916908360020b62ffffff1602179055508791906101000a81548162ffffff021916908360020b62ffffff1602179055508691906101000a81548163ffffffff021916908363ffffffff1602179055508591906101000a81548160ff0219169083151502179055505050505050505050565b5f805f805f898761ffff16620100008110612e9357612e92615179565b5b0190505f815f0160019054906101000a900463ffffffff1690505f825f01601d9054906101000a900461ffff1690508a63ffffffff168a63ffffffff161480612ee35750612ee2828b8d613330565b5b15612f0457828360018b8061ffff169050965096509650965050505061307c565b5f6201518063ffffffff168b840363ffffffff1611612f3757819850620151808c0363ffffffff168b63ffffffff161490505b5f8d8a61ffff16620100008110612f5157612f50615179565b5b015f0160019054906101000a900463ffffffff169050612f72818d8f613330565b612fa8576040517f0bc60f1000000000000000000000000000000000000000000000000000000000815260040160405180910390fd5b8b63ffffffff168163ffffffff160361300b578d8a61ffff16620100008110612fd457612fd3615179565b5b018e8b61ffff16620100008110612fee57612fed615179565b5b0160018c8061ffff1690509850985098509850505050505061307c565b60018a0161ffff168b61ffff1603613053578d8a61ffff1662010000811061303657613035615179565b5b01855f8c8061ffff1690509850985098509850505050505061307c565b506130628d8d8d8d8d86613433565b809750819950829a5050505087875f975097509750505050505b95509550955095915050565b5f805f8061309b8b8b8b8b8b8b8b61348d565b9150915081818094508195505050505097509795505050505050565b6130bf613b0f565b5f8660200151860390506001875f01901515908115158152505085876020019063ffffffff16908163ffffffff16815250508063ffffffff168560020b02876040018181510191509060060b908160060b815250506131378163ffffffff168660020b8760020b8a60a0015160020b8860020b6135fe565b87606001818151019150906affffffffffffffffffffff1690816affffffffffffffffffffff168152505084876080019060020b908160020b81525050838760a0019060020b908160020b81525050828760c0019061ffff16908161ffff16815250508691505095945050505050565b5f8085870390505f805f6131be8b8b868a8a612e75565b509250925092505f80845f0160019054906101000a900463ffffffff16855f01600c9054906101000a90046affffffffffffffffffffff16915091508163ffffffff168663ffffffff160361321b57809650505050505050613326565b8215613285575f6132418e888d8d8d888c5f0160059054906101000a900460060b613088565b50905061327583880363ffffffff168c60020b8d60020b895f01601a9054906101000a900460020b60020b8560020b6135fe565b8201975050505050505050613326565b5f80855f0160019054906101000a900463ffffffff16865f01600c9054906101000a90046affffffffffffffffffffff16915091508163ffffffff168863ffffffff16036132dd578098505050505050505050613326565b5f80858403868b03915091508063ffffffff168263ffffffff168685036affffffffffffffffffffff168161331557613314615577565b5b040285019a50505050505050505050505b9695505050505050565b5f8163ffffffff168463ffffffff161190508163ffffffff168363ffffffff161115158115150361336e578263ffffffff168463ffffffff16111590505b9392505050565b5f818511156133d85781850394508361ffff16600602851061339d578261ffff16905061342b565b5f60048561ffff160a90505f6133b4878784613664565b9050808201818661ffff1602816133ce576133cd615577565b5b049250505061342a565b84820394508361ffff1660060285106133f3575f905061342b565b5f60048561ffff160a90505f61340a878784613664565b8201905080828661ffff16028161342457613423615577565b5b04925050505b5b949350505050565b5f805f808561ffff1690505f8661ffff168861ffff1610613458578761ffff16613463565b620100008861ffff16015b90506134738b8b8b85858b613821565b809550819650829750505050505096509650969350505050565b5f805f808a8761ffff166201000081106134aa576134a9615179565b5b015f0160019054906101000a900463ffffffff168b8861ffff166201000081106134d7576134d6615179565b5b015f0160059054906101000a900460060b915091505f868b0363ffffffff168a60020b028601905061350f83620151808d038d613330565b61357c578263ffffffff168b63ffffffff16036135415789888160020b91508061ffff169050945094505050506135f2565b828b0363ffffffff1660060b82820360060b8161356157613560615577565b5b05888160060b91508061ffff169050945094505050506135f2565b61358c87620151808d038d613330565b156135ac5789898160020b91508061ffff169050945094505050506135f2565b5f6135be8d8d620151808e8e8e6139ca565b80965081925050506201518063ffffffff1660060b81830360060b816135e7576135e6615577565b5b0560060b9550505050505b97509795505050505050565b5f808383038686030390505f878588030290505f60018901890290505f60018a600202018202905060028a0a6006026002840a8b600602028386866006020202836002880a0201018161365457613653615577565b5b0594505050505095945050505050565b5f80838504805f81146136a357600181146136b457600281146136c557600381146136d657600481146136e7576903248ca20bb7b5032f5f92506136f5565b68056bc75e2d6310000092506136f5565b680ebc5fb4174612111092506136f5565b68280e60114edb805d0392506136f5565b686ce2482d63ef54b74c92506136f5565b690127fa27722cc06cc5e392505b5084860695505060028461ffff168161371157613710615577565b5b0461ffff1685106137625760028461ffff168161373157613730615577565b5b0461ffff168503945068056bc75e2d631000006808f00f760a4b2db55c82028161375e5761375d615577565b5b0490505b5f8590508392508461ffff16848161377d5761377c615577565b5b049350838102830192508461ffff16848161379b5761379a615577565b5b04935085810290506002848202816137b6576137b5615577565b5b04830192508461ffff1684816137cf576137ce615577565b5b0493508581029050601886820260048761ffff1684020201816137f5576137f4615577565b5b048301925068056bc75e2d631000008284028161381557613814615577565b5b04925050509392505050565b5f805f83801561383357506002868603115b156138435760018601905061384d565b6001858701901c90505b888161ffff1662010000811061386657613865615179565b5b0192508291505f600190505b5f80855f015f9054906101000a900460ff16865f0160019054906101000a900463ffffffff16915091508115613949576138ad818b8d613330565b1561393d578b6001850161ffff166201000081106138ce576138cd615179565b5b0194505f80865f015f9054906101000a900460ff16875f0160019054906101000a900463ffffffff169150915081156139265761390c8c828f613330565b1561391b5750505050506139be565b600186019a50613936565b87889750975050505050506139be565b5050613944565b6001840397505b613950565b6001840198505b5f83801561395b5750875b80156139695750600185018a145b905080801561397a575060108a8a03115b1561398a5760088a019450613994565b6001898b01901c94505b8c8561ffff166201000081106139ad576139ac615179565b5b0196505f9350505050600161387257505b96509650969350505050565b5f805f86880390505f805f806139e38d8d878c8c612e75565b93509350935093505f80855f0160019054906101000a900463ffffffff16865f0160059054906101000a900460060b915091508163ffffffff168763ffffffff1603613a3b5780839850985050505050505050613b04565b8315613a625781870363ffffffff168c60020b028101839850985050505050505050613b04565b5f80865f0160019054906101000a900463ffffffff16875f0160059054906101000a900460060b915091508163ffffffff168963ffffffff1603613abe5780600186018061ffff1690509a509a50505050505050505050613b04565b5f80858403868c03915091508063ffffffff168263ffffffff1660060b86850360060b81613aef57613aee615577565b5b05028501879c509c5050505050505050505050505b965096945050505050565b6040518060e001604052805f151581526020015f63ffffffff1681526020015f60060b81526020015f6affffffffffffffffffffff1681526020015f60020b81526020015f60020b81526020015f61ffff1681525090565b5f73ffffffffffffffffffffffffffffffffffffffff82169050919050565b5f613b9082613b67565b9050919050565b613ba081613b86565b82525050565b5f602082019050613bb95f830184613b97565b92915050565b5f604051905090565b5f80fd5b5f80fd5b613bd981613b86565b8114613be3575f80fd5b50565b5f81359050613bf481613bd0565b92915050565b5f8115159050919050565b613c0e81613bfa565b8114613c18575f80fd5b50565b5f81359050613c2981613c05565b92915050565b5f819050919050565b613c4181613c2f565b8114613c4b575f80fd5b50565b5f81359050613c5c81613c38565b92915050565b613c6b81613b67565b8114613c75575f80fd5b50565b5f81359050613c8681613c62565b92915050565b5f80fd5b5f80fd5b5f80fd5b5f8083601f840112613cad57613cac613c8c565b5b8235905067ffffffffffffffff811115613cca57613cc9613c90565b5b602083019150836001820283011115613ce657613ce5613c94565b5b9250929050565b5f805f805f805f8060e0898b031215613d0957613d08613bc8565b5b5f613d168b828c01613be6565b9850506020613d278b828c01613be6565b9750506040613d388b828c01613c1b565b9650506060613d498b828c01613c4e565b9550506080613d5a8b828c01613c78565b94505060a0613d6b8b828c01613c1b565b93505060c089013567ffffffffffffffff811115613d8c57613d8b613bcc565b5b613d988b828c01613c98565b92509250509295985092959890939650565b5f7fffffffff0000000000000000000000000000000000000000000000000000000082169050919050565b613dde81613daa565b82525050565b5f62ffffff82169050919050565b613dfb81613de4565b82525050565b5f606082019050613e145f830186613dd5565b613e216020830185613df2565b613e2e6040830184613df2565b949350505050565b5f61ffff82169050919050565b613e4c81613e36565b82525050565b5f602082019050613e655f830184613e43565b92915050565b5f80fd5b5f60e08284031215613e8457613e83613e6b565b5b81905092915050565b5f60e08284031215613ea257613ea1613bc8565b5b5f613eaf84828501613e6f565b91505092915050565b5f63ffffffff82169050919050565b613ed081613eb8565b82525050565b5f60e082019050613ee95f83018a613e43565b613ef66020830189613e43565b613f036040830188613ec7565b613f106060830187613ec7565b613f1d6080830186613e43565b613f2a60a0830185613e43565b613f3760c0830184613e43565b98975050505050505050565b5f819050919050565b613f5581613f43565b82525050565b5f602082019050613f6e5f830184613f4c565b92915050565b5f819050919050565b613f8681613f74565b8114613f90575f80fd5b50565b5f81359050613fa181613f7d565b92915050565b5f805f805f805f8060e0898b031215613fc357613fc2613bc8565b5b5f613fd08b828c01613be6565b9850506020613fe18b828c01613be6565b9750506040613ff28b828c01613f93565b96505060606140038b828c01613f93565b95505060806140148b828c01613f93565b94505060a06140258b828c01613f93565b93505060c089013567ffffffffffffffff81111561404657614045613bcc565b5b6140528b828c01613c98565b92509250509295985092959890939650565b5f6020820190506140775f830184613dd5565b92915050565b61408681613bfa565b82525050565b5f60208201905061409f5f83018461407d565b92915050565b5f602082840312156140ba576140b9613bc8565b5b5f6140c784828501613f93565b91505092915050565b5f81519050919050565b5f82825260208201905092915050565b5f5b838110156141075780820151818401526020810190506140ec565b5f8484015250505050565b5f601f19601f8301169050919050565b5f61412c826140d0565b61413681856140da565b93506141468185602086016140ea565b61414f81614112565b840191505092915050565b5f6020820190508181035f8301526141728184614122565b905092915050565b5f8160020b9050919050565b61418f8161417a565b8114614199575f80fd5b50565b5f813590506141aa81614186565b92915050565b5f81600f0b9050919050565b6141c5816141b0565b81146141cf575f80fd5b50565b5f813590506141e0816141bc565b92915050565b5f805f805f805f60c0888a03121561420157614200613bc8565b5b5f61420e8a828b01613be6565b975050602061421f8a828b01613be6565b96505060406142308a828b0161419c565b95505060606142418a828b0161419c565b94505060806142528a828b016141d2565b93505060a088013567ffffffffffffffff81111561427357614272613bcc565b5b61427f8a828b01613c98565b925092505092959891949750929550565b5f6040820190506142a35f830185613dd5565b6142b06020830184613df2565b9392505050565b5f80604083850312156142cd576142cc613bc8565b5b5f6142da85828601613be6565b92505060206142eb85828601613c78565b9150509250929050565b5f60ff82169050919050565b61430a816142f5565b82525050565b5f6020820190506143235f830184614301565b92915050565b5f8160060b9050919050565b61433e81614329565b82525050565b5f6affffffffffffffffffffff82169050919050565b61436381614344565b82525050565b6143728161417a565b82525050565b5f60e08201905061438b5f83018a61407d565b6143986020830189613ec7565b6143a56040830188614335565b6143b2606083018761435a565b6143bf6080830186614369565b6143cc60a0830185614369565b6143d960c0830184613e43565b98975050505050505050565b5f602082840312156143fa576143f9613bc8565b5b5f61440784828501613be6565b91505092915050565b5f805f6060848603121561442757614426613bc8565b5b5f61443486828701613be6565b935050602061444586828701613c78565b92505060406144568682870161419c565b9150509250925092565b61446981613eb8565b8114614473575f80fd5b50565b5f8135905061448481614460565b92915050565b5f6020828403121561449f5761449e613bc8565b5b5f6144ac84828501614476565b91505092915050565b5f6040820190506144c85f830185614335565b6144d5602083018461435a565b9392505050565b5f805f805f8060a087890312156144f6576144f5613bc8565b5b5f61450389828a01613be6565b965050602061451489828a01613be6565b955050604061452589828a01613f93565b945050606061453689828a01613f93565b935050608087013567ffffffffffffffff81111561455757614556613bcc565b5b61456389828a01613c98565b92509250509295509295509295565b5f805f805f805f805f6101008a8c0312156145905761458f613bc8565b5b5f61459d8c828d01613be6565b99505060206145ae8c828d01613be6565b98505060406145bf8c828d01613c1b565b97505060606145d08c828d01613c4e565b96505060806145e18c828d01613c78565b95505060a06145f28c828d01613c4e565b94505060c06146038c828d01613c4e565b93505060e08a013567ffffffffffffffff81111561462457614623613bcc565b5b6146308c828d01613c98565b92509250509295985092959850929598565b7f4e487b71000000000000000000000000000000000000000000000000000000005f52604160045260245ffd5b61467882614112565b810181811067ffffffffffffffff8211171561469757614696614642565b5b80604052505050565b5f6146a9613bbf565b90506146b5828261466f565b919050565b5f67ffffffffffffffff8211156146d4576146d3614642565b5b602082029050602081019050919050565b5f6146f76146f2846146ba565b6146a0565b9050808382526020820190506020840283018581111561471a57614719613c94565b5b835b81811015614743578061472f8882614476565b84526020840193505060208101905061471c565b5050509392505050565b5f82601f83011261476157614760613c8c565b5b81356147718482602086016146e5565b91505092915050565b5f6020828403121561478f5761478e613bc8565b5b5f82013567ffffffffffffffff8111156147ac576147ab613bcc565b5b6147b88482850161474d565b91505092915050565b5f81519050919050565b5f82825260208201905092915050565b5f819050602082019050919050565b6147f381614329565b82525050565b5f61480483836147ea565b60208301905092915050565b5f602082019050919050565b5f614826826147c1565b61483081856147cb565b935061483b836147db565b805f5b8381101561486b57815161485288826147f9565b975061485d83614810565b92505060018101905061483e565b5085935050505092915050565b5f81519050919050565b5f82825260208201905092915050565b5f819050602082019050919050565b6148aa81614344565b82525050565b5f6148bb83836148a1565b60208301905092915050565b5f602082019050919050565b5f6148dd82614878565b6148e78185614882565b93506148f283614892565b805f5b8381101561492257815161490988826148b0565b9750614914836148c7565b9250506001810190506148f5565b5085935050505092915050565b5f6040820190508181035f830152614947818561481c565b9050818103602083015261495b81846148d3565b90509392505050565b5f806040838503121561497a57614979613bc8565b5b5f61498785828601613f93565b925050602061499885828601613f93565b9150509250929050565b5f81519050919050565b5f82825260208201905092915050565b5f819050602082019050919050565b5f82825260208201905092915050565b5f6149e5826140d0565b6149ef81856149cb565b93506149ff8185602086016140ea565b614a0881614112565b840191505092915050565b5f614a1e83836149db565b905092915050565b5f602082019050919050565b5f614a3c826149a2565b614a4681856149ac565b935083602082028501614a58856149bc565b805f5b85811015614a935784840389528151614a748582614a13565b9450614a7f83614a26565b925060208a01995050600181019050614a5b565b50829750879550505050505092915050565b5f6020820190508181035f830152614abd8184614a32565b905092915050565b5f805f805f805f805f6101008a8c031215614ae357614ae2613bc8565b5b5f614af08c828d01613be6565b9950506020614b018c828d01613be6565b9850506040614b128c828d0161419c565b9750506060614b238c828d0161419c565b9650506080614b348c828d016141d2565b95505060a0614b458c828d01613f93565b94505060c0614b568c828d01613f93565b93505060e08a013567ffffffffffffffff811115614b7757614b76613bcc565b5b614b838c828d01613c98565b92509250509295985092959850929598565b614b9e81613e36565b8114614ba8575f80fd5b50565b5f81359050614bb981614b95565b92915050565b5f8060408385031215614bd557614bd4613bc8565b5b5f614be285828601614bab565b9250506020614bf385828601614bab565b9150509250929050565b5f805f60608486031215614c1457614c13613bc8565b5b5f614c2186828701613be6565b9350506020614c3286828701613f93565b9250506040614c4386828701613be6565b9150509250925092565b5f602082019050614c605f830184613ec7565b92915050565b5f80fd5b5f60e08284031215614c7f57614c7e614c66565b5b614c8960e06146a0565b90505f614c9884828501614bab565b5f830152506020614cab84828501614bab565b6020830152506040614cbf84828501614476565b6040830152506060614cd384828501614476565b6060830152506080614ce784828501614bab565b60808301525060a0614cfb84828501614bab565b60a08301525060c0614d0f84828501614bab565b60c08301525092915050565b5f60e08284031215614d3057614d2f613bc8565b5b5f614d3d84828501614c6a565b91505092915050565b5f614d546020840184614bab565b905092915050565b614d6581613e36565b82525050565b5f614d796020840184614476565b905092915050565b614d8a81613eb8565b82525050565b60e08201614da05f830183614d46565b614dac5f850182614d5c565b50614dba6020830183614d46565b614dc76020850182614d5c565b50614dd56040830183614d6b565b614de26040850182614d81565b50614df06060830183614d6b565b614dfd6060850182614d81565b50614e0b6080830183614d46565b614e186080850182614d5c565b50614e2660a0830183614d46565b614e3360a0850182614d5c565b50614e4160c0830183614d46565b614e4e60c0850182614d5c565b50505050565b5f60e082019050614e675f830184614d90565b92915050565b7f4e487b71000000000000000000000000000000000000000000000000000000005f52602260045260245ffd5b5f6002820490506001821680614eb157607f821691505b602082108103614ec457614ec3614e6d565b5b50919050565b5f81519050614ed881613bd0565b92915050565b5f60208284031215614ef357614ef2613bc8565b5b5f614f0084828501614eca565b91505092915050565b7f4e6f7420616c6c6f77656420746f2073657420696e63656e74697665000000005f82015250565b5f614f3d601c836140da565b9150614f4882614f09565b602082019050919050565b5f6020820190508181035f830152614f6a81614f31565b9050919050565b7f506c7567696e206e6f74206174746163686564000000000000000000000000005f82015250565b5f614fa56013836140da565b9150614fb082614f71565b602082019050919050565b5f6020820190508181035f830152614fd281614f99565b9050919050565b7f416c7265616479206163746976650000000000000000000000000000000000005f82015250565b5f61500d600e836140da565b915061501882614fd9565b602082019050919050565b5f6020820190508181035f83015261503a81615001565b9050919050565b7f4861732061637469766520696e63656e746976650000000000000000000000005f82015250565b5f6150756014836140da565b915061508082615041565b602082019050919050565b5f6020820190508181035f8301526150a281615069565b9050919050565b7f416c726561647920696e697469616c697a6564000000000000000000000000005f82015250565b5f6150dd6013836140da565b91506150e8826150a9565b602082019050919050565b5f6020820190508181035f83015261510a816150d1565b9050919050565b7f506f6f6c206973206e6f7420696e697469616c697a65640000000000000000005f82015250565b5f6151456017836140da565b915061515082615111565b602082019050919050565b5f6020820190508181035f83015261517281615139565b9050919050565b7f4e487b71000000000000000000000000000000000000000000000000000000005f52603260045260245ffd5b7f4e487b71000000000000000000000000000000000000000000000000000000005f52601160045260245ffd5b5f6151dd82613f74565b91507fffffffffffffffffffffffffffffffffffffffffffffffffffffffffffffffff820361520f5761520e6151a6565b5b600182019050919050565b5f61522482613e36565b915061522f83613e36565b9250828203905061ffff811115615249576152486151a6565b5b92915050565b7f4f6e6c7920706f6f6c2063616e2063616c6c20746869730000000000000000005f82015250565b5f6152836017836140da565b915061528e8261524f565b602082019050919050565b5f6020820190508181035f8301526152b081615277565b9050919050565b7f4e6f7420696e697469616c697a656400000000000000000000000000000000005f82015250565b5f6152eb600f836140da565b91506152f6826152b7565b602082019050919050565b5f6020820190508181035f830152615318816152df565b9050919050565b5f6040820190506153325f830185613f4c565b61533f6020830184613b97565b9392505050565b5f8151905061535481613c05565b92915050565b5f6020828403121561536f5761536e613bc8565b5b5f61537c84828501615346565b91505092915050565b5f61538f82613f74565b915061539a83613f74565b92508282019050808211156153b2576153b16151a6565b5b92915050565b7f4d617820666565206578636565646564000000000000000000000000000000005f82015250565b5f6153ec6010836140da565b91506153f7826153b8565b602082019050919050565b5f6020820190508181035f830152615419816153e0565b9050919050565b7f47616d6d6173206d757374206265203e203000000000000000000000000000005f82015250565b5f6154546012836140da565b915061545f82615420565b602082019050919050565b5f6020820190508181035f83015261548181615448565b9050919050565b5f8151905061549681613c62565b92915050565b5f815190506154aa81614186565b92915050565b5f815190506154be81614b95565b92915050565b6154cd816142f5565b81146154d7575f80fd5b50565b5f815190506154e8816154c4565b92915050565b5f805f805f8060c0878903121561550857615507613bc8565b5b5f61551589828a01615488565b965050602061552689828a0161549c565b955050604061553789828a016154b0565b945050606061554889828a016154da565b935050608061555989828a016154b0565b92505060a061556a89828a01615346565b9150509295509295509295565b7f4e487b71000000000000000000000000000000000000000000000000000000005f52601260045260245ffd5b5f6040820190506155b75f830185614369565b6155c4602083018461407d565b9392505050565b7f4e487b71000000000000000000000000000000000000000000000000000000005f52600160045260245ffd","linkReferences":{}},"methodIdentifiers":{"ALGEBRA_CUSTOM_PLUGIN_ADMINISTRATOR()":"4d5abbc2","afterCreatePoolHook(address,address,address)":"8d5ef8d1","algebraFactory()":"a7b64b04","beforeCreatePoolHook(address,address,address,address,address,bytes)":"1d0338d9","cdsFactory()":"979ebba8","collateralFilter()":"060358b1","createCustomPool(address,address,address,bytes)":"819dbd89","defaultFeeConfiguration()":"4e09a96a","entryPoint()":"b0d691fe","farmingAddress()":"8a2ade58","getBusinessCountryById(bytes32)":"03afc66b","getCreditAssesmentCollateral(bytes32,bytes32,bytes32)":"33221c00","getCreditAssesmentMetrics(bytes32,bytes32,bytes32)":"3ba49edd","getTotalCountries()":"acf75458","onUserDataHook(bytes)":"f47e8efa","pluginByPool(address)":"cdef16f6","setDefaultFeeConfiguration((uint16,uint16,uint32,uint32,uint16,uint16,uint16))":"f718949a","setFarmingAddress(address)":"b001f618"},"id":191}