{"abi":[{"type":"constructor","inputs":[{"name":"_cdsFactory","type":"address","internalType":"contract ICDSFactory"}],"stateMutability":"nonpayable"},{"type":"function","name":"afterCreatePoolHook","inputs":[{"name":"plugin","type":"address","internalType":"address"},{"name":"pool","type":"address","internalType":"address"},{"name":"deployer","type":"address","internalType":"address"}],"outputs":[],"stateMutability":"nonpayable"},{"type":"function","name":"beforeCreatePoolHook","inputs":[{"name":"pool","type":"address","internalType":"address"},{"name":"creator","type":"address","internalType":"address"},{"name":"deployer","type":"address","internalType":"address"},{"name":"token0","type":"address","internalType":"address"},{"name":"token1","type":"address","internalType":"address"},{"name":"data","type":"bytes","internalType":"bytes"}],"outputs":[{"name":"","type":"address","internalType":"address"}],"stateMutability":"nonpayable"},{"type":"function","name":"cdsFactory","inputs":[],"outputs":[{"name":"","type":"address","internalType":"contract ICDSFactory"}],"stateMutability":"view"},{"type":"function","name":"createCustomPool","inputs":[{"name":"deployer","type":"address","internalType":"address"},{"name":"creator","type":"address","internalType":"address"},{"name":"tokenA","type":"address","internalType":"address"},{"name":"tokenB","type":"address","internalType":"address"},{"name":"data","type":"bytes","internalType":"bytes"}],"outputs":[{"name":"customPool","type":"address","internalType":"address"}],"stateMutability":"nonpayable"},{"type":"function","name":"factory","inputs":[],"outputs":[{"name":"","type":"address","internalType":"address"}],"stateMutability":"view"},{"type":"function","name":"onUserDataHook","inputs":[{"name":"userData","type":"bytes","internalType":"bytes"}],"outputs":[],"stateMutability":"nonpayable"},{"type":"function","name":"setFee","inputs":[{"name":"pool","type":"address","internalType":"address"},{"name":"newFee","type":"uint16","internalType":"uint16"}],"outputs":[],"stateMutability":"nonpayable"},{"type":"function","name":"setPlugin","inputs":[{"name":"pool","type":"address","internalType":"address"},{"name":"newPluginAddress","type":"address","internalType":"address"}],"outputs":[],"stateMutability":"nonpayable"},{"type":"function","name":"setPluginConfig","inputs":[{"name":"pool","type":"address","internalType":"address"},{"name":"newConfig","type":"uint8","internalType":"uint8"}],"outputs":[],"stateMutability":"nonpayable"},{"type":"function","name":"setTickSpacing","inputs":[{"name":"pool","type":"address","internalType":"address"},{"name":"newTickSpacing","type":"int24","internalType":"int24"}],"outputs":[],"stateMutability":"nonpayable"}],"bytecode":{"object":"0x60c060405234801562000010575f80fd5b506040516200287d3803806200287d8339818101604052810190620000369190620001c6565b8073ffffffffffffffffffffffffffffffffffffffff1663a7b64b046040518163ffffffff1660e01b8152600401602060405180830381865afa15801562000080573d5f803e3d5ffd5b505050506040513d601f19601f82011682018060405250810190620000a6919062000225565b5f73ffffffffffffffffffffffffffffffffffffffff168173ffffffffffffffffffffffffffffffffffffffff1603620000de575f80fd5b8073ffffffffffffffffffffffffffffffffffffffff1660808173ffffffffffffffffffffffffffffffffffffffff1681525050508073ffffffffffffffffffffffffffffffffffffffff1660a08173ffffffffffffffffffffffffffffffffffffffff16815250505062000255565b5f80fd5b5f73ffffffffffffffffffffffffffffffffffffffff82169050919050565b5f6200017d8262000152565b9050919050565b5f620001908262000171565b9050919050565b620001a28162000184565b8114620001ad575f80fd5b50565b5f81519050620001c08162000197565b92915050565b5f60208284031215620001de57620001dd6200014e565b5b5f620001ed84828501620001b0565b91505092915050565b620002018162000171565b81146200020c575f80fd5b50565b5f815190506200021f81620001f6565b92915050565b5f602082840312156200023d576200023c6200014e565b5b5f6200024c848285016200020f565b91505092915050565b60805160a0516125e36200029a5f395f8181610563015261073b01525f818161025c01528181610466015281816105870152818161061a015261094601526125e35ff3fe608060405234801561000f575f80fd5b506004361061009c575f3560e01c8063979ebba811610064578063979ebba814610140578063c45a01551461015e578063dbbf3db41461017c578063f47e8efa146101ac578063f9f4c09a146101c85761009c565b8063054bee3d146100a05780631d0338d9146100bc578063337f3a31146100ec5780634bf092cd146101085780638d5ef8d114610124575b5f80fd5b6100ba60048036038101906100b591906111c9565b6101e4565b005b6100d660048036038101906100d19190611268565b610259565b6040516100e39190611321565b60405180910390f35b61010660048036038101906101019190611371565b61037a565b005b610122600480360381019061011d91906113e5565b6103ef565b005b61013e60048036038101906101399190611423565b610464565b005b610148610561565b60405161015591906114ce565b60405180910390f35b610166610585565b6040516101739190611321565b60405180910390f35b610196600480360381019061019191906114e7565b6105a9565b6040516101a39190611321565b60405180910390f35b6101c660048036038101906101c191906116b5565b6106c7565b005b6101e260048036038101906101dd91906116fc565b6107ef565b005b816101ee81610864565b8273ffffffffffffffffffffffffffffffffffffffff1663bca57f81836040518263ffffffff1660e01b81526004016102279190611749565b5f604051808303815f87803b15801561023e575f80fd5b505af1158015610250573d5f803e3d5ffd5b50505050505050565b5f7f000000000000000000000000000000000000000000000000000000000000000073ffffffffffffffffffffffffffffffffffffffff163373ffffffffffffffffffffffffffffffffffffffff16146102e8576040517f08c379a00000000000000000000000000000000000000000000000000000000081526004016102df906117bc565b60405180910390fd5b8573ffffffffffffffffffffffffffffffffffffffff16631d0338d9898989898989896040518863ffffffff1660e01b815260040161032d9796959493929190611816565b6020604051808303815f875af1158015610349573d5f803e3d5ffd5b505050506040513d601f19601f8201168201806040525081019061036d9190611892565b9050979650505050505050565b8161038481610864565b8273ffffffffffffffffffffffffffffffffffffffff16638e005553836040518263ffffffff1660e01b81526004016103bd91906118cc565b5f604051808303815f87803b1580156103d4575f80fd5b505af11580156103e6573d5f803e3d5ffd5b50505050505050565b816103f981610864565b8273ffffffffffffffffffffffffffffffffffffffff1663f085a610836040518263ffffffff1660e01b815260040161043291906118f4565b5f604051808303815f87803b158015610449575f80fd5b505af115801561045b573d5f803e3d5ffd5b50505050505050565b7f000000000000000000000000000000000000000000000000000000000000000073ffffffffffffffffffffffffffffffffffffffff163373ffffffffffffffffffffffffffffffffffffffff16146104f2576040517f08c379a00000000000000000000000000000000000000000000000000000000081526004016104e9906117bc565b60405180910390fd5b8073ffffffffffffffffffffffffffffffffffffffff16638d5ef8d18484846040518463ffffffff1660e01b815260040161052f9392919061190d565b5f604051808303815f87803b158015610546575f80fd5b505af1158015610558573d5f803e3d5ffd5b50505050505050565b7f000000000000000000000000000000000000000000000000000000000000000081565b7f000000000000000000000000000000000000000000000000000000000000000081565b5f8673ffffffffffffffffffffffffffffffffffffffff163373ffffffffffffffffffffffffffffffffffffffff1614610618576040517f08c379a000000000000000000000000000000000000000000000000000000000815260040161060f9061198c565b60405180910390fd5b7f000000000000000000000000000000000000000000000000000000000000000073ffffffffffffffffffffffffffffffffffffffff1663dbbf3db48888888888886040518763ffffffff1660e01b815260040161067b969594939291906119aa565b6020604051808303815f875af1158015610697573d5f803e3d5ffd5b505050506040513d601f19601f820116820180604052508101906106bb9190611892565b90509695505050505050565b5f818060200190518101906106dc9190611c76565b90505f808260a001518360c00151915091505f6106f884610a52565b90508060085f866040015181526020019081526020015f205f820151815f01556020820151816001015560408201518160020155606082015181600301559050507f000000000000000000000000000000000000000000000000000000000000000073ffffffffffffffffffffffffffffffffffffffff1663f5491ae88484875f015188602001518960400151876040518763ffffffff1660e01b81526004016107a796959493929190611d6a565b6020604051808303815f875af11580156107c3573d5f803e3d5ffd5b505050506040513d601f19601f820116820180604052508101906107e79190611e05565b505050505050565b816107f981610864565b8273ffffffffffffffffffffffffffffffffffffffff1663cc1f97cf836040518263ffffffff1660e01b81526004016108329190611321565b5f604051808303815f87803b158015610849575f80fd5b505af115801561085b573d5f803e3d5ffd5b50505050505050565b5f8173ffffffffffffffffffffffffffffffffffffffff16630dfe16816040518163ffffffff1660e01b8152600401602060405180830381865afa1580156108ae573d5f803e3d5ffd5b505050506040513d601f19601f820116820180604052508101906108d29190611892565b90505f8273ffffffffffffffffffffffffffffffffffffffff1663d21220a76040518163ffffffff1660e01b8152600401602060405180830381865afa15801561091e573d5f803e3d5ffd5b505050506040513d601f19601f820116820180604052508101906109429190611892565b90507f000000000000000000000000000000000000000000000000000000000000000073ffffffffffffffffffffffffffffffffffffffff166323da36cc3384846040518463ffffffff1660e01b81526004016109a19392919061190d565b602060405180830381865afa1580156109bc573d5f803e3d5ffd5b505050506040513d601f19601f820116820180604052508101906109e09190611892565b73ffffffffffffffffffffffffffffffffffffffff168373ffffffffffffffffffffffffffffffffffffffff1614610a4d576040517f08c379a0000000000000000000000000000000000000000000000000000000008152600401610a449061198c565b60405180910390fd5b505050565b610a5a611104565b6040518060800160405280610a85846102000151856102200151866102400151876102600151610b03565b8152602001610aaa846102800151856102a00151866102c00151876102e00151610c64565b8152602001610ad5846101600151856101800151866101a00151876101c00151886101e00151610dec565b8152602001610af98460e00151856101000151866101200151876101400151610fa3565b8152509050919050565b5f808560ff1690505f8560ff1690505f8560ff1690505f8560ff1690506064841115610b64576040517f08c379a0000000000000000000000000000000000000000000000000000000008152600401610b5b90611e7a565b60405180910390fd5b6064831115610ba8576040517f08c379a0000000000000000000000000000000000000000000000000000000008152600401610b9f90611ee2565b60405180910390fd5b6064821115610bec576040517f08c379a0000000000000000000000000000000000000000000000000000000008152600401610be390611f4a565b60405180910390fd5b6064811115610c30576040517f08c379a0000000000000000000000000000000000000000000000000000000008152600401610c2790611fb2565b60405180910390fd5b5f8085901b81179050600884901b81179050601083901b81179050601882901b811790508095505050505050949350505050565b5f808560ff1690505f8560ff1690505f8560ff1690505f8560ff1690506064841115610cc5576040517f08c379a0000000000000000000000000000000000000000000000000000000008152600401610cbc9061201a565b60405180910390fd5b60018310158015610cd7575060058311155b610d16576040517f08c379a0000000000000000000000000000000000000000000000000000000008152600401610d0d906120a8565b60405180910390fd5b60018210158015610d28575060058211155b610d67576040517f08c379a0000000000000000000000000000000000000000000000000000000008152600401610d5e90612136565b60405180910390fd5b60018110158015610d79575060058111155b610db8576040517f08c379a0000000000000000000000000000000000000000000000000000000008152600401610daf9061219e565b60405180910390fd5b5f8085901b81179050600884901b81179050600b83901b81179050600e82901b811790508095505050505050949350505050565b5f808660ff1690505f8660ff1690505f8660ff1690505f8660ff1690505f8660ff1690506064851115610e54576040517f08c379a0000000000000000000000000000000000000000000000000000000008152600401610e4b90612206565b60405180910390fd5b6064841115610e98576040517f08c379a0000000000000000000000000000000000000000000000000000000008152600401610e8f90612294565b60405180910390fd5b6064831115610edc576040517f08c379a0000000000000000000000000000000000000000000000000000000008152600401610ed390612322565b60405180910390fd5b6064821115610f20576040517f08c379a0000000000000000000000000000000000000000000000000000000008152600401610f179061238a565b60405180910390fd5b6064811115610f64576040517f08c379a0000000000000000000000000000000000000000000000000000000008152600401610f5b90612418565b60405180910390fd5b5f8086901b81179050600885901b81179050601084901b81179050601883901b81179050602082901b8117905080965050505050505095945050505050565b5f808560ff1690505f8560ff1690505f8560ff1690505f8560ff1690506064841115611004576040517f08c379a0000000000000000000000000000000000000000000000000000000008152600401610ffb90612480565b60405180910390fd5b6064831115611048576040517f08c379a000000000000000000000000000000000000000000000000000000000815260040161103f906124e8565b60405180910390fd5b606482111561108c576040517f08c379a000000000000000000000000000000000000000000000000000000000815260040161108390612550565b60405180910390fd5b60648111156110d0576040517f08c379a00000000000000000000000000000000000000000000000000000000081526004016110c7906125b8565b60405180910390fd5b5f8085901b81179050600884901b81179050601083901b81179050601882901b811790508095505050505050949350505050565b60405180608001604052805f81526020015f81526020015f81526020015f81525090565b5f604051905090565b5f80fd5b5f80fd5b5f73ffffffffffffffffffffffffffffffffffffffff82169050919050565b5f61116282611139565b9050919050565b61117281611158565b811461117c575f80fd5b50565b5f8135905061118d81611169565b92915050565b5f60ff82169050919050565b6111a881611193565b81146111b2575f80fd5b50565b5f813590506111c38161119f565b92915050565b5f80604083850312156111df576111de611131565b5b5f6111ec8582860161117f565b92505060206111fd858286016111b5565b9150509250929050565b5f80fd5b5f80fd5b5f80fd5b5f8083601f84011261122857611227611207565b5b8235905067ffffffffffffffff8111156112455761124461120b565b5b6020830191508360018202830111156112615761126061120f565b5b9250929050565b5f805f805f805f60c0888a03121561128357611282611131565b5b5f6112908a828b0161117f565b97505060206112a18a828b0161117f565b96505060406112b28a828b0161117f565b95505060606112c38a828b0161117f565b94505060806112d48a828b0161117f565b93505060a088013567ffffffffffffffff8111156112f5576112f4611135565b5b6113018a828b01611213565b925092505092959891949750929550565b61131b81611158565b82525050565b5f6020820190506113345f830184611312565b92915050565b5f61ffff82169050919050565b6113508161133a565b811461135a575f80fd5b50565b5f8135905061136b81611347565b92915050565b5f806040838503121561138757611386611131565b5b5f6113948582860161117f565b92505060206113a58582860161135d565b9150509250929050565b5f8160020b9050919050565b6113c4816113af565b81146113ce575f80fd5b50565b5f813590506113df816113bb565b92915050565b5f80604083850312156113fb576113fa611131565b5b5f6114088582860161117f565b9250506020611419858286016113d1565b9150509250929050565b5f805f6060848603121561143a57611439611131565b5b5f6114478682870161117f565b93505060206114588682870161117f565b92505060406114698682870161117f565b9150509250925092565b5f819050919050565b5f61149661149161148c84611139565b611473565b611139565b9050919050565b5f6114a78261147c565b9050919050565b5f6114b88261149d565b9050919050565b6114c8816114ae565b82525050565b5f6020820190506114e15f8301846114bf565b92915050565b5f805f805f8060a0878903121561150157611500611131565b5b5f61150e89828a0161117f565b965050602061151f89828a0161117f565b955050604061153089828a0161117f565b945050606061154189828a0161117f565b935050608087013567ffffffffffffffff81111561156257611561611135565b5b61156e89828a01611213565b92509250509295509295509295565b5f80fd5b5f601f19601f8301169050919050565b7f4e487b71000000000000000000000000000000000000000000000000000000005f52604160045260245ffd5b6115c782611581565b810181811067ffffffffffffffff821117156115e6576115e5611591565b5b80604052505050565b5f6115f8611128565b905061160482826115be565b919050565b5f67ffffffffffffffff82111561162357611622611591565b5b61162c82611581565b9050602081019050919050565b828183375f83830152505050565b5f61165961165484611609565b6115ef565b9050828152602081018484840111156116755761167461157d565b5b611680848285611639565b509392505050565b5f82601f83011261169c5761169b611207565b5b81356116ac848260208601611647565b91505092915050565b5f602082840312156116ca576116c9611131565b5b5f82013567ffffffffffffffff8111156116e7576116e6611135565b5b6116f384828501611688565b91505092915050565b5f806040838503121561171257611711611131565b5b5f61171f8582860161117f565b92505060206117308582860161117f565b9150509250929050565b61174381611193565b82525050565b5f60208201905061175c5f83018461173a565b92915050565b5f82825260208201905092915050565b7f4f6e6c7920666163746f727900000000000000000000000000000000000000005f82015250565b5f6117a6600c83611762565b91506117b182611772565b602082019050919050565b5f6020820190508181035f8301526117d38161179a565b9050919050565b5f82825260208201905092915050565b5f6117f583856117da565b9350611802838584611639565b61180b83611581565b840190509392505050565b5f60c0820190506118295f83018a611312565b6118366020830189611312565b6118436040830188611312565b6118506060830187611312565b61185d6080830186611312565b81810360a08301526118708184866117ea565b905098975050505050505050565b5f8151905061188c81611169565b92915050565b5f602082840312156118a7576118a6611131565b5b5f6118b48482850161187e565b91505092915050565b6118c68161133a565b82525050565b5f6020820190506118df5f8301846118bd565b92915050565b6118ee816113af565b82525050565b5f6020820190506119075f8301846118e5565b92915050565b5f6060820190506119205f830186611312565b61192d6020830185611312565b61193a6040830184611312565b949350505050565b7f4f6e6c79206465706c6f796572000000000000000000000000000000000000005f82015250565b5f611976600d83611762565b915061198182611942565b602082019050919050565b5f6020820190508181035f8301526119a38161196a565b9050919050565b5f60a0820190506119bd5f830189611312565b6119ca6020830188611312565b6119d76040830187611312565b6119e46060830186611312565b81810360808301526119f78184866117ea565b9050979650505050505050565b5f80fd5b5f819050919050565b611a1a81611a08565b8114611a24575f80fd5b50565b5f81519050611a3581611a11565b92915050565b5f81519050611a498161119f565b92915050565b5f6103008284031215611a6557611a64611a04565b5b611a706103006115ef565b90505f611a7f84828501611a27565b5f830152506020611a9284828501611a27565b6020830152506040611aa684828501611a27565b6040830152506060611aba8482850161187e565b6060830152506080611ace84828501611a3b565b60808301525060a0611ae28482850161187e565b60a08301525060c0611af68482850161187e565b60c08301525060e0611b0a84828501611a3b565b60e083015250610100611b1f84828501611a3b565b61010083015250610120611b3584828501611a3b565b61012083015250610140611b4b84828501611a3b565b61014083015250610160611b6184828501611a3b565b61016083015250610180611b7784828501611a3b565b610180830152506101a0611b8d84828501611a3b565b6101a0830152506101c0611ba384828501611a3b565b6101c0830152506101e0611bb984828501611a3b565b6101e083015250610200611bcf84828501611a3b565b61020083015250610220611be584828501611a3b565b61022083015250610240611bfb84828501611a3b565b61024083015250610260611c1184828501611a3b565b61026083015250610280611c2784828501611a3b565b610280830152506102a0611c3d84828501611a3b565b6102a0830152506102c0611c5384828501611a3b565b6102c0830152506102e0611c6984828501611a3b565b6102e08301525092915050565b5f6103008284031215611c8c57611c8b611131565b5b5f611c9984828501611a4f565b91505092915050565b611cab81611a08565b82525050565b5f819050919050565b5f611cd4611ccf611cca84611cb1565b611473565b611cb1565b9050919050565b611ce481611cba565b82525050565b611cf381611cba565b82525050565b611d0281611cba565b82525050565b611d1181611cba565b82525050565b608082015f820151611d2b5f850182611cdb565b506020820151611d3e6020850182611cea565b506040820151611d516040850182611cf9565b506060820151611d646060850182611d08565b50505050565b5f61012082019050611d7e5f830189611312565b611d8b6020830188611312565b611d986040830187611ca2565b611da56060830186611ca2565b611db26080830185611ca2565b611dbf60a0830184611d17565b979650505050505050565b5f611dd482611158565b9050919050565b611de481611dca565b8114611dee575f80fd5b50565b5f81519050611dff81611ddb565b92915050565b5f60208284031215611e1a57611e19611131565b5b5f611e2784828501611df1565b91505092915050565b7f4c69717569646974792073636f7265206f7574206f662072616e6765000000005f82015250565b5f611e64601c83611762565b9150611e6f82611e30565b602082019050919050565b5f6020820190508181035f830152611e9181611e58565b9050919050565b7f4c657665726167652073636f7265206f7574206f662072616e676500000000005f82015250565b5f611ecc601b83611762565b9150611ed782611e98565b602082019050919050565b5f6020820190508181035f830152611ef981611ec0565b9050919050565b7f4361736820666c6f772073636f7265206f7574206f662072616e6765000000005f82015250565b5f611f34601c83611762565b9150611f3f82611f00565b602082019050919050565b5f6020820190508181035f830152611f6181611f28565b9050919050565b7f50726f6669746162696c6974792073636f7265206f7574206f662072616e67655f82015250565b5f611f9c602083611762565b9150611fa782611f68565b602082019050919050565b5f6020820190508181035f830152611fc981611f90565b9050919050565b7f4d61726b657420766f6c6174696c697479206f7574206f662072616e676500005f82015250565b5f612004601e83611762565b915061200f82611fd0565b602082019050919050565b5f6020820190508181035f83015261203181611ff8565b9050919050565b7f45636f6e6f6d6963206379636c6520706f736974696f6e206f7574206f6620725f8201527f616e676500000000000000000000000000000000000000000000000000000000602082015250565b5f612092602483611762565b915061209d82612038565b604082019050919050565b5f6020820190508181035f8301526120bf81612086565b9050919050565b7f526567756c61746f72792073746162696c697479206f7574206f662072616e675f8201527f6500000000000000000000000000000000000000000000000000000000000000602082015250565b5f612120602183611762565b915061212b826120c6565b604082019050919050565b5f6020820190508181035f83015261214d81612114565b9050919050565b7f536561736f6e616c697479206f7574206f662072616e676500000000000000005f82015250565b5f612188601883611762565b915061219382612154565b602082019050919050565b5f6020820190508181035f8301526121b58161217c565b9050919050565b7f427573696e657373206167652073636f7265206f7574206f662072616e6765005f82015250565b5f6121f0601f83611762565b91506121fb826121bc565b602082019050919050565b5f6020820190508181035f83015261221d816121e4565b9050919050565b7f526576656e75652073746162696c6974792073636f7265206f7574206f6620725f8201527f616e676500000000000000000000000000000000000000000000000000000000602082015250565b5f61227e602483611762565b915061228982612224565b604082019050919050565b5f6020820190508181035f8301526122ab81612272565b9050919050565b7f4d61726b657420706f736974696f6e2073636f7265206f7574206f662072616e5f8201527f6765000000000000000000000000000000000000000000000000000000000000602082015250565b5f61230c602283611762565b9150612317826122b2565b604082019050919050565b5f6020820190508181035f83015261233981612300565b9050919050565b7f496e647573747279207269736b2073636f7265206f7574206f662072616e67655f82015250565b5f612374602083611762565b915061237f82612340565b602082019050919050565b5f6020820190508181035f8301526123a181612368565b9050919050565b7f526567756c61746f727920636f6d706c69616e63652073636f7265206f7574205f8201527f6f662072616e6765000000000000000000000000000000000000000000000000602082015250565b5f612402602883611762565b915061240d826123a8565b604082019050919050565b5f6020820190508181035f83015261242f816123f6565b9050919050565b7f4372656469742073636f7265206f7574206f662072616e6765000000000000005f82015250565b5f61246a601983611762565b915061247582612436565b602082019050919050565b5f6020820190508181035f8301526124978161245e565b9050919050565b7f44656661756c742070726f626162696c697479206f7574206f662072616e67655f82015250565b5f6124d2602083611762565b91506124dd8261249e565b602082019050919050565b5f6020820190508181035f8301526124ff816124c6565b9050919050565b7f4c6f737320676976656e2064656661756c74206f7574206f662072616e6765005f82015250565b5f61253a601f83611762565b915061254582612506565b602082019050919050565b5f6020820190508181035f8301526125678161252e565b9050919050565b7f5265636f766572792072617465206f7574206f662072616e67650000000000005f82015250565b5f6125a2601a83611762565b91506125ad8261256e565b602082019050919050565b5f6020820190508181035f8301526125cf81612596565b905091905056fea164736f6c6343000814000a","linkReferences":{}},"methodIdentifiers":{"afterCreatePoolHook(address,address,address)":"8d5ef8d1","beforeCreatePoolHook(address,address,address,address,address,bytes)":"1d0338d9","cdsFactory()":"979ebba8","createCustomPool(address,address,address,address,bytes)":"dbbf3db4","factory()":"c45a0155","onUserDataHook(bytes)":"f47e8efa","setFee(address,uint16)":"337f3a31","setPlugin(address,address)":"f9f4c09a","setPluginConfig(address,uint8)":"054bee3d","setTickSpacing(address,int24)":"4bf092cd"},"id":89}