{"abi":[{"type":"constructor","inputs":[{"name":"_cdsFactory","type":"address","internalType":"contract ICDSFactory"}],"stateMutability":"nonpayable"},{"type":"function","name":"ALGEBRA_CUSTOM_PLUGIN_ADMINISTRATOR","inputs":[],"outputs":[{"name":"","type":"bytes32","internalType":"bytes32"}],"stateMutability":"view"},{"type":"function","name":"afterCreatePoolHook","inputs":[{"name":"","type":"address","internalType":"address"},{"name":"","type":"address","internalType":"address"},{"name":"","type":"address","internalType":"address"}],"outputs":[],"stateMutability":"view"},{"type":"function","name":"algebraFactory","inputs":[],"outputs":[{"name":"","type":"address","internalType":"address"}],"stateMutability":"view"},{"type":"function","name":"beforeCreatePoolHook","inputs":[{"name":"pool","type":"address","internalType":"address"},{"name":"","type":"address","internalType":"address"},{"name":"","type":"address","internalType":"address"},{"name":"","type":"address","internalType":"address"},{"name":"","type":"address","internalType":"address"},{"name":"","type":"bytes","internalType":"bytes"}],"outputs":[{"name":"","type":"address","internalType":"address"}],"stateMutability":"nonpayable"},{"type":"function","name":"cdsFactory","inputs":[],"outputs":[{"name":"","type":"address","internalType":"contract ICDSFactory"}],"stateMutability":"view"},{"type":"function","name":"cleanExpiredLocks","inputs":[{"name":"accountId","type":"uint128","internalType":"uint128"},{"name":"collateralType","type":"address","internalType":"address"},{"name":"offset","type":"uint256","internalType":"uint256"},{"name":"count","type":"uint256","internalType":"uint256"}],"outputs":[{"name":"cleared","type":"uint256","internalType":"uint256"},{"name":"remainingLockAmountD18","type":"uint256","internalType":"uint256"}],"stateMutability":"nonpayable"},{"type":"function","name":"createCustomPool","inputs":[{"name":"creator","type":"address","internalType":"address"},{"name":"tokenA","type":"address","internalType":"address"},{"name":"tokenB","type":"address","internalType":"address"},{"name":"data","type":"bytes","internalType":"bytes"}],"outputs":[{"name":"customPool","type":"address","internalType":"address"}],"stateMutability":"nonpayable"},{"type":"function","name":"createLock","inputs":[{"name":"accountId","type":"uint128","internalType":"uint128"},{"name":"collateralType","type":"address","internalType":"address"},{"name":"amount","type":"uint256","internalType":"uint256"},{"name":"expireTimestamp","type":"uint64","internalType":"uint64"}],"outputs":[],"stateMutability":"nonpayable"},{"type":"function","name":"defaultFeeConfiguration","inputs":[],"outputs":[{"name":"alpha1","type":"uint16","internalType":"uint16"},{"name":"alpha2","type":"uint16","internalType":"uint16"},{"name":"beta1","type":"uint32","internalType":"uint32"},{"name":"beta2","type":"uint32","internalType":"uint32"},{"name":"gamma1","type":"uint16","internalType":"uint16"},{"name":"gamma2","type":"uint16","internalType":"uint16"},{"name":"baseFee","type":"uint16","internalType":"uint16"}],"stateMutability":"view"},{"type":"function","name":"deposit","inputs":[{"name":"accountId","type":"uint128","internalType":"uint128"},{"name":"collateralType","type":"address","internalType":"address"},{"name":"tokenAmount","type":"uint256","internalType":"uint256"}],"outputs":[],"stateMutability":"nonpayable"},{"type":"function","name":"entryPoint","inputs":[],"outputs":[{"name":"","type":"address","internalType":"address"}],"stateMutability":"view"},{"type":"function","name":"farmingAddress","inputs":[],"outputs":[{"name":"","type":"address","internalType":"address"}],"stateMutability":"view"},{"type":"function","name":"getAccountAvailableCollateral","inputs":[{"name":"accountId","type":"uint128","internalType":"uint128"},{"name":"collateralType","type":"address","internalType":"address"}],"outputs":[{"name":"","type":"uint256","internalType":"uint256"}],"stateMutability":"view"},{"type":"function","name":"getAccountCollateral","inputs":[{"name":"accountId","type":"uint128","internalType":"uint128"},{"name":"collateralType","type":"address","internalType":"address"}],"outputs":[{"name":"totalDeposited","type":"uint256","internalType":"uint256"},{"name":"totalAssigned","type":"uint256","internalType":"uint256"},{"name":"totalLocked","type":"uint256","internalType":"uint256"}],"stateMutability":"view"},{"type":"function","name":"getLocks","inputs":[{"name":"accountId","type":"uint128","internalType":"uint128"},{"name":"collateralType","type":"address","internalType":"address"},{"name":"offset","type":"uint256","internalType":"uint256"},{"name":"count","type":"uint256","internalType":"uint256"}],"outputs":[{"name":"locks","type":"tuple[]","internalType":"struct CollateralLock.Data[]","components":[{"name":"amountD18","type":"uint128","internalType":"uint128"},{"name":"lockExpirationTime","type":"uint64","internalType":"uint64"}]}],"stateMutability":"view"},{"type":"function","name":"onUserDataHook","inputs":[{"name":"userData","type":"bytes","internalType":"bytes"}],"outputs":[],"stateMutability":"nonpayable"},{"type":"function","name":"pluginByPool","inputs":[{"name":"poolAddress","type":"address","internalType":"address"}],"outputs":[{"name":"pluginAddress","type":"address","internalType":"address"}],"stateMutability":"view"},{"type":"function","name":"setDefaultFeeConfiguration","inputs":[{"name":"newConfig","type":"tuple","internalType":"struct AlgebraFeeConfiguration","components":[{"name":"alpha1","type":"uint16","internalType":"uint16"},{"name":"alpha2","type":"uint16","internalType":"uint16"},{"name":"beta1","type":"uint32","internalType":"uint32"},{"name":"beta2","type":"uint32","internalType":"uint32"},{"name":"gamma1","type":"uint16","internalType":"uint16"},{"name":"gamma2","type":"uint16","internalType":"uint16"},{"name":"baseFee","type":"uint16","internalType":"uint16"}]}],"outputs":[],"stateMutability":"nonpayable"},{"type":"function","name":"setFarmingAddress","inputs":[{"name":"newFarmingAddress","type":"address","internalType":"address"}],"outputs":[],"stateMutability":"nonpayable"},{"type":"function","name":"withdraw","inputs":[{"name":"accountId","type":"uint128","internalType":"uint128"},{"name":"collateralType","type":"address","internalType":"address"},{"name":"tokenAmount","type":"uint256","internalType":"uint256"}],"outputs":[],"stateMutability":"nonpayable"},{"type":"event","name":"AccountLocksScaled","inputs":[{"name":"accountId","type":"uint128","indexed":false,"internalType":"uint128"},{"name":"collateralType","type":"address","indexed":false,"internalType":"address"},{"name":"totalDepositedD18","type":"uint256","indexed":false,"internalType":"uint256"},{"name":"totalLockedD18","type":"uint256","indexed":false,"internalType":"uint256"}],"anonymous":false},{"type":"event","name":"CollateralLockCreated","inputs":[{"name":"accountId","type":"uint128","indexed":true,"internalType":"uint128"},{"name":"collateralType","type":"address","indexed":true,"internalType":"address"},{"name":"tokenAmount","type":"uint256","indexed":false,"internalType":"uint256"},{"name":"expireTimestamp","type":"uint64","indexed":false,"internalType":"uint64"}],"anonymous":false},{"type":"event","name":"CollateralLockExpired","inputs":[{"name":"tokenAmount","type":"uint256","indexed":false,"internalType":"uint256"},{"name":"expireTimestamp","type":"uint64","indexed":false,"internalType":"uint64"}],"anonymous":false},{"type":"event","name":"CollateralLockExpired","inputs":[{"name":"tokenAmount","type":"uint256","indexed":false,"internalType":"uint256"},{"name":"expireTimestamp","type":"uint64","indexed":false,"internalType":"uint64"}],"anonymous":false},{"type":"event","name":"DefaultFeeConfiguration","inputs":[{"name":"newConfig","type":"tuple","indexed":false,"internalType":"struct AlgebraFeeConfiguration","components":[{"name":"alpha1","type":"uint16","internalType":"uint16"},{"name":"alpha2","type":"uint16","internalType":"uint16"},{"name":"beta1","type":"uint32","internalType":"uint32"},{"name":"beta2","type":"uint32","internalType":"uint32"},{"name":"gamma1","type":"uint16","internalType":"uint16"},{"name":"gamma2","type":"uint16","internalType":"uint16"},{"name":"baseFee","type":"uint16","internalType":"uint16"}]}],"anonymous":false},{"type":"event","name":"Deposited","inputs":[{"name":"accountId","type":"uint128","indexed":true,"internalType":"uint128"},{"name":"collateralType","type":"address","indexed":true,"internalType":"address"},{"name":"tokenAmount","type":"uint256","indexed":false,"internalType":"uint256"},{"name":"sender","type":"address","indexed":true,"internalType":"address"}],"anonymous":false},{"type":"event","name":"FarmingAddress","inputs":[{"name":"newFarmingAddress","type":"address","indexed":false,"internalType":"address"}],"anonymous":false},{"type":"event","name":"Withdrawn","inputs":[{"name":"accountId","type":"uint128","indexed":true,"internalType":"uint128"},{"name":"collateralType","type":"address","indexed":true,"internalType":"address"},{"name":"tokenAmount","type":"uint256","indexed":false,"internalType":"uint256"},{"name":"sender","type":"address","indexed":true,"internalType":"address"}],"anonymous":false},{"type":"error","name":"AccountActivityTimeoutPending","inputs":[{"name":"accountId","type":"uint128","internalType":"uint128"},{"name":"currentTime","type":"uint256","internalType":"uint256"},{"name":"requiredTime","type":"uint256","internalType":"uint256"}]},{"type":"error","name":"AccountNotFound","inputs":[{"name":"accountId","type":"uint128","internalType":"uint128"}]},{"type":"error","name":"CollateralDepositDisabled","inputs":[{"name":"collateralType","type":"address","internalType":"address"}]},{"type":"error","name":"CollateralNotFound","inputs":[]},{"type":"error","name":"DeprecatedDeposit","inputs":[]},{"type":"error","name":"EmptyRevertReason","inputs":[]},{"type":"error","name":"FailedTransfer","inputs":[{"name":"from","type":"address","internalType":"address"},{"name":"to","type":"address","internalType":"address"},{"name":"value","type":"uint256","internalType":"uint256"}]},{"type":"error","name":"FeatureUnavailable","inputs":[{"name":"which","type":"bytes32","internalType":"bytes32"}]},{"type":"error","name":"InsufficientAccountCollateral","inputs":[{"name":"amount","type":"uint256","internalType":"uint256"}]},{"type":"error","name":"InsufficientAllowance","inputs":[{"name":"required","type":"uint256","internalType":"uint256"},{"name":"existing","type":"uint256","internalType":"uint256"}]},{"type":"error","name":"InsufficientAvailableCollateral","inputs":[{"name":"amountAvailableForDelegationD18","type":"uint256","internalType":"uint256"},{"name":"amountD18","type":"uint256","internalType":"uint256"}]},{"type":"error","name":"InvalidParameter","inputs":[{"name":"parameter","type":"string","internalType":"string"},{"name":"reason","type":"string","internalType":"string"}]},{"type":"error","name":"OverflowInt256ToUint256","inputs":[]},{"type":"error","name":"OverflowUint256ToUint128","inputs":[]},{"type":"error","name":"OverflowUint256ToUint64","inputs":[]},{"type":"error","name":"PermissionDenied","inputs":[{"name":"accountId","type":"uint128","internalType":"uint128"},{"name":"permission","type":"bytes32","internalType":"bytes32"},{"name":"target","type":"address","internalType":"address"}]},{"type":"error","name":"PositionOutOfBounds","inputs":[]},{"type":"error","name":"PrecisionLost","inputs":[{"name":"tokenAmount","type":"uint256","internalType":"uint256"},{"name":"decimals","type":"uint8","internalType":"uint8"}]}],"bytecode":{"object":"0x60e060405234801562000010575f80fd5b506040516200da723803806200da7283398181016040528101906200003691906200039e565b8073ffffffffffffffffffffffffffffffffffffffff1663c45a01556040518163ffffffff1660e01b8152600401602060405180830381865afa15801562000080573d5f803e3d5ffd5b505050506040513d601f19601f82011682018060405250810190620000a69190620003fd565b818073ffffffffffffffffffffffffffffffffffffffff1660a08173ffffffffffffffffffffffffffffffffffffffff16815250508173ffffffffffffffffffffffffffffffffffffffff1660808173ffffffffffffffffffffffffffffffffffffffff16815250506200011f6200025460201b60201c565b5f80820151815f015f6101000a81548161ffff021916908361ffff1602179055506020820151815f0160026101000a81548161ffff021916908361ffff1602179055506040820151815f0160046101000a81548163ffffffff021916908363ffffffff1602179055506060820151815f0160086101000a81548163ffffffff021916908363ffffffff1602179055506080820151815f01600c6101000a81548161ffff021916908361ffff16021790555060a0820151815f01600e6101000a81548161ffff021916908361ffff16021790555060c0820151815f0160106101000a81548161ffff021916908361ffff16021790555090505050508073ffffffffffffffffffffffffffffffffffffffff1660c08173ffffffffffffffffffffffffffffffffffffffff168152505050620004a3565b6200025e620002d0565b6040518060e001604052806064610bb86200027a919062000467565b61ffff168152602001612ee061ffff16815260200161016863ffffffff16815260200161ea6063ffffffff168152602001603b61ffff16815260200161213461ffff168152602001606461ffff16815250905090565b6040518060e001604052805f61ffff1681526020015f61ffff1681526020015f63ffffffff1681526020015f63ffffffff1681526020015f61ffff1681526020015f61ffff1681526020015f61ffff1681525090565b5f80fd5b5f73ffffffffffffffffffffffffffffffffffffffff82169050919050565b5f62000355826200032a565b9050919050565b5f620003688262000349565b9050919050565b6200037a816200035c565b811462000385575f80fd5b50565b5f8151905062000398816200036f565b92915050565b5f60208284031215620003b657620003b562000326565b5b5f620003c58482850162000388565b91505092915050565b620003d98162000349565b8114620003e4575f80fd5b50565b5f81519050620003f781620003ce565b92915050565b5f6020828403121562000415576200041462000326565b5b5f6200042484828501620003e7565b91505092915050565b5f61ffff82169050919050565b7f4e487b71000000000000000000000000000000000000000000000000000000005f52601160045260245ffd5b5f62000473826200042d565b915062000480836200042d565b9250828203905061ffff8111156200049d576200049c6200043a565b5b92915050565b60805160a05160c05161d573620004ff5f395f8181610f6d015261147901525f8181610797015281816108b901528181610c0b015261138001525f8181610f91015281816111aa0152818161165f0152611df8015261d5735ff3fe608060405234801562000010575f80fd5b506004361062000146575f3560e01c806395997c5111620000bb578063b0d691fe1162000079578063b0d691fe14620003a9578063cdef16f614620003cb578063ef45148e1462000401578063f47e8efa1462000439578063f718949a14620004595762000146565b806395997c5114620002ef578063979ebba8146200030f578063a7b64b041462000331578063aa8c63691462000353578063b001f61814620003895762000146565b8063819dbd891162000109578063819dbd8914620002215780638380296814620002575780638a2ade5814620002775780638d5ef8d11462000299578063927482ff14620002b95762000146565b80630bae9893146200014a578063198f0aa1146200016a5780631d0338d914620001a15780634d5abbc214620001d75780634e09a96a14620001f9575b5f80fd5b62000168600480360381019062000162919062004252565b62000479565b005b620001886004803603810190620001829190620042c1565b62000726565b6040516200019892919062004341565b60405180910390f35b620001bf6004803603810190620001b99190620043d6565b62000794565b604051620001ce9190620044a3565b60405180910390f35b620001e162000805565b604051620001f09190620044d8565b60405180910390f35b6200020362000829565b60405162000218979695949392919062004531565b60405180910390f35b6200023f6004803603810190620002399190620045ac565b620008b6565b6040516200024e9190620044a3565b60405180910390f35b6200027560048036038101906200026f91906200463e565b6200096a565b005b6200028162000be4565b604051620002909190620044a3565b60405180910390f35b620002b76004803603810190620002b1919062004697565b62000c09565b005b620002d76004803603810190620002d19190620046f0565b62000c66565b604051620002e6919062004735565b60405180910390f35b6200030d60048036038101906200030791906200463e565b62000cbb565b005b6200031962000f6b565b604051620003289190620047b7565b60405180910390f35b6200033b62000f8f565b6040516200034a9190620044a3565b60405180910390f35b6200037160048036038101906200036b9190620042c1565b62000fb3565b604051620003809190620048db565b60405180910390f35b620003a76004803603810190620003a19190620048fd565b620011a8565b005b620003b36200137e565b604051620003c29190620044a3565b60405180910390f35b620003e96004803603810190620003e39190620048fd565b620013a2565b604051620003f89190620044a3565b60405180910390f35b6200041f6004803603810190620004199190620046f0565b620013d2565b60405162000430939291906200492d565b60405180910390f35b62000457600480360381019062000451919062004abc565b62001401565b005b62000477600480360381019062000471919062004b30565b6200165d565b005b5f620004a6857f41444d494e000000000000000000000000000000000000000000000000000000620017ca565b90505f80620004bf86846200185d90919063ffffffff16565b9250509150428467ffffffffffffffff161162000513576040517f97570e6e0000000000000000000000000000000000000000000000000000000081526004016200050a9062004c0c565b60405180910390fd5b5f850362000558576040517f97570e6e0000000000000000000000000000000000000000000000000000000081526004016200054f9062004cdd565b60405180910390fd5b808262000566919062004d3f565b851115620005ad57846040517f4c8cb9dc000000000000000000000000000000000000000000000000000000008152600401620005a4919062004735565b60405180910390fd5b826006015f8773ffffffffffffffffffffffffffffffffffffffff1673ffffffffffffffffffffffffffffffffffffffff1681526020019081526020015f206003016040518060400160405280620006058862001911565b6fffffffffffffffffffffffffffffffff1681526020018667ffffffffffffffff16815250908060018154018082558091505060019003905f5260205f20015f909190919091505f820151815f015f6101000a8154816fffffffffffffffffffffffffffffffff02191690836fffffffffffffffffffffffffffffffff1602179055506020820151815f0160106101000a81548167ffffffffffffffff021916908367ffffffffffffffff16021790555050508573ffffffffffffffffffffffffffffffffffffffff16876fffffffffffffffffffffffffffffffff167f8a78446a234220d3ee3f46aa6ea1ea5bc438bd153398ebcbd171843744b452a687876040516200071592919062004d8a565b60405180910390a350505050505050565b5f80620007878484620007398962001967565b6006015f8973ffffffffffffffffffffffffffffffffffffffff1673ffffffffffffffffffffffffffffffffffffffff1681526020019081526020015f206200199d9092919063ffffffff16565b9150915094509492505050565b5f7f000000000000000000000000000000000000000000000000000000000000000073ffffffffffffffffffffffffffffffffffffffff163373ffffffffffffffffffffffffffffffffffffffff1614620007ed575f80fd5b620007f88862001d26565b9050979650505050505050565b7fec8a6a270764e689b16a3725273ca1320d3efc3216fef95d3308f506fad489cf81565b5f805f015f9054906101000a900461ffff1690805f0160029054906101000a900461ffff1690805f0160049054906101000a900463ffffffff1690805f0160089054906101000a900463ffffffff1690805f01600c9054906101000a900461ffff1690805f01600e9054906101000a900461ffff1690805f0160109054906101000a900461ffff16905087565b5f7f000000000000000000000000000000000000000000000000000000000000000073ffffffffffffffffffffffffffffffffffffffff1663dbbf3db43088888888886040518763ffffffff1660e01b81526004016200091c9695949392919062004df7565b6020604051808303815f875af115801562000939573d5f803e3d5ffd5b505050506040513d601f19601f820116820180604052508101906200095f919062004e71565b905095945050505050565b620009957f6465706f7369740000000000000000000000000000000000000000000000000062001ed7565b620009a08262001f33565b620009ab8362001f94565b505f620009b88462001967565b90505f620009c562002044565b90505f3090505f8573ffffffffffffffffffffffffffffffffffffffff1663dd62ed3e84846040518363ffffffff1660e01b815260040162000a0992919062004ea1565b602060405180830381865afa15801562000a25573d5f803e3d5ffd5b505050506040513d601f19601f8201168201806040525081019062000a4b919062004ee2565b90508481101562000a975784816040517f2a1b2dd800000000000000000000000000000000000000000000000000000000815260040162000a8e92919062004341565b60405180910390fd5b62000ac68383878973ffffffffffffffffffffffffffffffffffffffff1662002084909392919063ffffffff16565b62000ae6865f66038d7ea4c67fff87620021ed909392919063ffffffff16565b5062000b5862000b0a8662000afb8962002495565b620024cb90919063ffffffff16565b856006015f8973ffffffffffffffffffffffffffffffffffffffff1673ffffffffffffffffffffffffffffffffffffffff1681526020019081526020015f20620026fb90919063ffffffff16565b62000b6262002044565b73ffffffffffffffffffffffffffffffffffffffff168673ffffffffffffffffffffffffffffffffffffffff16886fffffffffffffffffffffffffffffffff167fd92122e67326e9313bfae33ccb1fccf5194584c6bf93a8529a6b006d8c6e24a98860405162000bd3919062004735565b60405180910390a450505050505050565b60015f9054906101000a900473ffffffffffffffffffffffffffffffffffffffff1681565b7f000000000000000000000000000000000000000000000000000000000000000073ffffffffffffffffffffffffffffffffffffffff163373ffffffffffffffffffffffffffffffffffffffff161462000c61575f80fd5b505050565b5f62000c728362001967565b6006015f8373ffffffffffffffffffffffffffffffffffffffff1673ffffffffffffffffffffffffffffffffffffffff1681526020019081526020015f205f0154905092915050565b62000ce67f776974686472617700000000000000000000000000000000000000000000000062001ed7565b5f62000d3f847f574954484452415700000000000000000000000000000000000000000000000062000d397f6163636f756e7454696d656f75745769746864726177000000000000000000005f6200271a565b62002733565b90505f62000d618362000d528662002495565b620024cb90919063ffffffff16565b90505f805f62000d7b87866200185d90919063ffffffff16565b9250925092505f82821162000d91578262000d93565b815b90505f818562000da4919062004d3f565b90508086111562000dee57856040517f4c8cb9dc00000000000000000000000000000000000000000000000000000000815260040162000de5919062004735565b60405180910390fd5b62000e4186886006015f8c73ffffffffffffffffffffffffffffffffffffffff1673ffffffffffffffffffffffffffffffffffffffff1681526020019081526020015f206200298690919063ffffffff16565b8762000e6d308b73ffffffffffffffffffffffffffffffffffffffff16620029f590919063ffffffff16565b101562000ea6576040517ffca9ae0600000000000000000000000000000000000000000000000000000000815260040160405180910390fd5b62000edc62000eb462002044565b898b73ffffffffffffffffffffffffffffffffffffffff1662002a7b9092919063ffffffff16565b62000ee662002044565b73ffffffffffffffffffffffffffffffffffffffff168973ffffffffffffffffffffffffffffffffffffffff168b6fffffffffffffffffffffffffffffffff167f8b5f9d7ce522936589c630db08c0fa2405b21c4a5ff8ef19899900172736ba388b60405162000f57919062004735565b60405180910390a450505050505050505050565b7f000000000000000000000000000000000000000000000000000000000000000081565b7f000000000000000000000000000000000000000000000000000000000000000081565b60605f62000fc18662001967565b6006015f8673ffffffffffffffffffffffffffffffffffffffff1673ffffffffffffffffffffffffffffffffffffffff1681526020019081526020015f2060030190505f818054905090505f84148062001028575080848662001025919062004f12565b10155b156200104f578085106200103d575f6200104c565b84816200104b919062004d3f565b5b93505b8367ffffffffffffffff8111156200106c576200106b6200497c565b5b604051908082528060200260200182016040528015620010a957816020015b62001095620040b6565b8152602001906001900390816200108b5790505b5092505f5b848110156200119d57828187620010c6919062004f12565b81548110620010da57620010d962004f4c565b5b905f5260205f20016040518060400160405290815f82015f9054906101000a90046fffffffffffffffffffffffffffffffff166fffffffffffffffffffffffffffffffff166fffffffffffffffffffffffffffffffff1681526020015f820160109054906101000a900467ffffffffffffffff1667ffffffffffffffff1667ffffffffffffffff16815250508482815181106200117c576200117b62004f4c565b5b60200260200101819052508080620011949062004f79565b915050620010ae565b505050949350505050565b7f000000000000000000000000000000000000000000000000000000000000000073ffffffffffffffffffffffffffffffffffffffff1663e8ae2b697fec8a6a270764e689b16a3725273ca1320d3efc3216fef95d3308f506fad489cf336040518363ffffffff1660e01b81526004016200122592919062004fc5565b602060405180830381865afa15801562001241573d5f803e3d5ffd5b505050506040513d601f19601f820116820180604052508101906200126791906200502a565b620012a9576040517f08c379a0000000000000000000000000000000000000000000000000000000008152600401620012a090620050a8565b60405180910390fd5b8073ffffffffffffffffffffffffffffffffffffffff1660015f9054906101000a900473ffffffffffffffffffffffffffffffffffffffff1673ffffffffffffffffffffffffffffffffffffffff160362001302575f80fd5b8060015f6101000a81548173ffffffffffffffffffffffffffffffffffffffff021916908373ffffffffffffffffffffffffffffffffffffffff1602179055507f56b9e8342f530796ceed0d5529abdcdeae6e4f2ac1dc456ceb73bbda898e0cd381604051620013739190620044a3565b60405180910390a150565b7f000000000000000000000000000000000000000000000000000000000000000081565b6002602052805f5260405f205f915054906101000a900473ffffffffffffffffffffffffffffffffffffffff1681565b5f805f620013f484620013e58762001967565b6200185d90919063ffffffff16565b9250925092509250925092565b5f8180602001905181019062001418919062005392565b90505f808260a001518360c00151915091505f620014368462002be1565b905080600b5f866040015181526020019081526020015f205f820151815f01556020820151816001015560408201518160020155606082015181600301559050507f000000000000000000000000000000000000000000000000000000000000000073ffffffffffffffffffffffffffffffffffffffff1663f5491ae88484875f015188602001518960400151876040518763ffffffff1660e01b8152600401620014e79695949392919062005489565b6020604051808303815f875af115801562001504573d5f803e3d5ffd5b505050506040513d601f19601f820116820180604052508101906200152a919062005537565b50836020015160035f865f015181526020019081526020015f208190555062001567845f01518560400151600762002c9c9092919063ffffffff16565b506040518060400160405280856060015173ffffffffffffffffffffffffffffffffffffffff168152602001856080015160ff166004811115620015b057620015af62005567565b5b6004811115620015c557620015c462005567565b5b815250600a5f866040015181526020019081526020015f205f820151815f015f6101000a81548173ffffffffffffffffffffffffffffffffffffffff021916908373ffffffffffffffffffffffffffffffffffffffff1602179055506020820151815f0160146101000a81548160ff021916908360048111156200164e576200164d62005567565b5b02179055509050505050505050565b7f000000000000000000000000000000000000000000000000000000000000000073ffffffffffffffffffffffffffffffffffffffff1663e8ae2b697fec8a6a270764e689b16a3725273ca1320d3efc3216fef95d3308f506fad489cf336040518363ffffffff1660e01b8152600401620016da92919062004fc5565b602060405180830381865afa158015620016f6573d5f803e3d5ffd5b505050506040513d601f19601f820116820180604052508101906200171c91906200502a565b6200175e576040517f08c379a00000000000000000000000000000000000000000000000000000000081526004016200175590620050a8565b60405180910390fd5b6200177b81803603810190620017759190620056b6565b62002cd5565b805f81816200178b919062005b24565b9050507fe04232512a5cb82c08e0f9b1f51432930cd7a0b7ea9f9f916f080cb0b4ac644b81604051620017bf919062005c66565b60405180910390a150565b5f620017d68362001967565b9050620017fb82620017e762002044565b8360010162002db69092919063ffffffff16565b6200184c5782826200180c62002044565b6040517f01de5522000000000000000000000000000000000000000000000000000000008152600401620018439392919062005c92565b60405180910390fd5b620018578162002e5b565b92915050565b5f805f6200186c858562002e88565b9150846006015f8573ffffffffffffffffffffffffffffffffffffffff1673ffffffffffffffffffffffffffffffffffffffff1681526020019081526020015f205f015482620018bd919062004f12565b925062001908856006015f8673ffffffffffffffffffffffffffffffffffffffff1673ffffffffffffffffffffffffffffffffffffffff1681526020019081526020015f2062002f88565b90509250925092565b5f6fffffffffffffffffffffffffffffffff80168211156200195f576040517ffab0c95e00000000000000000000000000000000000000000000000000000000815260040160405180910390fd5b819050919050565b5f80826040516020016200197c919062005d1b565b60405160208183030381529060405280519060200120905080915050919050565b5f805f620019ab4262003068565b90505f86600301805490509050808610620019ce575f8093509350505062001d1e565b5f851480620019ea5750808587620019e7919062004f12565b10155b1562001a01578581620019fe919062004d3f565b94505b5f8690505f805b8781101562001cf8578467ffffffffffffffff168a600301848154811062001a355762001a3462004f4c565b5b905f5260205f20015f0160109054906101000a900467ffffffffffffffff1667ffffffffffffffff161162001c71577f8010cd0bb6d7e8c6b90d190ae9aa57b948406fc741828e4a12c68e31f1e705818a600301848154811062001a9e5762001a9d62004f4c565b5b905f5260205f20015f015f9054906101000a90046fffffffffffffffffffffffffffffffff168b600301858154811062001add5762001adc62004f4c565b5b905f5260205f20015f0160109054906101000a900467ffffffffffffffff1660405162001b0c92919062005d83565b60405180910390a18960030160018b6003018054905062001b2e919062004d3f565b8154811062001b425762001b4162004f4c565b5b905f5260205f20018a600301848154811062001b635762001b6262004f4c565b5b905f5260205f20015f82015f9054906101000a90046fffffffffffffffffffffffffffffffff16815f015f6101000a8154816fffffffffffffffffffffffffffffffff02191690836fffffffffffffffffffffffffffffffff1602179055505f820160109054906101000a900467ffffffffffffffff16815f0160106101000a81548167ffffffffffffffff021916908367ffffffffffffffff1602179055509050508960030180548062001c1d5762001c1c62005dae565b5b600190038181905f5260205f20015f8082015f6101000a8154906fffffffffffffffffffffffffffffffff02191690555f820160106101000a81549067ffffffffffffffff02191690555050905562001ce2565b89600301838154811062001c8a5762001c8962004f4c565b5b905f5260205f20015f015f9054906101000a90046fffffffffffffffffffffffffffffffff166fffffffffffffffffffffffffffffffff168262001ccf919062004f12565b9150828062001cde9062004f79565b9350505b808062001cef9062004f79565b91505062001a08565b5081878962001d08919062004f12565b62001d14919062004d3f565b8195509550505050505b935093915050565b5f8073ffffffffffffffffffffffffffffffffffffffff1660025f8473ffffffffffffffffffffffffffffffffffffffff1673ffffffffffffffffffffffffffffffffffffffff1681526020019081526020015f205f9054906101000a900473ffffffffffffffffffffffffffffffffffffffff1673ffffffffffffffffffffffffffffffffffffffff161462001df4576040517f08c379a000000000000000000000000000000000000000000000000000000000815260040162001deb9062005e29565b60405180910390fd5b5f827f0000000000000000000000000000000000000000000000000000000000000000305f60405162001e2790620040ea565b62001e36949392919062006050565b604051809103905ff08015801562001e50573d5f803e3d5ffd5b5090508060025f8573ffffffffffffffffffffffffffffffffffffffff1673ffffffffffffffffffffffffffffffffffffffff1681526020019081526020015f205f6101000a81548173ffffffffffffffffffffffffffffffffffffffff021916908373ffffffffffffffffffffffffffffffffffffffff16021790555080915050919050565b62001eec8162001ee662002044565b620030b6565b62001f3057806040517f7e023fb700000000000000000000000000000000000000000000000000000000815260040162001f279190620044d8565b60405180910390fd5b50565b62001f3e8162002495565b5f015f9054906101000a900460ff1662001f9157806040517fc109f9e800000000000000000000000000000000000000000000000000000000815260040162001f889190620044a3565b60405180910390fd5b50565b5f8062001fa18362001967565b90505f73ffffffffffffffffffffffffffffffffffffffff16816001015f015f9054906101000a900473ffffffffffffffffffffffffffffffffffffffff1673ffffffffffffffffffffffffffffffffffffffff16036200203b57826040517f0e296c980000000000000000000000000000000000000000000000000000000081526004016200203291906200609c565b60405180910390fd5b80915050919050565b5f620020503362003122565b801562002061575060145f36905010155b156200207757601436033560601c905062002080565b33905062002081565b5b90565b5f808573ffffffffffffffffffffffffffffffffffffffff166323b872dd60e01b868686604051602401620020bc93929190620060b7565b604051602081830303815290604052907bffffffffffffffffffffffffffffffffffffffffffffffffffffffff19166020820180517bffffffffffffffffffffffffffffffffffffffffffffffffffffffff838183161783525050505060405162002128919062006166565b5f604051808303815f865af19150503d805f811462002163576040519150601f19603f3d011682016040523d82523d5f602084013e62002168565b606091505b50915091508115806200219c57505f8151141580156200219b5750808060200190518101906200219991906200502a565b155b5b15620021e5578484846040517f3210e1d9000000000000000000000000000000000000000000000000000000008152600401620021dc93929190620060b7565b60405180910390fd5b505050505050565b5f80856006015f8673ffffffffffffffffffffffffffffffffffffffff1673ffffffffffffffffffffffffffffffffffffffff1681526020019081526020015f2060030190505f818054905090505f6200229186868a6006015f8b73ffffffffffffffffffffffffffffffffffffffff1673ffffffffffffffffffffffffffffffffffffffff1681526020019081526020015f206200199d9092919063ffffffff16565b9150505f8103620022a8575f93505050506200248d565b5f886006015f8973ffffffffffffffffffffffffffffffffffffffff1673ffffffffffffffffffffffffffffffffffffffff1681526020019081526020015f205f0154620022f78a8a62002e88565b62002303919062004f12565b90505f871480156200232057505f8614806200231f5750828610155b5b80156200232c57508082115b1562002485575f848054905090505f5b818110156200242257620023b7848488848154811062002361576200236062004f4c565b5b905f5260205f20015f015f9054906101000a90046fffffffffffffffffffffffffffffffff166fffffffffffffffffffffffffffffffff16620023a591906200617e565b620023b19190620061f5565b62001911565b868281548110620023cd57620023cc62004f4c565b5b905f5260205f20015f015f6101000a8154816fffffffffffffffffffffffffffffffff02191690836fffffffffffffffffffffffffffffffff1602179055508080620024199062004f79565b9150506200233c565b507ff0a0e39a26580b0a52daf2e0179695c3fbad3585ec250ca1b8eb4a6cec832b808a5f015f9054906101000a90046fffffffffffffffffffffffffffffffff168a84866040516200247894939291906200622c565b60405180910390a1819250505b819450505050505b949350505050565b5f8082604051602001620024aa9190620062eb565b60405160208183030381529060405280519060200120905080915050919050565b5f8073ffffffffffffffffffffffffffffffffffffffff16836005015f9054906101000a900473ffffffffffffffffffffffffffffffffffffffff1673ffffffffffffffffffffffffffffffffffffffff160362002555576040517fb669160e00000000000000000000000000000000000000000000000000000000815260040160405180910390fd5b826005015f9054906101000a900473ffffffffffffffffffffffffffffffffffffffff1673ffffffffffffffffffffffffffffffffffffffff1663313ce5676040518163ffffffff1660e01b8152600401602060405180830381865afa925050508015620025e357506040513d601f19601f82011682018060405250810190620025e091906200631b565b60015b620025f157819050620026f5565b60128160ff16036200260657829150620026f3565b60128160ff1610156200264c5780600a6200262291906200649b565b670de0b6b3a7640000846200263891906200617e565b620026449190620061f5565b9150620026f2565b5f6012826200265c9190620064eb565b600a6200266a91906200649b565b8462002677919062006526565b14620026be5782816040517f50da4e4e000000000000000000000000000000000000000000000000000000008152600401620026b59291906200656e565b60405180910390fd5b80600a620026cd91906200649b565b670de0b6b3a764000084620026e391906200617e565b620026ef9190620061f5565b91505b5b505b92915050565b80825f015f8282546200270f919062004f12565b925050819055505050565b5f6200272983835f1b6200316d565b5f1c905092915050565b5f6200273f8462001967565b905062002764836200275062002044565b8360010162002db69092919063ffffffff16565b620027b55783836200277562002044565b6040517f01de5522000000000000000000000000000000000000000000000000000000008152600401620027ac9392919062005c92565b60405180910390fd5b5f82826005015f9054906101000a900467ffffffffffffffff1667ffffffffffffffff16620027e5919062004f12565b905080421080156200288b575060016200284e7f6163636f756e744f76657272696465576974686472617754696d656f75740000876040516020016200282d92919062006599565b6040516020818303038152906040528051906020012063bbf81e006200271a565b836005015f9054906101000a900467ffffffffffffffff1667ffffffffffffffff166200287c919062004f12565b62002888919062004d3f565b42105b80156200293557506001620028f87f73656e6465724f76657272696465576974686472617754696d656f7574000000620028c462002044565b604051602001620028d792919062004fc5565b6040516020818303038152906040528051906020012063bbf81e006200271a565b836005015f9054906101000a900467ffffffffffffffff1667ffffffffffffffff1662002926919062004f12565b62002932919062004d3f565b42105b156200297e578442826040517f877e96bc0000000000000000000000000000000000000000000000000000000081526004016200297593929190620065c4565b60405180910390fd5b509392505050565b80825f01541015620029d657815f0154816040517fb5eb085a000000000000000000000000000000000000000000000000000000008152600401620029cd92919062004341565b60405180910390fd5b80825f015f828254620029ea919062004d3f565b925050819055505050565b5f8273ffffffffffffffffffffffffffffffffffffffff166370a08231836040518263ffffffff1660e01b815260040162002a319190620044a3565b602060405180830381865afa15801562002a4d573d5f803e3d5ffd5b505050506040513d601f19601f8201168201806040525081019062002a73919062004ee2565b905092915050565b5f808473ffffffffffffffffffffffffffffffffffffffff1663a9059cbb60e01b858560405160240162002ab1929190620065ff565b604051602081830303815290604052907bffffffffffffffffffffffffffffffffffffffffffffffffffffffff19166020820180517bffffffffffffffffffffffffffffffffffffffffffffffffffffffff838183161783525050505060405162002b1d919062006166565b5f604051808303815f865af19150503d805f811462002b58576040519150601f19603f3d011682016040523d82523d5f602084013e62002b5d565b606091505b509150915081158062002b9157505f81511415801562002b9057508080602001905181019062002b8e91906200502a565b155b5b1562002bda573084846040517f3210e1d900000000000000000000000000000000000000000000000000000000815260040162002bd193929190620060b7565b60405180910390fd5b5050505050565b62002beb620040f8565b604051806080016040528062002c18846102000151856102200151866102400151876102600151620031b3565b815260200162002c3f846102800151856102a00151866102c00151876102e0015162003320565b815260200162002c6c846101600151856101800151866101a00151876101c00151886101e00151620034b7565b815260200162002c928460e001518561010001518661012001518761014001516200367d565b8152509050919050565b5f81846002015f8581526020019081526020015f208190555062002ccc83855f01620037ea90919063ffffffff16565b90509392505050565b61ffff80168160c0015161ffff16826020015161ffff16835f015161ffff1662002d00919062004f12565b62002d0c919062004f12565b111562002d50576040517f08c379a000000000000000000000000000000000000000000000000000000000815260040162002d479062006678565b60405180910390fd5b5f816080015161ffff161415801562002d7157505f8160a0015161ffff1614155b62002db3576040517f08c379a000000000000000000000000000000000000000000000000000000000815260040162002daa90620066e6565b60405180910390fd5b50565b5f835f015f9054906101000a900473ffffffffffffffffffffffffffffffffffffffff1673ffffffffffffffffffffffffffffffffffffffff168273ffffffffffffffffffffffffffffffffffffffff16148062002e3d575062002e3c847f41444d494e0000000000000000000000000000000000000000000000000000008462003801565b5b8062002e52575062002e5184848462003801565b5b90509392505050565b42816005015f6101000a81548167ffffffffffffffff021916908367ffffffffffffffff16021790555050565b5f805f90505f846006015f8573ffffffffffffffffffffffffffffffffffffffff1673ffffffffffffffffffffffffffffffffffffffff1681526020019081526020015f2060010190505f600190505b62002ee38262003897565b811162002f7c575f62002f0a62002f048385620038ac90919063ffffffff16565b62001911565b90505f62002f1882620038cd565b90505f62002f50888a5f015f9054906101000a90046fffffffffffffffffffffffffffffffff1684620039039092919063ffffffff16565b509050808662002f61919062004f12565b9550505050808062002f739062004f79565b91505062002ed8565b50819250505092915050565b5f8062002f954262003068565b90505f805f90505b84600301805490508110156200305d575f85600301828154811062002fc75762002fc662004f4c565b5b905f5260205f200190508367ffffffffffffffff16815f0160109054906101000a900467ffffffffffffffff1667ffffffffffffffff1611156200304657805f015f9054906101000a90046fffffffffffffffffffffffffffffffff166fffffffffffffffffffffffffffffffff168362003043919062004f12565b92505b508080620030549062004f79565b91505062002f9d565b508092505050919050565b5f67ffffffffffffffff8016821115620030ae576040517f72b1c34f00000000000000000000000000000000000000000000000000000000815260040160405180910390fd5b819050919050565b5f80620030c384620039ab565b90508060010160019054906101000a900460ff1615620030e7575f9150506200311c565b806001015f9054906101000a900460ff1680620031185750620031178382600201620039e190919063ffffffff16565b5b9150505b92915050565b5f73e2c5658cc5c448b48141168f3e475df8f65a1e3e73ffffffffffffffffffffffffffffffffffffffff168273ffffffffffffffffffffffffffffffffffffffff16149050919050565b5f808360405160200162003182919062006754565b604051602081830303815290604052805190602001209050805491505f801b8203620031ac578291505b5092915050565b5f808560ff1690505f8560ff1690505f8560ff1690505f8560ff169050606484111562003217576040517f08c379a00000000000000000000000000000000000000000000000000000000081526004016200320e90620067d2565b60405180910390fd5b60648311156200325e576040517f08c379a0000000000000000000000000000000000000000000000000000000008152600401620032559062006840565b60405180910390fd5b6064821115620032a5576040517f08c379a00000000000000000000000000000000000000000000000000000000081526004016200329c90620068ae565b60405180910390fd5b6064811115620032ec576040517f08c379a0000000000000000000000000000000000000000000000000000000008152600401620032e3906200691c565b60405180910390fd5b5f8085901b81179050600884901b81179050601083901b81179050601882901b811790508095505050505050949350505050565b5f808560ff1690505f8560ff1690505f8560ff1690505f8560ff169050606484111562003384576040517f08c379a00000000000000000000000000000000000000000000000000000000081526004016200337b906200698a565b60405180910390fd5b6001831015801562003397575060058311155b620033d9576040517f08c379a0000000000000000000000000000000000000000000000000000000008152600401620033d09062006a1e565b60405180910390fd5b60018210158015620033ec575060058211155b6200342e576040517f08c379a0000000000000000000000000000000000000000000000000000000008152600401620034259062006ab2565b60405180910390fd5b6001811015801562003441575060058111155b62003483576040517f08c379a00000000000000000000000000000000000000000000000000000000081526004016200347a9062006b20565b60405180910390fd5b5f8085901b81179050600884901b81179050600b83901b81179050600e82901b811790508095505050505050949350505050565b5f808660ff1690505f8660ff1690505f8660ff1690505f8660ff1690505f8660ff169050606485111562003522576040517f08c379a0000000000000000000000000000000000000000000000000000000008152600401620035199062006b8e565b60405180910390fd5b606484111562003569576040517f08c379a0000000000000000000000000000000000000000000000000000000008152600401620035609062006c22565b60405180910390fd5b6064831115620035b0576040517f08c379a0000000000000000000000000000000000000000000000000000000008152600401620035a79062006cb6565b60405180910390fd5b6064821115620035f7576040517f08c379a0000000000000000000000000000000000000000000000000000000008152600401620035ee9062006d24565b60405180910390fd5b60648111156200363e576040517f08c379a0000000000000000000000000000000000000000000000000000000008152600401620036359062006db8565b60405180910390fd5b5f8086901b81179050600885901b81179050601084901b81179050601883901b81179050602082901b8117905080965050505050505095945050505050565b5f808560ff1690505f8560ff1690505f8560ff1690505f8560ff1690506064841115620036e1576040517f08c379a0000000000000000000000000000000000000000000000000000000008152600401620036d89062006e26565b60405180910390fd5b606483111562003728576040517f08c379a00000000000000000000000000000000000000000000000000000000081526004016200371f9062006e94565b60405180910390fd5b60648211156200376f576040517f08c379a0000000000000000000000000000000000000000000000000000000008152600401620037669062006f02565b60405180910390fd5b6064811115620037b6576040517f08c379a0000000000000000000000000000000000000000000000000000000008152600401620037ad9062006f70565b60405180910390fd5b5f8085901b81179050600884901b81179050601083901b81179050601882901b811790508095505050505050949350505050565b5f620037f9835f018362003a18565b905092915050565b5f8073ffffffffffffffffffffffffffffffffffffffff168273ffffffffffffffffffffffffffffffffffffffff16141580156200388e57506200388d83856001015f8573ffffffffffffffffffffffffffffffffffffffff1673ffffffffffffffffffffffffffffffffffffffff1681526020019081526020015f2062003a8390919063ffffffff16565b5b90509392505050565b5f620038a5825f0162003aa3565b9050919050565b5f620038c5620038bf845f018462003ab2565b62003b3b565b905092915050565b5f8082604051602001620038e2919062006fde565b60405160208183030381529060405280519060200120905080915050919050565b5f806200395883866008015f8773ffffffffffffffffffffffffffffffffffffffff1673ffffffffffffffffffffffffffffffffffffffff1681526020019081526020015f2062003b4690919063ffffffff16565b91505f806200397b846200396c8862002495565b62003b6e90919063ffffffff16565b915091506200398a8162003dde565b6200399f848362003df790919063ffffffff16565b92505050935093915050565b5f8082604051602001620039c0919062007082565b60405160208183030381529060405280519060200120905080915050919050565b5f62003a10835f0162003a0a8473ffffffffffffffffffffffffffffffffffffffff1662003e23565b62003a83565b905092915050565b5f62003a25838362003e44565b62003a7957825f0182908060018154018082558091505060019003905f5260205f20015f9091909190915055825f0180549050836001015f8481526020019081526020015f20819055506001905062003a7d565b5f90505b92915050565b5f80836001015f8481526020019081526020015f20541415905092915050565b5f815f01805490509050919050565b5f8082148062003ac75750825f018054905082115b1562003aff576040517feb9bc44700000000000000000000000000000000000000000000000000000000815260040160405180910390fd5b5f60018362003b0f919062004d3f565b9050835f01818154811062003b295762003b2862004f4c565b5b905f5260205f20015491505092915050565b5f815f1c9050919050565b5f62003b668262003b578562003e64565b62003e8290919063ffffffff16565b905092915050565b5f60605f62003b7c62003ebf565b6040518060200160405290815f82015f9054906101000a900473ffffffffffffffffffffffffffffffffffffffff1673ffffffffffffffffffffffffffffffffffffffff1673ffffffffffffffffffffffffffffffffffffffff168152505090505f600167ffffffffffffffff81111562003bfc5762003bfb6200497c565b5b60405190808252806020026020018201604052801562003c2b5781602001602082028036833780820191505090505b5090505f600167ffffffffffffffff81111562003c4d5762003c4c6200497c565b5b60405190808252806020026020018201604052801562003c7c5781602001602082028036833780820191505090505b5090507f73697a6500000000000000000000000000000000000000000000000000000000825f8151811062003cb65762003cb562004f4c565b5b602002602001018181525050855f1b815f8151811062003cdb5762003cda62004f4c565b5b602002602001018181525050825f015173ffffffffffffffffffffffffffffffffffffffff1663daa250be886004015484846040518463ffffffff1660e01b815260040162003d2d9392919062007179565b608060405180830381865afa92505050801562003d6a57506040513d601f19601f8201168201806040525081019062003d6791906200727c565b60015b62003db1573d805f811462003d9b576040519150601f19603f3d011682016040523d82523d5f602084013e62003da0565b606091505b505f81955095505050505062003dd7565b62003dbf815f015162003ef1565b60405180602001604052805f81525095509550505050505b9250929050565b5f8151111562003df45762003df38162003f35565b5b50565b5f670de0b6b3a7640000828462003e0f91906200617e565b62003e1b9190620061f5565b905092915050565b5f8173ffffffffffffffffffffffffffffffffffffffff165f1b9050919050565b5f80836001015f8481526020019081526020015f20541415905092915050565b5f816003015f835f015481526020019081526020015f209050919050565b5f62003eb762003ea4836fffffffffffffffffffffffffffffffff1662003f7b565b8460030162003f9890919063ffffffff16565b905092915050565b5f8060405160200162003ed29062007320565b6040516020818303038152906040528051906020012090508091505090565b5f8082121562003f2d576040517f14f8126800000000000000000000000000000000000000000000000000000000815260040160405180910390fd5b819050919050565b5f815190505f810362003f74576040517f123b260300000000000000000000000000000000000000000000000000000000815260040160405180910390fd5b8060208301fd5b5f816fffffffffffffffffffffffffffffffff165f1b9050919050565b5f80835f015f9054906101000a90046fffffffffffffffffffffffffffffffff166fffffffffffffffffffffffffffffffff1690505f810362003fdf575f9150506200401b565b8062003feb8562004021565b856001015f8681526020019081526020015f20546200400b91906200617e565b620040179190620061f5565b9150505b92915050565b5f6b033b2e3c9fd0803ce8000000825f015f9054906101000a90046fffffffffffffffffffffffffffffffff166fffffffffffffffffffffffffffffffff16620040976b033b2e3c9fd0803ce8000000855f0160109054906101000a9004600f0b600f0b62004091919062007340565b62003ef1565b620040a391906200617e565b620040af9190620061f5565b9050919050565b60405180604001604052805f6fffffffffffffffffffffffffffffffff1681526020015f67ffffffffffffffff1681525090565b6161de806200738983390190565b60405180608001604052805f81526020015f81526020015f81526020015f81525090565b5f604051905090565b5f80fd5b5f80fd5b5f6fffffffffffffffffffffffffffffffff82169050919050565b62004153816200412d565b81146200415e575f80fd5b50565b5f81359050620041718162004148565b92915050565b5f73ffffffffffffffffffffffffffffffffffffffff82169050919050565b5f620041a28262004177565b9050919050565b620041b48162004196565b8114620041bf575f80fd5b50565b5f81359050620041d281620041a9565b92915050565b5f819050919050565b620041ec81620041d8565b8114620041f7575f80fd5b50565b5f813590506200420a81620041e1565b92915050565b5f67ffffffffffffffff82169050919050565b6200422e8162004210565b811462004239575f80fd5b50565b5f813590506200424c8162004223565b92915050565b5f805f80608085870312156200426d576200426c62004125565b5b5f6200427c8782880162004161565b94505060206200428f87828801620041c2565b9350506040620042a287828801620041fa565b9250506060620042b5878288016200423c565b91505092959194509250565b5f805f8060808587031215620042dc57620042db62004125565b5b5f620042eb8782880162004161565b9450506020620042fe87828801620041c2565b93505060406200431187828801620041fa565b92505060606200432487828801620041fa565b91505092959194509250565b6200433b81620041d8565b82525050565b5f604082019050620043565f83018562004330565b62004365602083018462004330565b9392505050565b5f80fd5b5f80fd5b5f80fd5b5f8083601f84011262004390576200438f6200436c565b5b8235905067ffffffffffffffff811115620043b057620043af62004370565b5b602083019150836001820283011115620043cf57620043ce62004374565b5b9250929050565b5f805f805f805f60c0888a031215620043f457620043f362004125565b5b5f620044038a828b01620041c2565b9750506020620044168a828b01620041c2565b9650506040620044298a828b01620041c2565b95505060606200443c8a828b01620041c2565b94505060806200444f8a828b01620041c2565b93505060a088013567ffffffffffffffff81111562004473576200447262004129565b5b620044818a828b0162004378565b925092505092959891949750929550565b6200449d8162004196565b82525050565b5f602082019050620044b85f83018462004492565b92915050565b5f819050919050565b620044d281620044be565b82525050565b5f602082019050620044ed5f830184620044c7565b92915050565b5f61ffff82169050919050565b6200450b81620044f3565b82525050565b5f63ffffffff82169050919050565b6200452b8162004511565b82525050565b5f60e082019050620045465f83018a62004500565b62004555602083018962004500565b62004564604083018862004520565b62004573606083018762004520565b62004582608083018662004500565b6200459160a083018562004500565b620045a060c083018462004500565b98975050505050505050565b5f805f805f60808688031215620045c857620045c762004125565b5b5f620045d788828901620041c2565b9550506020620045ea88828901620041c2565b9450506040620045fd88828901620041c2565b935050606086013567ffffffffffffffff81111562004621576200462062004129565b5b6200462f8882890162004378565b92509250509295509295909350565b5f805f6060848603121562004658576200465762004125565b5b5f620046678682870162004161565b93505060206200467a86828701620041c2565b92505060406200468d86828701620041fa565b9150509250925092565b5f805f60608486031215620046b157620046b062004125565b5b5f620046c086828701620041c2565b9350506020620046d386828701620041c2565b9250506040620046e686828701620041c2565b9150509250925092565b5f806040838503121562004709576200470862004125565b5b5f620047188582860162004161565b92505060206200472b85828601620041c2565b9150509250929050565b5f6020820190506200474a5f83018462004330565b92915050565b5f819050919050565b5f62004779620047736200476d8462004177565b62004750565b62004177565b9050919050565b5f6200478c8262004759565b9050919050565b5f6200479f8262004780565b9050919050565b620047b18162004793565b82525050565b5f602082019050620047cc5f830184620047a6565b92915050565b5f81519050919050565b5f82825260208201905092915050565b5f819050602082019050919050565b62004806816200412d565b82525050565b620048178162004210565b82525050565b604082015f820151620048335f850182620047fb565b5060208201516200484860208501826200480c565b50505050565b5f6200485b83836200481d565b60408301905092915050565b5f602082019050919050565b5f6200487f82620047d2565b6200488b8185620047dc565b93506200489883620047ec565b805f5b83811015620048ce578151620048b288826200484e565b9750620048bf8362004867565b9250506001810190506200489b565b5085935050505092915050565b5f6020820190508181035f830152620048f5818462004873565b905092915050565b5f6020828403121562004915576200491462004125565b5b5f6200492484828501620041c2565b91505092915050565b5f606082019050620049425f83018662004330565b62004951602083018562004330565b62004960604083018462004330565b949350505050565b5f80fd5b5f601f19601f8301169050919050565b7f4e487b71000000000000000000000000000000000000000000000000000000005f52604160045260245ffd5b620049b4826200496c565b810181811067ffffffffffffffff82111715620049d657620049d56200497c565b5b80604052505050565b5f620049ea6200411c565b9050620049f88282620049a9565b919050565b5f67ffffffffffffffff82111562004a1a5762004a196200497c565b5b62004a25826200496c565b9050602081019050919050565b828183375f83830152505050565b5f62004a5662004a5084620049fd565b620049df565b90508281526020810184848401111562004a755762004a7462004968565b5b62004a8284828562004a32565b509392505050565b5f82601f83011262004aa15762004aa06200436c565b5b813562004ab384826020860162004a40565b91505092915050565b5f6020828403121562004ad45762004ad362004125565b5b5f82013567ffffffffffffffff81111562004af45762004af362004129565b5b62004b028482850162004a8a565b91505092915050565b5f80fd5b5f60e0828403121562004b275762004b2662004b0b565b5b81905092915050565b5f60e0828403121562004b485762004b4762004125565b5b5f62004b578482850162004b0f565b91505092915050565b5f82825260208201905092915050565b7f65787069726554696d657374616d7000000000000000000000000000000000005f82015250565b5f62004ba6600f8362004b60565b915062004bb38262004b70565b602082019050919050565b7f6d75737420626520696e207468652066757475726500000000000000000000005f82015250565b5f62004bf460158362004b60565b915062004c018262004bbe565b602082019050919050565b5f6040820190508181035f83015262004c258162004b98565b9050818103602083015262004c3a8162004be6565b9050919050565b7f616d6f756e7400000000000000000000000000000000000000000000000000005f82015250565b5f62004c7760068362004b60565b915062004c848262004c41565b602082019050919050565b7f6d757374206265206e6f6e7a65726f00000000000000000000000000000000005f82015250565b5f62004cc5600f8362004b60565b915062004cd28262004c8f565b602082019050919050565b5f6040820190508181035f83015262004cf68162004c69565b9050818103602083015262004d0b8162004cb7565b9050919050565b7f4e487b71000000000000000000000000000000000000000000000000000000005f52601160045260245ffd5b5f62004d4b82620041d8565b915062004d5883620041d8565b925082820390508181111562004d735762004d7262004d12565b5b92915050565b62004d848162004210565b82525050565b5f60408201905062004d9f5f83018562004330565b62004dae602083018462004d79565b9392505050565b5f82825260208201905092915050565b5f62004dd2838562004db5565b935062004de183858462004a32565b62004dec836200496c565b840190509392505050565b5f60a08201905062004e0c5f83018962004492565b62004e1b602083018862004492565b62004e2a604083018762004492565b62004e39606083018662004492565b818103608083015262004e4e81848662004dc5565b9050979650505050505050565b5f8151905062004e6b81620041a9565b92915050565b5f6020828403121562004e895762004e8862004125565b5b5f62004e988482850162004e5b565b91505092915050565b5f60408201905062004eb65f83018562004492565b62004ec5602083018462004492565b9392505050565b5f8151905062004edc81620041e1565b92915050565b5f6020828403121562004efa5762004ef962004125565b5b5f62004f098482850162004ecc565b91505092915050565b5f62004f1e82620041d8565b915062004f2b83620041d8565b925082820190508082111562004f465762004f4562004d12565b5b92915050565b7f4e487b71000000000000000000000000000000000000000000000000000000005f52603260045260245ffd5b5f62004f8582620041d8565b91507fffffffffffffffffffffffffffffffffffffffffffffffffffffffffffffffff820362004fba5762004fb962004d12565b5b600182019050919050565b5f60408201905062004fda5f830185620044c7565b62004fe9602083018462004492565b9392505050565b5f8115159050919050565b620050068162004ff0565b811462005011575f80fd5b50565b5f81519050620050248162004ffb565b92915050565b5f6020828403121562005042576200504162004125565b5b5f620050518482850162005014565b91505092915050565b7f4f6e6c792061646d696e6973747261746f7200000000000000000000000000005f82015250565b5f6200509060128362004b60565b91506200509d826200505a565b602082019050919050565b5f6020820190508181035f830152620050c18162005082565b9050919050565b5f80fd5b620050d781620044be565b8114620050e2575f80fd5b50565b5f81519050620050f581620050cc565b92915050565b5f60ff82169050919050565b6200511281620050fb565b81146200511d575f80fd5b50565b5f81519050620051308162005107565b92915050565b5f61030082840312156200514f576200514e620050c8565b5b6200515c610300620049df565b90505f6200516d84828501620050e5565b5f8301525060206200518284828501620050e5565b60208301525060406200519884828501620050e5565b6040830152506060620051ae8482850162004e5b565b6060830152506080620051c48482850162005120565b60808301525060a0620051da8482850162004e5b565b60a08301525060c0620051f08482850162004e5b565b60c08301525060e0620052068482850162005120565b60e0830152506101006200521d8482850162005120565b61010083015250610120620052358482850162005120565b610120830152506101406200524d8482850162005120565b61014083015250610160620052658482850162005120565b610160830152506101806200527d8482850162005120565b610180830152506101a0620052958482850162005120565b6101a0830152506101c0620052ad8482850162005120565b6101c0830152506101e0620052c58482850162005120565b6101e083015250610200620052dd8482850162005120565b61020083015250610220620052f58482850162005120565b610220830152506102406200530d8482850162005120565b61024083015250610260620053258482850162005120565b610260830152506102806200533d8482850162005120565b610280830152506102a0620053558482850162005120565b6102a0830152506102c06200536d8482850162005120565b6102c0830152506102e0620053858482850162005120565b6102e08301525092915050565b5f6103008284031215620053ab57620053aa62004125565b5b5f620053ba8482850162005136565b91505092915050565b5f620053e3620053dd620053d784620041d8565b62004750565b620041d8565b9050919050565b620053f581620053c3565b82525050565b6200540681620053c3565b82525050565b6200541781620053c3565b82525050565b6200542881620053c3565b82525050565b608082015f820151620054445f850182620053ea565b506020820151620054596020850182620053fb565b5060408201516200546e60408501826200540c565b5060608201516200548360608501826200541d565b50505050565b5f610120820190506200549f5f83018962004492565b620054ae602083018862004492565b620054bd6040830187620044c7565b620054cc6060830186620044c7565b620054db6080830185620044c7565b620054ea60a08301846200542e565b979650505050505050565b5f620055018262004196565b9050919050565b6200551381620054f5565b81146200551e575f80fd5b50565b5f81519050620055318162005508565b92915050565b5f602082840312156200554f576200554e62004125565b5b5f6200555e8482850162005521565b91505092915050565b7f4e487b71000000000000000000000000000000000000000000000000000000005f52602160045260245ffd5b6200559f81620044f3565b8114620055aa575f80fd5b50565b5f81359050620055bd8162005594565b92915050565b620055ce8162004511565b8114620055d9575f80fd5b50565b5f81359050620055ec81620055c3565b92915050565b5f60e082840312156200560a5762005609620050c8565b5b6200561660e0620049df565b90505f6200562784828501620055ad565b5f8301525060206200563c84828501620055ad565b60208301525060406200565284828501620055dc565b60408301525060606200566884828501620055dc565b60608301525060806200567e84828501620055ad565b60808301525060a06200569484828501620055ad565b60a08301525060c0620056aa84828501620055ad565b60c08301525092915050565b5f60e08284031215620056ce57620056cd62004125565b5b5f620056dd84828501620055f2565b91505092915050565b5f8135620056f48162005594565b80915050919050565b5f815f1b9050919050565b5f61ffff6200571784620056fd565b9350801983169250808416831791505092915050565b5f6200574d620057476200574184620044f3565b62004750565b620044f3565b9050919050565b5f819050919050565b62005768826200572d565b6200577f620057778262005754565b835462005708565b8255505050565b5f8160101b9050919050565b5f63ffff0000620057a38462005786565b9350801983169250808416831791505092915050565b620057c4826200572d565b620057db620057d38262005754565b835462005792565b8255505050565b5f8135620057f081620055c3565b80915050919050565b5f8160201b9050919050565b5f67ffffffff000000006200581a84620057f9565b9350801983169250808416831791505092915050565b5f620058506200584a620058448462004511565b62004750565b62004511565b9050919050565b5f819050919050565b6200586b8262005830565b620058826200587a8262005857565b835462005805565b8255505050565b5f8160401b9050919050565b5f6bffffffff0000000000000000620058ae8462005889565b9350801983169250808416831791505092915050565b620058cf8262005830565b620058e6620058de8262005857565b835462005895565b8255505050565b5f8160601b9050919050565b5f6dffff0000000000000000000000006200591484620058ed565b9350801983169250808416831791505092915050565b62005935826200572d565b6200594c620059448262005754565b8354620058f9565b8255505050565b5f8160701b9050919050565b5f6fffff00000000000000000000000000006200597c8462005953565b9350801983169250808416831791505092915050565b6200599d826200572d565b620059b4620059ac8262005754565b83546200595f565b8255505050565b5f8160801b9050919050565b5f71ffff00000000000000000000000000000000620059e684620059bb565b9350801983169250808416831791505092915050565b62005a07826200572d565b62005a1e62005a168262005754565b8354620059c7565b8255505050565b5f81015f83018062005a3781620056e6565b905062005a4581846200575d565b5050505f8101602083018062005a5b81620056e6565b905062005a698184620057b9565b5050505f8101604083018062005a7f81620057e2565b905062005a8d818462005860565b5050505f8101606083018062005aa381620057e2565b905062005ab18184620058c4565b5050505f8101608083018062005ac781620056e6565b905062005ad581846200592a565b5050505f810160a083018062005aeb81620056e6565b905062005af9818462005992565b5050505f810160c083018062005b0f81620056e6565b905062005b1d8184620059fc565b5050505050565b62005b30828262005a25565b5050565b5f62005b446020840184620055ad565b905092915050565b62005b5781620044f3565b82525050565b5f62005b6d6020840184620055dc565b905092915050565b62005b808162004511565b82525050565b60e0820162005b985f83018362005b34565b62005ba65f85018262005b4c565b5062005bb6602083018362005b34565b62005bc5602085018262005b4c565b5062005bd5604083018362005b5d565b62005be4604085018262005b75565b5062005bf4606083018362005b5d565b62005c03606085018262005b75565b5062005c13608083018362005b34565b62005c22608085018262005b4c565b5062005c3260a083018362005b34565b62005c4160a085018262005b4c565b5062005c5160c083018362005b34565b62005c6060c085018262005b4c565b50505050565b5f60e08201905062005c7b5f83018462005b86565b92915050565b62005c8c816200412d565b82525050565b5f60608201905062005ca75f83018662005c81565b62005cb66020830185620044c7565b62005cc5604083018462004492565b949350505050565b7f696f2e73796e7468657469782e73796e7468657469782e4163636f756e7400005f82015250565b5f62005d03601e8362004b60565b915062005d108262005ccd565b602082019050919050565b5f6040820190508181035f83015262005d348162005cf5565b905062005d45602083018462005c81565b92915050565b5f62005d6b62005d6562005d5f846200412d565b62004750565b620041d8565b9050919050565b62005d7d8162005d4b565b82525050565b5f60408201905062005d985f83018562005d72565b62005da7602083018462004d79565b9392505050565b7f4e487b71000000000000000000000000000000000000000000000000000000005f52603160045260245ffd5b7f416c7265616479206372656174656400000000000000000000000000000000005f82015250565b5f62005e11600f8362004b60565b915062005e1e8262005ddb565b602082019050919050565b5f6020820190508181035f83015262005e428162005e03565b9050919050565b5f815f1c9050919050565b5f61ffff82169050919050565b5f62005e7762005e718362005e49565b62005e54565b9050919050565b5f8160101c9050919050565b5f62005ea062005e9a8362005e7e565b62005e54565b9050919050565b5f8160201c9050919050565b5f63ffffffff82169050919050565b5f62005ed862005ed28362005ea7565b62005eb3565b9050919050565b5f8160401c9050919050565b5f62005f0162005efb8362005edf565b62005eb3565b9050919050565b5f8160601c9050919050565b5f62005f2a62005f248362005f08565b62005e54565b9050919050565b5f8160701c9050919050565b5f62005f5362005f4d8362005f31565b62005e54565b9050919050565b5f8160801c9050919050565b5f62005f7c62005f768362005f5a565b62005e54565b9050919050565b60e082015f80830154905062005f998162005e61565b62005fa75f86018262005b4c565b5062005fb38162005e8a565b62005fc2602086018262005b4c565b5062005fce8162005ec2565b62005fdd604086018262005b75565b5062005fe98162005eeb565b62005ff8606086018262005b75565b50620060048162005f14565b62006013608086018262005b4c565b506200601f8162005f3d565b6200602e60a086018262005b4c565b506200603a8162005f66565b6200604960c086018262005b4c565b5050505050565b5f61014082019050620060665f83018762004492565b62006075602083018662004492565b62006084604083018562004492565b62006093606083018462005f83565b95945050505050565b5f602082019050620060b15f83018462005c81565b92915050565b5f606082019050620060cc5f83018662004492565b620060db602083018562004492565b620060ea604083018462004330565b949350505050565b5f81519050919050565b5f81905092915050565b5f5b838110156200612557808201518184015260208101905062006108565b5f8484015250505050565b5f6200613c82620060f2565b620061488185620060fc565b93506200615a81856020860162006106565b80840191505092915050565b5f62006173828462006130565b915081905092915050565b5f6200618a82620041d8565b91506200619783620041d8565b9250828202620061a781620041d8565b91508282048414831517620061c157620061c062004d12565b5b5092915050565b7f4e487b71000000000000000000000000000000000000000000000000000000005f52601260045260245ffd5b5f6200620182620041d8565b91506200620e83620041d8565b925082620062215762006220620061c8565b5b828204905092915050565b5f608082019050620062415f83018762005c81565b62006250602083018662004492565b6200625f604083018562004330565b6200626e606083018462004330565b95945050505050565b7f696f2e73796e7468657469782e73796e7468657469782e436f6c6c61746572615f8201527f6c436f6e66696775726174696f6e000000000000000000000000000000000000602082015250565b5f620062d3602e8362004b60565b9150620062e08262006277565b604082019050919050565b5f6040820190508181035f8301526200630481620062c5565b905062006315602083018462004492565b92915050565b5f6020828403121562006333576200633262004125565b5b5f620063428482850162005120565b91505092915050565b5f8160011c9050919050565b5f808291508390505b6001851115620063a85780860481111562006380576200637f62004d12565b5b6001851615620063905780820291505b8081029050620063a0856200634b565b945062006360565b94509492505050565b5f82620063c2576001905062006494565b81620063d1575f905062006494565b8160018114620063ea5760028114620063f5576200642b565b600191505062006494565b60ff8411156200640a576200640962004d12565b5b8360020a91508482111562006424576200642362004d12565b5b5062006494565b5060208310610133831016604e8410600b8410161715620064655782820a9050838111156200645f576200645e62004d12565b5b62006494565b62006474848484600162006357565b925090508184048111156200648e576200648d62004d12565b5b81810290505b9392505050565b5f620064a782620041d8565b9150620064b483620050fb565b9250620064e37fffffffffffffffffffffffffffffffffffffffffffffffffffffffffffffffff8484620063b1565b905092915050565b5f620064f782620050fb565b91506200650483620050fb565b9250828203905060ff81111562006520576200651f62004d12565b5b92915050565b5f6200653282620041d8565b91506200653f83620041d8565b925082620065525762006551620061c8565b5b828206905092915050565b6200656881620050fb565b82525050565b5f604082019050620065835f83018562004330565b6200659260208301846200655d565b9392505050565b5f604082019050620065ae5f830185620044c7565b620065bd602083018462005c81565b9392505050565b5f606082019050620065d95f83018662005c81565b620065e8602083018562004330565b620065f7604083018462004330565b949350505050565b5f604082019050620066145f83018562004492565b62006623602083018462004330565b9392505050565b7f4d617820666565206578636565646564000000000000000000000000000000005f82015250565b5f6200666060108362004b60565b91506200666d826200662a565b602082019050919050565b5f6020820190508181035f830152620066918162006652565b9050919050565b7f47616d6d6173206d757374206265203e203000000000000000000000000000005f82015250565b5f620066ce60128362004b60565b9150620066db8262006698565b602082019050919050565b5f6020820190508181035f830152620066ff81620066c0565b9050919050565b7f436f6e66696700000000000000000000000000000000000000000000000000005f82015250565b5f6200673c60068362004b60565b9150620067498262006706565b602082019050919050565b5f6040820190508181035f8301526200676d816200672e565b90506200677e6020830184620044c7565b92915050565b7f4c69717569646974792073636f7265206f7574206f662072616e6765000000005f82015250565b5f620067ba601c8362004b60565b9150620067c78262006784565b602082019050919050565b5f6020820190508181035f830152620067eb81620067ac565b9050919050565b7f4c657665726167652073636f7265206f7574206f662072616e676500000000005f82015250565b5f62006828601b8362004b60565b91506200683582620067f2565b602082019050919050565b5f6020820190508181035f83015262006859816200681a565b9050919050565b7f4361736820666c6f772073636f7265206f7574206f662072616e6765000000005f82015250565b5f62006896601c8362004b60565b9150620068a38262006860565b602082019050919050565b5f6020820190508181035f830152620068c78162006888565b9050919050565b7f50726f6669746162696c6974792073636f7265206f7574206f662072616e67655f82015250565b5f6200690460208362004b60565b91506200691182620068ce565b602082019050919050565b5f6020820190508181035f8301526200693581620068f6565b9050919050565b7f4d61726b657420766f6c6174696c697479206f7574206f662072616e676500005f82015250565b5f62006972601e8362004b60565b91506200697f826200693c565b602082019050919050565b5f6020820190508181035f830152620069a38162006964565b9050919050565b7f45636f6e6f6d6963206379636c6520706f736974696f6e206f7574206f6620725f8201527f616e676500000000000000000000000000000000000000000000000000000000602082015250565b5f62006a0660248362004b60565b915062006a1382620069aa565b604082019050919050565b5f6020820190508181035f83015262006a3781620069f8565b9050919050565b7f526567756c61746f72792073746162696c697479206f7574206f662072616e675f8201527f6500000000000000000000000000000000000000000000000000000000000000602082015250565b5f62006a9a60218362004b60565b915062006aa78262006a3e565b604082019050919050565b5f6020820190508181035f83015262006acb8162006a8c565b9050919050565b7f536561736f6e616c697479206f7574206f662072616e676500000000000000005f82015250565b5f62006b0860188362004b60565b915062006b158262006ad2565b602082019050919050565b5f6020820190508181035f83015262006b398162006afa565b9050919050565b7f427573696e657373206167652073636f7265206f7574206f662072616e6765005f82015250565b5f62006b76601f8362004b60565b915062006b838262006b40565b602082019050919050565b5f6020820190508181035f83015262006ba78162006b68565b9050919050565b7f526576656e75652073746162696c6974792073636f7265206f7574206f6620725f8201527f616e676500000000000000000000000000000000000000000000000000000000602082015250565b5f62006c0a60248362004b60565b915062006c178262006bae565b604082019050919050565b5f6020820190508181035f83015262006c3b8162006bfc565b9050919050565b7f4d61726b657420706f736974696f6e2073636f7265206f7574206f662072616e5f8201527f6765000000000000000000000000000000000000000000000000000000000000602082015250565b5f62006c9e60228362004b60565b915062006cab8262006c42565b604082019050919050565b5f6020820190508181035f83015262006ccf8162006c90565b9050919050565b7f496e647573747279207269736b2073636f7265206f7574206f662072616e67655f82015250565b5f62006d0c60208362004b60565b915062006d198262006cd6565b602082019050919050565b5f6020820190508181035f83015262006d3d8162006cfe565b9050919050565b7f526567756c61746f727920636f6d706c69616e63652073636f7265206f7574205f8201527f6f662072616e6765000000000000000000000000000000000000000000000000602082015250565b5f62006da060288362004b60565b915062006dad8262006d44565b604082019050919050565b5f6020820190508181035f83015262006dd18162006d92565b9050919050565b7f4372656469742073636f7265206f7574206f662072616e6765000000000000005f82015250565b5f62006e0e60198362004b60565b915062006e1b8262006dd8565b602082019050919050565b5f6020820190508181035f83015262006e3f8162006e00565b9050919050565b7f44656661756c742070726f626162696c697479206f7574206f662072616e67655f82015250565b5f62006e7c60208362004b60565b915062006e898262006e46565b602082019050919050565b5f6020820190508181035f83015262006ead8162006e6e565b9050919050565b7f4c6f737320676976656e2064656661756c74206f7574206f662072616e6765005f82015250565b5f62006eea601f8362004b60565b915062006ef78262006eb4565b602082019050919050565b5f6020820190508181035f83015262006f1b8162006edc565b9050919050565b7f5265636f766572792072617465206f7574206f662072616e67650000000000005f82015250565b5f62006f58601a8362004b60565b915062006f658262006f22565b602082019050919050565b5f6020820190508181035f83015262006f898162006f4a565b9050919050565b7f696f2e73796e7468657469782e73796e7468657469782e506f6f6c00000000005f82015250565b5f62006fc6601b8362004b60565b915062006fd38262006f90565b602082019050919050565b5f6040820190508181035f83015262006ff78162006fb8565b905062007008602083018462005c81565b92915050565b7f696f2e73796e7468657469782e636f72652d6d6f64756c65732e4665617475725f8201527f65466c6167000000000000000000000000000000000000000000000000000000602082015250565b5f6200706a60258362004b60565b915062007077826200700e565b604082019050919050565b5f6040820190508181035f8301526200709b816200705c565b9050620070ac6020830184620044c7565b92915050565b5f81519050919050565b5f82825260208201905092915050565b5f819050602082019050919050565b620070e681620044be565b82525050565b5f620070f98383620070db565b60208301905092915050565b5f602082019050919050565b5f6200711d82620070b2565b620071298185620070bc565b93506200713683620070cc565b805f5b838110156200716c578151620071508882620070ec565b97506200715d8362007105565b92505060018101905062007139565b5085935050505092915050565b5f6060820190506200718e5f830186620044c7565b8181036020830152620071a2818562007111565b90508181036040830152620071b8818462007111565b9050949350505050565b5f819050919050565b620071d681620071c2565b8114620071e1575f80fd5b50565b5f81519050620071f481620071cb565b92915050565b5f60808284031215620072125762007211620050c8565b5b6200721e6080620049df565b90505f6200722f84828501620071e4565b5f830152506020620072448482850162004ecc565b60208301525060406200725a8482850162004ecc565b6040830152506060620072708482850162004ecc565b60608301525092915050565b5f6080828403121562007294576200729362004125565b5b5f620072a384828501620071fa565b91505092915050565b7f696f2e73796e7468657469782e73796e7468657469782e4f7261636c654d616e5f8201527f6167657200000000000000000000000000000000000000000000000000000000602082015250565b5f6200730860248362004b60565b91506200731582620072ac565b604082019050919050565b5f6020820190508181035f8301526200733981620072fa565b9050919050565b5f6200734c82620071c2565b91506200735983620071c2565b92508282019050828112155f8312168382125f84121516171562007382576200738162004d12565b5b9291505056fe60e06040525f805f6101000a81548160ff021916908360ff16021790555034801562000029575f80fd5b50604051620061de380380620061de83398181016040528101906200004f91906200069f565b80848484828181818073ffffffffffffffffffffffffffffffffffffffff1660a09073ffffffffffffffffffffffffffffffffffffffff168152508173ffffffffffffffffffffffffffffffffffffffff1660809073ffffffffffffffffffffffffffffffffffffffff16815250505050508173ffffffffffffffffffffffffffffffffffffffff1660c08173ffffffffffffffffffffffffffffffffffffffff168152505050505060806001175f8054906101000a900460ff16175f806101000a81548160ff021916908360ff16021790555062000134816200031060201b60201c565b6200014581620003f160201b60201c565b60025f6101000a81548171ffffffffffffffffffffffffffffffffffff021916908371ffffffffffffffffffffffffffffffffffff16021790555060018060018154018082558091505060019003905f5260205f20015f6040518060400160405280601281526020017f44796e616d69632046656520506c7567696e000000000000000000000000000081525090919091509081620001e5919062000946565b505060025f8054906101000a900460ff16175f806101000a81548160ff021916908360ff16021790555060018060018154018082558091505060019003905f5260205f20015f6040518060400160405280601481526020017f4661726d696e672050726f787920506c7567696e0000000000000000000000008152509091909150908162000274919062000946565b5060016040175f8054906101000a900460ff16175f806101000a81548160ff021916908360ff16021790555060018060018154018082558091505060019003905f5260205f20015f6040518060400160405280601881526020017f566f6c6174696c697479204f7261636c6520506c7567696e00000000000000008152509091909150908162000305919062000946565b505050505062000b7d565b61ffff80168160c0015161ffff16826020015161ffff16835f015161ffff166200033b919062000a57565b62000347919062000a57565b11156200038b576040517f08c379a0000000000000000000000000000000000000000000000000000000008152600401620003829062000aef565b60405180910390fd5b5f816080015161ffff1614158015620003ac57505f8160a0015161ffff1614155b620003ee576040517f08c379a0000000000000000000000000000000000000000000000000000000008152600401620003e59062000b5d565b60405180910390fd5b50565b5f80825f015161ffff166010846020015161ffff16901b6020856040015163ffffffff16901b6040866060015163ffffffff16901b6060876080015161ffff16901b60708860a0015161ffff16901b60808960c0015161ffff16901b171717171717905080915050919050565b5f604051905090565b5f80fd5b5f73ffffffffffffffffffffffffffffffffffffffff82169050919050565b5f62000496826200046b565b9050919050565b620004a8816200048a565b8114620004b3575f80fd5b50565b5f81519050620004c6816200049d565b92915050565b5f80fd5b5f601f19601f8301169050919050565b7f4e487b71000000000000000000000000000000000000000000000000000000005f52604160045260245ffd5b6200051882620004d0565b810181811067ffffffffffffffff821117156200053a5762000539620004e0565b5b80604052505050565b5f6200054e6200045e565b90506200055c82826200050d565b919050565b5f61ffff82169050919050565b620005798162000561565b811462000584575f80fd5b50565b5f8151905062000597816200056e565b92915050565b5f63ffffffff82169050919050565b620005b7816200059d565b8114620005c2575f80fd5b50565b5f81519050620005d581620005ac565b92915050565b5f60e08284031215620005f357620005f2620004cc565b5b620005ff60e062000543565b90505f620006108482850162000587565b5f830152506020620006258482850162000587565b60208301525060406200063b84828501620005c5565b60408301525060606200065184828501620005c5565b6060830152506080620006678482850162000587565b60808301525060a06200067d8482850162000587565b60a08301525060c0620006938482850162000587565b60c08301525092915050565b5f805f806101408587031215620006bb57620006ba62000467565b5b5f620006ca87828801620004b6565b9450506020620006dd87828801620004b6565b9350506040620006f087828801620004b6565b92505060606200070387828801620005db565b91505092959194509250565b5f81519050919050565b7f4e487b71000000000000000000000000000000000000000000000000000000005f52602260045260245ffd5b5f60028204905060018216806200075e57607f821691505b60208210810362000774576200077362000719565b5b50919050565b5f819050815f5260205f209050919050565b5f6020601f8301049050919050565b5f82821b905092915050565b5f60088302620007d87fffffffffffffffffffffffffffffffffffffffffffffffffffffffffffffffff826200079b565b620007e486836200079b565b95508019841693508086168417925050509392505050565b5f819050919050565b5f819050919050565b5f6200082e620008286200082284620007fc565b62000805565b620007fc565b9050919050565b5f819050919050565b62000849836200080e565b62000861620008588262000835565b848454620007a7565b825550505050565b5f90565b6200087762000869565b620008848184846200083e565b505050565b5b81811015620008ab576200089f5f826200086d565b6001810190506200088a565b5050565b601f821115620008fa57620008c4816200077a565b620008cf846200078c565b81016020851015620008df578190505b620008f7620008ee856200078c565b83018262000889565b50505b505050565b5f82821c905092915050565b5f6200091c5f1984600802620008ff565b1980831691505092915050565b5f6200093683836200090b565b9150826002028217905092915050565b62000951826200070f565b67ffffffffffffffff8111156200096d576200096c620004e0565b5b62000979825462000746565b62000986828285620008af565b5f60209050601f831160018114620009bc575f8415620009a7578287015190505b620009b3858262000929565b86555062000a22565b601f198416620009cc866200077a565b5f5b82811015620009f557848901518255600182019150602085019450602081019050620009ce565b8683101562000a15578489015162000a11601f8916826200090b565b8355505b6001600288020188555050505b505050505050565b7f4e487b71000000000000000000000000000000000000000000000000000000005f52601160045260245ffd5b5f62000a6382620007fc565b915062000a7083620007fc565b925082820190508082111562000a8b5762000a8a62000a2a565b5b92915050565b5f82825260208201905092915050565b7f4d617820666565206578636565646564000000000000000000000000000000005f82015250565b5f62000ad760108362000a91565b915062000ae48262000aa1565b602082019050919050565b5f6020820190508181035f83015262000b088162000ac9565b9050919050565b7f47616d6d6173206d757374206265203e203000000000000000000000000000005f82015250565b5f62000b4560128362000a91565b915062000b528262000b0f565b602082019050919050565b5f6020820190508181035f83015262000b768162000b37565b9050919050565b60805160a05160c05161560562000bd95f395f6119d801525f8181610c0c0152610d7a01525f8181610654015281816106dd0152818161172101528181611c6b01528181611cf701528181611daa0152611e3a01526156055ff3fe608060405234801561000f575f80fd5b50600436106101d8575f3560e01c80637c1fe0c811610102578063aa6b14bb116100a0578063e63015f01161006f578063e63015f0146105c9578063e72c652d146105f9578063f5985d3514610615578063f70d936214610633576101d8565b8063aa6b14bb1461052f578063b6f78cc91461055f578063d68520101461057d578063da705235146105ad576101d8565b806388f2e862116100dc57806388f2e8621461046d5780638de0a8ee1461049e5780639cb5a963146104ce5780639d3a5241146104fe576101d8565b80637c1fe0c8146104175780638129fc1c1461043357806382dd65221461043d576101d8565b806331b25d1a1161017a5780635e2411b2116101495780635e2411b214610362578063636fd80414610393578063689ea370146103c357806374eceae6146103e1576101d8565b806331b25d1a146102c6578063343d37ff146102e4578063392e53cd1461031457806346b7748b14610332576101d8565b806316f0115b116101b657806316f0115b1461024a5780631d39215e146102685780631d4632ac146102845780631e5eb1d0146102a2576101d8565b8063026b1d5f146101dc578063029c1cb7146101fa5780630786feb61461022c575b5f80fd5b6101e4610651565b6040516101f19190613ba6565b60405180910390f35b610214600480360381019061020f9190613ced565b610678565b60405161022393929190613e01565b60405180910390f35b6102346106c6565b6040516102419190613e52565b60405180910390f35b6102526106db565b60405161025f9190613ba6565b60405180910390f35b610282600480360381019061027d9190613e8d565b6106ff565b005b61028c6107ae565b6040516102999190613ba6565b60405180910390f35b6102aa6107d3565b6040516102bd9796959493929190613ed6565b60405180910390f35b6102ce6109a1565b6040516102db9190613f5b565b60405180910390f35b6102fe60048036038101906102f99190613fa7565b6109c5565b60405161030b9190614064565b60405180910390f35b61031c6109f9565b604051610329919061408c565b60405180910390f35b61034c600480360381019061034791906140a5565b610a0e565b604051610359919061415a565b60405180910390f35b61037c600480360381019061037791906141e6565b610ab4565b60405161038a929190614290565b60405180910390f35b6103ad60048036038101906103a891906142b7565b610aec565b6040516103ba9190614064565b60405180910390f35b6103cb610b1a565b6040516103d89190614310565b60405180910390f35b6103fb60048036038101906103f691906140a5565b610b2a565b60405161040e9796959493929190614378565b60405180910390f35b610431600480360381019061042c91906143e5565b610bd0565b005b61043b611125565b005b61045760048036038101906104529190614410565b611261565b6040516104649190614064565b60405180910390f35b6104876004803603810190610482919061448a565b611284565b6040516104959291906144b5565b60405180910390f35b6104b860048036038101906104b391906144dc565b611301565b6040516104c59190614064565b60405180910390f35b6104e860048036038101906104e39190614572565b611333565b6040516104f59190614064565b60405180910390f35b6105186004803603810190610513919061477a565b61135c565b60405161052692919061492f565b60405180910390f35b61054960048036038101906105449190614964565b6113a9565b6040516105569190614064565b60405180910390f35b6105676113c2565b6040516105749190614aa5565b60405180910390f35b61059760048036038101906105929190614ac5565b611500565b6040516105a49190614064565b60405180910390f35b6105c760048036038101906105c29190614bbf565b611535565b005b6105e360048036038101906105de91906143e5565b6115f8565b6040516105f0919061408c565b60405180910390f35b610613600480360381019061060e9190614bfd565b6116d4565b005b61061d6116ec565b60405161062a9190614c4d565b60405180910390f35b61063b611704565b6040516106489190613e52565b60405180910390f35b5f7f0000000000000000000000000000000000000000000000000000000000000000905090565b5f805f61068361171f565b61068b6117af565b5f6106946118cc565b90505f6106a082611935565b61ffff16905063029c1cb760e01b815f9450945094505050985098509895505050505050565b620100055f9054906101000a900461ffff1681565b7f000000000000000000000000000000000000000000000000000000000000000081565b6107076119d6565b6107208180360381019061071b9190614d1b565b611a9a565b610739818036038101906107349190614d1b565b611b70565b60025f6101000a81548171ffffffffffffffffffffffffffffffffffff021916908371ffffffffffffffffffffffffffffffffffff1602179055507f348d1d6a31fa4a2a3ef887c493549a9500fbb77b5218be0c81a71c553364305a816040516107a39190614e54565b60405180910390a150565b60035f9054906101000a900473ffffffffffffffffffffffffffffffffffffffff1681565b5f805f805f805f61081660025f9054906101000a900471ffffffffffffffffffffffffffffffffffff1671ffffffffffffffffffffffffffffffffffff16611bdd565b61085260025f9054906101000a900471ffffffffffffffffffffffffffffffffffff1671ffffffffffffffffffffffffffffffffffff16611bea565b809750819850505061089660025f9054906101000a900471ffffffffffffffffffffffffffffffffffff1671ffffffffffffffffffffffffffffffffffff16611bfa565b6108d260025f9054906101000a900471ffffffffffffffffffffffffffffffffffff1671ffffffffffffffffffffffffffffffffffff16611c0c565b809550819650505061091660025f9054906101000a900471ffffffffffffffffffffffffffffffffffff1671ffffffffffffffffffffffffffffffffffff16611c1e565b61095260025f9054906101000a900471ffffffffffffffffffffffffffffffffffff1671ffffffffffffffffffffffffffffffffffff16611c2e565b809350819450505061099660025f9054906101000a900471ffffffffffffffffffffffffffffffffffff1671ffffffffffffffffffffffffffffffffffff16611c3e565b905090919293949596565b7f8e8000aba5b365c0be9685da1153f7f096e76d1ecfb42c050ae1e387aa65b4f581565b5f6109ce61171f565b6109e35f8054906101000a900460ff16611c4e565b63343d37ff60e01b905098975050505050505050565b6201000560069054906101000a900460ff1681565b60018181548110610a1d575f80fd5b905f5260205f20015f915090508054610a3590614e9a565b80601f0160208091040260200160405190810160405280929190818152602001828054610a6190614e9a565b8015610aac5780601f10610a8357610100808354040283529160200191610aac565b820191905f5260205f20905b815481529060010190602001808311610a8f57829003601f168201915b505050505081565b5f80610abe61171f565b610ad35f8054906101000a900460ff16611c4e565b635e2411b260e01b5f9150915097509795505050505050565b5f610af561171f565b610b0a5f8054906101000a900460ff16611c4e565b63636fd80460e01b905092915050565b5f8054906101000a900460ff1681565b600581620100008110610b3b575f80fd5b015f91509050805f015f9054906101000a900460ff1690805f0160019054906101000a900463ffffffff1690805f0160059054906101000a900460060b90805f01600c9054906101000a90046affffffffffffffffffffff1690805f0160179054906101000a900460020b90805f01601a9054906101000a900460020b90805f01601d9054906101000a900461ffff16905087565b5f8073ffffffffffffffffffffffffffffffffffffffff168273ffffffffffffffffffffffffffffffffffffffff16141590505f8115610ccc577f000000000000000000000000000000000000000000000000000000000000000073ffffffffffffffffffffffffffffffffffffffff16638a2ade586040518163ffffffff1660e01b8152600401602060405180830381865afa158015610c73573d5f803e3d5ffd5b505050506040513d601f19601f82011682018060405250810190610c979190614ede565b73ffffffffffffffffffffffffffffffffffffffff163373ffffffffffffffffffffffffffffffffffffffff16149050610e37565b5f73ffffffffffffffffffffffffffffffffffffffff1660045f9054906101000a900473ffffffffffffffffffffffffffffffffffffffff1673ffffffffffffffffffffffffffffffffffffffff1614610d735760045f9054906101000a900473ffffffffffffffffffffffffffffffffffffffff1673ffffffffffffffffffffffffffffffffffffffff163373ffffffffffffffffffffffffffffffffffffffff161490505b80610e36577f000000000000000000000000000000000000000000000000000000000000000073ffffffffffffffffffffffffffffffffffffffff16638a2ade586040518163ffffffff1660e01b8152600401602060405180830381865afa158015610de1573d5f803e3d5ffd5b505050506040513d601f19601f82011682018060405250810190610e059190614ede565b73ffffffffffffffffffffffffffffffffffffffff163373ffffffffffffffffffffffffffffffffffffffff161490505b5b80610e77576040517f08c379a0000000000000000000000000000000000000000000000000000000008152600401610e6e90614f53565b60405180910390fd5b5f3073ffffffffffffffffffffffffffffffffffffffff16610e97611cf4565b73ffffffffffffffffffffffffffffffffffffffff161490508215610ef75780610ef6576040517f08c379a0000000000000000000000000000000000000000000000000000000008152600401610eed90614fbb565b60405180910390fd5b5b5f60035f9054906101000a900473ffffffffffffffffffffffffffffffffffffffff1690508473ffffffffffffffffffffffffffffffffffffffff168173ffffffffffffffffffffffffffffffffffffffff1603610f8a576040517f08c379a0000000000000000000000000000000000000000000000000000000008152600401610f8190615023565b60405180910390fd5b8315610fff575f73ffffffffffffffffffffffffffffffffffffffff168173ffffffffffffffffffffffffffffffffffffffff1614610ffe576040517f08c379a0000000000000000000000000000000000000000000000000000000008152600401610ff59061508b565b60405180910390fd5b5b8460035f6101000a81548173ffffffffffffffffffffffffffffffffffffffff021916908373ffffffffffffffffffffffffffffffffffffffff1602179055507f915c5369e6580733735d1c2e30ca20dcaa395697a041033c9f35f80f53525e848560405161106e9190613ba6565b60405180910390a183156110c1573360045f6101000a81548173ffffffffffffffffffffffffffffffffffffffff021916908373ffffffffffffffffffffffffffffffffffffffff160217905550611102565b5f60045f6101000a81548173ffffffffffffffffffffffffffffffffffffffff021916908373ffffffffffffffffffffffffffffffffffffffff1602179055505b811561111e5761111d5f8054906101000a900460ff16611d87565b5b5050505050565b6201000560069054906101000a900460ff1615611177576040517f08c379a000000000000000000000000000000000000000000000000000000000815260040161116e906150f3565b60405180910390fd5b3073ffffffffffffffffffffffffffffffffffffffff16611196611cf4565b73ffffffffffffffffffffffffffffffffffffffff16146111ec576040517f08c379a00000000000000000000000000000000000000000000000000000000081526004016111e390614fbb565b60405180910390fd5b5f806111f6611e34565b5050915091505f8273ffffffffffffffffffffffffffffffffffffffff1603611254576040517f08c379a000000000000000000000000000000000000000000000000000000000815260040161124b9061515b565b60405180910390fd5b61125d81611ede565b5050565b5f61126a61171f565b61127382611ede565b6382dd652260e01b90509392505050565b5f805f61128f611e34565b50509150505f620100055f9054906101000a900461ffff1690505f6112be826005611f5890919063ffffffff16565b90505f6112e46112cc611f99565b888686866005611fa09095949392919063ffffffff16565b905080604001518160600151809650819750505050505050915091565b5f61130a61171f565b61131f5f8054906101000a900460ff16611c4e565b638de0a8ee60e01b90509695505050505050565b5f61133c61171f565b6113458861233d565b639cb5a96360e01b90509998505050505050505050565b6060805f611368611e34565b505091505061139f611378611f99565b8583620100055f9054906101000a900461ffff16600561242590949392919063ffffffff16565b9250925050915091565b5f6113b261171f565b63aa6b14bb60e01b905092915050565b606060018054905067ffffffffffffffff8111156113e3576113e2614642565b5b60405190808252806020026020018201604052801561141657816020015b60608152602001906001900390816114015790505b5090505f5b6001805490508110156114fc576001818154811061143c5761143b615179565b5b905f5260205f2001805461144f90614e9a565b80601f016020809104026020016040519081016040528092919081815260200182805461147b90614e9a565b80156114c65780601f1061149d576101008083540402835291602001916114c6565b820191905f5260205f20905b8154815290600101906020018083116114a957829003601f168201915b50505050508282815181106114de576114dd615179565b5b602002602001018190525080806114f4906151d3565b91505061141b565b5090565b5f61150961171f565b61151e5f8054906101000a900460ff16611c4e565b63d685201060e01b90509998505050505050505050565b60058261ffff1662010000811061154f5761154e615179565b5b015f015f9054906101000a900460ff1615611568575f80fd5b5f8161ffff1611801561159057508061ffff168261ffff611589919061521a565b61ffff1610155b611598575f80fd5b5f8261ffff1690505b81830161ffff168110156115f35760016005826201000081106115c7576115c6615179565b5b015f0160016101000a81548163ffffffff021916908363ffffffff1602179055508060010190506115a1565b505050565b5f8173ffffffffffffffffffffffffffffffffffffffff1660035f9054906101000a900473ffffffffffffffffffffffffffffffffffffffff1673ffffffffffffffffffffffffffffffffffffffff1614611655575f90506116cf565b3073ffffffffffffffffffffffffffffffffffffffff16611674611cf4565b73ffffffffffffffffffffffffffffffffffffffff1614611697575f90506116cf565b5f6116a0611e34565b93505050506116bc60028260ff1661258d90919063ffffffff16565b6116c9575f9150506116cf565b60019150505b919050565b6116dc6119d6565b6116e783828461259b565b505050565b6201000560029054906101000a900463ffffffff1681565b5f8061170e6118cc565b905061171981611935565b91505090565b7f000000000000000000000000000000000000000000000000000000000000000073ffffffffffffffffffffffffffffffffffffffff163373ffffffffffffffffffffffffffffffffffffffff16146117ad576040517f08c379a00000000000000000000000000000000000000000000000000000000081526004016117a490615299565b60405180910390fd5b565b5f620100055f9054906101000a900461ffff1690505f6201000560029054906101000a900463ffffffff1690505f6201000560069054906101000a900460ff16905080611831576040517f08c379a000000000000000000000000000000000000000000000000000000000815260040161182890615301565b60405180910390fd5b5f61183a611f99565b90508063ffffffff168363ffffffff160361185857505050506118ca565b5f611861611e34565b50509150505f61187f868484600561263f909392919063ffffffff16565b50905080620100055f6101000a81548161ffff021916908361ffff160217905550826201000560026101000a81548163ffffffff021916908363ffffffff1602179055505050505050505b565b5f806118d6611f99565b90505f6118e1611e34565b50509150505f620100055f9054906101000a900461ffff1690505f611910826005611f5890919063ffffffff16565b905061192c84848484600561294990949392919063ffffffff16565b94505050505090565b5f8060025f9054906101000a900471ffffffffffffffffffffffffffffffffffff1690505f6119778271ffffffffffffffffffffffffffffffffffff16611bea565b6119948371ffffffffffffffffffffffffffffffffffff16611bdd565b1761ffff16036119c3576119bb8171ffffffffffffffffffffffffffffffffffff16611c3e565b9150506119d1565b6119cd8382612c2a565b9150505b919050565b7f000000000000000000000000000000000000000000000000000000000000000073ffffffffffffffffffffffffffffffffffffffff1663e8ae2b697f8e8000aba5b365c0be9685da1153f7f096e76d1ecfb42c050ae1e387aa65b4f5336040518363ffffffff1660e01b8152600401611a5192919061531f565b602060405180830381865afa158015611a6c573d5f803e3d5ffd5b505050506040513d601f19601f82011682018060405250810190611a90919061535a565b611a98575f80fd5b565b61ffff80168160c0015161ffff16826020015161ffff16835f015161ffff16611ac39190615385565b611acd9190615385565b1115611b0e576040517f08c379a0000000000000000000000000000000000000000000000000000000008152600401611b0590615402565b60405180910390fd5b5f816080015161ffff1614158015611b2e57505f8160a0015161ffff1614155b611b6d576040517f08c379a0000000000000000000000000000000000000000000000000000000008152600401611b649061546a565b60405180910390fd5b50565b5f80825f015161ffff166010846020015161ffff16901b6020856040015163ffffffff16901b6040866060015163ffffffff16901b6060876080015161ffff16901b60708860a0015161ffff16901b60808960c0015161ffff16901b171717171717905080915050919050565b5f8161ffff169050919050565b5f8160101c61ffff169050919050565b5f8160201c63ffffffff169050919050565b5f8160401c63ffffffff169050919050565b5f8160601c61ffff169050919050565b5f8160701c61ffff169050919050565b5f8160801c61ffff169050919050565b5f611c57611e34565b93505050508160ff168160ff1614611cf0577f000000000000000000000000000000000000000000000000000000000000000073ffffffffffffffffffffffffffffffffffffffff1663bca57f81836040518263ffffffff1660e01b8152600401611cc29190614310565b5f604051808303815f87803b158015611cd9575f80fd5b505af1158015611ceb573d5f803e3d5ffd5b505050505b5050565b5f7f000000000000000000000000000000000000000000000000000000000000000073ffffffffffffffffffffffffffffffffffffffff1663ef01df4f6040518163ffffffff1660e01b8152600401602060405180830381865afa158015611d5e573d5f803e3d5ffd5b505050506040513d601f19601f82011682018060405250810190611d829190614ede565b905090565b5f611d90611e34565b93505050505f82821790508060ff168260ff1614611e2f577f000000000000000000000000000000000000000000000000000000000000000073ffffffffffffffffffffffffffffffffffffffff1663bca57f81826040518263ffffffff1660e01b8152600401611e019190614310565b5f604051808303815f87803b158015611e18575f80fd5b505af1158015611e2a573d5f803e3d5ffd5b505050505b505050565b5f805f807f000000000000000000000000000000000000000000000000000000000000000073ffffffffffffffffffffffffffffffffffffffff1663e76c01e46040518163ffffffff1660e01b815260040160c060405180830381865afa158015611ea1573d5f803e3d5ffd5b505050506040513d601f19601f82011682018060405250810190611ec591906154ee565b9050508094508195508296508397505050505090919293565b5f611ee7611f99565b9050611eff81836005612d7c9092919063ffffffff16565b806201000560026101000a81548163ffffffff021916908363ffffffff16021790555060016201000560066101000a81548160ff021916908315150217905550611f545f8054906101000a900460ff16611d87565b5050565b5f80600183019050838161ffff16620100008110611f7957611f78615179565b5b015f015f9054906101000a900460ff1615611f92578091505b5092915050565b5f42905090565b611fa8613b0f565b5f85870390505f805f611fbe8b8b868a8a612e75565b50925092509250826040518060e00160405290815f82015f9054906101000a900460ff161515151581526020015f820160019054906101000a900463ffffffff1663ffffffff1663ffffffff1681526020015f820160059054906101000a900460060b60060b60060b81526020015f8201600c9054906101000a90046affffffffffffffffffffff166affffffffffffffffffffff166affffffffffffffffffffff1681526020015f820160179054906101000a900460020b60020b60020b81526020015f8201601a9054906101000a900460020b60020b60020b81526020015f8201601d9054906101000a900461ffff1661ffff1661ffff16815250509450846020015163ffffffff168463ffffffff16036120de5750505050612333565b801561211b575f806120fd8d878c8c8c8c602001518d60400151613088565b9150915061210e87878c85856130b7565b9650505050505050612333565b5f80835f0160019054906101000a900463ffffffff16845f0160059054906101000a900460060b915091508163ffffffff168663ffffffff160361225d57836040518060e00160405290815f82015f9054906101000a900460ff161515151581526020015f820160019054906101000a900463ffffffff1663ffffffff1663ffffffff1681526020015f820160059054906101000a900460060b60060b60060b81526020015f8201600c9054906101000a90046affffffffffffffffffffff166affffffffffffffffffffff166affffffffffffffffffffff1681526020015f820160179054906101000a900460020b60020b60020b81526020015f8201601a9054906101000a900460020b60020b60020b81526020015f8201601d9054906101000a900461ffff1661ffff1661ffff16815250509650505050505050612333565b5f808860200151840389602001518903915091508063ffffffff168263ffffffff1660060b8a60400151850360060b8161229a57612299615577565b5b0502896040018181510191509060060b908160060b815250508063ffffffff168263ffffffff168a60600151885f01600c9054906101000a90046affffffffffffffffffffff16036affffffffffffffffffffff16816122fd576122fc615577565b5b040289606001818151019150906affffffffffffffffffffff1690816affffffffffffffffffffff168152505050505050505050505b9695505050505050565b5f60035f9054906101000a900473ffffffffffffffffffffffffffffffffffffffff1690505f73ffffffffffffffffffffffffffffffffffffffff168173ffffffffffffffffffffffffffffffffffffffff1614612421575f61239e611e34565b50509150508173ffffffffffffffffffffffffffffffffffffffff166334d3359082856040518363ffffffff1660e01b81526004016123de9291906155a4565b6020604051808303815f875af11580156123fa573d5f803e3d5ffd5b505050506040513d601f19601f8201168201806040525081019061241e919061535a565b50505b5050565b6060805f855190508067ffffffffffffffff81111561244757612446614642565b5b6040519080825280602002602001820160405280156124755781602001602082028036833780820191505090505b5092508067ffffffffffffffff81111561249257612491614642565b5b6040519080825280602002602001820160405280156124c05781602001602082028036833780820191505090505b5091505f6124ce8986611f58565b90506124d8613b0f565b5f5b8381101561257f5761250a8b8b8b84815181106124fa576124f9615179565b5b60200260200101518b8b88611fa0565b91508160400151826060015187838151811061252957612528615179565b5b6020026020010187848151811061254357612542615179565b5b60200260200101826affffffffffffffffffffff166affffffffffffffffffffff168152508260060b60060b81525050508060010190506124da565b505050509550959350505050565b5f8082841611905092915050565b5f6040517fa9059cbb000000000000000000000000000000000000000000000000000000005f5273ffffffffffffffffffffffffffffffffffffffff84166004528260245260205f60445f80895af19150813d1560203d1460015f51141617169150806040525080612639576040517fe465903e00000000000000000000000000000000000000000000000000000000815260040160405180910390fd5b50505050565b5f805f868661ffff1662010000811061265b5761265a615179565b5b016040518060e00160405290815f82015f9054906101000a900460ff161515151581526020015f820160019054906101000a900463ffffffff1663ffffffff1663ffffffff1681526020015f820160059054906101000a900460060b60060b60060b81526020015f8201600c9054906101000a90046affffffffffffffffffffff166affffffffffffffffffffff166affffffffffffffffffffff1681526020015f820160179054906101000a900460020b60020b60020b81526020015f8201601a9054906101000a900460020b60020b60020b81526020015f8201601d9054906101000a900461ffff1661ffff1661ffff168152505090508463ffffffff16816020015163ffffffff160361277757855f9250925050612940565b600186019250868361ffff1662010000811061279657612795615179565b5b015f015f9054906101000a900460ff16156127af578291505b5f806127c88988888b8888602001518960400151613088565b915091508461ffff168161ffff16036127e45780806001019150505b6127f183888885856130b7565b898661ffff1662010000811061280a57612809615179565b5b015f820151815f015f6101000a81548160ff0219169083151502179055506020820151815f0160016101000a81548163ffffffff021916908363ffffffff1602179055506040820151815f0160056101000a81548166ffffffffffffff021916908360060b66ffffffffffffff1602179055506060820151815f01600c6101000a8154816affffffffffffffffffffff02191690836affffffffffffffffffffff1602179055506080820151815f0160176101000a81548162ffffff021916908360020b62ffffff16021790555060a0820151815f01601a6101000a81548162ffffff021916908360020b62ffffff16021790555060c0820151815f01601d6101000a81548161ffff021916908361ffff1602179055509050508461ffff168461ffff160361293c5783806001019450505b5050505b94509492505050565b5f80868461ffff1662010000811061296457612963615179565b5b0190505f8663ffffffff16825f0160019054906101000a900463ffffffff1663ffffffff161490505f825f01600c9054906101000a90046affffffffffffffffffffff1690505f835f01601d9054906101000a900461ffff169050826129d5576129d28a8a5f8b8b8b6131a7565b91505b5f8a8761ffff166201000081106129ef576129ee615179565b5b015f0160019054906101000a900463ffffffff169050612a1581620151808c038c613330565b15612b7e575f8415612b34578b8361ffff16620100008110612a3a57612a39615179565b5b015f0160019054906101000a900463ffffffff168c8461ffff16620100008110612a6757612a66615179565b5b015f01600c9054906101000a90046affffffffffffffffffffff1680925081935050505f828d6001860161ffff16620100008110612aa857612aa7615179565b5b015f0160019054906101000a900463ffffffff160390508063ffffffff1683620151808e030363ffffffff16838f6001880161ffff16620100008110612af157612af0615179565b5b015f01600c9054906101000a90046affffffffffffffffffffff1603026affffffffffffffffffffff1681612b2957612b28615577565b5b048201915050612b48565b612b458c8c620151808d8d8d6131a7565b90505b6201518063ffffffff168185036affffffffffffffffffffff1681612b7057612b6f615577565b5b049650505050505050612c21565b8063ffffffff168a63ffffffff1614612c1b575f8b8861ffff16620100008110612bab57612baa615179565b5b015f01600c9054906101000a90046affffffffffffffffffffff1690505f828c03905060018163ffffffff161115612be7578080600190039150505b8063ffffffff168286036affffffffffffffffffffff1681612c0c57612c0b615577565b5b04975050505050505050612c21565b50505050505b95945050505050565b5f600f836affffffffffffffffffffff1681612c4957612c48615577565b5b0492505f612cc0846affffffffffffffffffffff16612c7b8571ffffffffffffffffffffffffffffffffffff16611c2e565b612c988671ffffffffffffffffffffffffffffffffffff16611bea565b612cb58771ffffffffffffffffffffffffffffffffffff16611c0c565b63ffffffff16613375565b612d33856affffffffffffffffffffff16612cee8671ffffffffffffffffffffffffffffffffffff16611c1e565b612d0b8771ffffffffffffffffffffffffffffffffffff16611bdd565b612d288871ffffffffffffffffffffffffffffffffffff16611bfa565b63ffffffff16613375565b0190505f81612d558571ffffffffffffffffffffffffffffffffffff16611c3e565b61ffff1601905061ffff8016811115612d7157612d706155cb565b5b809250505092915050565b5f835f620100008110612d9257612d91615179565b5b019050805f015f9054906101000a900460ff1615612ddc576040517f1156234600000000000000000000000000000000000000000000000000000000815260040160405180910390fd5b6001838384845f015f865f016001885f0160178a5f01601a8891906101000a81548162ffffff021916908360020b62ffffff1602179055508791906101000a81548162ffffff021916908360020b62ffffff1602179055508691906101000a81548163ffffffff021916908363ffffffff1602179055508591906101000a81548160ff0219169083151502179055505050505050505050565b5f805f805f898761ffff16620100008110612e9357612e92615179565b5b0190505f815f0160019054906101000a900463ffffffff1690505f825f01601d9054906101000a900461ffff1690508a63ffffffff168a63ffffffff161480612ee35750612ee2828b8d613330565b5b15612f0457828360018b8061ffff169050965096509650965050505061307c565b5f6201518063ffffffff168b840363ffffffff1611612f3757819850620151808c0363ffffffff168b63ffffffff161490505b5f8d8a61ffff16620100008110612f5157612f50615179565b5b015f0160019054906101000a900463ffffffff169050612f72818d8f613330565b612fa8576040517f0bc60f1000000000000000000000000000000000000000000000000000000000815260040160405180910390fd5b8b63ffffffff168163ffffffff160361300b578d8a61ffff16620100008110612fd457612fd3615179565b5b018e8b61ffff16620100008110612fee57612fed615179565b5b0160018c8061ffff1690509850985098509850505050505061307c565b60018a0161ffff168b61ffff1603613053578d8a61ffff1662010000811061303657613035615179565b5b01855f8c8061ffff1690509850985098509850505050505061307c565b506130628d8d8d8d8d86613433565b809750819950829a5050505087875f975097509750505050505b95509550955095915050565b5f805f8061309b8b8b8b8b8b8b8b61348d565b9150915081818094508195505050505097509795505050505050565b6130bf613b0f565b5f8660200151860390506001875f01901515908115158152505085876020019063ffffffff16908163ffffffff16815250508063ffffffff168560020b02876040018181510191509060060b908160060b815250506131378163ffffffff168660020b8760020b8a60a0015160020b8860020b6135fe565b87606001818151019150906affffffffffffffffffffff1690816affffffffffffffffffffff168152505084876080019060020b908160020b81525050838760a0019060020b908160020b81525050828760c0019061ffff16908161ffff16815250508691505095945050505050565b5f8085870390505f805f6131be8b8b868a8a612e75565b509250925092505f80845f0160019054906101000a900463ffffffff16855f01600c9054906101000a90046affffffffffffffffffffff16915091508163ffffffff168663ffffffff160361321b57809650505050505050613326565b8215613285575f6132418e888d8d8d888c5f0160059054906101000a900460060b613088565b50905061327583880363ffffffff168c60020b8d60020b895f01601a9054906101000a900460020b60020b8560020b6135fe565b8201975050505050505050613326565b5f80855f0160019054906101000a900463ffffffff16865f01600c9054906101000a90046affffffffffffffffffffff16915091508163ffffffff168863ffffffff16036132dd578098505050505050505050613326565b5f80858403868b03915091508063ffffffff168263ffffffff168685036affffffffffffffffffffff168161331557613314615577565b5b040285019a50505050505050505050505b9695505050505050565b5f8163ffffffff168463ffffffff161190508163ffffffff168363ffffffff161115158115150361336e578263ffffffff168463ffffffff16111590505b9392505050565b5f818511156133d85781850394508361ffff16600602851061339d578261ffff16905061342b565b5f60048561ffff160a90505f6133b4878784613664565b9050808201818661ffff1602816133ce576133cd615577565b5b049250505061342a565b84820394508361ffff1660060285106133f3575f905061342b565b5f60048561ffff160a90505f61340a878784613664565b8201905080828661ffff16028161342457613423615577565b5b04925050505b5b949350505050565b5f805f808561ffff1690505f8661ffff168861ffff1610613458578761ffff16613463565b620100008861ffff16015b90506134738b8b8b85858b613821565b809550819650829750505050505096509650969350505050565b5f805f808a8761ffff166201000081106134aa576134a9615179565b5b015f0160019054906101000a900463ffffffff168b8861ffff166201000081106134d7576134d6615179565b5b015f0160059054906101000a900460060b915091505f868b0363ffffffff168a60020b028601905061350f83620151808d038d613330565b61357c578263ffffffff168b63ffffffff16036135415789888160020b91508061ffff169050945094505050506135f2565b828b0363ffffffff1660060b82820360060b8161356157613560615577565b5b05888160060b91508061ffff169050945094505050506135f2565b61358c87620151808d038d613330565b156135ac5789898160020b91508061ffff169050945094505050506135f2565b5f6135be8d8d620151808e8e8e6139ca565b80965081925050506201518063ffffffff1660060b81830360060b816135e7576135e6615577565b5b0560060b9550505050505b97509795505050505050565b5f808383038686030390505f878588030290505f60018901890290505f60018a600202018202905060028a0a6006026002840a8b600602028386866006020202836002880a0201018161365457613653615577565b5b0594505050505095945050505050565b5f80838504805f81146136a357600181146136b457600281146136c557600381146136d657600481146136e7576903248ca20bb7b5032f5f92506136f5565b68056bc75e2d6310000092506136f5565b680ebc5fb4174612111092506136f5565b68280e60114edb805d0392506136f5565b686ce2482d63ef54b74c92506136f5565b690127fa27722cc06cc5e392505b5084860695505060028461ffff168161371157613710615577565b5b0461ffff1685106137625760028461ffff168161373157613730615577565b5b0461ffff168503945068056bc75e2d631000006808f00f760a4b2db55c82028161375e5761375d615577565b5b0490505b5f8590508392508461ffff16848161377d5761377c615577565b5b049350838102830192508461ffff16848161379b5761379a615577565b5b04935085810290506002848202816137b6576137b5615577565b5b04830192508461ffff1684816137cf576137ce615577565b5b0493508581029050601886820260048761ffff1684020201816137f5576137f4615577565b5b048301925068056bc75e2d631000008284028161381557613814615577565b5b04925050509392505050565b5f805f83801561383357506002868603115b156138435760018601905061384d565b6001858701901c90505b888161ffff1662010000811061386657613865615179565b5b0192508291505f600190505b5f80855f015f9054906101000a900460ff16865f0160019054906101000a900463ffffffff16915091508115613949576138ad818b8d613330565b1561393d578b6001850161ffff166201000081106138ce576138cd615179565b5b0194505f80865f015f9054906101000a900460ff16875f0160019054906101000a900463ffffffff169150915081156139265761390c8c828f613330565b1561391b5750505050506139be565b600186019a50613936565b87889750975050505050506139be565b5050613944565b6001840397505b613950565b6001840198505b5f83801561395b5750875b80156139695750600185018a145b905080801561397a575060108a8a03115b1561398a5760088a019450613994565b6001898b01901c94505b8c8561ffff166201000081106139ad576139ac615179565b5b0196505f9350505050600161387257505b96509650969350505050565b5f805f86880390505f805f806139e38d8d878c8c612e75565b93509350935093505f80855f0160019054906101000a900463ffffffff16865f0160059054906101000a900460060b915091508163ffffffff168763ffffffff1603613a3b5780839850985050505050505050613b04565b8315613a625781870363ffffffff168c60020b028101839850985050505050505050613b04565b5f80865f0160019054906101000a900463ffffffff16875f0160059054906101000a900460060b915091508163ffffffff168963ffffffff1603613abe5780600186018061ffff1690509a509a50505050505050505050613b04565b5f80858403868c03915091508063ffffffff168263ffffffff1660060b86850360060b81613aef57613aee615577565b5b05028501879c509c5050505050505050505050505b965096945050505050565b6040518060e001604052805f151581526020015f63ffffffff1681526020015f60060b81526020015f6affffffffffffffffffffff1681526020015f60020b81526020015f60020b81526020015f61ffff1681525090565b5f73ffffffffffffffffffffffffffffffffffffffff82169050919050565b5f613b9082613b67565b9050919050565b613ba081613b86565b82525050565b5f602082019050613bb95f830184613b97565b92915050565b5f604051905090565b5f80fd5b5f80fd5b613bd981613b86565b8114613be3575f80fd5b50565b5f81359050613bf481613bd0565b92915050565b5f8115159050919050565b613c0e81613bfa565b8114613c18575f80fd5b50565b5f81359050613c2981613c05565b92915050565b5f819050919050565b613c4181613c2f565b8114613c4b575f80fd5b50565b5f81359050613c5c81613c38565b92915050565b613c6b81613b67565b8114613c75575f80fd5b50565b5f81359050613c8681613c62565b92915050565b5f80fd5b5f80fd5b5f80fd5b5f8083601f840112613cad57613cac613c8c565b5b8235905067ffffffffffffffff811115613cca57613cc9613c90565b5b602083019150836001820283011115613ce657613ce5613c94565b5b9250929050565b5f805f805f805f8060e0898b031215613d0957613d08613bc8565b5b5f613d168b828c01613be6565b9850506020613d278b828c01613be6565b9750506040613d388b828c01613c1b565b9650506060613d498b828c01613c4e565b9550506080613d5a8b828c01613c78565b94505060a0613d6b8b828c01613c1b565b93505060c089013567ffffffffffffffff811115613d8c57613d8b613bcc565b5b613d988b828c01613c98565b92509250509295985092959890939650565b5f7fffffffff0000000000000000000000000000000000000000000000000000000082169050919050565b613dde81613daa565b82525050565b5f62ffffff82169050919050565b613dfb81613de4565b82525050565b5f606082019050613e145f830186613dd5565b613e216020830185613df2565b613e2e6040830184613df2565b949350505050565b5f61ffff82169050919050565b613e4c81613e36565b82525050565b5f602082019050613e655f830184613e43565b92915050565b5f80fd5b5f60e08284031215613e8457613e83613e6b565b5b81905092915050565b5f60e08284031215613ea257613ea1613bc8565b5b5f613eaf84828501613e6f565b91505092915050565b5f63ffffffff82169050919050565b613ed081613eb8565b82525050565b5f60e082019050613ee95f83018a613e43565b613ef66020830189613e43565b613f036040830188613ec7565b613f106060830187613ec7565b613f1d6080830186613e43565b613f2a60a0830185613e43565b613f3760c0830184613e43565b98975050505050505050565b5f819050919050565b613f5581613f43565b82525050565b5f602082019050613f6e5f830184613f4c565b92915050565b5f819050919050565b613f8681613f74565b8114613f90575f80fd5b50565b5f81359050613fa181613f7d565b92915050565b5f805f805f805f8060e0898b031215613fc357613fc2613bc8565b5b5f613fd08b828c01613be6565b9850506020613fe18b828c01613be6565b9750506040613ff28b828c01613f93565b96505060606140038b828c01613f93565b95505060806140148b828c01613f93565b94505060a06140258b828c01613f93565b93505060c089013567ffffffffffffffff81111561404657614045613bcc565b5b6140528b828c01613c98565b92509250509295985092959890939650565b5f6020820190506140775f830184613dd5565b92915050565b61408681613bfa565b82525050565b5f60208201905061409f5f83018461407d565b92915050565b5f602082840312156140ba576140b9613bc8565b5b5f6140c784828501613f93565b91505092915050565b5f81519050919050565b5f82825260208201905092915050565b5f5b838110156141075780820151818401526020810190506140ec565b5f8484015250505050565b5f601f19601f8301169050919050565b5f61412c826140d0565b61413681856140da565b93506141468185602086016140ea565b61414f81614112565b840191505092915050565b5f6020820190508181035f8301526141728184614122565b905092915050565b5f8160020b9050919050565b61418f8161417a565b8114614199575f80fd5b50565b5f813590506141aa81614186565b92915050565b5f81600f0b9050919050565b6141c5816141b0565b81146141cf575f80fd5b50565b5f813590506141e0816141bc565b92915050565b5f805f805f805f60c0888a03121561420157614200613bc8565b5b5f61420e8a828b01613be6565b975050602061421f8a828b01613be6565b96505060406142308a828b0161419c565b95505060606142418a828b0161419c565b94505060806142528a828b016141d2565b93505060a088013567ffffffffffffffff81111561427357614272613bcc565b5b61427f8a828b01613c98565b925092505092959891949750929550565b5f6040820190506142a35f830185613dd5565b6142b06020830184613df2565b9392505050565b5f80604083850312156142cd576142cc613bc8565b5b5f6142da85828601613be6565b92505060206142eb85828601613c78565b9150509250929050565b5f60ff82169050919050565b61430a816142f5565b82525050565b5f6020820190506143235f830184614301565b92915050565b5f8160060b9050919050565b61433e81614329565b82525050565b5f6affffffffffffffffffffff82169050919050565b61436381614344565b82525050565b6143728161417a565b82525050565b5f60e08201905061438b5f83018a61407d565b6143986020830189613ec7565b6143a56040830188614335565b6143b2606083018761435a565b6143bf6080830186614369565b6143cc60a0830185614369565b6143d960c0830184613e43565b98975050505050505050565b5f602082840312156143fa576143f9613bc8565b5b5f61440784828501613be6565b91505092915050565b5f805f6060848603121561442757614426613bc8565b5b5f61443486828701613be6565b935050602061444586828701613c78565b92505060406144568682870161419c565b9150509250925092565b61446981613eb8565b8114614473575f80fd5b50565b5f8135905061448481614460565b92915050565b5f6020828403121561449f5761449e613bc8565b5b5f6144ac84828501614476565b91505092915050565b5f6040820190506144c85f830185614335565b6144d5602083018461435a565b9392505050565b5f805f805f8060a087890312156144f6576144f5613bc8565b5b5f61450389828a01613be6565b965050602061451489828a01613be6565b955050604061452589828a01613f93565b945050606061453689828a01613f93565b935050608087013567ffffffffffffffff81111561455757614556613bcc565b5b61456389828a01613c98565b92509250509295509295509295565b5f805f805f805f805f6101008a8c0312156145905761458f613bc8565b5b5f61459d8c828d01613be6565b99505060206145ae8c828d01613be6565b98505060406145bf8c828d01613c1b565b97505060606145d08c828d01613c4e565b96505060806145e18c828d01613c78565b95505060a06145f28c828d01613c4e565b94505060c06146038c828d01613c4e565b93505060e08a013567ffffffffffffffff81111561462457614623613bcc565b5b6146308c828d01613c98565b92509250509295985092959850929598565b7f4e487b71000000000000000000000000000000000000000000000000000000005f52604160045260245ffd5b61467882614112565b810181811067ffffffffffffffff8211171561469757614696614642565b5b80604052505050565b5f6146a9613bbf565b90506146b5828261466f565b919050565b5f67ffffffffffffffff8211156146d4576146d3614642565b5b602082029050602081019050919050565b5f6146f76146f2846146ba565b6146a0565b9050808382526020820190506020840283018581111561471a57614719613c94565b5b835b81811015614743578061472f8882614476565b84526020840193505060208101905061471c565b5050509392505050565b5f82601f83011261476157614760613c8c565b5b81356147718482602086016146e5565b91505092915050565b5f6020828403121561478f5761478e613bc8565b5b5f82013567ffffffffffffffff8111156147ac576147ab613bcc565b5b6147b88482850161474d565b91505092915050565b5f81519050919050565b5f82825260208201905092915050565b5f819050602082019050919050565b6147f381614329565b82525050565b5f61480483836147ea565b60208301905092915050565b5f602082019050919050565b5f614826826147c1565b61483081856147cb565b935061483b836147db565b805f5b8381101561486b57815161485288826147f9565b975061485d83614810565b92505060018101905061483e565b5085935050505092915050565b5f81519050919050565b5f82825260208201905092915050565b5f819050602082019050919050565b6148aa81614344565b82525050565b5f6148bb83836148a1565b60208301905092915050565b5f602082019050919050565b5f6148dd82614878565b6148e78185614882565b93506148f283614892565b805f5b8381101561492257815161490988826148b0565b9750614914836148c7565b9250506001810190506148f5565b5085935050505092915050565b5f6040820190508181035f830152614947818561481c565b9050818103602083015261495b81846148d3565b90509392505050565b5f806040838503121561497a57614979613bc8565b5b5f61498785828601613f93565b925050602061499885828601613f93565b9150509250929050565b5f81519050919050565b5f82825260208201905092915050565b5f819050602082019050919050565b5f82825260208201905092915050565b5f6149e5826140d0565b6149ef81856149cb565b93506149ff8185602086016140ea565b614a0881614112565b840191505092915050565b5f614a1e83836149db565b905092915050565b5f602082019050919050565b5f614a3c826149a2565b614a4681856149ac565b935083602082028501614a58856149bc565b805f5b85811015614a935784840389528151614a748582614a13565b9450614a7f83614a26565b925060208a01995050600181019050614a5b565b50829750879550505050505092915050565b5f6020820190508181035f830152614abd8184614a32565b905092915050565b5f805f805f805f805f6101008a8c031215614ae357614ae2613bc8565b5b5f614af08c828d01613be6565b9950506020614b018c828d01613be6565b9850506040614b128c828d0161419c565b9750506060614b238c828d0161419c565b9650506080614b348c828d016141d2565b95505060a0614b458c828d01613f93565b94505060c0614b568c828d01613f93565b93505060e08a013567ffffffffffffffff811115614b7757614b76613bcc565b5b614b838c828d01613c98565b92509250509295985092959850929598565b614b9e81613e36565b8114614ba8575f80fd5b50565b5f81359050614bb981614b95565b92915050565b5f8060408385031215614bd557614bd4613bc8565b5b5f614be285828601614bab565b9250506020614bf385828601614bab565b9150509250929050565b5f805f60608486031215614c1457614c13613bc8565b5b5f614c2186828701613be6565b9350506020614c3286828701613f93565b9250506040614c4386828701613be6565b9150509250925092565b5f602082019050614c605f830184613ec7565b92915050565b5f80fd5b5f60e08284031215614c7f57614c7e614c66565b5b614c8960e06146a0565b90505f614c9884828501614bab565b5f830152506020614cab84828501614bab565b6020830152506040614cbf84828501614476565b6040830152506060614cd384828501614476565b6060830152506080614ce784828501614bab565b60808301525060a0614cfb84828501614bab565b60a08301525060c0614d0f84828501614bab565b60c08301525092915050565b5f60e08284031215614d3057614d2f613bc8565b5b5f614d3d84828501614c6a565b91505092915050565b5f614d546020840184614bab565b905092915050565b614d6581613e36565b82525050565b5f614d796020840184614476565b905092915050565b614d8a81613eb8565b82525050565b60e08201614da05f830183614d46565b614dac5f850182614d5c565b50614dba6020830183614d46565b614dc76020850182614d5c565b50614dd56040830183614d6b565b614de26040850182614d81565b50614df06060830183614d6b565b614dfd6060850182614d81565b50614e0b6080830183614d46565b614e186080850182614d5c565b50614e2660a0830183614d46565b614e3360a0850182614d5c565b50614e4160c0830183614d46565b614e4e60c0850182614d5c565b50505050565b5f60e082019050614e675f830184614d90565b92915050565b7f4e487b71000000000000000000000000000000000000000000000000000000005f52602260045260245ffd5b5f6002820490506001821680614eb157607f821691505b602082108103614ec457614ec3614e6d565b5b50919050565b5f81519050614ed881613bd0565b92915050565b5f60208284031215614ef357614ef2613bc8565b5b5f614f0084828501614eca565b91505092915050565b7f4e6f7420616c6c6f77656420746f2073657420696e63656e74697665000000005f82015250565b5f614f3d601c836140da565b9150614f4882614f09565b602082019050919050565b5f6020820190508181035f830152614f6a81614f31565b9050919050565b7f506c7567696e206e6f74206174746163686564000000000000000000000000005f82015250565b5f614fa56013836140da565b9150614fb082614f71565b602082019050919050565b5f6020820190508181035f830152614fd281614f99565b9050919050565b7f416c7265616479206163746976650000000000000000000000000000000000005f82015250565b5f61500d600e836140da565b915061501882614fd9565b602082019050919050565b5f6020820190508181035f83015261503a81615001565b9050919050565b7f4861732061637469766520696e63656e746976650000000000000000000000005f82015250565b5f6150756014836140da565b915061508082615041565b602082019050919050565b5f6020820190508181035f8301526150a281615069565b9050919050565b7f416c726561647920696e697469616c697a6564000000000000000000000000005f82015250565b5f6150dd6013836140da565b91506150e8826150a9565b602082019050919050565b5f6020820190508181035f83015261510a816150d1565b9050919050565b7f506f6f6c206973206e6f7420696e697469616c697a65640000000000000000005f82015250565b5f6151456017836140da565b915061515082615111565b602082019050919050565b5f6020820190508181035f83015261517281615139565b9050919050565b7f4e487b71000000000000000000000000000000000000000000000000000000005f52603260045260245ffd5b7f4e487b71000000000000000000000000000000000000000000000000000000005f52601160045260245ffd5b5f6151dd82613f74565b91507fffffffffffffffffffffffffffffffffffffffffffffffffffffffffffffffff820361520f5761520e6151a6565b5b600182019050919050565b5f61522482613e36565b915061522f83613e36565b9250828203905061ffff811115615249576152486151a6565b5b92915050565b7f4f6e6c7920706f6f6c2063616e2063616c6c20746869730000000000000000005f82015250565b5f6152836017836140da565b915061528e8261524f565b602082019050919050565b5f6020820190508181035f8301526152b081615277565b9050919050565b7f4e6f7420696e697469616c697a656400000000000000000000000000000000005f82015250565b5f6152eb600f836140da565b91506152f6826152b7565b602082019050919050565b5f6020820190508181035f830152615318816152df565b9050919050565b5f6040820190506153325f830185613f4c565b61533f6020830184613b97565b9392505050565b5f8151905061535481613c05565b92915050565b5f6020828403121561536f5761536e613bc8565b5b5f61537c84828501615346565b91505092915050565b5f61538f82613f74565b915061539a83613f74565b92508282019050808211156153b2576153b16151a6565b5b92915050565b7f4d617820666565206578636565646564000000000000000000000000000000005f82015250565b5f6153ec6010836140da565b91506153f7826153b8565b602082019050919050565b5f6020820190508181035f830152615419816153e0565b9050919050565b7f47616d6d6173206d757374206265203e203000000000000000000000000000005f82015250565b5f6154546012836140da565b915061545f82615420565b602082019050919050565b5f6020820190508181035f83015261548181615448565b9050919050565b5f8151905061549681613c62565b92915050565b5f815190506154aa81614186565b92915050565b5f815190506154be81614b95565b92915050565b6154cd816142f5565b81146154d7575f80fd5b50565b5f815190506154e8816154c4565b92915050565b5f805f805f8060c0878903121561550857615507613bc8565b5b5f61551589828a01615488565b965050602061552689828a0161549c565b955050604061553789828a016154b0565b945050606061554889828a016154da565b935050608061555989828a016154b0565b92505060a061556a89828a01615346565b9150509295509295509295565b7f4e487b71000000000000000000000000000000000000000000000000000000005f52601260045260245ffd5b5f6040820190506155b75f830185614369565b6155c4602083018461407d565b9392505050565b7f4e487b71000000000000000000000000000000000000000000000000000000005f52600160045260245ffdfea164736f6c6343000814000aa164736f6c6343000814000a","linkReferences":{}},"methodIdentifiers":{"ALGEBRA_CUSTOM_PLUGIN_ADMINISTRATOR()":"4d5abbc2","afterCreatePoolHook(address,address,address)":"8d5ef8d1","algebraFactory()":"a7b64b04","beforeCreatePoolHook(address,address,address,address,address,bytes)":"1d0338d9","cdsFactory()":"979ebba8","cleanExpiredLocks(uint128,address,uint256,uint256)":"198f0aa1","createCustomPool(address,address,address,bytes)":"819dbd89","createLock(uint128,address,uint256,uint64)":"0bae9893","defaultFeeConfiguration()":"4e09a96a","deposit(uint128,address,uint256)":"83802968","entryPoint()":"b0d691fe","farmingAddress()":"8a2ade58","getAccountAvailableCollateral(uint128,address)":"927482ff","getAccountCollateral(uint128,address)":"ef45148e","getLocks(uint128,address,uint256,uint256)":"aa8c6369","onUserDataHook(bytes)":"f47e8efa","pluginByPool(address)":"cdef16f6","setDefaultFeeConfiguration((uint16,uint16,uint32,uint32,uint16,uint16,uint16))":"f718949a","setFarmingAddress(address)":"b001f618","withdraw(uint128,address,uint256)":"95997c51"},"id":139}