{"abi":[{"type":"constructor","inputs":[{"name":"_cdsFactory","type":"address","internalType":"contract ICDSFactory"}],"stateMutability":"nonpayable"},{"type":"function","name":"cdsFactory","inputs":[],"outputs":[{"name":"","type":"address","internalType":"contract ICDSFactory"}],"stateMutability":"view"},{"type":"function","name":"onUserDataHook","inputs":[{"name":"userData","type":"bytes","internalType":"bytes"}],"outputs":[],"stateMutability":"nonpayable"}],"bytecode":{"object":"0x60a060405234801561000f575f5ffd5b506040516117ad3803806117ad833981810160405281019061003191906100da565b8073ffffffffffffffffffffffffffffffffffffffff1660808173ffffffffffffffffffffffffffffffffffffffff168152505050610105565b5f5ffd5b5f73ffffffffffffffffffffffffffffffffffffffff82169050919050565b5f6100988261006f565b9050919050565b5f6100a98261008e565b9050919050565b6100b98161009f565b81146100c3575f5ffd5b50565b5f815190506100d4816100b0565b92915050565b5f602082840312156100ef576100ee61006b565b5b5f6100fc848285016100c6565b91505092915050565b60805161168b6101225f395f81816074015260fa015261168b5ff3fe608060405234801561000f575f5ffd5b5060043610610034575f3560e01c8063979ebba814610038578063f47e8efa14610056575b5f5ffd5b610040610072565b60405161004d91906108f7565b60405180910390f35b610070600480360381019061006b9190610a5d565b610096565b005b7f000000000000000000000000000000000000000000000000000000000000000081565b5f818060200190518101906100ab9190610d47565b90505f6100b78261019d565b90508060085f846040015181526020019081526020015f205f820151815f01556020820151816001015560408201518160020155606082015181600301559050507f000000000000000000000000000000000000000000000000000000000000000073ffffffffffffffffffffffffffffffffffffffff16636f7ed1d78360400151836040518363ffffffff1660e01b8152600401610157929190610e3b565b6020604051808303815f875af1158015610173573d5f5f3e3d5ffd5b505050506040513d601f19601f820116820180604052508101906101979190610e9d565b50505050565b6101a5610859565b60405180608001604052806101d0846101c00151856101e0015186610200015187610220015161024c565b81526020016101f5846102400151856102600151866102800151876102a001516103b0565b8152602001610220846101200151856101400151866101600151876101800151886101a0015161053b565b81526020016102428460a001518560c001518660e001518761010001516106f5565b8152509050919050565b5f5f8560ff1690505f8560ff1690505f8560ff1690505f8560ff16905060648411156102ad576040517f08c379a00000000000000000000000000000000000000000000000000000000081526004016102a490610f22565b60405180910390fd5b60648311156102f1576040517f08c379a00000000000000000000000000000000000000000000000000000000081526004016102e890610f8a565b60405180910390fd5b6064821115610335576040517f08c379a000000000000000000000000000000000000000000000000000000000815260040161032c90610ff2565b60405180910390fd5b6064811115610379576040517f08c379a00000000000000000000000000000000000000000000000000000000081526004016103709061105a565b60405180910390fd5b5f5f90505f85901b81179050600884901b81179050601083901b81179050601882901b811790508095505050505050949350505050565b5f5f8560ff1690505f8560ff1690505f8560ff1690505f8560ff1690506064841115610411576040517f08c379a0000000000000000000000000000000000000000000000000000000008152600401610408906110c2565b60405180910390fd5b60018310158015610423575060058311155b610462576040517f08c379a000000000000000000000000000000000000000000000000000000000815260040161045990611150565b60405180910390fd5b60018210158015610474575060058211155b6104b3576040517f08c379a00000000000000000000000000000000000000000000000000000000081526004016104aa906111de565b60405180910390fd5b600181101580156104c5575060058111155b610504576040517f08c379a00000000000000000000000000000000000000000000000000000000081526004016104fb90611246565b60405180910390fd5b5f5f90505f85901b81179050600884901b81179050600b83901b81179050600e82901b811790508095505050505050949350505050565b5f5f8660ff1690505f8660ff1690505f8660ff1690505f8660ff1690505f8660ff16905060648511156105a3576040517f08c379a000000000000000000000000000000000000000000000000000000000815260040161059a906112ae565b60405180910390fd5b60648411156105e7576040517f08c379a00000000000000000000000000000000000000000000000000000000081526004016105de9061133c565b60405180910390fd5b606483111561062b576040517f08c379a0000000000000000000000000000000000000000000000000000000008152600401610622906113ca565b60405180910390fd5b606482111561066f576040517f08c379a000000000000000000000000000000000000000000000000000000000815260040161066690611432565b60405180910390fd5b60648111156106b3576040517f08c379a00000000000000000000000000000000000000000000000000000000081526004016106aa906114c0565b60405180910390fd5b5f5f90505f86901b81179050600885901b81179050601084901b81179050601883901b81179050602082901b8117905080965050505050505095945050505050565b5f5f8560ff1690505f8560ff1690505f8560ff1690505f8560ff1690506064841115610756576040517f08c379a000000000000000000000000000000000000000000000000000000000815260040161074d90611528565b60405180910390fd5b606483111561079a576040517f08c379a000000000000000000000000000000000000000000000000000000000815260040161079190611590565b60405180910390fd5b60648211156107de576040517f08c379a00000000000000000000000000000000000000000000000000000000081526004016107d5906115f8565b60405180910390fd5b6064811115610822576040517f08c379a000000000000000000000000000000000000000000000000000000000815260040161081990611660565b60405180910390fd5b5f5f90505f85901b81179050600884901b81179050601083901b81179050601882901b811790508095505050505050949350505050565b60405180608001604052805f81526020015f81526020015f81526020015f81525090565b5f73ffffffffffffffffffffffffffffffffffffffff82169050919050565b5f819050919050565b5f6108bf6108ba6108b58461087d565b61089c565b61087d565b9050919050565b5f6108d0826108a5565b9050919050565b5f6108e1826108c6565b9050919050565b6108f1816108d7565b82525050565b5f60208201905061090a5f8301846108e8565b92915050565b5f604051905090565b5f5ffd5b5f5ffd5b5f5ffd5b5f5ffd5b5f601f19601f8301169050919050565b7f4e487b71000000000000000000000000000000000000000000000000000000005f52604160045260245ffd5b61096f82610929565b810181811067ffffffffffffffff8211171561098e5761098d610939565b5b80604052505050565b5f6109a0610910565b90506109ac8282610966565b919050565b5f67ffffffffffffffff8211156109cb576109ca610939565b5b6109d482610929565b9050602081019050919050565b828183375f83830152505050565b5f610a016109fc846109b1565b610997565b905082815260208101848484011115610a1d57610a1c610925565b5b610a288482856109e1565b509392505050565b5f82601f830112610a4457610a43610921565b5b8135610a548482602086016109ef565b91505092915050565b5f60208284031215610a7257610a71610919565b5b5f82013567ffffffffffffffff811115610a8f57610a8e61091d565b5b610a9b84828501610a30565b91505092915050565b5f5ffd5b5f819050919050565b610aba81610aa8565b8114610ac4575f5ffd5b50565b5f81519050610ad581610ab1565b92915050565b5f610ae58261087d565b9050919050565b610af581610adb565b8114610aff575f5ffd5b50565b5f81519050610b1081610aec565b92915050565b5f60ff82169050919050565b610b2b81610b16565b8114610b35575f5ffd5b50565b5f81519050610b4681610b22565b92915050565b5f6102c08284031215610b6257610b61610aa4565b5b610b6d6102c0610997565b90505f610b7c84828501610ac7565b5f830152506020610b8f84828501610ac7565b6020830152506040610ba384828501610ac7565b6040830152506060610bb784828501610b02565b6060830152506080610bcb84828501610b38565b60808301525060a0610bdf84828501610b38565b60a08301525060c0610bf384828501610b38565b60c08301525060e0610c0784828501610b38565b60e083015250610100610c1c84828501610b38565b61010083015250610120610c3284828501610b38565b61012083015250610140610c4884828501610b38565b61014083015250610160610c5e84828501610b38565b61016083015250610180610c7484828501610b38565b610180830152506101a0610c8a84828501610b38565b6101a0830152506101c0610ca084828501610b38565b6101c0830152506101e0610cb684828501610b38565b6101e083015250610200610ccc84828501610b38565b61020083015250610220610ce284828501610b38565b61022083015250610240610cf884828501610b38565b61024083015250610260610d0e84828501610b38565b61026083015250610280610d2484828501610b38565b610280830152506102a0610d3a84828501610b38565b6102a08301525092915050565b5f6102c08284031215610d5d57610d5c610919565b5b5f610d6a84828501610b4c565b91505092915050565b610d7c81610aa8565b82525050565b5f819050919050565b5f610da5610da0610d9b84610d82565b61089c565b610d82565b9050919050565b610db581610d8b565b82525050565b610dc481610d8b565b82525050565b610dd381610d8b565b82525050565b610de281610d8b565b82525050565b608082015f820151610dfc5f850182610dac565b506020820151610e0f6020850182610dbb565b506040820151610e226040850182610dca565b506060820151610e356060850182610dd9565b50505050565b5f60a082019050610e4e5f830185610d73565b610e5b6020830184610de8565b9392505050565b5f610e6c82610adb565b9050919050565b610e7c81610e62565b8114610e86575f5ffd5b50565b5f81519050610e9781610e73565b92915050565b5f60208284031215610eb257610eb1610919565b5b5f610ebf84828501610e89565b91505092915050565b5f82825260208201905092915050565b7f4c69717569646974792073636f7265206f7574206f662072616e6765000000005f82015250565b5f610f0c601c83610ec8565b9150610f1782610ed8565b602082019050919050565b5f6020820190508181035f830152610f3981610f00565b9050919050565b7f4c657665726167652073636f7265206f7574206f662072616e676500000000005f82015250565b5f610f74601b83610ec8565b9150610f7f82610f40565b602082019050919050565b5f6020820190508181035f830152610fa181610f68565b9050919050565b7f4361736820666c6f772073636f7265206f7574206f662072616e6765000000005f82015250565b5f610fdc601c83610ec8565b9150610fe782610fa8565b602082019050919050565b5f6020820190508181035f83015261100981610fd0565b9050919050565b7f50726f6669746162696c6974792073636f7265206f7574206f662072616e67655f82015250565b5f611044602083610ec8565b915061104f82611010565b602082019050919050565b5f6020820190508181035f83015261107181611038565b9050919050565b7f4d61726b657420766f6c6174696c697479206f7574206f662072616e676500005f82015250565b5f6110ac601e83610ec8565b91506110b782611078565b602082019050919050565b5f6020820190508181035f8301526110d9816110a0565b9050919050565b7f45636f6e6f6d6963206379636c6520706f736974696f6e206f7574206f6620725f8201527f616e676500000000000000000000000000000000000000000000000000000000602082015250565b5f61113a602483610ec8565b9150611145826110e0565b604082019050919050565b5f6020820190508181035f8301526111678161112e565b9050919050565b7f526567756c61746f72792073746162696c697479206f7574206f662072616e675f8201527f6500000000000000000000000000000000000000000000000000000000000000602082015250565b5f6111c8602183610ec8565b91506111d38261116e565b604082019050919050565b5f6020820190508181035f8301526111f5816111bc565b9050919050565b7f536561736f6e616c697479206f7574206f662072616e676500000000000000005f82015250565b5f611230601883610ec8565b915061123b826111fc565b602082019050919050565b5f6020820190508181035f83015261125d81611224565b9050919050565b7f427573696e657373206167652073636f7265206f7574206f662072616e6765005f82015250565b5f611298601f83610ec8565b91506112a382611264565b602082019050919050565b5f6020820190508181035f8301526112c58161128c565b9050919050565b7f526576656e75652073746162696c6974792073636f7265206f7574206f6620725f8201527f616e676500000000000000000000000000000000000000000000000000000000602082015250565b5f611326602483610ec8565b9150611331826112cc565b604082019050919050565b5f6020820190508181035f8301526113538161131a565b9050919050565b7f4d61726b657420706f736974696f6e2073636f7265206f7574206f662072616e5f8201527f6765000000000000000000000000000000000000000000000000000000000000602082015250565b5f6113b4602283610ec8565b91506113bf8261135a565b604082019050919050565b5f6020820190508181035f8301526113e1816113a8565b9050919050565b7f496e647573747279207269736b2073636f7265206f7574206f662072616e67655f82015250565b5f61141c602083610ec8565b9150611427826113e8565b602082019050919050565b5f6020820190508181035f83015261144981611410565b9050919050565b7f526567756c61746f727920636f6d706c69616e63652073636f7265206f7574205f8201527f6f662072616e6765000000000000000000000000000000000000000000000000602082015250565b5f6114aa602883610ec8565b91506114b582611450565b604082019050919050565b5f6020820190508181035f8301526114d78161149e565b9050919050565b7f4372656469742073636f7265206f7574206f662072616e6765000000000000005f82015250565b5f611512601983610ec8565b915061151d826114de565b602082019050919050565b5f6020820190508181035f83015261153f81611506565b9050919050565b7f44656661756c742070726f626162696c697479206f7574206f662072616e67655f82015250565b5f61157a602083610ec8565b915061158582611546565b602082019050919050565b5f6020820190508181035f8301526115a78161156e565b9050919050565b7f4c6f737320676976656e2064656661756c74206f7574206f662072616e6765005f82015250565b5f6115e2601f83610ec8565b91506115ed826115ae565b602082019050919050565b5f6020820190508181035f83015261160f816115d6565b9050919050565b7f5265636f766572792072617465206f7574206f662072616e67650000000000005f82015250565b5f61164a601a83610ec8565b915061165582611616565b602082019050919050565b5f6020820190508181035f8301526116778161163e565b905091905056fea164736f6c634300081c000a","linkReferences":{}},"methodIdentifiers":{"cdsFactory()":"979ebba8","onUserDataHook(bytes)":"f47e8efa"},"id":16}