{"abi":[{"type":"function","name":"allowance","inputs":[{"name":"owner","type":"address","internalType":"address"},{"name":"spender","type":"address","internalType":"address"},{"name":"id","type":"uint256","internalType":"uint256"}],"outputs":[{"name":"","type":"uint256","internalType":"uint256"}],"stateMutability":"view"},{"type":"function","name":"approve","inputs":[{"name":"spender","type":"address","internalType":"address"},{"name":"id","type":"uint256","internalType":"uint256"},{"name":"amount","type":"uint256","internalType":"uint256"}],"outputs":[{"name":"","type":"bool","internalType":"bool"}],"stateMutability":"nonpayable"},{"type":"function","name":"balanceOf","inputs":[{"name":"owner","type":"address","internalType":"address"},{"name":"id","type":"uint256","internalType":"uint256"}],"outputs":[{"name":"","type":"uint256","internalType":"uint256"}],"stateMutability":"view"},{"type":"function","name":"isOperator","inputs":[{"name":"owner","type":"address","internalType":"address"},{"name":"spender","type":"address","internalType":"address"}],"outputs":[{"name":"","type":"bool","internalType":"bool"}],"stateMutability":"view"},{"type":"function","name":"setOperator","inputs":[{"name":"spender","type":"address","internalType":"address"},{"name":"approved","type":"bool","internalType":"bool"}],"outputs":[{"name":"","type":"bool","internalType":"bool"}],"stateMutability":"nonpayable"},{"type":"function","name":"supportsInterface","inputs":[{"name":"interfaceId","type":"bytes4","internalType":"bytes4"}],"outputs":[{"name":"","type":"bool","internalType":"bool"}],"stateMutability":"view"},{"type":"function","name":"totalSupply","inputs":[{"name":"id","type":"uint256","internalType":"uint256"}],"outputs":[{"name":"","type":"uint256","internalType":"uint256"}],"stateMutability":"view"},{"type":"function","name":"transfer","inputs":[{"name":"receiver","type":"address","internalType":"address"},{"name":"id","type":"uint256","internalType":"uint256"},{"name":"amount","type":"uint256","internalType":"uint256"}],"outputs":[{"name":"","type":"bool","internalType":"bool"}],"stateMutability":"nonpayable"},{"type":"function","name":"transferFrom","inputs":[{"name":"sender","type":"address","internalType":"address"},{"name":"receiver","type":"address","internalType":"address"},{"name":"id","type":"uint256","internalType":"uint256"},{"name":"amount","type":"uint256","internalType":"uint256"}],"outputs":[{"name":"","type":"bool","internalType":"bool"}],"stateMutability":"nonpayable"},{"type":"event","name":"Approval","inputs":[{"name":"owner","type":"address","indexed":true,"internalType":"address"},{"name":"spender","type":"address","indexed":true,"internalType":"address"},{"name":"id","type":"uint256","indexed":true,"internalType":"uint256"},{"name":"amount","type":"uint256","indexed":false,"internalType":"uint256"}],"anonymous":false},{"type":"event","name":"OperatorSet","inputs":[{"name":"owner","type":"address","indexed":true,"internalType":"address"},{"name":"spender","type":"address","indexed":true,"internalType":"address"},{"name":"approved","type":"bool","indexed":false,"internalType":"bool"}],"anonymous":false},{"type":"event","name":"Transfer","inputs":[{"name":"caller","type":"address","indexed":false,"internalType":"address"},{"name":"sender","type":"address","indexed":true,"internalType":"address"},{"name":"receiver","type":"address","indexed":true,"internalType":"address"},{"name":"id","type":"uint256","indexed":true,"internalType":"uint256"},{"name":"amount","type":"uint256","indexed":false,"internalType":"uint256"}],"anonymous":false},{"type":"error","name":"ERC6909InsufficientAllowance","inputs":[{"name":"spender","type":"address","internalType":"address"},{"name":"allowance","type":"uint256","internalType":"uint256"},{"name":"needed","type":"uint256","internalType":"uint256"},{"name":"id","type":"uint256","internalType":"uint256"}]},{"type":"error","name":"ERC6909InsufficientBalance","inputs":[{"name":"sender","type":"address","internalType":"address"},{"name":"balance","type":"uint256","internalType":"uint256"},{"name":"needed","type":"uint256","internalType":"uint256"},{"name":"id","type":"uint256","internalType":"uint256"}]},{"type":"error","name":"ERC6909InvalidApprover","inputs":[{"name":"approver","type":"address","internalType":"address"}]},{"type":"error","name":"ERC6909InvalidReceiver","inputs":[{"name":"receiver","type":"address","internalType":"address"}]},{"type":"error","name":"ERC6909InvalidSender","inputs":[{"name":"sender","type":"address","internalType":"address"}]},{"type":"error","name":"ERC6909InvalidSpender","inputs":[{"name":"spender","type":"address","internalType":"address"}]}],"bytecode":{"object":"0x608060405234801561000f575f80fd5b506112ab8061001d5f395ff3fe608060405234801561000f575f80fd5b5060043610610090575f3560e01c8063558a729711610064578063558a729714610154578063598af9e714610184578063b6363cf2146101b4578063bd85b039146101e4578063fe99049a1461021457610090565b8062fdd58e1461009457806301ffc9a7146100c4578063095bcdb6146100f4578063426a849314610124575b5f80fd5b6100ae60048036038101906100a99190610ecb565b610244565b6040516100bb9190610f18565b60405180910390f35b6100de60048036038101906100d99190610f86565b610299565b6040516100eb9190610fcb565b60405180910390f35b61010e60048036038101906101099190610fe4565b610312565b60405161011b9190610fcb565b60405180910390f35b61013e60048036038101906101399190610fe4565b610331565b60405161014b9190610fcb565b60405180910390f35b61016e6004803603810190610169919061105e565b610350565b60405161017b9190610fcb565b60405180910390f35b61019e6004803603810190610199919061109c565b61036d565b6040516101ab9190610f18565b60405180910390f35b6101ce60048036038101906101c991906110ec565b6103ff565b6040516101db9190610fcb565b60405180910390f35b6101fe60048036038101906101f9919061112a565b61048d565b60405161020b9190610f18565b60405180910390f35b61022e60048036038101906102299190611155565b6104a7565b60405161023b9190610fcb565b60405180910390f35b5f805f8473ffffffffffffffffffffffffffffffffffffffff1673ffffffffffffffffffffffffffffffffffffffff1681526020019081526020015f205f8381526020019081526020015f2054905092915050565b5f7f0f632fb3000000000000000000000000000000000000000000000000000000007bffffffffffffffffffffffffffffffffffffffffffffffffffffffff1916827bffffffffffffffffffffffffffffffffffffffffffffffffffffffff1916148061030b575061030a82610521565b5b9050919050565b5f61032661031e61058a565b858585610591565b600190509392505050565b5f61034561033d61058a565b858585610683565b600190509392505050565b5f61036361035c61058a565b848461085b565b6001905092915050565b5f60025f8573ffffffffffffffffffffffffffffffffffffffff1673ffffffffffffffffffffffffffffffffffffffff1681526020019081526020015f205f8473ffffffffffffffffffffffffffffffffffffffff1673ffffffffffffffffffffffffffffffffffffffff1681526020019081526020015f205f8381526020019081526020015f205490509392505050565b5f60015f8473ffffffffffffffffffffffffffffffffffffffff1673ffffffffffffffffffffffffffffffffffffffff1681526020019081526020015f205f8373ffffffffffffffffffffffffffffffffffffffff1673ffffffffffffffffffffffffffffffffffffffff1681526020019081526020015f205f9054906101000a900460ff16905092915050565b5f60035f8381526020019081526020015f20549050919050565b5f806104b161058a565b90508073ffffffffffffffffffffffffffffffffffffffff168673ffffffffffffffffffffffffffffffffffffffff16141580156104f657506104f486826103ff565b155b156105085761050786828686610a34565b5b61051486868686610591565b6001915050949350505050565b5f7f01ffc9a7000000000000000000000000000000000000000000000000000000007bffffffffffffffffffffffffffffffffffffffffffffffffffffffff1916827bffffffffffffffffffffffffffffffffffffffffffffffffffffffff1916149050919050565b5f33905090565b5f73ffffffffffffffffffffffffffffffffffffffff168473ffffffffffffffffffffffffffffffffffffffff1603610601575f6040517fa43520800000000000000000000000000000000000000000000000000000000081526004016105f891906111c8565b60405180910390fd5b5f73ffffffffffffffffffffffffffffffffffffffff168373ffffffffffffffffffffffffffffffffffffffff1603610671575f6040517fb8bbd61000000000000000000000000000000000000000000000000000000000815260040161066891906111c8565b60405180910390fd5b61067d84848484610b4b565b50505050565b5f73ffffffffffffffffffffffffffffffffffffffff168473ffffffffffffffffffffffffffffffffffffffff16036106f3575f6040517fcc766a980000000000000000000000000000000000000000000000000000000081526004016106ea91906111c8565b60405180910390fd5b5f73ffffffffffffffffffffffffffffffffffffffff168373ffffffffffffffffffffffffffffffffffffffff1603610763575f6040517f6f65f46500000000000000000000000000000000000000000000000000000000815260040161075a91906111c8565b60405180910390fd5b8060025f8673ffffffffffffffffffffffffffffffffffffffff1673ffffffffffffffffffffffffffffffffffffffff1681526020019081526020015f205f8573ffffffffffffffffffffffffffffffffffffffff1673ffffffffffffffffffffffffffffffffffffffff1681526020019081526020015f205f8481526020019081526020015f2081905550818373ffffffffffffffffffffffffffffffffffffffff168573ffffffffffffffffffffffffffffffffffffffff167fb3fd5071835887567a0671151121894ddccc2842f1d10bedad13e0d17cace9a78460405161084d9190610f18565b60405180910390a450505050565b5f73ffffffffffffffffffffffffffffffffffffffff168373ffffffffffffffffffffffffffffffffffffffff16036108cb575f6040517fcc766a980000000000000000000000000000000000000000000000000000000081526004016108c291906111c8565b60405180910390fd5b5f73ffffffffffffffffffffffffffffffffffffffff168273ffffffffffffffffffffffffffffffffffffffff160361093b575f6040517f6f65f46500000000000000000000000000000000000000000000000000000000815260040161093291906111c8565b60405180910390fd5b8060015f8573ffffffffffffffffffffffffffffffffffffffff1673ffffffffffffffffffffffffffffffffffffffff1681526020019081526020015f205f8473ffffffffffffffffffffffffffffffffffffffff1673ffffffffffffffffffffffffffffffffffffffff1681526020019081526020015f205f6101000a81548160ff0219169083151502179055508173ffffffffffffffffffffffffffffffffffffffff168373ffffffffffffffffffffffffffffffffffffffff167fceb576d9f15e4e200fdb5096d64d5dfd667e16def20c1eefd14256d8e3faa26783604051610a279190610fcb565b60405180910390a3505050565b5f610a4085858561036d565b90507fffffffffffffffffffffffffffffffffffffffffffffffffffffffffffffffff811015610b445781811015610ab557838183856040517f58a3fd5a000000000000000000000000000000000000000000000000000000008152600401610aac94939291906111e1565b60405180910390fd5b81810360025f8773ffffffffffffffffffffffffffffffffffffffff1673ffffffffffffffffffffffffffffffffffffffff1681526020019081526020015f205f8673ffffffffffffffffffffffffffffffffffffffff1673ffffffffffffffffffffffffffffffffffffffff1681526020019081526020015f205f8581526020019081526020015f20819055505b5050505050565b610b5784848484610c0a565b5f73ffffffffffffffffffffffffffffffffffffffff168473ffffffffffffffffffffffffffffffffffffffff1603610bb2578060035f8481526020019081526020015f205f828254610baa9190611251565b925050819055505b5f73ffffffffffffffffffffffffffffffffffffffff168373ffffffffffffffffffffffffffffffffffffffff1603610c04578060035f8481526020019081526020015f205f82825403925050819055505b50505050565b5f610c1361058a565b90505f73ffffffffffffffffffffffffffffffffffffffff168573ffffffffffffffffffffffffffffffffffffffff1614610d36575f805f8773ffffffffffffffffffffffffffffffffffffffff1673ffffffffffffffffffffffffffffffffffffffff1681526020019081526020015f205f8581526020019081526020015f2054905082811015610ce257858184866040517fb1b4fec0000000000000000000000000000000000000000000000000000000008152600401610cd994939291906111e1565b60405180910390fd5b8281035f808873ffffffffffffffffffffffffffffffffffffffff1673ffffffffffffffffffffffffffffffffffffffff1681526020019081526020015f205f8681526020019081526020015f2081905550505b5f73ffffffffffffffffffffffffffffffffffffffff168473ffffffffffffffffffffffffffffffffffffffff1614610dcb57815f808673ffffffffffffffffffffffffffffffffffffffff1673ffffffffffffffffffffffffffffffffffffffff1681526020019081526020015f205f8581526020019081526020015f205f828254610dc39190611251565b925050819055505b828473ffffffffffffffffffffffffffffffffffffffff168673ffffffffffffffffffffffffffffffffffffffff167f1b3d7edb2e9c0b0e7c525b20aaaef0f5940d2ed71663c7d39266ecafac7288598486604051610e2b929190611284565b60405180910390a45050505050565b5f80fd5b5f73ffffffffffffffffffffffffffffffffffffffff82169050919050565b5f610e6782610e3e565b9050919050565b610e7781610e5d565b8114610e81575f80fd5b50565b5f81359050610e9281610e6e565b92915050565b5f819050919050565b610eaa81610e98565b8114610eb4575f80fd5b50565b5f81359050610ec581610ea1565b92915050565b5f8060408385031215610ee157610ee0610e3a565b5b5f610eee85828601610e84565b9250506020610eff85828601610eb7565b9150509250929050565b610f1281610e98565b82525050565b5f602082019050610f2b5f830184610f09565b92915050565b5f7fffffffff0000000000000000000000000000000000000000000000000000000082169050919050565b610f6581610f31565b8114610f6f575f80fd5b50565b5f81359050610f8081610f5c565b92915050565b5f60208284031215610f9b57610f9a610e3a565b5b5f610fa884828501610f72565b91505092915050565b5f8115159050919050565b610fc581610fb1565b82525050565b5f602082019050610fde5f830184610fbc565b92915050565b5f805f60608486031215610ffb57610ffa610e3a565b5b5f61100886828701610e84565b935050602061101986828701610eb7565b925050604061102a86828701610eb7565b9150509250925092565b61103d81610fb1565b8114611047575f80fd5b50565b5f8135905061105881611034565b92915050565b5f806040838503121561107457611073610e3a565b5b5f61108185828601610e84565b92505060206110928582860161104a565b9150509250929050565b5f805f606084860312156110b3576110b2610e3a565b5b5f6110c086828701610e84565b93505060206110d186828701610e84565b92505060406110e286828701610eb7565b9150509250925092565b5f806040838503121561110257611101610e3a565b5b5f61110f85828601610e84565b925050602061112085828601610e84565b9150509250929050565b5f6020828403121561113f5761113e610e3a565b5b5f61114c84828501610eb7565b91505092915050565b5f805f806080858703121561116d5761116c610e3a565b5b5f61117a87828801610e84565b945050602061118b87828801610e84565b935050604061119c87828801610eb7565b92505060606111ad87828801610eb7565b91505092959194509250565b6111c281610e5d565b82525050565b5f6020820190506111db5f8301846111b9565b92915050565b5f6080820190506111f45f8301876111b9565b6112016020830186610f09565b61120e6040830185610f09565b61121b6060830184610f09565b95945050505050565b7f4e487b71000000000000000000000000000000000000000000000000000000005f52601160045260245ffd5b5f61125b82610e98565b915061126683610e98565b925082820190508082111561127e5761127d611224565b5b92915050565b5f6040820190506112975f8301856111b9565b6112a46020830184610f09565b939250505056","linkReferences":{}},"methodIdentifiers":{"allowance(address,address,uint256)":"598af9e7","approve(address,uint256,uint256)":"426a8493","balanceOf(address,uint256)":"00fdd58e","isOperator(address,address)":"b6363cf2","setOperator(address,bool)":"558a7297","supportsInterface(bytes4)":"01ffc9a7","totalSupply(uint256)":"bd85b039","transfer(address,uint256,uint256)":"095bcdb6","transferFrom(address,address,uint256,uint256)":"fe99049a"},"id":68}