{"abi":[{"type":"function","name":"allowance","inputs":[{"name":"owner","type":"address","internalType":"address"},{"name":"spender","type":"address","internalType":"address"},{"name":"id","type":"uint256","internalType":"uint256"}],"outputs":[{"name":"","type":"uint256","internalType":"uint256"}],"stateMutability":"view"},{"type":"function","name":"approve","inputs":[{"name":"spender","type":"address","internalType":"address"},{"name":"id","type":"uint256","internalType":"uint256"},{"name":"amount","type":"uint256","internalType":"uint256"}],"outputs":[{"name":"","type":"bool","internalType":"bool"}],"stateMutability":"nonpayable"},{"type":"function","name":"balanceOf","inputs":[{"name":"owner","type":"address","internalType":"address"},{"name":"id","type":"uint256","internalType":"uint256"}],"outputs":[{"name":"","type":"uint256","internalType":"uint256"}],"stateMutability":"view"},{"type":"function","name":"isOperator","inputs":[{"name":"owner","type":"address","internalType":"address"},{"name":"spender","type":"address","internalType":"address"}],"outputs":[{"name":"","type":"bool","internalType":"bool"}],"stateMutability":"view"},{"type":"function","name":"setOperator","inputs":[{"name":"spender","type":"address","internalType":"address"},{"name":"approved","type":"bool","internalType":"bool"}],"outputs":[{"name":"","type":"bool","internalType":"bool"}],"stateMutability":"nonpayable"},{"type":"function","name":"supportsInterface","inputs":[{"name":"interfaceId","type":"bytes4","internalType":"bytes4"}],"outputs":[{"name":"","type":"bool","internalType":"bool"}],"stateMutability":"view"},{"type":"function","name":"transfer","inputs":[{"name":"receiver","type":"address","internalType":"address"},{"name":"id","type":"uint256","internalType":"uint256"},{"name":"amount","type":"uint256","internalType":"uint256"}],"outputs":[{"name":"","type":"bool","internalType":"bool"}],"stateMutability":"nonpayable"},{"type":"function","name":"transferFrom","inputs":[{"name":"sender","type":"address","internalType":"address"},{"name":"receiver","type":"address","internalType":"address"},{"name":"id","type":"uint256","internalType":"uint256"},{"name":"amount","type":"uint256","internalType":"uint256"}],"outputs":[{"name":"","type":"bool","internalType":"bool"}],"stateMutability":"nonpayable"},{"type":"event","name":"Approval","inputs":[{"name":"owner","type":"address","indexed":true,"internalType":"address"},{"name":"spender","type":"address","indexed":true,"internalType":"address"},{"name":"id","type":"uint256","indexed":true,"internalType":"uint256"},{"name":"amount","type":"uint256","indexed":false,"internalType":"uint256"}],"anonymous":false},{"type":"event","name":"OperatorSet","inputs":[{"name":"owner","type":"address","indexed":true,"internalType":"address"},{"name":"spender","type":"address","indexed":true,"internalType":"address"},{"name":"approved","type":"bool","indexed":false,"internalType":"bool"}],"anonymous":false},{"type":"event","name":"Transfer","inputs":[{"name":"caller","type":"address","indexed":false,"internalType":"address"},{"name":"sender","type":"address","indexed":true,"internalType":"address"},{"name":"receiver","type":"address","indexed":true,"internalType":"address"},{"name":"id","type":"uint256","indexed":true,"internalType":"uint256"},{"name":"amount","type":"uint256","indexed":false,"internalType":"uint256"}],"anonymous":false},{"type":"error","name":"ERC6909InsufficientAllowance","inputs":[{"name":"spender","type":"address","internalType":"address"},{"name":"allowance","type":"uint256","internalType":"uint256"},{"name":"needed","type":"uint256","internalType":"uint256"},{"name":"id","type":"uint256","internalType":"uint256"}]},{"type":"error","name":"ERC6909InsufficientBalance","inputs":[{"name":"sender","type":"address","internalType":"address"},{"name":"balance","type":"uint256","internalType":"uint256"},{"name":"needed","type":"uint256","internalType":"uint256"},{"name":"id","type":"uint256","internalType":"uint256"}]},{"type":"error","name":"ERC6909InvalidApprover","inputs":[{"name":"approver","type":"address","internalType":"address"}]},{"type":"error","name":"ERC6909InvalidReceiver","inputs":[{"name":"receiver","type":"address","internalType":"address"}]},{"type":"error","name":"ERC6909InvalidSender","inputs":[{"name":"sender","type":"address","internalType":"address"}]},{"type":"error","name":"ERC6909InvalidSpender","inputs":[{"name":"spender","type":"address","internalType":"address"}]}],"bytecode":{"object":"0x608060405234801561000f575f80fd5b506111798061001d5f395ff3fe608060405234801561000f575f80fd5b5060043610610085575f3560e01c8063558a729711610059578063558a729714610149578063598af9e714610179578063b6363cf2146101a9578063fe99049a146101d957610085565b8062fdd58e1461008957806301ffc9a7146100b9578063095bcdb6146100e9578063426a849314610119575b5f80fd5b6100a3600480360381019061009e9190610db7565b610209565b6040516100b09190610e04565b60405180910390f35b6100d360048036038101906100ce9190610e72565b61025e565b6040516100e09190610eb7565b60405180910390f35b61010360048036038101906100fe9190610ed0565b6102d7565b6040516101109190610eb7565b60405180910390f35b610133600480360381019061012e9190610ed0565b6102f6565b6040516101409190610eb7565b60405180910390f35b610163600480360381019061015e9190610f4a565b610315565b6040516101709190610eb7565b60405180910390f35b610193600480360381019061018e9190610f88565b610332565b6040516101a09190610e04565b60405180910390f35b6101c360048036038101906101be9190610fd8565b6103c4565b6040516101d09190610eb7565b60405180910390f35b6101f360048036038101906101ee9190611016565b610452565b6040516102009190610eb7565b60405180910390f35b5f805f8473ffffffffffffffffffffffffffffffffffffffff1673ffffffffffffffffffffffffffffffffffffffff1681526020019081526020015f205f8381526020019081526020015f2054905092915050565b5f7f0f632fb3000000000000000000000000000000000000000000000000000000007bffffffffffffffffffffffffffffffffffffffffffffffffffffffff1916827bffffffffffffffffffffffffffffffffffffffffffffffffffffffff191614806102d057506102cf826104cc565b5b9050919050565b5f6102eb6102e3610535565b85858561053c565b600190509392505050565b5f61030a610302610535565b85858561062e565b600190509392505050565b5f610328610321610535565b8484610806565b6001905092915050565b5f60025f8573ffffffffffffffffffffffffffffffffffffffff1673ffffffffffffffffffffffffffffffffffffffff1681526020019081526020015f205f8473ffffffffffffffffffffffffffffffffffffffff1673ffffffffffffffffffffffffffffffffffffffff1681526020019081526020015f205f8381526020019081526020015f205490509392505050565b5f60015f8473ffffffffffffffffffffffffffffffffffffffff1673ffffffffffffffffffffffffffffffffffffffff1681526020019081526020015f205f8373ffffffffffffffffffffffffffffffffffffffff1673ffffffffffffffffffffffffffffffffffffffff1681526020019081526020015f205f9054906101000a900460ff16905092915050565b5f8061045c610535565b90508073ffffffffffffffffffffffffffffffffffffffff168673ffffffffffffffffffffffffffffffffffffffff16141580156104a1575061049f86826103c4565b155b156104b3576104b2868286866109df565b5b6104bf8686868661053c565b6001915050949350505050565b5f7f01ffc9a7000000000000000000000000000000000000000000000000000000007bffffffffffffffffffffffffffffffffffffffffffffffffffffffff1916827bffffffffffffffffffffffffffffffffffffffffffffffffffffffff1916149050919050565b5f33905090565b5f73ffffffffffffffffffffffffffffffffffffffff168473ffffffffffffffffffffffffffffffffffffffff16036105ac575f6040517fa43520800000000000000000000000000000000000000000000000000000000081526004016105a39190611089565b60405180910390fd5b5f73ffffffffffffffffffffffffffffffffffffffff168373ffffffffffffffffffffffffffffffffffffffff160361061c575f6040517fb8bbd6100000000000000000000000000000000000000000000000000000000081526004016106139190611089565b60405180910390fd5b61062884848484610af6565b50505050565b5f73ffffffffffffffffffffffffffffffffffffffff168473ffffffffffffffffffffffffffffffffffffffff160361069e575f6040517fcc766a980000000000000000000000000000000000000000000000000000000081526004016106959190611089565b60405180910390fd5b5f73ffffffffffffffffffffffffffffffffffffffff168373ffffffffffffffffffffffffffffffffffffffff160361070e575f6040517f6f65f4650000000000000000000000000000000000000000000000000000000081526004016107059190611089565b60405180910390fd5b8060025f8673ffffffffffffffffffffffffffffffffffffffff1673ffffffffffffffffffffffffffffffffffffffff1681526020019081526020015f205f8573ffffffffffffffffffffffffffffffffffffffff1673ffffffffffffffffffffffffffffffffffffffff1681526020019081526020015f205f8481526020019081526020015f2081905550818373ffffffffffffffffffffffffffffffffffffffff168573ffffffffffffffffffffffffffffffffffffffff167fb3fd5071835887567a0671151121894ddccc2842f1d10bedad13e0d17cace9a7846040516107f89190610e04565b60405180910390a450505050565b5f73ffffffffffffffffffffffffffffffffffffffff168373ffffffffffffffffffffffffffffffffffffffff1603610876575f6040517fcc766a9800000000000000000000000000000000000000000000000000000000815260040161086d9190611089565b60405180910390fd5b5f73ffffffffffffffffffffffffffffffffffffffff168273ffffffffffffffffffffffffffffffffffffffff16036108e6575f6040517f6f65f4650000000000000000000000000000000000000000000000000000000081526004016108dd9190611089565b60405180910390fd5b8060015f8573ffffffffffffffffffffffffffffffffffffffff1673ffffffffffffffffffffffffffffffffffffffff1681526020019081526020015f205f8473ffffffffffffffffffffffffffffffffffffffff1673ffffffffffffffffffffffffffffffffffffffff1681526020019081526020015f205f6101000a81548160ff0219169083151502179055508173ffffffffffffffffffffffffffffffffffffffff168373ffffffffffffffffffffffffffffffffffffffff167fceb576d9f15e4e200fdb5096d64d5dfd667e16def20c1eefd14256d8e3faa267836040516109d29190610eb7565b60405180910390a3505050565b5f6109eb858585610332565b90507fffffffffffffffffffffffffffffffffffffffffffffffffffffffffffffffff811015610aef5781811015610a6057838183856040517f58a3fd5a000000000000000000000000000000000000000000000000000000008152600401610a5794939291906110a2565b60405180910390fd5b81810360025f8773ffffffffffffffffffffffffffffffffffffffff1673ffffffffffffffffffffffffffffffffffffffff1681526020019081526020015f205f8673ffffffffffffffffffffffffffffffffffffffff1673ffffffffffffffffffffffffffffffffffffffff1681526020019081526020015f205f8581526020019081526020015f20819055505b5050505050565b5f610aff610535565b90505f73ffffffffffffffffffffffffffffffffffffffff168573ffffffffffffffffffffffffffffffffffffffff1614610c22575f805f8773ffffffffffffffffffffffffffffffffffffffff1673ffffffffffffffffffffffffffffffffffffffff1681526020019081526020015f205f8581526020019081526020015f2054905082811015610bce57858184866040517fb1b4fec0000000000000000000000000000000000000000000000000000000008152600401610bc594939291906110a2565b60405180910390fd5b8281035f808873ffffffffffffffffffffffffffffffffffffffff1673ffffffffffffffffffffffffffffffffffffffff1681526020019081526020015f205f8681526020019081526020015f2081905550505b5f73ffffffffffffffffffffffffffffffffffffffff168473ffffffffffffffffffffffffffffffffffffffff1614610cb757815f808673ffffffffffffffffffffffffffffffffffffffff1673ffffffffffffffffffffffffffffffffffffffff1681526020019081526020015f205f8581526020019081526020015f205f828254610caf9190611112565b925050819055505b828473ffffffffffffffffffffffffffffffffffffffff168673ffffffffffffffffffffffffffffffffffffffff167f1b3d7edb2e9c0b0e7c525b20aaaef0f5940d2ed71663c7d39266ecafac7288598486604051610d17929190611145565b60405180910390a45050505050565b5f80fd5b5f73ffffffffffffffffffffffffffffffffffffffff82169050919050565b5f610d5382610d2a565b9050919050565b610d6381610d49565b8114610d6d575f80fd5b50565b5f81359050610d7e81610d5a565b92915050565b5f819050919050565b610d9681610d84565b8114610da0575f80fd5b50565b5f81359050610db181610d8d565b92915050565b5f8060408385031215610dcd57610dcc610d26565b5b5f610dda85828601610d70565b9250506020610deb85828601610da3565b9150509250929050565b610dfe81610d84565b82525050565b5f602082019050610e175f830184610df5565b92915050565b5f7fffffffff0000000000000000000000000000000000000000000000000000000082169050919050565b610e5181610e1d565b8114610e5b575f80fd5b50565b5f81359050610e6c81610e48565b92915050565b5f60208284031215610e8757610e86610d26565b5b5f610e9484828501610e5e565b91505092915050565b5f8115159050919050565b610eb181610e9d565b82525050565b5f602082019050610eca5f830184610ea8565b92915050565b5f805f60608486031215610ee757610ee6610d26565b5b5f610ef486828701610d70565b9350506020610f0586828701610da3565b9250506040610f1686828701610da3565b9150509250925092565b610f2981610e9d565b8114610f33575f80fd5b50565b5f81359050610f4481610f20565b92915050565b5f8060408385031215610f6057610f5f610d26565b5b5f610f6d85828601610d70565b9250506020610f7e85828601610f36565b9150509250929050565b5f805f60608486031215610f9f57610f9e610d26565b5b5f610fac86828701610d70565b9350506020610fbd86828701610d70565b9250506040610fce86828701610da3565b9150509250925092565b5f8060408385031215610fee57610fed610d26565b5b5f610ffb85828601610d70565b925050602061100c85828601610d70565b9150509250929050565b5f805f806080858703121561102e5761102d610d26565b5b5f61103b87828801610d70565b945050602061104c87828801610d70565b935050604061105d87828801610da3565b925050606061106e87828801610da3565b91505092959194509250565b61108381610d49565b82525050565b5f60208201905061109c5f83018461107a565b92915050565b5f6080820190506110b55f83018761107a565b6110c26020830186610df5565b6110cf6040830185610df5565b6110dc6060830184610df5565b95945050505050565b7f4e487b71000000000000000000000000000000000000000000000000000000005f52601160045260245ffd5b5f61111c82610d84565b915061112783610d84565b925082820190508082111561113f5761113e6110e5565b5b92915050565b5f6040820190506111585f83018561107a565b6111656020830184610df5565b939250505056fea164736f6c6343000814000a","linkReferences":{}},"methodIdentifiers":{"allowance(address,address,uint256)":"598af9e7","approve(address,uint256,uint256)":"426a8493","balanceOf(address,uint256)":"00fdd58e","isOperator(address,address)":"b6363cf2","setOperator(address,bool)":"558a7297","supportsInterface(bytes4)":"01ffc9a7","transfer(address,uint256,uint256)":"095bcdb6","transferFrom(address,address,uint256,uint256)":"fe99049a"},"id":45}