{"abi":[{"type":"constructor","inputs":[{"name":"_factory","type":"address","internalType":"address"}],"stateMutability":"nonpayable"},{"type":"function","name":"deploy","inputs":[{"name":"plugin","type":"address","internalType":"address"},{"name":"token0","type":"address","internalType":"address"},{"name":"token1","type":"address","internalType":"address"},{"name":"deployer","type":"address","internalType":"address"}],"outputs":[{"name":"pool","type":"address","internalType":"address"}],"stateMutability":"nonpayable"},{"type":"function","name":"getDeployParameters","inputs":[],"outputs":[{"name":"_plugin","type":"address","internalType":"address"},{"name":"_factory","type":"address","internalType":"address"},{"name":"_token0","type":"address","internalType":"address"},{"name":"_token1","type":"address","internalType":"address"}],"stateMutability":"view"}],"bytecode":{"object":"0x60a060405234801561000f575f80fd5b5060405161950d38038061950d83398181016040526020811015610031575f80fd5b81019080805190602001909291905050505f73ffffffffffffffffffffffffffffffffffffffff168173ffffffffffffffffffffffffffffffffffffffff1603610079575f80fd5b8073ffffffffffffffffffffffffffffffffffffffff1660808173ffffffffffffffffffffffffffffffffffffffff1681525050506080516194406100cd5f395f81816101aa01526101d401526194405ff3fe608060405234801561000f575f80fd5b5060043610610034575f3560e01c806304889e2614610038578063fd82b73a146100c3575b5f80fd5b610040610190565b604051808573ffffffffffffffffffffffffffffffffffffffff1681526020018473ffffffffffffffffffffffffffffffffffffffff1681526020018373ffffffffffffffffffffffffffffffffffffffff1681526020018273ffffffffffffffffffffffffffffffffffffffff16815260200194505050505060405180910390f35b610164600480360360808110156100d8575f80fd5b81019080803573ffffffffffffffffffffffffffffffffffffffff169060200190929190803573ffffffffffffffffffffffffffffffffffffffff169060200190929190803573ffffffffffffffffffffffffffffffffffffffff169060200190929190803573ffffffffffffffffffffffffffffffffffffffff1690602001909291905050506101d1565b604051808273ffffffffffffffffffffffffffffffffffffffff16815260200191505060405180910390f35b5f805f8061019c61038d565b8093508194508296505050507f0000000000000000000000000000000000000000000000000000000000000000925090919293565b5f7f000000000000000000000000000000000000000000000000000000000000000073ffffffffffffffffffffffffffffffffffffffff163373ffffffffffffffffffffffffffffffffffffffff1614610229575f80fd5b6102348585856103da565b60605f73ffffffffffffffffffffffffffffffffffffffff168373ffffffffffffffffffffffffffffffffffffffff16036102c4578484604051602001808373ffffffffffffffffffffffffffffffffffffffff1681526020018273ffffffffffffffffffffffffffffffffffffffff168152602001925050506040516020818303038152906040529050610339565b828585604051602001808473ffffffffffffffffffffffffffffffffffffffff1681526020018373ffffffffffffffffffffffffffffffffffffffff1681526020018273ffffffffffffffffffffffffffffffffffffffff168152602001935050505060405160208183030381529060405290505b808051906020012060405161034d90610422565b8190604051809103905ff590508015801561036a573d5f803e3d5ffd5b5091505f801b5f801b5f8060015f84919050558391905055505050949350505050565b5f805f805f8054600154915091508160601c94508060a01c6bffffffffffffffffffffffff831660401b17935073ffffffffffffffffffffffffffffffffffffffff811692505050909192565b73ffffffffffffffffffffffffffffffffffffffff821691508260601b8260401c175f5573ffffffffffffffffffffffffffffffffffffffff81168260a01b17600155505050565b61900380620004318339019056fe60e060405234801562000010575f80fd5b505f62000022620001b460201b60201c565b8073ffffffffffffffffffffffffffffffffffffffff1660c09073ffffffffffffffffffffffffffffffffffffffff168152508173ffffffffffffffffffffffffffffffffffffffff1660a09073ffffffffffffffffffffffffffffffffffffffff168152508273ffffffffffffffffffffffffffffffffffffffff1660809073ffffffffffffffffffffffffffffffffffffffff16815250839450505050507ffffffffffffffffffffffffffffffffffffffffffffffffffffffffffff2761880620000ef90620004ce565b6009600360095f8491906101000a81548162ffffff021916908360020b62ffffff1602179055508391906101000a81548162ffffff021916908360020b62ffffff1602179055505050600160025f01601c6101000a81548160ff0219169083151502179055505f73ffffffffffffffffffffffffffffffffffffffff168173ffffffffffffffffffffffffffffffffffffffff16146200019b576200019a816200023660201b60201c565b5b50620001ae6003620002b260201b60201c565b62000619565b5f805f803373ffffffffffffffffffffffffffffffffffffffff166304889e266040518163ffffffff1660e01b8152600401608060405180830381865afa15801562000202573d5f803e3d5ffd5b505050506040513d601f19601f820116820180604052508101906200022891906200057e565b935093509350935090919293565b8060065f6101000a81548173ffffffffffffffffffffffffffffffffffffffff021916908373ffffffffffffffffffffffffffffffffffffffff1602179055507f27a3944eff2135a57675f17e72501038982b73620d01f794c72e93d61a3932a281604051620002a79190620005fe565b60405180910390a150565b7ffffffffffffffffffffffffffffffffffffffffffffffffffffffffffff2761880620002df90620004ce565b825f7ffffffffffffffffffffffffffffffffffffffffffffffffffffffffffff2761860020b60020b81526020019081526020015f206001016010845f7ffffffffffffffffffffffffffffffffffffffffffffffffffffffffffff2761860020b60020b81526020019081526020015f2060010160138491906101000a81548162ffffff021916908360020b62ffffff1602179055508391906101000a81548162ffffff021916908360020b62ffffff16021790555050507ffffffffffffffffffffffffffffffffffffffffffffffffffffffffffff2761880620003c490620004ce565b825f7ffffffffffffffffffffffffffffffffffffffffffffffffffffffffffff27618620003f290620004ce565b60020b60020b81526020019081526020015f206001016010845f7ffffffffffffffffffffffffffffffffffffffffffffffffffffffffffff276186200043890620004ce565b60020b60020b81526020019081526020015f2060010160138491906101000a81548162ffffff021916908360020b62ffffff1602179055508391906101000a81548162ffffff021916908360020b62ffffff160217905550505050565b5f8160020b9050919050565b7f4e487b71000000000000000000000000000000000000000000000000000000005f52601160045260245ffd5b5f620004da8262000495565b91507fffffffffffffffffffffffffffffffffffffffffffffffffffffffffff80000082036200050f576200050e620004a1565b5b815f039050919050565b5f80fd5b5f73ffffffffffffffffffffffffffffffffffffffff82169050919050565b5f62000548826200051d565b9050919050565b6200055a816200053c565b811462000565575f80fd5b50565b5f8151905062000578816200054f565b92915050565b5f805f806080858703121562000599576200059862000519565b5b5f620005a88782880162000568565b9450506020620005bb8782880162000568565b9350506040620005ce8782880162000568565b9250506060620005e18782880162000568565b91505092959194509250565b620005f8816200053c565b82525050565b5f602082019050620006135f830184620005ed565b92915050565b60805160a05160c05161891e620006e55f395f81816110560152818161184d01528181611d85015281816123be0152818161248d0152818161291e01528181612b92015281816141a5015281816149f201528181614f1e01526172f901525f8181610f5b015281816110fe015281816117fe01528181611d2d015281816123f901528181612452015281816128ca01528181614136015281816144d001528181614ebb01526172c201525f8181612b2101528181612bd0015281816150400152616193015261891e5ff3fe608060405234801561000f575f80fd5b5060043610610246575f3560e01c80639e4e022711610139578063d8544cf3116100b6578063ef01df4f1161007a578063ef01df4f14610dde578063f085a61014610e12578063f30dba9314610e42578063f637731d14610eb2578063fff6cae914610ef557610246565b8063d8544cf314610cb0578063d861903714610cf3578063ddca3f4314610d37578063e76c01e414610d59578063ecdecf4214610dc057610246565b8063c677e3e0116100fd578063c677e3e014610bb3578063cc1f97cf14610bf7578063d0c93a7c14610c3a578063d21220a714610c5b578063d5c35a7e14610c8f57610246565b80639e4e0227146108e1578063a1eded87146109e7578063aafe29c014610a30578063bca57f8114610b4f578063c45a015514610b7f57610246565b8063514ea4bf116101c757806377f8c3a91161018b57806377f8c3a9146107a35780637bd78025146107c75780638380edb7146108105780638e0055531461083057806397ce1c511461086157610246565b8063514ea4bf1461067c57806353e97868146106fd578063578b9a36146107315780636378ae441461075557806370cf754a1461077357610246565b80631dd19cb41161020e5780631dd19cb4146103fe578063240a875a146104085780633b3bc70e14610439578063490e6cbc146104ff5780634f1eb3d8146105a857610246565b8063050a4d211461024a5780630902f1ac1461026b5780630dfe1681146102b4578063128acb08146102e85780631a686502146103ce575b5f80fd5b610252610eff565b604051808260020b815260200191505060405180910390f35b610273610f12565b60405180836fffffffffffffffffffffffffffffffff168152602001826fffffffffffffffffffffffffffffffff1681526020019250505060405180910390f35b6102bc610f59565b604051808273ffffffffffffffffffffffffffffffffffffffff16815260200191505060405180910390f35b6103b1600480360360a08110156102fd575f80fd5b81019080803573ffffffffffffffffffffffffffffffffffffffff16906020019092919080351515906020019092919080359060200190929190803573ffffffffffffffffffffffffffffffffffffffff1690602001909291908035906020019064010000000081111561036f575f80fd5b820183602082011115610380575f80fd5b803590602001918460018302840111640100000000831117156103a1575f80fd5b9091929391929390505050610f7d565b604051808381526020018281526020019250505060405180910390f35b6103d66111d9565b60405180826fffffffffffffffffffffffffffffffff16815260200191505060405180910390f35b6104066111fb565b005b6104376004803603602081101561041d575f80fd5b81019080803561ffff16906020019092919050505061121e565b005b6104e26004803603608081101561044e575f80fd5b81019080803560020b9060200190929190803560020b906020019092919080356fffffffffffffffffffffffffffffffff169060200190929190803590602001906401000000008111156104a0575f80fd5b8201836020820111156104b1575f80fd5b803590602001918460018302840111640100000000831117156104d2575f80fd5b9091929391929390505050611309565b604051808381526020018281526020019250505060405180910390f35b6105a660048036036080811015610514575f80fd5b81019080803573ffffffffffffffffffffffffffffffffffffffff169060200190929190803590602001909291908035906020019092919080359060200190640100000000811115610564575f80fd5b820183602082011115610575575f80fd5b80359060200191846001830284011164010000000083111715610596575f80fd5b9091929391929390505050611645565b005b61063b600480360360a08110156105bd575f80fd5b81019080803573ffffffffffffffffffffffffffffffffffffffff169060200190929190803560020b9060200190929190803560020b906020019092919080356fffffffffffffffffffffffffffffffff16906020019092919080356fffffffffffffffffffffffffffffffff169060200190929190505050611ba9565b60405180836fffffffffffffffffffffffffffffffff168152602001826fffffffffffffffffffffffffffffffff1681526020019250505060405180910390f35b6106a760048036036020811015610691575f80fd5b8101908080359060200190929190505050611eaa565b60405180868152602001858152602001848152602001836fffffffffffffffffffffffffffffffff168152602001826fffffffffffffffffffffffffffffffff1681526020019550505050505060405180910390f35b610705611f13565b604051808273ffffffffffffffffffffffffffffffffffffffff16815260200191505060405180910390f35b610739611f38565b604051808263ffffffff16815260200191505060405180910390f35b61075d611f4e565b6040518082815260200191505060405180910390f35b61077b611f53565b60405180826fffffffffffffffffffffffffffffffff16815260200191505060405180910390f35b6107ab611f65565b604051808263ffffffff16815260200191505060405180910390f35b6107cf611f7b565b60405180836fffffffffffffffffffffffffffffffff168152602001826fffffffffffffffffffffffffffffffff1681526020019250505060405180910390f35b610818611fe0565b60405180821515815260200191505060405180910390f35b61085f60048036036020811015610845575f80fd5b81019080803561ffff169060200190929190505050611ff8565b005b6108696120b8565b604051808873ffffffffffffffffffffffffffffffffffffffff1681526020018760020b81526020018661ffff1681526020018560ff168152602001846fffffffffffffffffffffffffffffffff1681526020018360020b81526020018260020b815260200197505050505050505060405180910390f35b6109ca600480360360c08110156108f6575f80fd5b81019080803573ffffffffffffffffffffffffffffffffffffffff169060200190929190803573ffffffffffffffffffffffffffffffffffffffff16906020019092919080351515906020019092919080359060200190929190803573ffffffffffffffffffffffffffffffffffffffff16906020019092919080359060200190640100000000811115610988575f80fd5b820183602082011115610999575f80fd5b803590602001918460018302840111640100000000831117156109ba575f80fd5b90919293919293905050506121bc565b604051808381526020018281526020019250505060405180910390f35b6109ef612518565b60405180836fffffffffffffffffffffffffffffffff168152602001826fffffffffffffffffffffffffffffffff1681526020019250505060405180910390f35b610b19600480360360c0811015610a45575f80fd5b81019080803573ffffffffffffffffffffffffffffffffffffffff169060200190929190803573ffffffffffffffffffffffffffffffffffffffff169060200190929190803560020b9060200190929190803560020b906020019092919080356fffffffffffffffffffffffffffffffff16906020019092919080359060200190640100000000811115610ad7575f80fd5b820183602082011115610ae8575f80fd5b80359060200191846001830284011164010000000083111715610b09575f80fd5b909192939192939050505061257d565b60405180848152602001838152602001826fffffffffffffffffffffffffffffffff168152602001935050505060405180910390f35b610b7d60048036036020811015610b64575f80fd5b81019080803560ff169060200190929190505050612a44565b005b610b87612b1f565b604051808273ffffffffffffffffffffffffffffffffffffffff16815260200191505060405180910390f35b610be160048036036020811015610bc8575f80fd5b81019080803560010b9060200190929190505050612b43565b6040518082815260200191505060405180910390f35b610c3860048036036020811015610c0c575f80fd5b81019080803573ffffffffffffffffffffffffffffffffffffffff169060200190929190505050612b58565b005b610c42612b7d565b604051808260020b815260200191505060405180910390f35b610c63612b90565b604051808273ffffffffffffffffffffffffffffffffffffffff16815260200191505060405180910390f35b610c97612bb4565b604051808260020b815260200191505060405180910390f35b610cf160048036036020811015610cc5575f80fd5b81019080803573ffffffffffffffffffffffffffffffffffffffff169060200190929190505050612bc6565b005b610d2160048036036020811015610d08575f80fd5b81019080803560010b9060200190929190505050612c96565b6040518082815260200191505060405180910390f35b610d3f612cab565b604051808261ffff16815260200191505060405180910390f35b610d61612d81565b604051808773ffffffffffffffffffffffffffffffffffffffff1681526020018660020b81526020018561ffff1681526020018460ff1681526020018361ffff1681526020018215158152602001965050505050505060405180910390f35b610dc8612e07565b6040518082815260200191505060405180910390f35b610de6612e0d565b604051808273ffffffffffffffffffffffffffffffffffffffff16815260200191505060405180910390f35b610e4060048036036020811015610e27575f80fd5b81019080803560020b9060200190929190505050612e32565b005b610e7060048036036020811015610e57575f80fd5b81019080803560020b9060200190929190505050612ebd565b6040518087815260200186600f0b81526020018560020b81526020018460020b8152602001838152602001828152602001965050505050505060405180910390f35b610ef360048036036020811015610ec7575f80fd5b81019080803573ffffffffffffffffffffffffffffffffffffffff169060200190929190505050612f1b565b005b610efd6133bf565b005b600960039054906101000a900460020b81565b5f80600c5f9054906101000a90046fffffffffffffffffffffffffffffffff16600c60109054906101000a90046fffffffffffffffffffffffffffffffff16915091509091565b7f000000000000000000000000000000000000000000000000000000000000000081565b5f805f80610f908a8a8a8a5f8b8b6133e3565b91509150610f9c613644565b610fa4618152565b610fac61819b565b610fb984848d8d8d6136aa565b875f018860200189604001839950846fffffffffffffffffffffffffffffffff166fffffffffffffffffffffffffffffffff168152508460020b60020b8152508473ffffffffffffffffffffffffffffffffffffffff1673ffffffffffffffffffffffffffffffffffffffff16815250849a50859b505050505050505f8061103f6140a2565b915091508c156110f1575f87121561107f5761107e7f00000000000000000000000000000000000000000000000000000000000000008f895f0361444b565b5b61108b88888c8c61445b565b6110936144cd565b888361109f9190618280565b11156110d7576040517ffb5b541400000000000000000000000000000000000000000000000000000000815260040160405180910390fd5b6110ec8888855f01515f87602001515f61456b565b611195565b5f881215611127576111267f00000000000000000000000000000000000000000000000000000000000000008f8a5f0361444b565b5b61113388888c8c61445b565b61113b6149ef565b87826111479190618280565b111561117f576040517ffb5b541400000000000000000000000000000000000000000000000000000000815260040160405180910390fd5b61119488885f865f01515f886020015161456b565b5b6111b08e8989875f0151886040015189602001518c8c614a8d565b505050506111bc614ba7565b6111cc8a8a8a8a88888c8c614bc6565b5050965096945050505050565b600960069054906101000a90046fffffffffffffffffffffffffffffffff1681565b611203614d85565b61120b613644565b61121433614e0d565b61121c614ba7565b565b611226614ff4565b61122e61503e565b6103e861ffff168161ffff16118061125f575060025f01601a9054906101000a900461ffff1661ffff168161ffff16145b806112c657505f8161ffff16141580156112c557505f73ffffffffffffffffffffffffffffffffffffffff1660075f9054906101000a900473ffffffffffffffffffffffffffffffffffffffff1673ffffffffffffffffffffffffffffffffffffffff16145b5b156112fd576040517fa709b9af00000000000000000000000000000000000000000000000000000000815260040160405180910390fd5b6113068161514e565b50565b5f80868661131782826151a7565b6f7fffffffffffffffffffffffffffffff6fffffffffffffffffffffffffffffffff16876fffffffffffffffffffffffffffffffff161115611385576040517f8995290f00000000000000000000000000000000000000000000000000000000815260040160405180910390fd5b5f87611390906182bf565b90505f6113a1338c8c858c8c6152b3565b90506113ab613644565b6113b36140a2565b50505f6113c1338d8d6154b3565b90506113cf818d8d866154e7565b80975081985050505f8262ffffff161115611459575f805f89111561141757611406898562ffffff16620f424062ffffff16615670565b915081896114149190618305565b98505b5f88111561144857611437888562ffffff16620f424062ffffff16615670565b905080886114459190618305565b97505b6114565f805f80868661456b565b50505b5f868817146115355786816003015f9054906101000a90046fffffffffffffffffffffffffffffffff1661148d9190618353565b868260030160109054906101000a90046fffffffffffffffffffffffffffffffff166114b99190618353565b826003015f8460030160108491906101000a8154816fffffffffffffffffffffffffffffffff02191690836fffffffffffffffffffffffffffffffff1602179055508391906101000a8154816fffffffffffffffffffffffffffffffff02191690836fffffffffffffffffffffffffffffffff16021790555050505b505f85878b6fffffffffffffffffffffffffffffffff1617171461161f573373ffffffffffffffffffffffffffffffffffffffff167f1a25098b7a731ae33ed362388b593b876963dfde0efb4db9c0befeed637ff26b82604051808262ffffff16815260200191505060405180910390a28960020b8b60020b3373ffffffffffffffffffffffffffffffffffffffff167f0c396cd989a39f4459b5fa1aed6a9a8dcdbc45908acfd67e028cd568da98982c8c8a8a60405180846fffffffffffffffffffffffffffffffff168152602001838152602001828152602001935050505060405180910390a45b611627614ba7565b611637338c8c858a8a8e8e615730565b505050509550959350505050565b61166d601060025f0160199054906101000a900460ff1660ff166158e190919063ffffffff16565b156117be576117bd638de0a8ee60e01b60065f9054906101000a900473ffffffffffffffffffffffffffffffffffffffff1673ffffffffffffffffffffffffffffffffffffffff16638de0a8ee3389898989896040518763ffffffff1660e01b8152600401808773ffffffffffffffffffffffffffffffffffffffff1681526020018673ffffffffffffffffffffffffffffffffffffffff1681526020018581526020018481526020018060200182810382528484828181526020019250808284375f81840152601f19601f8201169050808301925050509750505050505050506020604051808303815f875af115801561176a573d5f803e3d5ffd5b505050506040513d602081101561177f575f80fd5b81019080805190602001909291905050507bffffffffffffffffffffffffffffffffffffffffffffffffffffffff19166158ef90919063ffffffff16565b5b6117c6613644565b5f805f806117d26140a2565b915091505f80891115611825576117f789606461ffff16620f424062ffffff16615975565b90506118247f00000000000000000000000000000000000000000000000000000000000000008b8b61444b565b5b5f808911156118745761184689606461ffff16620f424062ffffff16615975565b90506118737f00000000000000000000000000000000000000000000000000000000000000008c8b61444b565b5b61188082828a8a615a1a565b6118886144cd565b95508582856118979190618280565b11156118cf576040517f6dbca1fe00000000000000000000000000000000000000000000000000000000815260040160405180910390fd5b6118d76149ef565b94508481846118e69190618280565b111561191e576040517fc998149f00000000000000000000000000000000000000000000000000000000815260040160405180910390fd5b838603955082850394505f60025f01601a9054906101000a900461ffff1661ffff1690505f81111561198d575f808811156119635761196088836103e8615670565b90505b5f8088111561197c5761197988846103e8615670565b90505b61198a828284845f8061456b565b50505b8b73ffffffffffffffffffffffffffffffffffffffff163373ffffffffffffffffffffffffffffffffffffffff167fbdbdb71d7860376ba52b25a5028beea23581364a40522f6bcfb86bb1f2dca6338d8d8b8b6040518085815260200184815260200183815260200182815260200194505050505060405180910390a35050505050611a17614ba7565b611a3f602060025f0160199054906101000a900460ff1660ff166158e190919063ffffffff16565b15611ba057611b9f63343d37ff60e01b60065f9054906101000a900473ffffffffffffffffffffffffffffffffffffffff1673ffffffffffffffffffffffffffffffffffffffff1663343d37ff338b8b8b89898d8d6040518963ffffffff1660e01b8152600401808973ffffffffffffffffffffffffffffffffffffffff1681526020018873ffffffffffffffffffffffffffffffffffffffff1681526020018781526020018681526020018581526020018481526020018060200182810382528484828181526020019250808284375f81840152601f19601f82011690508083019250505099505050505050505050506020604051808303815f875af1158015611b4c573d5f803e3d5ffd5b505050506040513d6020811015611b61575f80fd5b81019080805190602001909291905050507bffffffffffffffffffffffffffffffffffffffffffffffffffffffff19166158ef90919063ffffffff16565b5b50505050505050565b5f80611bb3613644565b5f611bbf3388886154b3565b90505f80826003015f9054906101000a90046fffffffffffffffffffffffffffffffff168360030160109054906101000a90046fffffffffffffffffffffffffffffffff1691509150816fffffffffffffffffffffffffffffffff16876fffffffffffffffffffffffffffffffff161115611c38578196505b806fffffffffffffffffffffffffffffffff16866fffffffffffffffffffffffffffffffff161115611c68578095505b5f8688176fffffffffffffffffffffffffffffffff1614611e955786868095508196505050848203848203846003015f8660030160108491906101000a8154816fffffffffffffffffffffffffffffffff02191690836fffffffffffffffffffffffffffffffff1602179055508391906101000a8154816fffffffffffffffffffffffffffffffff02191690836fffffffffffffffffffffffffffffffff16021790555050505f856fffffffffffffffffffffffffffffffff161115611d6657611d657f00000000000000000000000000000000000000000000000000000000000000008b876fffffffffffffffffffffffffffffffff1661444b565b5b5f846fffffffffffffffffffffffffffffffff161115611dbe57611dbd7f00000000000000000000000000000000000000000000000000000000000000008b866fffffffffffffffffffffffffffffffff1661444b565b5b611df4856fffffffffffffffffffffffffffffffff165f03856fffffffffffffffffffffffffffffffff165f035f805f8061456b565b8760020b8960020b3373ffffffffffffffffffffffffffffffffffffffff167f70935338e69775456a85ddef226c395fb668b63fa0115f5f20610b388e6ca9c08d8989604051808473ffffffffffffffffffffffffffffffffffffffff168152602001836fffffffffffffffffffffffffffffffff168152602001826fffffffffffffffffffffffffffffffff168152602001935050505060405180910390a45b611e9d614ba7565b5050509550959350505050565b600b602052805f5260405f205f91509050805f015490806001015490806002015490806003015f9054906101000a90046fffffffffffffffffffffffffffffffff16908060030160109054906101000a90046fffffffffffffffffffffffffffffffff16905085565b60075f9054906101000a900473ffffffffffffffffffffffffffffffffffffffff1681565b600960199054906101000a900463ffffffff1681565b5f5481565b6d09745258e83de0d0f4e400fce79981565b6004601a9054906101000a900463ffffffff1681565b5f8060045f9054906101000a90046cffffffffffffffffffffffffff166004600d9054906101000a90046cffffffffffffffffffffffffff16816cffffffffffffffffffffffffff169150806cffffffffffffffffffffffffff169050915091509091565b5f60025f01601c9054906101000a900460ff16905090565b61200061503e565b5f612029608060025f0160199054906101000a900460ff1660ff166158e190919063ffffffff16565b905060025f01601c9054906101000a900460ff16612073576040517fcf30901200000000000000000000000000000000000000000000000000000000815260040160405180910390fd5b80156120ab576040517fd39b8e0e00000000000000000000000000000000000000000000000000000000815260040160405180910390fd5b6120b482615a8c565b5050565b5f805f805f805f60025f015f9054906101000a900473ffffffffffffffffffffffffffffffffffffffff16965060025f0160149054906101000a900460020b955060025f0160179054906101000a900461ffff16945060025f0160199054906101000a900460ff1693505f60025f01601c9054906101000a900460ff1690508061216e576040517fcf30901200000000000000000000000000000000000000000000000000000000815260040160405180910390fd5b600960069054906101000a90046fffffffffffffffffffffffffffffffff16935060095f9054906101000a900460020b9250600960039054906101000a900460020b91505090919293949596565b5f805f8612156121f8576040517f6996740200000000000000000000000000000000000000000000000000000000815260040160405180910390fd5b612200613644565b5f8715612254575f6122106144cd565b905061221e885f888861445b565b5f6122276144cd565b905061223d82826122389190618305565b615ae5565b925061224d835f805f805f61456b565b505061229d565b5f61225d6149ef565b905061226b5f89888861445b565b5f6122746149ef565b905061228a82826122859190618305565b615ae5565b925061229a5f845f805f8061456b565b50505b8681146122a8578096505b505f86036122e2576040517ffb5b541400000000000000000000000000000000000000000000000000000000815260040160405180910390fd5b6122ea614ba7565b5f806122fc8a8a8a8a60018b8b6133e3565b91509150612308613644565b6123106140a2565b505061231a618152565b61232261819b565b61232f84848d8d8d6136aa565b875f018860200189604001839950846fffffffffffffffffffffffffffffffff166fffffffffffffffffffffffffffffffff168152508460020b60020b8152508473ffffffffffffffffffffffffffffffffffffffff1673ffffffffffffffffffffffffffffffffffffffff16815250849a50859b505050505050508a15612445575f8512156123e7576123e67f00000000000000000000000000000000000000000000000000000000000000008d875f0361444b565b5b5f868b0390505f81146124205761241f7f00000000000000000000000000000000000000000000000000000000000000008f8361444b565b5b61243f61242c82615ae5565b5f0387845f01515f86602001515f61456b565b506124d5565b5f86121561247b5761247a7f00000000000000000000000000000000000000000000000000000000000000008d885f0361444b565b5b5f858b0390505f81146124b4576124b37f00000000000000000000000000000000000000000000000000000000000000008f8361444b565b5b6124d3876124c183615ae5565b5f035f855f01515f876020015161456b565b505b6124f08c8787855f0151866040015187602001518a8a614a8d565b6124f8614ba7565b6125088c8c8c8c8a8a8e8e614bc6565b5050505097509795505050505050565b5f8060055f9054906101000a90046cffffffffffffffffffffffffff166005600d9054906101000a90046cffffffffffffffffffffffffff16816cffffffffffffffffffffffffff169150806cffffffffffffffffffffffffff169050915091509091565b5f805f878761258c82826151a7565b5f886fffffffffffffffffffffffffffffffff16036125d7576040517fe6ace6df00000000000000000000000000000000000000000000000000000000815260040160405180910390fd5b6125ff8b8b8b6125f88c6fffffffffffffffffffffffffffffffff16615afa565b8b8b6152b3565b50612608613644565b5f60025f0160149054906101000a900460020b90505f60025f015f9054906101000a900473ffffffffffffffffffffffffffffffffffffffff1690505f8173ffffffffffffffffffffffffffffffffffffffff1603612693576040517f812eb65500000000000000000000000000000000000000000000000000000000815260040160405180910390fd5b5f600960169054906101000a900460020b90505f8160020b8d60020b816126bd576126bc618396565b5b078260020b8f60020b816126d4576126d3618396565b5b071760020b14612710576040517f5f6e14f300000000000000000000000000000000000000000000000000000000815260040160405180910390fd5b506127388c8c6127318d6fffffffffffffffffffffffffffffffff16615afa565b8585615b12565b50809750819850505050505f8061274d6140a2565b9150915061275d87878b8b615bbd565b5f871461277c578161276d6144cd565b6127779190618305565b61277e565b5f5b91505f861461279f57806127906149ef565b61279a9190618305565b6127a1565b5f5b9050868210156127cf576127c88a6fffffffffffffffffffffffffffffffff168389615670565b94506127d3565b8994505b8581101561282d575f6127f98b6fffffffffffffffffffffffffffffffff168389615670565b9050856fffffffffffffffffffffffffffffffff16816fffffffffffffffffffffffffffffffff16101561282b578095505b505b5f856fffffffffffffffffffffffffffffffff1603612878576040517fbeba2a6c00000000000000000000000000000000000000000000000000000000815260040160405180910390fd5b5f6128848e8e8e6154b3565b90506128ac818e8e6128a78a6fffffffffffffffffffffffffffffffff16615afa565b6154e7565b8098508199505050505f87111561290957868211156128f7576128f27f00000000000000000000000000000000000000000000000000000000000000008f89850361444b565b612908565b868214612907576129066183c3565b5b5b5b5f86111561295d578581111561294b576129467f00000000000000000000000000000000000000000000000000000000000000008f88840361444b565b61295c565b85811461295b5761295a6183c3565b5b5b5b61296b87875f805f8061456b565b8a60020b8c60020b8e73ffffffffffffffffffffffffffffffffffffffff167f7a53080ba414158be7ec69b987b5fb7d07dee101fe85488f0853ae16239d0bde33898c8c604051808573ffffffffffffffffffffffffffffffffffffffff168152602001846fffffffffffffffffffffffffffffffff16815260200183815260200182815260200194505050505060405180910390a4612a09614ba7565b612a338d8d8d612a2a896fffffffffffffffffffffffffffffffff16615afa565b8b8b8f8f615730565b505050509750975097945050505050565b612a4c614ff4565b5f60065f9054906101000a900473ffffffffffffffffffffffffffffffffffffffff1690505f73ffffffffffffffffffffffffffffffffffffffff168173ffffffffffffffffffffffffffffffffffffffff1603612ad6576040517f9e727ce300000000000000000000000000000000000000000000000000000000815260040160405180910390fd5b8073ffffffffffffffffffffffffffffffffffffffff163373ffffffffffffffffffffffffffffffffffffffff1614612b1257612b1161503e565b5b612b1b82615c2f565b5050565b7f000000000000000000000000000000000000000000000000000000000000000081565b6008602052805f5260405f205f915090505481565b612b60614ff4565b612b6861503e565b612b715f615c2f565b612b7a81615c86565b50565b600960169054906101000a900460020b81565b7f000000000000000000000000000000000000000000000000000000000000000081565b60095f9054906101000a900460020b81565b612bce614ff4565b7f000000000000000000000000000000000000000000000000000000000000000073ffffffffffffffffffffffffffffffffffffffff163373ffffffffffffffffffffffffffffffffffffffff1614612c2a57612c2961503e565b5b5f73ffffffffffffffffffffffffffffffffffffffff168173ffffffffffffffffffffffffffffffffffffffff16148015612c7b57505f60025f01601a9054906101000a900461ffff1661ffff1614155b15612c8a57612c895f61514e565b5b612c9381615d00565b50565b600a602052805f5260405f205f915090505481565b5f60025f0160179054906101000a900461ffff1690505f60025f0160199054906101000a900460ff169050612ce18160806158e1565b15612d7c5760065f9054906101000a900473ffffffffffffffffffffffffffffffffffffffff1673ffffffffffffffffffffffffffffffffffffffff1663f70d93626040518163ffffffff1660e01b8152600401602060405180830381865afa158015612d50573d5f803e3d5ffd5b505050506040513d601f19601f82011682018060405250810190612d74919061842b565b915050612d7e565b505b90565b6002805f015f9054906101000a900473ffffffffffffffffffffffffffffffffffffffff1690805f0160149054906101000a900460020b90805f0160179054906101000a900461ffff1690805f0160199054906101000a900460ff1690805f01601a9054906101000a900461ffff1690805f01601c9054906101000a900460ff16905086565b60015481565b60065f9054906101000a900473ffffffffffffffffffffffffffffffffffffffff1681565b612e3a614ff4565b612e4261503e565b5f8160020b131580612e5b57506101f460020b8160020b135b80612e7a57508060020b600960169054906101000a900460020b60020b145b15612eb1576040517fafe09f4400000000000000000000000000000000000000000000000000000000815260040160405180910390fd5b612eba81615d7a565b50565b6003602052805f5260405f205f91509050805f015490806001015f9054906101000a9004600f0b908060010160109054906101000a900460020b908060010160139054906101000a900460020b908060020154908060030154905086565b5f612f2582615dd6565b90505f60025f015f9054906101000a900473ffffffffffffffffffffffffffffffffffffffff1673ffffffffffffffffffffffffffffffffffffffff1614612f99576040517f52669adc00000000000000000000000000000000000000000000000000000000815260040160405180910390fd5b8160025f015f6101000a81548173ffffffffffffffffffffffffffffffffffffffff021916908373ffffffffffffffffffffffffffffffffffffffff1602179055508060025f0160146101000a81548162ffffff021916908360020b62ffffff1602179055507f98636036cb66a9c19a37435efc1e90142190214e8abeb821bdba3f2990dd4c958282604051808373ffffffffffffffffffffffffffffffffffffffff1681526020018260020b81526020019250505060405180910390a15f73ffffffffffffffffffffffffffffffffffffffff1660065f9054906101000a900473ffffffffffffffffffffffffffffffffffffffff1673ffffffffffffffffffffffffffffffffffffffff16146131b4576131b363636fd80460e01b60065f9054906101000a900473ffffffffffffffffffffffffffffffffffffffff1673ffffffffffffffffffffffffffffffffffffffff1663636fd80433866040518363ffffffff1660e01b8152600401808373ffffffffffffffffffffffffffffffffffffffff1681526020018273ffffffffffffffffffffffffffffffffffffffff168152602001925050506020604051808303815f875af1158015613160573d5f803e3d5ffd5b505050506040513d6020811015613175575f80fd5b81019080805190602001909291905050507bffffffffffffffffffffffffffffffffffffffffffffffffffffffff19166158ef90919063ffffffff16565b5b5f805f6131bf61618e565b9250925092506131ce81615a8c565b6131d782615d7a565b5f8361ffff161415801561323757505f73ffffffffffffffffffffffffffffffffffffffff1660075f9054906101000a900473ffffffffffffffffffffffffffffffffffffffff1673ffffffffffffffffffffffffffffffffffffffff16145b1561326e576040517fa709b9af00000000000000000000000000000000000000000000000000000000815260040160405180910390fd5b6132778361514e565b61329f604060025f0160199054906101000a900460ff1660ff166158e190919063ffffffff16565b156133b8576133b76382dd652260e01b60065f9054906101000a900473ffffffffffffffffffffffffffffffffffffffff1673ffffffffffffffffffffffffffffffffffffffff166382dd65223389896040518463ffffffff1660e01b8152600401808473ffffffffffffffffffffffffffffffffffffffff1681526020018373ffffffffffffffffffffffffffffffffffffffff1681526020018260020b815260200193505050506020604051808303815f875af1158015613364573d5f803e3d5ffd5b505050506040513d6020811015613379575f80fd5b81019080805190602001909291905050507bffffffffffffffffffffffffffffffffffffffffffffffffffffffff19166158ef90919063ffffffff16565b5b5050505050565b6133c7614d85565b6133cf613644565b6133d76140a2565b50506133e1614ba7565b565b5f805f60025f0160199054906101000a900460ff16905061341160018260ff166158e190919063ffffffff16565b156136365761341e616229565b1561342f575f809250925050613638565b5f60065f9054906101000a900473ffffffffffffffffffffffffffffffffffffffff1673ffffffffffffffffffffffffffffffffffffffff1663029c1cb7338d8d8d8d8d8d8d6040518963ffffffff1660e01b8152600401808973ffffffffffffffffffffffffffffffffffffffff1681526020018873ffffffffffffffffffffffffffffffffffffffff16815260200187151581526020018681526020018573ffffffffffffffffffffffffffffffffffffffff16815260200184151581526020018060200182810382528484828181526020019250808284375f81840152601f19601f82011690508083019250505099505050505050505050506060604051808303815f875af1158015613547573d5f803e3d5ffd5b505050506040513d606081101561355c575f80fd5b810190808051906020019092919080519060200190929190805190602001909291905050508095508196508293505050506135a460808360ff166158e190919063ffffffff16565b1580156135c457505f8462ffffff1611806135c357505f8362ffffff16115b5b156135fb576040517f3a4528ef00000000000000000000000000000000000000000000000000000000815260040160405180910390fd5b61363463029c1cb760e01b827bffffffffffffffffffffffffffffffffffffffffffffffffffffffff19166158ef90919063ffffffff16565b505b505b97509795505050505050565b60025f01601c9054906101000a900460ff1661368c576040517fcf30901200000000000000000000000000000000000000000000000000000000815260040160405180910390fd5b5f60025f01601c6101000a81548160ff021916908315150217905550565b5f805f805f6136b761819b565b5f88036136f0576040517f79db984000000000000000000000000000000000000000000000000000000000815260040160405180910390fd5b7f80000000000000000000000000000000000000000000000000000000000000008803613749576040517f6996740200000000000000000000000000000000000000000000000000000000815260040160405180910390fd5b6137516181b3565b885f8a138c836040018460c00185610140018362ffffff1662ffffff16815250831515151581525083815250505050600960069054906101000a90046fffffffffffffffffffffffffffffffff16600960039054906101000a900460020b60095f9054906101000a900460020b836101000184610120018260020b60020b8152508260020b60020b81525082955050505060025f015f9054906101000a900473ffffffffffffffffffffffffffffffffffffffff1660025f0160149054906101000a900460020b60025f0160179054906101000a900461ffff1660025f01601a9054906101000a900461ffff168161ffff1691508061ffff1690508460e001855f01828152508262ffffff1662ffffff16815250829750839850505050505f8573ffffffffffffffffffffffffffffffffffffffff16036138be576040517f812eb65500000000000000000000000000000000000000000000000000000000815260040160405180910390fd5b5f8c62ffffff1614613935578a8c6138d69190618464565b8160e0019062ffffff16908162ffffff1681525050620f42408160e0015162ffffff1610613930576040517f15b2afa900000000000000000000000000000000000000000000000000000000815260040160405180910390fd5b6139ad565b5f8b62ffffff16146139ac578a8160e0018181516139539190618464565b91509062ffffff16908162ffffff1681525050620f42408160e0015162ffffff16106139ab576040517f15b2afa900000000000000000000000000000000000000000000000000000000815260040160405180910390fd5b5b5b8915613a66578473ffffffffffffffffffffffffffffffffffffffff168873ffffffffffffffffffffffffffffffffffffffff16101580613a1f57506401000276a373ffffffffffffffffffffffffffffffffffffffff168873ffffffffffffffffffffffffffffffffffffffff1611155b15613a56576040517f1662672300000000000000000000000000000000000000000000000000000000815260040160405180910390fd5b5f54816080018181525050613b25565b8473ffffffffffffffffffffffffffffffffffffffff168873ffffffffffffffffffffffffffffffffffffffff16111580613ae1575073fffd8963efd1fc6a506488495d951d5263988d2673ffffffffffffffffffffffffffffffffffffffff168873ffffffffffffffffffffffffffffffffffffffff1610155b15613b18576040517f1662672300000000000000000000000000000000000000000000000000000000815260040160405180910390fd5b6001548160800181815250505b613b2d618216565b5b5f8b613b3f57826101200151613b46565b8261010001515b90508673ffffffffffffffffffffffffffffffffffffffff16825f018181525050613b708161627f565b73ffffffffffffffffffffffffffffffffffffffff16826020018181525050613bd38c888c73ffffffffffffffffffffffffffffffffffffffff1685602001511015158f151514613bc5578460200151613bc7565b8c5b888f8860e00151616613565b856040018660600187608001838152508381525083815250839a50505050508260c0015115613c4457613c0f8260800151836040015101615ae5565b8b039a50613c36613c238360600151615ae5565b846060015161682a90919063ffffffff16565b836060018181525050613c88565b613c518260600151615ae5565b8b019a50613c7e613c6b8360800151846040015101615ae5565b846060015161684b90919063ffffffff16565b8360600181815250505b5f835f01511115613ce3575f6103e8613cb1855f0151856080015161686c90919063ffffffff16565b81613cbf57613cbe618396565b5b0490508083608001818151039150818152505080855f018181510191508181525050505b5f83610140015162ffffff16118015613d0457505f8360e0015162ffffff16115b15613d50575f613d2c836080015185610140015162ffffff168660e0015162ffffff16615670565b90508083608001818151039150818152505080856020018181510191508181525050505b5f856fffffffffffffffffffffffffffffffff161115613dac57613d9c8260800151700100000000000000000000000000000000876fffffffffffffffffffffffffffffffff16615670565b8360800181815101915081815250505b81602001518773ffffffffffffffffffffffffffffffffffffffff1603613ebf578260200151613e015760018360200190151590811515815250508b613df3575f54613df7565b6001545b8360a00181815250505b5f8c15613e6057613e288285608001518660a00151600361689d909392919063ffffffff16565b5085610100018160020b60020b8152508192505050805f039050600182038285610120018160020b60020b8152508198505050613ead565b613e80828560a001518660800151600361689d909392919063ffffffff16565b905085610120018160020b60020b8152508192505050818285610100018160020b60020b81525081985050505b613eb78682616923565b955050613ef1565b815f01518773ffffffffffffffffffffffffffffffffffffffff1614613ef057613ee887615dd6565b955050613f33565b5b505f8a14158015613f2e57508873ffffffffffffffffffffffffffffffffffffffff168673ffffffffffffffffffffffffffffffffffffffff1614155b613b2e575b5f8a83604001510390508260c0015115158c151514613f5757826060015181613f5e565b8083606001515b809950819a50505050858560025f015f60025f0160148491906101000a81548162ffffff021916908360020b62ffffff1602179055508391906101000a81548173ffffffffffffffffffffffffffffffffffffffff021916908373ffffffffffffffffffffffffffffffffffffffff16021790555050508160200151156140725783826101000151836101200151600960066009600360095f8691906101000a81548162ffffff021916908360020b62ffffff1602179055508591906101000a81548162ffffff021916908360020b62ffffff1602179055508491906101000a8154816fffffffffffffffffffffffffffffffff02191690836fffffffffffffffffffffffffffffffff1602179055505050505b8a156140875781608001515f81905550614093565b81608001516001819055505b50509550955095509550955095565b5f806140ac6144cd565b6140b46149ef565b80925081935050506fffffffffffffffffffffffffffffffff80168211806140ed57506fffffffffffffffffffffffffffffffff801681115b156141f7575f60075f9054906101000a900473ffffffffffffffffffffffffffffffffffffffff1690506fffffffffffffffffffffffffffffffff8016831115614186576141707f0000000000000000000000000000000000000000000000000000000000000000826fffffffffffffffffffffffffffffffff8016860361444b565b6fffffffffffffffffffffffffffffffff801692505b6fffffffffffffffffffffffffffffffff80168211156141f5576141df7f0000000000000000000000000000000000000000000000000000000000000000826fffffffffffffffffffffffffffffffff8016850361444b565b6fffffffffffffffffffffffffffffffff801691505b505b5f600960069054906101000a90046fffffffffffffffffffffffffffffffff1690505f816fffffffffffffffffffffffffffffffff16036142385750614447565b5f80600c5f9054906101000a90046fffffffffffffffffffffffffffffffff16600c60109054906101000a90046fffffffffffffffffffffffffffffffff16915091505f80836fffffffffffffffffffffffffffffffff168711836fffffffffffffffffffffffffffffffff1687119150915081806142b45750805b1561444157811561430f57614301846fffffffffffffffffffffffffffffffff168803700100000000000000000000000000000000876fffffffffffffffffffffffffffffffff16615670565b5f8082825401925050819055505b801561436657614357836fffffffffffffffffffffffffffffffff168703700100000000000000000000000000000000876fffffffffffffffffffffffffffffffff16615670565b60015f82825401925050819055505b7fef10ebb00f0dbc72ad4602e94abbbda6f3d40632714f70e9c8fa30d5d44289c9846fffffffffffffffffffffffffffffffff168803846fffffffffffffffffffffffffffffffff1688036040516143bf9291906184a9565b60405180910390a18686600c5f600c60108491906101000a8154816fffffffffffffffffffffffffffffffff02191690836fffffffffffffffffffffffffffffffff1602179055508391906101000a8154816fffffffffffffffffffffffffffffffff02191690836fffffffffffffffffffffffffffffffff16021790555050505b50505050505b9091565b614456838383616a02565b505050565b3373ffffffffffffffffffffffffffffffffffffffff16632c8958f6858585856040518563ffffffff1660e01b815260040161449a9493929190618542565b5f604051808303815f87803b1580156144b1575f80fd5b505af11580156144c3573d5f803e3d5ffd5b5050505050505050565b5f7f000000000000000000000000000000000000000000000000000000000000000073ffffffffffffffffffffffffffffffffffffffff166370a08231306040518263ffffffff1660e01b815260040161452791906185bf565b602060405180830381865afa158015614542573d5f803e3d5ffd5b505050506040513d601f19601f820116820180604052508101906145669190618602565b905090565b5f84118061457857505f83115b8061458257505f82115b8061458c57505f81115b1561489a575f805f6004601a9054906101000a900463ffffffff1690505f60049350600792505f805f806145c98c8c8863ffffffff168a8c616aa6565b93509350935093505f81831714614613576145e382615ae5565b8e6145ee919061862d565b6145f782615ae5565b8e614602919061862d565b809e50819f5050506001945061469a565b5f8385176cffffffffffffffffffffffffff161461469957838360045f6004600d8491906101000a8154816cffffffffffffffffffffffffff02191690836cffffffffffffffffffffffffff1602179055508391906101000a8154816cffffffffffffffffffffffffff02191690836cffffffffffffffffffffffffff16021790555050505b5b60059750600696506146b58a8a8863ffffffff168a8c616aa6565b809450819550829650839750505050505f818317146147db576146d782615ae5565b8e6146e2919061862d565b6146eb82615ae5565b8e6146f6919061862d565b809e50819f505050600194506147d663aa6b14bb60e01b60065f9054906101000a900473ffffffffffffffffffffffffffffffffffffffff1673ffffffffffffffffffffffffffffffffffffffff1663aa6b14bb85856040518363ffffffff1660e01b81526004016147699291906184a9565b6020604051808303815f875af1158015614785573d5f803e3d5ffd5b505050506040513d601f19601f820116820180604052508101906147a991906186c2565b7bffffffffffffffffffffffffffffffffffffffffffffffffffffffff19166158ef90919063ffffffff16565b614862565b5f8385176cffffffffffffffffffffffffff161461486157838360055f6005600d8491906101000a8154816cffffffffffffffffffffffffff02191690836cffffffffffffffffffffffffff1602179055508391906101000a8154816cffffffffffffffffffffffffff02191690836cffffffffffffffffffffffffff16021790555050505b5b841561489157614870616c3f565b6004601a6101000a81548163ffffffff021916908363ffffffff1602179055505b50505050505050505b5f85871703156149e7575f80600c5f9054906101000a90046fffffffffffffffffffffffffffffffff16600c60109054906101000a90046fffffffffffffffffffffffffffffffff166fffffffffffffffffffffffffffffffff1691506fffffffffffffffffffffffffffffffff1691505f881461493b57614926888361492191906186ed565b616c46565b6fffffffffffffffffffffffffffffffff1691505b5f871461496b57614956878261495191906186ed565b616c46565b6fffffffffffffffffffffffffffffffff1690505b8181600c5f600c60108491906101000a8154816fffffffffffffffffffffffffffffffff02191690836fffffffffffffffffffffffffffffffff1602179055508391906101000a8154816fffffffffffffffffffffffffffffffff02191690836fffffffffffffffffffffffffffffffff160217905550505050505b505050505050565b5f7f000000000000000000000000000000000000000000000000000000000000000073ffffffffffffffffffffffffffffffffffffffff166370a08231306040518263ffffffff1660e01b8152600401614a4991906185bf565b602060405180830381865afa158015614a64573d5f803e3d5ffd5b505050506040513d601f19601f82011682018060405250810190614a889190618602565b905090565b3373ffffffffffffffffffffffffffffffffffffffff167f9443903d84c9719611bd4bba871daaf18a3950d00d5d78b1a2fa701f76df54ff8383604051808362ffffff1681526020018262ffffff1681526020019250505060405180910390a28773ffffffffffffffffffffffffffffffffffffffff163373ffffffffffffffffffffffffffffffffffffffff167fc42079f94a6350d7e6235f29174924f928cc2ac818eb64fed8004e115fbcca678989898989604051808681526020018581526020018473ffffffffffffffffffffffffffffffffffffffff168152602001836fffffffffffffffffffffffffffffffff1681526020018260020b81526020019550505050505060405180910390a35050505050505050565b600160025f01601c6101000a81548160ff021916908315150217905550565b614bed6002805f0160199054906101000a900460ff1660ff166158e190919063ffffffff16565b15614d7a57614bfa616229565b614d7b57614d79639cb5a96360e01b60065f9054906101000a900473ffffffffffffffffffffffffffffffffffffffff1673ffffffffffffffffffffffffffffffffffffffff16639cb5a963338c8c8c8c8c8c8c8c6040518a63ffffffff1660e01b8152600401808a73ffffffffffffffffffffffffffffffffffffffff1681526020018973ffffffffffffffffffffffffffffffffffffffff16815260200188151581526020018781526020018673ffffffffffffffffffffffffffffffffffffffff1681526020018581526020018481526020018060200182810382528484828181526020019250808284375f81840152601f19601f8201169050808301925050509a50505050505050505050506020604051808303815f875af1158015614d26573d5f803e3d5ffd5b505050506040513d6020811015614d3b575f80fd5b81019080805190602001909291905050507bffffffffffffffffffffffffffffffffffffffffffffffffffffffff19166158ef90919063ffffffff16565b5b5b5050505050505050565b60065f9054906101000a900473ffffffffffffffffffffffffffffffffffffffff1673ffffffffffffffffffffffffffffffffffffffff163373ffffffffffffffffffffffffffffffffffffffff1614614e0b576040517f932984d200000000000000000000000000000000000000000000000000000000815260040160405180910390fd5b565b5f80614e176144cd565b614e1f6149ef565b915091505f80600c5f9054906101000a90046fffffffffffffffffffffffffffffffff16600c60109054906101000a90046fffffffffffffffffffffffffffffffff1691509150816fffffffffffffffffffffffffffffffff16841180614e975750806fffffffffffffffffffffffffffffffff1683115b15614fed57816fffffffffffffffffffffffffffffffff16841115614eff57614efe7f000000000000000000000000000000000000000000000000000000000000000086846fffffffffffffffffffffffffffffffff1687614ef99190618305565b61444b565b5b806fffffffffffffffffffffffffffffffff16831115614f6257614f617f000000000000000000000000000000000000000000000000000000000000000086836fffffffffffffffffffffffffffffffff1686614f5c9190618305565b61444b565b5b8473ffffffffffffffffffffffffffffffffffffffff167fb94331e4420f16b156f53c397a8adcd09481283ee7830f7b688b22858e9db80b836fffffffffffffffffffffffffffffffff1686614fb89190618305565b836fffffffffffffffffffffffffffffffff1686614fd69190618305565b604051614fe49291906184a9565b60405180910390a25b5050505050565b60025f01601c9054906101000a900460ff1661503c576040517fcf30901200000000000000000000000000000000000000000000000000000000815260040160405180910390fd5b565b7f000000000000000000000000000000000000000000000000000000000000000073ffffffffffffffffffffffffffffffffffffffff1663e8ae2b697fb73ce166ead2f8e9add217713a7989e4edfba9625f71dfd2516204bb67ad3442336040518363ffffffff1660e01b8152600401808381526020018273ffffffffffffffffffffffffffffffffffffffff16815260200192505050602060405180830381865afa1580156150f0573d5f803e3d5ffd5b505050506040513d6020811015615105575f80fd5b810190808051906020019092919050505061514c576040517f932984d200000000000000000000000000000000000000000000000000000000815260040160405180910390fd5b565b8060025f01601a6101000a81548161ffff021916908361ffff1602179055507f3647dccc990d4941b0b05b32527ef493a98d6187b20639ca2f9743f3b55ca5e18160405161519c919061873d565b60405180910390a150565b7ffffffffffffffffffffffffffffffffffffffffffffffffffffffffffff276186151d190618762565b60020b8160020b1315615210576040517f1445443d00000000000000000000000000000000000000000000000000000000815260040160405180910390fd5b8160020b8160020b1361524f576040517fd9a841a700000000000000000000000000000000000000000000000000000000815260040160405180910390fd5b7ffffffffffffffffffffffffffffffffffffffffffffffffffffffffffff2761860020b8260020b12156152af576040517f746b1fc400000000000000000000000000000000000000000000000000000000815260040160405180910390fd5b5050565b5f6152dc600460025f0160199054906101000a900460ff1660ff166158e190919063ffffffff16565b156154a8576152e9616229565b156152f6575f90506154a9565b5f60065f9054906101000a900473ffffffffffffffffffffffffffffffffffffffff1673ffffffffffffffffffffffffffffffffffffffff16635e2411b2338a8a8a8a8a8a6040518863ffffffff1660e01b8152600401808873ffffffffffffffffffffffffffffffffffffffff1681526020018773ffffffffffffffffffffffffffffffffffffffff1681526020018660020b81526020018560020b815260200184600f0b81526020018060200182810382528484828181526020019250808284375f81840152601f19601f8201169050808301925050509850505050505050505060408051808303815f875af11580156153f4573d5f803e3d5ffd5b505050506040513d6040811015615409575f80fd5b8101908080519060200190929190805190602001909291905050508093508192505050620f42408262ffffff161061546d576040517f15b2afa900000000000000000000000000000000000000000000000000000000815260040160405180910390fd5b6154a6635e2411b260e01b827bffffffffffffffffffffffffffffffffffffffffffffffffffffffff19166158ef90919063ffffffff16565b505b5b9695505050505050565b5f8062ffffff831662ffffff85168660181b1760181b179050600b5f8281526020019081526020015f209150509392505050565b5f805f8060025f015f9054906101000a900473ffffffffffffffffffffffffffffffffffffffff1660025f0160149054906101000a900460020b915091505f805f805f54600154915091505f89600f0b1461557e5761555a8b868b85855f6003616c6c909695949392919063ffffffff16565b935061557b8a868b858560016003616c6c909695949392919063ffffffff16565b92505b5f8061559c8d8d8987876003616dd39095949392919063ffffffff16565b915091506155ac8e8c8484616e87565b505050505f87600f0b146156635781806155c35750805b156155dc576155db89898484875f8d600f0b12617057565b5b5f6155ea8a8a8a8789615b12565b8093508198508299505050505f81600f0b1461566157615628600960069054906101000a90046fffffffffffffffffffffffffffffffff1689616923565b600960066101000a8154816fffffffffffffffffffffffffffffffff02191690836fffffffffffffffffffffffffffffffff1602179055505b505b5050505094509492505050565b5f8083850290505f801985870982811083820303915050808411615692575f80fd5b5f81036156a55783820492505050615729565b83858709828111820391508083039250505f84855f0316905080850494508083049250600181825f0304019050808202831792505f6002866003021890508086026002038102905080860260020381029050808602600203810290508086026002038102905080860260020381029050808602600203810290508084029450505050505b9392505050565b615738616229565b6158d757615764600860025f0160199054906101000a900460ff1660ff166158e190919063ffffffff16565b156158d6576158d563d685201060e01b60065f9054906101000a900473ffffffffffffffffffffffffffffffffffffffff1673ffffffffffffffffffffffffffffffffffffffff1663d6852010338c8c8c8c8c8c8c8c6040518a63ffffffff1660e01b8152600401808a73ffffffffffffffffffffffffffffffffffffffff1681526020018973ffffffffffffffffffffffffffffffffffffffff1681526020018860020b81526020018760020b815260200186600f0b81526020018581526020018481526020018060200182810382528484828181526020019250808284375f81840152601f19601f8201169050808301925050509a50505050505050505050506020604051808303815f875af1158015615882573d5f803e3d5ffd5b505050506040513d6020811015615897575f80fd5b81019080805190602001909291905050507bffffffffffffffffffffffffffffffffffffffffffffffffffffffff19166158ef90919063ffffffff16565b5b5b5050505050505050565b5f8082841611905092915050565b807bffffffffffffffffffffffffffffffffffffffffffffffffffffffff1916827bffffffffffffffffffffffffffffffffffffffffffffffffffffffff19161461597157806040517fd3f5153b00000000000000000000000000000000000000000000000000000000815260040161596891906187b7565b60405180910390fd5b5050565b5f80841480615998575082848486029250828161599557615994618396565b5b04145b156159b8575f82116159a8575f80fd5b5f82820611828204019050615a13565b6159c3848484615670565b90505f82806159d5576159d4618396565b5b8486091115615a12577fffffffffffffffffffffffffffffffffffffffffffffffffffffffffffffffff8110615a09575f80fd5b80806001019150505b5b9392505050565b3373ffffffffffffffffffffffffffffffffffffffff1663a60b0d3c858585856040518563ffffffff1660e01b8152600401615a5994939291906187d0565b5f604051808303815f87803b158015615a70575f80fd5b505af1158015615a82573d5f803e3d5ffd5b5050505050505050565b8060025f0160176101000a81548161ffff021916908361ffff1602179055507f598b9f043c813aa6be3426ca60d1c65d17256312890be5118dab55b0775ebe2a81604051615ada919061873d565b60405180910390a150565b5f80829150811215615af5575f80fd5b919050565b5f8082915081600f0b1215615b0d575f80fd5b919050565b5f805f80615b1f8961627f565b90505f615b2b8961627f565b90505f808b60020b8960020b1215615b4f57615b4884848c617196565b9150615b8e565b8a60020b8960020b1215615b7f57615b6888848c617196565b9150615b7584898c6171de565b9050899450615b8d565b615b8a84848c6171de565b90505b5b5f8a600f0b12615b9f578181615ba6565b815f03815f035b809750819850505050505050955095509592505050565b3373ffffffffffffffffffffffffffffffffffffffff16633dd657c5858585856040518563ffffffff1660e01b8152600401615bfc94939291906187d0565b5f604051808303815f87803b158015615c13575f80fd5b505af1158015615c25573d5f803e3d5ffd5b5050505050505050565b8060025f0160196101000a81548160ff021916908360ff1602179055507f3a6271b36c1b44bd6a0a0d56230602dc6919b7c17af57254306fadf5fee69dc381604051615c7b9190618829565b60405180910390a150565b8060065f6101000a81548173ffffffffffffffffffffffffffffffffffffffff021916908373ffffffffffffffffffffffffffffffffffffffff1602179055507f27a3944eff2135a57675f17e72501038982b73620d01f794c72e93d61a3932a281604051615cf591906185bf565b60405180910390a150565b8060075f6101000a81548173ffffffffffffffffffffffffffffffffffffffff021916908373ffffffffffffffffffffffffffffffffffffffff1602179055507fb0b573c1f636e1f8bd9b415ba6c04d6dd49100bc25493fc6305b65ec0e581df381604051615d6f91906185bf565b60405180910390a150565b80600960166101000a81548162ffffff021916908360020b62ffffff1602179055507f01413b1d5d4c359e9a0daa7909ecda165f6e8c51fe2ff529d74b22a5a7c0264581604051615dcb9190618851565b60405180910390a150565b5f6401000276a373ffffffffffffffffffffffffffffffffffffffff168273ffffffffffffffffffffffffffffffffffffffff161080615e56575073fffd8963efd1fc6a506488495d951d5263988d2673ffffffffffffffffffffffffffffffffffffffff168273ffffffffffffffffffffffffffffffffffffffff1610155b15615e8d576040517f55cf1e2300000000000000000000000000000000000000000000000000000000815260040160405180910390fd5b5f60208373ffffffffffffffffffffffffffffffffffffffff16901b90505f8190505f6fffffffffffffffffffffffffffffffff821160071b808217915082811c92505067ffffffffffffffff821160061b808217915082811c92505063ffffffff821160051b808217915082811c92505061ffff821160041b808217915082811c92505060ff821160031b808217915082811c925050600f821160021b808217915082811c9250506003821160011b808217915082811c9250506001821180821791505060808110615f6857607f810383901c9150615f72565b80607f0383901b91505b5f604060808303901b9050828302607f1c92508260801c80603f1b8217915083811c935050828302607f1c92508260801c80603e1b8217915083811c935050828302607f1c92508260801c80603d1b8217915083811c935050828302607f1c92508260801c80603c1b8217915083811c935050828302607f1c92508260801c80603b1b8217915083811c935050828302607f1c92508260801c80603a1b8217915083811c935050828302607f1c92508260801c8060391b8217915083811c935050828302607f1c92508260801c8060381b8217915083811c935050828302607f1c92508260801c8060371b8217915083811c935050828302607f1c92508260801c8060361b8217915083811c935050828302607f1c92508260801c8060351b8217915083811c935050828302607f1c92508260801c8060341b8217915083811c935050828302607f1c92508260801c8060331b8217915083811c935050828302607f1c92508260801c8060321b82179150505f693627a301d71055774c85820290505f60806f028f6481ab7f045a5af012a19d003aaa8303901d90505f60806fdb2df09e81959a81455e260799a0632f8401901d90508060020b8260020b1461617e578873ffffffffffffffffffffffffffffffffffffffff166161558261627f565b73ffffffffffffffffffffffffffffffffffffffff1611156161775781616179565b805b616180565b815b975050505050505050919050565b5f805f7f000000000000000000000000000000000000000000000000000000000000000073ffffffffffffffffffffffffffffffffffffffff166325b355d66040518163ffffffff1660e01b8152600401606060405180830381865afa1580156161fa573d5f803e3d5ffd5b505050506040513d601f19601f8201168201806040525081019061621e9190618894565b925092509250909192565b5f60065f9054906101000a900473ffffffffffffffffffffffffffffffffffffffff1673ffffffffffffffffffffffffffffffffffffffff163373ffffffffffffffffffffffffffffffffffffffff1614905090565b5f8060178360020b901d90505f818285011862ffffff1690507ffffffffffffffffffffffffffffffffffffffffffffffffffffffffffff276185f0362ffffff168111156162f9576040517f3c10250f00000000000000000000000000000000000000000000000000000000815260040160405180910390fd5b5f70010000000000000000000000000000000090505f600183161461632c576ffffcb933bd6fad37aa2d162d1a59400190505b5f60028316146163505760806ffff97272373d413259a46990580e213a8202901c90505b5f60048316146163745760806ffff2e50f5f656932ef12357cf3c7fdcc8202901c90505b5f60088316146163985760806fffe5caca7e10e4e61c3624eaa0941cd08202901c90505b5f60108316146163bc5760806fffcb9843d60f6159c9db58835c9266448202901c90505b5f60208316146163e05760806fff973b41fa98c081472e6896dfb254c08202901c90505b5f60408316146164045760806fff2ea16466c96a3843ec78b326b528618202901c90505b5f60808316146164285760806ffe5dee046a99a2a811c461f1969c30538202901c90505b5f61010083161461644d5760806ffcbe86c7900a88aedcffc83b479aa3a48202901c90505b5f6102008316146164725760806ff987a7253ac413176f2b074cf7815e548202901c90505b5f6104008316146164975760806ff3392b0822b70005940c7a398e4b70f38202901c90505b5f6108008316146164bc5760806fe7159475a2c29b7443b29c7fa6e889d98202901c90505b5f6110008316146164e15760806fd097f3bdfd2022b8845ad8f792aa58258202901c90505b5f6120008316146165065760806fa9f746462d870fdf8a65dc1f90e061e58202901c90505b5f61400083161461652b5760806f70d869a156d2a1b890bb3df62baf32f78202901c90505b5f6180008316146165505760806f31be135f97d08fd981231505542fcfa68202901c90505b5f620100008316146165765760806f09aa508b5b7a84e1c677de54f3e99bc98202901c90505b5f6202000083161461659b5760806e5d6af8dedb81196699c329225ee6048202901c90505b6204000082106165ec575f620400008316146165c95760806d2216e584f5fa1ea926041bedfe988202901c90505b5f620800008316146165eb5760806b048a170391f7dc42444e8fa28202901c90505b5b5f8560020b13156165fe57805f190490505b602063ffffffff8201901c9350505050919050565b5f805f806182408a6166275761722661662b565b61723d5b90505f8712616718575f6166528888620f42400362ffffff16620f424062ffffff16615670565b90506166638a8c8b8563ffffffff16565b945084811061669057899550616689858862ffffff1689620f42400362ffffff16615975565b92506166f1565b61669c8b8a838f617254565b95508573ffffffffffffffffffffffffffffffffffffffff168a73ffffffffffffffffffffffffffffffffffffffff16036166da576166d96183c3565b5b6166e9868c8b8563ffffffff16565b945084880392505b616710868c8b8f6167045761726d616708565b6172835b63ffffffff16565b93505061681c565b6182408b6167285761726d61672c565b6172835b905061673d8a8c8b8463ffffffff16565b9350875f0397505f88121561677e576040517f6996740200000000000000000000000000000000000000000000000000000000815260040160405180910390fd5b83881061678d578995506167ed565b6167998b8a8a8f617299565b95508573ffffffffffffffffffffffffffffffffffffffff168a73ffffffffffffffffffffffffffffffffffffffff16146167e0576167dd868c8b8463ffffffff16565b93505b878411156167ec578793505b5b6167fc868c8b8563ffffffff16565b9450616818858862ffffff1689620f42400362ffffff16615975565b9250505b509650965096509692505050565b5f808212151515838385039250821315151514616845575f80fd5b92915050565b5f808212151515838385019250821215151514616866575f80fd5b92915050565b5f8083148061688f575081838385029250828161688c5761688b618396565b5b04145b616897575f80fd5b92915050565b5f805f80875f8860020b60020b81526020019081526020015f2090508060030154850381600201548703826003015f846002015f849190505583919050555050806001015f9054906101000a9004600f0b8160010160109054906101000a900460020b8260010160139054906101000a900460020b935093509350509450945094915050565b5f8082600f0b121561699857826fffffffffffffffffffffffffffffffff16825f0384039150816fffffffffffffffffffffffffffffffff1610616993576040517f1301f74800000000000000000000000000000000000000000000000000000000815260040160405180910390fd5b6169fc565b826fffffffffffffffffffffffffffffffff168284019150816fffffffffffffffffffffffffffffffff1610156169fb576040517f997402f200000000000000000000000000000000000000000000000000000000815260040160405180910390fd5b5b92915050565b5f6040517fa9059cbb000000000000000000000000000000000000000000000000000000005f5273ffffffffffffffffffffffffffffffffffffffff84166004528260245260205f60445f80895af19150813d1560203d1460015f51141617169150806040525080616aa0576040517fe465903e00000000000000000000000000000000000000000000000000000000815260040160405180910390fd5b50505050565b5f805f805f888a1714616b98575f8086546cffffffffffffffffffffffffff811692506cffffffffffffffffffffffffff8160681c169150508a82616aeb9190618280565b91508981616af99190618280565b905061708063ffffffff1689616b0d616c3f565b63ffffffff16616b1d9190618305565b101580616b3857506cffffffffffffffffffffffffff801682115b80616b5157506cffffffffffffffffffffffffff801681115b15616b85575f885490505f80616b688585856172b1565b915091505f8a555f80838398509850985098505050505050616c33565b81815f8095509550955095505050616c33565b61708063ffffffff1687616baa616c3f565b63ffffffff16616bba9190618305565b10616c26575f8086546cffffffffffffffffffffffffff811692506cffffffffffffffffffffffffff8160681c169150505f81831714616c23575f885490505f80616c068585856172b1565b915091505f8a555f80838398509850985098505050505050616c33565b50505b5f805f8093509350935093505b95509550955095915050565b5f42905090565b5f81829150816fffffffffffffffffffffffffffffffff1614616c67575f80fd5b919050565b5f80885f8960020b60020b81526020019081526020015f2090505f815f015490505f616c988289616923565b6fffffffffffffffffffffffffffffffff1690506d09745258e83de0d0f4e400fce7996fffffffffffffffffffffffffffffffff16811115616d06576040517f25b8364a00000000000000000000000000000000000000000000000000000000815260040160405180910390fd5b5f836001015f9054906101000a9004600f0b905085616d365788600f0b81600f0b616d3191906186ed565b616d49565b88600f0b81600f0b616d48919061862d565b5b846001015f6101000a8154816fffffffffffffffffffffffffffffffff0219169083600f0b6fffffffffffffffffffffffffffffffff16021790555081845f01819055505f821494505f8303616dc457841594508960020b8b60020b13616dc3578787856002015f876003015f8491905055839190505550505b5b50505050979650505050505050565b5f805f885f8960020b60020b81526020019081526020015f2090505f895f8960020b60020b81526020019081526020015f2090508760020b8760020b1215616e5f578860020b8760020b12616e3957816002015486039350816003015485039250616e48565b81600201549350816003015492505b806002015484039350806003015483039250616e7a565b81600201548160020154039350816003015481600301540392505b5050965096945050505050565b5f845f015490505f84600f0b03616ebc575f816fffffffffffffffffffffffffffffffff1603616eb75750617051565b616ee0565b616ec68185616923565b6fffffffffffffffffffffffffffffffff16855f01819055505b5f8086600101548760020154915091505f858314616f3457858860010181905550616f31838703856fffffffffffffffffffffffffffffffff16700100000000000000000000000000000000615670565b90505b5f858314616f7857858960020181905550616f75838703866fffffffffffffffffffffffffffffffff16700100000000000000000000000000000000615670565b90505b5f8183176fffffffffffffffffffffffffffffffff161461704b5781896003015f8282829054906101000a90046fffffffffffffffffffffffffffffffff160192506101000a8154816fffffffffffffffffffffffffffffffff02191690836fffffffffffffffffffffffffffffffff160217905550808960030160108282829054906101000a90046fffffffffffffffffffffffffffffffff160192506101000a8154816fffffffffffffffffffffffffffffffff02191690836fffffffffffffffffffffffffffffffff1602179055505b50505050505b50505050565b5f805f600960039054906101000a900460020b60095f9054906101000a900460020b600960199054906101000a900463ffffffff169250925092505f805f85858592509250925089156170bf576170b28c898386868c617333565b8093508194508295505050505b88156170e0576170d38b898386868c617333565b8093508194508295505050505b8260020b8660020b1415806170fb57508160020b8560020b14155b8061711257508363ffffffff168163ffffffff1614155b15617188578282826009600360095f600960198691906101000a81548163ffffffff021916908363ffffffff1602179055508591906101000a81548162ffffff021916908360020b62ffffff1602179055508491906101000a81548162ffffff021916908360020b62ffffff1602179055505050505b505050505050505050505050565b5f8082600f0b12156171bf576171b86171b38585855f035f617461565b615ae5565b5f036171d5565b6171d46171cf8585856001617461565b615ae5565b5b90509392505050565b5f8082600f0b1215617207576172006171fb8585855f035f61755a565b615ae5565b5f0361721d565b61721c617217858585600161755a565b615ae5565b5b90509392505050565b5f617234838584600161755a565b90509392505050565b5f61724b8484846001617461565b90509392505050565b5f617263858585856001617619565b9050949350505050565b5f61727a8385845f617461565b90509392505050565b5f6172908484845f61755a565b90509392505050565b5f6172a7858585855f617619565b9050949350505050565b5f805f805f8711156172ec576172e87f0000000000000000000000000000000000000000000000000000000000000000868961444b565b8691505b5f8611156173235761731f7f0000000000000000000000000000000000000000000000000000000000000000868861444b565b8590505b8181935093505050935093915050565b5f805f8315617384575f806173528b600361795f90919063ffffffff16565b915091508a60020b8860020b0361736b5781975061737d565b8a60020b8760020b0361737c578096505b5b505061742f565b5f808a60020b8860020b1280156173a057508a60020b8760020b135b156173ce57878780925081935050508960020b8b60020b13156173c5578a96506173c9565b8a97505b617414565b6173e7600a8a8d6008617bd1909392919063ffffffff16565b905060035f8260020b60020b81526020019081526020015f2060010160109054906101000a900460020b91505b61742c8b83836003617cc6909392919063ffffffff16565b50505b5f617449600a898c6008617e6f909392919063ffffffff16565b90508686829350935093505096509650969350505050565b5f8085850373ffffffffffffffffffffffffffffffffffffffff1690508473ffffffffffffffffffffffffffffffffffffffff16811061749f575f80fd5b5f606060ff16856fffffffffffffffffffffffffffffffff16901b90508361750d578673ffffffffffffffffffffffffffffffffffffffff166174f983838973ffffffffffffffffffffffffffffffffffffffff16615670565b8161750757617506618396565b5b0461754e565b61754d61753183838973ffffffffffffffffffffffffffffffffffffffff16615975565b8873ffffffffffffffffffffffffffffffffffffffff16617ebc565b5b92505050949350505050565b5f8473ffffffffffffffffffffffffffffffffffffffff168473ffffffffffffffffffffffffffffffffffffffff161015617593575f80fd5b5f85850373ffffffffffffffffffffffffffffffffffffffff169050826175e3576175de81856fffffffffffffffffffffffffffffffff166c01000000000000000000000000615670565b61760e565b61760d81856fffffffffffffffffffffffffffffffff166c01000000000000000000000000615975565b5b915050949350505050565b5f808673ffffffffffffffffffffffffffffffffffffffff160361763b575f80fd5b5f856fffffffffffffffffffffffffffffffff1603617658575f80fd5b5f840361766757859050617956565b811515831515036177ef575f606060ff16866fffffffffffffffffffffffffffffffff16901b90508215617763575f8773ffffffffffffffffffffffffffffffffffffffff16868973ffffffffffffffffffffffffffffffffffffffff168802925082816176d8576176d7618396565b5b0403617718575f81830190508281106177165761770c838a73ffffffffffffffffffffffffffffffffffffffff1683615975565b9350505050617956565b505b61775a82617755888b73ffffffffffffffffffffffffffffffffffffffff16868161774657617745618396565b5b04617ece90919063ffffffff16565b617ebc565b92505050617956565b5f8773ffffffffffffffffffffffffffffffffffffffff16868973ffffffffffffffffffffffffffffffffffffffff168802925082816177a6576177a5618396565b5b04146177b0575f80fd5b8082116177bb575f80fd5b6177e66177e1838a73ffffffffffffffffffffffffffffffffffffffff16848603615975565b617ee6565b92505050617956565b81156178a45761789d61789873ffffffffffffffffffffffffffffffffffffffff801686111561784857617843866c01000000000000000000000000896fffffffffffffffffffffffffffffffff16615670565b617873565b866fffffffffffffffffffffffffffffffff16606060ff1687901b8161787157617870618396565b5b045b8873ffffffffffffffffffffffffffffffffffffffff16617ece90919063ffffffff16565b617ee6565b9050617956565b5f73ffffffffffffffffffffffffffffffffffffffff80168511156178f2576178ed856c01000000000000000000000000886fffffffffffffffffffffffffffffffff16615975565b617916565b617915606060ff1686901b876fffffffffffffffffffffffffffffffff16617ebc565b5b9050808773ffffffffffffffffffffffffffffffffffffffff1611617939575f80fd5b808773ffffffffffffffffffffffffffffffffffffffff16039150505b95945050505050565b5f80835f8460020b60020b81526020019081526020015f2060010160109054906101000a900460020b845f8560020b60020b81526020019081526020015f2060010160139054906101000a900460020b8092508193505050835f8460020b60020b81526020019081526020015f205f8082015f9055600182015f6101000a8154906fffffffffffffffffffffffffffffffff02191690556001820160106101000a81549062ffffff02191690556001820160136101000a81549062ffffff0219169055600282015f9055600382015f905550507ffffffffffffffffffffffffffffffffffffffffffffffffffffffffffff2761860020b8360020b1480617a9457507ffffffffffffffffffffffffffffffffffffffffffffffffffffffffffff27618617a8b90618762565b60020b8360020b145b15617b18578181855f8660020b60020b81526020019081526020015f206001016010875f8860020b60020b81526020019081526020015f2060010160138491906101000a81548162ffffff021916908360020b62ffffff1602179055508391906101000a81548162ffffff021916908360020b62ffffff1602179055505050617bca565b8060020b8260020b03617b57576040517f0d6e094900000000000000000000000000000000000000000000000000000000815260040160405180910390fd5b80845f8460020b60020b81526020019081526020015f2060010160136101000a81548162ffffff021916908360020b62ffffff16021790555081845f8360020b60020b81526020019081526020015f2060010160106101000a81548162ffffff021916908360020b62ffffff1602179055505b9250929050565b5f81806001019250505f610d8a8360081d0160081c90505f808261ffff166001901b8663ffffffff161614617c4457617c0a8785617f10565b8093508195508294505050508015617c23575050617cbe565b617c37866001610d8a85010160010b617f10565b8093508195508294505050505b80617ca857617c628563ffffffff168360010193508360010b617f48565b809250819450505080617c9b577ffffffffffffffffffffffffffffffffffffffffffffffffffffffffffff276185f0392505050617cbe565b617ca58684617f8c565b92505b617cb987610d8a60010b8503617f8c565b925050505b949350505050565b7ffffffffffffffffffffffffffffffffffffffffffffffffffffffffffff2761860020b8360020b1480617d2857507ffffffffffffffffffffffffffffffffffffffffffffffffffffffffffff27618617d1f90618762565b60020b8360020b145b617e69578260020b8260020b128015617d4657508260020b8160020b135b617d7c576040517fe45ac17d00000000000000000000000000000000000000000000000000000000815260040160405180910390fd5b8181855f8660020b60020b81526020019081526020015f206001016010875f8860020b60020b81526020019081526020015f2060010160138491906101000a81548162ffffff021916908360020b62ffffff1602179055508391906101000a81548162ffffff021916908360020b62ffffff160217905550505082845f8460020b60020b81526020019081526020015f2060010160136101000a81548162ffffff021916908360020b62ffffff16021790555082845f8360020b60020b81526020019081526020015f2060010160106101000a81548162ffffff021916908360020b62ffffff1602179055505b50505050565b5f8290505f80617e7f8785617fbe565b915091508115617eb257617e9a86610d8a830160010b617fbe565b80925081935050508115617eb1576001811b831892505b5b5050949350505050565b5f808284061182840401905092915050565b5f828284019150811015617ee0575f80fd5b92915050565b5f818291508173ffffffffffffffffffffffffffffffffffffffff1614617f0b575f80fd5b919050565b5f805f8360081d9250617f39855f8560010b60010b81526020019081526020015f205485617f48565b80925081935050509250925092565b5f805f60ff841690505f8186901c90505f8103617f6a5760ff85179350617f83565b617f7781825f0316618018565b60ff1685019350600192505b50509250929050565b5f8160081b9050617fb3835f8460010b60010b81526020019081526020015f205482617f48565b508091505092915050565b5f808260081d90505f845f8360010b60010b81526020019081526020015f2054905080159250600160ff85161b8118905080158318925080855f8460010b60010b81526020019081526020015f2081905550509250929050565b5f7f555555555555555555555555555555555555555555555555555555555555555582161590506fffffffffffffffffffffffffffffffff82161560071b8117905077ffffffffffffffff0000000000000000ffffffffffffffff82161560061b811790507bffffffff00000000ffffffff00000000ffffffff00000000ffffffff82161560051b811790507dffff0000ffff0000ffff0000ffff0000ffff0000ffff0000ffff0000ffff82161560041b811790507eff00ff00ff00ff00ff00ff00ff00ff00ff00ff00ff00ff00ff00ff00ff00ff82161560031b811790507f0f0f0f0f0f0f0f0f0f0f0f0f0f0f0f0f0f0f0f0f0f0f0f0f0f0f0f0f0f0f0f0f82161560021b811790507f333333333333333333333333333333333333333333333333333333333333333382161560011b81179050919050565b60405180606001604052805f73ffffffffffffffffffffffffffffffffffffffff1681526020015f60020b81526020015f6fffffffffffffffffffffffffffffffff1681525090565b60405180604001604052805f81526020015f81525090565b6040518061016001604052805f81526020015f151581526020015f81526020015f81526020015f81526020015f81526020015f151581526020015f62ffffff1681526020015f60020b81526020015f60020b81526020015f62ffffff1681525090565b6040518060a001604052805f81526020015f81526020015f81526020015f81526020015f81525090565b6182486188e4565b565b5f819050919050565b7f4e487b71000000000000000000000000000000000000000000000000000000005f52601160045260245ffd5b5f61828a8261824a565b91506182958361824a565b92508282019050808211156182ad576182ac618253565b5b92915050565b5f81600f0b9050919050565b5f6182c9826182b3565b91507fffffffffffffffffffffffffffffffff8000000000000000000000000000000082036182fb576182fa618253565b5b815f039050919050565b5f61830f8261824a565b915061831a8361824a565b925082820390508181111561833257618331618253565b5b92915050565b5f6fffffffffffffffffffffffffffffffff82169050919050565b5f61835d82618338565b915061836883618338565b925082820190506fffffffffffffffffffffffffffffffff8111156183905761838f618253565b5b92915050565b7f4e487b71000000000000000000000000000000000000000000000000000000005f52601260045260245ffd5b7f4e487b71000000000000000000000000000000000000000000000000000000005f52600160045260245ffd5b5f80fd5b5f61ffff82169050919050565b61840a816183f4565b8114618414575f80fd5b50565b5f8151905061842581618401565b92915050565b5f602082840312156184405761843f6183f0565b5b5f61844d84828501618417565b91505092915050565b5f62ffffff82169050919050565b5f61846e82618456565b915061847983618456565b9250828201905062ffffff81111561849457618493618253565b5b92915050565b6184a38161824a565b82525050565b5f6040820190506184bc5f83018561849a565b6184c9602083018461849a565b9392505050565b5f819050919050565b6184e2816184d0565b82525050565b5f82825260208201905092915050565b828183375f83830152505050565b5f601f19601f8301169050919050565b5f61852183856184e8565b935061852e8385846184f8565b61853783618506565b840190509392505050565b5f6060820190506185555f8301876184d9565b61856260208301866184d9565b8181036040830152618575818486618516565b905095945050505050565b5f73ffffffffffffffffffffffffffffffffffffffff82169050919050565b5f6185a982618580565b9050919050565b6185b98161859f565b82525050565b5f6020820190506185d25f8301846185b0565b92915050565b6185e18161824a565b81146185eb575f80fd5b50565b5f815190506185fc816185d8565b92915050565b5f60208284031215618617576186166183f0565b5b5f618624848285016185ee565b91505092915050565b5f618637826184d0565b9150618642836184d0565b925082820390508181125f8412168282135f85121516171561866757618666618253565b5b92915050565b5f7fffffffff0000000000000000000000000000000000000000000000000000000082169050919050565b6186a18161866d565b81146186ab575f80fd5b50565b5f815190506186bc81618698565b92915050565b5f602082840312156186d7576186d66183f0565b5b5f6186e4848285016186ae565b91505092915050565b5f6186f7826184d0565b9150618702836184d0565b92508282019050828112155f8312168382125f84121516171561872857618727618253565b5b92915050565b618737816183f4565b82525050565b5f6020820190506187505f83018461872e565b92915050565b5f8160020b9050919050565b5f61876c82618756565b91507fffffffffffffffffffffffffffffffffffffffffffffffffffffffffff800000820361879e5761879d618253565b5b815f039050919050565b6187b18161866d565b82525050565b5f6020820190506187ca5f8301846187a8565b92915050565b5f6060820190506187e35f83018761849a565b6187f0602083018661849a565b8181036040830152618803818486618516565b905095945050505050565b5f60ff82169050919050565b6188238161880e565b82525050565b5f60208201905061883c5f83018461881a565b92915050565b61884b81618756565b82525050565b5f6020820190506188645f830184618842565b92915050565b61887381618756565b811461887d575f80fd5b50565b5f8151905061888e8161886a565b92915050565b5f805f606084860312156188ab576188aa6183f0565b5b5f6188b886828701618417565b93505060206188c986828701618880565b92505060406188da86828701618417565b9150509250925092565b7f4e487b71000000000000000000000000000000000000000000000000000000005f52605160045260245ffdfea164736f6c6343000814000aa164736f6c6343000814000a","linkReferences":{}},"methodIdentifiers":{"deploy(address,address,address,address)":"fd82b73a","getDeployParameters()":"04889e26"},"id":3}