{
  "_format": "hh-sol-artifact-1",
  "contractName": "CurrencyLibrary",
  "sourceName": "@uniswap/v4-core/src/types/Currency.sol",
  "abi": [
    {
      "inputs": [],
      "name": "ERC20TransferFailed",
      "type": "error"
    },
    {
      "inputs": [],
      "name": "NativeTransferFailed",
      "type": "error"
    },
    {
      "inputs": [],
      "name": "ADDRESS_ZERO",
      "outputs": [
        {
          "internalType": "Currency",
          "name": "",
          "type": "address"
        }
      ],
      "stateMutability": "view",
      "type": "function"
    }
  ],
  "bytecode": "0x60916037600b82828239805160001a607314602a57634e487b7160e01b600052600060045260246000fd5b30600052607381538281f3fe730000000000000000000000000000000000000000301460806040526004361060335760003560e01c806366e79509146038575b600080fd5b603f600081565b6040516001600160a01b03909116815260200160405180910390f3fea264697066735822122086802d62cfdfb418eff8adfa5e858515844de7c6fa1e5861f7d9a131e83d72a564736f6c634300081c0033",
  "linkReferences": {},
  "deployedLinkReferences": {}
}