{"abi":[{"type":"constructor","inputs":[{"name":"__cdsFactory","type":"address","internalType":"contract ICDSFactory"}],"stateMutability":"nonpayable"},{"type":"function","name":"allowance","inputs":[{"name":"owner","type":"address","internalType":"address"},{"name":"spender","type":"address","internalType":"address"},{"name":"id","type":"uint256","internalType":"uint256"}],"outputs":[{"name":"","type":"uint256","internalType":"uint256"}],"stateMutability":"view"},{"type":"function","name":"approve","inputs":[{"name":"spender","type":"address","internalType":"address"},{"name":"id","type":"uint256","internalType":"uint256"},{"name":"amount","type":"uint256","internalType":"uint256"}],"outputs":[{"name":"","type":"bool","internalType":"bool"}],"stateMutability":"nonpayable"},{"type":"function","name":"balanceOf","inputs":[{"name":"owner","type":"address","internalType":"address"},{"name":"id","type":"uint256","internalType":"uint256"}],"outputs":[{"name":"","type":"uint256","internalType":"uint256"}],"stateMutability":"view"},{"type":"function","name":"cdsFactory","inputs":[],"outputs":[{"name":"","type":"address","internalType":"contract ICDSFactory"}],"stateMutability":"view"},{"type":"function","name":"contractURI","inputs":[],"outputs":[{"name":"","type":"string","internalType":"string"}],"stateMutability":"view"},{"type":"function","name":"decimals","inputs":[{"name":"id","type":"uint256","internalType":"uint256"}],"outputs":[{"name":"","type":"uint8","internalType":"uint8"}],"stateMutability":"view"},{"type":"function","name":"isOperator","inputs":[{"name":"owner","type":"address","internalType":"address"},{"name":"spender","type":"address","internalType":"address"}],"outputs":[{"name":"","type":"bool","internalType":"bool"}],"stateMutability":"view"},{"type":"function","name":"issueCDSToken","inputs":[{"name":"protectionSeller","type":"address","internalType":"address"},{"name":"merchantWallet","type":"address","internalType":"address"},{"name":"businessId","type":"bytes32","internalType":"bytes32"},{"name":"countryCodeHash","type":"bytes32","internalType":"bytes32"},{"name":"creditAssesmentId","type":"bytes32","internalType":"bytes32"},{"name":"metrics","type":"tuple","internalType":"struct Metrics","components":[{"name":"financialHealth","type":"uint256","internalType":"FinancialHealth"},{"name":"marketRisk","type":"uint256","internalType":"MarketRisk"},{"name":"businessFundamentals","type":"uint256","internalType":"BusinessFundamentals"},{"name":"creditRisk","type":"uint256","internalType":"CreditRisk"}]}],"outputs":[],"stateMutability":"nonpayable"},{"type":"function","name":"name","inputs":[{"name":"id","type":"uint256","internalType":"uint256"}],"outputs":[{"name":"","type":"string","internalType":"string"}],"stateMutability":"view"},{"type":"function","name":"setOperator","inputs":[{"name":"spender","type":"address","internalType":"address"},{"name":"approved","type":"bool","internalType":"bool"}],"outputs":[{"name":"","type":"bool","internalType":"bool"}],"stateMutability":"nonpayable"},{"type":"function","name":"supportsInterface","inputs":[{"name":"interfaceId","type":"bytes4","internalType":"bytes4"}],"outputs":[{"name":"","type":"bool","internalType":"bool"}],"stateMutability":"view"},{"type":"function","name":"symbol","inputs":[{"name":"id","type":"uint256","internalType":"uint256"}],"outputs":[{"name":"","type":"string","internalType":"string"}],"stateMutability":"view"},{"type":"function","name":"tokenURI","inputs":[{"name":"id","type":"uint256","internalType":"uint256"}],"outputs":[{"name":"","type":"string","internalType":"string"}],"stateMutability":"view"},{"type":"function","name":"totalSupply","inputs":[{"name":"id","type":"uint256","internalType":"uint256"}],"outputs":[{"name":"","type":"uint256","internalType":"uint256"}],"stateMutability":"view"},{"type":"function","name":"transfer","inputs":[{"name":"receiver","type":"address","internalType":"address"},{"name":"id","type":"uint256","internalType":"uint256"},{"name":"amount","type":"uint256","internalType":"uint256"}],"outputs":[{"name":"","type":"bool","internalType":"bool"}],"stateMutability":"nonpayable"},{"type":"function","name":"transferFrom","inputs":[{"name":"sender","type":"address","internalType":"address"},{"name":"receiver","type":"address","internalType":"address"},{"name":"id","type":"uint256","internalType":"uint256"},{"name":"amount","type":"uint256","internalType":"uint256"}],"outputs":[{"name":"","type":"bool","internalType":"bool"}],"stateMutability":"nonpayable"},{"type":"event","name":"Approval","inputs":[{"name":"owner","type":"address","indexed":true,"internalType":"address"},{"name":"spender","type":"address","indexed":true,"internalType":"address"},{"name":"id","type":"uint256","indexed":true,"internalType":"uint256"},{"name":"amount","type":"uint256","indexed":false,"internalType":"uint256"}],"anonymous":false},{"type":"event","name":"ContractURIUpdated","inputs":[],"anonymous":false},{"type":"event","name":"ERC6909DecimalsUpdated","inputs":[{"name":"id","type":"uint256","indexed":true,"internalType":"uint256"},{"name":"newDecimals","type":"uint8","indexed":false,"internalType":"uint8"}],"anonymous":false},{"type":"event","name":"ERC6909NameUpdated","inputs":[{"name":"id","type":"uint256","indexed":true,"internalType":"uint256"},{"name":"newName","type":"string","indexed":false,"internalType":"string"}],"anonymous":false},{"type":"event","name":"ERC6909SymbolUpdated","inputs":[{"name":"id","type":"uint256","indexed":true,"internalType":"uint256"},{"name":"newSymbol","type":"string","indexed":false,"internalType":"string"}],"anonymous":false},{"type":"event","name":"OperatorSet","inputs":[{"name":"owner","type":"address","indexed":true,"internalType":"address"},{"name":"spender","type":"address","indexed":true,"internalType":"address"},{"name":"approved","type":"bool","indexed":false,"internalType":"bool"}],"anonymous":false},{"type":"event","name":"Transfer","inputs":[{"name":"caller","type":"address","indexed":false,"internalType":"address"},{"name":"sender","type":"address","indexed":true,"internalType":"address"},{"name":"receiver","type":"address","indexed":true,"internalType":"address"},{"name":"id","type":"uint256","indexed":true,"internalType":"uint256"},{"name":"amount","type":"uint256","indexed":false,"internalType":"uint256"}],"anonymous":false},{"type":"event","name":"URI","inputs":[{"name":"value","type":"string","indexed":false,"internalType":"string"},{"name":"id","type":"uint256","indexed":true,"internalType":"uint256"}],"anonymous":false},{"type":"error","name":"ERC6909InsufficientAllowance","inputs":[{"name":"spender","type":"address","internalType":"address"},{"name":"allowance","type":"uint256","internalType":"uint256"},{"name":"needed","type":"uint256","internalType":"uint256"},{"name":"id","type":"uint256","internalType":"uint256"}]},{"type":"error","name":"ERC6909InsufficientBalance","inputs":[{"name":"sender","type":"address","internalType":"address"},{"name":"balance","type":"uint256","internalType":"uint256"},{"name":"needed","type":"uint256","internalType":"uint256"},{"name":"id","type":"uint256","internalType":"uint256"}]},{"type":"error","name":"ERC6909InvalidApprover","inputs":[{"name":"approver","type":"address","internalType":"address"}]},{"type":"error","name":"ERC6909InvalidReceiver","inputs":[{"name":"receiver","type":"address","internalType":"address"}]},{"type":"error","name":"ERC6909InvalidSender","inputs":[{"name":"sender","type":"address","internalType":"address"}]},{"type":"error","name":"ERC6909InvalidSpender","inputs":[{"name":"spender","type":"address","internalType":"address"}]},{"type":"error","name":"NotCDSFactory","inputs":[]}],"bytecode":{"object":"0x60a060405234801562000010575f80fd5b5060405162002e6238038062002e628339818101604052810190620000369190620000e9565b8073ffffffffffffffffffffffffffffffffffffffff1660808173ffffffffffffffffffffffffffffffffffffffff16815250505062000119565b5f80fd5b5f73ffffffffffffffffffffffffffffffffffffffff82169050919050565b5f620000a08262000075565b9050919050565b5f620000b38262000094565b9050919050565b620000c581620000a7565b8114620000d0575f80fd5b50565b5f81519050620000e381620000ba565b92915050565b5f6020828403121562000101576200010062000071565b5b5f6200011084828501620000d3565b91505092915050565b608051612d29620001395f395f81816106f501526108a30152612d295ff3fe608060405234801561000f575f80fd5b50600436106100fc575f3560e01c8063598af9e711610095578063bd85b03911610064578063bd85b0391461031a578063c87b56dd1461034a578063e8a3d4851461037a578063fe99049a14610398576100fc565b8063598af9e71461028057806383355101146102b0578063979ebba8146102cc578063b6363cf2146102ea576100fc565b80633f47e662116100d15780633f47e662146101c0578063426a8493146101f05780634e41a1fb14610220578063558a729714610250576100fc565b8062ad800c14610100578062fdd58e1461013057806301ffc9a714610160578063095bcdb614610190575b5f80fd5b61011a6004803603810190610115919061212d565b6103c8565b60405161012791906121e2565b60405180910390f35b61014a6004803603810190610145919061225c565b61046b565b60405161015791906122a9565b60405180910390f35b61017a60048036038101906101759190612317565b6104c0565b604051610187919061235c565b60405180910390f35b6101aa60048036038101906101a59190612375565b610539565b6040516101b7919061235c565b60405180910390f35b6101da60048036038101906101d5919061212d565b610558565b6040516101e791906123e0565b60405180910390f35b61020a60048036038101906102059190612375565b610581565b604051610217919061235c565b60405180910390f35b61023a6004803603810190610235919061212d565b6105a0565b60405161024791906121e2565b60405180910390f35b61026a60048036038101906102659190612423565b610644565b604051610277919061235c565b60405180910390f35b61029a60048036038101906102959190612461565b610661565b6040516102a791906122a9565b60405180910390f35b6102ca60048036038101906102c5919061267d565b6106f3565b005b6102d46108a0565b6040516102e19190612762565b60405180910390f35b61030460048036038101906102ff919061277b565b6108c7565b604051610311919061235c565b60405180910390f35b610334600480360381019061032f919061212d565b610955565b60405161034191906122a9565b60405180910390f35b610364600480360381019061035f919061212d565b61096f565b60405161037191906121e2565b60405180910390f35b610382610a10565b60405161038f91906121e2565b60405180910390f35b6103b260048036038101906103ad91906127b9565b610aa0565b6040516103bf919061235c565b60405180910390f35b606060035f8381526020019081526020015f205f0180546103e89061284a565b80601f01602080910402602001604051908101604052809291908181526020018280546104149061284a565b801561045f5780601f106104365761010080835404028352916020019161045f565b820191905f5260205f20905b81548152906001019060200180831161044257829003601f168201915b50505050509050919050565b5f805f8473ffffffffffffffffffffffffffffffffffffffff1673ffffffffffffffffffffffffffffffffffffffff1681526020019081526020015f205f8381526020019081526020015f2054905092915050565b5f7f0f632fb3000000000000000000000000000000000000000000000000000000007bffffffffffffffffffffffffffffffffffffffffffffffffffffffff1916827bffffffffffffffffffffffffffffffffffffffffffffffffffffffff19161480610532575061053182610b1a565b5b9050919050565b5f61054d610545610b83565b858585610b8a565b600190509392505050565b5f60035f8381526020019081526020015f206002015f9054906101000a900460ff169050919050565b5f61059561058d610b83565b858585610c7c565b600190509392505050565b606060035f8381526020019081526020015f2060010180546105c19061284a565b80601f01602080910402602001604051908101604052809291908181526020018280546105ed9061284a565b80156106385780601f1061060f57610100808354040283529160200191610638565b820191905f5260205f20905b81548152906001019060200180831161061b57829003601f168201915b50505050509050919050565b5f610657610650610b83565b8484610e54565b6001905092915050565b5f60025f8573ffffffffffffffffffffffffffffffffffffffff1673ffffffffffffffffffffffffffffffffffffffff1681526020019081526020015f205f8473ffffffffffffffffffffffffffffffffffffffff1673ffffffffffffffffffffffffffffffffffffffff1681526020019081526020015f205f8381526020019081526020015f205490509392505050565b7f000000000000000000000000000000000000000000000000000000000000000073ffffffffffffffffffffffffffffffffffffffff16610732610b83565b73ffffffffffffffffffffffffffffffffffffffff161461077f576040517f82c5ccc500000000000000000000000000000000000000000000000000000000815260040160405180910390fd5b5f825f1c90505f61078f8361102d565b90505f8686866040516020016107a79392919061289a565b60405160208183030381529060405290506107c28382611094565b610801836040518060400160405280600381526020017f43445300000000000000000000000000000000000000000000000000000000008152506110f1565b61083f6040518060400160405280601481526020017f68747470733a2f2f6170692e6364732e636f6d2f00000000000000000000000081525061114f565b61087e836040518060400160405280601481526020017f68747470733a2f2f6170692e6364732e636f6d2f00000000000000000000000081525061118e565b5061088a8783836111e9565b61089687896001610e54565b5050505050505050565b5f7f0000000000000000000000000000000000000000000000000000000000000000905090565b5f60015f8473ffffffffffffffffffffffffffffffffffffffff1673ffffffffffffffffffffffffffffffffffffffff1681526020019081526020015f205f8373ffffffffffffffffffffffffffffffffffffffff1673ffffffffffffffffffffffffffffffffffffffff1681526020019081526020015f205f9054906101000a900460ff16905092915050565b5f60065f8381526020019081526020015f20549050919050565b606060055f8381526020019081526020015f20805461098d9061284a565b80601f01602080910402602001604051908101604052809291908181526020018280546109b99061284a565b8015610a045780601f106109db57610100808354040283529160200191610a04565b820191905f5260205f20905b8154815290600101906020018083116109e757829003601f168201915b50505050509050919050565b606060048054610a1f9061284a565b80601f0160208091040260200160405190810160405280929190818152602001828054610a4b9061284a565b8015610a965780601f10610a6d57610100808354040283529160200191610a96565b820191905f5260205f20905b815481529060010190602001808311610a7957829003601f168201915b5050505050905090565b5f80610aaa610b83565b90508073ffffffffffffffffffffffffffffffffffffffff168673ffffffffffffffffffffffffffffffffffffffff1614158015610aef5750610aed86826108c7565b155b15610b0157610b008682868661126a565b5b610b0d86868686610b8a565b6001915050949350505050565b5f7f01ffc9a7000000000000000000000000000000000000000000000000000000007bffffffffffffffffffffffffffffffffffffffffffffffffffffffff1916827bffffffffffffffffffffffffffffffffffffffffffffffffffffffff1916149050919050565b5f33905090565b5f73ffffffffffffffffffffffffffffffffffffffff168473ffffffffffffffffffffffffffffffffffffffff1603610bfa575f6040517fa4352080000000000000000000000000000000000000000000000000000000008152600401610bf191906128e5565b60405180910390fd5b5f73ffffffffffffffffffffffffffffffffffffffff168373ffffffffffffffffffffffffffffffffffffffff1603610c6a575f6040517fb8bbd610000000000000000000000000000000000000000000000000000000008152600401610c6191906128e5565b60405180910390fd5b610c7684848484611381565b50505050565b5f73ffffffffffffffffffffffffffffffffffffffff168473ffffffffffffffffffffffffffffffffffffffff1603610cec575f6040517fcc766a98000000000000000000000000000000000000000000000000000000008152600401610ce391906128e5565b60405180910390fd5b5f73ffffffffffffffffffffffffffffffffffffffff168373ffffffffffffffffffffffffffffffffffffffff1603610d5c575f6040517f6f65f465000000000000000000000000000000000000000000000000000000008152600401610d5391906128e5565b60405180910390fd5b8060025f8673ffffffffffffffffffffffffffffffffffffffff1673ffffffffffffffffffffffffffffffffffffffff1681526020019081526020015f205f8573ffffffffffffffffffffffffffffffffffffffff1673ffffffffffffffffffffffffffffffffffffffff1681526020019081526020015f205f8481526020019081526020015f2081905550818373ffffffffffffffffffffffffffffffffffffffff168573ffffffffffffffffffffffffffffffffffffffff167fb3fd5071835887567a0671151121894ddccc2842f1d10bedad13e0d17cace9a784604051610e4691906122a9565b60405180910390a450505050565b5f73ffffffffffffffffffffffffffffffffffffffff168373ffffffffffffffffffffffffffffffffffffffff1603610ec4575f6040517fcc766a98000000000000000000000000000000000000000000000000000000008152600401610ebb91906128e5565b60405180910390fd5b5f73ffffffffffffffffffffffffffffffffffffffff168273ffffffffffffffffffffffffffffffffffffffff1603610f34575f6040517f6f65f465000000000000000000000000000000000000000000000000000000008152600401610f2b91906128e5565b60405180910390fd5b8060015f8573ffffffffffffffffffffffffffffffffffffffff1673ffffffffffffffffffffffffffffffffffffffff1681526020019081526020015f205f8473ffffffffffffffffffffffffffffffffffffffff1673ffffffffffffffffffffffffffffffffffffffff1681526020019081526020015f205f6101000a81548160ff0219169083151502179055508173ffffffffffffffffffffffffffffffffffffffff168373ffffffffffffffffffffffffffffffffffffffff167fceb576d9f15e4e200fdb5096d64d5dfd667e16def20c1eefd14256d8e3faa26783604051611020919061235c565b60405180910390a3505050565b5f8061103883611393565b90505f611044846113e9565b90505f61105085611470565b90505f61105c866114ad565b90505f61108585838587611070919061292b565b61107a919061292b565b6402540be4006114ea565b90508095505050505050919050565b8060035f8481526020019081526020015f205f0190816110b49190612b00565b50817f6846707b16f55a3623d38bf118700af63d0784698270a53ce28b116dbaa8b794826040516110e591906121e2565b60405180910390a25050565b8060035f8481526020019081526020015f2060010190816111129190612b00565b50817f8fabcb7b4fbdde605303a7339bc80fb6956cd01a42e9cdf2d15d0f2fdd3b06fa8260405161114391906121e2565b60405180910390a25050565b806004908161115e9190612b00565b507fa5d4097edda6d87cb9329af83fb3712ef77eeb13738ffe43cc35a4ce305ad96260405160405180910390a150565b8060055f8481526020019081526020015f2090816111ac9190612b00565b50817f6bb7ff708619ba0610cba295a58592e0451dee2622938c8755667688daf3529b826040516111dd91906121e2565b60405180910390a25050565b5f73ffffffffffffffffffffffffffffffffffffffff168373ffffffffffffffffffffffffffffffffffffffff1603611259575f6040517fb8bbd61000000000000000000000000000000000000000000000000000000000815260040161125091906128e5565b60405180910390fd5b6112655f848484611381565b505050565b5f611276858585610661565b90507fffffffffffffffffffffffffffffffffffffffffffffffffffffffffffffffff81101561137a57818110156112eb57838183856040517f58a3fd5a0000000000000000000000000000000000000000000000000000000081526004016112e29493929190612bcf565b60405180910390fd5b81810360025f8773ffffffffffffffffffffffffffffffffffffffff1673ffffffffffffffffffffffffffffffffffffffff1681526020019081526020015f205f8673ffffffffffffffffffffffffffffffffffffffff1673ffffffffffffffffffffffffffffffffffffffff1681526020019081526020015f205f8581526020019081526020015f20819055505b5050505050565b61138d848484846115ad565b50505050565b5f80825f015190505f805f806113a88561166c565b93509350935093505f6113ba866116e3565b90505f6103de826113cb919061292b565b6103e86113d89190612c12565b905080975050505050505050919050565b5f80826060015190505f805f806113ff8561171e565b93509350935093505f61143686604051806080016040528060288152602001601e815260200160148152602001600a815250611795565b90505f60968260646114489190612c45565b611452919061292b565b61138861145f9190612c12565b905080975050505050505050919050565b5f80826020015190505f61148382611913565b90505f602882611493919061292b565b611f406114a09190612c12565b9050809350505050919050565b5f80826040015190505f6114c082611935565b90505f6014826114d0919061292b565b6123286114dd9190612c12565b9050809350505050919050565b5f8083850290505f80198587098281108382030391505080841161150c575f80fd5b5f810361151f57838204925050506115a6565b5f8486880990508281118203915080830392505f85865f0316905080860495508084049350600181825f0304019050808302841793505f600287600302189050808702600203810290508087026002038102905080870260020381029050808702600203810290508087026002038102905080870260020381029050808502955050505050505b9392505050565b6115b984848484611977565b5f73ffffffffffffffffffffffffffffffffffffffff168473ffffffffffffffffffffffffffffffffffffffff1603611614578060065f8481526020019081526020015f205f82825461160c9190612c12565b925050819055505b5f73ffffffffffffffffffffffffffffffffffffffff168373ffffffffffffffffffffffffffffffffffffffff1603611666578060065f8481526020019081526020015f205f82825403925050819055505b50505050565b5f805f805f859050600160086001901b6116869190612c45565b5f82901c169450600160086001901b61169f9190612c45565b600882901c169350600160086001901b6116b99190612c45565b601082901c169250600160086001901b6116d39190612c45565b601882901c169150509193509193565b5f806040518060800160405280601e815260200160198152602001601e8152602001600f81525090506117168382611ba7565b915050919050565b5f805f805f859050600160086001901b6117389190612c45565b5f82901c169450600160086001901b6117519190612c45565b600882901c169350600160086001901b61176b9190612c45565b601082901c169250600160086001901b6117859190612c45565b601882901c169150509193509193565b5f805f805f6117a38761171e565b93509350935093505f866003600481106117c0576117bf612c78565b5b60200201518260ff166117d3919061292b565b876002600481106117e7576117e6612c78565b5b60200201518460ff166117fa919061292b565b8860016004811061180e5761180d612c78565b5b60200201518660ff16611821919061292b565b895f6004811061183457611833612c78565b5b60200201518860ff16611847919061292b565b6118519190612c12565b61185b9190612c12565b6118659190612c12565b90505f8760036004811061187c5761187b612c78565b5b60200201518860026004811061189557611894612c78565b5b6020020151896001600481106118ae576118ad612c78565b5b60200201518a5f600481106118c6576118c5612c78565b5b60200201516118d59190612c12565b6118df9190612c12565b6118e99190612c12565b90505f81116118f8575f611905565b80826119049190612cd2565b5b965050505050505092915050565b5f8061191e83611d25565b905080606461192d9190612c45565b915050919050565b5f806040518060a0016040528060148152602001601e815260200160198152602001600f8152602001600a815250905061196f8382611e0c565b915050919050565b5f611980610b83565b90505f73ffffffffffffffffffffffffffffffffffffffff168573ffffffffffffffffffffffffffffffffffffffff1614611aa3575f805f8773ffffffffffffffffffffffffffffffffffffffff1673ffffffffffffffffffffffffffffffffffffffff1681526020019081526020015f205f8581526020019081526020015f2054905082811015611a4f57858184866040517fb1b4fec0000000000000000000000000000000000000000000000000000000008152600401611a469493929190612bcf565b60405180910390fd5b8281035f808873ffffffffffffffffffffffffffffffffffffffff1673ffffffffffffffffffffffffffffffffffffffff1681526020019081526020015f205f8681526020019081526020015f2081905550505b5f73ffffffffffffffffffffffffffffffffffffffff168473ffffffffffffffffffffffffffffffffffffffff1614611b3857815f808673ffffffffffffffffffffffffffffffffffffffff1673ffffffffffffffffffffffffffffffffffffffff1681526020019081526020015f205f8581526020019081526020015f205f828254611b309190612c12565b925050819055505b828473ffffffffffffffffffffffffffffffffffffffff168673ffffffffffffffffffffffffffffffffffffffff167f1b3d7edb2e9c0b0e7c525b20aaaef0f5940d2ed71663c7d39266ecafac7288598486604051611b98929190612d02565b60405180910390a45050505050565b5f805f805f611bb58761166c565b93509350935093505f86600360048110611bd257611bd1612c78565b5b60200201518260ff16611be5919061292b565b87600260048110611bf957611bf8612c78565b5b60200201518460ff16611c0c919061292b565b88600160048110611c2057611c1f612c78565b5b60200201518660ff16611c33919061292b565b895f60048110611c4657611c45612c78565b5b60200201518860ff16611c59919061292b565b611c639190612c12565b611c6d9190612c12565b611c779190612c12565b90505f87600360048110611c8e57611c8d612c78565b5b602002015188600260048110611ca757611ca6612c78565b5b602002015189600160048110611cc057611cbf612c78565b5b60200201518a5f60048110611cd857611cd7612c78565b5b6020020151611ce79190612c12565b611cf19190612c12565b611cfb9190612c12565b90505f8111611d0a575f611d17565b8082611d169190612cd2565b5b965050505050505092915050565b5f805f805f611d3386611fe2565b93509350935093505f601960018560ff16611d4e9190612c45565b611d58919061292b565b90505f601960018560ff16611d6d9190612c45565b611d77919061292b565b90505f601960018560ff16611d8c9190612c45565b611d96919061292b565b90505f601482611da6919061292b565b601484611db3919061292b565b601486611dc0919061292b565b60288b60ff16611dd0919061292b565b611dda9190612c12565b611de49190612c12565b611dee9190612c12565b9050606481611dfd9190612cd2565b98505050505050505050919050565b5f805f805f80611e1b88612059565b945094509450945094505f87600460058110611e3a57611e39612c78565b5b60200201518260ff16611e4d919061292b565b88600360058110611e6157611e60612c78565b5b60200201518460ff16611e74919061292b565b89600260058110611e8857611e87612c78565b5b60200201518660ff16611e9b919061292b565b8a600160058110611eaf57611eae612c78565b5b60200201518860ff16611ec2919061292b565b8b5f60058110611ed557611ed4612c78565b5b60200201518a60ff16611ee8919061292b565b611ef29190612c12565b611efc9190612c12565b611f069190612c12565b611f109190612c12565b90505f88600460058110611f2757611f26612c78565b5b602002015189600360058110611f4057611f3f612c78565b5b60200201518a600260058110611f5957611f58612c78565b5b60200201518b600160058110611f7257611f71612c78565b5b60200201518c5f60058110611f8a57611f89612c78565b5b6020020151611f999190612c12565b611fa39190612c12565b611fad9190612c12565b611fb79190612c12565b90505f8111611fc6575f611fd3565b8082611fd29190612cd2565b5b97505050505050505092915050565b5f805f805f859050600160086001901b611ffc9190612c45565b5f82901c169450600160036001901b6120159190612c45565b600882901c169350600160036001901b61202f9190612c45565b600b82901c169250600160036001901b6120499190612c45565b600e82901c169150509193509193565b5f805f805f80869050600160086001901b6120749190612c45565b5f82901c169550600160086001901b61208d9190612c45565b600882901c169450600160086001901b6120a79190612c45565b601082901c169350600160086001901b6120c19190612c45565b601882901c169250600160086001901b6120db9190612c45565b602082901c1691505091939590929450565b5f604051905090565b5f80fd5b5f819050919050565b61210c816120fa565b8114612116575f80fd5b50565b5f8135905061212781612103565b92915050565b5f60208284031215612142576121416120f6565b5b5f61214f84828501612119565b91505092915050565b5f81519050919050565b5f82825260208201905092915050565b5f5b8381101561218f578082015181840152602081019050612174565b5f8484015250505050565b5f601f19601f8301169050919050565b5f6121b482612158565b6121be8185612162565b93506121ce818560208601612172565b6121d78161219a565b840191505092915050565b5f6020820190508181035f8301526121fa81846121aa565b905092915050565b5f73ffffffffffffffffffffffffffffffffffffffff82169050919050565b5f61222b82612202565b9050919050565b61223b81612221565b8114612245575f80fd5b50565b5f8135905061225681612232565b92915050565b5f8060408385031215612272576122716120f6565b5b5f61227f85828601612248565b925050602061229085828601612119565b9150509250929050565b6122a3816120fa565b82525050565b5f6020820190506122bc5f83018461229a565b92915050565b5f7fffffffff0000000000000000000000000000000000000000000000000000000082169050919050565b6122f6816122c2565b8114612300575f80fd5b50565b5f81359050612311816122ed565b92915050565b5f6020828403121561232c5761232b6120f6565b5b5f61233984828501612303565b91505092915050565b5f8115159050919050565b61235681612342565b82525050565b5f60208201905061236f5f83018461234d565b92915050565b5f805f6060848603121561238c5761238b6120f6565b5b5f61239986828701612248565b93505060206123aa86828701612119565b92505060406123bb86828701612119565b9150509250925092565b5f60ff82169050919050565b6123da816123c5565b82525050565b5f6020820190506123f35f8301846123d1565b92915050565b61240281612342565b811461240c575f80fd5b50565b5f8135905061241d816123f9565b92915050565b5f8060408385031215612439576124386120f6565b5b5f61244685828601612248565b92505060206124578582860161240f565b9150509250929050565b5f805f60608486031215612478576124776120f6565b5b5f61248586828701612248565b935050602061249686828701612248565b92505060406124a786828701612119565b9150509250925092565b5f819050919050565b6124c3816124b1565b81146124cd575f80fd5b50565b5f813590506124de816124ba565b92915050565b5f80fd5b7f4e487b71000000000000000000000000000000000000000000000000000000005f52604160045260245ffd5b61251e8261219a565b810181811067ffffffffffffffff8211171561253d5761253c6124e8565b5b80604052505050565b5f61254f6120ed565b905061255b8282612515565b919050565b612569816120fa565b8114612573575f80fd5b50565b5f8135905061258481612560565b92915050565b612593816120fa565b811461259d575f80fd5b50565b5f813590506125ae8161258a565b92915050565b6125bd816120fa565b81146125c7575f80fd5b50565b5f813590506125d8816125b4565b92915050565b6125e7816120fa565b81146125f1575f80fd5b50565b5f81359050612602816125de565b92915050565b5f6080828403121561261d5761261c6124e4565b5b6126276080612546565b90505f61263684828501612576565b5f830152506020612649848285016125a0565b602083015250604061265d848285016125ca565b6040830152506060612671848285016125f4565b60608301525092915050565b5f805f805f806101208789031215612698576126976120f6565b5b5f6126a589828a01612248565b96505060206126b689828a01612248565b95505060406126c789828a016124d0565b94505060606126d889828a016124d0565b93505060806126e989828a016124d0565b92505060a06126fa89828a01612608565b9150509295509295509295565b5f819050919050565b5f61272a61272561272084612202565b612707565b612202565b9050919050565b5f61273b82612710565b9050919050565b5f61274c82612731565b9050919050565b61275c81612742565b82525050565b5f6020820190506127755f830184612753565b92915050565b5f8060408385031215612791576127906120f6565b5b5f61279e85828601612248565b92505060206127af85828601612248565b9150509250929050565b5f805f80608085870312156127d1576127d06120f6565b5b5f6127de87828801612248565b94505060206127ef87828801612248565b935050604061280087828801612119565b925050606061281187828801612119565b91505092959194509250565b7f4e487b71000000000000000000000000000000000000000000000000000000005f52602260045260245ffd5b5f600282049050600182168061286157607f821691505b6020821081036128745761287361281d565b5b50919050565b5f819050919050565b61289461288f826124b1565b61287a565b82525050565b5f6128a58286612883565b6020820191506128b58285612883565b6020820191506128c58284612883565b602082019150819050949350505050565b6128df81612221565b82525050565b5f6020820190506128f85f8301846128d6565b92915050565b7f4e487b71000000000000000000000000000000000000000000000000000000005f52601160045260245ffd5b5f612935826120fa565b9150612940836120fa565b925082820261294e816120fa565b91508282048414831517612965576129646128fe565b5b5092915050565b5f819050815f5260205f209050919050565b5f6020601f8301049050919050565b5f82821b905092915050565b5f600883026129c87fffffffffffffffffffffffffffffffffffffffffffffffffffffffffffffffff8261298d565b6129d2868361298d565b95508019841693508086168417925050509392505050565b5f612a046129ff6129fa846120fa565b612707565b6120fa565b9050919050565b5f819050919050565b612a1d836129ea565b612a31612a2982612a0b565b848454612999565b825550505050565b5f90565b612a45612a39565b612a50818484612a14565b505050565b5b81811015612a7357612a685f82612a3d565b600181019050612a56565b5050565b601f821115612ab857612a898161296c565b612a928461297e565b81016020851015612aa1578190505b612ab5612aad8561297e565b830182612a55565b50505b505050565b5f82821c905092915050565b5f612ad85f1984600802612abd565b1980831691505092915050565b5f612af08383612ac9565b9150826002028217905092915050565b612b0982612158565b67ffffffffffffffff811115612b2257612b216124e8565b5b612b2c825461284a565b612b37828285612a77565b5f60209050601f831160018114612b68575f8415612b56578287015190505b612b608582612ae5565b865550612bc7565b601f198416612b768661296c565b5f5b82811015612b9d57848901518255600182019150602085019450602081019050612b78565b86831015612bba5784890151612bb6601f891682612ac9565b8355505b6001600288020188555050505b505050505050565b5f608082019050612be25f8301876128d6565b612bef602083018661229a565b612bfc604083018561229a565b612c09606083018461229a565b95945050505050565b5f612c1c826120fa565b9150612c27836120fa565b9250828201905080821115612c3f57612c3e6128fe565b5b92915050565b5f612c4f826120fa565b9150612c5a836120fa565b9250828203905081811115612c7257612c716128fe565b5b92915050565b7f4e487b71000000000000000000000000000000000000000000000000000000005f52603260045260245ffd5b7f4e487b71000000000000000000000000000000000000000000000000000000005f52601260045260245ffd5b5f612cdc826120fa565b9150612ce7836120fa565b925082612cf757612cf6612ca5565b5b828204905092915050565b5f604082019050612d155f8301856128d6565b612d22602083018461229a565b939250505056","linkReferences":{}},"methodIdentifiers":{"allowance(address,address,uint256)":"598af9e7","approve(address,uint256,uint256)":"426a8493","balanceOf(address,uint256)":"00fdd58e","cdsFactory()":"979ebba8","contractURI()":"e8a3d485","decimals(uint256)":"3f47e662","isOperator(address,address)":"b6363cf2","issueCDSToken(address,address,bytes32,bytes32,bytes32,(uint256,uint256,uint256,uint256))":"83355101","name(uint256)":"00ad800c","setOperator(address,bool)":"558a7297","supportsInterface(bytes4)":"01ffc9a7","symbol(uint256)":"4e41a1fb","tokenURI(uint256)":"c87b56dd","totalSupply(uint256)":"bd85b039","transfer(address,uint256,uint256)":"095bcdb6","transferFrom(address,address,uint256,uint256)":"fe99049a"},"id":190}