{"abi":[{"type":"constructor","inputs":[{"name":"__mentoStableCoinSelector","type":"address","internalType":"contract IMentoStableCoinSelector"},{"name":"__cdsFactory","type":"address","internalType":"contract ICDSFactory"}],"stateMutability":"nonpayable"},{"type":"function","name":"allowance","inputs":[{"name":"owner","type":"address","internalType":"address"},{"name":"spender","type":"address","internalType":"address"},{"name":"id","type":"uint256","internalType":"uint256"}],"outputs":[{"name":"","type":"uint256","internalType":"uint256"}],"stateMutability":"view"},{"type":"function","name":"approve","inputs":[{"name":"spender","type":"address","internalType":"address"},{"name":"id","type":"uint256","internalType":"uint256"},{"name":"amount","type":"uint256","internalType":"uint256"}],"outputs":[{"name":"","type":"bool","internalType":"bool"}],"stateMutability":"nonpayable"},{"type":"function","name":"balanceOf","inputs":[{"name":"owner","type":"address","internalType":"address"},{"name":"id","type":"uint256","internalType":"uint256"}],"outputs":[{"name":"","type":"uint256","internalType":"uint256"}],"stateMutability":"view"},{"type":"function","name":"cdsFactory","inputs":[],"outputs":[{"name":"","type":"address","internalType":"contract ICDSFactory"}],"stateMutability":"view"},{"type":"function","name":"contractURI","inputs":[],"outputs":[{"name":"","type":"string","internalType":"string"}],"stateMutability":"view"},{"type":"function","name":"decimals","inputs":[{"name":"id","type":"uint256","internalType":"uint256"}],"outputs":[{"name":"","type":"uint8","internalType":"uint8"}],"stateMutability":"view"},{"type":"function","name":"isOperator","inputs":[{"name":"owner","type":"address","internalType":"address"},{"name":"spender","type":"address","internalType":"address"}],"outputs":[{"name":"","type":"bool","internalType":"bool"}],"stateMutability":"view"},{"type":"function","name":"issueCDSToken","inputs":[{"name":"protectionSeller","type":"address","internalType":"address"},{"name":"merchantWallet","type":"address","internalType":"address"},{"name":"businessId","type":"bytes32","internalType":"bytes32"},{"name":"countryCodeHash","type":"bytes32","internalType":"bytes32"},{"name":"creditAssesmentId","type":"bytes32","internalType":"bytes32"},{"name":"metrics","type":"tuple","internalType":"struct Metrics","components":[{"name":"financialHealth","type":"uint256","internalType":"FinancialHealth"},{"name":"marketRisk","type":"uint256","internalType":"MarketRisk"},{"name":"businessFundamentals","type":"uint256","internalType":"BusinessFundamentals"},{"name":"creditRisk","type":"uint256","internalType":"CreditRisk"}]}],"outputs":[],"stateMutability":"nonpayable"},{"type":"function","name":"name","inputs":[{"name":"id","type":"uint256","internalType":"uint256"}],"outputs":[{"name":"","type":"string","internalType":"string"}],"stateMutability":"view"},{"type":"function","name":"setOperator","inputs":[{"name":"spender","type":"address","internalType":"address"},{"name":"approved","type":"bool","internalType":"bool"}],"outputs":[{"name":"","type":"bool","internalType":"bool"}],"stateMutability":"nonpayable"},{"type":"function","name":"supportsInterface","inputs":[{"name":"interfaceId","type":"bytes4","internalType":"bytes4"}],"outputs":[{"name":"","type":"bool","internalType":"bool"}],"stateMutability":"view"},{"type":"function","name":"symbol","inputs":[{"name":"id","type":"uint256","internalType":"uint256"}],"outputs":[{"name":"","type":"string","internalType":"string"}],"stateMutability":"view"},{"type":"function","name":"tokenURI","inputs":[{"name":"id","type":"uint256","internalType":"uint256"}],"outputs":[{"name":"","type":"string","internalType":"string"}],"stateMutability":"view"},{"type":"function","name":"totalSupply","inputs":[{"name":"id","type":"uint256","internalType":"uint256"}],"outputs":[{"name":"","type":"uint256","internalType":"uint256"}],"stateMutability":"view"},{"type":"function","name":"transfer","inputs":[{"name":"receiver","type":"address","internalType":"address"},{"name":"id","type":"uint256","internalType":"uint256"},{"name":"amount","type":"uint256","internalType":"uint256"}],"outputs":[{"name":"","type":"bool","internalType":"bool"}],"stateMutability":"nonpayable"},{"type":"function","name":"transferFrom","inputs":[{"name":"sender","type":"address","internalType":"address"},{"name":"receiver","type":"address","internalType":"address"},{"name":"id","type":"uint256","internalType":"uint256"},{"name":"amount","type":"uint256","internalType":"uint256"}],"outputs":[{"name":"","type":"bool","internalType":"bool"}],"stateMutability":"nonpayable"},{"type":"event","name":"Approval","inputs":[{"name":"owner","type":"address","indexed":true,"internalType":"address"},{"name":"spender","type":"address","indexed":true,"internalType":"address"},{"name":"id","type":"uint256","indexed":true,"internalType":"uint256"},{"name":"amount","type":"uint256","indexed":false,"internalType":"uint256"}],"anonymous":false},{"type":"event","name":"ContractURIUpdated","inputs":[],"anonymous":false},{"type":"event","name":"ERC6909DecimalsUpdated","inputs":[{"name":"id","type":"uint256","indexed":true,"internalType":"uint256"},{"name":"newDecimals","type":"uint8","indexed":false,"internalType":"uint8"}],"anonymous":false},{"type":"event","name":"ERC6909NameUpdated","inputs":[{"name":"id","type":"uint256","indexed":true,"internalType":"uint256"},{"name":"newName","type":"string","indexed":false,"internalType":"string"}],"anonymous":false},{"type":"event","name":"ERC6909SymbolUpdated","inputs":[{"name":"id","type":"uint256","indexed":true,"internalType":"uint256"},{"name":"newSymbol","type":"string","indexed":false,"internalType":"string"}],"anonymous":false},{"type":"event","name":"OperatorSet","inputs":[{"name":"owner","type":"address","indexed":true,"internalType":"address"},{"name":"spender","type":"address","indexed":true,"internalType":"address"},{"name":"approved","type":"bool","indexed":false,"internalType":"bool"}],"anonymous":false},{"type":"event","name":"Transfer","inputs":[{"name":"caller","type":"address","indexed":false,"internalType":"address"},{"name":"sender","type":"address","indexed":true,"internalType":"address"},{"name":"receiver","type":"address","indexed":true,"internalType":"address"},{"name":"id","type":"uint256","indexed":true,"internalType":"uint256"},{"name":"amount","type":"uint256","indexed":false,"internalType":"uint256"}],"anonymous":false},{"type":"event","name":"URI","inputs":[{"name":"value","type":"string","indexed":false,"internalType":"string"},{"name":"id","type":"uint256","indexed":true,"internalType":"uint256"}],"anonymous":false},{"type":"error","name":"ERC6909InsufficientAllowance","inputs":[{"name":"spender","type":"address","internalType":"address"},{"name":"allowance","type":"uint256","internalType":"uint256"},{"name":"needed","type":"uint256","internalType":"uint256"},{"name":"id","type":"uint256","internalType":"uint256"}]},{"type":"error","name":"ERC6909InsufficientBalance","inputs":[{"name":"sender","type":"address","internalType":"address"},{"name":"balance","type":"uint256","internalType":"uint256"},{"name":"needed","type":"uint256","internalType":"uint256"},{"name":"id","type":"uint256","internalType":"uint256"}]},{"type":"error","name":"ERC6909InvalidApprover","inputs":[{"name":"approver","type":"address","internalType":"address"}]},{"type":"error","name":"ERC6909InvalidReceiver","inputs":[{"name":"receiver","type":"address","internalType":"address"}]},{"type":"error","name":"ERC6909InvalidSender","inputs":[{"name":"sender","type":"address","internalType":"address"}]},{"type":"error","name":"ERC6909InvalidSpender","inputs":[{"name":"spender","type":"address","internalType":"address"}]},{"type":"error","name":"NotCDSFactory","inputs":[]}],"bytecode":{"object":"0x60a060405234801562000010575f80fd5b50604051620032e3380380620032e383398181016040528101906200003691906200016c565b8073ffffffffffffffffffffffffffffffffffffffff1660808173ffffffffffffffffffffffffffffffffffffffff16815250508160075f6101000a81548173ffffffffffffffffffffffffffffffffffffffff021916908373ffffffffffffffffffffffffffffffffffffffff1602179055505050620001b1565b5f80fd5b5f73ffffffffffffffffffffffffffffffffffffffff82169050919050565b5f620000e182620000b6565b9050919050565b5f620000f482620000d5565b9050919050565b6200010681620000e8565b811462000111575f80fd5b50565b5f815190506200012481620000fb565b92915050565b5f6200013682620000d5565b9050919050565b62000148816200012a565b811462000153575f80fd5b50565b5f8151905062000166816200013d565b92915050565b5f8060408385031215620001855762000184620000b2565b5b5f620001948582860162000114565b9250506020620001a78582860162000156565b9150509250929050565b60805161310b620001d85f395f81816106f50152818161093c0152610a0b015261310b5ff3fe608060405234801561000f575f80fd5b50600436106100fc575f3560e01c8063598af9e711610095578063bd85b03911610064578063bd85b0391461031a578063c87b56dd1461034a578063e8a3d4851461037a578063fe99049a14610398576100fc565b8063598af9e71461028057806383355101146102b0578063979ebba8146102cc578063b6363cf2146102ea576100fc565b80633f47e662116100d15780633f47e662146101c0578063426a8493146101f05780634e41a1fb14610220578063558a729714610250576100fc565b8062ad800c14610100578062fdd58e1461013057806301ffc9a714610160578063095bcdb614610190575b5f80fd5b61011a60048036038101906101159190612296565b6103c8565b604051610127919061234b565b60405180910390f35b61014a600480360381019061014591906123c5565b61046b565b6040516101579190612412565b60405180910390f35b61017a60048036038101906101759190612480565b6104c0565b60405161018791906124c5565b60405180910390f35b6101aa60048036038101906101a591906124de565b610539565b6040516101b791906124c5565b60405180910390f35b6101da60048036038101906101d59190612296565b610558565b6040516101e79190612549565b60405180910390f35b61020a600480360381019061020591906124de565b610581565b60405161021791906124c5565b60405180910390f35b61023a60048036038101906102359190612296565b6105a0565b604051610247919061234b565b60405180910390f35b61026a6004803603810190610265919061258c565b610644565b60405161027791906124c5565b60405180910390f35b61029a600480360381019061029591906125ca565b610661565b6040516102a79190612412565b60405180910390f35b6102ca60048036038101906102c591906127e6565b6106f3565b005b6102d4610a08565b6040516102e191906128cb565b60405180910390f35b61030460048036038101906102ff91906128e4565b610a2f565b60405161031191906124c5565b60405180910390f35b610334600480360381019061032f9190612296565b610abd565b6040516103419190612412565b60405180910390f35b610364600480360381019061035f9190612296565b610ad7565b604051610371919061234b565b60405180910390f35b610382610b78565b60405161038f919061234b565b60405180910390f35b6103b260048036038101906103ad9190612922565b610c08565b6040516103bf91906124c5565b60405180910390f35b606060035f8381526020019081526020015f205f0180546103e8906129b3565b80601f0160208091040260200160405190810160405280929190818152602001828054610414906129b3565b801561045f5780601f106104365761010080835404028352916020019161045f565b820191905f5260205f20905b81548152906001019060200180831161044257829003601f168201915b50505050509050919050565b5f805f8473ffffffffffffffffffffffffffffffffffffffff1673ffffffffffffffffffffffffffffffffffffffff1681526020019081526020015f205f8381526020019081526020015f2054905092915050565b5f7f0f632fb3000000000000000000000000000000000000000000000000000000007bffffffffffffffffffffffffffffffffffffffffffffffffffffffff1916827bffffffffffffffffffffffffffffffffffffffffffffffffffffffff19161480610532575061053182610c82565b5b9050919050565b5f61054d610545610ceb565b858585610cf2565b600190509392505050565b5f60035f8381526020019081526020015f206002015f9054906101000a900460ff169050919050565b5f61059561058d610ceb565b858585610de4565b600190509392505050565b606060035f8381526020019081526020015f2060010180546105c1906129b3565b80601f01602080910402602001604051908101604052809291908181526020018280546105ed906129b3565b80156106385780601f1061060f57610100808354040283529160200191610638565b820191905f5260205f20905b81548152906001019060200180831161061b57829003601f168201915b50505050509050919050565b5f610657610650610ceb565b8484610fbc565b6001905092915050565b5f60025f8573ffffffffffffffffffffffffffffffffffffffff1673ffffffffffffffffffffffffffffffffffffffff1681526020019081526020015f205f8473ffffffffffffffffffffffffffffffffffffffff1673ffffffffffffffffffffffffffffffffffffffff1681526020019081526020015f205f8381526020019081526020015f205490509392505050565b7f000000000000000000000000000000000000000000000000000000000000000073ffffffffffffffffffffffffffffffffffffffff16610732610ceb565b73ffffffffffffffffffffffffffffffffffffffff161461077f576040517f82c5ccc500000000000000000000000000000000000000000000000000000000815260040160405180910390fd5b5f825f1c90505f61078f83611195565b90505f8686866040516020016107a793929190612a03565b60405160208183030381529060405290506107c283826111fd565b610801836040518060400160405280600381526020017f434453000000000000000000000000000000000000000000000000000000000081525061125a565b61083f6040518060400160405280601481526020017f68747470733a2f2f6170692e6364732e636f6d2f0000000000000000000000008152506112b8565b61087e836040518060400160405280601481526020017f68747470733a2f2f6170692e6364732e636f6d2f0000000000000000000000008152506112f7565b5061088a878383611352565b61089687896001610fbc565b5f60075f9054906101000a900473ffffffffffffffffffffffffffffffffffffffff1673ffffffffffffffffffffffffffffffffffffffff16630a36360e848989886040518563ffffffff1660e01b81526004016108f79493929190612afe565b6020604051808303815f875af1158015610913573d5f803e3d5ffd5b505050506040513d601f19601f820116820180604052508101906109379190612b7c565b90505f7f000000000000000000000000000000000000000000000000000000000000000073ffffffffffffffffffffffffffffffffffffffff1663dbbf3db4308c30868960405160200161098b9190612412565b6040516020818303038152906040526040518663ffffffff1660e01b81526004016109ba959493929190612c08565b6020604051808303815f875af11580156109d6573d5f803e3d5ffd5b505050506040513d601f19601f820116820180604052508101906109fa9190612c74565b905050505050505050505050565b5f7f0000000000000000000000000000000000000000000000000000000000000000905090565b5f60015f8473ffffffffffffffffffffffffffffffffffffffff1673ffffffffffffffffffffffffffffffffffffffff1681526020019081526020015f205f8373ffffffffffffffffffffffffffffffffffffffff1673ffffffffffffffffffffffffffffffffffffffff1681526020019081526020015f205f9054906101000a900460ff16905092915050565b5f60065f8381526020019081526020015f20549050919050565b606060055f8381526020019081526020015f208054610af5906129b3565b80601f0160208091040260200160405190810160405280929190818152602001828054610b21906129b3565b8015610b6c5780601f10610b4357610100808354040283529160200191610b6c565b820191905f5260205f20905b815481529060010190602001808311610b4f57829003601f168201915b50505050509050919050565b606060048054610b87906129b3565b80601f0160208091040260200160405190810160405280929190818152602001828054610bb3906129b3565b8015610bfe5780601f10610bd557610100808354040283529160200191610bfe565b820191905f5260205f20905b815481529060010190602001808311610be157829003601f168201915b5050505050905090565b5f80610c12610ceb565b90508073ffffffffffffffffffffffffffffffffffffffff168673ffffffffffffffffffffffffffffffffffffffff1614158015610c575750610c558682610a2f565b155b15610c6957610c68868286866113d3565b5b610c7586868686610cf2565b6001915050949350505050565b5f7f01ffc9a7000000000000000000000000000000000000000000000000000000007bffffffffffffffffffffffffffffffffffffffffffffffffffffffff1916827bffffffffffffffffffffffffffffffffffffffffffffffffffffffff1916149050919050565b5f33905090565b5f73ffffffffffffffffffffffffffffffffffffffff168473ffffffffffffffffffffffffffffffffffffffff1603610d62575f6040517fa4352080000000000000000000000000000000000000000000000000000000008152600401610d599190612c9f565b60405180910390fd5b5f73ffffffffffffffffffffffffffffffffffffffff168373ffffffffffffffffffffffffffffffffffffffff1603610dd2575f6040517fb8bbd610000000000000000000000000000000000000000000000000000000008152600401610dc99190612c9f565b60405180910390fd5b610dde848484846114ea565b50505050565b5f73ffffffffffffffffffffffffffffffffffffffff168473ffffffffffffffffffffffffffffffffffffffff1603610e54575f6040517fcc766a98000000000000000000000000000000000000000000000000000000008152600401610e4b9190612c9f565b60405180910390fd5b5f73ffffffffffffffffffffffffffffffffffffffff168373ffffffffffffffffffffffffffffffffffffffff1603610ec4575f6040517f6f65f465000000000000000000000000000000000000000000000000000000008152600401610ebb9190612c9f565b60405180910390fd5b8060025f8673ffffffffffffffffffffffffffffffffffffffff1673ffffffffffffffffffffffffffffffffffffffff1681526020019081526020015f205f8573ffffffffffffffffffffffffffffffffffffffff1673ffffffffffffffffffffffffffffffffffffffff1681526020019081526020015f205f8481526020019081526020015f2081905550818373ffffffffffffffffffffffffffffffffffffffff168573ffffffffffffffffffffffffffffffffffffffff167fb3fd5071835887567a0671151121894ddccc2842f1d10bedad13e0d17cace9a784604051610fae9190612412565b60405180910390a450505050565b5f73ffffffffffffffffffffffffffffffffffffffff168373ffffffffffffffffffffffffffffffffffffffff160361102c575f6040517fcc766a980000000000000000000000000000000000000000000000000000000081526004016110239190612c9f565b60405180910390fd5b5f73ffffffffffffffffffffffffffffffffffffffff168273ffffffffffffffffffffffffffffffffffffffff160361109c575f6040517f6f65f4650000000000000000000000000000000000000000000000000000000081526004016110939190612c9f565b60405180910390fd5b8060015f8573ffffffffffffffffffffffffffffffffffffffff1673ffffffffffffffffffffffffffffffffffffffff1681526020019081526020015f205f8473ffffffffffffffffffffffffffffffffffffffff1673ffffffffffffffffffffffffffffffffffffffff1681526020019081526020015f205f6101000a81548160ff0219169083151502179055508173ffffffffffffffffffffffffffffffffffffffff168373ffffffffffffffffffffffffffffffffffffffff167fceb576d9f15e4e200fdb5096d64d5dfd667e16def20c1eefd14256d8e3faa2678360405161118891906124c5565b60405180910390a3505050565b5f806111a0836114fc565b90505f6111ac84611552565b90505f6111b8856115d9565b90505f6111c486611616565b90505f6111ee858385876111d89190612ce5565b6111e29190612ce5565b60ff16620f4240611653565b90508095505050505050919050565b8060035f8481526020019081526020015f205f01908161121d9190612e94565b50817f6846707b16f55a3623d38bf118700af63d0784698270a53ce28b116dbaa8b7948260405161124e919061234b565b60405180910390a25050565b8060035f8481526020019081526020015f20600101908161127b9190612e94565b50817f8fabcb7b4fbdde605303a7339bc80fb6956cd01a42e9cdf2d15d0f2fdd3b06fa826040516112ac919061234b565b60405180910390a25050565b80600490816112c79190612e94565b507fa5d4097edda6d87cb9329af83fb3712ef77eeb13738ffe43cc35a4ce305ad96260405160405180910390a150565b8060055f8481526020019081526020015f2090816113159190612e94565b50817f6bb7ff708619ba0610cba295a58592e0451dee2622938c8755667688daf3529b82604051611346919061234b565b60405180910390a25050565b5f73ffffffffffffffffffffffffffffffffffffffff168373ffffffffffffffffffffffffffffffffffffffff16036113c2575f6040517fb8bbd6100000000000000000000000000000000000000000000000000000000081526004016113b99190612c9f565b60405180910390fd5b6113ce5f8484846114ea565b505050565b5f6113df858585610661565b90507fffffffffffffffffffffffffffffffffffffffffffffffffffffffffffffffff8110156114e3578181101561145457838183856040517f58a3fd5a00000000000000000000000000000000000000000000000000000000815260040161144b9493929190612f63565b60405180910390fd5b81810360025f8773ffffffffffffffffffffffffffffffffffffffff1673ffffffffffffffffffffffffffffffffffffffff1681526020019081526020015f205f8673ffffffffffffffffffffffffffffffffffffffff1673ffffffffffffffffffffffffffffffffffffffff1681526020019081526020015f205f8581526020019081526020015f20819055505b5050505050565b6114f684848484611716565b50505050565b5f80825f015190505f805f80611511856117d5565b93509350935093505f6115238661184c565b90505f6103de826115349190612fa6565b6103e86115419190612fe7565b905080975050505050505050919050565b5f80826060015190505f805f8061156885611887565b93509350935093505f61159f86604051806080016040528060288152602001601e815260200160148152602001600a8152506118fe565b90505f60968260646115b1919061301a565b6115bb9190612fa6565b6113886115c89190612fe7565b905080975050505050505050919050565b5f80826020015190505f6115ec82611a7c565b90505f6028826115fc9190612fa6565b611f406116099190612fe7565b9050809350505050919050565b5f80826040015190505f61162982611a9e565b90505f6014826116399190612fa6565b6123286116469190612fe7565b9050809350505050919050565b5f8083850290505f801985870982811083820303915050808411611675575f80fd5b5f8103611688578382049250505061170f565b5f8486880990508281118203915080830392505f85865f0316905080860495508084049350600181825f0304019050808302841793505f600287600302189050808702600203810290508087026002038102905080870260020381029050808702600203810290508087026002038102905080870260020381029050808502955050505050505b9392505050565b61172284848484611ae0565b5f73ffffffffffffffffffffffffffffffffffffffff168473ffffffffffffffffffffffffffffffffffffffff160361177d578060065f8481526020019081526020015f205f8282546117759190612fe7565b925050819055505b5f73ffffffffffffffffffffffffffffffffffffffff168373ffffffffffffffffffffffffffffffffffffffff16036117cf578060065f8481526020019081526020015f205f82825403925050819055505b50505050565b5f805f805f859050600160086001901b6117ef919061301a565b5f82901c169450600160086001901b611808919061301a565b600882901c169350600160086001901b611822919061301a565b601082901c169250600160086001901b61183c919061301a565b601882901c169150509193509193565b5f806040518060800160405280601e815260200160198152602001601e8152602001600f815250905061187f8382611d10565b915050919050565b5f805f805f859050600160086001901b6118a1919061301a565b5f82901c169450600160086001901b6118ba919061301a565b600882901c169350600160086001901b6118d4919061301a565b601082901c169250600160086001901b6118ee919061301a565b601882901c169150509193509193565b5f805f805f61190c87611887565b93509350935093505f866003600481106119295761192861304d565b5b60200201518260ff1661193c9190612fa6565b876002600481106119505761194f61304d565b5b60200201518460ff166119639190612fa6565b886001600481106119775761197661304d565b5b60200201518660ff1661198a9190612fa6565b895f6004811061199d5761199c61304d565b5b60200201518860ff166119b09190612fa6565b6119ba9190612fe7565b6119c49190612fe7565b6119ce9190612fe7565b90505f876003600481106119e5576119e461304d565b5b6020020151886002600481106119fe576119fd61304d565b5b602002015189600160048110611a1757611a1661304d565b5b60200201518a5f60048110611a2f57611a2e61304d565b5b6020020151611a3e9190612fe7565b611a489190612fe7565b611a529190612fe7565b90505f8111611a61575f611a6e565b8082611a6d91906130a7565b5b965050505050505092915050565b5f80611a8783611e8e565b9050806064611a96919061301a565b915050919050565b5f806040518060a0016040528060148152602001601e815260200160198152602001600f8152602001600a8152509050611ad88382611f75565b915050919050565b5f611ae9610ceb565b90505f73ffffffffffffffffffffffffffffffffffffffff168573ffffffffffffffffffffffffffffffffffffffff1614611c0c575f805f8773ffffffffffffffffffffffffffffffffffffffff1673ffffffffffffffffffffffffffffffffffffffff1681526020019081526020015f205f8581526020019081526020015f2054905082811015611bb857858184866040517fb1b4fec0000000000000000000000000000000000000000000000000000000008152600401611baf9493929190612f63565b60405180910390fd5b8281035f808873ffffffffffffffffffffffffffffffffffffffff1673ffffffffffffffffffffffffffffffffffffffff1681526020019081526020015f205f8681526020019081526020015f2081905550505b5f73ffffffffffffffffffffffffffffffffffffffff168473ffffffffffffffffffffffffffffffffffffffff1614611ca157815f808673ffffffffffffffffffffffffffffffffffffffff1673ffffffffffffffffffffffffffffffffffffffff1681526020019081526020015f205f8581526020019081526020015f205f828254611c999190612fe7565b925050819055505b828473ffffffffffffffffffffffffffffffffffffffff168673ffffffffffffffffffffffffffffffffffffffff167f1b3d7edb2e9c0b0e7c525b20aaaef0f5940d2ed71663c7d39266ecafac7288598486604051611d019291906130d7565b60405180910390a45050505050565b5f805f805f611d1e876117d5565b93509350935093505f86600360048110611d3b57611d3a61304d565b5b60200201518260ff16611d4e9190612fa6565b87600260048110611d6257611d6161304d565b5b60200201518460ff16611d759190612fa6565b88600160048110611d8957611d8861304d565b5b60200201518660ff16611d9c9190612fa6565b895f60048110611daf57611dae61304d565b5b60200201518860ff16611dc29190612fa6565b611dcc9190612fe7565b611dd69190612fe7565b611de09190612fe7565b90505f87600360048110611df757611df661304d565b5b602002015188600260048110611e1057611e0f61304d565b5b602002015189600160048110611e2957611e2861304d565b5b60200201518a5f60048110611e4157611e4061304d565b5b6020020151611e509190612fe7565b611e5a9190612fe7565b611e649190612fe7565b90505f8111611e73575f611e80565b8082611e7f91906130a7565b5b965050505050505092915050565b5f805f805f611e9c8661214b565b93509350935093505f601960018560ff16611eb7919061301a565b611ec19190612fa6565b90505f601960018560ff16611ed6919061301a565b611ee09190612fa6565b90505f601960018560ff16611ef5919061301a565b611eff9190612fa6565b90505f601482611f0f9190612fa6565b601484611f1c9190612fa6565b601486611f299190612fa6565b60288b60ff16611f399190612fa6565b611f439190612fe7565b611f4d9190612fe7565b611f579190612fe7565b9050606481611f6691906130a7565b98505050505050505050919050565b5f805f805f80611f84886121c2565b945094509450945094505f87600460058110611fa357611fa261304d565b5b60200201518260ff16611fb69190612fa6565b88600360058110611fca57611fc961304d565b5b60200201518460ff16611fdd9190612fa6565b89600260058110611ff157611ff061304d565b5b60200201518660ff166120049190612fa6565b8a6001600581106120185761201761304d565b5b60200201518860ff1661202b9190612fa6565b8b5f6005811061203e5761203d61304d565b5b60200201518a60ff166120519190612fa6565b61205b9190612fe7565b6120659190612fe7565b61206f9190612fe7565b6120799190612fe7565b90505f886004600581106120905761208f61304d565b5b6020020151896003600581106120a9576120a861304d565b5b60200201518a6002600581106120c2576120c161304d565b5b60200201518b6001600581106120db576120da61304d565b5b60200201518c5f600581106120f3576120f261304d565b5b60200201516121029190612fe7565b61210c9190612fe7565b6121169190612fe7565b6121209190612fe7565b90505f811161212f575f61213c565b808261213b91906130a7565b5b97505050505050505092915050565b5f805f805f859050600160086001901b612165919061301a565b5f82901c169450600160036001901b61217e919061301a565b600882901c169350600160036001901b612198919061301a565b600b82901c169250600160036001901b6121b2919061301a565b600e82901c169150509193509193565b5f805f805f80869050600160086001901b6121dd919061301a565b5f82901c169550600160086001901b6121f6919061301a565b600882901c169450600160086001901b612210919061301a565b601082901c169350600160086001901b61222a919061301a565b601882901c169250600160086001901b612244919061301a565b602082901c1691505091939590929450565b5f604051905090565b5f80fd5b5f819050919050565b61227581612263565b811461227f575f80fd5b50565b5f813590506122908161226c565b92915050565b5f602082840312156122ab576122aa61225f565b5b5f6122b884828501612282565b91505092915050565b5f81519050919050565b5f82825260208201905092915050565b5f5b838110156122f85780820151818401526020810190506122dd565b5f8484015250505050565b5f601f19601f8301169050919050565b5f61231d826122c1565b61232781856122cb565b93506123378185602086016122db565b61234081612303565b840191505092915050565b5f6020820190508181035f8301526123638184612313565b905092915050565b5f73ffffffffffffffffffffffffffffffffffffffff82169050919050565b5f6123948261236b565b9050919050565b6123a48161238a565b81146123ae575f80fd5b50565b5f813590506123bf8161239b565b92915050565b5f80604083850312156123db576123da61225f565b5b5f6123e8858286016123b1565b92505060206123f985828601612282565b9150509250929050565b61240c81612263565b82525050565b5f6020820190506124255f830184612403565b92915050565b5f7fffffffff0000000000000000000000000000000000000000000000000000000082169050919050565b61245f8161242b565b8114612469575f80fd5b50565b5f8135905061247a81612456565b92915050565b5f602082840312156124955761249461225f565b5b5f6124a28482850161246c565b91505092915050565b5f8115159050919050565b6124bf816124ab565b82525050565b5f6020820190506124d85f8301846124b6565b92915050565b5f805f606084860312156124f5576124f461225f565b5b5f612502868287016123b1565b935050602061251386828701612282565b925050604061252486828701612282565b9150509250925092565b5f60ff82169050919050565b6125438161252e565b82525050565b5f60208201905061255c5f83018461253a565b92915050565b61256b816124ab565b8114612575575f80fd5b50565b5f8135905061258681612562565b92915050565b5f80604083850312156125a2576125a161225f565b5b5f6125af858286016123b1565b92505060206125c085828601612578565b9150509250929050565b5f805f606084860312156125e1576125e061225f565b5b5f6125ee868287016123b1565b93505060206125ff868287016123b1565b925050604061261086828701612282565b9150509250925092565b5f819050919050565b61262c8161261a565b8114612636575f80fd5b50565b5f8135905061264781612623565b92915050565b5f80fd5b7f4e487b71000000000000000000000000000000000000000000000000000000005f52604160045260245ffd5b61268782612303565b810181811067ffffffffffffffff821117156126a6576126a5612651565b5b80604052505050565b5f6126b8612256565b90506126c4828261267e565b919050565b6126d281612263565b81146126dc575f80fd5b50565b5f813590506126ed816126c9565b92915050565b6126fc81612263565b8114612706575f80fd5b50565b5f81359050612717816126f3565b92915050565b61272681612263565b8114612730575f80fd5b50565b5f813590506127418161271d565b92915050565b61275081612263565b811461275a575f80fd5b50565b5f8135905061276b81612747565b92915050565b5f608082840312156127865761278561264d565b5b61279060806126af565b90505f61279f848285016126df565b5f8301525060206127b284828501612709565b60208301525060406127c684828501612733565b60408301525060606127da8482850161275d565b60608301525092915050565b5f805f805f8061012087890312156128015761280061225f565b5b5f61280e89828a016123b1565b965050602061281f89828a016123b1565b955050604061283089828a01612639565b945050606061284189828a01612639565b935050608061285289828a01612639565b92505060a061286389828a01612771565b9150509295509295509295565b5f819050919050565b5f61289361288e6128898461236b565b612870565b61236b565b9050919050565b5f6128a482612879565b9050919050565b5f6128b58261289a565b9050919050565b6128c5816128ab565b82525050565b5f6020820190506128de5f8301846128bc565b92915050565b5f80604083850312156128fa576128f961225f565b5b5f612907858286016123b1565b9250506020612918858286016123b1565b9150509250929050565b5f805f806080858703121561293a5761293961225f565b5b5f612947878288016123b1565b9450506020612958878288016123b1565b935050604061296987828801612282565b925050606061297a87828801612282565b91505092959194509250565b7f4e487b71000000000000000000000000000000000000000000000000000000005f52602260045260245ffd5b5f60028204905060018216806129ca57607f821691505b6020821081036129dd576129dc612986565b5b50919050565b5f819050919050565b6129fd6129f88261261a565b6129e3565b82525050565b5f612a0e82866129ec565b602082019150612a1e82856129ec565b602082019150612a2e82846129ec565b602082019150819050949350505050565b612a488161261a565b82525050565b5f612a68612a63612a5e84612263565b612870565b612263565b9050919050565b612a7881612a4e565b82525050565b612a8781612a4e565b82525050565b612a9681612a4e565b82525050565b612aa581612a4e565b82525050565b608082015f820151612abf5f850182612a6f565b506020820151612ad26020850182612a7e565b506040820151612ae56040850182612a8d565b506060820151612af86060850182612a9c565b50505050565b5f60e082019050612b115f830187612403565b612b1e6020830186612a3f565b612b2b6040830185612a3f565b612b386060830184612aab565b95945050505050565b5f612b4b8261238a565b9050919050565b612b5b81612b41565b8114612b65575f80fd5b50565b5f81519050612b7681612b52565b92915050565b5f60208284031215612b9157612b9061225f565b5b5f612b9e84828501612b68565b91505092915050565b612bb08161238a565b82525050565b5f81519050919050565b5f82825260208201905092915050565b5f612bda82612bb6565b612be48185612bc0565b9350612bf48185602086016122db565b612bfd81612303565b840191505092915050565b5f60a082019050612c1b5f830188612ba7565b612c286020830187612ba7565b612c356040830186612ba7565b612c426060830185612ba7565b8181036080830152612c548184612bd0565b90509695505050505050565b5f81519050612c6e8161239b565b92915050565b5f60208284031215612c8957612c8861225f565b5b5f612c9684828501612c60565b91505092915050565b5f602082019050612cb25f830184612ba7565b92915050565b7f4e487b71000000000000000000000000000000000000000000000000000000005f52601160045260245ffd5b5f612cef8261252e565b9150612cfa8361252e565b9250828202612d088161252e565b9150808214612d1a57612d19612cb8565b5b5092915050565b5f819050815f5260205f209050919050565b5f6020601f8301049050919050565b5f82821b905092915050565b5f60088302612d7d7fffffffffffffffffffffffffffffffffffffffffffffffffffffffffffffffff82612d42565b612d878683612d42565b95508019841693508086168417925050509392505050565b5f819050919050565b612db183612a4e565b612dc5612dbd82612d9f565b848454612d4e565b825550505050565b5f90565b612dd9612dcd565b612de4818484612da8565b505050565b5b81811015612e0757612dfc5f82612dd1565b600181019050612dea565b5050565b601f821115612e4c57612e1d81612d21565b612e2684612d33565b81016020851015612e35578190505b612e49612e4185612d33565b830182612de9565b50505b505050565b5f82821c905092915050565b5f612e6c5f1984600802612e51565b1980831691505092915050565b5f612e848383612e5d565b9150826002028217905092915050565b612e9d826122c1565b67ffffffffffffffff811115612eb657612eb5612651565b5b612ec082546129b3565b612ecb828285612e0b565b5f60209050601f831160018114612efc575f8415612eea578287015190505b612ef48582612e79565b865550612f5b565b601f198416612f0a86612d21565b5f5b82811015612f3157848901518255600182019150602085019450602081019050612f0c565b86831015612f4e5784890151612f4a601f891682612e5d565b8355505b6001600288020188555050505b505050505050565b5f608082019050612f765f830187612ba7565b612f836020830186612403565b612f906040830185612403565b612f9d6060830184612403565b95945050505050565b5f612fb082612263565b9150612fbb83612263565b9250828202612fc981612263565b91508282048414831517612fe057612fdf612cb8565b5b5092915050565b5f612ff182612263565b9150612ffc83612263565b925082820190508082111561301457613013612cb8565b5b92915050565b5f61302482612263565b915061302f83612263565b925082820390508181111561304757613046612cb8565b5b92915050565b7f4e487b71000000000000000000000000000000000000000000000000000000005f52603260045260245ffd5b7f4e487b71000000000000000000000000000000000000000000000000000000005f52601260045260245ffd5b5f6130b182612263565b91506130bc83612263565b9250826130cc576130cb61307a565b5b828204905092915050565b5f6040820190506130ea5f830185612ba7565b6130f76020830184612403565b939250505056fea164736f6c6343000814000a","linkReferences":{}},"methodIdentifiers":{"allowance(address,address,uint256)":"598af9e7","approve(address,uint256,uint256)":"426a8493","balanceOf(address,uint256)":"00fdd58e","cdsFactory()":"979ebba8","contractURI()":"e8a3d485","decimals(uint256)":"3f47e662","isOperator(address,address)":"b6363cf2","issueCDSToken(address,address,bytes32,bytes32,bytes32,(uint256,uint256,uint256,uint256))":"83355101","name(uint256)":"00ad800c","setOperator(address,bool)":"558a7297","supportsInterface(bytes4)":"01ffc9a7","symbol(uint256)":"4e41a1fb","tokenURI(uint256)":"c87b56dd","totalSupply(uint256)":"bd85b039","transfer(address,uint256,uint256)":"095bcdb6","transferFrom(address,address,uint256,uint256)":"fe99049a"},"id":109}