{"abi":[{"type":"function","name":"AFGHANISTAN","inputs":[],"outputs":[{"name":"","type":"string","internalType":"string"}],"stateMutability":"view"},{"type":"function","name":"ALBANIA","inputs":[],"outputs":[{"name":"","type":"string","internalType":"string"}],"stateMutability":"view"},{"type":"function","name":"ALGERIA","inputs":[],"outputs":[{"name":"","type":"string","internalType":"string"}],"stateMutability":"view"},{"type":"function","name":"ANDORRA","inputs":[],"outputs":[{"name":"","type":"string","internalType":"string"}],"stateMutability":"view"},{"type":"function","name":"ANGOLA","inputs":[],"outputs":[{"name":"","type":"string","internalType":"string"}],"stateMutability":"view"},{"type":"function","name":"ANTIGUA_AND_BARBUDA","inputs":[],"outputs":[{"name":"","type":"string","internalType":"string"}],"stateMutability":"view"},{"type":"function","name":"ARGENTINA","inputs":[],"outputs":[{"name":"","type":"string","internalType":"string"}],"stateMutability":"view"},{"type":"function","name":"ARMENIA","inputs":[],"outputs":[{"name":"","type":"string","internalType":"string"}],"stateMutability":"view"},{"type":"function","name":"AUSTRALIA","inputs":[],"outputs":[{"name":"","type":"string","internalType":"string"}],"stateMutability":"view"},{"type":"function","name":"AUSTRIA","inputs":[],"outputs":[{"name":"","type":"string","internalType":"string"}],"stateMutability":"view"},{"type":"function","name":"AZERBAIJAN","inputs":[],"outputs":[{"name":"","type":"string","internalType":"string"}],"stateMutability":"view"},{"type":"function","name":"BAHAMAS","inputs":[],"outputs":[{"name":"","type":"string","internalType":"string"}],"stateMutability":"view"},{"type":"function","name":"BAHRAIN","inputs":[],"outputs":[{"name":"","type":"string","internalType":"string"}],"stateMutability":"view"},{"type":"function","name":"BANGLADESH","inputs":[],"outputs":[{"name":"","type":"string","internalType":"string"}],"stateMutability":"view"},{"type":"function","name":"BARBADOS","inputs":[],"outputs":[{"name":"","type":"string","internalType":"string"}],"stateMutability":"view"},{"type":"function","name":"BELARUS","inputs":[],"outputs":[{"name":"","type":"string","internalType":"string"}],"stateMutability":"view"},{"type":"function","name":"BELGIUM","inputs":[],"outputs":[{"name":"","type":"string","internalType":"string"}],"stateMutability":"view"},{"type":"function","name":"BELIZE","inputs":[],"outputs":[{"name":"","type":"string","internalType":"string"}],"stateMutability":"view"},{"type":"function","name":"BENIN","inputs":[],"outputs":[{"name":"","type":"string","internalType":"string"}],"stateMutability":"view"},{"type":"function","name":"BHUTAN","inputs":[],"outputs":[{"name":"","type":"string","internalType":"string"}],"stateMutability":"view"},{"type":"function","name":"BOLIVIA","inputs":[],"outputs":[{"name":"","type":"string","internalType":"string"}],"stateMutability":"view"},{"type":"function","name":"BOSNIA_AND_HERZEGOVINA","inputs":[],"outputs":[{"name":"","type":"string","internalType":"string"}],"stateMutability":"view"},{"type":"function","name":"BOTSWANA","inputs":[],"outputs":[{"name":"","type":"string","internalType":"string"}],"stateMutability":"view"},{"type":"function","name":"BRAZIL","inputs":[],"outputs":[{"name":"","type":"string","internalType":"string"}],"stateMutability":"view"},{"type":"function","name":"BRUNEI","inputs":[],"outputs":[{"name":"","type":"string","internalType":"string"}],"stateMutability":"view"},{"type":"function","name":"BULGARIA","inputs":[],"outputs":[{"name":"","type":"string","internalType":"string"}],"stateMutability":"view"},{"type":"function","name":"BURKINA_FASO","inputs":[],"outputs":[{"name":"","type":"string","internalType":"string"}],"stateMutability":"view"},{"type":"function","name":"BURUNDI","inputs":[],"outputs":[{"name":"","type":"string","internalType":"string"}],"stateMutability":"view"},{"type":"function","name":"CAMBODIA","inputs":[],"outputs":[{"name":"","type":"string","internalType":"string"}],"stateMutability":"view"},{"type":"function","name":"CAMEROON","inputs":[],"outputs":[{"name":"","type":"string","internalType":"string"}],"stateMutability":"view"},{"type":"function","name":"CANADA","inputs":[],"outputs":[{"name":"","type":"string","internalType":"string"}],"stateMutability":"view"},{"type":"function","name":"CAPE_VERDE","inputs":[],"outputs":[{"name":"","type":"string","internalType":"string"}],"stateMutability":"view"},{"type":"function","name":"CENTRAL_AFRICAN_REPUBLIC","inputs":[],"outputs":[{"name":"","type":"string","internalType":"string"}],"stateMutability":"view"},{"type":"function","name":"CHAD","inputs":[],"outputs":[{"name":"","type":"string","internalType":"string"}],"stateMutability":"view"},{"type":"function","name":"CHILE","inputs":[],"outputs":[{"name":"","type":"string","internalType":"string"}],"stateMutability":"view"},{"type":"function","name":"CHINA","inputs":[],"outputs":[{"name":"","type":"string","internalType":"string"}],"stateMutability":"view"},{"type":"function","name":"COLOMBIA","inputs":[],"outputs":[{"name":"","type":"string","internalType":"string"}],"stateMutability":"view"},{"type":"function","name":"COMOROS","inputs":[],"outputs":[{"name":"","type":"string","internalType":"string"}],"stateMutability":"view"},{"type":"function","name":"CONGO","inputs":[],"outputs":[{"name":"","type":"string","internalType":"string"}],"stateMutability":"view"},{"type":"function","name":"CONGO_DR","inputs":[],"outputs":[{"name":"","type":"string","internalType":"string"}],"stateMutability":"view"},{"type":"function","name":"COSTA_RICA","inputs":[],"outputs":[{"name":"","type":"string","internalType":"string"}],"stateMutability":"view"},{"type":"function","name":"CROATIA","inputs":[],"outputs":[{"name":"","type":"string","internalType":"string"}],"stateMutability":"view"},{"type":"function","name":"CUBA","inputs":[],"outputs":[{"name":"","type":"string","internalType":"string"}],"stateMutability":"view"},{"type":"function","name":"CYPRUS","inputs":[],"outputs":[{"name":"","type":"string","internalType":"string"}],"stateMutability":"view"},{"type":"function","name":"CZECH_REPUBLIC","inputs":[],"outputs":[{"name":"","type":"string","internalType":"string"}],"stateMutability":"view"},{"type":"function","name":"DENMARK","inputs":[],"outputs":[{"name":"","type":"string","internalType":"string"}],"stateMutability":"view"},{"type":"function","name":"DJIBOUTI","inputs":[],"outputs":[{"name":"","type":"string","internalType":"string"}],"stateMutability":"view"},{"type":"function","name":"DOMINICA","inputs":[],"outputs":[{"name":"","type":"string","internalType":"string"}],"stateMutability":"view"},{"type":"function","name":"DOMINICAN_REPUBLIC","inputs":[],"outputs":[{"name":"","type":"string","internalType":"string"}],"stateMutability":"view"},{"type":"function","name":"ECUADOR","inputs":[],"outputs":[{"name":"","type":"string","internalType":"string"}],"stateMutability":"view"},{"type":"function","name":"EGYPT","inputs":[],"outputs":[{"name":"","type":"string","internalType":"string"}],"stateMutability":"view"},{"type":"function","name":"EL_SALVADOR","inputs":[],"outputs":[{"name":"","type":"string","internalType":"string"}],"stateMutability":"view"},{"type":"function","name":"EQUATORIAL_GUINEA","inputs":[],"outputs":[{"name":"","type":"string","internalType":"string"}],"stateMutability":"view"},{"type":"function","name":"ERITREA","inputs":[],"outputs":[{"name":"","type":"string","internalType":"string"}],"stateMutability":"view"},{"type":"function","name":"ESTONIA","inputs":[],"outputs":[{"name":"","type":"string","internalType":"string"}],"stateMutability":"view"},{"type":"function","name":"ESWATINI","inputs":[],"outputs":[{"name":"","type":"string","internalType":"string"}],"stateMutability":"view"},{"type":"function","name":"ETHIOPIA","inputs":[],"outputs":[{"name":"","type":"string","internalType":"string"}],"stateMutability":"view"},{"type":"function","name":"FIJI","inputs":[],"outputs":[{"name":"","type":"string","internalType":"string"}],"stateMutability":"view"},{"type":"function","name":"FINLAND","inputs":[],"outputs":[{"name":"","type":"string","internalType":"string"}],"stateMutability":"view"},{"type":"function","name":"FRANCE","inputs":[],"outputs":[{"name":"","type":"string","internalType":"string"}],"stateMutability":"view"},{"type":"function","name":"GABON","inputs":[],"outputs":[{"name":"","type":"string","internalType":"string"}],"stateMutability":"view"},{"type":"function","name":"GAMBIA","inputs":[],"outputs":[{"name":"","type":"string","internalType":"string"}],"stateMutability":"view"},{"type":"function","name":"GEORGIA","inputs":[],"outputs":[{"name":"","type":"string","internalType":"string"}],"stateMutability":"view"},{"type":"function","name":"GERMANY","inputs":[],"outputs":[{"name":"","type":"string","internalType":"string"}],"stateMutability":"view"},{"type":"function","name":"GHANA","inputs":[],"outputs":[{"name":"","type":"string","internalType":"string"}],"stateMutability":"view"},{"type":"function","name":"GREECE","inputs":[],"outputs":[{"name":"","type":"string","internalType":"string"}],"stateMutability":"view"},{"type":"function","name":"GRENADA","inputs":[],"outputs":[{"name":"","type":"string","internalType":"string"}],"stateMutability":"view"},{"type":"function","name":"GUATEMALA","inputs":[],"outputs":[{"name":"","type":"string","internalType":"string"}],"stateMutability":"view"},{"type":"function","name":"GUINEA","inputs":[],"outputs":[{"name":"","type":"string","internalType":"string"}],"stateMutability":"view"},{"type":"function","name":"GUINEA_BISSAU","inputs":[],"outputs":[{"name":"","type":"string","internalType":"string"}],"stateMutability":"view"},{"type":"function","name":"GUYANA","inputs":[],"outputs":[{"name":"","type":"string","internalType":"string"}],"stateMutability":"view"},{"type":"function","name":"HAITI","inputs":[],"outputs":[{"name":"","type":"string","internalType":"string"}],"stateMutability":"view"},{"type":"function","name":"HONDURAS","inputs":[],"outputs":[{"name":"","type":"string","internalType":"string"}],"stateMutability":"view"},{"type":"function","name":"HUNGARY","inputs":[],"outputs":[{"name":"","type":"string","internalType":"string"}],"stateMutability":"view"},{"type":"function","name":"ICELAND","inputs":[],"outputs":[{"name":"","type":"string","internalType":"string"}],"stateMutability":"view"},{"type":"function","name":"INDIA","inputs":[],"outputs":[{"name":"","type":"string","internalType":"string"}],"stateMutability":"view"},{"type":"function","name":"INDONESIA","inputs":[],"outputs":[{"name":"","type":"string","internalType":"string"}],"stateMutability":"view"},{"type":"function","name":"IRAN","inputs":[],"outputs":[{"name":"","type":"string","internalType":"string"}],"stateMutability":"view"},{"type":"function","name":"IRAQ","inputs":[],"outputs":[{"name":"","type":"string","internalType":"string"}],"stateMutability":"view"},{"type":"function","name":"IRELAND","inputs":[],"outputs":[{"name":"","type":"string","internalType":"string"}],"stateMutability":"view"},{"type":"function","name":"ISRAEL","inputs":[],"outputs":[{"name":"","type":"string","internalType":"string"}],"stateMutability":"view"},{"type":"function","name":"ITALY","inputs":[],"outputs":[{"name":"","type":"string","internalType":"string"}],"stateMutability":"view"},{"type":"function","name":"IVORY_COAST","inputs":[],"outputs":[{"name":"","type":"string","internalType":"string"}],"stateMutability":"view"},{"type":"function","name":"JAMAICA","inputs":[],"outputs":[{"name":"","type":"string","internalType":"string"}],"stateMutability":"view"},{"type":"function","name":"JAPAN","inputs":[],"outputs":[{"name":"","type":"string","internalType":"string"}],"stateMutability":"view"},{"type":"function","name":"JORDAN","inputs":[],"outputs":[{"name":"","type":"string","internalType":"string"}],"stateMutability":"view"},{"type":"function","name":"KAZAKHSTAN","inputs":[],"outputs":[{"name":"","type":"string","internalType":"string"}],"stateMutability":"view"},{"type":"function","name":"KENYA","inputs":[],"outputs":[{"name":"","type":"string","internalType":"string"}],"stateMutability":"view"},{"type":"function","name":"KIRIBATI","inputs":[],"outputs":[{"name":"","type":"string","internalType":"string"}],"stateMutability":"view"},{"type":"function","name":"KUWAIT","inputs":[],"outputs":[{"name":"","type":"string","internalType":"string"}],"stateMutability":"view"},{"type":"function","name":"KYRGYZSTAN","inputs":[],"outputs":[{"name":"","type":"string","internalType":"string"}],"stateMutability":"view"},{"type":"function","name":"LAOS","inputs":[],"outputs":[{"name":"","type":"string","internalType":"string"}],"stateMutability":"view"},{"type":"function","name":"LATVIA","inputs":[],"outputs":[{"name":"","type":"string","internalType":"string"}],"stateMutability":"view"},{"type":"function","name":"LEBANON","inputs":[],"outputs":[{"name":"","type":"string","internalType":"string"}],"stateMutability":"view"},{"type":"function","name":"LESOTHO","inputs":[],"outputs":[{"name":"","type":"string","internalType":"string"}],"stateMutability":"view"},{"type":"function","name":"LIBERIA","inputs":[],"outputs":[{"name":"","type":"string","internalType":"string"}],"stateMutability":"view"},{"type":"function","name":"LIBYA","inputs":[],"outputs":[{"name":"","type":"string","internalType":"string"}],"stateMutability":"view"},{"type":"function","name":"LIECHTENSTEIN","inputs":[],"outputs":[{"name":"","type":"string","internalType":"string"}],"stateMutability":"view"},{"type":"function","name":"LITHUANIA","inputs":[],"outputs":[{"name":"","type":"string","internalType":"string"}],"stateMutability":"view"},{"type":"function","name":"LUXEMBOURG","inputs":[],"outputs":[{"name":"","type":"string","internalType":"string"}],"stateMutability":"view"},{"type":"function","name":"MADAGASCAR","inputs":[],"outputs":[{"name":"","type":"string","internalType":"string"}],"stateMutability":"view"},{"type":"function","name":"MALAWI","inputs":[],"outputs":[{"name":"","type":"string","internalType":"string"}],"stateMutability":"view"},{"type":"function","name":"MALAYSIA","inputs":[],"outputs":[{"name":"","type":"string","internalType":"string"}],"stateMutability":"view"},{"type":"function","name":"MALDIVES","inputs":[],"outputs":[{"name":"","type":"string","internalType":"string"}],"stateMutability":"view"},{"type":"function","name":"MALI","inputs":[],"outputs":[{"name":"","type":"string","internalType":"string"}],"stateMutability":"view"},{"type":"function","name":"MALTA","inputs":[],"outputs":[{"name":"","type":"string","internalType":"string"}],"stateMutability":"view"},{"type":"function","name":"MARSHALL_ISLANDS","inputs":[],"outputs":[{"name":"","type":"string","internalType":"string"}],"stateMutability":"view"},{"type":"function","name":"MAURITANIA","inputs":[],"outputs":[{"name":"","type":"string","internalType":"string"}],"stateMutability":"view"},{"type":"function","name":"MAURITIUS","inputs":[],"outputs":[{"name":"","type":"string","internalType":"string"}],"stateMutability":"view"},{"type":"function","name":"MEXICO","inputs":[],"outputs":[{"name":"","type":"string","internalType":"string"}],"stateMutability":"view"},{"type":"function","name":"MICRONESIA","inputs":[],"outputs":[{"name":"","type":"string","internalType":"string"}],"stateMutability":"view"},{"type":"function","name":"MOLDOVA","inputs":[],"outputs":[{"name":"","type":"string","internalType":"string"}],"stateMutability":"view"},{"type":"function","name":"MONACO","inputs":[],"outputs":[{"name":"","type":"string","internalType":"string"}],"stateMutability":"view"},{"type":"function","name":"MONGOLIA","inputs":[],"outputs":[{"name":"","type":"string","internalType":"string"}],"stateMutability":"view"},{"type":"function","name":"MONTENEGRO","inputs":[],"outputs":[{"name":"","type":"string","internalType":"string"}],"stateMutability":"view"},{"type":"function","name":"MOROCCO","inputs":[],"outputs":[{"name":"","type":"string","internalType":"string"}],"stateMutability":"view"},{"type":"function","name":"MOZAMBIQUE","inputs":[],"outputs":[{"name":"","type":"string","internalType":"string"}],"stateMutability":"view"},{"type":"function","name":"MYANMAR","inputs":[],"outputs":[{"name":"","type":"string","internalType":"string"}],"stateMutability":"view"},{"type":"function","name":"NAMIBIA","inputs":[],"outputs":[{"name":"","type":"string","internalType":"string"}],"stateMutability":"view"},{"type":"function","name":"NAURU","inputs":[],"outputs":[{"name":"","type":"string","internalType":"string"}],"stateMutability":"view"},{"type":"function","name":"NEPAL","inputs":[],"outputs":[{"name":"","type":"string","internalType":"string"}],"stateMutability":"view"},{"type":"function","name":"NETHERLANDS","inputs":[],"outputs":[{"name":"","type":"string","internalType":"string"}],"stateMutability":"view"},{"type":"function","name":"NEW_ZEALAND","inputs":[],"outputs":[{"name":"","type":"string","internalType":"string"}],"stateMutability":"view"},{"type":"function","name":"NICARAGUA","inputs":[],"outputs":[{"name":"","type":"string","internalType":"string"}],"stateMutability":"view"},{"type":"function","name":"NIGER","inputs":[],"outputs":[{"name":"","type":"string","internalType":"string"}],"stateMutability":"view"},{"type":"function","name":"NIGERIA","inputs":[],"outputs":[{"name":"","type":"string","internalType":"string"}],"stateMutability":"view"},{"type":"function","name":"NORTH_KOREA","inputs":[],"outputs":[{"name":"","type":"string","internalType":"string"}],"stateMutability":"view"},{"type":"function","name":"NORTH_MACEDONIA","inputs":[],"outputs":[{"name":"","type":"string","internalType":"string"}],"stateMutability":"view"},{"type":"function","name":"NORWAY","inputs":[],"outputs":[{"name":"","type":"string","internalType":"string"}],"stateMutability":"view"},{"type":"function","name":"OMAN","inputs":[],"outputs":[{"name":"","type":"string","internalType":"string"}],"stateMutability":"view"},{"type":"function","name":"PAKISTAN","inputs":[],"outputs":[{"name":"","type":"string","internalType":"string"}],"stateMutability":"view"},{"type":"function","name":"PALAU","inputs":[],"outputs":[{"name":"","type":"string","internalType":"string"}],"stateMutability":"view"},{"type":"function","name":"PANAMA","inputs":[],"outputs":[{"name":"","type":"string","internalType":"string"}],"stateMutability":"view"},{"type":"function","name":"PAPUA_NEW_GUINEA","inputs":[],"outputs":[{"name":"","type":"string","internalType":"string"}],"stateMutability":"view"},{"type":"function","name":"PARAGUAY","inputs":[],"outputs":[{"name":"","type":"string","internalType":"string"}],"stateMutability":"view"},{"type":"function","name":"PERU","inputs":[],"outputs":[{"name":"","type":"string","internalType":"string"}],"stateMutability":"view"},{"type":"function","name":"PHILIPPINES","inputs":[],"outputs":[{"name":"","type":"string","internalType":"string"}],"stateMutability":"view"},{"type":"function","name":"POLAND","inputs":[],"outputs":[{"name":"","type":"string","internalType":"string"}],"stateMutability":"view"},{"type":"function","name":"PORTUGAL","inputs":[],"outputs":[{"name":"","type":"string","internalType":"string"}],"stateMutability":"view"},{"type":"function","name":"QATAR","inputs":[],"outputs":[{"name":"","type":"string","internalType":"string"}],"stateMutability":"view"},{"type":"function","name":"ROMANIA","inputs":[],"outputs":[{"name":"","type":"string","internalType":"string"}],"stateMutability":"view"},{"type":"function","name":"RUSSIA","inputs":[],"outputs":[{"name":"","type":"string","internalType":"string"}],"stateMutability":"view"},{"type":"function","name":"RWANDA","inputs":[],"outputs":[{"name":"","type":"string","internalType":"string"}],"stateMutability":"view"},{"type":"function","name":"SAINT_KITTS_AND_NEVIS","inputs":[],"outputs":[{"name":"","type":"string","internalType":"string"}],"stateMutability":"view"},{"type":"function","name":"SAINT_LUCIA","inputs":[],"outputs":[{"name":"","type":"string","internalType":"string"}],"stateMutability":"view"},{"type":"function","name":"SAINT_VINCENT_AND_THE_GRENADINES","inputs":[],"outputs":[{"name":"","type":"string","internalType":"string"}],"stateMutability":"view"},{"type":"function","name":"SAMOA","inputs":[],"outputs":[{"name":"","type":"string","internalType":"string"}],"stateMutability":"view"},{"type":"function","name":"SAN_MARINO","inputs":[],"outputs":[{"name":"","type":"string","internalType":"string"}],"stateMutability":"view"},{"type":"function","name":"SAO_TOME_AND_PRINCIPE","inputs":[],"outputs":[{"name":"","type":"string","internalType":"string"}],"stateMutability":"view"},{"type":"function","name":"SAUDI_ARABIA","inputs":[],"outputs":[{"name":"","type":"string","internalType":"string"}],"stateMutability":"view"},{"type":"function","name":"SENEGAL","inputs":[],"outputs":[{"name":"","type":"string","internalType":"string"}],"stateMutability":"view"},{"type":"function","name":"SERBIA","inputs":[],"outputs":[{"name":"","type":"string","internalType":"string"}],"stateMutability":"view"},{"type":"function","name":"SEYCHELLES","inputs":[],"outputs":[{"name":"","type":"string","internalType":"string"}],"stateMutability":"view"},{"type":"function","name":"SIERRA_LEONE","inputs":[],"outputs":[{"name":"","type":"string","internalType":"string"}],"stateMutability":"view"},{"type":"function","name":"SINGAPORE","inputs":[],"outputs":[{"name":"","type":"string","internalType":"string"}],"stateMutability":"view"},{"type":"function","name":"SLOVAKIA","inputs":[],"outputs":[{"name":"","type":"string","internalType":"string"}],"stateMutability":"view"},{"type":"function","name":"SLOVENIA","inputs":[],"outputs":[{"name":"","type":"string","internalType":"string"}],"stateMutability":"view"},{"type":"function","name":"SOLOMON_ISLANDS","inputs":[],"outputs":[{"name":"","type":"string","internalType":"string"}],"stateMutability":"view"},{"type":"function","name":"SOMALIA","inputs":[],"outputs":[{"name":"","type":"string","internalType":"string"}],"stateMutability":"view"},{"type":"function","name":"SOUTH_AFRICA","inputs":[],"outputs":[{"name":"","type":"string","internalType":"string"}],"stateMutability":"view"},{"type":"function","name":"SOUTH_KOREA","inputs":[],"outputs":[{"name":"","type":"string","internalType":"string"}],"stateMutability":"view"},{"type":"function","name":"SOUTH_SUDAN","inputs":[],"outputs":[{"name":"","type":"string","internalType":"string"}],"stateMutability":"view"},{"type":"function","name":"SPAIN","inputs":[],"outputs":[{"name":"","type":"string","internalType":"string"}],"stateMutability":"view"},{"type":"function","name":"SRI_LANKA","inputs":[],"outputs":[{"name":"","type":"string","internalType":"string"}],"stateMutability":"view"},{"type":"function","name":"SUDAN","inputs":[],"outputs":[{"name":"","type":"string","internalType":"string"}],"stateMutability":"view"},{"type":"function","name":"SURINAME","inputs":[],"outputs":[{"name":"","type":"string","internalType":"string"}],"stateMutability":"view"},{"type":"function","name":"SWEDEN","inputs":[],"outputs":[{"name":"","type":"string","internalType":"string"}],"stateMutability":"view"},{"type":"function","name":"SWITZERLAND","inputs":[],"outputs":[{"name":"","type":"string","internalType":"string"}],"stateMutability":"view"},{"type":"function","name":"SYRIA","inputs":[],"outputs":[{"name":"","type":"string","internalType":"string"}],"stateMutability":"view"},{"type":"function","name":"TAIWAN","inputs":[],"outputs":[{"name":"","type":"string","internalType":"string"}],"stateMutability":"view"},{"type":"function","name":"TAJIKISTAN","inputs":[],"outputs":[{"name":"","type":"string","internalType":"string"}],"stateMutability":"view"},{"type":"function","name":"TANZANIA","inputs":[],"outputs":[{"name":"","type":"string","internalType":"string"}],"stateMutability":"view"},{"type":"function","name":"THAILAND","inputs":[],"outputs":[{"name":"","type":"string","internalType":"string"}],"stateMutability":"view"},{"type":"function","name":"TIMOR_LESTE","inputs":[],"outputs":[{"name":"","type":"string","internalType":"string"}],"stateMutability":"view"},{"type":"function","name":"TOGO","inputs":[],"outputs":[{"name":"","type":"string","internalType":"string"}],"stateMutability":"view"},{"type":"function","name":"TONGA","inputs":[],"outputs":[{"name":"","type":"string","internalType":"string"}],"stateMutability":"view"},{"type":"function","name":"TRINIDAD_AND_TOBAGO","inputs":[],"outputs":[{"name":"","type":"string","internalType":"string"}],"stateMutability":"view"},{"type":"function","name":"TUNISIA","inputs":[],"outputs":[{"name":"","type":"string","internalType":"string"}],"stateMutability":"view"},{"type":"function","name":"TURKEY","inputs":[],"outputs":[{"name":"","type":"string","internalType":"string"}],"stateMutability":"view"},{"type":"function","name":"TURKMENISTAN","inputs":[],"outputs":[{"name":"","type":"string","internalType":"string"}],"stateMutability":"view"},{"type":"function","name":"TUVALU","inputs":[],"outputs":[{"name":"","type":"string","internalType":"string"}],"stateMutability":"view"},{"type":"function","name":"UGANDA","inputs":[],"outputs":[{"name":"","type":"string","internalType":"string"}],"stateMutability":"view"},{"type":"function","name":"UKRAINE","inputs":[],"outputs":[{"name":"","type":"string","internalType":"string"}],"stateMutability":"view"},{"type":"function","name":"UNITED_ARAB_EMIRATES","inputs":[],"outputs":[{"name":"","type":"string","internalType":"string"}],"stateMutability":"view"},{"type":"function","name":"UNITED_KINGDOM","inputs":[],"outputs":[{"name":"","type":"string","internalType":"string"}],"stateMutability":"view"},{"type":"function","name":"UNITED_STATES","inputs":[],"outputs":[{"name":"","type":"string","internalType":"string"}],"stateMutability":"view"},{"type":"function","name":"URUGUAY","inputs":[],"outputs":[{"name":"","type":"string","internalType":"string"}],"stateMutability":"view"},{"type":"function","name":"UZBEKISTAN","inputs":[],"outputs":[{"name":"","type":"string","internalType":"string"}],"stateMutability":"view"},{"type":"function","name":"VANUATU","inputs":[],"outputs":[{"name":"","type":"string","internalType":"string"}],"stateMutability":"view"},{"type":"function","name":"VATICAN","inputs":[],"outputs":[{"name":"","type":"string","internalType":"string"}],"stateMutability":"view"},{"type":"function","name":"VENEZUELA","inputs":[],"outputs":[{"name":"","type":"string","internalType":"string"}],"stateMutability":"view"},{"type":"function","name":"VIETNAM","inputs":[],"outputs":[{"name":"","type":"string","internalType":"string"}],"stateMutability":"view"},{"type":"function","name":"YEMEN","inputs":[],"outputs":[{"name":"","type":"string","internalType":"string"}],"stateMutability":"view"},{"type":"function","name":"ZAMBIA","inputs":[],"outputs":[{"name":"","type":"string","internalType":"string"}],"stateMutability":"view"},{"type":"function","name":"ZIMBABWE","inputs":[],"outputs":[{"name":"","type":"string","internalType":"string"}],"stateMutability":"view"}],"bytecode":{"object":"0x614d8f61004d600b8282823980515f1a6073146041577f4e487b71000000000000000000000000000000000000000000000000000000005f525f60045260245ffd5b305f52607381538281f3fe7300000000000000000000000000000000000000003014608060405260043610610aa9575f3560e01c80637a22ee9b1161057e578063c55ca299116102de578063e6901916116101a1578063f1c5f04e11610108578063f8a110f6116100c1578063fb1319fc1161009b578063fb1319fc1461210f578063fd342d551461212d578063fd6159d91461214b578063ff2538561461216957610aa9565b8063f8a110f6146120b5578063fa77b37b146120d3578063fb09898c146120f157610aa9565b8063f1c5f04e14612001578063f1e739d51461201f578063f2a9c5d21461203d578063f652eae01461205b578063f78a1b1814612079578063f85181381461209757610aa9565b8063eaa98de81161015a578063eaa98de814611f4d578063eb24e50014611f6b578063ef97776114611f89578063efd5191c14611fa7578063f076b5b814611fc5578063f1afeeb314611fe357610aa9565b8063e690191614611e99578063e6f1b19f14611eb7578063e8a13bb014611ed5578063e8b90b0714611ef3578063e9368d8f14611f11578063e9ddb48a14611f2f57610aa9565b8063d6e126d911610245578063dd82c4f1116101fe578063dd82c4f114611de5578063ddd25a7c14611e03578063df1ef39814611e21578063df5dd7bf14611e3f578063e2214b5114611e5d578063e32d37c714611e7b57610aa9565b8063d6e126d914611d31578063d81aaa6214611d4f578063d879e91114611d6d578063d8fa426d14611d8b578063d9ef5ac514611da9578063dab05d8514611dc757610aa9565b8063d32060a311610297578063d32060a314611c7d578063d408cb8d14611c9b578063d4c13ec214611cb9578063d59bfd1714611cd7578063d5a1f08014611cf5578063d63e1ae414611d1357610aa9565b8063c55ca29914611bc9578063c81bb40914611be7578063ca89a9eb14611c05578063ce08cd9d14611c23578063cebf311014611c41578063d14dfd4f14611c5f57610aa9565b8063a1255e0511610441578063b451f302116103a8578063bca5700011610361578063bed9240f1161033b578063bed9240f14611b51578063c1055a9714611b6f578063c1a235a614611b8d578063c2b3d1f014611bab57610aa9565b8063bca5700014611af7578063bdf3e10714611b15578063be6f044714611b3357610aa9565b8063b451f30214611a43578063b502f6d314611a61578063b6e5fc4a14611a7f578063b8c2b52014611a9d578063ba2f247814611abb578063bc27915414611ad957610aa9565b8063ac8c052c116103fa578063ac8c052c1461198f578063af95e51f146119ad578063b33dc193146119cb578063b399f116146119e9578063b39a7d7214611a07578063b3ad5bcb14611a2557610aa9565b8063a1255e05146118db578063a1d633b8146118f9578063a571f99314611917578063a906ada214611935578063a9fcb49a14611953578063abbfd5af1461197157610aa9565b8063892c3526116104e557806395d842541161049e57806395d84254146118275780639b70eb6f146118455780639d7c5a00146118635780639eef7f4e14611881578063a017ed9a1461189f578063a0dc9f06146118bd57610aa9565b8063892c3526146117735780638e1f0614146117915780638f49d81f146117af5780638f84622c146117cd57806391f558a2146117eb57806395c958841461180957610aa9565b80637fa725f7116105375780637fa725f7146116bf5780638034ea16146116dd5780638396f529146116fb578063843f010b1461171957806385f7daa214611737578063870643661461175557610aa9565b80637a22ee9b1461160b5780637a7573f6146116295780637b528dbd146116475780637c398709146116655780637cdf0026146116835780637f2d75ff146116a157610aa9565b8063431b0b22116108295780635ff65155116106ec578063679fb578116106535780636dc188161161060c57806373b9bdc6116105e657806373b9bdc614611593578063745531f7146115b157806377171df3146115cf57806378d84f49146115ed57610aa9565b80636dc18816146115395780636f25a3231461155757806371b32a131461157557610aa9565b8063679fb5781461148557806367e965e8146114a35780636883e157146114c15780636a0c9275146114df5780636db09917146114fd5780636dbb55721461151b57610aa9565b806362c515d5116106a557806362c515d5146113d157806363e1bb47146113ef578063645984081461140d57806365d82c921461142b578063660ee0d11461144957806366ebe7851461146757610aa9565b80635ff651551461131d57806360293dbc1461133b57806361a05b9c14611359578063621e3fd91461137757806362874fa51461139557806362a77e92146113b357610aa9565b80635332bb54116107905780635705c756116107495780635705c756146112695780635bc170a4146112875780635c28c5b2146112a55780635e63b955146112c35780635f8d8544146112e15780635fa919ec146112ff57610aa9565b80635332bb54146111b557806353873d5f146111d357806354693bab146111f157806354c6dabf1461120f57806355f7710d1461122d57806356083f161461124b57610aa9565b80634afda197116107e25780634afda197146111015780634cbc37ef1461111f5780634d66b7291461113d5780634ed9f3aa1461115b57806351949b57146111795780635249cf2a1461119757610aa9565b8063431b0b221461104d5780634334a8a51461106b5780634447f5bb14611089578063444d73a0146110a7578063468f2739146110c55780634a106bb6146110e357610aa9565b80632050b72f11610971578063314d63bc116108d8578063389f7f7b11610891578063389f7f7b14610f995780633e8319d614610fb75780633fde8d1714610fd55780633fe86aae14610ff3578063406ce5bc14611011578063424f71711461102f57610aa9565b8063314d63bc14610ee5578063322c32d214610f0357806332804f5914610f21578063333781be14610f3f578063344796c014610f5d57806336a749e014610f7b57610aa9565b80632b96f4371161092a5780632b96f43714610e315780632c795b4314610e4f5780632e3ca6dd14610e6d5780632fc789aa14610e8b5780633070e97b14610ea9578063312dcc0f14610ec757610aa9565b80632050b72f14610d7d57806323bffa3614610d9b5780632624ce2514610db95780632760382414610dd75780632a1d984814610df55780632a47695e14610e1357610aa9565b80630ee6aec911610a15578063174c571b116109ce578063174c571b14610cc95780631aceb85914610ce75780631bf8be8514610d055780631cfd182814610d235780631d673fa114610d415780631e4beb9c14610d5f57610aa9565b80630ee6aec914610c155780630f053c3d14610c3357806312971ef514610c51578063131e110814610c6f5780631338e8a114610c8d578063154c610f14610cab57610aa9565b806309084df611610a6757806309084df614610b6157806309450df714610b7f5780630a08172d14610b9d5780630a999bb314610bbb5780630a9d3da714610bd95780630c03f87b14610bf757610aa9565b8062a6020314610aad57806305c0d6b414610acb5780630652b18b14610ae957806308a4d95014610b0757806308c830fd14610b2557806308edfba014610b43575b5f5ffd5b610ab5612187565b604051610ac29190614d62565b60405180910390f35b610ad36121c0565b604051610ae09190614d62565b60405180910390f35b610af16121f9565b604051610afe9190614d62565b60405180910390f35b610b0f612232565b604051610b1c9190614d62565b60405180910390f35b610b2d61226b565b604051610b3a9190614d62565b60405180910390f35b610b4b6122a4565b604051610b589190614d62565b60405180910390f35b610b696122dd565b604051610b769190614d62565b60405180910390f35b610b87612316565b604051610b949190614d62565b60405180910390f35b610ba561234f565b604051610bb29190614d62565b60405180910390f35b610bc3612388565b604051610bd09190614d62565b60405180910390f35b610be16123c1565b604051610bee9190614d62565b60405180910390f35b610bff6123fa565b604051610c0c9190614d62565b60405180910390f35b610c1d612433565b604051610c2a9190614d62565b60405180910390f35b610c3b61246c565b604051610c489190614d62565b60405180910390f35b610c596124a5565b604051610c669190614d62565b60405180910390f35b610c776124de565b604051610c849190614d62565b60405180910390f35b610c95612517565b604051610ca29190614d62565b60405180910390f35b610cb3612550565b604051610cc09190614d62565b60405180910390f35b610cd1612589565b604051610cde9190614d62565b60405180910390f35b610cef6125c2565b604051610cfc9190614d62565b60405180910390f35b610d0d6125fb565b604051610d1a9190614d62565b60405180910390f35b610d2b612634565b604051610d389190614d62565b60405180910390f35b610d4961266d565b604051610d569190614d62565b60405180910390f35b610d676126a6565b604051610d749190614d62565b60405180910390f35b610d856126df565b604051610d929190614d62565b60405180910390f35b610da3612718565b604051610db09190614d62565b60405180910390f35b610dc1612751565b604051610dce9190614d62565b60405180910390f35b610ddf61278a565b604051610dec9190614d62565b60405180910390f35b610dfd6127c3565b604051610e0a9190614d62565b60405180910390f35b610e1b6127fc565b604051610e289190614d62565b60405180910390f35b610e39612835565b604051610e469190614d62565b60405180910390f35b610e5761286e565b604051610e649190614d62565b60405180910390f35b610e756128a7565b604051610e829190614d62565b60405180910390f35b610e936128e0565b604051610ea09190614d62565b60405180910390f35b610eb1612919565b604051610ebe9190614d62565b60405180910390f35b610ecf612952565b604051610edc9190614d62565b60405180910390f35b610eed61298b565b604051610efa9190614d62565b60405180910390f35b610f0b6129c4565b604051610f189190614d62565b60405180910390f35b610f296129fd565b604051610f369190614d62565b60405180910390f35b610f47612a36565b604051610f549190614d62565b60405180910390f35b610f65612a6f565b604051610f729190614d62565b60405180910390f35b610f83612aa8565b604051610f909190614d62565b60405180910390f35b610fa1612ae1565b604051610fae9190614d62565b60405180910390f35b610fbf612b1a565b604051610fcc9190614d62565b60405180910390f35b610fdd612b53565b604051610fea9190614d62565b60405180910390f35b610ffb612b8c565b6040516110089190614d62565b60405180910390f35b611019612bc5565b6040516110269190614d62565b60405180910390f35b611037612bfe565b6040516110449190614d62565b60405180910390f35b611055612c37565b6040516110629190614d62565b60405180910390f35b611073612c70565b6040516110809190614d62565b60405180910390f35b611091612ca9565b60405161109e9190614d62565b60405180910390f35b6110af612ce2565b6040516110bc9190614d62565b60405180910390f35b6110cd612d1b565b6040516110da9190614d62565b60405180910390f35b6110eb612d54565b6040516110f89190614d62565b60405180910390f35b611109612d8d565b6040516111169190614d62565b60405180910390f35b611127612dc6565b6040516111349190614d62565b60405180910390f35b611145612dff565b6040516111529190614d62565b60405180910390f35b611163612e38565b6040516111709190614d62565b60405180910390f35b611181612e71565b60405161118e9190614d62565b60405180910390f35b61119f612eaa565b6040516111ac9190614d62565b60405180910390f35b6111bd612ee3565b6040516111ca9190614d62565b60405180910390f35b6111db612f1c565b6040516111e89190614d62565b60405180910390f35b6111f9612f55565b6040516112069190614d62565b60405180910390f35b611217612f8e565b6040516112249190614d62565b60405180910390f35b611235612fc7565b6040516112429190614d62565b60405180910390f35b611253613000565b6040516112609190614d62565b60405180910390f35b611271613039565b60405161127e9190614d62565b60405180910390f35b61128f613072565b60405161129c9190614d62565b60405180910390f35b6112ad6130ab565b6040516112ba9190614d62565b60405180910390f35b6112cb6130e4565b6040516112d89190614d62565b60405180910390f35b6112e961311d565b6040516112f69190614d62565b60405180910390f35b611307613156565b6040516113149190614d62565b60405180910390f35b61132561318f565b6040516113329190614d62565b60405180910390f35b6113436131c8565b6040516113509190614d62565b60405180910390f35b611361613201565b60405161136e9190614d62565b60405180910390f35b61137f61323a565b60405161138c9190614d62565b60405180910390f35b61139d613273565b6040516113aa9190614d62565b60405180910390f35b6113bb6132ac565b6040516113c89190614d62565b60405180910390f35b6113d96132e5565b6040516113e69190614d62565b60405180910390f35b6113f761331e565b6040516114049190614d62565b60405180910390f35b611415613357565b6040516114229190614d62565b60405180910390f35b611433613390565b6040516114409190614d62565b60405180910390f35b6114516133c9565b60405161145e9190614d62565b60405180910390f35b61146f613402565b60405161147c9190614d62565b60405180910390f35b61148d61343b565b60405161149a9190614d62565b60405180910390f35b6114ab613474565b6040516114b89190614d62565b60405180910390f35b6114c96134ad565b6040516114d69190614d62565b60405180910390f35b6114e76134e6565b6040516114f49190614d62565b60405180910390f35b61150561351f565b6040516115129190614d62565b60405180910390f35b611523613558565b6040516115309190614d62565b60405180910390f35b611541613591565b60405161154e9190614d62565b60405180910390f35b61155f6135ca565b60405161156c9190614d62565b60405180910390f35b61157d613603565b60405161158a9190614d62565b60405180910390f35b61159b61363c565b6040516115a89190614d62565b60405180910390f35b6115b9613675565b6040516115c69190614d62565b60405180910390f35b6115d76136ae565b6040516115e49190614d62565b60405180910390f35b6115f56136e7565b6040516116029190614d62565b60405180910390f35b611613613720565b6040516116209190614d62565b60405180910390f35b611631613759565b60405161163e9190614d62565b60405180910390f35b61164f613792565b60405161165c9190614d62565b60405180910390f35b61166d6137cb565b60405161167a9190614d62565b60405180910390f35b61168b613804565b6040516116989190614d62565b60405180910390f35b6116a961383d565b6040516116b69190614d62565b60405180910390f35b6116c7613876565b6040516116d49190614d62565b60405180910390f35b6116e56138af565b6040516116f29190614d62565b60405180910390f35b6117036138e8565b6040516117109190614d62565b60405180910390f35b611721613921565b60405161172e9190614d62565b60405180910390f35b61173f61395a565b60405161174c9190614d62565b60405180910390f35b61175d613993565b60405161176a9190614d62565b60405180910390f35b61177b6139cc565b6040516117889190614d62565b60405180910390f35b611799613a05565b6040516117a69190614d62565b60405180910390f35b6117b7613a3e565b6040516117c49190614d62565b60405180910390f35b6117d5613a77565b6040516117e29190614d62565b60405180910390f35b6117f3613ab0565b6040516118009190614d62565b60405180910390f35b611811613ae9565b60405161181e9190614d62565b60405180910390f35b61182f613b22565b60405161183c9190614d62565b60405180910390f35b61184d613b5b565b60405161185a9190614d62565b60405180910390f35b61186b613b94565b6040516118789190614d62565b60405180910390f35b611889613bcd565b6040516118969190614d62565b60405180910390f35b6118a7613c06565b6040516118b49190614d62565b60405180910390f35b6118c5613c3f565b6040516118d29190614d62565b60405180910390f35b6118e3613c78565b6040516118f09190614d62565b60405180910390f35b611901613cb1565b60405161190e9190614d62565b60405180910390f35b61191f613cea565b60405161192c9190614d62565b60405180910390f35b61193d613d23565b60405161194a9190614d62565b60405180910390f35b61195b613d5c565b6040516119689190614d62565b60405180910390f35b611979613d95565b6040516119869190614d62565b60405180910390f35b611997613dce565b6040516119a49190614d62565b60405180910390f35b6119b5613e07565b6040516119c29190614d62565b60405180910390f35b6119d3613e40565b6040516119e09190614d62565b60405180910390f35b6119f1613e79565b6040516119fe9190614d62565b60405180910390f35b611a0f613eb2565b604051611a1c9190614d62565b60405180910390f35b611a2d613eeb565b604051611a3a9190614d62565b60405180910390f35b611a4b613f24565b604051611a589190614d62565b60405180910390f35b611a69613f5d565b604051611a769190614d62565b60405180910390f35b611a87613f96565b604051611a949190614d62565b60405180910390f35b611aa5613fcf565b604051611ab29190614d62565b60405180910390f35b611ac3614008565b604051611ad09190614d62565b60405180910390f35b611ae1614041565b604051611aee9190614d62565b60405180910390f35b611aff61407a565b604051611b0c9190614d62565b60405180910390f35b611b1d6140b3565b604051611b2a9190614d62565b60405180910390f35b611b3b6140ec565b604051611b489190614d62565b60405180910390f35b611b59614125565b604051611b669190614d62565b60405180910390f35b611b7761415e565b604051611b849190614d62565b60405180910390f35b611b95614197565b604051611ba29190614d62565b60405180910390f35b611bb36141d0565b604051611bc09190614d62565b60405180910390f35b611bd1614209565b604051611bde9190614d62565b60405180910390f35b611bef614242565b604051611bfc9190614d62565b60405180910390f35b611c0d61427b565b604051611c1a9190614d62565b60405180910390f35b611c2b6142b4565b604051611c389190614d62565b60405180910390f35b611c496142ed565b604051611c569190614d62565b60405180910390f35b611c67614326565b604051611c749190614d62565b60405180910390f35b611c8561435f565b604051611c929190614d62565b60405180910390f35b611ca3614398565b604051611cb09190614d62565b60405180910390f35b611cc16143d1565b604051611cce9190614d62565b60405180910390f35b611cdf61440a565b604051611cec9190614d62565b60405180910390f35b611cfd614443565b604051611d0a9190614d62565b60405180910390f35b611d1b61447c565b604051611d289190614d62565b60405180910390f35b611d396144b5565b604051611d469190614d62565b60405180910390f35b611d576144ee565b604051611d649190614d62565b60405180910390f35b611d75614527565b604051611d829190614d62565b60405180910390f35b611d93614560565b604051611da09190614d62565b60405180910390f35b611db1614599565b604051611dbe9190614d62565b60405180910390f35b611dcf6145d2565b604051611ddc9190614d62565b60405180910390f35b611ded61460b565b604051611dfa9190614d62565b60405180910390f35b611e0b614644565b604051611e189190614d62565b60405180910390f35b611e2961467d565b604051611e369190614d62565b60405180910390f35b611e476146b6565b604051611e549190614d62565b60405180910390f35b611e656146ef565b604051611e729190614d62565b60405180910390f35b611e83614728565b604051611e909190614d62565b60405180910390f35b611ea1614761565b604051611eae9190614d62565b60405180910390f35b611ebf61479a565b604051611ecc9190614d62565b60405180910390f35b611edd6147d3565b604051611eea9190614d62565b60405180910390f35b611efb61480c565b604051611f089190614d62565b60405180910390f35b611f19614845565b604051611f269190614d62565b60405180910390f35b611f3761487e565b604051611f449190614d62565b60405180910390f35b611f556148b7565b604051611f629190614d62565b60405180910390f35b611f736148f0565b604051611f809190614d62565b60405180910390f35b611f91614929565b604051611f9e9190614d62565b60405180910390f35b611faf614962565b604051611fbc9190614d62565b60405180910390f35b611fcd61499b565b604051611fda9190614d62565b60405180910390f35b611feb6149d4565b604051611ff89190614d62565b60405180910390f35b612009614a0d565b6040516120169190614d62565b60405180910390f35b612027614a46565b6040516120349190614d62565b60405180910390f35b612045614a7f565b6040516120529190614d62565b60405180910390f35b612063614ab8565b6040516120709190614d62565b60405180910390f35b612081614af1565b60405161208e9190614d62565b60405180910390f35b61209f614b2a565b6040516120ac9190614d62565b60405180910390f35b6120bd614b63565b6040516120ca9190614d62565b60405180910390f35b6120db614b9c565b6040516120e89190614d62565b60405180910390f35b6120f9614bd5565b6040516121069190614d62565b60405180910390f35b612117614c0e565b6040516121249190614d62565b60405180910390f35b612135614c47565b6040516121429190614d62565b60405180910390f35b612153614c80565b6040516121609190614d62565b60405180910390f35b612171614cb9565b60405161217e9190614d62565b60405180910390f35b6040518060400160405280600381526020017f4a504e000000000000000000000000000000000000000000000000000000000081525081565b6040518060400160405280600381526020017f425241000000000000000000000000000000000000000000000000000000000081525081565b6040518060400160405280600381526020017f41524d000000000000000000000000000000000000000000000000000000000081525081565b6040518060400160405280600381526020017f505259000000000000000000000000000000000000000000000000000000000081525081565b6040518060400160405280600381526020017f4d4441000000000000000000000000000000000000000000000000000000000081525081565b6040518060400160405280600381526020017f4b4e41000000000000000000000000000000000000000000000000000000000081525081565b6040518060400160405280600381526020017f535242000000000000000000000000000000000000000000000000000000000081525081565b6040518060400160405280600381526020017f4e4741000000000000000000000000000000000000000000000000000000000081525081565b6040518060400160405280600381526020017f4d4c54000000000000000000000000000000000000000000000000000000000081525081565b6040518060400160405280600381526020017f424c5a000000000000000000000000000000000000000000000000000000000081525081565b6040518060400160405280600381526020017f434f4c000000000000000000000000000000000000000000000000000000000081525081565b6040518060400160405280600381526020017f49444e000000000000000000000000000000000000000000000000000000000081525081565b6040518060400160405280600381526020017f4d4c49000000000000000000000000000000000000000000000000000000000081525081565b6040518060400160405280600381526020017f545a41000000000000000000000000000000000000000000000000000000000081525081565b6040518060400160405280600381526020017f435249000000000000000000000000000000000000000000000000000000000081525081565b6040518060400160405280600381526020017f444e4b000000000000000000000000000000000000000000000000000000000081525081565b6040518060400160405280600381526020017f4d4f5a000000000000000000000000000000000000000000000000000000000081525081565b6040518060400160405280600381526020017f424852000000000000000000000000000000000000000000000000000000000081525081565b6040518060400160405280600381526020017f455350000000000000000000000000000000000000000000000000000000000081525081565b6040518060400160405280600381526020017f435950000000000000000000000000000000000000000000000000000000000081525081565b6040518060400160405280600381526020017f555341000000000000000000000000000000000000000000000000000000000081525081565b6040518060400160405280600381526020017f444d41000000000000000000000000000000000000000000000000000000000081525081565b6040518060400160405280600381526020017f524f55000000000000000000000000000000000000000000000000000000000081525081565b6040518060400160405280600381526020017f475559000000000000000000000000000000000000000000000000000000000081525081565b6040518060400160405280600381526020017f434956000000000000000000000000000000000000000000000000000000000081525081565b6040518060400160405280600381526020017f474841000000000000000000000000000000000000000000000000000000000081525081565b6040518060400160405280600381526020017f424641000000000000000000000000000000000000000000000000000000000081525081565b6040518060400160405280600381526020017f505254000000000000000000000000000000000000000000000000000000000081525081565b6040518060400160405280600381526020017f50414e000000000000000000000000000000000000000000000000000000000081525081565b6040518060400160405280600381526020017f54474f000000000000000000000000000000000000000000000000000000000081525081565b6040518060400160405280600381526020017f544c53000000000000000000000000000000000000000000000000000000000081525081565b6040518060400160405280600381526020017f465241000000000000000000000000000000000000000000000000000000000081525081565b6040518060400160405280600381526020017f534c42000000000000000000000000000000000000000000000000000000000081525081565b6040518060400160405280600381526020017f41474f000000000000000000000000000000000000000000000000000000000081525081565b6040518060400160405280600381526020017f535952000000000000000000000000000000000000000000000000000000000081525081565b6040518060400160405280600381526020017f535745000000000000000000000000000000000000000000000000000000000081525081565b6040518060400160405280600381526020017f504f4c000000000000000000000000000000000000000000000000000000000081525081565b6040518060400160405280600381526020017f485256000000000000000000000000000000000000000000000000000000000081525081565b6040518060400160405280600381526020017f4e4c44000000000000000000000000000000000000000000000000000000000081525081565b6040518060400160405280600381526020017f435542000000000000000000000000000000000000000000000000000000000081525081565b6040518060400160405280600381526020017f50524b000000000000000000000000000000000000000000000000000000000081525081565b6040518060400160405280600381526020017f4c534f000000000000000000000000000000000000000000000000000000000081525081565b6040518060400160405280600381526020017f434f47000000000000000000000000000000000000000000000000000000000081525081565b6040518060400160405280600381526020017f495441000000000000000000000000000000000000000000000000000000000081525081565b6040518060400160405280600381526020017f415447000000000000000000000000000000000000000000000000000000000081525081565b6040518060400160405280600381526020017f525741000000000000000000000000000000000000000000000000000000000081525081565b6040518060400160405280600381526020017f43414e000000000000000000000000000000000000000000000000000000000081525081565b6040518060400160405280600381526020017f54574e000000000000000000000000000000000000000000000000000000000081525081565b6040518060400160405280600381526020017f4c5641000000000000000000000000000000000000000000000000000000000081525081565b6040518060400160405280600381526020017f544344000000000000000000000000000000000000000000000000000000000081525081565b6040518060400160405280600381526020017f455249000000000000000000000000000000000000000000000000000000000081525081565b6040518060400160405280600381526020017f454355000000000000000000000000000000000000000000000000000000000081525081565b6040518060400160405280600381526020017f464a49000000000000000000000000000000000000000000000000000000000081525081565b6040518060400160405280600381526020017f535344000000000000000000000000000000000000000000000000000000000081525081565b6040518060400160405280600381526020017f4b415a000000000000000000000000000000000000000000000000000000000081525081565b6040518060400160405280600381526020017f4d5953000000000000000000000000000000000000000000000000000000000081525081565b6040518060400160405280600381526020017f48554e000000000000000000000000000000000000000000000000000000000081525081565b6040518060400160405280600381526020017f414e44000000000000000000000000000000000000000000000000000000000081525081565b6040518060400160405280600381526020017f414c42000000000000000000000000000000000000000000000000000000000081525081565b6040518060400160405280600381526020017f474e42000000000000000000000000000000000000000000000000000000000081525081565b6040518060400160405280600381526020017f43484c000000000000000000000000000000000000000000000000000000000081525081565b6040518060400160405280600381526020017f424948000000000000000000000000000000000000000000000000000000000081525081565b6040518060400160405280600381526020017f42544e000000000000000000000000000000000000000000000000000000000081525081565b6040518060400160405280600381526020017f4c424e000000000000000000000000000000000000000000000000000000000081525081565b6040518060400160405280600381526020017f434845000000000000000000000000000000000000000000000000000000000081525081565b6040518060400160405280600381526020017f4b475a000000000000000000000000000000000000000000000000000000000081525081565b6040518060400160405280600381526020017f49524e000000000000000000000000000000000000000000000000000000000081525081565b6040518060400160405280600381526020017f474252000000000000000000000000000000000000000000000000000000000081525081565b6040518060400160405280600381526020017f444f4d000000000000000000000000000000000000000000000000000000000081525081565b6040518060400160405280600381526020017f4d434f000000000000000000000000000000000000000000000000000000000081525081565b6040518060400160405280600381526020017f434f44000000000000000000000000000000000000000000000000000000000081525081565b6040518060400160405280600381526020017f46494e000000000000000000000000000000000000000000000000000000000081525081565b6040518060400160405280600381526020017f4c4945000000000000000000000000000000000000000000000000000000000081525081565b6040518060400160405280600381526020017f415554000000000000000000000000000000000000000000000000000000000081525081565b6040518060400160405280600381526020017f435056000000000000000000000000000000000000000000000000000000000081525081565b6040518060400160405280600381526020017f5a5745000000000000000000000000000000000000000000000000000000000081525081565b6040518060400160405280600381526020017f564e4d000000000000000000000000000000000000000000000000000000000081525081565b6040518060400160405280600381526020017f434f4d000000000000000000000000000000000000000000000000000000000081525081565b6040518060400160405280600381526020017f4d4152000000000000000000000000000000000000000000000000000000000081525081565b6040518060400160405280600381526020017f424752000000000000000000000000000000000000000000000000000000000081525081565b6040518060400160405280600381526020017f444a49000000000000000000000000000000000000000000000000000000000081525081565b6040518060400160405280600381526020017f424f4c000000000000000000000000000000000000000000000000000000000081525081565b6040518060400160405280600381526020017f4e504c000000000000000000000000000000000000000000000000000000000081525081565b6040518060400160405280600381526020017f444555000000000000000000000000000000000000000000000000000000000081525081565b6040518060400160405280600381526020017f555a42000000000000000000000000000000000000000000000000000000000081525081565b6040518060400160405280600381526020017f424c52000000000000000000000000000000000000000000000000000000000081525081565b6040518060400160405280600381526020017f49524c000000000000000000000000000000000000000000000000000000000081525081565b6040518060400160405280600381526020017f425242000000000000000000000000000000000000000000000000000000000081525081565b6040518060400160405280600381526020017f4d5553000000000000000000000000000000000000000000000000000000000081525081565b6040518060400160405280600381526020017f4a414d000000000000000000000000000000000000000000000000000000000081525081565b6040518060400160405280600381526020017f50484c000000000000000000000000000000000000000000000000000000000081525081565b6040518060400160405280600381526020017f50414b000000000000000000000000000000000000000000000000000000000081525081565b6040518060400160405280600381526020017f4c4341000000000000000000000000000000000000000000000000000000000081525081565b6040518060400160405280600381526020017f47544d000000000000000000000000000000000000000000000000000000000081525081565b6040518060400160405280600381526020017f534c45000000000000000000000000000000000000000000000000000000000081525081565b6040518060400160405280600381526020017f4d4e45000000000000000000000000000000000000000000000000000000000081525081565b6040518060400160405280600381526020017f4c5455000000000000000000000000000000000000000000000000000000000081525081565b6040518060400160405280600381526020017f494e44000000000000000000000000000000000000000000000000000000000081525081565b6040518060400160405280600381526020017f554741000000000000000000000000000000000000000000000000000000000081525081565b6040518060400160405280600381526020017f564154000000000000000000000000000000000000000000000000000000000081525081565b6040518060400160405280600381526020017f4e414d000000000000000000000000000000000000000000000000000000000081525081565b6040518060400160405280600381526020017f415a45000000000000000000000000000000000000000000000000000000000081525081565b6040518060400160405280600381526020017f434146000000000000000000000000000000000000000000000000000000000081525081565b6040518060400160405280600381526020017f4d4e47000000000000000000000000000000000000000000000000000000000081525081565b6040518060400160405280600381526020017f455448000000000000000000000000000000000000000000000000000000000081525081565b6040518060400160405280600381526020017f4d4d52000000000000000000000000000000000000000000000000000000000081525081565b6040518060400160405280600381526020017f4c5558000000000000000000000000000000000000000000000000000000000081525081565b6040518060400160405280600381526020017f495251000000000000000000000000000000000000000000000000000000000081525081565b6040518060400160405280600381526020017f4d5749000000000000000000000000000000000000000000000000000000000081525081565b6040518060400160405280600381526020017f4d4558000000000000000000000000000000000000000000000000000000000081525081565b6040518060400160405280600381526020017f454759000000000000000000000000000000000000000000000000000000000081525081565b6040518060400160405280600381526020017f504552000000000000000000000000000000000000000000000000000000000081525081565b6040518060400160405280600381526020017f54544f000000000000000000000000000000000000000000000000000000000081525081565b6040518060400160405280600381526020017f544f4e000000000000000000000000000000000000000000000000000000000081525081565b6040518060400160405280600381526020017f544841000000000000000000000000000000000000000000000000000000000081525081565b6040518060400160405280600381526020017f565554000000000000000000000000000000000000000000000000000000000081525081565b6040518060400160405280600381526020017f4d4456000000000000000000000000000000000000000000000000000000000081525081565b6040518060400160405280600381526020017f474e51000000000000000000000000000000000000000000000000000000000081525081565b6040518060400160405280600381526020017f424449000000000000000000000000000000000000000000000000000000000081525081565b6040518060400160405280600381526020017f534750000000000000000000000000000000000000000000000000000000000081525081565b6040518060400160405280600381526020017f4e5255000000000000000000000000000000000000000000000000000000000081525081565b6040518060400160405280600381526020017f53575a000000000000000000000000000000000000000000000000000000000081525081565b6040518060400160405280600381526020017f4b4952000000000000000000000000000000000000000000000000000000000081525081565b6040518060400160405280600381526020017f535943000000000000000000000000000000000000000000000000000000000081525081565b6040518060400160405280600381526020017f435a45000000000000000000000000000000000000000000000000000000000081525081565b6040518060400160405280600381526020017f4d5254000000000000000000000000000000000000000000000000000000000081525081565b6040518060400160405280600381526020017f485449000000000000000000000000000000000000000000000000000000000081525081565b6040518060400160405280600381526020017f42454c000000000000000000000000000000000000000000000000000000000081525081565b6040518060400160405280600381526020017f434d52000000000000000000000000000000000000000000000000000000000081525081565b6040518060400160405280600381526020017f4d4447000000000000000000000000000000000000000000000000000000000081525081565b6040518060400160405280600381526020017f544a4b000000000000000000000000000000000000000000000000000000000081525081565b6040518060400160405280600381526020017f415553000000000000000000000000000000000000000000000000000000000081525081565b6040518060400160405280600381526020017f53444e000000000000000000000000000000000000000000000000000000000081525081565b6040518060400160405280600381526020017f504c57000000000000000000000000000000000000000000000000000000000081525081565b6040518060400160405280600381526020017f4c4252000000000000000000000000000000000000000000000000000000000081525081565b6040518060400160405280600381526020017f53454e000000000000000000000000000000000000000000000000000000000081525081565b6040518060400160405280600381526020017f504e47000000000000000000000000000000000000000000000000000000000081525081565b6040518060400160405280600381526020017f474142000000000000000000000000000000000000000000000000000000000081525081565b6040518060400160405280600381526020017f564354000000000000000000000000000000000000000000000000000000000081525081565b6040518060400160405280600381526020017f42524e000000000000000000000000000000000000000000000000000000000081525081565b6040518060400160405280600381526020017f46534d000000000000000000000000000000000000000000000000000000000081525081565b6040518060400160405280600381526020017f525553000000000000000000000000000000000000000000000000000000000081525081565b6040518060400160405280600381526020017f475243000000000000000000000000000000000000000000000000000000000081525081565b6040518060400160405280600381526020017f4c414f000000000000000000000000000000000000000000000000000000000081525081565b6040518060400160405280600381526020017f4d484c000000000000000000000000000000000000000000000000000000000081525081565b6040518060400160405280600381526020017f4b454e000000000000000000000000000000000000000000000000000000000081525081565b6040518060400160405280600381526020017f49534c000000000000000000000000000000000000000000000000000000000081525081565b6040518060400160405280600381526020017f545552000000000000000000000000000000000000000000000000000000000081525081565b6040518060400160405280600381526020017f56454e000000000000000000000000000000000000000000000000000000000081525081565b6040518060400160405280600381526020017f424744000000000000000000000000000000000000000000000000000000000081525081565b6040518060400160405280600381526020017f5a4d42000000000000000000000000000000000000000000000000000000000081525081565b6040518060400160405280600381526020017f4b5754000000000000000000000000000000000000000000000000000000000081525081565b6040518060400160405280600381526020017f4c4b41000000000000000000000000000000000000000000000000000000000081525081565b6040518060400160405280600381526020017f555259000000000000000000000000000000000000000000000000000000000081525081565b6040518060400160405280600381526020017f514154000000000000000000000000000000000000000000000000000000000081525081565b6040518060400160405280600381526020017f42454e000000000000000000000000000000000000000000000000000000000081525081565b6040518060400160405280600381526020017f4b484d000000000000000000000000000000000000000000000000000000000081525081565b6040518060400160405280600381526020017f4e5a4c000000000000000000000000000000000000000000000000000000000081525081565b6040518060400160405280600381526020017f534155000000000000000000000000000000000000000000000000000000000081525081565b6040518060400160405280600381526020017f544b4d000000000000000000000000000000000000000000000000000000000081525081565b6040518060400160405280600381526020017f4a4f52000000000000000000000000000000000000000000000000000000000081525081565b6040518060400160405280600381526020017f4b4f52000000000000000000000000000000000000000000000000000000000081525081565b6040518060400160405280600381526020017f53564e000000000000000000000000000000000000000000000000000000000081525081565b6040518060400160405280600381526020017f484e44000000000000000000000000000000000000000000000000000000000081525081565b6040518060400160405280600381526020017f455354000000000000000000000000000000000000000000000000000000000081525081565b6040518060400160405280600381526020017f4e4943000000000000000000000000000000000000000000000000000000000081525081565b6040518060400160405280600381526020017f53564b000000000000000000000000000000000000000000000000000000000081525081565b6040518060400160405280600381526020017f415247000000000000000000000000000000000000000000000000000000000081525081565b6040518060400160405280600381526020017f4d4b44000000000000000000000000000000000000000000000000000000000081525081565b6040518060400160405280600381526020017f5a4146000000000000000000000000000000000000000000000000000000000081525081565b6040518060400160405280600381526020017f545556000000000000000000000000000000000000000000000000000000000081525081565b6040518060400160405280600381526020017f554b52000000000000000000000000000000000000000000000000000000000081525081565b6040518060400160405280600381526020017f57534d000000000000000000000000000000000000000000000000000000000081525081565b6040518060400160405280600381526020017f534f4d000000000000000000000000000000000000000000000000000000000081525081565b6040518060400160405280600381526020017f414647000000000000000000000000000000000000000000000000000000000081525081565b6040518060400160405280600381526020017f425741000000000000000000000000000000000000000000000000000000000081525081565b6040518060400160405280600381526020017f43484e000000000000000000000000000000000000000000000000000000000081525081565b6040518060400160405280600381526020017f445a41000000000000000000000000000000000000000000000000000000000081525081565b6040518060400160405280600381526020017f47494e000000000000000000000000000000000000000000000000000000000081525081565b6040518060400160405280600381526020017f4e4f52000000000000000000000000000000000000000000000000000000000081525081565b6040518060400160405280600381526020017f495352000000000000000000000000000000000000000000000000000000000081525081565b6040518060400160405280600381526020017f535450000000000000000000000000000000000000000000000000000000000081525081565b6040518060400160405280600381526020017f415245000000000000000000000000000000000000000000000000000000000081525081565b6040518060400160405280600381526020017f475244000000000000000000000000000000000000000000000000000000000081525081565b6040518060400160405280600381526020017f54554e000000000000000000000000000000000000000000000000000000000081525081565b6040518060400160405280600381526020017f4c4259000000000000000000000000000000000000000000000000000000000081525081565b6040518060400160405280600381526020017f4f4d4e000000000000000000000000000000000000000000000000000000000081525081565b6040518060400160405280600381526020017f424853000000000000000000000000000000000000000000000000000000000081525081565b6040518060400160405280600381526020017f534c56000000000000000000000000000000000000000000000000000000000081525081565b6040518060400160405280600381526020017f47454f000000000000000000000000000000000000000000000000000000000081525081565b6040518060400160405280600381526020017f474d42000000000000000000000000000000000000000000000000000000000081525081565b6040518060400160405280600381526020017f4e4552000000000000000000000000000000000000000000000000000000000081525081565b6040518060400160405280600381526020017f535552000000000000000000000000000000000000000000000000000000000081525081565b6040518060400160405280600381526020017f59454d000000000000000000000000000000000000000000000000000000000081525081565b6040518060400160405280600381526020017f534d52000000000000000000000000000000000000000000000000000000000081525081565b5f81519050919050565b5f82825260208201905092915050565b8281835e5f83830152505050565b5f601f19601f8301169050919050565b5f614d3482614cf2565b614d3e8185614cfc565b9350614d4e818560208601614d0c565b614d5781614d1a565b840191505092915050565b5f6020820190508181035f830152614d7a8184614d2a565b90509291505056fea164736f6c634300081c000a","linkReferences":{}},"methodIdentifiers":{"AFGHANISTAN()":"e9368d8f","ALBANIA()":"51949b57","ALGERIA()":"eb24e500","ANDORRA()":"4ed9f3aa","ANGOLA()":"2fc789aa","ANTIGUA_AND_BARBUDA()":"3fde8d17","ARGENTINA()":"df5dd7bf","ARMENIA()":"0652b18b","AUSTRALIA()":"b39a7d72","AUSTRIA()":"60293dbc","AZERBAIJAN()":"7cdf0026","BAHAMAS()":"f8518138","BAHRAIN()":"154c610f","BANGLADESH()":"ce08cd9d","BARBADOS()":"6a0c9275","BELARUS()":"67e965e8","BELGIUM()":"ac8c052c","BELIZE()":"0a999bb3","BENIN()":"d59bfd17","BHUTAN()":"54693bab","BOLIVIA()":"65d82c92","BOSNIA_AND_HERZEGOVINA()":"53873d5f","BOTSWANA()":"e9ddb48a","BRAZIL()":"05c0d6b4","BRUNEI()":"bca57000","BULGARIA()":"63e1bb47","BURKINA_FASO()":"2624ce25","BURUNDI()":"9eef7f4e","CAMBODIA()":"d5a1f080","CAMEROON()":"af95e51f","CANADA()":"406ce5bc","CAPE_VERDE()":"61a05b9c","CENTRAL_AFRICAN_REPUBLIC()":"7f2d75ff","CHAD()":"4334a8a5","CHILE()":"5332bb54","CHINA()":"eaa98de8","COLOMBIA()":"0a9d3da7","COMOROS()":"62a77e92","CONGO()":"389f7f7b","CONGO_DR()":"5f8d8544","COSTA_RICA()":"12971ef5","CROATIA()":"322c32d2","CUBA()":"333781be","CYPRUS()":"1aceb859","CZECH_REPUBLIC()":"a906ada2","DENMARK()":"131e1108","DJIBOUTI()":"64598408","DOMINICA()":"1cfd1828","DOMINICAN_REPUBLIC()":"5c28c5b2","ECUADOR()":"444d73a0","EGYPT()":"8e1f0614","EL_SALVADOR()":"f8a110f6","EQUATORIAL_GUINEA()":"9d7c5a00","ERITREA()":"4447f5bb","ESTONIA()":"dd82c4f1","ESWATINI()":"a1255e05","ETHIOPIA()":"8034ea16","FIJI()":"468f2739","FINLAND()":"5fa919ec","FRANCE()":"2c795b43","GABON()":"ba2f2478","GAMBIA()":"fb09898c","GEORGIA()":"fa77b37b","GERMANY()":"66ebe785","GHANA()":"23bffa36","GREECE()":"bed9240f","GRENADA()":"f1e739d5","GUATEMALA()":"73b9bdc6","GUINEA()":"ef977761","GUINEA_BISSAU()":"5249cf2a","GUYANA()":"1e4beb9c","HAITI()":"abbfd5af","HONDURAS()":"dab05d85","HUNGARY()":"4d66b729","ICELAND()":"c55ca299","INDIA()":"7a22ee9b","INDONESIA()":"0c03f87b","IRAN()":"5705c756","IRAQ()":"85f7daa2","IRELAND()":"6883e157","ISRAEL()":"f076b5b8","ITALY()":"3e8319d6","IVORY_COAST()":"2050b72f","JAMAICA()":"6dbb5572","JAPAN()":"00a60203","JORDAN()":"d879e911","KAZAKHSTAN()":"4afda197","KENYA()":"c2b3d1f0","KIRIBATI()":"a1d633b8","KUWAIT()":"d14dfd4f","KYRGYZSTAN()":"56083f16","LAOS()":"c1055a97","LATVIA()":"431b0b22","LEBANON()":"54c6dabf","LESOTHO()":"36a749e0","LIBERIA()":"b502f6d3","LIBYA()":"f652eae0","LIECHTENSTEIN()":"5ff65155","LITHUANIA()":"78d84f49","LUXEMBOURG()":"843f010b","MADAGASCAR()":"b33dc193","MALAWI()":"87064366","MALAYSIA()":"4cbc37ef","MALDIVES()":"9b70eb6f","MALI()":"0ee6aec9","MALTA()":"0a08172d","MARSHALL_ISLANDS()":"c1a235a6","MAURITANIA()":"a9fcb49a","MAURITIUS()":"6db09917","MEXICO()":"892c3526","MICRONESIA()":"bdf3e107","MOLDOVA()":"08c830fd","MONACO()":"5e63b955","MONGOLIA()":"7fa725f7","MONTENEGRO()":"77171df3","MOROCCO()":"62c515d5","MOZAMBIQUE()":"1338e8a1","MYANMAR()":"8396f529","NAMIBIA()":"7c398709","NAURU()":"a0dc9f06","NEPAL()":"660ee0d1","NETHERLANDS()":"32804f59","NEW_ZEALAND()":"d63e1ae4","NICARAGUA()":"ddd25a7c","NIGER()":"fb1319fc","NIGERIA()":"09450df7","NORTH_KOREA()":"344796c0","NORTH_MACEDONIA()":"e2214b51","NORWAY()":"efd5191c","OMAN()":"f78a1b18","PAKISTAN()":"6f25a323","PALAU()":"b451f302","PANAMA()":"2a1d9848","PAPUA_NEW_GUINEA()":"b8c2b520","PARAGUAY()":"08a4d950","PERU()":"8f49d81f","PHILIPPINES()":"6dc18816","POLAND()":"314d63bc","PORTUGAL()":"27603824","QATAR()":"d4c13ec2","ROMANIA()":"1d673fa1","RUSSIA()":"be6f0447","RWANDA()":"3fe86aae","SAINT_KITTS_AND_NEVIS()":"08edfba0","SAINT_LUCIA()":"71b32a13","SAINT_VINCENT_AND_THE_GRENADINES()":"bc279154","SAMOA()":"e8a13bb0","SAN_MARINO()":"ff253856","SAO_TOME_AND_PRINCIPE()":"f1afeeb3","SAUDI_ARABIA()":"d6e126d9","SENEGAL()":"b6e5fc4a","SERBIA()":"09084df6","SEYCHELLES()":"a571f993","SIERRA_LEONE()":"745531f7","SINGAPORE()":"a017ed9a","SLOVAKIA()":"df1ef398","SLOVENIA()":"d9ef5ac5","SOLOMON_ISLANDS()":"2e3ca6dd","SOMALIA()":"e8b90b07","SOUTH_AFRICA()":"e32d37c7","SOUTH_KOREA()":"d8fa426d","SOUTH_SUDAN()":"4a106bb6","SPAIN()":"174c571b","SRI_LANKA()":"d32060a3","SUDAN()":"b3ad5bcb","SURINAME()":"fd342d55","SWEDEN()":"312dcc0f","SWITZERLAND()":"55f7710d","SYRIA()":"3070e97b","TAIWAN()":"424f7171","TAJIKISTAN()":"b399f116","TANZANIA()":"0f053c3d","THAILAND()":"95c95884","TIMOR_LESTE()":"2b96f437","TOGO()":"2a47695e","TONGA()":"91f558a2","TRINIDAD_AND_TOBAGO()":"8f84622c","TUNISIA()":"f2a9c5d2","TURKEY()":"c81bb409","TURKMENISTAN()":"d81aaa62","TUVALU()":"e6901916","UGANDA()":"7a7573f6","UKRAINE()":"e6f1b19f","UNITED_ARAB_EMIRATES()":"f1c5f04e","UNITED_KINGDOM()":"5bc170a4","UNITED_STATES()":"1bf8be85","URUGUAY()":"d408cb8d","UZBEKISTAN()":"679fb578","VANUATU()":"95d84254","VATICAN()":"7b528dbd","VENEZUELA()":"ca89a9eb","VIETNAM()":"62874fa5","YEMEN()":"fd6159d9","ZAMBIA()":"cebf3110","ZIMBABWE()":"621e3fd9"},"id":10}