{"abi":[{"type":"function","name":"cleanExpiredLocks","inputs":[{"name":"accountId","type":"uint128","internalType":"uint128"},{"name":"collateralType","type":"address","internalType":"address"},{"name":"offset","type":"uint256","internalType":"uint256"},{"name":"count","type":"uint256","internalType":"uint256"}],"outputs":[{"name":"cleared","type":"uint256","internalType":"uint256"},{"name":"remainingLockAmountD18","type":"uint256","internalType":"uint256"}],"stateMutability":"nonpayable"},{"type":"function","name":"createLock","inputs":[{"name":"accountId","type":"uint128","internalType":"uint128"},{"name":"collateralType","type":"address","internalType":"address"},{"name":"amount","type":"uint256","internalType":"uint256"},{"name":"expireTimestamp","type":"uint64","internalType":"uint64"}],"outputs":[],"stateMutability":"nonpayable"},{"type":"function","name":"deposit","inputs":[{"name":"accountId","type":"uint128","internalType":"uint128"},{"name":"collateralType","type":"address","internalType":"address"},{"name":"tokenAmount","type":"uint256","internalType":"uint256"}],"outputs":[],"stateMutability":"nonpayable"},{"type":"function","name":"getAccountAvailableCollateral","inputs":[{"name":"accountId","type":"uint128","internalType":"uint128"},{"name":"collateralType","type":"address","internalType":"address"}],"outputs":[{"name":"","type":"uint256","internalType":"uint256"}],"stateMutability":"view"},{"type":"function","name":"getAccountCollateral","inputs":[{"name":"accountId","type":"uint128","internalType":"uint128"},{"name":"collateralType","type":"address","internalType":"address"}],"outputs":[{"name":"totalDeposited","type":"uint256","internalType":"uint256"},{"name":"totalAssigned","type":"uint256","internalType":"uint256"},{"name":"totalLocked","type":"uint256","internalType":"uint256"}],"stateMutability":"view"},{"type":"function","name":"getLocks","inputs":[{"name":"accountId","type":"uint128","internalType":"uint128"},{"name":"collateralType","type":"address","internalType":"address"},{"name":"offset","type":"uint256","internalType":"uint256"},{"name":"count","type":"uint256","internalType":"uint256"}],"outputs":[{"name":"locks","type":"tuple[]","internalType":"struct CollateralLock.Data[]","components":[{"name":"amountD18","type":"uint128","internalType":"uint128"},{"name":"lockExpirationTime","type":"uint64","internalType":"uint64"}]}],"stateMutability":"view"},{"type":"function","name":"withdraw","inputs":[{"name":"accountId","type":"uint128","internalType":"uint128"},{"name":"collateralType","type":"address","internalType":"address"},{"name":"tokenAmount","type":"uint256","internalType":"uint256"}],"outputs":[],"stateMutability":"nonpayable"},{"type":"event","name":"AccountLocksScaled","inputs":[{"name":"accountId","type":"uint128","indexed":false,"internalType":"uint128"},{"name":"collateralType","type":"address","indexed":false,"internalType":"address"},{"name":"totalDepositedD18","type":"uint256","indexed":false,"internalType":"uint256"},{"name":"totalLockedD18","type":"uint256","indexed":false,"internalType":"uint256"}],"anonymous":false},{"type":"event","name":"CollateralLockCreated","inputs":[{"name":"accountId","type":"uint128","indexed":true,"internalType":"uint128"},{"name":"collateralType","type":"address","indexed":true,"internalType":"address"},{"name":"tokenAmount","type":"uint256","indexed":false,"internalType":"uint256"},{"name":"expireTimestamp","type":"uint64","indexed":false,"internalType":"uint64"}],"anonymous":false},{"type":"event","name":"CollateralLockExpired","inputs":[{"name":"tokenAmount","type":"uint256","indexed":false,"internalType":"uint256"},{"name":"expireTimestamp","type":"uint64","indexed":false,"internalType":"uint64"}],"anonymous":false},{"type":"event","name":"CollateralLockExpired","inputs":[{"name":"tokenAmount","type":"uint256","indexed":false,"internalType":"uint256"},{"name":"expireTimestamp","type":"uint64","indexed":false,"internalType":"uint64"}],"anonymous":false},{"type":"event","name":"Deposited","inputs":[{"name":"accountId","type":"uint128","indexed":true,"internalType":"uint128"},{"name":"collateralType","type":"address","indexed":true,"internalType":"address"},{"name":"tokenAmount","type":"uint256","indexed":false,"internalType":"uint256"},{"name":"sender","type":"address","indexed":true,"internalType":"address"}],"anonymous":false},{"type":"event","name":"Withdrawn","inputs":[{"name":"accountId","type":"uint128","indexed":true,"internalType":"uint128"},{"name":"collateralType","type":"address","indexed":true,"internalType":"address"},{"name":"tokenAmount","type":"uint256","indexed":false,"internalType":"uint256"},{"name":"sender","type":"address","indexed":true,"internalType":"address"}],"anonymous":false},{"type":"error","name":"AccountActivityTimeoutPending","inputs":[{"name":"accountId","type":"uint128","internalType":"uint128"},{"name":"currentTime","type":"uint256","internalType":"uint256"},{"name":"requiredTime","type":"uint256","internalType":"uint256"}]},{"type":"error","name":"AccountNotFound","inputs":[{"name":"accountId","type":"uint128","internalType":"uint128"}]},{"type":"error","name":"CollateralDepositDisabled","inputs":[{"name":"collateralType","type":"address","internalType":"address"}]},{"type":"error","name":"CollateralNotFound","inputs":[]},{"type":"error","name":"DeprecatedDeposit","inputs":[]},{"type":"error","name":"EmptyRevertReason","inputs":[]},{"type":"error","name":"FailedTransfer","inputs":[{"name":"from","type":"address","internalType":"address"},{"name":"to","type":"address","internalType":"address"},{"name":"value","type":"uint256","internalType":"uint256"}]},{"type":"error","name":"FeatureUnavailable","inputs":[{"name":"which","type":"bytes32","internalType":"bytes32"}]},{"type":"error","name":"InsufficientAccountCollateral","inputs":[{"name":"amount","type":"uint256","internalType":"uint256"}]},{"type":"error","name":"InsufficientAllowance","inputs":[{"name":"required","type":"uint256","internalType":"uint256"},{"name":"existing","type":"uint256","internalType":"uint256"}]},{"type":"error","name":"InsufficientAvailableCollateral","inputs":[{"name":"amountAvailableForDelegationD18","type":"uint256","internalType":"uint256"},{"name":"amountD18","type":"uint256","internalType":"uint256"}]},{"type":"error","name":"InvalidParameter","inputs":[{"name":"parameter","type":"string","internalType":"string"},{"name":"reason","type":"string","internalType":"string"}]},{"type":"error","name":"OverflowInt256ToUint256","inputs":[]},{"type":"error","name":"OverflowUint256ToUint128","inputs":[]},{"type":"error","name":"OverflowUint256ToUint64","inputs":[]},{"type":"error","name":"PermissionDenied","inputs":[{"name":"accountId","type":"uint128","internalType":"uint128"},{"name":"permission","type":"bytes32","internalType":"bytes32"},{"name":"target","type":"address","internalType":"address"}]},{"type":"error","name":"PositionOutOfBounds","inputs":[]},{"type":"error","name":"PrecisionLost","inputs":[{"name":"tokenAmount","type":"uint256","internalType":"uint256"},{"name":"decimals","type":"uint8","internalType":"uint8"}]}],"bytecode":{"object":"0x608060405234801561000f575f80fd5b50613c868061001d5f395ff3fe608060405234801561000f575f80fd5b506004361061007b575f3560e01c8063927482ff11610059578063927482ff146100e857806395997c5114610118578063aa8c636914610134578063ef45148e146101645761007b565b80630bae98931461007f578063198f0aa11461009b57806383802968146100cc575b5f80fd5b61009960048036038101906100949190612a41565b610196565b005b6100b560048036038101906100b09190612aa5565b610430565b6040516100c3929190612b18565b60405180910390f35b6100e660048036038101906100e19190612b3f565b61049a565b005b61010260048036038101906100fd9190612b8f565b6106f4565b60405161010f9190612bcd565b60405180910390f35b610132600480360381019061012d9190612b3f565b610747565b005b61014e60048036038101906101499190612aa5565b6109d7565b60405161015b9190612cd9565b60405180910390f35b61017e60048036038101906101799190612b8f565b610baf565b60405161018d93929190612cf9565b60405180910390f35b5f6101c1857f41444d494e000000000000000000000000000000000000000000000000000000610bda565b90505f806101d88684610c6090919063ffffffff16565b9250509150428467ffffffffffffffff1611610229576040517f97570e6e00000000000000000000000000000000000000000000000000000000815260040161022090612dd2565b60405180910390fd5b5f850361026b576040517f97570e6e00000000000000000000000000000000000000000000000000000000815260040161026290612e97565b60405180910390fd5b80826102779190612ef5565b8511156102bb57846040517f4c8cb9dc0000000000000000000000000000000000000000000000000000000081526004016102b29190612bcd565b60405180910390fd5b826006015f8773ffffffffffffffffffffffffffffffffffffffff1673ffffffffffffffffffffffffffffffffffffffff1681526020019081526020015f20600301604051806040016040528061031188610d0e565b6fffffffffffffffffffffffffffffffff1681526020018667ffffffffffffffff16815250908060018154018082558091505060019003905f5260205f20015f909190919091505f820151815f015f6101000a8154816fffffffffffffffffffffffffffffffff02191690836fffffffffffffffffffffffffffffffff1602179055506020820151815f0160106101000a81548167ffffffffffffffff021916908367ffffffffffffffff16021790555050508573ffffffffffffffffffffffffffffffffffffffff16876fffffffffffffffffffffffffffffffff167f8a78446a234220d3ee3f46aa6ea1ea5bc438bd153398ebcbd171843744b452a6878760405161041f929190612f37565b60405180910390a350505050505050565b5f8061048d848461044089610d63565b6006015f8973ffffffffffffffffffffffffffffffffffffffff1673ffffffffffffffffffffffffffffffffffffffff1681526020019081526020015f20610d979092919063ffffffff16565b9150915094509492505050565b6104c37f6465706f736974000000000000000000000000000000000000000000000000006110ef565b6104cc82611144565b6104d5836111a0565b505f6104e084610d63565b90505f6104eb61124b565b90505f3090505f8573ffffffffffffffffffffffffffffffffffffffff1663dd62ed3e84846040518363ffffffff1660e01b815260040161052d929190612f6d565b602060405180830381865afa158015610548573d5f803e3d5ffd5b505050506040513d601f19601f8201168201806040525081019061056c9190612fa8565b9050848110156105b55784816040517f2a1b2dd80000000000000000000000000000000000000000000000000000000081526004016105ac929190612b18565b60405180910390fd5b6105e28383878973ffffffffffffffffffffffffffffffffffffffff16611285909392919063ffffffff16565b610600865f66038d7ea4c67fff876113e1909392919063ffffffff16565b5061066c61061f866106118961166b565b61169f90919063ffffffff16565b856006015f8973ffffffffffffffffffffffffffffffffffffffff1673ffffffffffffffffffffffffffffffffffffffff1681526020019081526020015f206118b090919063ffffffff16565b61067461124b565b73ffffffffffffffffffffffffffffffffffffffff168673ffffffffffffffffffffffffffffffffffffffff16886fffffffffffffffffffffffffffffffff167fd92122e67326e9313bfae33ccb1fccf5194584c6bf93a8529a6b006d8c6e24a9886040516106e39190612bcd565b60405180910390a450505050505050565b5f6106fe83610d63565b6006015f8373ffffffffffffffffffffffffffffffffffffffff1673ffffffffffffffffffffffffffffffffffffffff1681526020019081526020015f205f0154905092915050565b6107707f77697468647261770000000000000000000000000000000000000000000000006110ef565b5f6107c5847f57495448445241570000000000000000000000000000000000000000000000006107c07f6163636f756e7454696d656f75745769746864726177000000000000000000005f6118cd565b6118e4565b90505f6107e3836107d58661166b565b61169f90919063ffffffff16565b90505f805f6107fb8786610c6090919063ffffffff16565b9250925092505f82821161080f5782610811565b815b90505f81856108209190612ef5565b90508086111561086757856040517f4c8cb9dc00000000000000000000000000000000000000000000000000000000815260040161085e9190612bcd565b60405180910390fd5b6108b886886006015f8c73ffffffffffffffffffffffffffffffffffffffff1673ffffffffffffffffffffffffffffffffffffffff1681526020019081526020015f20611b1390919063ffffffff16565b876108e2308b73ffffffffffffffffffffffffffffffffffffffff16611b7d90919063ffffffff16565b101561091a576040517ffca9ae0600000000000000000000000000000000000000000000000000000000815260040160405180910390fd5b61094c61092561124b565b898b73ffffffffffffffffffffffffffffffffffffffff16611bfe9092919063ffffffff16565b61095461124b565b73ffffffffffffffffffffffffffffffffffffffff168973ffffffffffffffffffffffffffffffffffffffff168b6fffffffffffffffffffffffffffffffff167f8b5f9d7ce522936589c630db08c0fa2405b21c4a5ff8ef19899900172736ba388b6040516109c39190612bcd565b60405180910390a450505050505050505050565b60605f6109e386610d63565b6006015f8673ffffffffffffffffffffffffffffffffffffffff1673ffffffffffffffffffffffffffffffffffffffff1681526020019081526020015f2060030190505f818054905090505f841480610a475750808486610a449190612fd3565b10155b15610a6957808510610a59575f610a66565b8481610a659190612ef5565b5b93505b8367ffffffffffffffff811115610a8357610a82613006565b5b604051908082528060200260200182016040528015610abc57816020015b610aa96128f1565b815260200190600190039081610aa15790505b5092505f5b84811015610ba457828187610ad69190612fd3565b81548110610ae757610ae6613033565b5b905f5260205f20016040518060400160405290815f82015f9054906101000a90046fffffffffffffffffffffffffffffffff166fffffffffffffffffffffffffffffffff166fffffffffffffffffffffffffffffffff1681526020015f820160109054906101000a900467ffffffffffffffff1667ffffffffffffffff1667ffffffffffffffff1681525050848281518110610b8657610b85613033565b5b60200260200101819052508080610b9c90613060565b915050610ac1565b505050949350505050565b5f805f610bcd84610bbf87610d63565b610c6090919063ffffffff16565b9250925092509250925092565b5f610be483610d63565b9050610c0582610bf261124b565b83600101611d579092919063ffffffff16565b610c51578282610c1361124b565b6040517f01de5522000000000000000000000000000000000000000000000000000000008152600401610c48939291906130ce565b60405180910390fd5b610c5a81611df6565b92915050565b5f805f610c6d8585611e23565b9150846006015f8573ffffffffffffffffffffffffffffffffffffffff1673ffffffffffffffffffffffffffffffffffffffff1681526020019081526020015f205f015482610cbc9190612fd3565b9250610d05856006015f8673ffffffffffffffffffffffffffffffffffffffff1673ffffffffffffffffffffffffffffffffffffffff1681526020019081526020015f20611f13565b90509250925092565b5f6fffffffffffffffffffffffffffffffff8016821115610d5b576040517ffab0c95e00000000000000000000000000000000000000000000000000000000815260040160405180910390fd5b819050919050565b5f8082604051602001610d76919061314d565b60405160208183030381529060405280519060200120905080915050919050565b5f805f610da342611fe7565b90505f86600301805490509050808610610dc4575f809350935050506110e7565b5f851480610ddd5750808587610dda9190612fd3565b10155b15610df1578581610dee9190612ef5565b94505b5f8690505f805b878110156110c5578467ffffffffffffffff168a6003018481548110610e2157610e20613033565b5b905f5260205f20015f0160109054906101000a900467ffffffffffffffff1667ffffffffffffffff1611611048577f8010cd0bb6d7e8c6b90d190ae9aa57b948406fc741828e4a12c68e31f1e705818a6003018481548110610e8657610e85613033565b5b905f5260205f20015f015f9054906101000a90046fffffffffffffffffffffffffffffffff168b6003018581548110610ec257610ec1613033565b5b905f5260205f20015f0160109054906101000a900467ffffffffffffffff16604051610eef9291906131b2565b60405180910390a18960030160018b60030180549050610f0f9190612ef5565b81548110610f2057610f1f613033565b5b905f5260205f20018a6003018481548110610f3e57610f3d613033565b5b905f5260205f20015f82015f9054906101000a90046fffffffffffffffffffffffffffffffff16815f015f6101000a8154816fffffffffffffffffffffffffffffffff02191690836fffffffffffffffffffffffffffffffff1602179055505f820160109054906101000a900467ffffffffffffffff16815f0160106101000a81548167ffffffffffffffff021916908367ffffffffffffffff16021790555090505089600301805480610ff557610ff46131d9565b5b600190038181905f5260205f20015f8082015f6101000a8154906fffffffffffffffffffffffffffffffff02191690555f820160106101000a81549067ffffffffffffffff0219169055505090556110b2565b89600301838154811061105e5761105d613033565b5b905f5260205f20015f015f9054906101000a90046fffffffffffffffffffffffffffffffff166fffffffffffffffffffffffffffffffff16826110a19190612fd3565b915082806110ae90613060565b9350505b80806110bd90613060565b915050610df8565b508187896110d39190612fd3565b6110dd9190612ef5565b8195509550505050505b935093915050565b611100816110fb61124b565b612034565b61114157806040517f7e023fb70000000000000000000000000000000000000000000000000000000081526004016111389190613206565b60405180910390fd5b50565b61114d8161166b565b5f015f9054906101000a900460ff1661119d57806040517fc109f9e8000000000000000000000000000000000000000000000000000000008152600401611194919061321f565b60405180910390fd5b50565b5f806111ab83610d63565b90505f73ffffffffffffffffffffffffffffffffffffffff16816001015f015f9054906101000a900473ffffffffffffffffffffffffffffffffffffffff1673ffffffffffffffffffffffffffffffffffffffff160361124257826040517f0e296c980000000000000000000000000000000000000000000000000000000081526004016112399190613238565b60405180910390fd5b80915050919050565b5f61125533612099565b8015611265575060145f36905010155b1561127957601436033560601c9050611281565b339050611282565b5b90565b5f808573ffffffffffffffffffffffffffffffffffffffff166323b872dd60e01b8686866040516024016112bb93929190613251565b604051602081830303815290604052907bffffffffffffffffffffffffffffffffffffffffffffffffffffffff19166020820180517bffffffffffffffffffffffffffffffffffffffffffffffffffffffff838183161783525050505060405161132591906132f2565b5f604051808303815f865af19150503d805f811461135e576040519150601f19603f3d011682016040523d82523d5f602084013e611363565b606091505b509150915081158061139357505f815114158015611392575080806020019051810190611390919061333d565b155b5b156113d9578484846040517f3210e1d90000000000000000000000000000000000000000000000000000000081526004016113d093929190613251565b60405180910390fd5b505050505050565b5f80856006015f8673ffffffffffffffffffffffffffffffffffffffff1673ffffffffffffffffffffffffffffffffffffffff1681526020019081526020015f2060030190505f818054905090505f61148386868a6006015f8b73ffffffffffffffffffffffffffffffffffffffff1673ffffffffffffffffffffffffffffffffffffffff1681526020019081526020015f20610d979092919063ffffffff16565b9150505f8103611498575f9350505050611663565b5f886006015f8973ffffffffffffffffffffffffffffffffffffffff1673ffffffffffffffffffffffffffffffffffffffff1681526020019081526020015f205f01546114e58a8a611e23565b6114ef9190612fd3565b90505f8714801561150a57505f8614806115095750828610155b5b801561151557508082115b1561165b575f848054905090505f5b818110156115fa57611595848488848154811061154457611543613033565b5b905f5260205f20015f015f9054906101000a90046fffffffffffffffffffffffffffffffff166fffffffffffffffffffffffffffffffff166115869190613368565b61159091906133d6565b610d0e565b8682815481106115a8576115a7613033565b5b905f5260205f20015f015f6101000a8154816fffffffffffffffffffffffffffffffff02191690836fffffffffffffffffffffffffffffffff16021790555080806115f290613060565b915050611524565b507ff0a0e39a26580b0a52daf2e0179695c3fbad3585ec250ca1b8eb4a6cec832b808a5f015f9054906101000a90046fffffffffffffffffffffffffffffffff168a848660405161164e9493929190613406565b60405180910390a1819250505b819450505050505b949350505050565b5f808260405160200161167e91906134b9565b60405160208183030381529060405280519060200120905080915050919050565b5f8073ffffffffffffffffffffffffffffffffffffffff16836005015f9054906101000a900473ffffffffffffffffffffffffffffffffffffffff1673ffffffffffffffffffffffffffffffffffffffff1603611728576040517fb669160e00000000000000000000000000000000000000000000000000000000815260040160405180910390fd5b826005015f9054906101000a900473ffffffffffffffffffffffffffffffffffffffff1673ffffffffffffffffffffffffffffffffffffffff1663313ce5676040518163ffffffff1660e01b8152600401602060405180830381865afa9250505080156117b357506040513d601f19601f820116820180604052508101906117b0919061351b565b60015b6117bf578190506118aa565b60128160ff16036117d2578291506118a8565b60128160ff1610156118105780600a6117eb9190613675565b670de0b6b3a7640000846117ff9190613368565b61180991906133d6565b91506118a7565b5f60128261181e91906136bf565b600a61182a9190613675565b8461183591906136f3565b146118795782816040517f50da4e4e000000000000000000000000000000000000000000000000000000008152600401611870929190613732565b60405180910390fd5b80600a6118869190613675565b670de0b6b3a76400008461189a9190613368565b6118a491906133d6565b91505b5b505b92915050565b80825f015f8282546118c29190612fd3565b925050819055505050565b5f6118da83835f1b6120e4565b5f1c905092915050565b5f6118ee84610d63565b905061190f836118fc61124b565b83600101611d579092919063ffffffff16565b61195b57838361191d61124b565b6040517f01de5522000000000000000000000000000000000000000000000000000000008152600401611952939291906130ce565b60405180910390fd5b5f82826005015f9054906101000a900467ffffffffffffffff1667ffffffffffffffff166119899190612fd3565b90508042108015611a26575060016119ed7f6163636f756e744f76657272696465576974686472617754696d656f75740000876040516020016119cd929190613759565b6040516020818303038152906040528051906020012063bbf81e006118cd565b836005015f9054906101000a900467ffffffffffffffff1667ffffffffffffffff16611a199190612fd3565b611a239190612ef5565b42105b8015611ac557506001611a8c7f73656e6465724f76657272696465576974686472617754696d656f7574000000611a5b61124b565b604051602001611a6c929190613780565b6040516020818303038152906040528051906020012063bbf81e006118cd565b836005015f9054906101000a900467ffffffffffffffff1667ffffffffffffffff16611ab89190612fd3565b611ac29190612ef5565b42105b15611b0b578442826040517f877e96bc000000000000000000000000000000000000000000000000000000008152600401611b02939291906137a7565b60405180910390fd5b509392505050565b80825f01541015611b6057815f0154816040517fb5eb085a000000000000000000000000000000000000000000000000000000008152600401611b57929190612b18565b60405180910390fd5b80825f015f828254611b729190612ef5565b925050819055505050565b5f8273ffffffffffffffffffffffffffffffffffffffff166370a08231836040518263ffffffff1660e01b8152600401611bb7919061321f565b602060405180830381865afa158015611bd2573d5f803e3d5ffd5b505050506040513d601f19601f82011682018060405250810190611bf69190612fa8565b905092915050565b5f808473ffffffffffffffffffffffffffffffffffffffff1663a9059cbb60e01b8585604051602401611c329291906137dc565b604051602081830303815290604052907bffffffffffffffffffffffffffffffffffffffffffffffffffffffff19166020820180517bffffffffffffffffffffffffffffffffffffffffffffffffffffffff8381831617835250505050604051611c9c91906132f2565b5f604051808303815f865af19150503d805f8114611cd5576040519150601f19603f3d011682016040523d82523d5f602084013e611cda565b606091505b5091509150811580611d0a57505f815114158015611d09575080806020019051810190611d07919061333d565b155b5b15611d50573084846040517f3210e1d9000000000000000000000000000000000000000000000000000000008152600401611d4793929190613251565b60405180910390fd5b5050505050565b5f835f015f9054906101000a900473ffffffffffffffffffffffffffffffffffffffff1673ffffffffffffffffffffffffffffffffffffffff168273ffffffffffffffffffffffffffffffffffffffff161480611ddb5750611dda847f41444d494e00000000000000000000000000000000000000000000000000000084612127565b5b80611ded5750611dec848484612127565b5b90509392505050565b42816005015f6101000a81548167ffffffffffffffff021916908367ffffffffffffffff16021790555050565b5f805f90505f846006015f8573ffffffffffffffffffffffffffffffffffffffff1673ffffffffffffffffffffffffffffffffffffffff1681526020019081526020015f2060010190505f600190505b611e7c826121ba565b8111611f07575f611e9e611e9983856121cd90919063ffffffff16565b610d0e565b90505f611eaa826121ea565b90505f611ee0888a5f015f9054906101000a90046fffffffffffffffffffffffffffffffff168461221e9092919063ffffffff16565b5090508086611eef9190612fd3565b95505050508080611eff90613060565b915050611e73565b50819250505092915050565b5f80611f1e42611fe7565b90505f805f90505b8460030180549050811015611fdc575f856003018281548110611f4c57611f4b613033565b5b905f5260205f200190508367ffffffffffffffff16815f0160109054906101000a900467ffffffffffffffff1667ffffffffffffffff161115611fc857805f015f9054906101000a90046fffffffffffffffffffffffffffffffff166fffffffffffffffffffffffffffffffff1683611fc59190612fd3565b92505b508080611fd490613060565b915050611f26565b508092505050919050565b5f67ffffffffffffffff801682111561202c576040517f72b1c34f00000000000000000000000000000000000000000000000000000000815260040160405180910390fd5b819050919050565b5f8061203f846122bc565b90508060010160019054906101000a900460ff1615612061575f915050612093565b806001015f9054906101000a900460ff168061208f575061208e83826002016122f090919063ffffffff16565b5b9150505b92915050565b5f73e2c5658cc5c448b48141168f3e475df8f65a1e3e73ffffffffffffffffffffffffffffffffffffffff168273ffffffffffffffffffffffffffffffffffffffff16149050919050565b5f80836040516020016120f7919061384d565b604051602081830303815290604052805190602001209050805491505f801b8203612120578291505b5092915050565b5f8073ffffffffffffffffffffffffffffffffffffffff168273ffffffffffffffffffffffffffffffffffffffff16141580156121b157506121b083856001015f8573ffffffffffffffffffffffffffffffffffffffff1673ffffffffffffffffffffffffffffffffffffffff1681526020019081526020015f2061232390919063ffffffff16565b5b90509392505050565b5f6121c6825f01612343565b9050919050565b5f6121e26121dd845f0184612352565b6123d4565b905092915050565b5f80826040516020016121fd91906138c3565b60405160208183030381529060405280519060200120905080915050919050565b5f8061227183866008015f8773ffffffffffffffffffffffffffffffffffffffff1673ffffffffffffffffffffffffffffffffffffffff1681526020019081526020015f206123df90919063ffffffff16565b91505f80612290846122828861166b565b61240390919063ffffffff16565b9150915061229d81612658565b6122b0848361266e90919063ffffffff16565b92505050935093915050565b5f80826040516020016122cf919061395f565b60405160208183030381529060405280519060200120905080915050919050565b5f61231b835f016123168473ffffffffffffffffffffffffffffffffffffffff16612696565b612323565b905092915050565b5f80836001015f8481526020019081526020015f20541415905092915050565b5f815f01805490509050919050565b5f808214806123665750825f018054905082115b1561239d576040517feb9bc44700000000000000000000000000000000000000000000000000000000815260040160405180910390fd5b5f6001836123ab9190612ef5565b9050835f0181815481106123c2576123c1613033565b5b905f5260205f20015491505092915050565b5f815f1c9050919050565b5f6123fb826123ed856126b7565b6126d590919063ffffffff16565b905092915050565b5f60605f61240f61270e565b6040518060200160405290815f82015f9054906101000a900473ffffffffffffffffffffffffffffffffffffffff1673ffffffffffffffffffffffffffffffffffffffff1673ffffffffffffffffffffffffffffffffffffffff168152505090505f600167ffffffffffffffff81111561248c5761248b613006565b5b6040519080825280602002602001820160405280156124ba5781602001602082028036833780820191505090505b5090505f600167ffffffffffffffff8111156124d9576124d8613006565b5b6040519080825280602002602001820160405280156125075781602001602082028036833780820191505090505b5090507f73697a6500000000000000000000000000000000000000000000000000000000825f8151811061253e5761253d613033565b5b602002602001018181525050855f1b815f815181106125605761255f613033565b5b602002602001018181525050825f015173ffffffffffffffffffffffffffffffffffffffff1663daa250be886004015484846040518463ffffffff1660e01b81526004016125b093929190613a42565b608060405180830381865afa9250505080156125ea57506040513d601f19601f820116820180604052508101906125e79190613b8c565b60015b61262d573d805f8114612618576040519150601f19603f3d011682016040523d82523d5f602084013e61261d565b606091505b505f819550955050505050612651565b612639815f015161273e565b60405180602001604052805f81525095509550505050505b9250929050565b5f8151111561266b5761266a81612781565b5b50565b5f670de0b6b3a764000082846126849190613368565b61268e91906133d6565b905092915050565b5f8173ffffffffffffffffffffffffffffffffffffffff165f1b9050919050565b5f816003015f835f015481526020019081526020015f209050919050565b5f6127066126f4836fffffffffffffffffffffffffffffffff166127c6565b846003016127e390919063ffffffff16565b905092915050565b5f8060405160200161271f90613c27565b6040516020818303038152906040528051906020012090508091505090565b5f80821215612779576040517f14f8126800000000000000000000000000000000000000000000000000000000815260040160405180910390fd5b819050919050565b5f815190505f81036127bf576040517f123b260300000000000000000000000000000000000000000000000000000000815260040160405180910390fd5b8060208301fd5b5f816fffffffffffffffffffffffffffffffff165f1b9050919050565b5f80835f015f9054906101000a90046fffffffffffffffffffffffffffffffff166fffffffffffffffffffffffffffffffff1690505f8103612828575f91505061285e565b8061283285612864565b856001015f8681526020019081526020015f20546128509190613368565b61285a91906133d6565b9150505b92915050565b5f6b033b2e3c9fd0803ce8000000825f015f9054906101000a90046fffffffffffffffffffffffffffffffff166fffffffffffffffffffffffffffffffff166128d66b033b2e3c9fd0803ce8000000855f0160109054906101000a9004600f0b600f0b6128d19190613c45565b61273e565b6128e09190613368565b6128ea91906133d6565b9050919050565b60405180604001604052805f6fffffffffffffffffffffffffffffffff1681526020015f67ffffffffffffffff1681525090565b5f604051905090565b5f80fd5b5f6fffffffffffffffffffffffffffffffff82169050919050565b61295681612932565b8114612960575f80fd5b50565b5f813590506129718161294d565b92915050565b5f73ffffffffffffffffffffffffffffffffffffffff82169050919050565b5f6129a082612977565b9050919050565b6129b081612996565b81146129ba575f80fd5b50565b5f813590506129cb816129a7565b92915050565b5f819050919050565b6129e3816129d1565b81146129ed575f80fd5b50565b5f813590506129fe816129da565b92915050565b5f67ffffffffffffffff82169050919050565b612a2081612a04565b8114612a2a575f80fd5b50565b5f81359050612a3b81612a17565b92915050565b5f805f8060808587031215612a5957612a5861292e565b5b5f612a6687828801612963565b9450506020612a77878288016129bd565b9350506040612a88878288016129f0565b9250506060612a9987828801612a2d565b91505092959194509250565b5f805f8060808587031215612abd57612abc61292e565b5b5f612aca87828801612963565b9450506020612adb878288016129bd565b9350506040612aec878288016129f0565b9250506060612afd878288016129f0565b91505092959194509250565b612b12816129d1565b82525050565b5f604082019050612b2b5f830185612b09565b612b386020830184612b09565b9392505050565b5f805f60608486031215612b5657612b5561292e565b5b5f612b6386828701612963565b9350506020612b74868287016129bd565b9250506040612b85868287016129f0565b9150509250925092565b5f8060408385031215612ba557612ba461292e565b5b5f612bb285828601612963565b9250506020612bc3858286016129bd565b9150509250929050565b5f602082019050612be05f830184612b09565b92915050565b5f81519050919050565b5f82825260208201905092915050565b5f819050602082019050919050565b612c1881612932565b82525050565b612c2781612a04565b82525050565b604082015f820151612c415f850182612c0f565b506020820151612c546020850182612c1e565b50505050565b5f612c658383612c2d565b60408301905092915050565b5f602082019050919050565b5f612c8782612be6565b612c918185612bf0565b9350612c9c83612c00565b805f5b83811015612ccc578151612cb38882612c5a565b9750612cbe83612c71565b925050600181019050612c9f565b5085935050505092915050565b5f6020820190508181035f830152612cf18184612c7d565b905092915050565b5f606082019050612d0c5f830186612b09565b612d196020830185612b09565b612d266040830184612b09565b949350505050565b5f82825260208201905092915050565b7f65787069726554696d657374616d7000000000000000000000000000000000005f82015250565b5f612d72600f83612d2e565b9150612d7d82612d3e565b602082019050919050565b7f6d75737420626520696e207468652066757475726500000000000000000000005f82015250565b5f612dbc601583612d2e565b9150612dc782612d88565b602082019050919050565b5f6040820190508181035f830152612de981612d66565b90508181036020830152612dfc81612db0565b9050919050565b7f616d6f756e7400000000000000000000000000000000000000000000000000005f82015250565b5f612e37600683612d2e565b9150612e4282612e03565b602082019050919050565b7f6d757374206265206e6f6e7a65726f00000000000000000000000000000000005f82015250565b5f612e81600f83612d2e565b9150612e8c82612e4d565b602082019050919050565b5f6040820190508181035f830152612eae81612e2b565b90508181036020830152612ec181612e75565b9050919050565b7f4e487b71000000000000000000000000000000000000000000000000000000005f52601160045260245ffd5b5f612eff826129d1565b9150612f0a836129d1565b9250828203905081811115612f2257612f21612ec8565b5b92915050565b612f3181612a04565b82525050565b5f604082019050612f4a5f830185612b09565b612f576020830184612f28565b9392505050565b612f6781612996565b82525050565b5f604082019050612f805f830185612f5e565b612f8d6020830184612f5e565b9392505050565b5f81519050612fa2816129da565b92915050565b5f60208284031215612fbd57612fbc61292e565b5b5f612fca84828501612f94565b91505092915050565b5f612fdd826129d1565b9150612fe8836129d1565b925082820190508082111561300057612fff612ec8565b5b92915050565b7f4e487b71000000000000000000000000000000000000000000000000000000005f52604160045260245ffd5b7f4e487b71000000000000000000000000000000000000000000000000000000005f52603260045260245ffd5b5f61306a826129d1565b91507fffffffffffffffffffffffffffffffffffffffffffffffffffffffffffffffff820361309c5761309b612ec8565b5b600182019050919050565b6130b081612932565b82525050565b5f819050919050565b6130c8816130b6565b82525050565b5f6060820190506130e15f8301866130a7565b6130ee60208301856130bf565b6130fb6040830184612f5e565b949350505050565b7f696f2e73796e7468657469782e73796e7468657469782e4163636f756e7400005f82015250565b5f613137601e83612d2e565b915061314282613103565b602082019050919050565b5f6040820190508181035f8301526131648161312b565b905061317360208301846130a7565b92915050565b5f819050919050565b5f61319c61319761319284612932565b613179565b6129d1565b9050919050565b6131ac81613182565b82525050565b5f6040820190506131c55f8301856131a3565b6131d26020830184612f28565b9392505050565b7f4e487b71000000000000000000000000000000000000000000000000000000005f52603160045260245ffd5b5f6020820190506132195f8301846130bf565b92915050565b5f6020820190506132325f830184612f5e565b92915050565b5f60208201905061324b5f8301846130a7565b92915050565b5f6060820190506132645f830186612f5e565b6132716020830185612f5e565b61327e6040830184612b09565b949350505050565b5f81519050919050565b5f81905092915050565b5f5b838110156132b757808201518184015260208101905061329c565b5f8484015250505050565b5f6132cc82613286565b6132d68185613290565b93506132e681856020860161329a565b80840191505092915050565b5f6132fd82846132c2565b915081905092915050565b5f8115159050919050565b61331c81613308565b8114613326575f80fd5b50565b5f8151905061333781613313565b92915050565b5f602082840312156133525761335161292e565b5b5f61335f84828501613329565b91505092915050565b5f613372826129d1565b915061337d836129d1565b925082820261338b816129d1565b915082820484148315176133a2576133a1612ec8565b5b5092915050565b7f4e487b71000000000000000000000000000000000000000000000000000000005f52601260045260245ffd5b5f6133e0826129d1565b91506133eb836129d1565b9250826133fb576133fa6133a9565b5b828204905092915050565b5f6080820190506134195f8301876130a7565b6134266020830186612f5e565b6134336040830185612b09565b6134406060830184612b09565b95945050505050565b7f696f2e73796e7468657469782e73796e7468657469782e436f6c6c61746572615f8201527f6c436f6e66696775726174696f6e000000000000000000000000000000000000602082015250565b5f6134a3602e83612d2e565b91506134ae82613449565b604082019050919050565b5f6040820190508181035f8301526134d081613497565b90506134df6020830184612f5e565b92915050565b5f60ff82169050919050565b6134fa816134e5565b8114613504575f80fd5b50565b5f81519050613515816134f1565b92915050565b5f602082840312156135305761352f61292e565b5b5f61353d84828501613507565b91505092915050565b5f8160011c9050919050565b5f808291508390505b600185111561359b5780860481111561357757613576612ec8565b5b60018516156135865780820291505b808102905061359485613546565b945061355b565b94509492505050565b5f826135b3576001905061366e565b816135c0575f905061366e565b81600181146135d657600281146135e05761360f565b600191505061366e565b60ff8411156135f2576135f1612ec8565b5b8360020a91508482111561360957613608612ec8565b5b5061366e565b5060208310610133831016604e8410600b84101617156136445782820a90508381111561363f5761363e612ec8565b5b61366e565b6136518484846001613552565b9250905081840481111561366857613667612ec8565b5b81810290505b9392505050565b5f61367f826129d1565b915061368a836134e5565b92506136b77fffffffffffffffffffffffffffffffffffffffffffffffffffffffffffffffff84846135a4565b905092915050565b5f6136c9826134e5565b91506136d4836134e5565b9250828203905060ff8111156136ed576136ec612ec8565b5b92915050565b5f6136fd826129d1565b9150613708836129d1565b925082613718576137176133a9565b5b828206905092915050565b61372c816134e5565b82525050565b5f6040820190506137455f830185612b09565b6137526020830184613723565b9392505050565b5f60408201905061376c5f8301856130bf565b61377960208301846130a7565b9392505050565b5f6040820190506137935f8301856130bf565b6137a06020830184612f5e565b9392505050565b5f6060820190506137ba5f8301866130a7565b6137c76020830185612b09565b6137d46040830184612b09565b949350505050565b5f6040820190506137ef5f830185612f5e565b6137fc6020830184612b09565b9392505050565b7f436f6e66696700000000000000000000000000000000000000000000000000005f82015250565b5f613837600683612d2e565b915061384282613803565b602082019050919050565b5f6040820190508181035f8301526138648161382b565b905061387360208301846130bf565b92915050565b7f696f2e73796e7468657469782e73796e7468657469782e506f6f6c00000000005f82015250565b5f6138ad601b83612d2e565b91506138b882613879565b602082019050919050565b5f6040820190508181035f8301526138da816138a1565b90506138e960208301846130a7565b92915050565b7f696f2e73796e7468657469782e636f72652d6d6f64756c65732e4665617475725f8201527f65466c6167000000000000000000000000000000000000000000000000000000602082015250565b5f613949602583612d2e565b9150613954826138ef565b604082019050919050565b5f6040820190508181035f8301526139768161393d565b905061398560208301846130bf565b92915050565b5f81519050919050565b5f82825260208201905092915050565b5f819050602082019050919050565b6139bd816130b6565b82525050565b5f6139ce83836139b4565b60208301905092915050565b5f602082019050919050565b5f6139f08261398b565b6139fa8185613995565b9350613a05836139a5565b805f5b83811015613a35578151613a1c88826139c3565b9750613a27836139da565b925050600181019050613a08565b5085935050505092915050565b5f606082019050613a555f8301866130bf565b8181036020830152613a6781856139e6565b90508181036040830152613a7b81846139e6565b9050949350505050565b5f80fd5b5f601f19601f8301169050919050565b613aa282613a89565b810181811067ffffffffffffffff82111715613ac157613ac0613006565b5b80604052505050565b5f613ad3612925565b9050613adf8282613a99565b919050565b5f819050919050565b613af681613ae4565b8114613b00575f80fd5b50565b5f81519050613b1181613aed565b92915050565b5f60808284031215613b2c57613b2b613a85565b5b613b366080613aca565b90505f613b4584828501613b03565b5f830152506020613b5884828501612f94565b6020830152506040613b6c84828501612f94565b6040830152506060613b8084828501612f94565b60608301525092915050565b5f60808284031215613ba157613ba061292e565b5b5f613bae84828501613b17565b91505092915050565b7f696f2e73796e7468657469782e73796e7468657469782e4f7261636c654d616e5f8201527f6167657200000000000000000000000000000000000000000000000000000000602082015250565b5f613c11602483612d2e565b9150613c1c82613bb7565b604082019050919050565b5f6020820190508181035f830152613c3e81613c05565b9050919050565b5f613c4f82613ae4565b9150613c5a83613ae4565b92508282019050828112155f8312168382125f841215161715613c8057613c7f612ec8565b5b9291505056","linkReferences":{}},"methodIdentifiers":{"cleanExpiredLocks(uint128,address,uint256,uint256)":"198f0aa1","createLock(uint128,address,uint256,uint64)":"0bae9893","deposit(uint128,address,uint256)":"83802968","getAccountAvailableCollateral(uint128,address)":"927482ff","getAccountCollateral(uint128,address)":"ef45148e","getLocks(uint128,address,uint256,uint256)":"aa8c6369","withdraw(uint128,address,uint256)":"95997c51"},"id":132}