{"abi":[{"type":"function","name":"deployAnySelfIdentityVerificationHub","inputs":[],"outputs":[{"name":"","type":"address","internalType":"address"}],"stateMutability":"nonpayable"}],"bytecode":{"object":"0x6080604052604051806104a0016040528061047c81526020016104f461047c91395f908161002d9190610279565b50348015610039575f80fd5b50610348565b5f81519050919050565b7f4e487b71000000000000000000000000000000000000000000000000000000005f52604160045260245ffd5b7f4e487b71000000000000000000000000000000000000000000000000000000005f52602260045260245ffd5b5f60028204905060018216806100ba57607f821691505b6020821081036100cd576100cc610076565b5b50919050565b5f819050815f5260205f209050919050565b5f6020601f8301049050919050565b5f82821b905092915050565b5f6008830261012f7fffffffffffffffffffffffffffffffffffffffffffffffffffffffffffffffff826100f4565b61013986836100f4565b95508019841693508086168417925050509392505050565b5f819050919050565b5f819050919050565b5f61017d61017861017384610151565b61015a565b610151565b9050919050565b5f819050919050565b61019683610163565b6101aa6101a282610184565b848454610100565b825550505050565b5f90565b6101be6101b2565b6101c981848461018d565b505050565b5b818110156101ec576101e15f826101b6565b6001810190506101cf565b5050565b601f82111561023157610202816100d3565b61020b846100e5565b8101602085101561021a578190505b61022e610226856100e5565b8301826101ce565b50505b505050565b5f82821c905092915050565b5f6102515f1984600802610236565b1980831691505092915050565b5f6102698383610242565b9150826002028217905092915050565b6102828261003f565b67ffffffffffffffff81111561029b5761029a610049565b5b6102a582546100a3565b6102b08282856101f0565b5f60209050601f8311600181146102e1575f84156102cf578287015190505b6102d9858261025e565b865550610340565b601f1984166102ef866100d3565b5f5b82811015610316578489015182556001820191506020850194506020810190506102f1565b86831015610333578489015161032f601f891682610242565b8355505b6001600288020188555050505b505050505050565b61019f806103555f395ff3fe608060405234801561000f575f80fd5b5060043610610029575f3560e01c8063181aabc31461002d575b5f80fd5b61003561004b565b6040516100429190610129565b60405180910390f35b5f805f80805461005a9061016f565b80601f01602080910402602001604051908101604052809291908181526020018280546100869061016f565b80156100d15780601f106100a8576101008083540402835291602001916100d1565b820191905f5260205f20905b8154815290600101906020018083116100b457829003601f168201915b505050505090508051602082015ff09150819250505090565b5f73ffffffffffffffffffffffffffffffffffffffff82169050919050565b5f610113826100ea565b9050919050565b61012381610109565b82525050565b5f60208201905061013c5f83018461011a565b92915050565b7f4e487b71000000000000000000000000000000000000000000000000000000005f52602260045260245ffd5b5f600282049050600182168061018657607f821691505b60208210810361019957610198610142565b5b5091905056608060405234801561001057600080fd5b506040516103fc3803806103fc83398101604081905261002f9161027d565b8181818161003d8282610048565b50505050505061036d565b610051826100a7565b6040516001600160a01b038316907fbc7cd75a20ee27fd9adebab32041f755214dbc6bffa90cc0225b39da2e5c2d3b90600090a280511561009b576100968282610123565b505050565b6100a361019a565b5050565b806001600160a01b03163b6000036100e257604051634c9c8ce360e01b81526001600160a01b03821660048201526024015b60405180910390fd5b7f360894a13ba1a3210667c828492db98dca3e2076cc3735a920a3ca505d382bbc80546001600160a01b0319166001600160a01b0392909216919091179055565b6060600080846001600160a01b0316846040516101409190610351565b600060405180830381855af49150503d806000811461017b576040519150601f19603f3d011682016040523d82523d6000602084013e610180565b606091505b5090925090506101918583836101bb565b95945050505050565b34156101b95760405163b398979f60e01b815260040160405180910390fd5b565b6060826101d0576101cb8261021a565b610213565b81511580156101e757506001600160a01b0384163b155b1561021057604051639996b31560e01b81526001600160a01b03851660048201526024016100d9565b50805b9392505050565b80511561022a5780518082602001fd5b60405163d6bda27560e01b815260040160405180910390fd5b634e487b7160e01b600052604160045260246000fd5b60005b8381101561027457818101518382015260200161025c565b50506000910152565b6000806040838503121561029057600080fd5b82516001600160a01b03811681146102a757600080fd5b60208401519092506001600160401b038111156102c357600080fd5b8301601f810185136102d457600080fd5b80516001600160401b038111156102ed576102ed610243565b604051601f8201601f19908116603f011681016001600160401b038111828210171561031b5761031b610243565b60405281815282820160200187101561033357600080fd5b610344826020830160208601610259565b8093505050509250929050565b60008251610363818460208701610259565b9190910192915050565b60818061037b6000396000f3fe6080604052600a600c565b005b60186014601a565b6051565b565b6000604c7f360894a13ba1a3210667c828492db98dca3e2076cc3735a920a3ca505d382bbc546001600160a01b031690565b905090565b3660008037600080366000845af43d6000803e808015606f573d6000f35b3d6000fdfea164736f6c634300081c000a00000000000000000000000060f1d5139c57bd661a88519aad2cdc9136b7ab3e000000000000000000000000000000000000000000000000000000000000004000000000000000000000000000000000000000000000000000000000000000048129fc1c00000000000000000000000000000000000000000000000000000000","linkReferences":{}},"methodIdentifiers":{"deployAnySelfIdentityVerificationHub()":"181aabc3"},"id":231}