{"abi":[{"type":"constructor","inputs":[{"name":"_poolDeployer","type":"address","internalType":"address"}],"stateMutability":"nonpayable"},{"type":"function","name":"CUSTOM_POOL_DEPLOYER","inputs":[],"outputs":[{"name":"","type":"bytes32","internalType":"bytes32"}],"stateMutability":"view"},{"type":"function","name":"DEFAULT_ADMIN_ROLE","inputs":[],"outputs":[{"name":"","type":"bytes32","internalType":"bytes32"}],"stateMutability":"view"},{"type":"function","name":"POOLS_ADMINISTRATOR_ROLE","inputs":[],"outputs":[{"name":"","type":"bytes32","internalType":"bytes32"}],"stateMutability":"view"},{"type":"function","name":"POOL_INIT_CODE_HASH","inputs":[],"outputs":[{"name":"","type":"bytes32","internalType":"bytes32"}],"stateMutability":"view"},{"type":"function","name":"acceptOwnership","inputs":[],"outputs":[],"stateMutability":"nonpayable"},{"type":"function","name":"computeCustomPoolAddress","inputs":[{"name":"deployer","type":"address","internalType":"address"},{"name":"token0","type":"address","internalType":"address"},{"name":"token1","type":"address","internalType":"address"}],"outputs":[{"name":"customPool","type":"address","internalType":"address"}],"stateMutability":"view"},{"type":"function","name":"computePoolAddress","inputs":[{"name":"token0","type":"address","internalType":"address"},{"name":"token1","type":"address","internalType":"address"}],"outputs":[{"name":"pool","type":"address","internalType":"address"}],"stateMutability":"view"},{"type":"function","name":"createCustomPool","inputs":[{"name":"deployer","type":"address","internalType":"address"},{"name":"creator","type":"address","internalType":"address"},{"name":"tokenA","type":"address","internalType":"address"},{"name":"tokenB","type":"address","internalType":"address"},{"name":"data","type":"bytes","internalType":"bytes"}],"outputs":[{"name":"customPool","type":"address","internalType":"address"}],"stateMutability":"nonpayable"},{"type":"function","name":"createPool","inputs":[{"name":"tokenA","type":"address","internalType":"address"},{"name":"tokenB","type":"address","internalType":"address"},{"name":"data","type":"bytes","internalType":"bytes"}],"outputs":[{"name":"pool","type":"address","internalType":"address"}],"stateMutability":"nonpayable"},{"type":"function","name":"customPoolByPair","inputs":[{"name":"","type":"address","internalType":"address"},{"name":"","type":"address","internalType":"address"},{"name":"","type":"address","internalType":"address"}],"outputs":[{"name":"","type":"address","internalType":"address"}],"stateMutability":"view"},{"type":"function","name":"defaultCommunityFee","inputs":[],"outputs":[{"name":"","type":"uint16","internalType":"uint16"}],"stateMutability":"view"},{"type":"function","name":"defaultConfigurationForPool","inputs":[],"outputs":[{"name":"communityFee","type":"uint16","internalType":"uint16"},{"name":"tickSpacing","type":"int24","internalType":"int24"},{"name":"fee","type":"uint16","internalType":"uint16"}],"stateMutability":"view"},{"type":"function","name":"defaultFee","inputs":[],"outputs":[{"name":"","type":"uint16","internalType":"uint16"}],"stateMutability":"view"},{"type":"function","name":"defaultPluginFactory","inputs":[],"outputs":[{"name":"","type":"address","internalType":"contract IAlgebraPluginFactory"}],"stateMutability":"view"},{"type":"function","name":"defaultTickspacing","inputs":[],"outputs":[{"name":"","type":"int24","internalType":"int24"}],"stateMutability":"view"},{"type":"function","name":"getRoleAdmin","inputs":[{"name":"role","type":"bytes32","internalType":"bytes32"}],"outputs":[{"name":"","type":"bytes32","internalType":"bytes32"}],"stateMutability":"view"},{"type":"function","name":"getRoleMember","inputs":[{"name":"role","type":"bytes32","internalType":"bytes32"},{"name":"index","type":"uint256","internalType":"uint256"}],"outputs":[{"name":"","type":"address","internalType":"address"}],"stateMutability":"view"},{"type":"function","name":"getRoleMemberCount","inputs":[{"name":"role","type":"bytes32","internalType":"bytes32"}],"outputs":[{"name":"","type":"uint256","internalType":"uint256"}],"stateMutability":"view"},{"type":"function","name":"grantRole","inputs":[{"name":"role","type":"bytes32","internalType":"bytes32"},{"name":"account","type":"address","internalType":"address"}],"outputs":[],"stateMutability":"nonpayable"},{"type":"function","name":"hasRole","inputs":[{"name":"role","type":"bytes32","internalType":"bytes32"},{"name":"account","type":"address","internalType":"address"}],"outputs":[{"name":"","type":"bool","internalType":"bool"}],"stateMutability":"view"},{"type":"function","name":"hasRoleOrOwner","inputs":[{"name":"role","type":"bytes32","internalType":"bytes32"},{"name":"account","type":"address","internalType":"address"}],"outputs":[{"name":"","type":"bool","internalType":"bool"}],"stateMutability":"view"},{"type":"function","name":"owner","inputs":[],"outputs":[{"name":"","type":"address","internalType":"address"}],"stateMutability":"view"},{"type":"function","name":"pendingOwner","inputs":[],"outputs":[{"name":"","type":"address","internalType":"address"}],"stateMutability":"view"},{"type":"function","name":"poolByPair","inputs":[{"name":"","type":"address","internalType":"address"},{"name":"","type":"address","internalType":"address"}],"outputs":[{"name":"","type":"address","internalType":"address"}],"stateMutability":"view"},{"type":"function","name":"poolDeployer","inputs":[],"outputs":[{"name":"","type":"address","internalType":"address"}],"stateMutability":"view"},{"type":"function","name":"renounceOwnership","inputs":[],"outputs":[],"stateMutability":"nonpayable"},{"type":"function","name":"renounceOwnershipStartTimestamp","inputs":[],"outputs":[{"name":"","type":"uint256","internalType":"uint256"}],"stateMutability":"view"},{"type":"function","name":"renounceRole","inputs":[{"name":"role","type":"bytes32","internalType":"bytes32"},{"name":"account","type":"address","internalType":"address"}],"outputs":[],"stateMutability":"nonpayable"},{"type":"function","name":"revokeRole","inputs":[{"name":"role","type":"bytes32","internalType":"bytes32"},{"name":"account","type":"address","internalType":"address"}],"outputs":[],"stateMutability":"nonpayable"},{"type":"function","name":"setDefaultCommunityFee","inputs":[{"name":"newDefaultCommunityFee","type":"uint16","internalType":"uint16"}],"outputs":[],"stateMutability":"nonpayable"},{"type":"function","name":"setDefaultFee","inputs":[{"name":"newDefaultFee","type":"uint16","internalType":"uint16"}],"outputs":[],"stateMutability":"nonpayable"},{"type":"function","name":"setDefaultPluginFactory","inputs":[{"name":"newDefaultPluginFactory","type":"address","internalType":"address"}],"outputs":[],"stateMutability":"nonpayable"},{"type":"function","name":"setDefaultTickspacing","inputs":[{"name":"newDefaultTickspacing","type":"int24","internalType":"int24"}],"outputs":[],"stateMutability":"nonpayable"},{"type":"function","name":"setVaultFactory","inputs":[{"name":"newVaultFactory","type":"address","internalType":"address"}],"outputs":[],"stateMutability":"nonpayable"},{"type":"function","name":"startRenounceOwnership","inputs":[],"outputs":[],"stateMutability":"nonpayable"},{"type":"function","name":"stopRenounceOwnership","inputs":[],"outputs":[],"stateMutability":"nonpayable"},{"type":"function","name":"supportsInterface","inputs":[{"name":"interfaceId","type":"bytes4","internalType":"bytes4"}],"outputs":[{"name":"","type":"bool","internalType":"bool"}],"stateMutability":"view"},{"type":"function","name":"transferOwnership","inputs":[{"name":"newOwner","type":"address","internalType":"address"}],"outputs":[],"stateMutability":"nonpayable"},{"type":"function","name":"vaultFactory","inputs":[],"outputs":[{"name":"","type":"address","internalType":"contract IAlgebraVaultFactory"}],"stateMutability":"view"},{"type":"event","name":"CustomPool","inputs":[{"name":"deployer","type":"address","indexed":true,"internalType":"address"},{"name":"token0","type":"address","indexed":true,"internalType":"address"},{"name":"token1","type":"address","indexed":true,"internalType":"address"},{"name":"pool","type":"address","indexed":false,"internalType":"address"}],"anonymous":false},{"type":"event","name":"DefaultCommunityFee","inputs":[{"name":"newDefaultCommunityFee","type":"uint16","indexed":false,"internalType":"uint16"}],"anonymous":false},{"type":"event","name":"DefaultFee","inputs":[{"name":"newDefaultFee","type":"uint16","indexed":false,"internalType":"uint16"}],"anonymous":false},{"type":"event","name":"DefaultPluginFactory","inputs":[{"name":"defaultPluginFactoryAddress","type":"address","indexed":false,"internalType":"address"}],"anonymous":false},{"type":"event","name":"DefaultTickspacing","inputs":[{"name":"newDefaultTickspacing","type":"int24","indexed":false,"internalType":"int24"}],"anonymous":false},{"type":"event","name":"OwnershipTransferStarted","inputs":[{"name":"previousOwner","type":"address","indexed":true,"internalType":"address"},{"name":"newOwner","type":"address","indexed":true,"internalType":"address"}],"anonymous":false},{"type":"event","name":"OwnershipTransferred","inputs":[{"name":"previousOwner","type":"address","indexed":true,"internalType":"address"},{"name":"newOwner","type":"address","indexed":true,"internalType":"address"}],"anonymous":false},{"type":"event","name":"Pool","inputs":[{"name":"token0","type":"address","indexed":true,"internalType":"address"},{"name":"token1","type":"address","indexed":true,"internalType":"address"},{"name":"pool","type":"address","indexed":false,"internalType":"address"}],"anonymous":false},{"type":"event","name":"RenounceOwnershipFinish","inputs":[{"name":"timestamp","type":"uint256","indexed":false,"internalType":"uint256"}],"anonymous":false},{"type":"event","name":"RenounceOwnershipStart","inputs":[{"name":"timestamp","type":"uint256","indexed":false,"internalType":"uint256"},{"name":"finishTimestamp","type":"uint256","indexed":false,"internalType":"uint256"}],"anonymous":false},{"type":"event","name":"RenounceOwnershipStop","inputs":[{"name":"timestamp","type":"uint256","indexed":false,"internalType":"uint256"}],"anonymous":false},{"type":"event","name":"RoleAdminChanged","inputs":[{"name":"role","type":"bytes32","indexed":true,"internalType":"bytes32"},{"name":"previousAdminRole","type":"bytes32","indexed":true,"internalType":"bytes32"},{"name":"newAdminRole","type":"bytes32","indexed":true,"internalType":"bytes32"}],"anonymous":false},{"type":"event","name":"RoleGranted","inputs":[{"name":"role","type":"bytes32","indexed":true,"internalType":"bytes32"},{"name":"account","type":"address","indexed":true,"internalType":"address"},{"name":"sender","type":"address","indexed":true,"internalType":"address"}],"anonymous":false},{"type":"event","name":"RoleRevoked","inputs":[{"name":"role","type":"bytes32","indexed":true,"internalType":"bytes32"},{"name":"account","type":"address","indexed":true,"internalType":"address"},{"name":"sender","type":"address","indexed":true,"internalType":"address"}],"anonymous":false},{"type":"event","name":"VaultFactory","inputs":[{"name":"newVaultFactory","type":"address","indexed":false,"internalType":"address"}],"anonymous":false}],"bytecode":{"object":"0x60a060405234801562000010575f80fd5b506040516200433c3803806200433c833981810160405281019062000036919062000883565b620000566200004a6200018860201b60201c565b6200018f60201b60201c565b60016004819055505f73ffffffffffffffffffffffffffffffffffffffff168173ffffffffffffffffffffffffffffffffffffffff160362000096575f80fd5b8073ffffffffffffffffffffffffffffffffffffffff1660808173ffffffffffffffffffffffffffffffffffffffff1681525050603c600560046101000a81548162ffffff021916908360020b62ffffff1602179055506101f4600560026101000a81548161ffff021916908361ffff1602179055507f7d7979096f943139ebee59f01c077a0f0766d06c40c86d596f23ed2561547cce603c6040516200013e9190620008d0565b60405180910390a17fddc0c6f0b581e0d51bfe90ff138e4a548f94515c4dbcb12f5e98fdf0f75039836101f460405162000179919062000909565b60405180910390a150620009ee565b5f33905090565b620001b25f801b620001a66200022d60201b60201c565b6200024360201b60201c565b620001c3816200027f60201b60201c565b5f73ffffffffffffffffffffffffffffffffffffffff16620001ea6200022d60201b60201c565b73ffffffffffffffffffffffffffffffffffffffff16146200022a57620002295f801b6200021d6200022d60201b60201c565b620002b760201b60201c565b5b50565b5f6200023e620002f360201b60201c565b905090565b6200025582826200031a60201b60201c565b6200027a8160035f8581526020019081526020015f206200040660201b90919060201c565b505050565b60015f6101000a81549073ffffffffffffffffffffffffffffffffffffffff0219169055620002b4816200043b60201b60201c565b50565b620002c98282620004fc60201b60201c565b620002ee8160035f8581526020019081526020015f20620005e860201b90919060201c565b505050565b5f805f9054906101000a900473ffffffffffffffffffffffffffffffffffffffff16905090565b6200032c82826200061d60201b60201c565b1562000402575f60025f8481526020019081526020015f205f015f8373ffffffffffffffffffffffffffffffffffffffff1673ffffffffffffffffffffffffffffffffffffffff1681526020019081526020015f205f6101000a81548160ff021916908315150217905550620003a76200018860201b60201c565b73ffffffffffffffffffffffffffffffffffffffff168173ffffffffffffffffffffffffffffffffffffffff16837ff6391f5c32d9c69d2a47ea670b442974b53935d1edc7fd64eb21e047a839171b60405160405180910390a45b5050565b5f62000433835f018373ffffffffffffffffffffffffffffffffffffffff165f1b6200068160201b60201c565b905092915050565b5f805f9054906101000a900473ffffffffffffffffffffffffffffffffffffffff169050815f806101000a81548173ffffffffffffffffffffffffffffffffffffffff021916908373ffffffffffffffffffffffffffffffffffffffff1602179055508173ffffffffffffffffffffffffffffffffffffffff168173ffffffffffffffffffffffffffffffffffffffff167f8be0079c531659141344cd1fd0a4f28419497f9722a3daafe3b4186f6b6457e060405160405180910390a35050565b6200050e82826200061d60201b60201c565b620005e457600160025f8481526020019081526020015f205f015f8373ffffffffffffffffffffffffffffffffffffffff1673ffffffffffffffffffffffffffffffffffffffff1681526020019081526020015f205f6101000a81548160ff021916908315150217905550620005896200018860201b60201c565b73ffffffffffffffffffffffffffffffffffffffff168173ffffffffffffffffffffffffffffffffffffffff16837f2f8788117e7eff1d82e926ec794901d17c78024a50270940304540a733656f0d60405160405180910390a45b5050565b5f62000615835f018373ffffffffffffffffffffffffffffffffffffffff165f1b6200078d60201b60201c565b905092915050565b5f60025f8481526020019081526020015f205f015f8373ffffffffffffffffffffffffffffffffffffffff1673ffffffffffffffffffffffffffffffffffffffff1681526020019081526020015f205f9054906101000a900460ff16905092915050565b5f80836001015f8481526020019081526020015f205490505f811462000782575f600182620006b191906200095a565b90505f6001865f0180549050620006c991906200095a565b905081811462000736575f865f018281548110620006ec57620006eb62000994565b5b905f5260205f200154905080875f01848154811062000710576200070f62000994565b5b905f5260205f20018190555083876001015f8381526020019081526020015f2081905550505b855f018054806200074c576200074b620009c1565b5b600190038181905f5260205f20015f90559055856001015f8681526020019081526020015f205f90556001935050505062000787565b5f9150505b92915050565b5f620007a08383620007fe60201b60201c565b620007f457825f0182908060018154018082558091505060019003905f5260205f20015f9091909190915055825f0180549050836001015f8481526020019081526020015f208190555060019050620007f8565b5f90505b92915050565b5f80836001015f8481526020019081526020015f20541415905092915050565b5f80fd5b5f73ffffffffffffffffffffffffffffffffffffffff82169050919050565b5f6200084d8262000822565b9050919050565b6200085f8162000841565b81146200086a575f80fd5b50565b5f815190506200087d8162000854565b92915050565b5f602082840312156200089b576200089a6200081e565b5b5f620008aa848285016200086d565b91505092915050565b5f8160020b9050919050565b620008ca81620008b3565b82525050565b5f602082019050620008e55f830184620008bf565b92915050565b5f61ffff82169050919050565b6200090381620008eb565b82525050565b5f6020820190506200091e5f830184620008f8565b92915050565b5f819050919050565b7f4e487b71000000000000000000000000000000000000000000000000000000005f52601160045260245ffd5b5f620009668262000924565b9150620009738362000924565b92508282039050818111156200098e576200098d6200092d565b5b92915050565b7f4e487b71000000000000000000000000000000000000000000000000000000005f52603260045260245ffd5b7f4e487b71000000000000000000000000000000000000000000000000000000005f52603160045260245ffd5b60805161392062000a1c5f395f81816107ef01528181610aab015281816111520152611a4c01526139205ff3fe608060405234801561000f575f80fd5b506004361061023b575f3560e01c80637732658411610139578063d547741f116100b6578063dc6fd8ab1161007a578063dc6fd8ab146106a5578063e30c3978146106c3578063e8ae2b69146106e1578063f09489ac14610711578063f2fde38b1461072d5761023b565b8063d547741f146105db578063d8a06f73146105f7578063d8ed224114610615578063d9a641e114610645578063dbbf3db4146106755761023b565b806391d14854116100fd57806391d1485414610521578063a217fddf14610551578063b500a48b1461056f578063ca15c8731461058d578063d0ad2792146105bd5761023b565b8063773265841461049157806379ba5097146104ad5780638d5a8711146104b75780638da5cb5b146104d35780639010d07c146104f15761023b565b806329bc3446116101c757806336568abe1161018b57806336568abe146104275780633ea7fbdb14610443578063469388c41461045f5780635a6c72d014610469578063715018a6146104875761023b565b806329bc3446146103815780632f2ff15d1461039f5780632f8a39dd146103bb5780633119049a146103d9578063321935c6146103f75761023b565b8063238a1d741161020e578063238a1d74146102db57806323da36cc146102e5578063248a9ca31461031557806325b355d6146103455780632939dd97146103655761023b565b806301ffc9a71461023f578063078107541461026f578063084bfff91461028d5780631ba89df4146102ab575b5f80fd5b610259600480360381019061025491906129da565b610749565b6040516102669190612a1f565b60405180910390f35b6102776107c2565b6040516102849190612a50565b60405180910390f35b6102956107e6565b6040516102a29190612a81565b60405180910390f35b6102c560048036038101906102c09190612af4565b6107ec565b6040516102d29190612b53565b60405180910390f35b6102e361088f565b005b6102ff60048036038101906102fa9190612af4565b6108e4565b60405161030c9190612b53565b60405180910390f35b61032f600480360381019061032a9190612b96565b61092c565b60405161033c9190612a50565b60405180910390f35b61034d610949565b60405161035c93929190612bf8565b60405180910390f35b61037f600480360381019061037a9190612c2d565b610988565b005b610389610a62565b6040516103969190612c58565b60405180910390f35b6103b960048036038101906103b49190612c71565b610a75565b005b6103c3610a96565b6040516103d09190612caf565b60405180910390f35b6103e1610aa9565b6040516103ee9190612b53565b60405180910390f35b610411600480360381019061040c9190612d29565b610acd565b60405161041e9190612b53565b60405180910390f35b610441600480360381019061043c9190612c71565b610b38565b005b61045d60048036038101906104589190612c2d565b610bbb565b005b610467610ce7565b005b610471610d50565b60405161047e9190612caf565b60405180910390f35b61048f610d64565b005b6104ab60048036038101906104a69190612dc4565b610ddd565b005b6104b5610e75565b005b6104d160048036038101906104cc9190612dc4565b610f01565b005b6104db610ffb565b6040516104e89190612b53565b60405180910390f35b61050b60048036038101906105069190612e19565b611009565b6040516105189190612b53565b60405180910390f35b61053b60048036038101906105369190612c71565b611035565b6040516105489190612a1f565b60405180910390f35b610559611099565b6040516105669190612a50565b60405180910390f35b61057761109f565b6040516105849190612a50565b60405180910390f35b6105a760048036038101906105a29190612b96565b6110c3565b6040516105b49190612a81565b60405180910390f35b6105c56110e4565b6040516105d29190612eb2565b60405180910390f35b6105f560048036038101906105f09190612c71565b611109565b005b6105ff61112a565b60405161060c9190612eeb565b60405180910390f35b61062f600480360381019061062a9190612f04565b61114f565b60405161063c9190612b53565b60405180910390f35b61065f600480360381019061065a9190612f04565b6111ef565b60405161066c9190612b53565b60405180910390f35b61068f600480360381019061068a9190612f42565b61122c565b60405161069c9190612b53565b60405180910390f35b6106ad611302565b6040516106ba9190612a50565b60405180910390f35b6106cb611328565b6040516106d89190612b53565b60405180910390f35b6106fb60048036038101906106f69190612c71565b611350565b6040516107089190612a1f565b60405180910390f35b61072b60048036038101906107269190613002565b6113a0565b005b61074760048036038101906107429190612c2d565b61144b565b005b5f7f5a05180f000000000000000000000000000000000000000000000000000000007bffffffffffffffffffffffffffffffffffffffffffffffffffffffff1916827bffffffffffffffffffffffffffffffffffffffffffffffffffffffff191614806107bb57506107ba826114f7565b5b9050919050565b7fc9cf812513d9983585eb40fcfe6fd49fbb6a45815663ec33b30a6c6c7de3683b81565b60065481565b5f7f00000000000000000000000000000000000000000000000000000000000000008484846040516020016108239392919061302d565b604051602081830303815290604052805190602001207f62441ebe4e4315cf3d49d5957f94d66b253dbabe7006f34ad7f70947e60bf15c5f1b60405160200161086e9392919061311b565b604051602081830303815290604052805190602001205f1c90509392505050565b610897611570565b5f600654036108a4575f80fd5b5f6006819055507fa2492902a0a1d28dc73e6ab22e473239ef077bb7bc8174dc7dab9fc0818e7135426040516108da9190612a81565b60405180910390a1565b600a602052825f5260405f20602052815f5260405f20602052805f5260405f205f92509250509054906101000a900473ffffffffffffffffffffffffffffffffffffffff1681565b5f60025f8381526020019081526020015f20600101549050919050565b5f805f60055f9054906101000a900461ffff16600560049054906101000a900460020b600560029054906101000a900461ffff16925092509250909192565b610990611570565b60075f9054906101000a900473ffffffffffffffffffffffffffffffffffffffff1673ffffffffffffffffffffffffffffffffffffffff168173ffffffffffffffffffffffffffffffffffffffff16036109e8575f80fd5b8060075f6101000a81548173ffffffffffffffffffffffffffffffffffffffff021916908373ffffffffffffffffffffffffffffffffffffffff1602179055507f5e38e259ec1f8a38b98fc65a27e266bb9cc87c76eb8c96c957450d1cff4591ef81604051610a579190612b53565b60405180910390a150565b600560049054906101000a900460020b81565b610a7e8261092c565b610a87816115ee565b610a918383611602565b505050565b60055f9054906101000a900461ffff1681565b7f000000000000000000000000000000000000000000000000000000000000000081565b5f610ad6611634565b610b265f33878787878080601f0160208091040260200160405190810160405280939291908181526020018383808284375f81840152601f19601f82011690508083019250505050505050611683565b9050610b30612060565b949350505050565b610b4061206a565b73ffffffffffffffffffffffffffffffffffffffff168173ffffffffffffffffffffffffffffffffffffffff1614610bad576040517f08c379a0000000000000000000000000000000000000000000000000000000008152600401610ba4906131e2565b60405180910390fd5b610bb78282612071565b5050565b610bc3611570565b60085f9054906101000a900473ffffffffffffffffffffffffffffffffffffffff1673ffffffffffffffffffffffffffffffffffffffff168173ffffffffffffffffffffffffffffffffffffffff1603610c1b575f80fd5b5f73ffffffffffffffffffffffffffffffffffffffff168173ffffffffffffffffffffffffffffffffffffffff1603610c6d575f60055f9054906101000a900461ffff1661ffff1614610c6c575f80fd5b5b8060085f6101000a81548173ffffffffffffffffffffffffffffffffffffffff021916908373ffffffffffffffffffffffffffffffffffffffff1602179055507fa006ea05a14783821b0248e75d2342cd1681b07509e10a0f08487b080c29dea881604051610cdc9190612b53565b60405180910390a150565b610cef611570565b5f60065414610cfc575f80fd5b426006819055507fcd60f5d54996130c21c3f063279b39230bcbafc12f763a1ac1dfaec2e9b61d2960065462015180600654610d38919061322d565b604051610d46929190613260565b60405180910390a1565b600560029054906101000a900461ffff1681565b610d6c611570565b5f60065403610d79575f80fd5b6201518060065442610d8b9190613287565b1015610d95575f80fd5b5f600681905550610da46120a3565b7fa24203c457ce43a097fa0c491fc9cf5e0a893af87a5e0a9785f29491deb11e2342604051610dd39190612a81565b60405180910390a1565b610de5611570565b61c35061ffff168161ffff161115610dfb575f80fd5b8061ffff16600560029054906101000a900461ffff1661ffff1603610e1e575f80fd5b80600560026101000a81548161ffff021916908361ffff1602179055507fddc0c6f0b581e0d51bfe90ff138e4a548f94515c4dbcb12f5e98fdf0f750398381604051610e6a9190612caf565b60405180910390a150565b5f610e7e61206a565b90508073ffffffffffffffffffffffffffffffffffffffff16610e9f611328565b73ffffffffffffffffffffffffffffffffffffffff1614610ef5576040517f08c379a0000000000000000000000000000000000000000000000000000000008152600401610eec9061332a565b60405180910390fd5b610efe816120b6565b50565b610f09611570565b6103e861ffff168161ffff161115610f1f575f80fd5b8061ffff1660055f9054906101000a900461ffff1661ffff1603610f41575f80fd5b5f8161ffff1614610fa5575f73ffffffffffffffffffffffffffffffffffffffff1660085f9054906101000a900473ffffffffffffffffffffffffffffffffffffffff1673ffffffffffffffffffffffffffffffffffffffff1603610fa4575f80fd5b5b8060055f6101000a81548161ffff021916908361ffff1602179055507f6b5c342391f543846fce47a925e7eba910f7bec232b08633308ca93fdd0fdf0d81604051610ff09190612caf565b60405180910390a150565b5f611004612123565b905090565b5f61102d8260035f8681526020019081526020015f2061214a90919063ffffffff16565b905092915050565b5f60025f8481526020019081526020015f205f015f8373ffffffffffffffffffffffffffffffffffffffff1673ffffffffffffffffffffffffffffffffffffffff1681526020019081526020015f205f9054906101000a900460ff16905092915050565b5f801b81565b7fb73ce166ead2f8e9add217713a7989e4edfba9625f71dfd2516204bb67ad344281565b5f6110dd60035f8481526020019081526020015f20612161565b9050919050565b60075f9054906101000a900473ffffffffffffffffffffffffffffffffffffffff1681565b6111128261092c565b61111b816115ee565b6111258383612071565b505050565b60085f9054906101000a900473ffffffffffffffffffffffffffffffffffffffff1681565b5f7f00000000000000000000000000000000000000000000000000000000000000008383604051602001611184929190613348565b604051602081830303815290604052805190602001207f62441ebe4e4315cf3d49d5957f94d66b253dbabe7006f34ad7f70947e60bf15c5f1b6040516020016111cf9392919061311b565b604051602081830303815290604052805190602001205f1c905092915050565b6009602052815f5260405f20602052805f5260405f205f915091509054906101000a900473ffffffffffffffffffffffffffffffffffffffff1681565b5f611235611634565b61125f7fc9cf812513d9983585eb40fcfe6fd49fbb6a45815663ec33b30a6c6c7de3683b33611035565b61129e576040517f08c379a0000000000000000000000000000000000000000000000000000000008152600401611295906133b9565b60405180910390fd5b6112ee8787878787878080601f0160208091040260200160405190810160405280939291908181526020018383808284375f81840152601f19601f82011690508083019250505050505050611683565b90506112f8612060565b9695505050505050565b7f62441ebe4e4315cf3d49d5957f94d66b253dbabe7006f34ad7f70947e60bf15c5f1b81565b5f60015f9054906101000a900473ffffffffffffffffffffffffffffffffffffffff16905090565b5f8173ffffffffffffffffffffffffffffffffffffffff16611370610ffb565b73ffffffffffffffffffffffffffffffffffffffff16148061139857506113978383611035565b5b905092915050565b6113a8611570565b600160020b8160020b12156113bb575f80fd5b6101f460020b8160020b13156113cf575f80fd5b600560049054906101000a900460020b60020b8160020b036113ef575f80fd5b80600560046101000a81548162ffffff021916908360020b62ffffff1602179055507f7d7979096f943139ebee59f01c077a0f0766d06c40c86d596f23ed2561547cce816040516114409190612c58565b60405180910390a150565b611453611570565b8060015f6101000a81548173ffffffffffffffffffffffffffffffffffffffff021916908373ffffffffffffffffffffffffffffffffffffffff1602179055508073ffffffffffffffffffffffffffffffffffffffff166114b2610ffb565b73ffffffffffffffffffffffffffffffffffffffff167f38d16b8cac22d99fc7c124b9cd0de2d3fa1faef420bfe791d8c362d765e2270060405160405180910390a350565b5f7f7965db0b000000000000000000000000000000000000000000000000000000007bffffffffffffffffffffffffffffffffffffffffffffffffffffffff1916827bffffffffffffffffffffffffffffffffffffffffffffffffffffffff19161480611569575061156882612174565b5b9050919050565b61157861206a565b73ffffffffffffffffffffffffffffffffffffffff16611596610ffb565b73ffffffffffffffffffffffffffffffffffffffff16146115ec576040517f08c379a00000000000000000000000000000000000000000000000000000000081526004016115e390613421565b60405180910390fd5b565b6115ff816115fa61206a565b6121dd565b50565b61160c8282612261565b61162f8160035f8581526020019081526020015f2061233c90919063ffffffff16565b505050565b600260045403611679576040517f08c379a000000000000000000000000000000000000000000000000000000000815260040161167090613489565b60405180910390fd5b6002600481905550565b5f8273ffffffffffffffffffffffffffffffffffffffff168473ffffffffffffffffffffffffffffffffffffffff16036116bb575f80fd5b5f808473ffffffffffffffffffffffffffffffffffffffff168673ffffffffffffffffffffffffffffffffffffffff16106116f75784866116fa565b85855b915091505f73ffffffffffffffffffffffffffffffffffffffff168273ffffffffffffffffffffffffffffffffffffffff1603611735575f80fd5b5f8073ffffffffffffffffffffffffffffffffffffffff168973ffffffffffffffffffffffffffffffffffffffff16146117ab57600a5f8a73ffffffffffffffffffffffffffffffffffffffff1673ffffffffffffffffffffffffffffffffffffffff1681526020019081526020015f206117ae565b60095b90505f73ffffffffffffffffffffffffffffffffffffffff16815f8573ffffffffffffffffffffffffffffffffffffffff1673ffffffffffffffffffffffffffffffffffffffff1681526020019081526020015f205f8473ffffffffffffffffffffffffffffffffffffffff1673ffffffffffffffffffffffffffffffffffffffff1681526020019081526020015f205f9054906101000a900473ffffffffffffffffffffffffffffffffffffffff1673ffffffffffffffffffffffffffffffffffffffff161461187d575f80fd5b5f8073ffffffffffffffffffffffffffffffffffffffff168a73ffffffffffffffffffffffffffffffffffffffff16036119ba575f73ffffffffffffffffffffffffffffffffffffffff1660075f9054906101000a900473ffffffffffffffffffffffffffffffffffffffff1673ffffffffffffffffffffffffffffffffffffffff16146119b55760075f9054906101000a900473ffffffffffffffffffffffffffffffffffffffff1673ffffffffffffffffffffffffffffffffffffffff16631d0338d961194c868661114f565b8b5f88888c6040518763ffffffff1660e01b815260040161197296959493929190613531565b6020604051808303815f875af115801561198e573d5f803e3d5ffd5b505050506040513d601f19601f820116820180604052508101906119b291906135ab565b90505b611a4a565b3373ffffffffffffffffffffffffffffffffffffffff16631d0338d96119e18c87876107ec565b8b8d88888c6040518763ffffffff1660e01b8152600401611a0796959493929190613531565b6020604051808303815f875af1158015611a23573d5f803e3d5ffd5b505050506040513d601f19601f82011682018060405250810190611a4791906135ab565b90505b7f000000000000000000000000000000000000000000000000000000000000000073ffffffffffffffffffffffffffffffffffffffff1663fd82b73a8286868e6040518563ffffffff1660e01b8152600401611aa994939291906135d6565b6020604051808303815f875af1158015611ac5573d5f803e3d5ffd5b505050506040513d601f19601f82011682018060405250810190611ae991906135ab565b94505f73ffffffffffffffffffffffffffffffffffffffff168a73ffffffffffffffffffffffffffffffffffffffff1603611c03575f73ffffffffffffffffffffffffffffffffffffffff1660075f9054906101000a900473ffffffffffffffffffffffffffffffffffffffff1673ffffffffffffffffffffffffffffffffffffffff1614611bfe5760075f9054906101000a900473ffffffffffffffffffffffffffffffffffffffff1673ffffffffffffffffffffffffffffffffffffffff16638d5ef8d182878d6040518463ffffffff1660e01b8152600401611bd09392919061302d565b5f604051808303815f87803b158015611be7575f80fd5b505af1158015611bf9573d5f803e3d5ffd5b505050505b611c6e565b3373ffffffffffffffffffffffffffffffffffffffff16638d5ef8d182878d6040518463ffffffff1660e01b8152600401611c409392919061302d565b5f604051808303815f87803b158015611c57575f80fd5b505af1158015611c69573d5f803e3d5ffd5b505050505b84825f8673ffffffffffffffffffffffffffffffffffffffff1673ffffffffffffffffffffffffffffffffffffffff1681526020019081526020015f205f8573ffffffffffffffffffffffffffffffffffffffff1673ffffffffffffffffffffffffffffffffffffffff1681526020019081526020015f205f6101000a81548173ffffffffffffffffffffffffffffffffffffffff021916908373ffffffffffffffffffffffffffffffffffffffff16021790555084825f8573ffffffffffffffffffffffffffffffffffffffff1673ffffffffffffffffffffffffffffffffffffffff1681526020019081526020015f205f8673ffffffffffffffffffffffffffffffffffffffff1673ffffffffffffffffffffffffffffffffffffffff1681526020019081526020015f205f6101000a81548173ffffffffffffffffffffffffffffffffffffffff021916908373ffffffffffffffffffffffffffffffffffffffff1602179055505f73ffffffffffffffffffffffffffffffffffffffff168a73ffffffffffffffffffffffffffffffffffffffff1603611e75578273ffffffffffffffffffffffffffffffffffffffff168473ffffffffffffffffffffffffffffffffffffffff167f91ccaa7a278130b65168c3a0c8d3bcae84cf5e43704342bd3ec0b59e59c036db87604051611e689190612b53565b60405180910390a3611ef2565b8273ffffffffffffffffffffffffffffffffffffffff168473ffffffffffffffffffffffffffffffffffffffff168b73ffffffffffffffffffffffffffffffffffffffff167f8a5f030f5fc13b04a1e4ef7c47177e3d76b0e80e1d9be9843db37caa5b7b9b8f88604051611ee99190612b53565b60405180910390a45b5f73ffffffffffffffffffffffffffffffffffffffff1660085f9054906101000a900473ffffffffffffffffffffffffffffffffffffffff1673ffffffffffffffffffffffffffffffffffffffff1614612053575f60085f9054906101000a900473ffffffffffffffffffffffffffffffffffffffff1673ffffffffffffffffffffffffffffffffffffffff1663b8a1d3c6878c8e89896040518663ffffffff1660e01b8152600401611fa9959493929190613619565b6020604051808303815f875af1158015611fc5573d5f803e3d5ffd5b505050506040513d601f19601f82011682018060405250810190611fe991906135ab565b90508573ffffffffffffffffffffffffffffffffffffffff1663d8544cf3826040518263ffffffff1660e01b81526004016120249190612b53565b5f604051808303815f87803b15801561203b575f80fd5b505af115801561204d573d5f803e3d5ffd5b50505050505b5050505095945050505050565b6001600481905550565b5f33905090565b61207b8282612369565b61209e8160035f8581526020019081526020015f2061244490919063ffffffff16565b505050565b6120ab611570565b6120b45f6120b6565b565b6120c95f801b6120c4610ffb565b612071565b6120d281612471565b5f73ffffffffffffffffffffffffffffffffffffffff166120f1610ffb565b73ffffffffffffffffffffffffffffffffffffffff16146121205761211f5f801b61211a610ffb565b611602565b5b50565b5f805f9054906101000a900473ffffffffffffffffffffffffffffffffffffffff16905090565b5f612157835f01836124a1565b5f1c905092915050565b5f61216d825f016124c8565b9050919050565b5f7f01ffc9a7000000000000000000000000000000000000000000000000000000007bffffffffffffffffffffffffffffffffffffffffffffffffffffffff1916827bffffffffffffffffffffffffffffffffffffffffffffffffffffffff1916149050919050565b6121e78282611035565b61225d576121f4816124d7565b612201835f1c6020612504565b604051602001612212929190613738565b6040516020818303038152906040526040517f08c379a000000000000000000000000000000000000000000000000000000000815260040161225491906137a9565b60405180910390fd5b5050565b61226b8282611035565b61233857600160025f8481526020019081526020015f205f015f8373ffffffffffffffffffffffffffffffffffffffff1673ffffffffffffffffffffffffffffffffffffffff1681526020019081526020015f205f6101000a81548160ff0219169083151502179055506122dd61206a565b73ffffffffffffffffffffffffffffffffffffffff168173ffffffffffffffffffffffffffffffffffffffff16837f2f8788117e7eff1d82e926ec794901d17c78024a50270940304540a733656f0d60405160405180910390a45b5050565b5f612361835f018373ffffffffffffffffffffffffffffffffffffffff165f1b612739565b905092915050565b6123738282611035565b15612440575f60025f8481526020019081526020015f205f015f8373ffffffffffffffffffffffffffffffffffffffff1673ffffffffffffffffffffffffffffffffffffffff1681526020019081526020015f205f6101000a81548160ff0219169083151502179055506123e561206a565b73ffffffffffffffffffffffffffffffffffffffff168173ffffffffffffffffffffffffffffffffffffffff16837ff6391f5c32d9c69d2a47ea670b442974b53935d1edc7fd64eb21e047a839171b60405160405180910390a45b5050565b5f612469835f018373ffffffffffffffffffffffffffffffffffffffff165f1b6127a0565b905092915050565b60015f6101000a81549073ffffffffffffffffffffffffffffffffffffffff021916905561249e8161289c565b50565b5f825f0182815481106124b7576124b66137c9565b5b905f5260205f200154905092915050565b5f815f01805490509050919050565b60606124fd8273ffffffffffffffffffffffffffffffffffffffff16601460ff16612504565b9050919050565b60605f600283600261251691906137f6565b612520919061322d565b67ffffffffffffffff81111561253957612538613837565b5b6040519080825280601f01601f19166020018201604052801561256b5781602001600182028036833780820191505090505b5090507f3000000000000000000000000000000000000000000000000000000000000000815f815181106125a2576125a16137c9565b5b60200101907effffffffffffffffffffffffffffffffffffffffffffffffffffffffffffff191690815f1a9053507f780000000000000000000000000000000000000000000000000000000000000081600181518110612605576126046137c9565b5b60200101907effffffffffffffffffffffffffffffffffffffffffffffffffffffffffffff191690815f1a9053505f600184600261264391906137f6565b61264d919061322d565b90505b60018111156126ec577f3031323334353637383961626364656600000000000000000000000000000000600f86166010811061268f5761268e6137c9565b5b1a60f81b8282815181106126a6576126a56137c9565b5b60200101907effffffffffffffffffffffffffffffffffffffffffffffffffffffffffffff191690815f1a905350600485901c9450806126e590613864565b9050612650565b505f841461272f576040517f08c379a0000000000000000000000000000000000000000000000000000000008152600401612726906138d5565b60405180910390fd5b8091505092915050565b5f612744838361295d565b61279657825f0182908060018154018082558091505060019003905f5260205f20015f9091909190915055825f0180549050836001015f8481526020019081526020015f20819055506001905061279a565b5f90505b92915050565b5f80836001015f8481526020019081526020015f205490505f8114612891575f6001826127cd9190613287565b90505f6001865f01805490506127e39190613287565b9050818114612849575f865f018281548110612802576128016137c9565b5b905f5260205f200154905080875f018481548110612823576128226137c9565b5b905f5260205f20018190555083876001015f8381526020019081526020015f2081905550505b855f0180548061285c5761285b6138f3565b5b600190038181905f5260205f20015f90559055856001015f8681526020019081526020015f205f905560019350505050612896565b5f9150505b92915050565b5f805f9054906101000a900473ffffffffffffffffffffffffffffffffffffffff169050815f806101000a81548173ffffffffffffffffffffffffffffffffffffffff021916908373ffffffffffffffffffffffffffffffffffffffff1602179055508173ffffffffffffffffffffffffffffffffffffffff168173ffffffffffffffffffffffffffffffffffffffff167f8be0079c531659141344cd1fd0a4f28419497f9722a3daafe3b4186f6b6457e060405160405180910390a35050565b5f80836001015f8481526020019081526020015f20541415905092915050565b5f80fd5b5f80fd5b5f7fffffffff0000000000000000000000000000000000000000000000000000000082169050919050565b6129b981612985565b81146129c3575f80fd5b50565b5f813590506129d4816129b0565b92915050565b5f602082840312156129ef576129ee61297d565b5b5f6129fc848285016129c6565b91505092915050565b5f8115159050919050565b612a1981612a05565b82525050565b5f602082019050612a325f830184612a10565b92915050565b5f819050919050565b612a4a81612a38565b82525050565b5f602082019050612a635f830184612a41565b92915050565b5f819050919050565b612a7b81612a69565b82525050565b5f602082019050612a945f830184612a72565b92915050565b5f73ffffffffffffffffffffffffffffffffffffffff82169050919050565b5f612ac382612a9a565b9050919050565b612ad381612ab9565b8114612add575f80fd5b50565b5f81359050612aee81612aca565b92915050565b5f805f60608486031215612b0b57612b0a61297d565b5b5f612b1886828701612ae0565b9350506020612b2986828701612ae0565b9250506040612b3a86828701612ae0565b9150509250925092565b612b4d81612ab9565b82525050565b5f602082019050612b665f830184612b44565b92915050565b612b7581612a38565b8114612b7f575f80fd5b50565b5f81359050612b9081612b6c565b92915050565b5f60208284031215612bab57612baa61297d565b5b5f612bb884828501612b82565b91505092915050565b5f61ffff82169050919050565b612bd781612bc1565b82525050565b5f8160020b9050919050565b612bf281612bdd565b82525050565b5f606082019050612c0b5f830186612bce565b612c186020830185612be9565b612c256040830184612bce565b949350505050565b5f60208284031215612c4257612c4161297d565b5b5f612c4f84828501612ae0565b91505092915050565b5f602082019050612c6b5f830184612be9565b92915050565b5f8060408385031215612c8757612c8661297d565b5b5f612c9485828601612b82565b9250506020612ca585828601612ae0565b9150509250929050565b5f602082019050612cc25f830184612bce565b92915050565b5f80fd5b5f80fd5b5f80fd5b5f8083601f840112612ce957612ce8612cc8565b5b8235905067ffffffffffffffff811115612d0657612d05612ccc565b5b602083019150836001820283011115612d2257612d21612cd0565b5b9250929050565b5f805f8060608587031215612d4157612d4061297d565b5b5f612d4e87828801612ae0565b9450506020612d5f87828801612ae0565b935050604085013567ffffffffffffffff811115612d8057612d7f612981565b5b612d8c87828801612cd4565b925092505092959194509250565b612da381612bc1565b8114612dad575f80fd5b50565b5f81359050612dbe81612d9a565b92915050565b5f60208284031215612dd957612dd861297d565b5b5f612de684828501612db0565b91505092915050565b612df881612a69565b8114612e02575f80fd5b50565b5f81359050612e1381612def565b92915050565b5f8060408385031215612e2f57612e2e61297d565b5b5f612e3c85828601612b82565b9250506020612e4d85828601612e05565b9150509250929050565b5f819050919050565b5f612e7a612e75612e7084612a9a565b612e57565b612a9a565b9050919050565b5f612e8b82612e60565b9050919050565b5f612e9c82612e81565b9050919050565b612eac81612e92565b82525050565b5f602082019050612ec55f830184612ea3565b92915050565b5f612ed582612e81565b9050919050565b612ee581612ecb565b82525050565b5f602082019050612efe5f830184612edc565b92915050565b5f8060408385031215612f1a57612f1961297d565b5b5f612f2785828601612ae0565b9250506020612f3885828601612ae0565b9150509250929050565b5f805f805f8060a08789031215612f5c57612f5b61297d565b5b5f612f6989828a01612ae0565b9650506020612f7a89828a01612ae0565b9550506040612f8b89828a01612ae0565b9450506060612f9c89828a01612ae0565b935050608087013567ffffffffffffffff811115612fbd57612fbc612981565b5b612fc989828a01612cd4565b92509250509295509295509295565b612fe181612bdd565b8114612feb575f80fd5b50565b5f81359050612ffc81612fd8565b92915050565b5f602082840312156130175761301661297d565b5b5f61302484828501612fee565b91505092915050565b5f6060820190506130405f830186612b44565b61304d6020830185612b44565b61305a6040830184612b44565b949350505050565b5f81905092915050565b7fff000000000000000000000000000000000000000000000000000000000000005f82015250565b5f6130a0600183613062565b91506130ab8261306c565b600182019050919050565b5f8160601b9050919050565b5f6130cc826130b6565b9050919050565b5f6130dd826130c2565b9050919050565b6130f56130f082612ab9565b6130d3565b82525050565b5f819050919050565b61311561311082612a38565b6130fb565b82525050565b5f61312582613094565b915061313182866130e4565b6014820191506131418285613104565b6020820191506131518284613104565b602082019150819050949350505050565b5f82825260208201905092915050565b7f416363657373436f6e74726f6c3a2063616e206f6e6c792072656e6f756e63655f8201527f20726f6c657320666f722073656c660000000000000000000000000000000000602082015250565b5f6131cc602f83613162565b91506131d782613172565b604082019050919050565b5f6020820190508181035f8301526131f9816131c0565b9050919050565b7f4e487b71000000000000000000000000000000000000000000000000000000005f52601160045260245ffd5b5f61323782612a69565b915061324283612a69565b925082820190508082111561325a57613259613200565b5b92915050565b5f6040820190506132735f830185612a72565b6132806020830184612a72565b9392505050565b5f61329182612a69565b915061329c83612a69565b92508282039050818111156132b4576132b3613200565b5b92915050565b7f4f776e61626c6532537465703a2063616c6c6572206973206e6f7420746865205f8201527f6e6577206f776e65720000000000000000000000000000000000000000000000602082015250565b5f613314602983613162565b915061331f826132ba565b604082019050919050565b5f6020820190508181035f83015261334181613308565b9050919050565b5f60408201905061335b5f830185612b44565b6133686020830184612b44565b9392505050565b7f43616e60742063726561746520637573746f6d20706f6f6c73000000000000005f82015250565b5f6133a3601983613162565b91506133ae8261336f565b602082019050919050565b5f6020820190508181035f8301526133d081613397565b9050919050565b7f4f776e61626c653a2063616c6c6572206973206e6f7420746865206f776e65725f82015250565b5f61340b602083613162565b9150613416826133d7565b602082019050919050565b5f6020820190508181035f830152613438816133ff565b9050919050565b7f5265656e7472616e637947756172643a207265656e7472616e742063616c6c005f82015250565b5f613473601f83613162565b915061347e8261343f565b602082019050919050565b5f6020820190508181035f8301526134a081613467565b9050919050565b5f81519050919050565b5f82825260208201905092915050565b5f5b838110156134de5780820151818401526020810190506134c3565b5f8484015250505050565b5f601f19601f8301169050919050565b5f613503826134a7565b61350d81856134b1565b935061351d8185602086016134c1565b613526816134e9565b840191505092915050565b5f60c0820190506135445f830189612b44565b6135516020830188612b44565b61355e6040830187612b44565b61356b6060830186612b44565b6135786080830185612b44565b81810360a083015261358a81846134f9565b9050979650505050505050565b5f815190506135a581612aca565b92915050565b5f602082840312156135c0576135bf61297d565b5b5f6135cd84828501613597565b91505092915050565b5f6080820190506135e95f830187612b44565b6135f66020830186612b44565b6136036040830185612b44565b6136106060830184612b44565b95945050505050565b5f60a08201905061362c5f830188612b44565b6136396020830187612b44565b6136466040830186612b44565b6136536060830185612b44565b6136606080830184612b44565b9695505050505050565b7f416363657373436f6e74726f6c3a206163636f756e74200000000000000000005f82015250565b5f61369e601783613062565b91506136a98261366a565b601782019050919050565b5f81519050919050565b5f6136c8826136b4565b6136d28185613062565b93506136e28185602086016134c1565b80840191505092915050565b7f206973206d697373696e6720726f6c65200000000000000000000000000000005f82015250565b5f613722601183613062565b915061372d826136ee565b601182019050919050565b5f61374282613692565b915061374e82856136be565b915061375982613716565b915061376582846136be565b91508190509392505050565b5f61377b826136b4565b6137858185613162565b93506137958185602086016134c1565b61379e816134e9565b840191505092915050565b5f6020820190508181035f8301526137c18184613771565b905092915050565b7f4e487b71000000000000000000000000000000000000000000000000000000005f52603260045260245ffd5b5f61380082612a69565b915061380b83612a69565b925082820261381981612a69565b915082820484148315176138305761382f613200565b5b5092915050565b7f4e487b71000000000000000000000000000000000000000000000000000000005f52604160045260245ffd5b5f61386e82612a69565b91505f82036138805761387f613200565b5b600182039050919050565b7f537472696e67733a20686578206c656e67746820696e73756666696369656e745f82015250565b5f6138bf602083613162565b91506138ca8261388b565b602082019050919050565b5f6020820190508181035f8301526138ec816138b3565b9050919050565b7f4e487b71000000000000000000000000000000000000000000000000000000005f52603160045260245ffd","linkReferences":{}},"methodIdentifiers":{"CUSTOM_POOL_DEPLOYER()":"07810754","DEFAULT_ADMIN_ROLE()":"a217fddf","POOLS_ADMINISTRATOR_ROLE()":"b500a48b","POOL_INIT_CODE_HASH()":"dc6fd8ab","acceptOwnership()":"79ba5097","computeCustomPoolAddress(address,address,address)":"1ba89df4","computePoolAddress(address,address)":"d8ed2241","createCustomPool(address,address,address,address,bytes)":"dbbf3db4","createPool(address,address,bytes)":"321935c6","customPoolByPair(address,address,address)":"23da36cc","defaultCommunityFee()":"2f8a39dd","defaultConfigurationForPool()":"25b355d6","defaultFee()":"5a6c72d0","defaultPluginFactory()":"d0ad2792","defaultTickspacing()":"29bc3446","getRoleAdmin(bytes32)":"248a9ca3","getRoleMember(bytes32,uint256)":"9010d07c","getRoleMemberCount(bytes32)":"ca15c873","grantRole(bytes32,address)":"2f2ff15d","hasRole(bytes32,address)":"91d14854","hasRoleOrOwner(bytes32,address)":"e8ae2b69","owner()":"8da5cb5b","pendingOwner()":"e30c3978","poolByPair(address,address)":"d9a641e1","poolDeployer()":"3119049a","renounceOwnership()":"715018a6","renounceOwnershipStartTimestamp()":"084bfff9","renounceRole(bytes32,address)":"36568abe","revokeRole(bytes32,address)":"d547741f","setDefaultCommunityFee(uint16)":"8d5a8711","setDefaultFee(uint16)":"77326584","setDefaultPluginFactory(address)":"2939dd97","setDefaultTickspacing(int24)":"f09489ac","setVaultFactory(address)":"3ea7fbdb","startRenounceOwnership()":"469388c4","stopRenounceOwnership()":"238a1d74","supportsInterface(bytes4)":"01ffc9a7","transferOwnership(address)":"f2fde38b","vaultFactory()":"d8a06f73"},"id":1}