{"abi":[{"type":"constructor","inputs":[],"stateMutability":"nonpayable"},{"type":"function","name":"addToWhitelist","inputs":[{"name":"collateral","type":"tuple","internalType":"struct Collateral","components":[{"name":"currency","type":"address","internalType":"Currency"},{"name":"collateralType","type":"uint8","internalType":"enum CollateralType"}]}],"outputs":[],"stateMutability":"nonpayable"},{"type":"function","name":"getSupportedCollateralTypes","inputs":[],"outputs":[{"name":"","type":"uint8[]","internalType":"enum CollateralType[]"}],"stateMutability":"view"},{"type":"function","name":"getValidationStrategy","inputs":[{"name":"collateralType","type":"uint8","internalType":"enum CollateralType"}],"outputs":[{"name":"","type":"address","internalType":"address"}],"stateMutability":"view"},{"type":"function","name":"getWhitelistStatus","inputs":[{"name":"collateral","type":"tuple","internalType":"struct Collateral","components":[{"name":"currency","type":"address","internalType":"Currency"},{"name":"collateralType","type":"uint8","internalType":"enum CollateralType"}]}],"outputs":[{"name":"","type":"uint8","internalType":"enum ICollateralFilter.WhitelistStatus"}],"stateMutability":"view"},{"type":"function","name":"governance","inputs":[],"outputs":[{"name":"","type":"address","internalType":"address"}],"stateMutability":"view"},{"type":"function","name":"isWhitelisted","inputs":[{"name":"collateral","type":"tuple","internalType":"struct Collateral","components":[{"name":"currency","type":"address","internalType":"Currency"},{"name":"collateralType","type":"uint8","internalType":"enum CollateralType"}]}],"outputs":[{"name":"","type":"bool","internalType":"bool"}],"stateMutability":"view"},{"type":"function","name":"removeFromWhitelist","inputs":[{"name":"collateral","type":"tuple","internalType":"struct Collateral","components":[{"name":"currency","type":"address","internalType":"Currency"},{"name":"collateralType","type":"uint8","internalType":"enum CollateralType"}]}],"outputs":[],"stateMutability":"nonpayable"},{"type":"function","name":"removeValidationStrategy","inputs":[{"name":"collateralType","type":"uint8","internalType":"enum CollateralType"}],"outputs":[],"stateMutability":"nonpayable"},{"type":"function","name":"setValidationStrategy","inputs":[{"name":"collateralType","type":"uint8","internalType":"enum CollateralType"},{"name":"strategy","type":"address","internalType":"contract IValidationStrategy"}],"outputs":[],"stateMutability":"nonpayable"},{"type":"event","name":"CollateralRemoved","inputs":[{"name":"asset","type":"address","indexed":true,"internalType":"address"},{"name":"collateralType","type":"uint8","indexed":true,"internalType":"enum CollateralType"}],"anonymous":false},{"type":"event","name":"CollateralWhitelisted","inputs":[{"name":"asset","type":"address","indexed":true,"internalType":"address"},{"name":"collateralType","type":"uint8","indexed":true,"internalType":"enum CollateralType"}],"anonymous":false},{"type":"event","name":"ValidationStrategyRemoved","inputs":[{"name":"collateralType","type":"uint8","indexed":true,"internalType":"enum CollateralType"}],"anonymous":false},{"type":"event","name":"ValidationStrategyUpdated","inputs":[{"name":"collateralType","type":"uint8","indexed":true,"internalType":"enum CollateralType"},{"name":"strategy","type":"address","indexed":true,"internalType":"address"}],"anonymous":false},{"type":"error","name":"CollateralFilter__ValidationStrategyNotSet","inputs":[{"name":"collateralType","type":"uint8","internalType":"enum CollateralType"}]}],"bytecode":{"object":"0x608060405234801561000f575f80fd5b503360025f6101000a81548173ffffffffffffffffffffffffffffffffffffffff021916908373ffffffffffffffffffffffffffffffffffffffff1602179055506110ff8061005d5f395ff3fe608060405234801561000f575f80fd5b5060043610610091575f3560e01c80638279295a116100645780638279295a1461011b57806396e6b6401461014b578063a4e82db71461017b578063bdc6b28214610197578063edec274f146101b557610091565b80631060c958146100955780634e358d44146100b15780635aa6e675146100e15780636ac64f9c146100ff575b5f80fd5b6100af60048036038101906100aa9190610b8a565b6101d1565b005b6100cb60048036038101906100c69190610ccb565b61030b565b6040516100d89190610d69565b60405180910390f35b6100e9610370565b6040516100f69190610d91565b60405180910390f35b61011960048036038101906101149190610ccb565b610395565b005b61013560048036038101906101309190610ccb565b6104b2565b6040516101429190610dc4565b60405180910390f35b61016560048036038101906101609190610ddd565b610507565b6040516101729190610d91565b60405180910390f35b61019560048036038101906101909190610ddd565b610563565b005b61019f610669565b6040516101ac9190610ef6565b60405180910390f35b6101cf60048036038101906101ca9190610ccb565b610825565b005b5f73ffffffffffffffffffffffffffffffffffffffff163373ffffffffffffffffffffffffffffffffffffffff160361023f576040517f08c379a000000000000000000000000000000000000000000000000000000000815260040161023690610f96565b60405180910390fd5b805f8084600481111561025557610254610cf6565b5b600481111561026757610266610cf6565b5b81526020019081526020015f205f6101000a81548173ffffffffffffffffffffffffffffffffffffffff021916908373ffffffffffffffffffffffffffffffffffffffff1602179055508073ffffffffffffffffffffffffffffffffffffffff168260048111156102db576102da610cf6565b5b7f800669db5d0c541f0372321c8bed2ce1780987d055cfe76d38c3468199f79d0660405160405180910390a35050565b5f60015f835f015173ffffffffffffffffffffffffffffffffffffffff1673ffffffffffffffffffffffffffffffffffffffff1681526020019081526020015f205f9054906101000a900460ff1615610367576001905061036b565b5f90505b919050565b60025f9054906101000a900473ffffffffffffffffffffffffffffffffffffffff1681565b5f73ffffffffffffffffffffffffffffffffffffffff163373ffffffffffffffffffffffffffffffffffffffff1603610403576040517f08c379a00000000000000000000000000000000000000000000000000000000081526004016103fa90610f96565b60405180910390fd5b60015f825f015173ffffffffffffffffffffffffffffffffffffffff1673ffffffffffffffffffffffffffffffffffffffff1681526020019081526020015f205f6101000a81549060ff02191690558060200151600481111561046957610468610cf6565b5b815f015173ffffffffffffffffffffffffffffffffffffffff167f898eb70df99b0760a2c36b43d08a51c50663e4813b2f0ad9e6c3c69bc3577d4860405160405180910390a350565b5f60015f835f015173ffffffffffffffffffffffffffffffffffffffff1673ffffffffffffffffffffffffffffffffffffffff1681526020019081526020015f205f9054906101000a900460ff169050919050565b5f805f83600481111561051d5761051c610cf6565b5b600481111561052f5761052e610cf6565b5b81526020019081526020015f205f9054906101000a900473ffffffffffffffffffffffffffffffffffffffff169050919050565b5f73ffffffffffffffffffffffffffffffffffffffff163373ffffffffffffffffffffffffffffffffffffffff16036105d1576040517f08c379a00000000000000000000000000000000000000000000000000000000081526004016105c890610f96565b60405180910390fd5b5f808260048111156105e6576105e5610cf6565b5b60048111156105f8576105f7610cf6565b5b81526020019081526020015f205f6101000a81549073ffffffffffffffffffffffffffffffffffffffff021916905580600481111561063a57610639610cf6565b5b7ff0b71825d61fe355899568b18ae5891ba378c3259ca37e1205836de06aa8473160405160405180910390a250565b60605f600567ffffffffffffffff81111561068757610686610bdc565b5b6040519080825280602002602001820160405280156106b55781602001602082028036833780820191505090505b5090505f815f815181106106cc576106cb610fb4565b5b602002602001019060048111156106e6576106e5610cf6565b5b908160048111156106fa576106f9610cf6565b5b8152505060028160018151811061071457610713610fb4565b5b6020026020010190600481111561072e5761072d610cf6565b5b9081600481111561074257610741610cf6565b5b8152505060018160028151811061075c5761075b610fb4565b5b6020026020010190600481111561077657610775610cf6565b5b9081600481111561078a57610789610cf6565b5b815250506003816003815181106107a4576107a3610fb4565b5b602002602001019060048111156107be576107bd610cf6565b5b908160048111156107d2576107d1610cf6565b5b815250506004816004815181106107ec576107eb610fb4565b5b6020026020010190600481111561080657610805610cf6565b5b9081600481111561081a57610819610cf6565b5b815250508091505090565b5f73ffffffffffffffffffffffffffffffffffffffff163373ffffffffffffffffffffffffffffffffffffffff1603610893576040517f08c379a000000000000000000000000000000000000000000000000000000000815260040161088a90610f96565b60405180910390fd5b5f73ffffffffffffffffffffffffffffffffffffffff165f80836020015160048111156108c3576108c2610cf6565b5b60048111156108d5576108d4610cf6565b5b81526020019081526020015f205f9054906101000a900473ffffffffffffffffffffffffffffffffffffffff1673ffffffffffffffffffffffffffffffffffffffff160361095e5780602001516040517fb517d8690000000000000000000000000000000000000000000000000000000081526004016109559190610ff0565b60405180910390fd5b5f805f8360200151600481111561097857610977610cf6565b5b600481111561098a57610989610cf6565b5b81526020019081526020015f205f9054906101000a900473ffffffffffffffffffffffffffffffffffffffff1673ffffffffffffffffffffffffffffffffffffffff16637ca45e2a836040518263ffffffff1660e01b81526004016109ef9190611091565b602060405180830381865afa158015610a0a573d5f803e3d5ffd5b505050506040513d601f19601f82011682018060405250810190610a2e91906110d4565b90508015610aeb576001805f845f015173ffffffffffffffffffffffffffffffffffffffff1673ffffffffffffffffffffffffffffffffffffffff1681526020019081526020015f205f6101000a81548160ff02191690831515021790555081602001516004811115610aa457610aa3610cf6565b5b825f015173ffffffffffffffffffffffffffffffffffffffff167fe974b01fc4e46910acadcdb42acb3b56431e3f20d2520251b22b886bf3719e2d60405160405180910390a35b5050565b5f604051905090565b5f80fd5b60058110610b08575f80fd5b50565b5f81359050610b1981610afc565b92915050565b5f73ffffffffffffffffffffffffffffffffffffffff82169050919050565b5f610b4882610b1f565b9050919050565b5f610b5982610b3e565b9050919050565b610b6981610b4f565b8114610b73575f80fd5b50565b5f81359050610b8481610b60565b92915050565b5f8060408385031215610ba057610b9f610af8565b5b5f610bad85828601610b0b565b9250506020610bbe85828601610b76565b9150509250929050565b5f80fd5b5f601f19601f8301169050919050565b7f4e487b71000000000000000000000000000000000000000000000000000000005f52604160045260245ffd5b610c1282610bcc565b810181811067ffffffffffffffff82111715610c3157610c30610bdc565b5b80604052505050565b5f610c43610aef565b9050610c4f8282610c09565b919050565b610c5d81610b3e565b8114610c67575f80fd5b50565b5f81359050610c7881610c54565b92915050565b5f60408284031215610c9357610c92610bc8565b5b610c9d6040610c3a565b90505f610cac84828501610c6a565b5f830152506020610cbf84828501610b0b565b60208301525092915050565b5f60408284031215610ce057610cdf610af8565b5b5f610ced84828501610c7e565b91505092915050565b7f4e487b71000000000000000000000000000000000000000000000000000000005f52602160045260245ffd5b60038110610d3457610d33610cf6565b5b50565b5f819050610d4482610d23565b919050565b5f610d5382610d37565b9050919050565b610d6381610d49565b82525050565b5f602082019050610d7c5f830184610d5a565b92915050565b610d8b81610b3e565b82525050565b5f602082019050610da45f830184610d82565b92915050565b5f8115159050919050565b610dbe81610daa565b82525050565b5f602082019050610dd75f830184610db5565b92915050565b5f60208284031215610df257610df1610af8565b5b5f610dff84828501610b0b565b91505092915050565b5f81519050919050565b5f82825260208201905092915050565b5f819050602082019050919050565b60058110610e4257610e41610cf6565b5b50565b5f819050610e5282610e31565b919050565b5f610e6182610e45565b9050919050565b610e7181610e57565b82525050565b5f610e828383610e68565b60208301905092915050565b5f602082019050919050565b5f610ea482610e08565b610eae8185610e12565b9350610eb983610e22565b805f5b83811015610ee9578151610ed08882610e77565b9750610edb83610e8e565b925050600181019050610ebc565b5085935050505092915050565b5f6020820190508181035f830152610f0e8184610e9a565b905092915050565b5f82825260208201905092915050565b7f4f6e6c7920676f7665726e616e63652063616e2063616c6c20746869732066755f8201527f6e6374696f6e0000000000000000000000000000000000000000000000000000602082015250565b5f610f80602683610f16565b9150610f8b82610f26565b604082019050919050565b5f6020820190508181035f830152610fad81610f74565b9050919050565b7f4e487b71000000000000000000000000000000000000000000000000000000005f52603260045260245ffd5b610fea81610e57565b82525050565b5f6020820190506110035f830184610fe1565b92915050565b5f819050919050565b5f61102c61102761102284610b1f565b611009565b610b1f565b9050919050565b5f61103d82611012565b9050919050565b5f61104e82611033565b9050919050565b61105e81611044565b82525050565b604082015f8201516110785f850182611055565b50602082015161108b6020850182610e68565b50505050565b5f6040820190506110a45f830184611064565b92915050565b6110b381610daa565b81146110bd575f80fd5b50565b5f815190506110ce816110aa565b92915050565b5f602082840312156110e9576110e8610af8565b5b5f6110f6848285016110c0565b9150509291505056","linkReferences":{}},"methodIdentifiers":{"addToWhitelist((address,uint8))":"edec274f","getSupportedCollateralTypes()":"bdc6b282","getValidationStrategy(uint8)":"96e6b640","getWhitelistStatus((address,uint8))":"4e358d44","governance()":"5aa6e675","isWhitelisted((address,uint8))":"8279295a","removeFromWhitelist((address,uint8))":"6ac64f9c","removeValidationStrategy(uint8)":"a4e82db7","setValidationStrategy(uint8,address)":"1060c958"},"id":191}