{"abi":[{"type":"constructor","inputs":[],"stateMutability":"nonpayable"},{"type":"function","name":"addToWhitelist","inputs":[{"name":"collateral","type":"tuple","internalType":"struct Collateral","components":[{"name":"currency","type":"address","internalType":"Currency"},{"name":"collateralType","type":"uint8","internalType":"enum CollateralType"}]}],"outputs":[],"stateMutability":"nonpayable"},{"type":"function","name":"getSupportedCollateralTypes","inputs":[],"outputs":[{"name":"","type":"uint8[]","internalType":"enum CollateralType[]"}],"stateMutability":"view"},{"type":"function","name":"getValidationStrategy","inputs":[{"name":"collateralType","type":"uint8","internalType":"enum CollateralType"}],"outputs":[{"name":"","type":"address","internalType":"address"}],"stateMutability":"view"},{"type":"function","name":"getWhitelistStatus","inputs":[{"name":"collateral","type":"tuple","internalType":"struct Collateral","components":[{"name":"currency","type":"address","internalType":"Currency"},{"name":"collateralType","type":"uint8","internalType":"enum CollateralType"}]}],"outputs":[{"name":"","type":"uint8","internalType":"enum ICollateralFilter.WhitelistStatus"}],"stateMutability":"view"},{"type":"function","name":"governance","inputs":[],"outputs":[{"name":"","type":"address","internalType":"address"}],"stateMutability":"view"},{"type":"function","name":"isWhitelisted","inputs":[{"name":"collateral","type":"tuple","internalType":"struct Collateral","components":[{"name":"currency","type":"address","internalType":"Currency"},{"name":"collateralType","type":"uint8","internalType":"enum CollateralType"}]}],"outputs":[{"name":"","type":"bool","internalType":"bool"}],"stateMutability":"view"},{"type":"function","name":"removeFromWhitelist","inputs":[{"name":"collateral","type":"tuple","internalType":"struct Collateral","components":[{"name":"currency","type":"address","internalType":"Currency"},{"name":"collateralType","type":"uint8","internalType":"enum CollateralType"}]}],"outputs":[],"stateMutability":"nonpayable"},{"type":"function","name":"removeValidationStrategy","inputs":[{"name":"collateralType","type":"uint8","internalType":"enum CollateralType"}],"outputs":[],"stateMutability":"nonpayable"},{"type":"function","name":"setValidationStrategy","inputs":[{"name":"collateralType","type":"uint8","internalType":"enum CollateralType"},{"name":"strategy","type":"address","internalType":"contract IValidationStrategy"}],"outputs":[],"stateMutability":"nonpayable"},{"type":"event","name":"CollateralRemoved","inputs":[{"name":"asset","type":"address","indexed":true,"internalType":"address"},{"name":"collateralType","type":"uint8","indexed":true,"internalType":"enum CollateralType"}],"anonymous":false},{"type":"event","name":"CollateralWhitelisted","inputs":[{"name":"asset","type":"address","indexed":true,"internalType":"address"},{"name":"collateralType","type":"uint8","indexed":true,"internalType":"enum CollateralType"}],"anonymous":false},{"type":"event","name":"ValidationStrategyRemoved","inputs":[{"name":"collateralType","type":"uint8","indexed":true,"internalType":"enum CollateralType"}],"anonymous":false},{"type":"event","name":"ValidationStrategyUpdated","inputs":[{"name":"collateralType","type":"uint8","indexed":true,"internalType":"enum CollateralType"},{"name":"strategy","type":"address","indexed":true,"internalType":"address"}],"anonymous":false},{"type":"error","name":"CollateralFilter__ValidationStrategyNotSet","inputs":[{"name":"collateralType","type":"uint8","internalType":"enum CollateralType"}]}],"bytecode":{"object":"0x608060405234801561000f575f80fd5b503360025f6101000a81548173ffffffffffffffffffffffffffffffffffffffff021916908373ffffffffffffffffffffffffffffffffffffffff1602179055506111908061005d5f395ff3fe608060405234801561000f575f80fd5b5060043610610091575f3560e01c80638279295a116100645780638279295a1461011b57806396e6b6401461014b578063a4e82db71461017b578063bdc6b28214610197578063edec274f146101b557610091565b80631060c958146100955780634e358d44146100b15780635aa6e675146100e15780636ac64f9c146100ff575b5f80fd5b6100af60048036038101906100aa9190610c0e565b6101d1565b005b6100cb60048036038101906100c69190610d4f565b61032c565b6040516100d89190610ded565b60405180910390f35b6100e9610391565b6040516100f69190610e15565b60405180910390f35b61011960048036038101906101149190610d4f565b6103b6565b005b61013560048036038101906101309190610d4f565b6104f4565b6040516101429190610e48565b60405180910390f35b61016560048036038101906101609190610e61565b610549565b6040516101729190610e15565b60405180910390f35b61019560048036038101906101909190610e61565b6105a5565b005b61019f6106cc565b6040516101ac9190610f7a565b60405180910390f35b6101cf60048036038101906101ca9190610d4f565b610888565b005b60025f9054906101000a900473ffffffffffffffffffffffffffffffffffffffff1673ffffffffffffffffffffffffffffffffffffffff163373ffffffffffffffffffffffffffffffffffffffff1614610260576040517f08c379a00000000000000000000000000000000000000000000000000000000081526004016102579061101a565b60405180910390fd5b805f8084600481111561027657610275610d7a565b5b600481111561028857610287610d7a565b5b81526020019081526020015f205f6101000a81548173ffffffffffffffffffffffffffffffffffffffff021916908373ffffffffffffffffffffffffffffffffffffffff1602179055508073ffffffffffffffffffffffffffffffffffffffff168260048111156102fc576102fb610d7a565b5b7f800669db5d0c541f0372321c8bed2ce1780987d055cfe76d38c3468199f79d0660405160405180910390a35050565b5f60015f835f015173ffffffffffffffffffffffffffffffffffffffff1673ffffffffffffffffffffffffffffffffffffffff1681526020019081526020015f205f9054906101000a900460ff1615610388576001905061038c565b5f90505b919050565b60025f9054906101000a900473ffffffffffffffffffffffffffffffffffffffff1681565b60025f9054906101000a900473ffffffffffffffffffffffffffffffffffffffff1673ffffffffffffffffffffffffffffffffffffffff163373ffffffffffffffffffffffffffffffffffffffff1614610445576040517f08c379a000000000000000000000000000000000000000000000000000000000815260040161043c9061101a565b60405180910390fd5b60015f825f015173ffffffffffffffffffffffffffffffffffffffff1673ffffffffffffffffffffffffffffffffffffffff1681526020019081526020015f205f6101000a81549060ff0219169055806020015160048111156104ab576104aa610d7a565b5b815f015173ffffffffffffffffffffffffffffffffffffffff167f898eb70df99b0760a2c36b43d08a51c50663e4813b2f0ad9e6c3c69bc3577d4860405160405180910390a350565b5f60015f835f015173ffffffffffffffffffffffffffffffffffffffff1673ffffffffffffffffffffffffffffffffffffffff1681526020019081526020015f205f9054906101000a900460ff169050919050565b5f805f83600481111561055f5761055e610d7a565b5b600481111561057157610570610d7a565b5b81526020019081526020015f205f9054906101000a900473ffffffffffffffffffffffffffffffffffffffff169050919050565b60025f9054906101000a900473ffffffffffffffffffffffffffffffffffffffff1673ffffffffffffffffffffffffffffffffffffffff163373ffffffffffffffffffffffffffffffffffffffff1614610634576040517f08c379a000000000000000000000000000000000000000000000000000000000815260040161062b9061101a565b60405180910390fd5b5f8082600481111561064957610648610d7a565b5b600481111561065b5761065a610d7a565b5b81526020019081526020015f205f6101000a81549073ffffffffffffffffffffffffffffffffffffffff021916905580600481111561069d5761069c610d7a565b5b7ff0b71825d61fe355899568b18ae5891ba378c3259ca37e1205836de06aa8473160405160405180910390a250565b60605f600567ffffffffffffffff8111156106ea576106e9610c60565b5b6040519080825280602002602001820160405280156107185781602001602082028036833780820191505090505b5090505f815f8151811061072f5761072e611038565b5b6020026020010190600481111561074957610748610d7a565b5b9081600481111561075d5761075c610d7a565b5b8152505060028160018151811061077757610776611038565b5b6020026020010190600481111561079157610790610d7a565b5b908160048111156107a5576107a4610d7a565b5b815250506001816002815181106107bf576107be611038565b5b602002602001019060048111156107d9576107d8610d7a565b5b908160048111156107ed576107ec610d7a565b5b8152505060038160038151811061080757610806611038565b5b6020026020010190600481111561082157610820610d7a565b5b9081600481111561083557610834610d7a565b5b8152505060048160048151811061084f5761084e611038565b5b6020026020010190600481111561086957610868610d7a565b5b9081600481111561087d5761087c610d7a565b5b815250508091505090565b60025f9054906101000a900473ffffffffffffffffffffffffffffffffffffffff1673ffffffffffffffffffffffffffffffffffffffff163373ffffffffffffffffffffffffffffffffffffffff1614610917576040517f08c379a000000000000000000000000000000000000000000000000000000000815260040161090e9061101a565b60405180910390fd5b5f73ffffffffffffffffffffffffffffffffffffffff165f808360200151600481111561094757610946610d7a565b5b600481111561095957610958610d7a565b5b81526020019081526020015f205f9054906101000a900473ffffffffffffffffffffffffffffffffffffffff1673ffffffffffffffffffffffffffffffffffffffff16036109e25780602001516040517fb517d8690000000000000000000000000000000000000000000000000000000081526004016109d99190611074565b60405180910390fd5b5f805f836020015160048111156109fc576109fb610d7a565b5b6004811115610a0e57610a0d610d7a565b5b81526020019081526020015f205f9054906101000a900473ffffffffffffffffffffffffffffffffffffffff1673ffffffffffffffffffffffffffffffffffffffff16637ca45e2a836040518263ffffffff1660e01b8152600401610a739190611115565b602060405180830381865afa158015610a8e573d5f803e3d5ffd5b505050506040513d601f19601f82011682018060405250810190610ab29190611158565b90508015610b6f576001805f845f015173ffffffffffffffffffffffffffffffffffffffff1673ffffffffffffffffffffffffffffffffffffffff1681526020019081526020015f205f6101000a81548160ff02191690831515021790555081602001516004811115610b2857610b27610d7a565b5b825f015173ffffffffffffffffffffffffffffffffffffffff167fe974b01fc4e46910acadcdb42acb3b56431e3f20d2520251b22b886bf3719e2d60405160405180910390a35b5050565b5f604051905090565b5f80fd5b60058110610b8c575f80fd5b50565b5f81359050610b9d81610b80565b92915050565b5f73ffffffffffffffffffffffffffffffffffffffff82169050919050565b5f610bcc82610ba3565b9050919050565b5f610bdd82610bc2565b9050919050565b610bed81610bd3565b8114610bf7575f80fd5b50565b5f81359050610c0881610be4565b92915050565b5f8060408385031215610c2457610c23610b7c565b5b5f610c3185828601610b8f565b9250506020610c4285828601610bfa565b9150509250929050565b5f80fd5b5f601f19601f8301169050919050565b7f4e487b71000000000000000000000000000000000000000000000000000000005f52604160045260245ffd5b610c9682610c50565b810181811067ffffffffffffffff82111715610cb557610cb4610c60565b5b80604052505050565b5f610cc7610b73565b9050610cd38282610c8d565b919050565b610ce181610bc2565b8114610ceb575f80fd5b50565b5f81359050610cfc81610cd8565b92915050565b5f60408284031215610d1757610d16610c4c565b5b610d216040610cbe565b90505f610d3084828501610cee565b5f830152506020610d4384828501610b8f565b60208301525092915050565b5f60408284031215610d6457610d63610b7c565b5b5f610d7184828501610d02565b91505092915050565b7f4e487b71000000000000000000000000000000000000000000000000000000005f52602160045260245ffd5b60038110610db857610db7610d7a565b5b50565b5f819050610dc882610da7565b919050565b5f610dd782610dbb565b9050919050565b610de781610dcd565b82525050565b5f602082019050610e005f830184610dde565b92915050565b610e0f81610bc2565b82525050565b5f602082019050610e285f830184610e06565b92915050565b5f8115159050919050565b610e4281610e2e565b82525050565b5f602082019050610e5b5f830184610e39565b92915050565b5f60208284031215610e7657610e75610b7c565b5b5f610e8384828501610b8f565b91505092915050565b5f81519050919050565b5f82825260208201905092915050565b5f819050602082019050919050565b60058110610ec657610ec5610d7a565b5b50565b5f819050610ed682610eb5565b919050565b5f610ee582610ec9565b9050919050565b610ef581610edb565b82525050565b5f610f068383610eec565b60208301905092915050565b5f602082019050919050565b5f610f2882610e8c565b610f328185610e96565b9350610f3d83610ea6565b805f5b83811015610f6d578151610f548882610efb565b9750610f5f83610f12565b925050600181019050610f40565b5085935050505092915050565b5f6020820190508181035f830152610f928184610f1e565b905092915050565b5f82825260208201905092915050565b7f4f6e6c7920676f7665726e616e63652063616e2063616c6c20746869732066755f8201527f6e6374696f6e0000000000000000000000000000000000000000000000000000602082015250565b5f611004602683610f9a565b915061100f82610faa565b604082019050919050565b5f6020820190508181035f83015261103181610ff8565b9050919050565b7f4e487b71000000000000000000000000000000000000000000000000000000005f52603260045260245ffd5b61106e81610edb565b82525050565b5f6020820190506110875f830184611065565b92915050565b5f819050919050565b5f6110b06110ab6110a684610ba3565b61108d565b610ba3565b9050919050565b5f6110c182611096565b9050919050565b5f6110d2826110b7565b9050919050565b6110e2816110c8565b82525050565b604082015f8201516110fc5f8501826110d9565b50602082015161110f6020850182610eec565b50505050565b5f6040820190506111285f8301846110e8565b92915050565b61113781610e2e565b8114611141575f80fd5b50565b5f815190506111528161112e565b92915050565b5f6020828403121561116d5761116c610b7c565b5b5f61117a84828501611144565b9150509291505056fea164736f6c6343000814000a","linkReferences":{}},"methodIdentifiers":{"addToWhitelist((address,uint8))":"edec274f","getSupportedCollateralTypes()":"bdc6b282","getValidationStrategy(uint8)":"96e6b640","getWhitelistStatus((address,uint8))":"4e358d44","governance()":"5aa6e675","isWhitelisted((address,uint8))":"8279295a","removeFromWhitelist((address,uint8))":"6ac64f9c","removeValidationStrategy(uint8)":"a4e82db7","setValidationStrategy(uint8,address)":"1060c958"},"id":137}