{"abi":[{"type":"constructor","inputs":[{"name":"_factory","type":"address","internalType":"address"}],"stateMutability":"nonpayable"},{"type":"function","name":"afterCreatePoolHook","inputs":[{"name":"plugin","type":"address","internalType":"address"},{"name":"pool","type":"address","internalType":"address"},{"name":"deployer","type":"address","internalType":"address"}],"outputs":[],"stateMutability":"nonpayable"},{"type":"function","name":"beforeCreatePoolHook","inputs":[{"name":"pool","type":"address","internalType":"address"},{"name":"creator","type":"address","internalType":"address"},{"name":"deployer","type":"address","internalType":"address"},{"name":"token0","type":"address","internalType":"address"},{"name":"token1","type":"address","internalType":"address"},{"name":"data","type":"bytes","internalType":"bytes"}],"outputs":[{"name":"","type":"address","internalType":"address"}],"stateMutability":"nonpayable"},{"type":"function","name":"createCustomPool","inputs":[{"name":"deployer","type":"address","internalType":"address"},{"name":"creator","type":"address","internalType":"address"},{"name":"tokenA","type":"address","internalType":"address"},{"name":"tokenB","type":"address","internalType":"address"},{"name":"data","type":"bytes","internalType":"bytes"}],"outputs":[{"name":"customPool","type":"address","internalType":"address"}],"stateMutability":"nonpayable"},{"type":"function","name":"factory","inputs":[],"outputs":[{"name":"","type":"address","internalType":"address"}],"stateMutability":"view"},{"type":"function","name":"setFee","inputs":[{"name":"pool","type":"address","internalType":"address"},{"name":"newFee","type":"uint16","internalType":"uint16"}],"outputs":[],"stateMutability":"nonpayable"},{"type":"function","name":"setPlugin","inputs":[{"name":"pool","type":"address","internalType":"address"},{"name":"newPluginAddress","type":"address","internalType":"address"}],"outputs":[],"stateMutability":"nonpayable"},{"type":"function","name":"setPluginConfig","inputs":[{"name":"pool","type":"address","internalType":"address"},{"name":"newConfig","type":"uint8","internalType":"uint8"}],"outputs":[],"stateMutability":"nonpayable"},{"type":"function","name":"setTickSpacing","inputs":[{"name":"pool","type":"address","internalType":"address"},{"name":"newTickSpacing","type":"int24","internalType":"int24"}],"outputs":[],"stateMutability":"nonpayable"}],"bytecode":{"object":"0x60a060405234801562000010575f80fd5b50604051620011273803806200112783398181016040528101906200003691906200010e565b5f73ffffffffffffffffffffffffffffffffffffffff168173ffffffffffffffffffffffffffffffffffffffff16036200006e575f80fd5b8073ffffffffffffffffffffffffffffffffffffffff1660808173ffffffffffffffffffffffffffffffffffffffff1681525050506200013e565b5f80fd5b5f73ffffffffffffffffffffffffffffffffffffffff82169050919050565b5f620000d882620000ad565b9050919050565b620000ea81620000cc565b8114620000f5575f80fd5b50565b5f815190506200010881620000df565b92915050565b5f60208284031215620001265762000125620000a9565b5b5f6200013584828501620000f8565b91505092915050565b608051610fb4620001735f395f818161020c0152818161041601528181610513015281816105a601526107aa0152610fb45ff3fe608060405234801561000f575f80fd5b5060043610610086575f3560e01c80638d5ef8d1116100595780638d5ef8d11461010e578063c45a01551461012a578063dbbf3db414610148578063f9f4c09a1461017857610086565b8063054bee3d1461008a5780631d0338d9146100a6578063337f3a31146100d65780634bf092cd146100f2575b5f80fd5b6100a4600480360381019061009f919061094e565b610194565b005b6100c060048036038101906100bb91906109ed565b610209565b6040516100cd9190610aa6565b60405180910390f35b6100f060048036038101906100eb9190610af6565b61032a565b005b61010c60048036038101906101079190610b6a565b61039f565b005b61012860048036038101906101239190610ba8565b610414565b005b610132610511565b60405161013f9190610aa6565b60405180910390f35b610162600480360381019061015d9190610bf8565b610535565b60405161016f9190610aa6565b60405180910390f35b610192600480360381019061018d9190610c8e565b610653565b005b8161019e816106c8565b8273ffffffffffffffffffffffffffffffffffffffff1663bca57f81836040518263ffffffff1660e01b81526004016101d79190610cdb565b5f604051808303815f87803b1580156101ee575f80fd5b505af1158015610200573d5f803e3d5ffd5b50505050505050565b5f7f000000000000000000000000000000000000000000000000000000000000000073ffffffffffffffffffffffffffffffffffffffff163373ffffffffffffffffffffffffffffffffffffffff1614610298576040517f08c379a000000000000000000000000000000000000000000000000000000000815260040161028f90610d4e565b60405180910390fd5b8573ffffffffffffffffffffffffffffffffffffffff16631d0338d9898989898989896040518863ffffffff1660e01b81526004016102dd9796959493929190610dc6565b6020604051808303815f875af11580156102f9573d5f803e3d5ffd5b505050506040513d601f19601f8201168201806040525081019061031d9190610e42565b9050979650505050505050565b81610334816106c8565b8273ffffffffffffffffffffffffffffffffffffffff16638e005553836040518263ffffffff1660e01b815260040161036d9190610e7c565b5f604051808303815f87803b158015610384575f80fd5b505af1158015610396573d5f803e3d5ffd5b50505050505050565b816103a9816106c8565b8273ffffffffffffffffffffffffffffffffffffffff1663f085a610836040518263ffffffff1660e01b81526004016103e29190610ea4565b5f604051808303815f87803b1580156103f9575f80fd5b505af115801561040b573d5f803e3d5ffd5b50505050505050565b7f000000000000000000000000000000000000000000000000000000000000000073ffffffffffffffffffffffffffffffffffffffff163373ffffffffffffffffffffffffffffffffffffffff16146104a2576040517f08c379a000000000000000000000000000000000000000000000000000000000815260040161049990610d4e565b60405180910390fd5b8073ffffffffffffffffffffffffffffffffffffffff16638d5ef8d18484846040518463ffffffff1660e01b81526004016104df93929190610ebd565b5f604051808303815f87803b1580156104f6575f80fd5b505af1158015610508573d5f803e3d5ffd5b50505050505050565b7f000000000000000000000000000000000000000000000000000000000000000081565b5f8673ffffffffffffffffffffffffffffffffffffffff163373ffffffffffffffffffffffffffffffffffffffff16146105a4576040517f08c379a000000000000000000000000000000000000000000000000000000000815260040161059b90610f3c565b60405180910390fd5b7f000000000000000000000000000000000000000000000000000000000000000073ffffffffffffffffffffffffffffffffffffffff1663dbbf3db48888888888886040518763ffffffff1660e01b815260040161060796959493929190610f5a565b6020604051808303815f875af1158015610623573d5f803e3d5ffd5b505050506040513d601f19601f820116820180604052508101906106479190610e42565b90509695505050505050565b8161065d816106c8565b8273ffffffffffffffffffffffffffffffffffffffff1663cc1f97cf836040518263ffffffff1660e01b81526004016106969190610aa6565b5f604051808303815f87803b1580156106ad575f80fd5b505af11580156106bf573d5f803e3d5ffd5b50505050505050565b5f8173ffffffffffffffffffffffffffffffffffffffff16630dfe16816040518163ffffffff1660e01b8152600401602060405180830381865afa158015610712573d5f803e3d5ffd5b505050506040513d601f19601f820116820180604052508101906107369190610e42565b90505f8273ffffffffffffffffffffffffffffffffffffffff1663d21220a76040518163ffffffff1660e01b8152600401602060405180830381865afa158015610782573d5f803e3d5ffd5b505050506040513d601f19601f820116820180604052508101906107a69190610e42565b90507f000000000000000000000000000000000000000000000000000000000000000073ffffffffffffffffffffffffffffffffffffffff166323da36cc3384846040518463ffffffff1660e01b815260040161080593929190610ebd565b602060405180830381865afa158015610820573d5f803e3d5ffd5b505050506040513d601f19601f820116820180604052508101906108449190610e42565b73ffffffffffffffffffffffffffffffffffffffff168373ffffffffffffffffffffffffffffffffffffffff16146108b1576040517f08c379a00000000000000000000000000000000000000000000000000000000081526004016108a890610f3c565b60405180910390fd5b505050565b5f80fd5b5f80fd5b5f73ffffffffffffffffffffffffffffffffffffffff82169050919050565b5f6108e7826108be565b9050919050565b6108f7816108dd565b8114610901575f80fd5b50565b5f81359050610912816108ee565b92915050565b5f60ff82169050919050565b61092d81610918565b8114610937575f80fd5b50565b5f8135905061094881610924565b92915050565b5f8060408385031215610964576109636108b6565b5b5f61097185828601610904565b92505060206109828582860161093a565b9150509250929050565b5f80fd5b5f80fd5b5f80fd5b5f8083601f8401126109ad576109ac61098c565b5b8235905067ffffffffffffffff8111156109ca576109c9610990565b5b6020830191508360018202830111156109e6576109e5610994565b5b9250929050565b5f805f805f805f60c0888a031215610a0857610a076108b6565b5b5f610a158a828b01610904565b9750506020610a268a828b01610904565b9650506040610a378a828b01610904565b9550506060610a488a828b01610904565b9450506080610a598a828b01610904565b93505060a088013567ffffffffffffffff811115610a7a57610a796108ba565b5b610a868a828b01610998565b925092505092959891949750929550565b610aa0816108dd565b82525050565b5f602082019050610ab95f830184610a97565b92915050565b5f61ffff82169050919050565b610ad581610abf565b8114610adf575f80fd5b50565b5f81359050610af081610acc565b92915050565b5f8060408385031215610b0c57610b0b6108b6565b5b5f610b1985828601610904565b9250506020610b2a85828601610ae2565b9150509250929050565b5f8160020b9050919050565b610b4981610b34565b8114610b53575f80fd5b50565b5f81359050610b6481610b40565b92915050565b5f8060408385031215610b8057610b7f6108b6565b5b5f610b8d85828601610904565b9250506020610b9e85828601610b56565b9150509250929050565b5f805f60608486031215610bbf57610bbe6108b6565b5b5f610bcc86828701610904565b9350506020610bdd86828701610904565b9250506040610bee86828701610904565b9150509250925092565b5f805f805f8060a08789031215610c1257610c116108b6565b5b5f610c1f89828a01610904565b9650506020610c3089828a01610904565b9550506040610c4189828a01610904565b9450506060610c5289828a01610904565b935050608087013567ffffffffffffffff811115610c7357610c726108ba565b5b610c7f89828a01610998565b92509250509295509295509295565b5f8060408385031215610ca457610ca36108b6565b5b5f610cb185828601610904565b9250506020610cc285828601610904565b9150509250929050565b610cd581610918565b82525050565b5f602082019050610cee5f830184610ccc565b92915050565b5f82825260208201905092915050565b7f4f6e6c7920666163746f727900000000000000000000000000000000000000005f82015250565b5f610d38600c83610cf4565b9150610d4382610d04565b602082019050919050565b5f6020820190508181035f830152610d6581610d2c565b9050919050565b5f82825260208201905092915050565b828183375f83830152505050565b5f601f19601f8301169050919050565b5f610da58385610d6c565b9350610db2838584610d7c565b610dbb83610d8a565b840190509392505050565b5f60c082019050610dd95f83018a610a97565b610de66020830189610a97565b610df36040830188610a97565b610e006060830187610a97565b610e0d6080830186610a97565b81810360a0830152610e20818486610d9a565b905098975050505050505050565b5f81519050610e3c816108ee565b92915050565b5f60208284031215610e5757610e566108b6565b5b5f610e6484828501610e2e565b91505092915050565b610e7681610abf565b82525050565b5f602082019050610e8f5f830184610e6d565b92915050565b610e9e81610b34565b82525050565b5f602082019050610eb75f830184610e95565b92915050565b5f606082019050610ed05f830186610a97565b610edd6020830185610a97565b610eea6040830184610a97565b949350505050565b7f4f6e6c79206465706c6f796572000000000000000000000000000000000000005f82015250565b5f610f26600d83610cf4565b9150610f3182610ef2565b602082019050919050565b5f6020820190508181035f830152610f5381610f1a565b9050919050565b5f60a082019050610f6d5f830189610a97565b610f7a6020830188610a97565b610f876040830187610a97565b610f946060830186610a97565b8181036080830152610fa7818486610d9a565b905097965050505050505056","linkReferences":{}},"methodIdentifiers":{"afterCreatePoolHook(address,address,address)":"8d5ef8d1","beforeCreatePoolHook(address,address,address,address,address,bytes)":"1d0338d9","createCustomPool(address,address,address,address,bytes)":"dbbf3db4","factory()":"c45a0155","setFee(address,uint16)":"337f3a31","setPlugin(address,address)":"f9f4c09a","setPluginConfig(address,uint8)":"054bee3d","setTickSpacing(address,int24)":"4bf092cd"},"id":41}