{"abi":[{"type":"function","name":"PRECISION_FACTOR","inputs":[],"outputs":[{"name":"","type":"uint256","internalType":"uint256"}],"stateMutability":"view"},{"type":"function","name":"UNIT","inputs":[],"outputs":[{"name":"","type":"uint256","internalType":"uint256"}],"stateMutability":"view"},{"type":"function","name":"UNIT_INT","inputs":[],"outputs":[{"name":"","type":"int256","internalType":"int256"}],"stateMutability":"view"},{"type":"function","name":"UNIT_INT128","inputs":[],"outputs":[{"name":"","type":"int128","internalType":"int128"}],"stateMutability":"view"},{"type":"function","name":"UNIT_PRECISE","inputs":[],"outputs":[{"name":"","type":"uint256","internalType":"uint256"}],"stateMutability":"view"},{"type":"function","name":"UNIT_PRECISE_INT","inputs":[],"outputs":[{"name":"","type":"int256","internalType":"int256"}],"stateMutability":"view"},{"type":"function","name":"UNIT_PRECISE_INT128","inputs":[],"outputs":[{"name":"","type":"int128","internalType":"int128"}],"stateMutability":"view"},{"type":"function","name":"UNIT_UINT128","inputs":[],"outputs":[{"name":"","type":"uint128","internalType":"uint128"}],"stateMutability":"view"}],"bytecode":{"object":"0x6102c361004e600b8282823980515f1a607314610042577f4e487b71000000000000000000000000000000000000000000000000000000005f525f60045260245ffd5b305f52607381538281f3fe7300000000000000000000000000000000000000003014608060405260043610610091575f3560e01c80639d8e2177116100645780639d8e21771461010d5780639f3f7fc11461012b578063ccd34cd514610149578063d3efe7951461016757610091565b80635031052e1461009557806377ad5213146100b35780637decad29146100d15780639be8de8f146100ef575b5f80fd5b61009d610185565b6040516100aa9190610214565b60405180910390f35b6100bb610191565b6040516100c89190610248565b60405180910390f35b6100d961019d565b6040516100e69190610248565b60405180910390f35b6100f76101ad565b6040516101049190610279565b60405180910390f35b6101156101bd565b60405161012291906102aa565b60405180910390f35b6101336101c9565b60405161014091906102aa565b60405180910390f35b6101516101d9565b60405161015e91906102aa565b60405180910390f35b61016f6101de565b60405161017c9190610279565b60405180910390f35b670de0b6b3a764000081565b670de0b6b3a764000081565b6b033b2e3c9fd0803ce800000081565b6b033b2e3c9fd0803ce800000081565b670de0b6b3a764000081565b6b033b2e3c9fd0803ce800000081565b600981565b670de0b6b3a764000081565b5f6fffffffffffffffffffffffffffffffff82169050919050565b61020e816101ea565b82525050565b5f6020820190506102275f830184610205565b92915050565b5f81600f0b9050919050565b6102428161022d565b82525050565b5f60208201905061025b5f830184610239565b92915050565b5f819050919050565b61027381610261565b82525050565b5f60208201905061028c5f83018461026a565b92915050565b5f819050919050565b6102a481610292565b82525050565b5f6020820190506102bd5f83018461029b565b9291505056","linkReferences":{}},"methodIdentifiers":{"PRECISION_FACTOR()":"ccd34cd5","UNIT()":"9d8e2177","UNIT_INT()":"d3efe795","UNIT_INT128()":"77ad5213","UNIT_PRECISE()":"9f3f7fc1","UNIT_PRECISE_INT()":"9be8de8f","UNIT_PRECISE_INT128()":"7decad29","UNIT_UINT128()":"5031052e"},"id":160}